:100000000C9459000C9481000C9481000C94810094
:100010000C9481000C9481000C9481000C9481005C
:100020000C9481000C9481000C9481000C9481004C
:100030000C9481000C9481000C9481000C9481003C
:100040000C94490A0C9481000C94BD0C0C94EF0C98
:100050000C9481000C9481000C9481000C9481001C
:100060000C9445030C94810000000008000201007C
:100070000003040700000000000000000102040863
:100080001020408001020408102001020408102002
:10009000040404040404040402020202020203032E
:1000A0000303030300000000250028002B005B026F
:1000B0001F0D11241FBECFEFD8E0DEBFCDBF11E072
:1000C000A0E0B1E0E0E0F4E202C005900D92AC3AAD
:1000D000B107D9F723E0ACEAB1E001C01D92A03826
:1000E000B207E1F710E0C2EBD0E004C02297FE01B6
:1000F0000E94FA11CE3AD107C9F70E94500F0C9412
:10010000FE110C94000026E040E052EC61E070E04B
:1001100083EE92E00E945B0C60E071E083EE92E07F
:100120000E94AD0D28E630E040E050E063E070E072
:100130008CEA91E00E94980981110DC063E171E0A1
:1001400083EE92E00E94AD0D64EF71E080E090E0FC
:100150000E94B60AE7CF68E471E083EE92E00E9465
:10016000A00D68EE8CEA91E00E942C0667E571E034
:1001700083EE92E00E94A00D83EE92E00E94A90D12
:1001800068EE73E080E090E00C94B60ACF92DF92C4
:10019000EF92FF92CF93DF93CDB7DEB72C970FB6D8
:1001A000F894DEBF0FBECDBF6CEA71E0CE010196C0
:1001B0000E9418058CEA91E00E94320A6B017C01D2
:1001C00061E671E083EE92E00E94A00D49815A81C0
:1001D0006B817C8122E030E083EE92E00E944D0F43
:1001E00068E671E083EE92E00E94A00D4D815E8191
:1001F0006F81788522E030E083EE92E00E944D0F1F
:100200006FE671E083EE92E00E94A00D49855A8569
:100210006B857C8522E030E083EE92E00E944D0FFA
:1002200066E771E083EE92E00E94A00D22E030E0EC
:10023000B701A60183EE92E00E944D0F83EE92E09B
:100240000E94A90D6AE070E080E090E02C960FB665
:10025000F894DEBF0FBECDBFDF91CF91FF90EF903E
:10026000DF90CF900C94B60A80914A0290E02091E2
:100270004B02821B9109089520914B0280914A0202
:10028000281750F4E22FF0E0E45BFD4F808190E00E
:100290002F5F20934B0208958FEF9FEF0895E09119
:1002A0004B0280914A02E81730F4F0E0E45BFD4F26
:1002B000808190E008958FEF9FEF08950895CF9289
:1002C000DF92EF92FF920F931F93CF93DF937C0106
:1002D000CB018A0120912602222389F0EB016B01D8
:1002E000C40ED51ECC15DD0569F06991D701ED91DD
:1002F000FC910190F081E02DC7010995F3CF642FA7
:100300000E941C03C801DF91CF911F910F91FF90B4
:10031000EF90DF90CF900895CF93DF931F92CDB7EA
:10032000DEB76983209126022223D1F02091270293
:10033000203240F021E030E0FC013383228380E072
:1003400090E015C080912802E82FF0E0E75DFD4FB6
:10035000998190838F5F809328028093270205C044
:1003600061E0CE0101960E941C0381E090E00F90B5
:10037000DF91CF910895FC011382128248EE53E081
:1003800060E070E0448355836683778380E891E082
:1003900091838083089510924B0210924A0210922A
:1003A0002802109227020C945F0281E080932602BB
:1003B00060934902109228021092270208950C942B
:1003C000D5010F93062F21E04091270269E272E0E8
:1003D000809149020E94C5021092280210922702C1
:1003E000109226020F9108958F929F92AF92BF9222
:1003F000CF92DF92EF92FF920F931F93CF93DF93F1
:10040000EC01F62ED42E48015901EE2019F10E947C
:10041000D5011E2D143008F013E01150B8F0E8811A
:10042000F98128E0129FB0011124A501940104C0B4
:1004300056954795379527956A95D2F7CA01B90120
:100440000190F081E02DCE010995E7CF60E0CE016B
:100450000E94E1014D2D413208F040E22C2D6CE468
:1004600072E08F2D0E947D0210924B0280934A020F
:10047000DF91CF911F910F91FF90EF90DF90CF9080
:10048000BF90AF909F908F900895CF92EF920F936F
:100490001F93C22EE12C00E010E098010E94F401AD
:1004A0001F910F91EF90CF90089521E00C94450299
:1004B00061E00C94E1018AE192E00C94BB0110929E
:1004C000D90281E08093D7021092D60261E082E1E6
:1004D0000E94420B61E083E10E94420BE9EBF0E0F5
:1004E00080818E7F808380818D7F808388E480936C
:1004F000B80085E48093BC000895413208F043C001
:100500009091D9029111FCCF91E09093D902209360
:10051000D7022FEF20936C021092B102240F209388
:10052000B0029093D8029091D802880F892B8093C3
:10053000D8028091D602813061F41092D602809167
:10054000D8028093BB008091BC0083FDF8CF85EC7E
:1005500001C085EE8093BC008091D9028130E1F327
:100560008091B102841710F44091B10222EB32E085
:10057000FB01D9018A2F821B841718F48D91819376
:10058000F9CF842F089580E008950F93413208F049
:100590004AC09091D9029111FCCF92E09093D90278
:1005A0000093D7029FEF90936C021092B102409398
:1005B000B002FB0162EB72E0DB019A2F961B9417ED
:1005C00018F491919D93F9CF1092D8029091D8028E
:1005D000880F892B8093D8028091D602813061F4F4
:1005E0001092D6028091D8028093BB008091BC000B
:1005F00083FDF8CF85EC01C085EE8093BC002223FB
:1006000021F08091D9028230E1F380916C028F3F1A
:1006100061F080916C02803251F080916C028033E5
:1006200041F483E007C081E005C080E003C082E0C0
:1006300001C084E00F910895613298F42091D902AD
:10064000243089F460938E02FC0180E992E0DC01A1
:100650002A2F281B261718F421912D93F9CF80E01B
:10066000089581E0089582E0089585ED8093BC00AF
:100670008091BC0084FDFCCF1092D902089585ECD6
:100680008093BC001092D90208951F920F920FB66A
:100690000F9211242F933F934F935F936F937F9308
:1006A0008F939F93AF93BF93EF93FF938091B90084
:1006B000887F803609F49EC078F5883209F45DC0E1
:1006C00090F4803109F456C038F4882309F4F5C059
:1006D000883009F44FC0F5C0883109F44EC080322B
:1006E00009F45FC0EEC0803409F46AC058F4803366
:1006F00009F457C0883309F0E4C080936C020E946B
:100700003F03DFC0803509F44FC0883509F45DC070
:10071000883409F0D6C0D3C0883909F4C4C0A8F41D
:10072000883709F467C038F4883609F463C0803725
:1007300009F460C0C6C0883809F4B5C0803909F42E
:100740005FC0803809F0BDC05BC0803B09F483C046
:1007500038F4803A09F466C0883A09F47CC0B1C024
:10076000803C09F4A4C0883C09F4A1C0883B09F48A
:1007700087C0A7C08091D80210C09091B10280912B
:10078000B002981770F5E091B10281E08E0F80936E
:10079000B102F0E0EE54FD4F80818093BB0085EC08
:1007A00083C080936C028BC0E091B10281E08E0F18
:1007B0008093B1028091BB00F0E0EE54FD4F808346
:1007C0009091B1028091B0026BC0E091B10281E0E2
:1007D0008E0F8093B1028091BB00F0E0EE54FD4F8C
:1007E00080838091D70281116AC081E08093D60214
:1007F00084EA5EC083E08093D90210926D02CFCF6D
:1008000080916D02803208F04EC0E0916D0281E06F
:100810008E0F80936D028091BB00F0E0E259FD4F96
:100820008083BDCF0E943F0380916D02803230F4FF
:10083000E0916D02F0E0E259FD4F108260916D028F
:1008400070E0E091D202F091D3028EE692E0099539
:1008500010926D0236C084E08093D90210928F020C
:1008600010928E02E091D402F091D5020995809108
:100870008E02811105C081E080938E021092900259
:10088000E0918F0281E08E0F80938F02F0E0E057BD
:10089000FD4F80818093BB0090918F0280918E02EA
:1008A000981708F47CCF85E88093BC000AC085ECDB
:1008B0008093BC001092D90204C010926C020E9476
:1008C0003503FF91EF91BF91AF919F918F917F91F0
:1008D0006F915F914F913F912F910F900FBE0F90AD
:1008E0001F901895DC01ED91FC910190F081E02DB5
:1008F00009944F925F926F927F928F929F92AF92E4
:10090000BF92CF92DF92EF92FF920F931F93CF93FC
:10091000DF938C01EB014B018CE6880E911CF401F6
:10092000608171818AE192E00E94DF0163E470E0FE
:100930008AE192E00E9472048AE192E00E945802E9
:10094000F401608171818AE192E00E94DF01F4018B
:100950006081718146E050E08AE192E00E94550298
:100960008AE192E00E9434010697D4F38AE192E092
:100970000E943C01482E8AE192E00E943C01582EE0
:100980008AE192E00E943C01682E8AE192E00E9496
:100990003C01782E8AE192E00E943C01882E8AE197
:1009A00092E00E943C01982EB42CA12CA528B50100
:1009B000882777FD8095982F0E9464106C877D872B
:1009C0008E879F87D62CC12CC728B601882777FD34
:1009D0008095982F0E946410688B798B8A8B9B8BF3
:1009E000F82CE12CE928B701882777FD8095982F0E
:1009F0000E9464106C8B7D8B8E8B9F8B8CE0FE0134
:100A00003C96D80101900D928A95E1F7C801DF91DB
:100A1000CF911F910F91FF90EF90DF90CF90BF90FB
:100A2000AF909F908F907F906F905F904F900895C0
:100A3000AF92BF92CF92DF92EF92FF920F931F93EC
:100A4000CF93DF93CDB7DEB72C970FB6F894DEBF08
:100A50000FBECDBF5C018B01CE0101960E947904CF
:100A6000F801E559FF4F80813C97C080D180E2803A
:100A7000F3808823D1F1F80124AD35AD46AD57ADF3
:100A800064857585868597850E94600FA70196010C
:100A90000E941811F80164A375A386A397A3E05CD4
:100AA000FF4F2081318142815381F8016089718932
:100AB000828993890E94600FA70196010E941811F4
:100AC000F80160A771A782A793A7EC5BFF4F208175
:100AD000318142815381F8016489758986899789BA
:100AE0000E94600FA701960121C0A7019601F8019D
:100AF00064857585868597850E941811F80164A321
:100B000075A386A397A3A70196016089718982893D
:100B100093890E941811F80160A771A782A793A773
:100B2000A701960164897589868997890E941811A1
:100B3000F80164A775A786A797A720E030E0A90170
:100B4000F801E959FF4F60817181828193810E9490
:100B5000C50F882309F466C0F801C4A0D5A0E6A09B
:100B6000F7A020E030E0A901C701B6010E941411EE
:100B7000181624F0C701B601905802C0C701B6018B
:100B8000F80120A931A942A953A90E94C50F87FFE6
:100B900005C0F80114A215A216A217A2F801C0A45C
:100BA000D1A4E2A4F3A420E030E0A901C701B6017A
:100BB0000E941411181624F0C701B601905802C003
:100BC000C701B601F80124A935A946A957A90E9471
:100BD000C50F87FF05C0F80110A611A612A613A61F
:100BE000F801C4A4D5A4E6A4F7A420E030E0A9014C
:100BF000C701B6010E941411181624F0C701B601EE
:100C0000905802C0C701B601F80120AD31AD42AD28
:100C100053AD0E94C50F87FF05C0F80114A615A6A5
:100C200016A617A68CE0F801B496D50101900D9296
:100C30008A95E1F7C5012C960FB6F894DEBF0FBE7A
:100C4000CDBFDF91CF911F910F91FF90EF90DF907B
:100C5000CF90BF90AF9008952F923F924F925F92A6
:100C60006F927F928F929F92AF92BF92CF92DF92BC
:100C7000EF92FF920F931F93CF93DF93CDB7DEB721
:100C8000A4970FB6F894DEBF0FBECDBF8C01262E01
:100C9000FC01E559FF4F81E08083312C198E1A8EBB
:100CA0001B8E1C8E1D8A1E8A1F8A188E198A1A8A0C
:100CB0001B8A1C8A1D861E861F86188A812C912CF1
:100CC000540124013501321409F480C0B801CE0169
:100CD00001960E947904D8011C96CD90DD90ED908C
:100CE000FC901F97A7019601C301B2010E94610FFA
:100CF0002B013C01D80150968D919D910D90BC9196
:100D0000A02D8D8F9E8FAF8FB8A39C01AD01C50123
:100D1000B4010E94610F4B015C01D80154968D9182
:100D20009D910D90BC91A02D89A39AA3ABA3BCA3C8
:100D30009C01AD016D857E858F8598890E94610F2C
:100D40006D877E878F87988BA7019601C701B601B3
:100D50000E9418119B01AC0169897A898B899C8951
:100D60000E94610F698B7A8B8B8B9C8B2D8D3E8DB6
:100D70004F8D58A1CA01B9010E9418119B01AC0105
:100D80006D897E898F89988D0E94610F6D8B7E8B16
:100D90008F8B988F29A13AA14BA15CA1CA01B901FF
:100DA0000E9418119B01AC01698D7A8D8B8D9C8DF1
:100DB0000E94610F698F7A8F8B8F9C8F65E070E046
:100DC00080E090E00E94B60A33947DCF632D70E0FE
:100DD00080E090E00E9464106B017C019B01AC01FB
:100DE000C301B2010E94C90F2B013C01F80164AF9D
:100DF00075AF86AF97AFA7019601C501B4010E94F8
:100E0000C90F4B015C01F801E05CFF4F6083718307
:100E100082839383A70196016D857E858F8598894E
:100E20000E94C90F6B017C01F801EC5BFF4F6083EE
:100E300071838283938320E030E048E452E469893F
:100E40007A898B899C890E94C90F6D877E878F87DD
:100E5000988BA3019201C301B2010E9418119B015A
:100E6000AC016D857E858F8598890E94600F0E94F8
:100E70007F11F801E85BFF4F608371838283938366
:100E800020E030E048E452E46D897E898F89988DB6
:100E90000E94C90F2B013C01A5019401C501B401B9
:100EA0000E9418119B01AC01C301B2010E94600FA6
:100EB0000E947F11F801E45BFF4F6083718382839E
:100EC000938320E030E048E452E4698D7A8D8B8D85
:100ED0009C8D0E94C90F4B015C01A7019601C701BF
:100EE000B6010E9418119B01AC01C501B4010E941A
:100EF000600F0E947F11F801E05BFF4F60837183F8
:100F0000828393837796C080D180E280F38020E053
:100F100030E0A901C701B6010E9414111816FCF4B3
:100F2000C701B6010E943610C801A4960FB6F89406
:100F3000DEBF0FBECDBFDF91CF911F910F91FF900C
:100F4000EF90DF90CF90BF90AF909F908F907F9069
:100F50006F905F904F903F902F900C94C807A4968D
:100F60000FB6F894DEBF0FBECDBFDF91CF911F91BA
:100F70000F91FF90EF90DF90CF90BF90AF909F9038
:100F80008F907F906F905F904F903F902F9008953B
:100F9000CF92DF92EF92FF921F93CF93DF93EC01FA
:100FA000162F662309F440C0FC01E559FF4F8081EC
:100FB000811104C062E3CE010E942C06612F70E013
:100FC00080E090E00E9464106B017C019B01AC0109
:100FD000FE01E85BFF4F60817181828193810E94F5
:100FE000181168AB79AB8AAB9BABA7019601FE01E8
:100FF000E45BFF4F60817181828193810E941811AF
:101000006CAB7DAB8EAB9FABA7019601FE01E05BA5
:10101000FF4F60817181828193810E94181168AFB6
:1010200079AF8AAF9BAF0CC018AA19AA1AAA1BAA3B
:101030001CAA1DAA1EAA1FAA18AE19AE1AAE1BAE74
:10104000C959DF4F612F70E080E090E00E9462108C
:10105000688379838A839B83DF91CF911F91FF906F
:10106000EF90DF90CF9008951F93CF93DF93162FCB
:10107000EC01C459DF4F688179818AE192E00E94D6
:10108000DF01612F8AE192E00E948C018AE192E007
:101090000E945802688179818AE192E00E94DF0112
:1010A0006881798141E050E08AE192E00E94550236
:1010B0008AE192E00E943C01C82F8AE192E00E94FE
:1010C00058028C2FDF91CF911F9108951F93CF93DA
:1010D000DF93162FEC01C459DF4F688179818AE1D3
:1010E00092E00E94DF01612F8AE192E00E948C0170
:1010F0008AE192E00E945802688179818AE192E057
:101100000E94DF016881798141E050E08AE192E04C
:101110000E9455028AE192E00E943401892BD1F3AA
:101120008AE192E00E943C01C82F8AE192E00E948D
:1011300058028C2FDF91CF911F9108951F93CF9369
:10114000DF931F92CDB7DEB7162F84599F4FFC0156
:10115000608171818AE192E049830E94DF01612F01
:101160008AE192E00E948C014981642F8AE192E039
:101170000E948C018AE192E00F90DF91CF911F9144
:101180000C9458020F931F93CF93DF93EC018B01C4
:1011900061307105A1F044F46115710539F58FE3F3
:1011A0009EE1AAEFBBE30FC062307105A1F063308E
:1011B0007105E1F44CEE50EC69E77DE310C080E787
:1011C00092E2AAE7BCE3FE01E15AFF4F80839183DC
:1011D000A283B3830BC04FED5FEB69EF7CE3FE01AD
:1011E000E15AFF4F40835183628373836BE1CE01E9
:1011F0000E946608482F477E53E0000F111F5A9542
:10120000E1F7402B6BE1CE01DF91CF911F910F9160
:101210000C949E080F931F93CF93DF93EC018B01E7
:1012200061307105A1F044F46115710539F580E470
:101230009AEDAFE7B8E30FC062307105A1F06330FB
:101240007105E1F448E155EF6FEF79E310C080E4F8
:101250009AEDAFEFB8E3FE01ED59FF4F8083918324
:10126000A283B3830BC040E45AED6FE779E3FE013C
:10127000ED59FF4F40835183628373836CE1CE014C
:101280000E946608482F477E63E0000F111F6A9591
:10129000E1F7402B6CE1CE01DF91CF911F910F91CF
:1012A0000C949E081F93CF93DF93EC01162F6BE6EF
:1012B0000E946608482F487F412B6BE6CE01DF91E4
:1012C000CF911F910C949E08EF92FF921F93CF93A2
:1012D000DF9300D0CDB7DEB77C01162F2A83498378
:1012E0000E9466082A814981222349F021E030E0EA
:1012F00001C0220F4A95EAF7482F422B09C021E08E
:1013000030E001C0220F4A95EAF7422F409548236A
:10131000612FC7010F900F90DF91CF911F91FF9028
:10132000EF900C949E08262F46E06BE60C9464091F
:10133000EF92FF920F931F93CF93DF93EC018B01FA
:101340007A01FC01E459FF4F318320838AE192E066
:101350000E94CB011CAE1DAE1EAE1FAEFE01E05CB6
:10136000FF4F1082118212821382349610821182F2
:1013700012821382B796108218AA19AA1AAA1BAA57
:101380001CAA1DAA1EAA1FAA18AE19AE1AAE1BAE21
:101390003497108211821282138265E7CE010E9477
:1013A0003408883699F461E070E0CE010E94520959
:1013B000B801CE010E94C208B701CE010E940A09FD
:1013C00060E0CE010E94930981E001C080E0DF91DE
:1013D000CF911F910F91FF90EF900895FF920F937F
:1013E0001F93CF93DF93F62EEC01C459DF4F688132
:1013F00079818AE192E00E94DF016F2D8AE192E01B
:101400000E948C018AE192E00E94580268817981F1
:101410008AE192E00E94DF016881798142E050E038
:101420008AE192E00E9455028AE192E00E94340132
:10143000892BD1F38AE192E00E943C01D82F8AE106
:1014400092E00E943C01C82F8AE192E00E9458027B
:101450001D2F00E0C8018C2BDF91CF911F910F91C0
:10146000FF90089561E40E94EE09BC01882777FD92
:101470008095982F0E94641020E030E04AEA53E4FF
:101480000E94C90F28EB3EE142E152E40E94610F45
:1014900008951F920F920FB60F9211242F933F932E
:1014A0008F939F93AF93BF938091DB029091DC0267
:1014B000A091DD02B091DE023091DA0223E0230F29
:1014C0002D3720F40196A11DB11D05C026E8230F7C
:1014D0000296A11DB11D2093DA028093DB02909346
:1014E000DC02A093DD02B093DE028091DF029091D6
:1014F000E002A091E102B091E2020196A11DB11DAE
:101500008093DF029093E002A093E102B093E202A5
:10151000BF91AF919F918F913F912F910F900FBEEF
:101520000F901F9018953FB7F8948091DF0290912B
:10153000E002A091E102B091E20226B5A89B05C0AD
:101540002F3F19F00196A11DB11D3FBF6627782FCF
:10155000892F9A2F620F711D811D911D42E0660F28
:10156000771F881F991F4A95D1F70895CF92DF9270
:10157000EF92FF92CF93DF936B017C010E94930A5D
:10158000EB01C114D104E104F10489F00E945F0F62
:101590000E94930A6C1B7D0B683E734090F381E0C0
:1015A000C81AD108E108F108C851DC4FEACFDF9131
:1015B000CF91FF90EF90DF90CF900895789484B50D
:1015C000826084BD84B5816084BD85B5826085BD3F
:1015D00085B5816085BDEEE6F0E080818160808325
:1015E000E1E8F0E010828081826080838081816008
:1015F0008083E0E8F0E0808181608083E1EBF0E0CF
:10160000808184608083E0EBF0E080818160808372
:10161000EAE7F0E08081846080838081826080835B
:101620008081816080838081806880831092C10086
:101630000895833081F028F4813099F08230A1F050
:1016400008958730A9F08830B9F08430D1F48091C2
:1016500080008F7D03C0809180008F778093800011
:10166000089584B58F7702C084B58F7D84BD0895B9
:101670008091B0008F7703C08091B0008F7D809300
:10168000B00008950F931F93CF93DF931F92CDB7B0
:10169000DEB7282F30E0F901E859FF4F8491F901B6
:1016A000E458FF4F1491F901E057FF4F04910023D4
:1016B000C9F0882321F069830E94190B6981E02F0A
:1016C000F0E0EE0FFF1FEC55FF4FA591B4919FB7CF
:1016D000F8948C91611103C01095812301C0812B76
:1016E0008C939FBF0F90DF91CF911F910F91089521
:1016F000FC01818D228D90E0805C9F4F821B9109BF
:101700008F7399270895FC01918D828D981731F080
:10171000828DE80FF11D858D90E008958FEF9FEF8A
:101720000895FC01918D828D981761F0828DDF0103
:10173000A80FB11D5D968C91928D9F5F9F73928FC4
:1017400090E008958FEF9FEF089585E19DE0892B4C
:1017500049F080E090E0892B29F00E94150D81115D
:101760000C9400000895FC01848DDF01A80FB11DC9
:10177000A35ABF4F2C91848D90E001968F739927C7
:10178000848FA689B7892C93A089B1898C918064B4
:101790008C93938D848D981306C00288F389E02D75
:1017A00080818F7D80830895CF93DF93EC01888DB6
:1017B0008823C9F0EA89FB89808185FD05C0A88955
:1017C000B9898C9186FD0FC00FB607FCF5CF8081DB
:1017D00085FFF2CFA889B9898C9185FFEDCFCE0125
:1017E0000E94B30BE7CFDF91CF910895CF92DF92A4
:1017F000FF920F931F93CF93DF931F92CDB7DEB766
:101800006C0181E0D60158968C9358975B969C9119
:101810005B975C968C915C97981307C05096ED91FE
:10182000FC915197808185FD2EC0F601038D10E05B
:101830000F5F1F4F0F731127F02EF601848DF812E2
:1018400011C00FB607FCF9CFD6015096ED91FC916F
:101850005197808185FFF1CFC60169830E94B30B48
:101860006981EBCF838DE80FF11DE35AFF4F608351
:10187000D6015B960C935B975296ED91FC91539732
:10188000808180620CC0D6015696ED91FC915797ED
:1018900060835096ED91FC915197808180648083A4
:1018A00081E090E00F90DF91CF911F910F91FF9019
:1018B000DF90CF900895BF92CF92DF92EF92FF9288
:1018C000CF93DF93EC016A017B01B22EE889F9899D
:1018D00082E08083411581EE580761057105A1F012
:1018E00060E079E08DE390E0A70196010E94D611B7
:1018F000215031094109510956954795379527954A
:10190000211580E1380798F0E889F989108260E8AC
:1019100074E88EE190E0A70196010E94D611215053
:101920003109410951095695479537952795EC8519
:10193000FD853083EE85FF852083188EEC89FD8937
:10194000B082EA89FB89808180618083EA89FB8992
:10195000808188608083EA89FB89808180688083B8
:10196000EA89FB8980818F7D8083DF91CF91FF9011
:10197000EF90DF90CF90BF9008951F920F920FB617
:101980000F9211242F938F939F93EF93FF93E091E6
:10199000F302F091F4028081E091F902F091FA02F1
:1019A00082FD12C090818091FC028F5F8F73209125
:1019B000FD02821751F0E091FC02F0E0ED51FD4F85
:1019C000958F8093FC0201C08081FF91EF919F91E0
:1019D0008F912F910F900FBE0F901F9018951F920F
:1019E0000F920FB60F9211242F933F934F935F9353
:1019F0006F937F938F939F93AF93BF93EF93FF93D7
:101A000083EE92E00E94B30BFF91EF91BF91AF91F3
:101A10009F918F917F916F915F914F913F912F9106
:101A20000F900FBE0F901F90189583EE92E00E94CA
:101A3000780B21E0892B09F420E0822F0895109281
:101A4000E6021092E50288EE93E0A0E0B0E0809319
:101A5000E7029093E802A093E902B093EA0280E9DA
:101A600091E09093E4028093E30285EC90E0909300
:101A7000F0028093EF0284EC90E09093F202809366
:101A8000F10280EC90E09093F4028093F30281ECF9
:101A900090E09093F6028093F50282EC90E09093B0
:101AA000F8028093F70286EC90E09093FA0280931C
:101AB000F9021092FC021092FD021092FE021092A6
:101AC000FF020895CF92DF92EF92FF920F931F9340
:101AD000CF93DF937C016A01EB0100E010E00C156D
:101AE0001D0571F06991D701ED91FC910190F08194
:101AF000E02DC7010995892B19F00F5F1F4FEFCF1C
:101B0000C801DF91CF911F910F91FF90EF90DF906F
:101B1000CF9008956115710581F0DB010D900020D3
:101B2000E9F7AD0141505109461B570BDC01ED911E
:101B3000FC910280F381E02D099480E090E008950B
:101B40000C948A0DDC01ED91FC910190F081E02D67
:101B500009946CE971E00C948A0D0F931F93CF9355
:101B6000DF93EC010E948A0D8C01CE010E94A90D29
:101B7000800F911FDF91CF911F910F9108958F9248
:101B80009F92AF92BF92CF92DF92EF92FF920F930C
:101B90001F93CF93DF93CDB7DEB7A1970FB6F8941D
:101BA000DEBF0FBECDBF7C01C42EE52FCB01D22EF0
:101BB00019A221E02D1510F02AE0D22E8E010F5D22
:101BC0001F4F8D2C912CA12CB12C6C2D7E2FA5019B
:101BD00094010E94D6118C2DD29E8019112401509F
:101BE00011098A3014F4805D01C0895CF80180839A
:101BF000211531054105510521F0C22EE32FCA01FF
:101C0000E4CFB801C7010E948A0DA1960FB6F894DF
:101C1000DEBF0FBECDBFDF91CF911F910F91FF901F
:101C2000EF90DF90CF90BF90AF909F908F900895EE
:101C3000CF92DF92EF92FF920F931F93CF93DF9398
:101C4000EC016A017B012115310579F4E881F98104
:101C50000190F081E02D642FDF91CF911F910F91C2
:101C6000FF90EF90DF90CF9009942A303105E9F48E
:101C700077FF1AC06DE20E94A20D8C014427552700
:101C8000BA014C195D096E097F092AE0CE010E9454
:101C9000BF0D800F911FDF91CF911F910F91FF908A
:101CA000EF90DF90CF9008952AE0B701A601CE0112
:101CB000DF91CF911F910F91FF90EF90DF90CF9028
:101CC0000C94BF0D4F925F926F927F928F929F9272
:101CD000AF92BF92CF92DF92EF92FF920F931F933A
:101CE000CF93DF93EC016A017B01B22E9A01AB0125
:101CF000C701B6010E94BD11882319F06FE971E098
:101D000027C026013701E89477F82FEF3FEF4FE720
:101D10005FE7C301B2010E94BD1181110DC02FEF19
:101D20003FEF4FE75FE7C301B2010E94C50F1816EE
:101D30001CF463EA71E00CC02FEF3FEF4FE75FE464
:101D4000C701B6010E9414111816ACF467EA71E0DD
:101D5000CE01DF91CF911F910F91FF90EF90DF9017
:101D6000CF90BF90AF909F908F907F906F905F903B
:101D70004F900C948A0D2FEF3FEF4FE75FECC701B8
:101D8000B6010E94C50F87FDE1CF20E030E0A90138
:101D9000C701B6010E94C50F87FF0AC06DE2CE01E0
:101DA0000E94A20D8C01F7FAF094F7F8F09402C0AB
:101DB00000E010E0A12C60E070E080E09FE3AB1455
:101DC00041F020E030E040E251E40E94C90FA394CA
:101DD000F6CF9B01AC01C701B6010E94610F6B01F8
:101DE0007C010E9436102B013C010E9462109B0175
:101DF000AC01C701B6010E94600F6B017C012AE0B3
:101E0000B301A201CE010E94BF0D080F191FBB2014
:101E100039F065E571E0CE010E948A0D080F191FA7
:101E20007B2C772041F120E030E040E251E4C70113
:101E3000B6010E9418116B017C010E9431104B0108
:101E4000AA2497FCA094BA2C2AE030E0B501A401A2
:101E5000CE010E94180E080F191FC501B4010E947F
:101E600064109B01AC01C701B6010E94600F6B01B9
:101E70007C017A94D6CFC801DF91CF911F910F9149
:101E8000FF90EF90DF90CF90BF90AF909F908F909A
:101E90007F906F905F904F9008950C94620E08951C
:101EA0000E94DE0A0E944F0F0E948300C5EADBE019
:101EB0000E94C6002097E1F30E94A50BF9CF089578
:101EC0005058BB27AA270ED075C166D130F06BD110
:101ED00020F031F49F3F11F41EF45BC10EF4E09545
:101EE000E7FB51C1E92F77D180F3BA176207730777
:101EF0008407950718F071F49EF58FC10EF4E095F4
:101F00000B2EBA2FA02D0B01B90190010C01CA01B3
:101F1000A0011124FF27591B99F0593F50F4503E5E
:101F200068F11A16F040A22F232F342F4427585F50
:101F3000F3CF469537952795A795F0405395C9F768
:101F40007EF41F16BA0B620B730B840BBAF0915020
:101F5000A1F0FF0FBB1F661F771F881FC2F70EC0BF
:101F6000BA0F621F731F841F48F487957795679592
:101F7000B795F7959E3F08F0B3CF9395880F08F07B
:101F80009927EE0F979587950895D9D008F481E0A9
:101F900008950CD00FC107D140F0FED030F021F4ED
:101FA0005F3F19F0F0C0511139C1F3C014D198F35B
:101FB0009923C9F35523B1F3951B550BBB27AA27CA
:101FC00062177307840738F09F5F5F4F220F331F3C
:101FD000441FAA1FA9F333D00E2E3AF0E0E830D008
:101FE00091505040E695001CCAF729D0FE2F27D00B
:101FF000660F771F881FBB1F261737074807AB07D9
:10200000B0E809F0BB0B802DBF01FF2793585F4F4D
:102010002AF09E3F510568F0B6C000C15F3FECF367
:10202000983EDCF3869577956795B795F7959F5F12
:10203000C9F7880F911D9695879597F90895E1E066
:10204000660F771F881FBB1F621773078407BA07C5
:1020500020F0621B730B840BBA0BEE1F88F7E09520
:10206000089504D06894B111D9C00895BCD088F007
:102070009F5790F0B92F9927B751A0F0D1F0660F74
:10208000771F881F991F1AF0BA95C9F712C0B1308F
:1020900081F0C3D0B1E00895C0C0672F782F8827A2
:1020A000B85F39F0B93FCCF3869577956795B395CE
:1020B000D9F73EF490958095709561957F4F8F4F3D
:1020C0009F4F0895E89409C097FB3EF49095809542
:1020D000709561957F4F8F4F9F4F9923A9F0F92FEE
:1020E00096E9BB279395F695879577956795B7956C
:1020F000F111F8CFFAF4BB0F11F460FF1BC06F5F52
:102100007F4F8F4F9F4F16C0882311F096E911C063
:10211000772321F09EE8872F762F05C0662371F084
:1021200096E8862F70E060E02AF09A95660F771F98
:10213000881FDAF7880F9695879597F90895990F74
:102140000008550FAA0BE0E8FEEF16161706E80781
:10215000F907C0F012161306E407F50798F0621BA2
:10216000730B840B950B39F40A2661F0232B242B77
:10217000252B21F408950A2609F4A140A6958FEF96
:10218000811D811D089597F99F6780E870E060E0E8
:1021900008959FEF80EC089500240A941616170600
:1021A00018060906089500240A9412161306140648
:1021B00005060895092E0394000C11F4882352F0AB
:1021C000BB0F40F4BF2B11F460FF04C06F5F7F4F63
:1021D0008F4F9F4F089557FD9058440F551F59F04A
:1021E0005F3F71F04795880F97FB991F61F09F3F04
:1021F00079F087950895121613061406551FF2CF2D
:102200004695F1DF08C0161617061806991FF1CF7C
:1022100086957105610508940895E894BB276627A3
:102220007727CB0197F908958ADF08F48FEF089597
:102230000BD0C0CFB1DF28F0B6DF18F0952309F03E
:10224000A2CFA7CF1124EACFC6DFA0F3959FD1F389
:10225000950F50E0551F629FF001729FBB27F00D54
:10226000B11D639FAA27F00DB11DAA1F649F6627A9
:10227000B00DA11D661F829F2227B00DA11D621FF8
:10228000739FB00DA11D621F839FA00D611D221FB2
:10229000749F3327A00D611D231F849F600D211D96
:1022A000822F762F6A2F11249F5750408AF0E1F039
:1022B00088234AF0EE0FFF1FBB1F661F771F881F82
:1022C00091505040A9F79E3F510570F05CCFA6CFCA
:1022D0005F3FECF3983EDCF3869577956795B7956D
:1022E000F795E7959F5FC1F7FE2B880F911D969597
:1022F000879597F9089511F40EF44BCF42C073DF20
:10230000D0F39923D9F3CEF39F57550B87FF47D0CE
:102310000024A0E640EA900180585695979528F44D
:10232000805C660F771F881F20F026173707480745
:1023300030F4621B730B840B202931294A2BA6959C
:1023400017940794202531254A2758F7660F771FE1
:10235000881F20F026173707480730F4620B730BED
:10236000840B200D311D411DA09581F7B901842FEB
:102370009158880F969587950895E1DE880B990B03
:1023800008959F3F31F0915020F487957795679598
:10239000B795880F911D9695879597F90895915057
:1023A0005040660F771F881FD2F70895A1E21A2EBA
:1023B000AA1BBB1BFD010DC0AA1FBB1FEE1FFF1FE9
:1023C000A217B307E407F50720F0A21BB30BE40B39
:1023D000F50B661F771F881F991F1A9469F7609580
:1023E0007095809590959B01AC01BD01CF0108953A
:1023F000EE0FFF1F0590F491E02D0994F894FFCFA4
:10240000496E697469616C697A65204D5055363042
:10241000353000436F756C64206E6F742066696E92
:102420006420612076616C6964204D5055363035EA
:10243000302073656E736F722C20636865636B2048
:10244000776972696E67210043616C6962726174B9
:10245000696F6E2E2E2E00636F6D706C6574652132
:1024600000204452203D2000204450203D200020E8
:102470004459203D20002054203D20000000000051
:102480008C015F0134013C014F015E01000000003E
:10249000F60B620D780B910B830BD40B0D0A006EBB
:0C24A000616E00696E66006F76660000D9
:00000001FF
