:020000040800F2
:200000000000022071CE00088107010885070108A5070108A9070108AD0701080000000026
:2000200000000000000000000000000005030108DDCE000800000000190301086105010868
:20004000DDCE0008DDCE0008DDCE0008DDCE0008DDCE0008DDCE000805D4000855D400085C
:20006000A5D40008F9D400084DD50008DDCE0008D9F00008DDCE000825ED0008DDCE0008FC
:2000800095F00008E1EC0008DDCE0008DDCE0008DDCE0008DDCE0008DDCE0008A1D5000801
:2000A000DDCE0008DDCE000851060108DDCE0008DDCE0008DDCE0008DDCE0008DDCE0008FB
:2000C000DDCE0008DDCE0008DDCE0008DDCE0008DDCE00085DF6000879F6000895F600083C
:2000E00011D60008DDCE0008DDCE0008DDCE0008DDCE0008DDCE0008DDCE0008DDCE00082C
:20010000DDCE0008DDCE0008CD030108DDCE0008B1F60008CDF60008DDCE0008DDCE00080D
:20012000DDCE0008DDCE0008DDCE0008DDCE0008DDCE0008DDCE0008DDCE0008DDCE000827
:20014000DDCE0008DDCE0008DDCE0008DDCE000855F00008DDCE0008A1EC0008E9F6000857
:20016000DDCE0008DDCE0008DDCE0008DDCE0008DDCE0008DDCE0008DDCE0008DDCE0008E7
:20018000DDCE0008DDCE000800000008FFFFFFFF81F0004102E000BF83F0004330B54FEACE
:2001A00041044FEA430594EA050F08BF90EA020F1FBF54EA000C55EA020C7FEA645C7FEA8E
:2001C000655C00F0E2804FEA5454D4EB5555B8BF6D420CDD2C4480EA020281EA030382EAF8
:2001E000000083EA010180EA020281EA0303362D88BF30BD11F0004F4FEA01314FF4801C80
:200200004CEA113102D0404261EB410113F0004F4FEA03334CEA133302D0524263EB43034D
:2002200094EA050F00F0A780A4F10104D5F1200E0DDB02FA0EFC22FA05F2801841F10001BB
:2002400003FA0EF2801843FA05F359410EE0A5F120050EF1200E012A03FA0EFC28BF4CF00F
:20026000020C43FA05F3C01851EBE37101F0004507D54FF0000EDCF1000C7EEB00006EEBD9
:200280000101B1F5801F1BD3B1F5001F0CD349085FEA30004FEA3C0C04F101044FEA445271
:2002A00012F5800F80F09A80BCF1004F08BF5FEA500C50F1000041EB045141EA050130BDD6
:2002C0005FEA4C0C404141EB010111F4801FA4F10104E9D191F0000F04BF01460020B1FA71
:2002E00081F308BF2033A3F10B03B3F120020CDA0C3208DD02F1140CC2F10C0201FA0CF034
:2003000021FA02F10CE002F11402D8BFC2F1200C01FA02F120FA0CFCDCBF41EA0C019040B1
:20032000E41AA2BF01EB0451294330BD6FEA04041F3C1CDA0C340EDC04F11404C4F1200204
:2003400020FA04F001FA02F340EA030021FA04F345EA030130BDC4F10C04C4F1200220FA8A
:2003600002F001FA04F340EA0300294630BD21FA04F0294630BD94F0000F83F4801306BF43
:2003800081F480110134013D4EE77FEA645C18BF7FEA655C29D094EA050F08BF90EA020FA8
:2003A00005D054EA000C04BF1946104630BD91EA030F1EBF0021002030BD5FEA545C05D152
:2003C0004000494128BF41F0004130BD14F580043CBF01F5801130BD01F0004545F0FE4167
:2003E00041F470014FF0000030BD7FEA645C1ABF194610467FEA655C1CBF0B46024650EA9C
:20040000013406BF52EA033591EA030F41F4002130BD00BF90F0000F04BF0021704730B5D0
:200420004FF4806404F132044FF000054FF0000150E700BF90F0000F04BF0021704730B5E1
:200440004FF4806404F1320410F0004548BF40424FF000013EE700BF42004FEAE2014FEAC1
:2004600031014FEA02701FBF12F07F4393F07F4F81F06051704792F0000F14BF93F07F4F1E
:20048000704730B54FF4607401F0004521F0004120E700BF50EA010208BF704730B54FF07C
:2004A00000050AE050EA010208BF704730B511F0004502D5404261EB41014FF4806404F164
:2004C00032045FEA915C3FF4DCAE4FF003025FEADC0C18BF03325FEADC0C18BF033202EB48
:2004E000DC02C2F1200300FA03FC20FA02F001FA03FE40EA0E0021FA02F11444C1E600BF43
:2005000070B54FF0FF0C4CF4E06C1CEA11541DBF1CEA135594EA0C0F95EA0C0F00F0DEF832
:200520002C4481EA030621EA4C5123EA4C5350EA013518BF52EA033541F4801143F4801338
:2005400038D0A0FB02CE4FF00005E1FB02E506F00042E0FB03E54FF00006E1FB03569CF020
:20056000000F18BF4EF0010EA4F1FF04B6F5007F64F5407404D25FEA4E0E6D4146EB060613
:2005800042EAC62141EA55514FEAC52040EA5E504FEACE2EB4F1FD0C88BFBCF5E06F1ED861
:2005A000BEF1004F08BF5FEA500E50F1000041EB045170BD06F0004646EA010140EA020046
:2005C00081EA0301B4EB5C04C2BFD4EB0C0541EA045170BD41F480114FF0000E013C00F36C
:2005E000AB8014F1360FDEBF002001F0004170BDC4F10004203C35DA0C341BDC04F1140402
:20060000C4F1200500FA05F320FA04F001FA05F240EA020001F0004221F0004110EBD3701F
:2006200021FA04F642EB06015EEA430E08BF20EAD37070BDC4F10C04C4F1200500FA04F307
:2006400020FA05F001FA04F240EA020001F0004110EBD37041F100015EEA430E08BF20EA61
:20066000D37070BDC4F1200500FA05F24EEA020E20FA04F301FA05F243EA020321FA04F0B3
:2006800001F0004121FA04F220EA020000EBD3705EEA430E08BF20EAD37070BD94F0000F70
:2006A0000FD101F00046400041EB010111F4801F08BF013CF7D041EA060195F0000F18BFA9
:2006C000704703F00046520043EB030313F4801F08BF013DF7D043EA0603704794EA0C0FAC
:2006E0000CEA135518BF95EA0C0F0CD050EA410618BF52EA4306D1D181EA030101F000412F
:200700004FF0000070BD50EA410606BF1046194652EA430619D094EA0C0F02D150EA013627
:2007200013D195EA0C0F05D152EA03361CBF104619460AD181EA030101F0004141F0FE4174
:2007400041F470014FF0000070BD41F0FE4141F4780170BD70B54FF0FF0C4CF4E06C1CEA3B
:2007600011541DBF1CEA135594EA0C0F95EA0C0F00F0A7F8A4EB050481EA030E52EA033580
:200780004FEA013100F088804FEA03334FF0805545EA131343EA12634FEA022245EA1115CA
:2007A00045EA10654FEA00260EF000419D4208BF964244F1FD0404F5407402D25B084FEA26
:2007C0003202B61A65EB03055B084FEA32024FF480104FF4002CB6EB020E75EB030E22BFA8
:2007E000B61A754640EA0C005B084FEA3202B6EB020E75EB030E22BFB61A754640EA5C0054
:200800005B084FEA3202B6EB020E75EB030E22BFB61A754640EA9C005B084FEA3202B6EB43
:20082000020E75EB030E22BFB61A754640EADC0055EA060E18D04FEA051545EA16754FEA44
:2008400006164FEAC30343EA52734FEAC2025FEA1C1CC0D111F4801F0BD141EA00014FF091
:2008600000004FF0004CB6E711F4801F04BF01430020B4F1FD0C88BFBCF5E06F3FF6AFAEFE
:20088000B5EB030C04BFB6EB020C5FEA500C50F1000041EB045170BD0EF0004E4EEA1131DD
:2008A00014EB5C04C2BFD4EB0C0541EA045170BD41F480114FF0000E013C90E645EA060ED2
:2008C0008DE60CEA135594EA0C0F08BF95EA0C0F3FF43BAF94EA0C0F0AD150EA01347FF4DA
:2008E00034AF95EA0C0F7FF425AF104619462CE795EA0C0F06D152EA03353FF4FDAE104653
:20090000194622E750EA410618BF52EA43067FF4C5AE50EA41047FF40DAF52EA43057FF407
:20092000EBAE12E74FF0FF3C06E000BF4FF0010C02E000BF4FF0010C4DF804CD4FEA410C31
:200940007FEA6C5C4FEA430C18BF7FEA6C5C1BD001B050EA410C0CBF52EA430C91EA030FD0
:2009600002BF90EA020F0020704710F1000F91EA030F58BF994208BF90422CBFD8176FEAF9
:20098000E37040F0010070474FEA410C7FEA6C5C02D150EA013C07D14FEA430C7FEA6C5C8A
:2009A000D6D152EA033CD3D05DF8040B704700BF8446104662468C461946634600E000BF57
:2009C00001B5FFF7B7FF002848BF10F1000F01BD4DF808EDFFF7F4FF0CBF012000205DF834
:2009E00008FB00BF4DF808EDFFF7EAFF34BF012000205DF808FB00BF4DF808EDFFF7E0FFC2
:200A000094BF012000205DF808FB00BF4DF808EDFFF7CEFF94BF012000205DF808FB00BF83
:200A20004DF808EDFFF7C4FF34BF012000205DF808FB00BF4FEA410212F5001215D211D516
:200A40006FF47873B3EB625212D94FEAC12343F0004343EA505311F0004F23FA02F018BF72
:200A6000404270474FF00000704750EA013005D111F0004008BF6FF0004070474FF0000069
:200A8000704700BF4A0011D212F5001211D20DD56FF47873B3EB62520ED44FEAC12343F003
:200AA000004343EA505323FA02F070474FF00000704750EA013002D14FF0FF3070474FF0C5
:200AC0000000704773B96AB9002908BF0028BCBF00204FF00041C4BF6FF000414FF0FF304C
:200AE00000F08CB882B0EC462DE9005000F056F8DDF804E002B00CBC704700BF4BB942B912
:200B0000002908BF002802D04FF0FF31084600F075B882B0EC462DE9005000F057F8DDF833
:200B200004E002B00CBC704738B50022002304460D46FFF757FF28B920462946BDE83840B2
:200B400000F00AB8204605F1004100F005F8404261EB410138BD00BF70B500220D4B0446AC
:200B60000D46FFF7CDFCFFF78DFF0646FFF752FC0022094BFFF7C4FC02460B4620462946B7
:200B8000FFF70AFBFFF77EFF002242EA00042046314670BD0000F03D0000F0412DE9704364
:200BA000069E14461D468046894600F029F804FB01F300FB0533A4FB00451D44B8EB040418
:200BC00069EB0505C6E90045BDE870832DE97043069E1446804689461D4600F05DF900FB2B
:200BE00005F504FB0153A0FB04451D44B8EB040469EB0505C6E90045BDE87083704700BF58
:200C000000292DE9F00FC0F29F800024002BC0F29680154606460F46002B3ED18A4257D97C
:200C2000B2FA82F34BB1C3F1200201FA03F720FA02F29D40174300FA03F6290CB7FBF1F2CA
:200C4000330C01FB127CA8B243EA0C4700FB02F3BB4209D97F1902F1FF3C80F00181BB426D
:200C600040F2FE80023A2F44FF1AB7FBF1F3B6B201FB137146EA014100FB03F0884208D973
:200C8000491903F1FF3780F0ED80884240F2EA80023B43EA0242002303E08B420AD90023FE
:200CA0001A461046194614B1404261EB4101BDE8F00F7047B3FA83F8B8F1000F40F08480DB
:200CC0008B4202D3824200F2DE8000230122E8E712B90123B3FBF2F5B5FA85F2002A39D16B
:200CE0007F1B280C1FFA85FC0123B7FBF0F1320C00FB117742EA07470CFB01F2BA4207D9C4
:200D00007F1901F1FF3802D2BA4200F2C1804146BF1AB7FBF0F2B6B200FB127046EA0040C6
:200D20000CFB02FC844507D9401902F1FF3702D2844500F2AB803A4642EA0142B1E7E4431B
:200D4000524263EB430364E7404261EB41014FF0FF345BE79540C2F1200327FA03F1280C68
:200D600026FA03F39740B1FBF0F81F433B0C00FB18111FFA85FC43EA01410CFB08F38B424D
:200D800006FA02F608D9491908F1FF3279D28B4277D9A8F102082944C91AB1FBF0F3BFB293
:200DA00000FB131147EA01470CFB03F2BA4207D97F1903F1FF3160D2BA425ED9023B2F44F2
:200DC000BF1A43EA084390E7C8F1200203FA08FC25FA02F343EA0C0C4FEA1C4921FA02F368
:200DE00001FA08F720FA02F2B3FBF9F1174309FB11333A0C1FFA8CFB42EA03430BFB01FA58
:200E00009A4505FA08F008D913EB0C0301F1FF3235D29A4533D902396344CAEB0303B3FBAE
:200E2000F9F209FB1233BFB247EA03470BFB02F9B94508D917EB0C0702F1FF331BD2B9458D
:200E400019D9023A674442EA0145A5FB0001C9EB07078F424FF000030AD305D02A4620E7A8
:200E6000624601E73B4614E706FA08F68642F5D26A1E002315E71A46E5E70B46A0E71146D7
:200E8000CBE7904688E7434642460AE7023A53E702392F443CE700BF2DE9F00F1446054699
:200EA0000E46002B43D18A4253D9B2FA82F757B1C7F1200620FA06F601FA07F302FA07F49A
:200EC0001E4300FA07F5210CB6FBF1F22B0C01FB1267A0B243EA074600FB02F3B34209D9BB
:200EE000361902F1FF3780F0F680B34240F2F380023A2644F61AB6FBF1F3ADB201FB1361E0
:200F000045EA014100FB03F0884208D9091903F1FF3680F0E280884240F2DF80023B43EAE5
:200F20000242002310461946BDE8F00F70478B424AD8B3FA83F6002E4DD18B4202D3824273
:200F400000F2D6800023012210461946BDE8F00F704712B90124B4FBF2F4B4FA84F2002A20
:200F60007CD1091B260CA7B20123B1FBF6F02A0C06FB101142EA014107FB00F28A4207D959
:200F8000091900F1FF3C02D28A4200F2C3806046891AB1FBF6F2ADB206FB121145EA014559
:200FA00007FB02F7AF4208D92C1902F1FF3180F09680A74240F29380023A42EA0042104648
:200FC0001946BDE8F00F704700231A4610461946BDE8F00F7047C6F1200522FA05F4B340E0
:200FE0001C434FEA144821FA05F301FA06F720FA05F5B3FBF8FC2F4308FB1C333D0C1FFA16
:2010000084FA45EA03430AFB0CF9994502FA06FB04D91B190CF1FF326DD39446C9EB0303E5
:20102000B3FBF8F508FB1533BFB247EA03470AFB05F8B84504D93F1905F1FF3361D31D46EB
:2010400045EA0C4CACFB0B23C8EB07079F424FF0000549D345D062462B4663E79440C2F133
:20106000200321FA03FC260C20FA03F301FA02F5BCFBF6F843EA05010B0C06FB18CCA7B2D2
:2010800043EA0C4C07FB08F3634500FA02F509D91CEB040C08F1FF323AD2634538D9A8F1B4
:2010A0000208A444C3EB0C0CBCFBF6F389B206FB13CC41EA0C4107FB03F28A4207D9091980
:2010C00003F1FF3022D28A4220D9023B2144891A43EA084349E73A460CE733461FE70A4605
:2010E0006BE7B0409042B6D20CF1FF32002319E73346324616E799458FD9ACF1020C2344BD
:201100008CE7B8459BD9023D274499E70346DEE79046C7E7023821443AE700BF00000000B0
:201120002DE9F04F87B0824600F1010B03910BF055FA01225B4606460F4600924048414977
:201140000DF078FA9AF80130FF2B27D10FF2E809D9E9008907E0CDF800E00DF06BFA9AF87E
:201160000130FF2B1AD10BF039FA04460D46A41B65EB07054FF0010EA94508BFA0457246A3
:201180005B462F482F49E6D211232F488AF8003008F0B8F8002007B0BDE8F08FFE2B09D005
:2011A0000F238AF80030284808F0ACF8002007B0BDE8F08F4FF40072009221482149039B8C
:2011C0000DF038FAB0F5007F0CD0FF221C238AF801208AF800301C4808F094F8002007B06C
:2011E000BDE8F08F0222009204AB16491448174C0DF020FABDF910000AF08EFE002380B290
:20120000039DADF810001A46E95C81EA1221013334F81110B3F5007F81EA022292B2F3D1F7
:20122000904207D01B2308488AF8003008F06AF80020B0E70120AEE700A3E1110000000069
:20124000C40B002090560108DC0F00209C5101082DE9F04F824685B08B466D48032108F0BB
:2012600003F8002800F0C2800BF0B8F9012202AB06460F460092674867490DF0DBF99DF8A5
:201280000830FF2B1DD00FF28019D9E9008907E0CDF800E00DF0CEF99DF80830FF2B10D0F3
:2012A0000BF09CF904460D46A41B65EB07054FF0010EA94508BFA045724602AB554856495D
:2012C000E6D200234BF040028DF808208DF809308DF80A308DF80B308DF80C300DF1070204
:2012E00003A812F8011F5B00DBB281EA030414F0800F83F0090418BF234649005B00DBB23B
:20130000C9B283EA010414F0800F83F0090418BF234649005B00DBB2C9B283EA010414F06B
:20132000800F83F0090418BF234649005B00DBB2C9B283EA010414F0800F83F0090418BF56
:20134000234649005B00DBB2C9B283EA010414F0800F83F0090418BF234649005B00DBB282
:20136000C9B283EA010414F0800F83F0090418BF234649005B00DBB2C9B283EA010414F00B
:20138000800F83F0090418BF23465B00DBB283EA410111F0800F83F0090118BF0B4682426E
:2013A0009FD15B0043F0010302A91A488DF80D3006220DF0EBF8BBF10C0F1CD00AF101069F
:2013C000FF24012502E012F0FF040CD0012233460095104810490DF02DF99AF80100030660
:2013E00004F1FF32EFD405B0BDE8F08F0321084807F040FF38E70849064801220DF0C6F8E5
:20140000DCE700BFAFF30080FF45C32300000000DC0F0020C40B002090560108AFF30080F3
:201420002DE9F04F87B08246039171480321934607F01AFF002800F0C9800BF0CFF80122B8
:2014400004AB06460F4600926A486B490DF0F2F89DF81030FF2B1DD00FF28C19D9E9008980
:2014600007E0CDF800E00DF0E5F89DF81030FF2B10D00BF0B3F804460D46A41B65EB0705C9
:201480004FF0010EA94508BFA045724604AB59485949E6D2039B8DF814B043F040004FEA6F
:2014A0001B424FEA1B234FEA1B618DF810008DF812208DF813308DF811100DF10F0205A82D
:2014C000002312F8011F5B00DBB281EA030414F0800F83F0090418BF234649005B00DBB2E1
:2014E000C9B283EA010414F0800F83F0090418BF234649005B00DBB2C9B283EA010414F08A
:20150000800F83F0090418BF234649005B00DBB2C9B283EA010414F0800F83F0090418BF74
:20152000234649005B00DBB2C9B283EA010414F0800F83F0090418BF234649005B00DBB2A0
:20154000C9B283EA010414F0800F83F0090418BF234649005B00DBB2C9B283EA010414F029
:20156000800F83F0090418BF23465B00DBB283EA410111F0800F83F0090118BF0B4682428C
:201580009FD15B0043F0010304A91A488DF8153006220CF0FBFF039B0C2B1CD00AF101068F
:2015A000FF24012502E012F0FF040CD0012233460095104810490DF03DF89AF8010003066F
:2015C00004F1FF32EFD407B0BDE8F08F0321084807F050FE31E70849064801220CF0D6FFE3
:2015E000DCE700BFAFF30080FF45C32300000000DC0F0020C40B002090560108AFF3008012
:201600002DE9F04F002687B08670067080460AF0E5FF714A04460D46704831460CF080FF06
:2016200003216F4807F026FE6D4807F06BFE6B486C490A220CF0AAFF65A7D7E9006708E04B
:201640000AF0CCFF001B61EB05018F4208BF86424BD340460021FFF7FBFD0128F0D1024613
:201660003B214046FFF7DCFE012834D158A7D7E90067404608214FF4D572FFF7D1FE052839
:201680003DD008F1010B4FF004094FF0010ACDF800A05248534901225B4609F1FF390CF015
:2016A000C9FF19F0FF09F2D198F80130AA2B52D00AF094FF001B61EB05018F4208BF86427C
:2016C000D7D2022388F80030454807F01BFE484607B0BDE8F08F1A23414888F8003007F019
:2016E00011FE002007B0BDE8F08F012388F800303B4807F007FE002007B0BDE8F08F01236E
:2017000088F802304FF0000931A7D7E9006708E00AF064FF001B61EB05018F4208BF8642BE
:201720001FD337214046FFF793FD404629214A46FFF776FE03460028EAD198F80220022A7F
:201740001CD0274807F0DEFD2448274A00210CF0E7FE0120C6E7022388F802304FF08049D0
:20176000D2E722480AF0F8FB0A2388F800301C4807F0C8FD002007B0BDE8F08F40463A2180
:201780000393FFF765FD039BB0B9012200920DF11703144911480CF04DFF9DF81730114953
:2017A0000E4803F0C003C02B04BF032388F8023003220CF0EBFEC4E7082288F800200848C8
:2017C000039307F09FFD039B18468BE7AFF300800094357700000000801A0600C40B002081
:2017E000DC0F00209056010840420F008C5101082DE9F04F092189B08246FFF729FD0028B4
:201800003BD10AF0EBFE0AF1010B01225B4606460F460092A048A1490CF00CFF9AF801303F
:20182000FF2B31D10FF26829D9E9008907E0CDF800E00CF0FFFE9AF80130FF2B24D10AF03E
:20184000CDFE04460D46A41B65EB07054FF0010EA94508BFA04572465B468F488F49E6D25D
:2018600011238AF800308E4807F04CFD8C4807F049FD002009B0BDE8F08F10238AF8003079
:20188000874807F03FFDF4E7FE2B06D00F238AF80030834807F036FDE8E7102200927E483A
:2018A0007E490DEB02030CF0C5FE102809D0FF221C238AF801208AF80030794807F022FD08
:2018C000D4E7022200927549734802AB0CF0B2FEBDF908000AF020FB724B9DF810209DF8DB
:2018E00011B033F812209DF812909DF813809DF814C09DF815E09DF816709DF817609DF8BC
:2019000018509DF819409DF81A108BEA122B80B233F81BB0ADF808008BEA02221FFA82FBFC
:2019200089EA1B299DF81B2033F8199089EA0B2B1FFA8BFB88EA1B289DF81C9033F818804B
:2019400088EA0B2B1FFA8BFB8CEA1B2C9DF81D8033F81CC08CEA0B2B1FFA8BFB8EEA1B2E3E
:201960009DF81EC033F81EE08EEA0B2B1FFA8BFB87EA1B279DF81FE033F8177087EA0B27E2
:20198000BFB286EA172633F8166086EA0726B6B285EA162533F8155085EA0625ADB284EAE2
:2019A000152433F8144084EA0524A4B281EA142133F8111081EA042189B282EA112233F801
:2019C000122082EA012292B289EA122933F8191081EA022292B288EA122833F8181081EAC3
:2019E000022292B28CEA122C33F81C1081EA022292B28EEA122E33F81E3083EA02239BB291
:201A0000984206D01B238AF80030254807F07AFC2CE7234807F076FC9DF810309A0909D014
:201A20009B09012B27D00B2300208AF8003009B0BDE8F08F9DF819109DF816409DF817208D
:201A40009DF81A509DF815309DF8180001F0030104F003044900920041EAD51142EA842252
:201A600003F00F030B4442EA9010073B0130984009B0BDE8F08F9DF819309DF818209DF8DE
:201A80001700013303EB022303EB00408002F1E600A3E11100000000C40B002090560108EE
:201AA000DC0F00209C5101082DE9F04F8BB08046029109210392FFF7CBFB00283ED10AF090
:201AC0008DFD08F1010901224B4606460F460092C148C2490CF0AEFD98F80130FF2B34D1E7
:201AE0000FF2E42BDBE900AB07E0CDF800E00CF0A1FD98F80130FF2B27D10AF06FFD0446AE
:201B00000D46A41B65EB07054FF0010EAB4508BFA24572464B46B048B049E6D2112388F8C5
:201B20000030AF4807F0EEFBAD4807F0EBFBAC4807F0E8FB00200BB0BDE8F08F102388F84C
:201B40000030A74807F0DEFBF1E7FE2B06D00F2388F80030A24807F0D5FBE5E7102200929C
:201B60009D489E4906AB0CF065FD102809D0FF221C2388F8012088F80030994807F0C2FB33
:201B8000D2E7022204AB0092944993480CF052FDBDF910000AF0C0F9924B9DF818209DF86C
:201BA00019C033F812209DF81AE09DF81B109DF81C709DF81D609DF81E509DF81F408CEA00
:201BC000122C80B233F81CC0ADF810008CEA022292B28EEA122E9DF820C033F81EE08EEA2D
:201BE000022292B281EA122E9DF8211033F81EE08EEA022292B287EA12279DF822E033F897
:201C0000177087EA022292B286EA12269DF8237033F8166086EA022292B285EA12259DF8E0
:201C2000246033F8155085EA022292B284EA12249DF8255033F8144084EA022292B28CEA40
:201C4000122C9DF8264033F81CC08CEA022292B281EA122C9DF8271033F81CC08CEA022250
:201C600092B28EEA122E33F81EE08EEA022292B287EA122733F8177087EA022292B286EABA
:201C8000122633F8166086EA022292B285EA122533F8155085EA022292B284EA122433F8B7
:201CA000144084EA022292B281EA122133F8113083EA02239BB2984206D01B2388F8003073
:201CC000474807F01FFB2FE7454807F01BFB9DF82220C2F3801464B99DF82310039802F022
:201CE0003F02520042EAD1120299431C0B431A4213D198F80230032B05D0029B03985B0260
:201D0000400202930390029A40462021FFF788FB68B10C2388F8003009E70D2388F80030B5
:201D20002F4807F0EFFA20460BB0BDE8F08F039A40462121FFF774FB0028EAD1404626218D
:201D4000FFF786FA0028E4D10AF048FC012204AB06460F460092204820490CF06BFC9DF824
:201D60001030FF2B27D01AA5D5E9004507E0CDF800E00CF05FFC9DF81030FF2B1BD00AF079
:201D80002DFC82468B46BAEB060A6BEB070B4FF0010E5D4508BF5445724604AB0E480F49FF
:201DA000E5D20E2388F800300D4807F0ABFA00200BB0BDE8F08F0A4807F0A4FA01200BB0D8
:201DC000BDE8F08FAFF3008000A3E11100000000FFE30B5402000000C40B00209056010807
:201DE000DC0F00209C51010838B58378032B18BF490215460A4611210446FFF711FB48B980
:201E000029462046FFF78CF90446064807F07AFA204638BD042323700248002407F072FA89
:201E2000204638BDDC0F0020F8B506468078032818BF4902144630460A4612211F46FFF750
:201E4000EFFA78B9054617B913E0BD4211D221463046FFF765F9013504F50074ADB200281D
:201E6000F3D1F8BD052333700A4807F04BFA0020F8BD30460C21FFF7EBF920B9054807F021
:201E800041FA0120F8BD03233370024807F03AFA0020F8BDDC0F0020F0B58378032B18BF6E
:201EA000490287B016460A4618210746FFF7B8FA002844D1FE23264A8DF8083004460346A8
:201EC000355D85EA2325013432F8155085EA032398B2B4F5007F83B2F2D100B20AF01CF836
:201EE00002A9ADF8100001221A480CF04FFB2246314618480CF04AFB012404A902221548E4
:201F00000CF044FB3B1900942246124812490CF091FB7B7803F01F03052B0AD013233B7006
:201F20000E4807F0EFF90D4807F0ECF9002007B0F0BD0A4807F0E6F9204607B0F0BD06239C
:201F40003B70064807F0DEF9002007B0F0BD00BF9C510108C40B002090560108DC0F002098
:201F60002DE9F04786B082460AF038FB012204AB06460F460092384838490CF05BFB9DF8FC
:201F80001030FF2B27D00FF2C809D9E9008907E0CDF800E00CF04EFB9DF81030FF2B1AD009
:201FA0000AF01CFB04460D46A41B65EB07054FF0010EA94508BFA045724604AB264827492B
:201FC000E6D212238AF80030254807F09BF9002006B0BDE8F08706A9FD2301F8103D012240
:201FE0001D480CF0D3FA0AF0F9FA012204AB04460D460092184819490CF01CFB9DF810301B
:020000040800F2
:20200000FF2B1ED012A7D7E9006707E0CDF800E00CF010FB9DF81030FF2B12D00AF0DEFA82
:2020200080468946B8EB040869EB05094FF0010E4F4508BF4645724604AB07480749E5D209
:20204000BFE7074807F05EF9012006B0BDE8F087FF45C32300000000C40B00209056010842
:20206000DC0F0020AFF300802DE9F04F89B082460C46372193460393FFF7EAF85046039AB9
:202080001721FFF7CDF9002840F0A1809AF80230032B18BF6402224650461921FFF7C0F9BD
:2020A000002840F08D80039A002A00F083800FF24019D9E9008902900AF090FA012206AB72
:2020C00006460F460092464846490CF0B3FA9DF81830FF2B08D125E0CDF800E00CF0AAFADD
:2020E0009DF81830FF2B1DD00AF078FA04460D46A41B65EB07054FF0010EA94508BFA045E0
:20210000724606AB36483749E6D217238AF80030354807F0F7F8344807F0F4F8002009B019
:20212000BDE8F08FFC23002430498DF8103023461BF8042082EA1322013431F8120080EADF
:20214000032398B2B4F5007F83B2F1D100B209F0E3FE04A9ADF81800012221480CF016FA62
:20216000224659461E480CF011FA06A902221C480CF00CFA01220AEB020300921848194941
:202180000CF058FA9AF8013003F01F03052B09D013238AF80030144807F0B4F8124807F0D8
:2021A000B1F8B8E7029B039A0133934202930BF5007B81D15046FFF7D3FE09B0BDE8F08FF8
:2021C00007238AF80030084807F09CF8A3E709238AF80030044807F095F89CE7AFF300806B
:2021E000C40B002090560108DC0F00209C510108FF45C3230000000010B5044600680368F4
:202200004FF416515B6B98472068036803219B6B0222984710BD00BF10B5044600680368E1
:2022200000219B6B4FF416529847206803689B6C98470130F9D1206803686FF00F01DB6C70
:20224000984720684FF0FF326FF0004309F02AFF206803689B6C9847C0B2F03818BF012078
:2022600010BD00BF38B50446006803680D469B6B00214FF4E1329847206803689B6C984740
:20228000431CF9D18DB123681A680146D26C1846904720684FF0FF326FF0004309F002FF7C
:2022A000206803689B6C984738BD206803682946DB6C9847EDE700BF002A2DE9F843044670
:2022C00032DD884601EB02090825012600272068036800219B6B4FF4E1329847206803686D
:2022E0009B6C9847431CF9D123681A680146D26C1846904720684FF0FF326FF0004309F075
:20230000D1FE206803689B6C9847C0B2FF2809D07600013DF6B2DAD108F8017BC845D3D16F
:20232000BDE8F8833743F3E7BDE8F883002A2DE9F843074613DD884601EB020918F8016B10
:202340000825012434420CBF002101213846FFF789FF6400013DE4B2F4D1C845EED1BDE83D
:20236000F88300BF10B40A4400204EE011F8013B83EA0004E4074FEA500048BF80F08C0096
:202380005B1080EA0304E4074FEA500044BF80F08C00C0B25B1080EA0304E4074FEA50002C
:2023A00044BF80F08C00C0B25B1080EA0304E4074FEA500044BF80F08C00C0B25B1080EA16
:2023C0000304E4074FEA500044BF80F08C00C0B25B1080EA0304E4074FEA500044BF80F04E
:2023E0008C00C0B25B1080EA0304E4074FEA500044BF80F08C00C0B280EA5303DB074FEA43
:20240000500044BF80F08C00C0B29142AED15DF8044B704708B102207047054B1B78192B95
:2024200004D0002B0CBF00200420704701207047E008002008B508B1022008BD0348FFF759
:20244000DFF880F00100C0B208BD00BFE008002038B50D4608B1042038BD012B09D0FAD94C
:20246000114607482A46FFF7DFFC80F00100C0B238BD114602482A46FFF7B6FCF5E700BF49
:20248000E008002038B50D4608B1042038BD012B09D0FAD9114607482A46FFF7E5FD80F0EC
:2024A0000100C0B238BD114602482A46FFF7F4FCF5E700BFE008002000B583B018B1042045
:2024C00003B05DF804FB79B1012918D002290FD0032911D00429F2D1104806CAFFF7E4FAB6
:2024E00080F00100C0B2EBE7002003B05DF804FB4FF400731360E3E701231360E0E7074860
:202500008DE80600FFF774F9019A10600028EBD1034809F021FD00990846D1E7E0080020E5
:202520009C530108034B0022192119705A709A70704700BFE0080020F8B5C46A00F130071B
:2025400005462246407839460123FFF79BFFB0B92A6AAB69E870A21A9A420ED2AE78012EA7
:2025600001D80AE0AB691C44013E2246687839460123FFF787FF012EF4D10020F8BD012094
:20258000F8BD00BF2DE9F041C56A8D4204460E4633D0C37800F130087BB932464146607872
:2025A0000123FFF755FF002818BF4FF0FF36E66214BF01200020BDE8F081414640782A4619
:2025C0000123FFF75FFFA8B9226AA369E070AA1A9A42E2D2A778012F01D8DEE7A3691D448C
:2025E000013F2A46607841460123FFF74BFF012FF4D1D2E70120BDE8F0810020BDE8F0814D
:202600002DE9F84FC378044663B92378032B2AD0002160780A46FFF74FFF003018BF012044
:20262000BDE8F88FC56A407804F130072A4639460123FFF727FF002866D1226AA369E070E5
:20264000AA1A9A42E1D2A678012E01D8DDE7A3691D44013E2A46607839460123FFF712FF9F
:20266000012EF4D1D1E72579012DD1D104F13007384600214FF4007209F080FE2269E66870
:20268000E36984F81C624FEA12694FEA164C4FEA166E4FEA16284FF05506522084F81822AF
:2026A0004FEA122B4FEA124A39465A1C41272B4684F81B9261254FF0720984F82E626FF06D
:2026C000550684F8300084F8310084F819B284F81AA284F81D8284F81EC284F81FE2E2628F
:2026E00084F82F6284F8325084F8175284F8337084F8167284F8149284F815926078FFF7B4
:20270000C1FE0023237183E70120BDE8F88F00BF2DE9F04F00230B60066885B05EB333788B
:20272000202B0ED94FFA83FCBCF13A0F23D0771C3B4601E03A2C1CD01D4613F8014B202C69
:20274000F8D8C04B1C6814B30C60237802F0FE0523B16078FFF75EFEC70710D500202070F6
:202760006070FFF767FEC60715D5032005B0BDE8F08FAF4235D00B2005B0BDE8F08F002D54
:2027800038D010F0040F0CBF00200A20EEE70C2005B0BDE8F08F1DB1400701D50A20E5E74E
:2027A00000224FF0FF3504F13007E270E562394660780123FFF74CFEC8B994F82F1294F82A
:2027C0002E22A14BE06242EA012212B29A4200F0D68003230025042B0ED0012B35D90D2087
:2027E000C4E7BCF1300FC6D102360660A9E7E5620423EFE72846B9E70120B7E794F8695027
:2028000094F8680094F8671094F866208F4B40EA052041EA002142EA012222F07F429A423C
:2028200012D094F8855094F8840094F8831094F8822040EA052041EA002103F14C5342EA9E
:2028400001229A4240F0A780002594F83C2094F83B3043EA0223B3F5007FC0D194F8470041
:2028600094F8463053EA00200DD194F8570094F8561094F8552094F8543041EA002042EABE
:20288000002043EA002094F84020A061531E012BA270A4D894F83D30638102FB00FC002BB2
:2028A0009DD05A1E1A429AD194F8421094F8412042EA01221107228191D194F8447094F869
:2028C000431051EA07270DD194F8538094F8527094F8516094F8501047EA082746EA0727CA
:2028E00041EA072794F83F6094F83E1051EA06263FF475AF06EB121161448F42FFF46FAF21
:202900007F1AB7FBF3F3002B3FF469AF4FF6F577BB4200F25D8140F6F577BB4200F24F8131
:20292000AF190233294463612762A162E5610126002A3FF454AF6744022E676200F03D81BE
:2029400003EB430203F0010303EB5203012603F2FF13B0EB532FFFF442AF4FF0FF338022C8
:20296000032E2361E360227100F0C480384A2670138801339BB21380E3800020F6E694F8E6
:202980003030E92B3FF43AAF236B324A03F0FF1393423FF433AF94F8F2216AB194F8F9016E
:2029A00094F8F81194F8F72194F8F63141EA002142EA012243EA022294F8023200926BB1D1
:2029C00094F8090294F8081294F8072294F8063241EA002142EA012243EA022394F8122294
:2029E00001936AB194F8190294F8181294F8172294F8163241EA002142EA012243EA022246
:202A000094F8223202926BB194F8290294F8281294F8272294F8263241EA002142EA012255
:202A200043EA0223DFF820A0DFF820900393ADF104060DF10C0B56F8045F6DB903235E4533
:202A4000F9D1C8E6E808002055AAFFFF46415400E4080020EB0090004FF0FF38002345456C
:202A6000E370C4F82C800BD0607839462A460123FFF7EEFC18B1C4F82C800423DFE7E56290
:202A800094F82F2294F82E3243EA02231BB25345D4D194F83030E92B07D0236B5E4A03F011
:202AA000FF13934201D00223C9E794F8690094F8681094F8672094F8663041EA002142EAE3
:202AC000012243EA022323F07F434B453FF4BDAE94F8850094F8841094F8832094F88230E0
:202AE00041EA002142EA012243EA02234B4A9342D9D1AAE694F8612094F8603043EA0223CA
:202B0000012B7FF433AF691C2046FFF73BFD00287FF42CAF94F82F1294F82E22404B2071E0
:202B200042EA012212B29A427FF420AF94F8335094F8320094F8311094F83020394B40EA40
:202B4000052041EA002142EA01229A427FF40EAF94F8175294F8160294F8151294F814229B
:202B600003F1FF5340EA052003F5005341EA0021203342EA01229A427FF4F8AE94F81B8269
:202B800094F81A7294F81FC294F81E5294F8190294F81D1294F8182294F81C3247EA082752
:202BA00045EA0C2540EA072041EA052142EA002243EA01232261E360D8E65B00C7E6AF1920
:202BC0000233294463612762A162E5610226AFE694F85BC094F85A70E56102332E442944A9
:202BE00057EA0C2763612662A1627FF4F8AD002A7FF4F5AD94F85F7094F85E6094F85D101D
:202C000094F85C2046EA072641EA062142EA01229B00626203269AE6EB009000464154331D
:202C200055AAFFFF525261412DE9F84F0378022B04460D46164600F09080032B72D0012BB7
:202C400002D00220BDE8F88F016AC76A05EB550901EB5928B84500F02A81C27800F1300BFF
:202C6000002A40F09E805946607842460123FFF7EFFB00286BD1216AC4F82C80474609F1FB
:202C8000010A15F00105C9F30809A144F2B206D099F8303003F00F0343EA0212D2B201EB4B
:202CA0005A2B0123C34589F83020E3702BD004F13009494660784246FFF7E4FB002849D110
:202CC000226AA369E070C2EB08029A4212D294F80280B8F1010F01D80CE0A3691F4408F1A1
:202CE000FF383A46607849460123FFF7CBFBB8F1010FF2D1494660785A460123FFF7A8FB96
:202D000028BBC4F82CB0CAF3080A002D00F0D180C6F30716A24401238AF83060E370002096
:202D2000BDE8F88F036AC76A03EBD119B94500F0A180C37800F1300A002B76D1514660789B
:202D40004A460123FFF784FB002800F091804FF0FF33E3620120BDE8F88F036AC76A03EB92
:202D60001129B9450ED0C37800F1300A002B3AD1514660784A460123FFF76AFB0028E6D144
:202D8000C4F82C906D0005F4FF756119C6F30722012381F8306081F83120E3700020BDE876
:202DA000F88F594640783A46FFF76CFB0028D1D1226AA369E070BA1A9A42BFF454AF94F8B4
:202DC00002A0BAF1010F01D84DE7A3691F440AF1FF3A3A46607859460123FFF753FBBAF1DC
:202DE000010FF2D13FE7514640783A460123FFF749FB0028AED1226AA369E070BA1A9A426E
:202E0000B6D294F80280B8F1010F01D8B0E7A3691F4408F1FF383A46607851460123FFF74B
:202E200031FBB8F1010FF2D1A2E7514640783A460123FFF727FB00288CD1226AA369E070E9
:202E4000BA1A9A42BFF47AAF94F80280B8F1010F01D873E7A3691F4408F1FF383A466078F5
:202E600051460123FFF70EFBB8F1010FF2D165E7C4F82C90AD0005F4FE7505F130032344AF
:202E800026F07046DA78120602F07042164325444FEA162C370C310E012285F8306083F8EE
:202EA00001C09F70D970E2700020BDE8F88F4746E5E6A244C6F303269AF8303023F00F0324
:202EC0001E4328E701292DE9F84F0D46044609D94369994206D20378022B5FD0032B46D002
:202EE000012B02D00120BDE8F88F016AC66A05EB550901EB5927B74200F0EA80C27800F1B4
:202F0000300A002A40F0C280514660783A460123FFF79EFA00283CD1216AE7623E46C9F3F1
:202F2000080309F10109234401EB5928B84593F830B00ED0E37804F1300A002B40F0CA8039
:202F40005146607842460123FFF782FA08BBC4F82C80C9F308094C44EB0794F830004BEA79
:202F600000204CBF0009C0F30B00BDE8F88F036AC66A03EBD118B04533D0C37800F1300962
:202F8000002B65D14946607842460123FFF760FA28B34FF0FF30E062BDE8F88F036AC66A19
:202FA00003EB1128B0450DD0C37800F1300973BB4946607842460123FFF74AFA0028E8D157
:202FC000C4F82C806D0005F4FF7563191C4693F8303094F8310043EA0020BDE8F88FC4F8F4
:202FE0002C80AD0005F4FE7505F1300323442C44D87899785A7894F8303041EA002042EA76
:20300000002043EA002020F07040BDE8F88F4946407832460123FFF735FAA8B9226AA36956
:20302000E070B21A9A42C3D2A778012F01D8BFE7A3691E44013F3246607849460123FFF78E
:2030400021FA012FF4D1B3E74FF0FF30BDE8F88F4946407832460123FFF714FA0028F3D159
:20306000226AA369E070B21A9A428BD2A778012F01D887E7A3691E44013F32466078494640
:203080000123FFF7FFF9012FF4D17BE7514640783246FFF7F7F90028D6D1226AA369E07063
:2030A000B21A9A42BFF430AF94F80280B8F1010F01D829E7A3691E4408F1FF383246607838
:2030C00051460123FFF7DEF9B8F1010FF2D11BE73E4624E7514660783A460123FFF7D2F987
:2030E0000028B1D1226AA369E070BA1A9A42BFF427AFA778012F01D822E7A3691E44013F26
:203100003246607851460123FFF7BCF9012FF4D116E700BF2DE9F04F87B0834603910768F0
:20312000002940F0CE80FE687B69D6B19E4228BF0126344601349C4215D3012E40F2BD8016
:20314000DBF8005002246B699C4206D22B78022B63D0032B2ED0012B0AD0012007B0BDE8EA
:20316000F08F0126E5E7012CDBF80050F5D9EAE72A6AD5F82C8004EB540102EB512AC2452E
:20318000029100F03681EA7805F1300C002A40F003816146687852460123FFF759F90028D0
:2031A00000F053814FF0FF33EB624FF0FF3007B0BDE8F08F2B6AD5F82C8003EBD41AC24553
:2031C0000FD0EB7805F1300C002B40F089806146687852460123FFF73BF90028E2D1C5F812
:2031E0002CA0A20002F4FE7202F130032B442A4493F803C09878597892F8302040EA0C2396
:2032000041EA032342EA032323F070434BB3012BA3D0B44251D07B698CE72B6AD5F82C802C
:2032200003EB142AC2450FD0EB7805F1300C002B40F084806146687852460123FFF708F94E
:203240000028AFD1C5F82CA0630003F4FF73EA18134692F8302093F8313042EA0323002BD3
:20326000D5D17B69A3427FF678AF384621464FF0FF32FFF7D9FC002840F0EC80039A72B19F
:20328000012A7FF66AAF7B699A421146BFF465AF38462246FFF7C8FC002840F0DB807A6961
:2032A0003B69FC60023A934201D2013B3B613B7943F0010320463B7150E7002007B0BDE8A2
:2032C000F08F3846FFF7FEFD01287FF646AF411C3FF46BAF7B699842FFF440AF039E28E773
:2032E00061466878CDF804C042460123FFF7CAF8DDF804C000287FF458AF2A6AAB69E8701F
:20330000C2EB08029A42BFF462AF95F80290B9F1010F7FF65CAF0294644600E0AB699844ED
:2033200009F1FF394246687821460123FFF7AAF8B9F1010FF2D1A446029C48E76146687815
:20334000CDF804C042460123FFF79CF8DDF804C000287FF42AAF2A6AAB69E870C2EB0802EA
:203360009A42BFF467AF95F80290B9F1010F7FF661AF0294644600E0AB69984409F1FF3908
:203380004246687821460123FFF77CF8B9F1010FF2D1A446029C4DE761466878CDF804C087
:2033A0004246FFF76FF8DDF804C000287FF4FDAE2A6AAB69E870C2EB08029A42BFF4E9AE6C
:2033C00095F80290B9F1010F7FF6E3AE0494644600E0AB69984409F1FF39424668782146FB
:2033E0000123FFF74FF8B9F1010FF2D1A446049CCFE6D0460299C1F308032B44013102EBB2
:20340000512993F830300291D14504930ED0EB7805F1300C13BB614668784A460123FFF795
:2034200017F800287FF4BEAEC5F82C90029A0499C2F308031D44E20795F8303041EA03237C
:203440004CBF1B09C3F30B03E0E6C5F82CA02A6AD046CFE701287FF480AEA6E661466878ED
:20346000CDF804C052460123FFF70CF8DDF804C000287FF49AAE2A6AAB69E870C2EB0A02D8
:203480009A42C8D295F802A0BAF1010FC3D90594644600E0AB6998440AF1FF3A4246687881
:2034A00021460123FEF7EEFFBAF1010FF2D1A446059CB0E72DE9F04F85680768002385B0F6
:2034C0000646036175B93B78022B07D83B89002B40F08980022005B0BDE8F08F7B6A002B1C
:2034E000F4D01D467B89002B40F08780012DF1D93C4650E0032B00F08B80012BEAD1226AF9
:20350000D4F82C9005EB550B02EB5B28C84500F01D81E27804F1300A002A40F0F0805146DE
:20352000607842460123FEF793FF002840F09980226AC4F82C80C146CBF3080323440BF1E8
:20354000010B02EB5B2A93F830300293C2450FD0E37804F1300C002B40F0FA8061466078A7
:2035600052460123FEF774FF00287AD1C4F82CA0CBF3080B5C44029A94F8303042EA0323E1
:20358000EA074CBF1D09C3F30B05012DA2D97B69AB429FD9346863699D429BD22378022BD5
:2035A000A8D1236AD4F82C8003EB152AC2450ED0E37804F1300B002B7DD159466078524668
:2035C0000123FEF745FF00284BD1C4F82CA06D0005F4FF7563191C4693F8303094F8315012
:2035E00043EA0525D1E77B6AB3617561002B3FF471AF3037F76100206DE77969AA1E023957
:203600008A4236BFB96A002303FB0213B361ECE7236AD4F82C8003EBD51AC2450CD0E37889
:2036200004F1300B23BB5946607852460123FEF70FFFB0B9C4F82CA0AD0005F4FE7505F146
:20364000300323442C449978DD785A7894F8303041EA052542EA052543EA052525F0704570
:2036600093E74FF0FF33E362012005B0BDE8F08F5946607842460123FEF704FF0028F3D119
:20368000226AA369E070C2EB08029A42CBD294F80290B9F1010F01D8C5E7A369984409F1D3
:2036A000FF394246607859460123FEF7EBFEB9F1010FF2D1B7E75946607842460123FEF79E
:2036C000E1FE0028D0D1226AA369E070C2EB08029A42BFF472AF94F80290B9F1010F01D842
:2036E0006BE7A369984409F1FF394246607859460123FEF7C7FEB9F1010FF2D15DE7514629
:2037000060784A46FEF7BEFE0028ADD1226AA369E070C2EB09029A42BFF401AF94F802C0BD
:20372000BCF1010F7FF6FBAE02952546644600E0AB699944013C4A46687851460123FEF7D4
:20374000A1FE012CF4D12C46029DE8E6C146F3E661466078CDF804C042460123FEF792FEE0
:20376000DDF804C000287FF47FAF226AA369E070C2EB08029A42BFF4F1AE94F80280B8F163
:20378000010F7FF6EBAE03952546644600E0AB69994408F1FF384A46687821460123FEF76D
:2037A00071FEB8F1010FF2D1A4462C46039DD5E62DE9F04F85B00268029204468A4611F9BB
:2037C000013B2F2BFAD05C2BF8D00023A3609AF800301F2B40F2618104F12009202300266D
:2037E00084F8203084F8213084F8223084F8233084F8243084F8253084F8263084F827304D
:2038000084F8283084F8293084F82A303546082701350AEB050111F8013CDAB2202A2DD92C
:203820002F2A1DD05C2A1BD02E2A00F04D81BE421ED21B061CD4222A1AD0A64901E08242F0
:2038400016D011F8013F58B2002BF8D1A2F16103192B01D8203AD2B209F806200136D7E72D
:203860008A4611F9013B2F2BFAD05C2BF8D046B94FF00609484605B0BDE8F08F8A46002E0D
:20388000F6D094F820302568E52B04BF052384F82030202A8CBF0023042384F82B30204616
:2038A000FFF708FE0390002840F0EA80A769EE6AB74216D0EB7805F1300B002B40F08D8074
:2038C000594668783A460123FEF7C2FD40B14FF0FF33EB624FF00109484605B0BDE8F08FB2
:2038E000EF62E3691A78002A00F0C080D87A00F03F00A071DA7A16070DD5A7692668236930
:20390000002F56D14FF00409B9F1040F94F82B3000F0AE80AEE7197894F820209142ECD1C1
:20392000597894F821209142E7D194F822109A789142E2D194F82310DA789142DDD11979E4
:2039400094F824209142D8D1597994F825209142D3D1997994F826209142CED1D97994F8CD
:2039600027209142C9D1197A94F828209142C4D1597A94F829209142BFD19A7A94F82A30BF
:203980009A42BAD194F82B305B0700F19780C20640F18C802369029AC3F3080330331344C7
:2039A0001178D87E9A7E032942EA00226BD0A26014E7494A20339342A4D8C3F30802002A3D
:2039C0004FD161690137A76159BB3089B0EB531F47D8A1614FF0040996E759466878324602
:2039E0000123FEF74FFD00287FF474AF2A6AAB69E870B21A9A42BFF463AF95F80280B8F17F
:203A0000010F01D85CE7AB691E4408F1FF383246687859460123FEF735FDB8F1010FF2D116
:203A20004EE77089013810EA53281AD130468DE80C00FFF747FA01289DE80C002AD9411C77
:203A40003FD07169884234D28F1E811EB942606104D2B6F80A80B06A08FB0108C4F818801D
:203A6000474630321644E661236120E794F82B3013F0040F0CBF4FF005094FF00409F9E6EB
:203A8000DDF80C9040E7597D1B7D43EA012342EA03428CE74FF0020936E78023204684F8FF
:203AA0002B3005B0BDE8F04FFFF704BD4FF00509E0E6C4F818804FF0040925E7DDF80C902B
:203AC000D8E64FF001091FE70B2F3FF4D1AE08260B279DE6D4530108FFFF1F002DE9F04F68
:203AE000012985B007460C46056802D96B69994203D3022005B0BDE8F08F62B1012AF8D9F1
:203B00009342F6D9114628464FF0FF32FFF78CF8002871D0EEE72E46012CEAD973699C42F6
:203B2000E7D23378022B00F08280032B66D0012BDFD1326AD6F82CB004EB540A02EB5A28C0
:203B4000D84500F02081F27806F13009002A40F0A9804946707842460123FEF779FC0028E5
:203B600060D1326AC6F82C80C346CAF3080333440AF1010A02EB5A2993F830300193C145CB
:203B800011D0F378002B40F0008106F130030293029970784A460123FEF75AFC002841D182
:203BA000019BC6F82C90CAF3080A5644E10796F8306043EA06264CBF3609C6F30B06002EE5
:203BC0006ED0012E95D0012C93D96B699C4290D2214628460022FFF727F800288AD12B6943
:203BE0005A1C05D02A79013342F001022B612A716B69B34254D934463E688DE7336AD6F852
:203C00002C8003EBD41AC24535D0F37806F1300B002B40F093805946707852460123FEF7CD
:203C200017FC30B34FF0FF33F362012062E7336AD6F82C8003EB142AC2450ED0F37806F1D4
:203C4000300B002B57D15946707852460123FEF7FFFB0028E6D1C6F82CA0630003F4FF736F
:203C6000F218134692F8302093F8316042EA0626A5E7C6F82CA0A20002F4FE7202F130034F
:203C8000334432449878DE78597892F8303040EA062641EA062643EA062626F070468EE7CF
:203CA000002027E7494670785A46FEF7EBFB0028BBD1326AB369F070C2EB0B029A42BFF4CF
:203CC00048AF96F802C0BCF1010F7FF642AF019535462646644600E0AB699B44013C5A46A3
:203CE000687849460123FEF7CDFB012CF4D134462E46019D2DE75946707842460123FEF7BA
:203D0000C1FB002891D1326AB369F070C2EB08029A4298D296F80290B9F1010F01D892E71C
:203D2000B369984409F1FF394246707859460123FEF7A8FBB9F1010FF2D184E7594670781F
:203D400042460123FEF79EFB00287FF46EAF326AB369F070C2EB08029A42BFF45CAF96F87A
:203D60000290B9F1010F01D855E7B369984409F1FF394246707859460123FEF783FBB9F168
:203D8000010FF2D147E7C346EFE606F1300302931946707842460123FEF774FB00287FF493
:203DA00044AF326AB369F070C2EB08029A42BFF4EFAE96F80280B8F1010F7FF6E9AE0395A8
:203DC00035462646029C00E0AB699B4408F1FF385A46687821460123FEF754FBB8F1010F53
:203DE000F2D134462E46039DD2E600BF2DE9F04F85B005460468FFF75DFB074628B104281A
:203E00006BD0384605B0BDE8F08FD5F818B0DFF8C092E66A5E4516D0E37804F1300A002BC4
:203E200040F09A80514660785A460123FEF710FB38B14FF0FF33E3620127384605B0BDE866
:203E4000F08FC4F82CB0E8690378E52B01D0002B3CD1D5F81890E66AB14510D0E37804F17B
:203E6000300A002B40F09C80514660784A460123FEF7EEFA0028DCD1E869C4F82C900021D2
:203E8000202208F07BFAEB6905F1200243EA0201890740F0A980181D05F124018B4238BFDA
:203EA0008242C0F0A1802A6A1A606A6A5A6095F828201A7295F829205A7295F82A209A72EB
:203EC00038460123E37005B0BDE8F08FD5F818B02E682B69BBF1000F01D1072791E703F12E
:203EE0002008C845F9D8C8F3080ABAF1000F2CD169690BF1010BC5F818B029B93389B3EB9D
:203F0000581F22D8A961E8E77389013B13EA58231BD130460193FEF7D5FF01288346019B5A
:203F20007BD9B0F1FF3F87D07069834577D2ABF1020C02386045C5F814B004D9B6F80AB0BE
:203F4000B36A0BFB0C33AB619B460AF1300A5644EE61C5F810805CE7514660783246012359
:203F6000FEF790FA00287FF467AF226AA369E070B21A9A42BFF456AF94F80280B8F1010F02
:203F800001D84FE7A3691E4408F1FF383246607851460123FEF776FAB8F1010FF2D141E760
:203FA0005146607832460123FEF76CFA00287FF443AF226AA369E770B21A9A42BFF454AFC1
:203FC00094F80280B8F1010F01D84DE7A3691E4408F1FF383246607851460123FEF752FA23
:203FE000B8F1010FF2D13FE795F820201A7095F821205A7095F822209A7095F82320DA703D
:020000040800F2
:2040000095F824201A7195F825205A7195F826209A7195F82720DA7149E70227F1E66969A8
:2040200001932846FFF776F8019B834600283FF454AF0128F1D0B0F1FF3F3FF4FDAEF27846
:20404000002A3CD14FF4007206F130000021019308F094F97069019BABF1020C821E94457B
:2040600028D372890021F1620AB30022CDF808B003959B46254614464FF00103F370304620
:20408000CDF804C0FEF758FA0134DDF804C000287FF4D2AEF26A7089511C8442F162EBD3CE
:2040A0005B462246DDF808B070692C46039D8A1AF2623EE77289B16A02FB0C11D3E7304602
:2040C0000193FEF739FA019B00287FF4B5AEB9E7FFFF1F0030B583B00B4601900091F9B198
:2040E000097820290CD949B23A2919D05D1C2B4601E03A2812D01C4613F8010B2028F8D82A
:204100000F490B680BB100201870019B93B10020012A0B60187006D003B030BDA5420CD019
:204120000B2003B030BD024601A96846FEF7F0FA03B030BD0B601846EEE73029E0D0EFE718
:20414000E80800202DE9F04190B004460191154660B102F03F06324601A803A9FEF7D8FAB5
:2041600040B10023236010B0BDE8F081092010B0BDE8F08110AF039B47F8303D01993846B2
:20418000FFF716FB00283FD015F01C0FE9D00428E7D13846FFF72AFE46F008060028E0D15B
:2041A000310740F1C2800B9B039D0022482121209A73DA73597418740B9B9A75DA755976BC
:2041C00018760B9B2022DA720B9B2A7893F81B80997E032A41EA082800F0BD8000229A76B1
:2041E000DA762978032904BF1A755A750B9B002201211A775A779A77DA77E970B8F1000FC2
:2042000040F095802F4619E09DF93B30002B0CDB15F01C0F7FD19DF81630DA0607D4AF070C
:2042200007D5D80705D507209BE70620ACE7042097E705F00803DBB2039F0BB146F040067E
:20424000FA6A0B9B226263623978D87E9A7E032942EA00223AD0A260DD7F987F597F1A7F82
:20426000FB88A38040EA052041EA002142EA012204F128080021E2606174E16161612760C6
:20428000267440464FF4007208F078F8B10616D5E568A5B17E89A16865617602B5421CD962
:2042A000AD1B2068FEF70EFE01280146C6EB05030AD9421C05D0B5420FD91D46F1E7002034
:2042C00051E70120A1614CE70220FBE7587D197D41EA002142EA0142BDE7C5F30803A161BD
:2042E000002BECD0039B5A690239023A914210D258899A6A00FB01225AB102EB5522E26195
:20430000587841460123FEF7A3F80028D7D0012027E7022025E79DF8163013F0110F82D115
:2043200068077FF53DAF08201BE7039F88E738464146ED6AFFF7D2FB00287FF412AF294689
:204340000398FEF71FF9039F08F1FF33FB6000283FF474AF05E7597D1A7D42EA012248EA35
:2043600002483BE72DE9F04F1F46002383B004460D463B6018B103680BB1197819B909200D
:2043800003B0BDE8F08FD888A1888842F7D158780092FEF73FF810F0010F009AEFD1607C57
:2043A000D4F800800028EBD1237CDB0703D4072003B0BDE8F08F6369E668F61AB24238BF62
:2043C0001646002E47D1FCE0B8F80AC00CF1FF3C1CEA532C00F08680A069D8F814300238DB
:2043E000023B984280F08C80B8F80A30D8F82820019203FB00FB1BEB020900F081805FEA51
:20440000562AE1447FD00CEB0A029A4288BFCCEB030A98F80100CDF800C029464A46534610
:20442000FEF716F8DDF800C0002840F0CC8094F91030002BC0F294804FEA4A2A05EB0A02D9
:204440006369396853445144B6EB0A0663611546396000F0B680C3F30802002AB4D002F1D3
:2044600028032344C2F5007A45EA03012A1DB24528BFB246181D11F0030F14BF00210121CB
:20448000854238BF934234BF00220122114252D0BAF1090F4FD94FEA9A0000224FEA80093A
:2044A00094460CF1010C9958A950844502F10402F7D3CA45C9EB0A0105EB090203EB090CD6
:2044C000BED013F8203005F8203001293CD09CF801305370022937D09CF80230937005EBFD
:2044E0000A02ADE79BBBA068012809D9431C6AD0D8F81430A061023B02389842FFF474AF9E
:20450000022060743CE7E2694A450ED094F91030002B04F1280A48DB514698F801004A46D0
:204520000123FDF795FF00284DD16269C4F81C90C2F3080293E705EB0A0213F8011B05F8FD
:20454000011B9542F9D17BE705EB0A0278E72068A169CDF800C0FEF7B5FCDDF800C0C3E7E5
:20456000E369C9EB0309CA457FF666AF019A9B1ACCEB0302CBEB020205EB422204F128035C
:2045800042EA0301890705EB49291FD102F1040C04F12C018A4238BF634517D319581150BD
:2045A0000430B0F5007FF9D146E7514698F801000123FDF767FF30B9237C03F07F03237472
:2045C000AAE70020DCE601206074D9E604F50A7113F8012B09F8012B8B42F9D12CE700BF73
:2045E0002DE9F04F1F46002385B004460D4616463B6018B103680BB11A781AB9092005B0E2
:20460000BDE8F08FD98882889142F7D15878FDF701FFC007F2D4607CD4F800B00028EED1E0
:20462000227C930703D4072005B0BDE8F08F6369DE4228BFDE43002E00F0D08004F12801EB
:20464000039160E0BBF80AA00AF1FF3A1AEA532A10D1002B40F0BA80A068002800F0F58069
:20466000012800F00681411C00F00081A368A06103B9A06094F91030002BC0F2D980A369F5
:20468000DBF81420023B023A934280F0F280BBF80A20DBF82810029103FB02FC1CEB01095B
:2046A00000F0E7805FEA5628D14477D00AEB0803934288BFCAEB02089BF80100CDF804C088
:2046C00029464A464346FDF7DDFEDDF804C0002840F0CC80E369C9EB0309C84500F2838038
:2046E0004FEA482805EB080063693968E26843449A422CBFE260E3604144B6EB0806636197
:204700000546396069D0C3F30802002A9AD002F128032344C2F5007845EA03012A1DB04505
:2047200028BFB046181D11F0030F14BF00210121854238BF934234BF00220122114239D017
:20474000B8F1090F36D94FEA980000224FEA800994460CF1010CA9589950604502F1040268
:20476000F7D8C145C9EB080103EB090C05EB09027AD015F8209003F82090012923D053780F
:204780008CF8013002291ED093788CF8023005EB0800237C63F07F032374A5E7E3696269E4
:2047A0004B4502D0E3689A4254D3C4F81C90C2F30802ACE705EB080015F8012B03F8012B37
:2047C0008542F9D1E5E705EB0800E2E72046A169FEF7A0FC00287FF443AF227C42F040021B
:2047E000227400200BE7029A9B1ACCEB0303CAEB030A039B05EB4A2A4AEA0302920705EB7D
:2048000049299C4638D10AF1040104F12C02924538BF8B4230D31A465AF800301350043001
:20482000B0F5007FF8D1237C03F07F03237457E79BF80100E26903990123FDF723FEA8B98D
:20484000237C03F07F03237419E720465146FEF761FCBFE79BF8010003994A460123FDF7E0
:20486000F7FD18B96269A0E7104692E701206074C5E602206074C2E609F50071634619F8EB
:20488000012B03F8012B8945F9D1CCE72DE9F843044618B103680BB11A7812B90920BDE8C4
:2048A000F883D98882889142F8D15878FDF7B2FDC007F3D4237C25685A0649D5190659D47F
:2048C000D4F82080EE6AB04513D0EB7805F13009002B5DD14946687842460123FDF7B8FD8D
:2048E00028B14FF0FF33EB620120BDE8F883C5F82C80636ADA7A42F02002DA72A268216823
:204900009A76C2F30720D876097803295ED0E2681A774FEA122C4FEA124E170E48200022E8
:2049200001212126587683F81DC083F81EE0DF779A75DA759A74DA741E762846E970FDF710
:204940005FFE237C23F040032374002843D12568002DA3D02B78002BA0D0EA88A3889A424E
:204960009CD16878FDF756FD10F0010096D12060BDE8F8836878E26904F128010123FDF73A
:2049800081FD0028B0D1237C03F07F03237497E74946687832460123FDF774FD0028A3D1BB
:2049A0002A6AAB69E870B21A9A4293D2AF78012F01D88FE7AB691E44013F324668784946A7
:2049C0000123FDF75FFD012FF4D183E7120C11121A7559759BE7BDE8F88300BF2DE9F04FB0
:2049E000044685B00D46002844D000293CD00B78202B0CD95EB23A2E36D0481C034601E0B5
:204A00003A2A2FD0194613F8012B202AF8D89F4B1E68002E3CD03378002B2FD07078FDF728
:204A2000F9FCC1072AD4266029462046FEF7C0FEA0B994F92B30002B0BDBA379DB0629D560
:204A4000E3693178D87E9A7E032942EA00224AD0A260F388A3802046FEF72CFD042819D026
:204A600028B102E0884217D00B200023236005B0BDE8F08F092005B0BDE8F08F002030705E
:204A80007070FDF7D7FC10F0010209D00320ECE70C20EAE70520E8E7302EE5D10235B6E7C4
:204AA0004FF0FF3706F13009F270F762494670780123FDF7CDFC40B1F76204230027042B77
:204AC00018D0012B3FD90D20CFE796F82F1296F82E226F4BF06242EA012212B29A4200F02F
:204AE000DD800323EAE7597D1B7D43EA012342EA0342ADE70120B8E796F8697096F8680081
:204B000096F8671096F86620624B40EA072041EA002142EA012222F07F429A4212D096F8C4
:204B2000857096F8840096F8831096F8822040EA072041EA002103F14C5342EA01229A42C2
:204B400040F0B880002796F83C2096F83B3043EA0223B3F5007FB6D196F847C096F846304A
:204B600053EA0C2C0DD196F857C096F8561096F8552096F8543041EA0C2C42EA0C2C43EA40
:204B80000C2C96F84090C6F818C009F1FF33012B86F8029097D896F83D30738109FB0CF91A
:204BA000002B90D05A1E1A428DD196F8412096F8421042EA01210A07318184D196F84480B1
:204BC00096F8432052EA08280DD196F853A096F8528096F8510096F8502048EA0A2840EA4E
:204BE000082842EA082896F83F0096F83E2052EA00203FF468AF00EB11124A4442453FF672
:204C000062AFC2EB0808B8FBF3F3002B3FF45BAF4FF6F578434500F25F8140F6F57843458E
:204C200000F25081023338443A4473613062B262F7614FF0010800293FF445AF4844B8F1E3
:204C4000020F706200F03C8103EB430203F0010303EB52034FF0010803F2FF13BCEB532FDF
:204C6000FFF431AF4FF0FF338022B8F1030F3361F360327100F0C180074A86F800801388EE
:204C800001339BB21380F380CDE600BFE808002055AAFFFF46415400E408002096F8303039
:204CA000E92B3FF429AF336B9E4A03F0FF1393423FF422AF96F8F2216AB196F8F90196F89F
:204CC000F81196F8F72196F8F63141EA002142EA012243EA022296F8023200926BB196F886
:204CE000090296F8081296F8072296F8063241EA002142EA012243EA022396F81222019341
:204D00006AB196F8190296F8181296F8172296F8163241EA002142EA012243EA022296F800
:204D2000223202926BB196F8290296F8281296F8272296F8263241EA002142EA012243EA69
:204D400002230393ADF104080DF10C0A58F8047F1FB90323D045F9D1B1E64FF0FF3B0023F7
:204D60005F45F370C6F82CB00BD0707849463A460123FDF76DFB18B1C6F82CB00423E9E7E6
:204D8000F76296F82F2296F82E3243EA0223664A1BB29342DDD196F83030E92B07D0336B24
:204DA000604A03F0FF13934201D00223D2E796F8690096F8681096F8672096F8663041EA5F
:204DC000002142EA012243EA0223584A23F07F4393423FF4B8AE96F8850096F8841096F869
:204DE000832096F8823041EA002142EA012243EA02234F4A9342D8D1A5E696F8612096F8A4
:204E0000603043EA0223012B7FF436AF791C3046FDF7B8FB00287FF42FAF96F82F1296F8A4
:204E20002E22414B307142EA012212B29A427FF423AF96F8337096F8320096F8311096F873
:204E400030203C4B40EA072041EA002142EA01229A427FF411AF96F8177296F8160296F835
:204E6000151296F8142203F1FF5340EA072003F5005341EA0021203342EA01229A427FF428
:204E8000FBAE96F81B9296F81AE296F81FC296F81E7296F8190296F81D1296F8182296F85B
:204EA0001C324EEA092E47EA0C2740EA0E2041EA072142EA002243EA01233261F360DBE6E0
:204EC0005B00C9E6023338443A4473613062B262F7614FF00208AEE696F85B9096F85A8009
:204EE000F761023338443A4458EA092873613062B2627FF4E8AD00297FF4E5AD96F85F809B
:204F000096F85E0096F85D1096F85C2040EA082041EA002142EA01229B0072624FF00308FA
:204F20009AE600BFEB00900055AAFFFF4641540046415433525261412DE9F04F044683B0B9
:204F40000F4618B103680BB11A781AB9092003B0BDE8F08FD98882889142F7D15878FDF7DD
:204F600059FAC107F2D4002F00F05A81D4F818B02568BBF1000F00F07181DFF81883EE6ACE
:204F8000B3451ED0EB7805F1300A002B47D1514668785A460123FDF75BFA80B14FF0FF332F
:204FA000EB62012000230428A361D0D100227A72A369002B7AD1002003B0BDE8F08FC5F84B
:204FC0002CB0E26913788BB1D27AE52B02F03F02A27107D02E2B05D00F2A03D022F02002FC
:204FE000082AE3D1A269266823690AB90420D9E720334345FAD8C3F30801002931D161699E
:205000000132A261002931D13189B1EB531FEDD93036E6612361002AC8D09346AFE75146A8
:20502000687832460123FDF72DFA0028B9D12A6AAB69E870B21A9A42A9D295F80290B9F13B
:20504000010F01D8A3E7AB691E4409F1FF393246687851460123FDF715FAB9F1010FF2D1A2
:2050600095E730310E44E6612361D6E77089013810EA5329CCD130460193FDF723FF0128EB
:20508000019B40F2E980421C8BD072699042ADD2023A811E9142606104D2B6F80A90B26A4B
:2050A00009FB0129C4F818904A46B1E7E369197848B2202805D0052808BFE5217972E36911
:2050C0000122597848B2202806D0BB18052808BFE5215972E3690132997848B2202800F06A
:2050E000B980BB18052808BFE5215972E369511CDA7850B2202806D07B18052808BFE52226
:205100005A72E36901311A7950B2202806D07B18052808BFE5225A72E36901315A7950B2E5
:20512000202800F095807B18052808BFE5225A72E3694A1C997948B2202806D0BB180528EC
:2051400008BFE5215972E3690132D97948B2202806D0BB18052808BFE5215972E3690132B7
:20516000197A48B220280BD0531C05283B4407EB020008BFE5212E2545725972E36902324E
:20518000597A48B2202806D0BB18052808BFE5215972E36901329B7A59B2202906D00529A0
:2051A00007EB020108BFE5234B720132BB1800225A72E369DB7A3B72E369A26993F81F80AB
:2051C00093F81EC0587F197F266825694CEA082C40EA0C2041EA0021396093F819C0187E3C
:2051E000D97D9B7D40EA0C2041EA002143EA0123190CFB80B980002A3FF4DDAE2035B5F58E
:20520000001FBFF4D8AEC5F30807DFB961690132A26131BB3389B3EB551F13D8A161CAE680
:20522000204603B0BDE8F04FFEF744B99A1E831E9342606104D2B6F80A80B26A08FB032838
:20524000C4F8188030373E44E661256100207EE60A466FE711464BE70220A3E6C4F818B062
:20526000A4E6B6F80A8008F1FF3818EA5528E9D13046FDF727FE012807D9431C07D0736959
:205280009842D3D3C4F8188095E602205FE601205DE600BFFFFF1F002DE9F04F0D468DB033
:2052A00090461C46F8B1017820290CD94BB23A2B19D00130014601E03A2A12D00F4611F81E
:2052C000012B202AF8D88F4B1B680BB100221A700020FDF7AFF8C60709D503200DB0BDE8D8
:2052E000F08FB8420CD00B200DB0BDE8F08F00F0040303F0FF0033B10A200DB0BDE8F08F75
:20530000302BE0D0EFE703210BAAFDF7D5F870B90B9B5A1EB2F5004F09D21A4207D1B8F11D
:20532000000F07D0B8F5007F0BD21320D6E701230B93F4E743461698B0F5007F0CD20E208A
:20534000CCE708F1FF3313EA080FEED14FEA5823B3F5004FE9D8EEE7169E26F4FF7626F002
:205360000106002001210AAA8DE84800FDF7A4F84FEA5628CDF80C80009B002842D105F010
:20538000080202F0FF060496002A40F0F4810A9A3E2AD4D93F27D21B7F2A0A92CFD9FF2B80
:2053A000C3D805F0020101F0FF000290002900F0DD8105F00701022900F0D68115F0010FDD
:2053C0000CBF032502250B994FEA52484E1E4FEA123B494207F12100032D06960591CDF87F
:2053E0002080CDF824B0079007F1200C5CD05BB94549012631F8020F38B1099D854204D35D
:205400007600F7E7012069E71E46B2FBF6F140F6F578414540F2A181023149000225DDF8DA
:205420001CB0DDF8188001F2FF110BEB51200599804401EA0808CBEB080807F1010A4FF064
:2054400020090121C01B00EB06108242FFF477AFC1EB020BC8EB0B0BC9EB0B0B032DBBFB16
:20546000F6FB00F06E81022D54D14FF6F57083453CD9A3B97600402E01D83346B7E7029DB2
:20548000002D00F07B8103252049012631F8020F68B1DDF82080804509D37600F6E7029EDF
:2054A000002E3FF44CAF0325002BEDD01E46B2FBF6F18800DFF858B0A1F57F41F63900F2AA
:2054C000072059454FEA50283FF639AFDDF818A0059908EB0C0082440AEA010AC0EB0A0A8B
:2054E0000AF120014FF00009E244ABE740F6F570834513D8002B7FF422AF7300802B7FF640
:2055000076AF1CE7E8080020B2530108C2530108FFFFFE0F012D00F00E81002500231846C9
:20552000E0540133B3F5007FFAD19648002310F803E004F803E001330B2BF8D1C1F3072335
:20554000032DA173E37314BF022100210023A174E37202216374B2F5803F4FF00103667391
:205560002173237480F0B0811312E2742375F8223F21002362752176FF22F9B2032D0291B2
:205580006376E3766377A377E377A276217700F0FD802122482184F8292084F82A10C8F38C
:2055A00007228021E27584F824102922764984F8273084F8283084F8168084F82620E2189B
:2055C000C85C82F82B000133132BF8D15522AA2384F8FE2184F8FF31002021463A46012311
:2055E000FCF750FF00287FF40DAF019923462144002203F8012B8B42FBD1032D00F07081B7
:20560000012D4FF0FF0314BFFF210021F822E17022706370A370DDF80CB0D84538BFC34676
:2056200052465B4621460020FCF72CFF03460146DA4420464FF40072002B7FF4E3AE06F09E
:205640009DFEB8EB0B08E6D1032D08BFB146039EB14538BF4E465246334600202146FCF7A7
:2056600011FFB24400287FF4CDAEB9EB0609EED1032D00F045810A9BB3F5803F80F0428177
:20568000022D14BF01250425049E002E4AD1049B1946E1540133B3F5007F4FF00002F8D136
:2056A0000A9984F8C2517E1843F6C163B6FBF3F64FEA960A4FEA11294FEA11484FEA116C97
:2056C00001234AF03F0A4FF0550EAA27FE25DDF808B084F8CA1184F8BE21104684F8C1219A
:2056E00084F8C6B184F8C72184F8C82184F8C92184F8C56184F8C4A184F8CB9184F8CC8164
:2057000084F8CDC184F8FEE184F8FF7184F8BF3184F8C03184F8C3512146FCF7B3FE00289C
:205720007FF470AE002001460246FCF7C5FE003018BF0120D2E540F6F5739B453FF6FFAD35
:20574000ECE64FF6F57083453FF6E8AE002B7FF4F6AD73087FF4A8AEF1E501EB410101317F
:205760004908033101255AE603252CE6E9077FF5DCAD022527E607460A9A0CE6802E7FF6DD
:205780007CAEDCE5E4530108045401082121482284F845104FEA182184F8462084F82510FB
:2057A0004FEA18424FEA186184F8262084F827100222012184F82C2084F83010062280219C
:2057C00084F8322084F8401029224F4984F8433084F8443084F8248084F82D3084F82E309A
:2057E00084F82F3084F8313084F8333084F84220E218C85C82F847000133132BF8D15522A3
:20580000AA2384F8FE2184F8FF31002021463A460123FCF737FE844600287FF4F3ADBA1D45
:2058200001232146CDF800C0FCF72CFEDDF800C063466246E2540133B3F5007F4FF0000C79
:20584000F8D10BF1FF3B4FEA1B204FEA1B414FEA1B6252234FF0610E84F8E90184F8EA118A
:2058600084F8EB212370637084F802E084F8E7E1412072214FF0AA0E0222552384F8EDC1E7
:2058800084F8EEC184F8EFC1E07084F8E60184F8E41184F8E51184F8EC2184F8FE3184F86B
:2058A000E8B184F8FFE12146FA1D60460123CDF800C0FCF7E7FDDDF800C0214660467A1C17
:2058C0000123FCF7DFFD90E6110A130C84F82020120E84F8211084F8223084F8232046E6E3
:2058E000FF23F8210F2221706370A370E37023716371A371E37123726372A372E2728AE65F
:205900000C25C1E60625BFE6F053010810B5034B036004460BF07CF9204610BD20540108B3
:2059200010B5054B036004460BF072F9204606F03DFD204610BD00BF20540108002110B554
:205940000B4601220E480F4C07F090FC00210B4601220D4807F08AFC00210B46204601223D
:2059600007F084FC20460321012207F017FC01210A4606480023BDE8104007F077BC00BF38
:20598000180A002008090020EC080020340A00202DE9F04FDFF8FCB297B0824606F01EFE27
:2059A000DBE93223DBF8B44001268BF8BC60CDE90401A06AE16A541C43F10005002700223F
:2059C0000023CBE932458BF8BC70FBF70BF8002840F0C3810146A84801F044FAA64831466E
:2059E00001F052FA3146A54801F09EFCA24AA448137D8AF8DC300AF1D80C614601220023B9
:205A0000CDF80CC006F078FFDBE932230127DBF8B4108BF8BC7001324FF000068C6AC96A60
:205A2000069443F10003CBE932230FF23429D9E9008907918BF8BC6006F0D0FD10EB0800E6
:205A400041EB090132460BF06DFADBE93223DBF8B4108BF8BC70013243F10003D1F82880FC
:205A6000D1F82C908BF8BC60CBE9322306F0B6FDDDE90445834A001B61EB05010023FBF7F2
:205A80003DF8FAF707FDDDE90623CAE9240140464946FAF781FB21F00043CAF88C30CAF8FF
:205AA000880006F09BFDDBE93223CDE90601DBF8B4108BF8BC7001328D6AC96A049543F18A
:205AC0000003CBE9322368A5D5E9004505918BF8BC6006F083FD001941EB050132460BF041
:205AE00021FADBF8B4308BF8BC70DBE93245D3F82880D3F82C9064488BF8BC60013445F13A
:205B00000005CDE90089DDE90423CBE9324506F023FADDE9042340464946FAF73DFB21F0DA
:205B20000043CAF89C30CAF8980006F057FD002204460D46554BDFF84081DAE92601FAF71E
:205B400009FECAE92601DDE906014E4A0023201A65EB0101FAF7D2FFFAF79CFC00224B4B4D
:205B6000FAF7F8FDCAE9280106F038FDCDE904014148314601F076F93F48314601F084F9B1
:205B800031463E4801F0D0FB98F814308AF8DC30DDF80CC03A4861463A46334606F0ACFE87
:205BA000DBE93223DBF8B4108BF8BC70013243F10003D1F82C90D1F828808BF8BC60CBE9D3
:205BC000322327A5D5E9004506F008FD001941EB050132460BF0A6F9DBE93223DBF8B41099
:205BE0008BF8BC70013243F100038D6AC96A0695CBE9322307918BF8BC6006F0EFFCDDE9E0
:205C00000445204A0023001B61EB0501FAF776FFFAF740FC4B464246CAE92C01DDE90601E8
:205C2000FAF7BAFA9AED227B894604468AF8C97051EC170B0EA3D3E900238DED047B29F0C6
:205C40000045FAF7CFFE38BBDDE904010022104BFAF7E6FE002879D000260D4F1FE000BF80
:205C600000E1F5050000000000CA9A3B000000007B14AE47E17A843FBC0A0020280C0020CE
:205C80009032002040420F003054010800408F4000002040402A00203BA7D7E90067DAE93F
:205CA0002689CAE922674046494633A3D3E90023FAF798FE00283FD14046494630A3D3E9CC
:205CC0000023FAF7ADFE00283BD1CAE92689204629462DA3D3E90023FAF784FE002838D147
:205CE0002046294600222A4BFAF79AFE08B1284D0024DAE92401CAE92A453246CDE9000124
:205D00003B4609A823490BF047FDDAE92845DAE9262309A8CDE900451F490BF03DFDDAE95E
:205D20002C45DAE92A2309A8CDE900451B490BF033FD17B0BDE8F08F0FF23C09D9E900892B
:205D4000C3E70FF23C09D9E90089BEE7DDE90467A5E70DA5D5E90045CBE73146104801F07F
:205D600081F839460E4801F08FF831460D4801F0DBFA3BE6AFF300802D431CEBE2361A3FA0
:205D80007B14AE47E17AB43F7B14AE47E17A843F00002040445401086054010880540108F4
:205DA000BC0A0020280C0020B0F9BA30012B70B504463ED0022B24D043B104F150012E489C
:205DC00001220023BDE8704006F096BD90F88030002BF2D006F002FCC4E91C0106F0FEFB0D
:205DE00023A3D3E90023B4F8BA50121843EB010301350421C4E91E23A4F8BA5084F8501021
:205E0000DBE790F8E430052B04BF062380F8503006F0E4FBD4E91E238B4208BF8242CCD247
:205E2000B4F8BA2007230132A4F8BA2084F85030C3E790F8813053B190F8E430052B14BF87
:205E400005220622022380F85020A0F8BA3006F0C5FBD4E91E238B4208BF8242ADD20322B4
:205E60000723A4F8BA2084F85030A6E7AFF30080007C118D35000000EC2B0020AFF300802F
:205E80002DE9F04F06462DED028B00240125042380F8E54080F8C94080F8514080F88040EA
:205EA00080F8814080F8824080F88340A0F8BA40A0F8B85006F8503FA5B083462A46314670
:205EC0002346BB48199606F017FD0BF151012A462346B84806F010FD24A92A4601F8104DE0
:205EE0002346B54806F008FDA7A3D3E9002324AFCDE9002358460022002306F0CBFA07F8CF
:205F0000084D2A4623463946AC48189706F0F4FC8BF8E440AA4807F0E9F9002840F02686D5
:205F200000200021CBE91601A64807F0DFF9002840F0188600200021CBE91801A24807F0B3
:205F4000D5F9002840F00A86002000219FED908B00220023CBE91A01CBE91C238BED348B65
:205F60008BED3A8B99489A4C9A4DDFF87482DFF87492DFF874A240F6B8314FF4FA720BF1D5
:205F8000D80600F0F9FF0F96E368D5F8B4601B788BF85030D5E932230120002101322075B7
:205FA00043F10003217585F8BC00B76AF66A85F8BC10C5E93223D8F85820D9F80C30B2F90E
:205FC000002088F8600088F8601089F81400ADF828201A78DAF80C3089F814108DF88020E5
:205FE0008AF8140093F800E08AF81410D8E91C23013243F10003D4E90801C8E91C23D9E918
:020000040800F2
:206000000823013041F100010996561C089743F10007DAE90823013243F100038BF851E0FA
:20602000C4E908015846C9E90867CAE90823FFF7BBFE9BF88030BDF828706148002B00F00A
:20604000368307F053F9002800F0FE82DBE9162352EA030E00F0C983594807F047F9002826
:2060600000F0F28206F0BAFADBE91623801A61EB030149A3D3E900238B4208BF824206D230
:2060800000220023CBE9162300218BF880109BF881304C48002B00F0E18207F027F9002805
:2060A00000F09C82DBE9182352EA030100F09083444807F01BF9002800F0908206F08EFA51
:2060C000DBE91823801A61EB030133A3D3E900238B4208BF824206D200220023CBE91823BE
:2060E00000218BF881109BF882303748002B00F07F8207F0FBF8002840F04882DBE91A237E
:2061000052EA030100F057832F4807F0EFF80646002840F03B8206F061FADBE91A23801AD3
:2061200061EB03011CA3D3E900238B4208BF824205D200220023CBE91A238BF882609DF812
:206140008030002B40F02B82BDF92800FAF772F913A3D3E90023FAF7D3F913A3D3E9002366
:20616000FAF71AF89BF85130CDE90A013BB137B10022194BFAF736FC002840F007839BF855
:2061800050301648072B31E000E1F50500000000000000000000000000CA9A3B0000000064
:2061A00029FD91DD5DDBC33FCA8AE1EA80D73840EC2B002088350020783400208033002070
:2061C000180A0020EC08002008090020280B0020A02E0020402A002000003640280C0020A3
:2061E000C0270020D8350020702B00200CBF0121002101F0ADF89BF85030043B102B24D883
:20620000DFE813F0110081001100A60123002300230023002300230023002300230023000C
:20622000230023006201A048002100F01BFE9E48002100F029FE9D48002101F075F8002100
:206240008BF883109A4806F0EBFF9BED227B8DED0A7B9BED267BDBE92A678DED087B9BF834
:2062600081209BF882109BF88030002A0CBF0022022200299BF8831042EA03020CBF00236C
:2062800004230029884942EA03020CBF002308231A430B7D8BF8DD20DDE90A0100228BF8B8
:2062A000DC30844BFAF72CF9FAF7C4FB0022814BABF8DE00DDE90801FAF722F900227E4B08
:2062C000FAF71EF9FAF7B6FB00227A4BABF8E00039463046FAF714F9FAF7ACFB0023ABF859
:2062E000E2000F997548012206F006FB9BF8C830002B00F0D88100228BF8C820DBE93001BC
:206300000AF010FE40E6DBE934670022002330463946FAF75DFB002840F00482099A08994B
:20632000109122F000421192CBE9346730463946DDE91023FAF756FB002800F0DD819BF83D
:20634000E430042B00F0478301228BF8E520042618995B488DF88860002306F0CDFADBE906
:2063600034018BF8E4600022564BF9F717FFCBE9340101218BF883104D4806F051FF9BF8C9
:20638000C930002B00F03E82BBF9B8C0BCF1010F00F04182BCF1020F00F00283BCF1000F9E
:2063A0007FF453AF9BF8E560002E40F031833E48012100F057FD31463B4800F065FD3B48C3
:2063C000012100F0B1FF099A08991A919BED227B02F100421B928DED0A7BDDE91A01DBE961
:2063E0002A6753EC172BF9F7D7FE32463B46F9F7D3FEFAF71FFB9BED267B8DED087BFAF7EA
:2064000019F8DDE90823FAF7A5F9FAF713FBFAF711F89BED2C7BDBE928238DED0C7BFAF7C2
:206420006FF802460B46DDE90C01F9F7B7FEFAF701FBCBF8D8001490F9F7FCFF0022CDE9F5
:2064400016011D4BDDE90C01F9F7A8FE02460B46DDE91601FAF7C6FA00283FF400AF0127FB
:206460008BF8C87006F0BAF8149E801941EBE671FAF718F80AA3D3E90023CDE90801DBE9DB
:206480002C01FAF73DF802460B46DDE90801F9F783FEFAF749FBABF8B870CBE93001D4E631
:2064A0000000000080842E41BC0A0020280C0020340A00200040BF40000059409032002017
:2064C0008033002000003E40A54B099F089EDFF890E21296D3E90823CDE90223A04AA04BA5
:2064E000D2680E9227F00047139701271F75DDE90223013243F10003CDE904230E9B1B7890
:206500000893DDE904230026CEE90823DDE912018EF814600022934BFAF764FA002800F0B1
:2065200010813946904800F0FFFE0899002900F04C8239468D4800F095FC31468B4800F0EF
:20654000A3FC01218BF88310894806F069FE7CE6DDE90A0100224FF08043FAF743FA002889
:2065600040F014828048012100F0DEFE7F48012100F078FC7D48012100F086FCE1E706F03B
:206580002DF850EA010ECBE91A013AD100220023CBE91A239DF88030002B3FF4D5AD002632
:2065A000334618998BF8E4608BED348B8BED3A8B012270488DF8886006F09EF93346189977
:2065C0006D488DF88860012206F096F9BCE506F005F850EA010ECBE9180148D100220023E9
:2065E000CBE918239BF882306448002B7FF481AD06F07CFE0028C9D0DBE91A2352EA030678
:20660000BDD05E4806F072FE0028BFD005F0E6FFDBE91A23801A61EB03014FA3D3E9002394
:206620008B4208BF8242BFF48AAD00230022CBE91A2301238BF8823081E505F0CFFF50EA26
:20664000010ECBE916013BD100220023CBE916239BF881304A48002B7FF41FAD06F046FEA8
:206660000028BBD1DBE9182352EA0306AFD0444806F03CFE0028B1D105F0B0FFDBE918239A
:20668000801A61EB030134A3D3E900238B4208BF8242BFF428AD00230022CBE91823012322
:2066A0008BF881301FE5584605F0FEFE6CE406F01DFE0028C8D1DBE9162352EA0306BCD023
:2066C000304806F013FE0028BED105F087FFDBE91623801A61EB03011FA3D3E900238B42B4
:2066E00008BF8242BFF4D3AC00230022CBE9162301238BF88030CAE400221A4B304639462A
:20670000F9F74AFDDDE91023FAF78AF900283FF430AEDDE910010022124BF9F73FFDCBE966
:20672000340126E6099E089B109326F000461196DDE9100100220B4BF9F730FD06460F461B
:20674000F2E5052103468BF850103A4619990E4806F0D2F879E500BF00CA9A3B000000000C
:206760006035002000003E40280C0020BC0A0020340A00208033002078340020080900207E
:20678000EC080020180A0020EC2B002005261899AD488DF888600122002306F0ADF8062324
:2067A0008BF850308BF8E4601999A8480122002306F0A2F8E3E405F011FF50EA0102CBE9DA
:2067C0001A017FF4A1AC00220023CBE91A23E1E605F004FF50EA0102CBE918017FF468AC58
:2067E00000220023CBE91823FCE605F0F7FE50EA0102CBE916017FF42FAC00220023CBE94A
:20680000162325E75846FFF7C3F8BBF9B8C0BCF1010F7FF4BFADDBE92A23DBE92201CDF85F
:206820001CC0F9F7BBFC0022894BF9F7B7FC0F4601F100411C901D910646DDE90823DDE957
:206840001C01FAF7EDF8DDF81CC0002840F0088130463946DDE90823CDF81CC0FAF7C2F881
:20686000DDF81CC00646002800F0DB8002236146ABF8B8307748CDF81CC000F055FD9BED27
:20688000227BDBE92A6753EC172BDDE908018DED0A7BF9F781FC32463B46F9F77DFCFAF7F7
:2068A000C9F89BED267B8DED087BF9F7C3FDDDE90823F9F74FFF9BED2C7BDBE92423CDE922
:2068C000140151EC170B8DED0C7BF9F767FCCDE91601DDE91401FAF7ADF8F9F7ABFDDBE956
:2068E0002823F9F70DFE02460B46DDE91601F9F755FCFAF79FF8CBF8D8001490F9F79AFD4D
:206900000022CDE91601544BDDE90C01F9F746FC02460B46DDE91601FAF764F8DDF81CC070
