:020000040800F2
:1000000000000220AD0A0108190B0108190B0108B4
:10001000190B0108190B0108190B01080000000059
:10002000000000000000000000000000ED4E00088D
:10003000190B010800000000FD4E000801530008E4
:10004000190B0108190B0108190B0108190B0108FC
:10005000190B0108190B0108E91700080D18000811
:10006000311800085518000879180008190B010804
:100070005D3C0008190B0108853B0008190B0108BD
:10008000153C00083D3B0008190B0108190B01083D
:10009000190B0108190B0108190B01089D1800081C
:1000A000190B0108190B0108190B0108190B01089C
:1000B000190B0108190B0108190B0108190B01088C
:1000C000190B0108190B0108190B0108190B01087C
:1000D000190B0108653A00087D3A0008953A0008B6
:1000E000F9180008190B0108190B0108190B010870
:1000F000190B0108190B0108190B0108190B01084C
:10010000190B0108190B0108C5500008190B01084B
:10011000AD3A0008C53A0008190B0108B1540008AF
:10012000190B0108190B0108190B0108190B01081B
:10013000190B0108190B0108190B0108190B01080B
:10014000190B0108190B0108190B0108190B0108FB
:10015000CD3B0008190B0108F53A0008DD3A00080C
:10016000190B0108190B0108190B0108190B0108DB
:10017000190B0108190B0108190B0108190B0108CB
:0C018000190B0108190B01080000000811
:1001900080B582B000AF78607B68184605490FF0E3
:1001A000F1F97B68044A1A607B6818460837BD4637
:1001B00080BD00BF680E0108800E010880B582B0C6
:1001C00000AF78600748084902F020FD0748084959
:1001D00001F0A8FC07484FF4E13103F063FD083754
:1001E000BD4680BD7000002040420F008C00002002
:1001F000A0860100A800002080B582B000AF786022
:1002000039607B68012B18D13A684FF6FF739A4228
:1002100013D10B48022102F0C1FC0A48012101F070
:1002200099FB0948012103F0A5FA0848FFF7B0FF40
:1002300006480749074A10F00FFE0837BD4680BD43
:10024000700000208C000020A8000020C4000020C6
:100250000DF600082807002080B500AF01204FF6FA
:10026000FF71FFF7C9FF80BD80B582B000AF786035
:100270002948002100F082F928482949022202F089
:10028000DBFF0346B3F1FF3F14BF00230123DBB2C2
:10029000002B02D04FF0FF333AE0204821490222E0
:1002A00002F0CAFF0346B3F1FF3F14BF002301234E
:1002B000DBB2002B02D04FF0FF3329E016480121BA
:1002C00000F05CF915481649022202F0B5FF03461A
:1002D000B3F1FF3F14BF00230123DBB2002B02D098
:1002E0004FF0FF3314E00D480E49022202F0A4FF44
:1002F0000346B3F1FF3F14BF00230123DBB2002B01
:1003000002D04FF0FF3303E0034800F071F90023FF
:1003100018460837BD4680BD5002002070000020FE
:10032000080000200C00002080B584B002AF786087
:1003300039601148002100F021F9062300930F488D
:100340000F4901223B6803F021F80346B3F1FF3F58
:1003500014BF00230123DBB2002B05D0064800F0B8
:1003600047F94FF0FF3303E0034800F041F9002361
:1003700018460837BD4680BD50020020700000209E
:100380000000002080B584B002AF78603960114869
:10039000012100F0F3F8062300930F480F490122D2
:1003A0003B6802F0F3FF0346B3F1FF3F14BF0023A5
:1003B0000123DBB2002B05D0064800F019F94FF0FD
:1003C000FF3303E0034800F013F900231846083711
:1003D000BD4680BD500200207000002000000020BB
:1003E00080B58CB002AF78607868FFF73DFF796820
:1003F00032A3D3E90023CDE9002308464FF00002E1
:100400004FF000030BF0F6FA07F120037868194665
:10041000FFF78AFF07F1180378681946FFF784FF92
:1004200007F1100378681946FFF7ACFF07F10803DE
:1004300078681946FFF7A6FF7B6803F5A07207F1FD
:1004400020031046194606220AF0DCFD7B6803F5FE
:10045000A67207F110031046194606220AF0D2FDD3
:100460007B6803F5A37207F11803104619460622AC
:100470000AF0C8FD7B6803F5A97207F1080310466E
:10048000194606220AF0BEFD0BF0FEFF02460B469F
:10049000796801F5B871C1E900237B6803F5A073A1
:1004A0000548194601220FF0FBF87B6818460BF04F
:1004B000B7FAA9E7AFF300806803002080F0FA02E2
:1004C0000000000080B582B000AF786039607B68C2
:1004D000012B0CD13A684FF6FF739A4207D10548B9
:1004E0000FF0C6F803480449044A10F0B5FC083779
:1004F000BD4680BDD8000020C9F6000828070020AE
:1005000080B500AF01204FF6FF71FFF7DBFF80BD24
:1005100080B582B000AF78607B68184605490FF05F
:1005200031F87B68044A1A607B6818460837BD4674
:1005300080BD00BFB80E0108D00E010880B582B0A2
:1005400000AF78600A4801210122002300F0F2FE8A
:10055000084801210122002300F0ECFE0648012199
:100560000122002300F0E6FE0837BD4680BD00BF33
:1005700064020020800200209C02002080B582B02E
:1005800000AF78600B46FB70FB78012B0FD0022B7D
:1005900019D0002B23D11348002100F0D9FF1248B5
:1005A000002100F0D5FF1148012100F0D1FF0F48D4
:1005B000002100F0CDFF0C48002100F0C9FF0948E0
:1005C000012100F0C5FF0948002100F0C1FF0548E6
:1005D000002100F0BDFF0448012100F0B9FF0837F9
:1005E000BD4680BD800200209C02002064020020E5
:1005F00080B582B000AF78600748002100F0A8FF06
:100600000648002100F0A4FF0548002100F0A0FFEB
:100610000837BD4680BD00BF640200208002002074
:100620009C02002080B582B000AF786039607B68A2
:10063000012B18D13A684FF6FF739A4213D10B4839
:10064000FFF766FF09480A490A4A10F005FC0A4804
:100650000F2100F03BFE0948102100F037FE08484A
:10066000112100F033FE0837BD4680BD5002002046
:1006700019F70008280700206402002080020020EB
:100680009C02002080B500AF01204FF6FF71FFF7FC
:10069000C9FF80BD0000000080B598B002AF78604F
:1006A00079681EA3D3E90023CDE9002308464FF063
:1006B00000024FF000030BF09DF907F10803786882
:1006C000194600F02FF807F13C037868194600F04E
:1006D0006DF807F12C037868194600F0ADF807F1C2
:1006E00008030D481946222203F0AEFC07F13C0333
:1006F000094819461A2203F0A7FC07F12C03064803
:1007000019460E2203F0A0FC7B6818460BF088F90E
:10071000D3E700BFAFF30080A80000200065CD1D27
:100720000000000090B583B000AF786039607B684E
:1007300050331C4819460FF02FF83B68A8221A7056
:100740003B68591C7B68D3E92023D3B20B703B680C
:10075000023300221A703B68033300221A703B6890
:100760000433114A12881A803B689A1D7B68503303
:100770001046194618220AF045FC3B6803F11E0496
:10078000786839681E2200F0AFF803462360064BF4
:100790001B8801339AB2044B1A80222318460C3767
:1007A000BD4690BD900300206003002090B583B04B
:1007B00000AF786039607B6888331D4819460FF0B8
:1007C00021F83B68A4221A703B68581C7968D1F85C
:1007D0009620D1F89A30D3B203703B6802330022DE
:1007E0001A703B68033300221A703B680433114AC5
:1007F00012881A803B689A1D7B6888331046194618
:100800000E220AF0FFFB3B6803F116047868396892
:10081000162200F069F803462360064B1B8801335B
:100820009AB2044B1A801A2318460C37BD4690BD65
:10083000B80400206203002090B585B000AF786056
:1008400039607B689E33254819460FF007F83B68EE
:10085000A2221A700BF018FE02460B4610461946EB
:100860001F4A4FF000030EF057FB02460B46C7E944
:1008700002233B6801333A7A1A703B680233002244
:100880001A703B68033300221A703B680433154A20
:1008900012881A803B6805337A6892F8A3201A7090
:1008A0003B689A1D7B689E331046194605220AF064
:1008B000A9FB3B6803F10A04786839680A2200F052
:1008C00013F803462360074B1B8801339AB2054B8C
:1008D0001A800E2318461437BD4690BD78050020B7
:1008E00040420F006403002080B485B000AFF86080
:1008F000B9607A60002318461437BD465DF8047B62
:10090000704700BF80B582B000AF786039607B6807
:10091000012B0CD13A684FF6FF739A4207D1054874
:100920000EF022FF03480449044A10F095FA0837F4
:10093000BD4680BDB8020020A5F8000828070020A9
:1009400080B500AF01204FF6FF71FFF7DBFF80BDE0
:1009500080B584B002AF786039607B68012B40F0CD
:10096000A6803A684FF6FF739A4240F0A080514843
:100970004FF0FF31504A0FF04FF84E484F49504A60
:1009800010F06AFA4F480FF06FF84E484E494C4A43
:1009900010F062FA002300934C484649494A4C4BF8
:1009A0000AF04EFC49484B49454A10F055FA4A486E
:1009B0004FF0FF31494A0FF08BF847484849404A09
:1009C00010F04AFA47480FF09BF8464846493C4A1F
:1009D00010F042FA0023009344483F49414A3C4BFF
:1009E0000AF02EFC41483B49354A10F035FA4048A0
:1009F0004FF0FF313F4A0FF0B5F83D483E49304ACD
:100A000010F02AFA3D480FF0C5F83C483C492C4A02
:100A100010F022FA002300933A483549374A2C4B0C
:100A20000AF00EFC37482B49254A10F015FA3648D3
:100A30004FF0FF31354A0FF0DFF833483449204A90
:100A400010F00AFA33480FF0EFF8324832491C4AE6
:100A500010F002FA0023009330482B492D4A1C4B1A
:100A60000AF0EEFB2D481B49154A10F0F5F92C4809
:100A70004FF0FF312B4A0FF009F929482A49104A53
:100A800010F0EAF929480FF019F9284828490C4ACA
:100A900010F0E2F90023009326482149234A0C4B29
:100AA0000AF0CEFB23480B49054A10F0D5F9083768
:100AB000BD4680BD68030020B40F01082501010870
:100AC000280700209003002061FE00086004002039
:100AD000C00F010851F9000890040020D40F01084C
:100AE00095000108B804002011FE00082005002030
:100AF00050050020E80F01080500010878050020D6
:100B0000C1FD0008B0050020E0050020F80F010835
:100B100075FF00080806002071FD00084806002047
:100B20007806002004100108E5FE0008A006002059
:100B300021FD0008D806002080B500AF01204FF647
:100B4000FF71FFF705FF80BD80B582B000AF0C4B91
:100B50007B6008E07B681B6898473B6801333B601B
:100B60007B6804337B607A68064B9A42F2D13B681B
:100B700001333B603B68013B3B600837BD4680BDAD
:100B8000781A0108B01A010880B485B000AFF86087
:100B9000B9607A60002318461437BD465DF8047BBF
:100BA000704700BF80B400AFFEE700BF80B483B0E1
:100BB00000AF78607B681B78002B04D17B68012232
:100BC0001A70012300E0002318460C37BD465DF87B
:100BD000047B704780B483B000AF78607B680222EA
:100BE0001A700C37BD465DF8047B70470FB480B5B2
:100BF00082B000AF1C4B1B68002B2FD03B46184621
:100C00000FF018FC07F114037B60184B1B68002BD6
:100C100005D0164B1B68164819460CF097FF04F0D8
:100C200075FE034683F00103DBB2002B05D03B4683
:100C3000184639690CF01EFD0AE00E4804F0B4FEB7
:100C40003B46184639690CF015FD0A4804F00AFFC6
:100C50000AF098FD3B4618460FF0BAFB0837BD4630
:100C6000BDE8804004B07047380000202C07002009
:100C700044100108300700200EB480B585B000AFE5
:100C800078601F4B1B687A689A4233DC07F10803CF
:100C900018460FF0CFFB07F12003FB60194B1B68D0
:100CA000002B05D0174B1B68174819460CF04EFF58
:100CB00004F02CFE034683F00103DBB2002B06D0C8
:100CC00007F108031846F9690CF0D4FC0BE00F4853
:100CD00004F06AFE07F108031846F9690CF0CAFC33
:100CE0000A4804F0BFFE0AF04DFD07F1080318465C
:100CF0000FF06EFB1437BD46BDE8804003B070476F
:100D0000380000202C070020441001083007002084
:100D100080B582B000AF7860074B7A681A600748E8
:100D20007968FFF763FF064B1B685A1C044B1A6077
:100D30000837BD4680BD00BF1000002058100108D4
:100D40002C07002080B586B000AFF860B9607A60EB
:100D5000BB683B610D48F968FFF748FF00237B61E2
:100D60000AE03A697B6913441B7809481946FFF782
:100D70003DFF7B6901337B617A697B689A42F0D3DE
:100D80000448FFF733FF1837BD4680BD74100108D3
:100D9000781001088010010880B584B000AFF860B9
:100DA000B9607A603B60074B1B68FA689A4200DDC5
:100DB00004E0B86879683A68FFF7C4FF1037BD46A9
:100DC00080BD00BF3800002080B487B000AFF8605D
:100DD000B9607A60BB68C3F12003FA6802FA03F3D2
:100DE000FB6000237B610FE07B697A681A44FB6833
:100DF000002B01DA312300E030231370FB685B0025
:100E0000FB607B6901337B617A69BB689A42EBDBEB
:100E1000BB687A68134400221A707B6818461C3736
:100E2000BD465DF8047B704780B582B000AF786046
:100E300039607B68012B07D13A684FF6FF739A42FD
:100E400002D1034804F098FD0837BD4680BD00BFBD
:100E50003007002080B500AF01204FF6FF71FFF78B
:100E6000E3FF80BD80B483B000AF78607B680A4A3E
:100E70001A607B6800225A607B6800229A607B6857
:100E80000022DA607B6800221A617B6818460C3702
:100E9000BD465DF8047B70479010010880B584B0B2
:100EA00000AFF860C7E9002303F0D6FFFB681B68BA
:100EB00014331B68F86898470346002B02D003F0F0
:100EC000D3FF0EE00AF01CFF0246FB689A60FB6845
:100ED0009968D7E90023C1E90A2303F0C5FF0AF0A6
:100EE00099FE1037BD4680BD80B584B000AFF86074
:100EF000C7E9002303F0B0FFFB681B6810331B68D1
:100F0000F86898470346002B02D003F0ADFF0EE0CF
:100F10000AF0F6FE0246FB68DA60FB68D968D7E99A
:100F20000023C1E90A2303F09FFF0AF073FE103784
:100F3000BD4680BD80B584B000AFF860C7E900232E
:100F400003F08AFFFB681B6818331B68F868984732
:100F50000346002B02D003F087FF0EE00AF0D0FE1C
:100F60000246FB681A61FB681969D7E90023C1E9E9
:100F70000A2303F079FF0AF04DFE1037BD4680BD0D
:100F800080B582B000AF78607B68DB68002B04D04E
:100F90007B68DB6818460AF0BFFE7B680022DA60D7
:100FA0007B685B68002B07D07B685B681B681B68ED
:100FB0007A685268104698470837BD4680BD00BF22
:100FC00080B582B000AF78607B689B68002B04D04E
:100FD0007B689B6818460AF09FFE7B6800229A6037
:100FE0007B685B68002B08D07B685B681B680433F8
:100FF0001B687A685268104698470837BD4680BD1E
:1010000080B582B000AF78607B681B69002B04D08C
:101010007B681B6918460AF07FFE7B6800221A6114
:101020007B685B68002B08D07B685B681B680833B3
:101030001B687A685268104698470837BD4680BDDD
:1010400080B483B000AF786039607B683A685A60DA
:101050000C37BD465DF8047B704700BF80B483B099
:1010600000AF0346FB71084B97F907205209F97945
:1010700001F01F01012000FA01F143F822100C37A2
:10108000BD465DF8047B704700E100E080B483B0AA
:1010900000AF0346FB71094B97F907205209F97914
:1010A00001F01F01012000FA01F1603243F8221023
:1010B0000C37BD465DF8047B704700BF00E100E0DF
:1010C00080B500AF124B1B7883F00103DBB2002B1D
:1010D0001CD00F4B01221A704FF48040012106F002
:1010E000D3FD0620FFF7BAFF0720FFF7B7FF082060
:1010F000FFF7B4FF0920FFF7B1FF0A20FFF7AEFFAB
:101100001720FFF7ABFF2820FFF7A8FF80BD00BF27
:101110008007002080B483B000AF78607B681B7AC2
:101120001A467B681B7803F00F031344102B0BDD6A
:101130007B681B7803F00F034FF6FF7202FA03F38C
:101140009AB27B685A8116E07B681B7AC3F1100360
:101150004FF6FF7242FA03F39AB27B685A817B68BA
:101160005B891A467B681B7803F00F0302FA03F3CE
:101170009AB27B685A810C37BD465DF8047B704794
:1011800080B483B000AF78607B681B780F2B06D8E3
:101190007B68364A5A617B6801229A6160E07B680D
:1011A0001B781F2B06D87B68314A5A617B68022264
:1011B0009A6155E07B681B782F2B06D87B682D4AF7
:1011C0005A617B6804229A614AE07B681B783F2B56
:1011D00006D87B68284A5A617B6808229A613FE0FA
:1011E0007B681B784F2B06D87B68244A5A617B6842
:1011F00010229A6134E07B681B785F2B06D87B68ED
:101200001F4A5A617B6820229A6129E07B681B781B
:101210006F2B06D87B681B4A5A617B6840229A6113
:101220001EE07B681B78DBB25BB2002B06DB7B68C1
:10123000154A5A617B6880229A6111E07B681B78AD
:101240008B2B07D87B68114A5A617B684FF48072F8
:101250009A6105E07B6800225A617B6800229A61EE
:101260000C37BD465DF8047B704700BF00000240AC
:101270000004024000080240000C0240001002403E
:101280000014024000180240001C024000200240EE
:1012900080B582B000AF78607B6801225A777B68A6
:1012A0005B681B6830331B687A6852681046984741
:1012B000054B7A68127802F00F02012101FA02F25E
:1012C0005A610837BD4680BD003C014090B583B0EF
:1012D00000AF78600B46FB707B681846FFF7C2FDD5
:1012E0007B68134A1A60202004F028FA02467B68C3
:1012F0009A617B689B69202019460FF009F9044622
:10130000002C08D0FB7820461946012200230FF05C
:1013100023F9234600E023467A6893617B689B6942
:101320007A685A607B6818460C37BD4690BD00BF8E
:101330002811010880B584B000AFF8607A603B6086
:101340000B46FB727B68002B04D0FB689B697A68B4
:10135000D2B21A72FB689B69FA7A5A72FB689B696F
:101360001846FFF7D7FEFB689B695B69002B02D12B
:101370004FF0FF331DE0FB689B699B691846012114
:1013800006F00AFCFB689B695B7A002B09D0F868C1
:101390000021012200F012F8F868396800F0D8F84E
:1013A00004E0F8680021002200F008F8FFF788FE4A
:1013B000002318461037BD4680BD00BF80B584B0FD
:1013C00000AFF8600B467A60FB72FB7A042B00F2E8
:1013D0009B8001A252F823F0ED1300082D140008A1
:1013E00077140008B3140008EF1400087B68002B82
:1013F00008D0FB689B6901225A72FB689B69012235
:101400001A7407E0FB689B6900225A72FB689B69AB
:1014100000221A74FB689B695A69FB689B690C334C
:101420001046194605F018F800236FE07B68002B82
:101430001ED07B68FF2B1BD8FB689B697A68D2B2F1
:101440001A72FB689B691846FFF764FEFB689B698C
:10145000FA6892695289DA60FB689B695A69FB688D
:101460009B690C331046194604F0F6FF00234DE04B
:101470004FF0FF334AE07B68002B17D07B68002BCE
:1014800004D0FB689B690122DA7403E0FB689B6966
:101490000022DA74FB689B695A69FB689B690C330C
:1014A0001046194604F0D8FF00232FE04FF0FF3319
:1014B0002CE07B68002B17D07B68002B04D0FB68E6
:1014C0009B690222DA7403E0FB689B690022DA74EC
:1014D000FB689B695A69FB689B690C331046194687
:1014E00004F0BAFF002311E04FF0FF330EE07B68F9
:1014F000022B06D8FB689B697A68D2B21A77002360
:1015000004E04FF0FF3301E04FF0FF33184610378F
:10151000BD4680BD80B582B000AF7860786800219C
:1015200000F0A8F8786800210022FFF747FF7B68E9
:101530009B695B69184604F0DDFE7B689B699B69CB
:101540001846002106F028FB0837BD4680BD00BFC5
:1015500080B584B000AF7860396000237B817B6800
:101560009B695B7A002B3BD040F2EB300AF08AFAA1
:1015700003460133FB6030E07B689B695B6918467A
:1015800005F076F803469AB27B689B695B899BB24B
:10159000DB439BB213409BB27B817B689B691B78CA
:1015A00003F00F033A6802FA03F39AB27B689B696F
:1015B0005B8913409AB27B8913437B817B689B696B
:1015C0005A697B891046194605F094F8FB68013B7F
:1015D00018460AF057FA0023FB60FB68002BCBD1BA
:1015E0001037BD4680BD00BF80B582B000AF7860C7
:1015F0007B689B695B7A002B15D07B689B695B6974
:10160000184605F035F803461A467B689B695B89E6
:1016100013409BB21A467B689B691B7803F00F034B
:1016200042FA03F314E07B689B695B69184604F097
:10163000F7FF03461A467B689B695B8913409BB2A0
:101640001A467B689B691B7803F00F0342FA03F389
:1016500018460837BD4680BD80B483B000AF7860BF
:101660007B689B695B7F18460C37BD465DF8047B41
:10167000704700BF80B586B000AF78600B46FB7046
:101680007B689B691B781B09DBB27B617B689B696C
:101690001B7803F00F033B613B69FB60FB78002B79
:1016A0005DD0464BFA6853F822207B689B699A42CA
:1016B00000D17FE0414BFA6853F82230002B4AD129
:1016C0007B689B691B7A012B03D93D48FFF720FB00
:1016D00070E07B69DAB23B69DBB21046194607F06D
:1016E00023F97B689B691B7F012B04D07B689B6976
:1016F0001B7F002B08D1334B324A916801203A6995
:1017000000FA02F20A439A607B689B691B7F022BF6
:1017100004D07B689B691B7F002B08D1294B294A89
:10172000D16801203A6900FA02F20A43DA607B6864
:101730009969224BFA6843F822107B689B69002262
:101740005A77204B1F4A116801203A6900FA02F2C9
:101750000A431A602EE01C48FFF7DAFA2AE0174B1A
:10176000FA6853F822207B689B699A4222D1154B74
:10177000144A116801203A6900FA02F2D2430A4081
:101780001A60104B0F4A916801203A6900FA02F280
:10179000D2430A409A600B4B0A4AD16801203A6949
:1017A00000FA02F2D2430A40DA60044BFA680021E0
:1017B00043F822101837BD4680BD00BF4007002007
:1017C000C8100108003C0140EC10010880B483B04F
:1017D00000AF78607B689B6900225A770C37BD4662
:1017E0005DF8047B704700BF80B500AF064B1B68F7
:1017F000002B04D0044B1B681846FFF749FD062058
:10180000FFF744FC80BD00BF4007002080B500AF5B
:10181000064B5B68002B04D0044B5B681846FFF74F
:1018200037FD0720FFF732FC80BD00BF40070020D6
:1018300080B500AF064B9B68002B04D0044B9B681F
:101840001846FFF725FD0820FFF720FC80BD00BFEC
:101850004007002080B500AF064BDB68002B04D0AA
:10186000044BDB681846FFF713FD0920FFF70EFC59
:1018700080BD00BF4007002080B500AF064B1B694C
:10188000002B04D0044B1B691846FFF701FD0A200A
:10189000FFF7FCFB80BD00BF4007002080B582B091
:1018A00000AF134B5B693B6005237B6017E03A6830
:1018B0007B6822FA03F303F00103002B0CD00D4BDD
:1018C0007A6853F82230002B06D00A4B7A6853F816
:1018D00022301846FFF7DCFC7B6801337B607B68B5
:1018E000092BE4DD1720FFF7D1FB0837BD4680BD8B
:1018F000003C01404007002080B582B000AF134B90
:101900005B693B600A237B6017E03A687B6822FAD8
:1019100003F303F00103002B0CD00D4B7A6853F84E
:101920002230002B06D00A4B7A6853F82230184632
:10193000FFF7AEFC7B6801337B607B680F2BE4DD37
:101940002820FFF7A3FB0837BD4680BD003C0140BF
:101950004007002090B583B000AF78600B46FB7065
:101960007B681846FFF77EFA7B68664A1A60FB7848
:10197000002B01D10123FB70FB78032B01D903233A
:10198000FB70FB785A1E13465B0013441B015E4A32
:101990001344302019460EF0BBFD0446002C06D03F
:1019A000FB78204619460EF009FE234600E0234648
:1019B0007A6893617B689B69012283F82C20FB780D
:1019C000022B35D0032B65D0012B00D094E07B682F
:1019D0009B694E4A5A607B689B694FF400129A607B
:1019E0007B689B69042283F825207B689B69484AB1
:1019F0001A617B689B6902225A617B689B6940225D
:101A00009A817B689B6906221A767B689B69404AAB
:101A1000DA617B689B6902221A627B689B694FF4DA
:101A200000725A837B689B69092283F8242063E053
:101A30007B689B69374A5A607B689B694FF48002D8
:101A40009A607B689B69042283F825207B689B69E8
:101A50002F4A1A617B689B6902225A617B689B69E5
:101A60004FF480629A817B689B690A221A767B68B0
:101A70009B69274ADA617B689B6902221A627B684C
:101A80009B694FF400625A837B689B690B2283F841
:101A9000242031E07B689B691F4A5A607B689B6900
:101AA0004FF400029A607B689B69042283F825202A
:101AB0007B689B69194A1A617B689B6901225A619C
:101AC0007B689B694FF480729A817B689B690822CE
:101AD0001A767B689B69124ADA617B689B690422EB
:101AE0001A627B689B694FF400725A837B689B691A
:101AF000092283F8242000BF7B6818460C37BD46B6
:101B000090BD00BF68110108840700200054004008
:101B10000004024000580040005C00400000024009
:101B20000008024080B588B000AF786039607B68FB
:101B30001B6804331B68786898477B689B693A6820
:101B40009A627B689B699B681846012106F07EF8C3
:101B50007B689B695A697B689B691B6A13431846BB
:101B6000012106F019F87B689B6919697B689B69FC
:101B70001B7E1A467B689B6993F825300846114600
:101B80001A4604F0D7FD7B689B69D9697B689B691D
:101B900093F824301A467B689B6993F825300846F1
:101BA00011461A4604F0C6FD7B689B699B89BB61A0
:101BB00002233B7700237B770123BB770023FB774E
:101BC0007B689B691A6907F118031046194604F0EF
:101BD00043FC7B689B695B8BBB617B689B69DA69B3
:101BE00007F118031046194604F036FC0023BB81A8
:101BF0004BF6FF73FB817B689B69DB8C3B824FF468
:101C000080637B824FF48043BB827B689B699B6AC5
:101C1000BB607B689B695A6807F108031046194648
:101C200004F008FE7B689B695B681846012104F09C
:101C3000E1FE002318462037BD4680BD80B584B044
:101C400000AF78607B689B695B681846002104F0F0
:101C5000D1FE7B689B695B68184604F0B1FD7B6828
:101C60009B699B681846002105F0F0FF07F1080307
:101C7000184604F07FFC00233B737B689B699B89BB
:101C8000BB607B689B691A6907F108031046194617
:101C900004F0E2FB7B689B695B8BBB607B689B69A4
:101CA000DA6907F108031046194604F0D5FB10372E
:101CB000BD4680BD80B483B000AF78600123184674
:101CC0000C37BD465DF8047B704700BF80B483B01D
:101CD00000AF7860012318460C37BD465DF8047BE1
:101CE000704700BF80B586B000AFF8607A603B6097
:101CF0000B46FB723B68002B01D1002321E0FB68FF
:101D00009B6993F82C30002B12D0FB689A69FB7A00
:101D1000104619467A683B6800F076F97861FB68EE
:101D20001B6828331B68FA68104698477B6908E0EF
:101D3000FB681B6828331B68FA68104698476FF0E9
:101D4000050318461837BD4680BD00BF80B586B074
:101D500000AFF8607A603B600B46FB723B68002B7B
:101D600001D1002321E0FB689B6993F82C30002B04
:101D700012D0FB689A69FB7A104619467A683B686C
:101D800000F05CFA7861FB681B682C331B68FA680A
:101D9000104698477B6908E0FB681B682C331B687A
:101DA000FA68104698476FF0050318461837BD4685
:101DB00080BD00BF80B588B000AFF8607A603B603E
:101DC0000B46FB720023FB610023BB61FB689B6930
:101DD00093F82C30002B6CD0FB689A69FB7A104684
:101DE00019467A683B6800F075F8F861FB69002BCA
:101DF00008DAFB681B682C331B68FA6810469847A2
:101E0000FB695FE0FB689B695B681846012104F091
:101E100051FE0AF039FBC7E904011CE00AF034FB6B
:101E2000D7E90423821A61EB030328484FF000012D
:101E3000904271EB030CACBF00230123DBB2002BFB
:101E400009D0FB681B682C331B68FA68104698475A
:101E50004FF0FF3336E0FB689B695B6818461C490E
:101E600005F0D2F80346012B0CBF00230123DBB29F
:101E7000002BD3D1FB689A69FB7A10461946BA6ADF
:101E8000FB6A00F0FFF9B861BB69002B08DAFB6858
:101E90001B682C331B68FA6810469847BB6911E031
:101EA000FB681B682C331B68FA6810469847BB69AF
:101EB00008E0FB681B682C331B68FA6810469847DB
:101EC0006FF0050318462037BD4680BD40420F0025
:101ED0000100030080B588B000AFF8607A603B6015
:101EE0000B46FB723B68002B01D100237FE0F868B2
:101EF00000F0B2F80346DB0FDBB2002B02D04FF04C
:101F0000FF3374E0FB7AF8681946002200F046F9C6
:101F10000346DB0FDBB2002B02D06FF0040366E058
:101F20000023FB6135E00AF0AFFAC7E9040115E0D0
:101F30000AF0AAFAD7E90423821A61EB03032E48B8
:101F40004FF00001904271EB030CACBF0023012362
:101F5000DBB2002B02D06FF0020348E0FB685B6845
:101F60001846264905F050F80346002B14BF0023FD
:101F70000123DBB2002BDBD1FB685A687968FB696F
:101F80000B441B781046194604F034FFFB690133FB
:101F9000FB61FA693B689A42C5D30AF075FAC7E952
:101FA000040115E00AF070FAD7E90423821A61EB04
:101FB000030313484FF00001904271EB030CACBFD8
:101FC00000230123DBB2002B02D06FF002030EE0EE
:101FD000FB685B6818460B4905F016F80346002BB2
:101FE00014BF00230123DBB2002BDBD13B68184672
:101FF0002037BD4680BD00BF40420F008000070073
:10200000809698008400070080B586B000AFF86025
:102010007A603B600B46FB72FB7AF86819467A6877
:102020003B68FFF757FF78617B69002B01DC7B6918
:102030000EE0F86800F078F80346002B0CBF002390
:102040000123DBB2002B02D06FF0010300E07B69BB
:1020500018461837BD4680BD80B584B000AF7860A3
:102060000AF012FAC7E9020115E00AF00DFAD7E901
:102070000223821A61EB030328484FF000019042CB
:1020800071EB030CACBF00230123DBB2002B02D0A9
:102090004FF0FF333EE07B685B6818464FF4003139
:1020A00005F004F80346002B0CBF00230123DBB22C
:1020B000002BDAD17B685B681846012104F0FAFC3A
:1020C0000AF0E2F9C7E9020115E00AF0DDF9D7E903
:1020D0000223821A61EB030311484FF00001904282
:1020E00071EB030CACBF00230123DBB2002B02D049
:1020F0004FF0FF330EE07B685B681846094904F037
:1021000083FF0346012B0CBF00230123DBB2002B0E
:10211000DBD1002318461037BD4680BD809698005D
:1021200040420F000100030080B584B000AF78602A
:102130007B685B681846012104F0DCFC0AF0A4F916
:10214000C7E9020115E00AF09FF9D7E90223821AD4
:1021500061EB030310484FF00001904271EB030C58
:10216000ACBF00230123DBB2002B02D06FF00103D0
:102170000DE07B685B681B889BB203F40073002B47
:102180000CBF00230123DBB2002BDCD10023184657
:102190001037BD4680BD00BF40420F0080B586B0FD
:1021A00000AF786013460A46FA70BB707B685968C6
:1021B000FB785B00DAB2BB78084611461A4604F099
:1021C000B9FCBB78012B02D1194B7B6101E0194BA3
:1021D0007B610AF059F9C7E9020115E00AF054F9E8
:1021E000D7E90223821A61EB030313484FF0000181
:1021F000904271EB030CACBF00230123DBB2002B38
:1022000002D06FF004030EE07B685B6818467969C2
:1022100004F0FAFE0346012B0CBF00230123DBB2BE
:10222000002BDBD1002318461837BD4680BD00BF08
:10223000020003008200070040420F0080B584B016
:1022400000AFF8607A603B600B46FB723B68002B86
:1022500001D1002312E0F868FFF7FEFE0346DB0F12
:10226000DBB2002B02D04FF0FF3307E0FB7AF868B7
:1022700019467A683B6800F005F80346184610379F
:10228000BD4680BD90B58BB000AFF8607A603B6012
:102290000B46FB723B68002B01D100238BE2FB7ADB
:1022A000F86819460122FFF779FF0346DB0FDBB21E
:1022B000002B02D06FF004037DE23B68012B6FD14D
:1022C000FB685B681846002104F052FCFB685B6801
:1022D0001B8BFB685B681846012104F00BFC0AF0BD
:1022E000D3F8C7E9040115E00AF0CEF8D7E90423D2
:1022F000821A61EB03039A484FF00001904271EBA0
:10230000030CACBF00230123DBB2002B02D06FF023
:10231000030350E2FB685B681846924904F0C6FE6E
:102320000346002B14BF00230123DBB2002BDBD1BB
:10233000FB685B68184604F06DFD03461A467B682F
:102340001A700AF0A1F8C7E9040115E00AF09CF838
:10235000D7E90423821A61EB030381484FF000019F
:10236000904271EB030CACBF00230123DBB2002BC6
:1023700002D06FF001031EE2FB685B681B889BB212
:1023800003F40073002B0CBF00230123DBB2002BEE
:10239000DCD1FB685B681846012104F0E9FB03E22D
:1023A0003B68022B40F0B780FB685B681846002151
:1023B00004F0DEFBFB685B68FA685268128892B230
:1023C00042F4006292B21A80FB685B681B8B0AF0D1
:1023D0005BF8C7E9040115E00AF056F8D7E90423D1
:1023E000821A61EB03035E484FF00001904271EBEB
:1023F000030CACBF00230123DBB2002B02D06FF033
:102400000303D8E1FB685B681846574904F04EFEA9
:102410000346002B14BF00230123DBB2002BDBD1CA
:10242000FB685B681846012104F064FB00237B62B3
:1024300035E00AF029F8C7E9040115E00AF024F8AC
:10244000D7E90423821A61EB030345484FF00001EA
:10245000904271EB030CACBF00230123DBB2002BD5
:1024600002D06FF00303A6E1FB685B6818463D49A4
:1024700004F01CFE0346002B14BF00230123DBB233
:10248000002BDBD17A687B6AD418FB685B6818463E
:1024900004F0C0FC034623707B6A01337B627B6AD5
:1024A000012BC6D909F0F0FFC7E9040115E009F0D6
:1024B000EBFFD7E90423821A61EB030328484FF0AE
:1024C0000001904271EB030CACBF00230123DBB28F
:1024D000002B02D06FF001036DE1FB685B681B8885
:1024E0009BB203F40073002B0CBF00230123DBB26B
:1024F000002BDCD1FB685B681846012104F038FB37
:10250000FB685B68FA685268128892B222F4006233
:1025100092B21A8048E13B68022B40F24581FB6889
:102520005B681B8B00233B623BE009F0ADFFC7E912
:1025300004011BE009F0A8FFD7E90423821A61EB2C
:10254000030307484FF00001904271EB030CACBF4E
:1025500000230123DBB2002B08D06FF003032AE134
:1025600040420F004000001004000010FB685B6850
:102570001846934904F09AFD0346002B14BF00232C
:102580000123DBB2002BD5D17A683B6AD418FB68F3
:102590005B68184604F03EFC034623703B6A013337
:1025A0003B623B68DA1E3B6A9A42BED809F06CFF78
:1025B000C7E9040115E009F067FFD7E90423821A8F
:1025C00061EB03037F484FF00001904271EB030C75
:1025D000ACBF00230123DBB2002B02D06FF003035A
:1025E000E9E0FB685B681846774904F05FFD034645
:1025F000002B14BF00230123DBB2002BDBD1FB68CF
:102600005B681846002104F0B3FA09F03DFFC7E902
:10261000040115E009F038FFD7E90423821A61EBC1
:10262000030368484FF00001904271EB030CACBF0C
:1026300000230123DBB2002B02D06FF00303BAE0CA
:10264000FB685B6818465E4904F030FD0346002BCA
:1026500014BF00230123DBB2002BDBD13B68033B1B
:102660007A68D418FB685B68184604F0D3FB03460D
:10267000237009F009FFC7E9040115E009F004FF20
:10268000D7E90423821A61EB03034E484FF000019F
:10269000904271EB030CACBF00230123DBB2002B93
:1026A00002D06FF0030386E0FB685B68184646497A
:1026B00004F0FCFC0346002B14BF00230123DBB213
:1026C000002BDBD1FB685B681846012104F012FA8D
:1026D0000223FB6137E009F0D7FEC7E9040115E0EA
:1026E00009F0D2FED7E90423821A61EB03033548CF
:1026F0004FF00001904271EB030CACBF00230123AB
:10270000DBB2002B02D06FF0030354E0FB685B6880
:1027100018462B4904F0CAFC0346002B14BF0023C3
:102720000123DBB2002BDBD13A68FB69D31A7A684C
:10273000D418FB685B68184604F06CFB03462370F2
:10274000FB69013BFB61FB69002BC4D109F09CFED6
:10275000C7E9040115E009F097FED7E90423821ABE
:1027600061EB030317484FF00001904271EB030C3B
:10277000ACBF00230123DBB2002B02D06FF00103BA
:1027800019E0FB685B681B889BB203F40073002BA5
:102790000CBF00230123DBB2002BDCD1FB685B689C
:1027A0001846012104F0E4F9FB685B681846074904
:1027B00004F0B0FC3B6818462C37BD4690BD00BF06
:1027C0004000001040420F00040000100004001000
:1027D000B0B582B000AF786039607B68012B10D152
:1027E0003A684FF6FF739A420BD1074B02241D46FD
:1027F00004E028460DF0F2FE3035013CB4F1FF3F15
:10280000F7D10837BD46B0BD8407002080B500AFC2
:1028100001204FF6FF71FFF7DBFF80BD80B584B06C
:1028200000AF78600B46FB707B68FA781A707B68A3
:1028300000225A705E4BFB60F86803F0FDFAFB68FB
:102840004FF480629A61FB6800225A61FB680022A3
:10285000DA61FB6800221A62FB6800225A62FB6898
:102860004FF400329A62FB680422DA62FB680022AD
:102870005A63FB6800229A63FB78022B32D0032B49
:102880005FD0012B40F08B807B684A4A5A607B689E
:10289000494ADA607B68494A1A617B68484A5A614A
:1028A0007B684FF0C0529A617B684FF0C062DA617A
:1028B0007B684FF0C0621A627B682022DA627B6814
:1028C000404A9A637B6840225A627B683D4A1A6399
:1028D0007B6880229A627B683A4A5A637B68052249
:1028E000DA635FE07B68384A5A607B68374ADA60AF
:1028F0007B68374A1A617B684FF0C0525A617B6827
:10290000344A9A617B680022DA617B6800221A628D
:102910007B684FF40052DA627B682F4A9A637B68C7
:102920004FF480425A627B682B4A1A637B684FF4EB
:1029300000429A627B68284A5A637B680522DA6300
:1029400030E07B68254A5A607B68254ADA607B68FC
:10295000244A1A617B681A4A5A617B68224A9A6142
:102960007B680022DA617B6800221A627B684FF480
:102970008062DA627B681D4A9A637B684FF400626A
:102980005A627B68194A1A637B684FF480529A62D4
:102990007B68164A5A637B680622DA6302E01448B1
:1029A000FEF7B6F97B6818461037BD4680BD00BFFC
:1029B00014080020003001401064024058640240B6
:1029C0002000001000000240003800405860024023
:1029D000706002402000002000040240003C0040E3
:1029E0001060024088600240000800200008024099
:1029F000A011010880B582B000AF786000BF7B688D
:102A00001B69184603F022FB0346002B0CBF002372
:102A10000123DBB2002BF2D100BF7B685B681B890E
:102A20009BB203F00203002B14BF00230123DBB28F
:102A3000002BF2D100BF7B685B681B899BB203F05F
:102A40008003002B0CBF00230123DBB2002BF2D14B
:102A500000BF7B68DB68184603F0F8FA0346002BDA
:102A60000CBF00230123DBB2002BF2D102E07B6814
:102A70005B689B897B685B681B899BB203F00103E1
:102A8000002B0CBF00230123DBB2002BEFD1083752
:102A9000BD4680BD80B58CB000AF7860396007F16D
:102AA0000C03184604F0CCFE7B681B78022B06D082
:102AB000032B07D0012B08D1BB69FB620BE07B69BC
:102AC000FB6208E07B69FB6205E03348FEF720F912
:102AD0004FF0FF335CE00023BB62FB6A5A083B689F
:102AE0009A4236D9FA6A3B68B2FBF3F37B6202E0A2
:102AF000BB6A0133BB627B6A5B087B627B6A002B2B
:102B00000CBF00230123DBB2002BF1D1BB6A002BE9
:102B100002D0BB6A013BBB62BB6A0233FA6A22FA8B
:102B200003F33B62BB6A0133FA6A22FA03F3FB61E7
:102B3000FA693B68D21AF9693B6ACB1A5B089A4278
:102B400002D9BB6A0133BB62BB6A072B01D90723D9
:102B5000BB627B685B687A685268128892B222F026
:102B6000380292B21A807B685B687A685268128871
:102B700091B2BA6A92B2D20092B20A4392B21A8069
:102B8000BB6A0133FA6ADA407B689A607B689B68AB
:102B900018463037BD4680BDA011010890B583B0FE
:102BA00000AF78600B46FB707B681846FEF75AF959
:102BB0007B68134A1A60FB78002B02D0FB78032B4A
:102BC00003D91048FEF7A4F815E0FB78013B9A0101
:102BD0000D4B1344402019460DF09AFC0446002C7E
:102BE00006D0FB7820461946FFF718FE234600E082
:102BF00023467A6893617B6818460C37BD4690BDC2
:102C0000C0110108A01101085008002080B58EB045
:102C100000AF786039607B689B691B78022B0ED00F
:102C2000032B17D0012B20D14FF48050012105F048
:102C30002BF84FF48000012104F0AEFF1BE04FF4AD
:102C40008040012105F002F84FF40010012104F04A
:102C5000A3FF10E04FF40040012104F0F7FF4FF410
:102C60000010012104F098FF05E08248FEF750F8BB
:102C70004FF0FF3373E17B689B699A6B7E4B9A42FE
:102C80000BD07B689B691A6B7B4B9A4205D07B68A3
:102C90009B695A6B784B9A4203D10120012104F0C1
:102CA0007BFF7B689B699A6B744B9A420BD07B6865
:102CB0009B691A6B714B9A4205D07B689B695A6B72
:102CC0006E4B9A4203D10220012104F065FF7B681C
:102CD0009B699A6B6A4B9A420BD07B689B691A6B13
:102CE000674B9A4205D07B689B695A6B644B9A424A
:102CF00003D10420012104F04FFF7B689B699A6B8C
:102D0000604B9A420BD07B689B691A6B5D4B9A4271
:102D100005D07B689B695A6B5A4B9A4203D10820B5
:102D2000012104F039FF7B689B699A6B564B9A42EC
:102D30000BD07B689B691A6B534B9A4205D07B681A
:102D40009B695A6B504B9A4203D11020012104F029
:102D500023FF7B689B699A6B4C4B9A420BD07B6834
:102D60009B691A6B494B9A4205D07B689B695A6BE9
:102D7000464B9A4203D12020012104F00DFF7B68CD
:102D80009B699A6B424B9A420BD07B689B691A6B8A
:102D90003F4B9A4205D07B689B695A6B3C4B9A42E9
:102DA00003D14020012104F0F7FE022387F82430EC
:102DB000002387F82630022387F82530002387F880
:102DC00027307B689B69DB6A3B627B689B699A6BF7
:102DD00007F120031046194603F03EFB7B689B6910
:102DE0005B6A3B627B689B691A6B07F120031046A4
:102DF000194603F031FB7B689B699B6A3B627B68E9
:102E00009B695A6B07F120031046194603F024FB17
:102E100000237B6300233B630023FB627B689B6989
:102E2000DB6ABB6202E07B6B01337B63BB6A5B08DE
:102E3000BB62BB6A002B0CBF00230123DBB2002B5B
:102E4000F1D17B689B695B6ABB6202E03B6B01333B
:102E50003B63BB6A5B08BB62BB6A002B0CBF0023F1
:102E60000123DBB2002BF1D17B689B699B6ABB62BB
:102E700013E000BFA011010800000240000402405E
:102E800000080240000C0240001002400014024002
:102E900000180240FB6A0133FB62BB6A5B08BB623D
:102EA000BB6A002B0CBF00230123DBB2002BF1D146
:102EB0007B689B69996B7B6B9AB27B689B69DB6BC8
:102EC000DBB2084611461A4603F034FC7B689B6966
:102ED000196B3B6B9AB27B689B69DB6BDBB2084674
:102EE00011461A4603F026FC7B689B69596BFB6A06
:102EF0009AB27B689B69DB6BDBB2084611461A46C7
:102F000003F018FC0023BB814FF48273FB81002384
:102F10003B8200237B820023BB824FF44073FB8201
:102F200000233B8300237B837B689B695A6807F1FE
:102F30000C031046194605F0F5F87B689B691846A6
:102F40003968FFF7A7FD7B689B695B68184601211C
:102F500005F044FA7B689B6901225A7000231846E9
:102F60003837BD4680BD00BF80B588B000AF7860FF
:102F70007B689B695B681846002105F02FFA7B6827
:102F80009B691B78022B09D0032B0DD0012B11D18B
:102F90004FF48050002104F077FE0FE04FF48040A2
:102FA000002104F053FE09E04FF40040002104F03A
:102FB0004DFE03E04748FDF7ABFE88E007F108034C
:102FC000184603F0D7FA7B689B695B6ABB607B6835
:102FD0009B691A6B07F108031046194603F03CFA87
:102FE0007B689B699B6ABB607B689B695A6B07F136
:102FF00008031046194603F02FFA7B689B69DB6AC9
:10300000BB607B689B699A6B07F108031046194601
:1030100003F022FA0023FB610023BB6100237B61E4
:103020007B689B69DB6A3B6102E0FB690133FB6102
:103030003B695B083B613B69002B0CBF002301230C
:10304000DBB2002BF1D17B689B695B6A3B6102E0DC
:10305000BB690133BB613B695B083B613B69002B8A
:103060000CBF00230123DBB2002BF1D17B689B69ED
:103070009B6A3B6102E07B6901337B613B695B08D2
:103080003B613B69002B0CBF00230123DBB2002B0B
:10309000F1D17B689B699A6BFB699BB2104619461C
:1030A000002203F047FB7B689B691A6BBB699BB2EC
:1030B00010461946002203F03DFB7B689B695A6B62
:1030C0007B699BB210461946002203F033FB203780
:1030D000BD4680BDA011010880B584B000AFF86086
:1030E0000B467A60FB72FB689B695B7883F0010397
:1030F000DBB2002B02D04FF0FF3361E0FB7A002BF4
:1031000002D0012B34D059E07B68002B13DDFB6823
:103110001B6810331B68F86898470346002B0AD0D9
:10312000FB681B6814331B68F86898470346002B3C
:1031300001D0012300E00023002B16D0FB689B691F
:103140005B681846002105F049F9FB689A697B68BD
:1031500010461946FFF79EFCFB689B695B681846A2
:10316000012105F03BF900232AE04FF0FF3327E06F
:103170007B68002B02DA7B68032B1CDCFB689B69F5
:103180005B68FA6892695268128892B222F0030270
:1031900092B21A80FB689B695B68FA689269526810
:1031A000128892B291B27A6892B20A4392B292B203
:1031B0001A80002304E04FF0FF3301E04FF0FF33AB
:1031C00018461037BD4680BD80B483B000AF78602C
:1031D0000B46FB707B689B695B7883F00103DBB275
:1031E000002B02D04FF0FF3308E0FB78002B03D117
:1031F0007B689B699B6801E04FF0FF3318460C37F2
:10320000BD465DF8047B704780B483B000AF786042
:10321000012318460C37BD465DF8047B704700BF9C
:1032200080B483B000AF7860012318460C37BD46E8
:103230005DF8047B704700BF80B586B000AFF860D2
:10324000B9607A60FB689B695B7883F00103DBB24D
:10325000002B02D04FF0FF337DE0FB689B691846DE
:10326000FFF7C8FB3E4B7B61FB689B695B680C33D7
:103270001A467B695A60FB689B691A6A7B691A6007
:103280007B694022DA607B6901221A63BA687B6934
:103290009A607B697A681A61FB689B691B691846AA
:1032A0002F4902F073FDFB689B691B6918461021CA
:1032B000002202F05FFFFB689B691B691846012131
:1032C00002F0F0FD00BFFB689B691B69184602F025
:1032D000BDFE0346012B0CBF00230123DBB2002BF4
:1032E000F1D1FB689B695B6818460221012205F059
:1032F00017FA00BFFB689B691A69FB689B699B69A9
:103300001046194602F0CCFE0346002B14BF0023E2
:103310000123DBB2002BEDD1FB689B691A69FB68C6
:103320009B699B691046194602F0F6FEFB689B6993
:103330001846FFF75FFBFB689B695B681846022134
:10334000002205F0EDF9FB681B6828331B68FA685A
:10335000104698477B6818461837BD4680BD00BFA9
:103360001408002080B586B002AFF860B9607A60BA
:103370007B680093F868B9687A68BB6800F006F863
:10338000034618461037BD4680BD00BF80B586B0E5
:1033900000AFF860B9607A603B60FB689B695B785E
:1033A00083F00103DBB2002B02D04FF0FF3307E1C3
:1033B000FB689B691846FFF71DFB834B7B61FB682D
:1033C0009B695B680C331A467B695A60FB689B6992
:1033D0001A6A7B691A607B694022DA607B69012284
:1033E0001A63BA687B699A607B697A681A61FB68BC
:1033F0009B691B691846796902F0C8FCFB689B69E8
:103400005B680C331A467B695A60FB689B69DA6912
:103410007B691A607B690022DA607B6903221A6388
:103420003A687B699A607B693A6A1A61FB689B69B2
:10343000DB681846796902F0A9FCFB689B69DB68C8
:1034400018461021002202F095FEFB689B691B695B
:1034500018461021002202F08DFEFB689B69DB6894
:103460001846012102F01EFDFB689B691B69184686
:10347000012102F017FDFB689B695B681846032178
:10348000012205F04DF900BFFB689B691A69FB68D2
:103490009B699B691046194602F002FE0346002B09
:1034A00014BF00230123DBB2002BEDD1FB689B6925
:1034B0001A69FB689B699B691046194602F02CFE4D
:1034C0003A6A7B689A424CD9FB689B695B680C330B
:1034D0001A467B695A60FB689B691A6A7B691A60A5
:1034E0007B694022DA607B6901221A633A687B6952
:1034F0009A603A6A7B68D21A7B691A61FB689B6999
:103500001B691846796902F041FCFB689B691B69DD
:103510001846012102F0C6FCFB689B695B681846EF
:103520000221012205F0FCF800BFFB689B691A69C3
:10353000FB689B699B691046194602F0B1FD034682
:10354000002B14BF00230123DBB2002BEDD1FB685D
:103550009B691A69FB689B699B691046194602F0D2
:10356000DBFD00BFFB689B69DA68FB689B695B69F0
:103570001046194602F094FD0346002B14BF0023A9
:103580000123DBB2002BEDD1FB689B69DA68FB6895
:103590009B695B691046194602F0BEFDFB689B699A
:1035A0001846FFF727FA09480321002205F0B8F86A
:1035B000FB681B682C331B68FA68104698473B6A07
:1035C00018461837BD4680BD140800200030014061
:1035D000B0B582B000AF786039607B68012B10D144
:1035E0003A684FF6FF739A420BD1074B02241D46EF
:1035F00004E028460CF0FEFF4035013CB4F1FF3FEB
:10360000F7D10837BD46B0BD5008002080B500AFE7
:1036100001204FF6FF71FFF7DBFF80BD00000000C7
:1036200080B483B000AF0346FB71084B97F90720C5
:103630005209F97901F01F01012000FA01F143F864
:1036400022100C37BD465DF8047B704700E100E0B6
:1036500080B483B000AF0346FB71094B97F9072094
:103660005209F97901F01F01012000FA01F120321D
:1036700043F822100C37BD465DF8047B704700BF4D
:1036800000E100E080B483B000AF0346FB71094B5A
:1036900097F907205209F97901F01F01012000FA7A
:1036A00001F1603243F822100C37BD465DF8047B0F
:1036B000704700BF00E100E080B586B002AF7860DF
:1036C0000CE008F0E1FE29A3D3E90023121843EB34
:1036D000010310461946002208F03AFB1E4B1B78E6
:1036E000DBB283F00103DBB2002BEAD179681B4A1D
:1036F0004FF00003CDE900230846194A4FF00003BC
:1037000008F078F91CE00123FB6016E0154AFB681D
:103710004FF4187101FB03F3134430339B79002BF2
:1037200008D0FB685A1E104B53F82230184600216F
:1037300002F0B8FBFB680133FB60FB68032BE5DD9F
:103740007B68184608F06CF90123002BDBD1103799
:10375000BD4680BDAFF30080B01900208096980070
:1037600040420F00100900202000002000E40B540C
:103770000200000080B582B000AF78600B46FB709D
:103780007B681846FDF76EFB7B688D4A1A60FB78F4
:10379000002B02D0FB78062B07D97B68894A9A61F7
:1037A0007B689B69FA781A704FE1FB784FF41872C6
:1037B00002FB03F2834B1A447B689A617B689B6926
:1037C000FA781A707B689B694FF4E1329A607B68E3
:1037D0009B6901225A607B689B697A68DA607B6822
:1037E0009B69002283F836207B689B69002283F85E
:1037F00037207B689B69002283F83C20FB78013BE3
:10380000072B00F2218101A252F823F02D38000885
:103810007B380008C538000817390008453900080A
:1038200071390008F53900081F3A00087B689B6968
:10383000654A5A617B689B69644A9A617B689B69A7
:1038400040229A837B689B69604A1A627B689B6905
:1038500080229A847B689B695D4A9A627B689B6937
:103860004FF480529A857B689B69594A1A637B683A
:103870009B694FF400629A86E7E07B689B69554A32
:103880005A617B689B69544A9A617B689B692022D4
:103890009A837B689B69504A1A627B689B694022C5
:1038A0009A847B689B694C4A9A627B689B69102268
:1038B0009A857B689B69484A1A637B689B690822E2
:1038C0009A86C2E07B689B69444A5A617B689B691F
:1038D000414A9A617B689B694FF480729A837B6846
:1038E0009B693D4A1A627B689B694FF400729A8417
:1038F0007B689B69354A9A627B689B694FF480427A
:103900009A857B689B69344A1A637B689B694FF48C
:1039100000629A8699E07B689B69314A5A617B68AC
:103920009B69304A9A617B689B694FF480629A83F5
:103930007B689B692B4A1A627B689B694FF4006223
:103940009A8482E07B689B69274A5A617B689B69FD
:10395000244A9A617B689B694FF480529A837B6802
:103960009B691D4A1A627B689B6904229A846CE0F9
:103970007B689B691D4A5A617B689B69194A9A61F9
:103980007B689B6940229A837B689B69154A1A620F
:103990007B689B6980229A847B689B69144A9A623F
:1039A0007B689B694FF480729A857B689B69104A9B
:1039B0001A637B689B694FF400429A8645E000BF1A
:1039C000B01201081009002000100140000402405C
:1039D0000000024000440040000C0240004800404B
:1039E000004C00400008024000500040001401401C
:1039F000001802407B689B69164A5A617B689B6984
:103A0000154A9A617B689B6980229A837B689B69CF
:103A1000114A1A627B689B6940229A8415E07B6890
:103A20009B690E4A5A617B689B690D4A9A617B6863
:103A30009B6902229A837B689B69094A1A627B68A8
:103A40009B6901229A8400E000BF7B681846083712
:103A5000BD4680BD0078004000140240007C00405C
:103A60000010024080B500AF034800F087FE25201B
:103A7000FFF708FE80BD00BF700B002080B500AFCF
:103A8000034800F07BFE2620FFF7FCFD80BD00BF51
:103A9000D00D002080B500AF034800F06FFE272056
:103AA000FFF7F0FD80BD00BF3010002080B500AFF3
:103AB000034800F063FE3420FFF7E4FD80BD00BF43
:103AC0009012002080B500AF034800F057FE35206B
:103AD000FFF7D8FD80BD00BFF014002080B500AF17
:103AE000034800F04BFE4720FFF7CCFD80BD00BF30
:103AF0005017002080B500AF0D480E4902F074FB4E
:103B00000346002B0CBF00230123DBB2002B0AD09D
:103B10000748084902F0C0FB4620FFF7B3FD0648FE
:103B200000F042FD02E04620FFF7ACFD80BD00BF83
:103B3000B864024000800028700B002080B500AF00
:103B40000D480E4902F050FB0346002B0CBF00232A
:103B50000123DBB2002B0AD00748084902F09CFB86
:103B60001120FFF78FFD064800F01EFD02E0112036
:103B7000FFF788FD80BD00BFA060024000802020CC
:103B8000D00D002080B500AF0D480E4902F02CFB8F
:103B90000346002B0CBF00230123DBB2002B0AD00D
:103BA0000748084902F078FB0E20FFF76BFD064836
:103BB00000F0FAFC02E00E20FFF764FD80BD00BFBC
:103BC00058600240008000183010002080B500AF1F
:103BD0000D480E4902F008FB0346002B0CBF0023E2
:103BE0000123DBB2002B0AD00748084902F054FB3E
:103BF0004420FFF747FD064800F01AFD02E044208C
:103C0000FFF740FD80BD00BF8864024000880020AF
:103C1000700B002080B500AF0D480E4902F0E4FAA9
:103C20000346002B0CBF00230123DBB2002B0AD07C
:103C30000748084902F030FB1020FFF723FD064833
:103C400000F0F6FC02E01020FFF71CFD80BD00BF75
:103C50008860024000880020D00D002080B500AFB1
:103C60000D480E4902F0C0FA0346002B0CBF00239A
:103C70000123DBB2002B0AD00748084902F00CFBF5
:103C80000C20FFF7FFFC064800F0D2FC02E00C20FD
:103C9000FFF7F8FC80BD00BF2860024000880010DC
:103CA0003010002080B582B000AF786039607B684A
:103CB0009B691B78002B04D07B689B691B78062BC3
:103CC00002D94FF0FF3306E07B689B6918463968DC
:103CD00000F02AFF034618460837BD4680BD00BFE6
:103CE000B0B58EB000AFF8600B467A60FB72FB682F
:103CF0009B691B7887F8373097F83730002B03D053
:103D000097F83730062B02D94FF0FF33E7E0FB6816
:103D10009B695B693B6307F12003184606F07EFD53
:103D2000FB689B699B683B62FB689B695B689BB215
:103D3000BB85FB7A012B12D0022B00F09480002B64
:103D400040F0BB807B68002B06DD7B683B62FB6834
:103D50009B697A689A60B3E04FF0FF33BFE097F851
:103D60003730042B0BD097F83730052B07D097F856
:103D70003730072B03D097F83730082B02D14FF09C
:103D8000FF33ACE007F11803184602F0F3FB07F12C
:103D90001003184602F0EEFB7B68002B0CDD4FF49D
:103DA0004073BB85FB689B694FF440725A600223E5
:103DB0003B7702233B7509E00023BB85FB689B69C9
:103DC00000225A6000233B7700233B75FB689B6908
:103DD0001D6BFB689A69FB689B699B8E10461946B0
:103DE00000F080FD03469CB2FB689B69184600F01A
:103DF0003BFE0346284621461A4602F09BFCFB6820
:103E00009B699D6AFB689A69FB689B699B8D10465C
:103E1000194600F067FD03469CB2FB689B69184693
:103E200000F022FE0346284621461A4602F082FC94
:103E3000FB689B699B8E3B61FB689B691A6B07F172
:103E400010031046194602F007FBFB689B699B8D27
:103E5000BB61FB689B699A6A07F118031046194613
:103E600002F0FAFA2CE0FB689B691B78032B02D95D
:103E70004FF0FF3333E0FB689B69184600F06EFAA1
:103E80007B68B3F5807F05DDFB689B694FF480722A
:103E90005A6403E0FB689B697A685A64FB689B6913
:103EA000012283F83620FB689B69184600F018FC55
:103EB0000D4B01221A70002311E04FF0FF330EE08A
:103EC000386B002106F006FD07F12003386B194618
:103ED00006F0EAFB386B012106F0FCFC00231846D3
:103EE0003837BD46B0BD00BFB019002080B586B0E0
:103EF00000AF78607B689B691B78002B35D07B68AE
:103F00009B691B78062B30D87B689B695B697B615A
:103F10007B689B69184600F0DBFD03461846FFF7F7
:103F200097FB786906F036FB07F10C03184602F0A0
:103F300021FB00233B747B689B699B8CFB607B6847
:103F40009B691A6A07F10C031046194602F084FABD
:103F50007B689B699B8BFB607B689B699A6907F117
:103F60000C031046194602F077FA1837BD4680BD9B
:103F700080B588B000AFF860B9607A60FB689B6973
:103F80001B78002B04D0FB689B691B78062B02D999
:103F90004FF0FF3354E07B68002B01DC00234FE03F
:103FA00000237B610023FB61FB689B6903F14802EE
:103FB00007F11403104619460CF08EFBB861BB697B
:103FC000002B3CD07A697B689A4201DD7B687B617B
:103FD0000023FB610AE0FB69BA681344FA69B96916
:103FE0000A4412781A70FB690133FB617B69FA6934
:103FF0009A42F0DBFB689B6903F148027B6910463B
:1040000019460CF099FBFB689B6993F83630002B3E
:104010000BD0FB689B6993F83C30DBB283F0010363
:10402000DBB2002B01D0012300E00023002B04D0E1
:10403000FB689B69184600F053FB7B6900E0002396
:1040400018462037BD4680BD80B588B000AFF86007
:10405000B9607A60FB689B691B78002B04D0FB6811
:104060009B691B78062B02D94FF0FF335FE07B681A
:10407000002B01DC00235AE00023FB61FB689B69F5
:1040800003F5AA7207F11403104619460CF068FBF9
:10409000B861BB69002B49D07A697B689A4201DA22
:1040A0007B697B600023FB610AE0FB69BA6913440A
:1040B000FA69B9680A4412781A70FB690133FB6126
:1040C000FA697B689A42F0DBFB689B6903F5AA7387
:1040D000184679680CF084FBFB689B695B6918469D
:1040E00040F22661002206F019FEFB689B6993F8F6
:1040F0003630002B0FD0FB689B6993F83730DBB26A
:1041000083F00103DBB2002B0ED0FB689B691846DD
:1041100000F0C4FA08E0FB689B695B69184640F24E
:104120002771012206F0FAFD7B6800E000231846A3
:104130002037BD4680BD00BF80B584B000AF786039
:104140007B689B691B78002B04D07B689B691B787C
:10415000062B02D94FF0FF332EE00023BB737B68A0
:104160009B6903F1480207F10E03104619460CF053
:104170004BFB0346FB737B689B6993F83630002B3F
:104180000BD07B689B6993F83C30DBB283F0010372
:10419000DBB2002B01D0012300E00023002B04D070
:1041A0007B689B69184600F09BFAFB7B002B01D0D3
:1041B000BB7B01E04FF0FF3318461037BD4680BD92
:1041C00080B584B000AF78600B46FB707B689B695C
:1041D0001B78002B04D07B689B691B78062B02D9C7
:1041E0004FF0FF333AE07B689B6903F5AA72FB78D6
:1041F000FB7307F10F03104619460CF031FB034621
:10420000002B29D07B689B695B69184640F22661C8
:10421000002206F083FD7B689B6993F83630002B03
:104220000FD07B689B6993F83730DBB283F00103D2
:10423000DBB2002B0ED07B689B69184600F02EFA8B
:1042400008E07B689B695B69184640F22771012290
:1042500006F064FDFB7801E04FF0FF33184610379D
:10426000BD4680BD80B584B000AF78600B46FB7062
:104270007B689B691B78002B04D07B689B691B784B
:10428000062B02D94FF0FF3319E0FB78002B02D048
:10429000012B08D011E07B689B69483318460CF06D
:1042A0000BFB03460BE07B689B691B69FB607B682B
:1042B0009B6900221A61FB6801E04FF0FF3318464A
:1042C0001037BD4680BD00BF80B582B000AF7860BA
:1042D0007B689B691B78002B04D07B689B691B78EB
:1042E000062B01D9002316E07B689B6903F5AA73AE
:1042F00018460CF001FB0346002B0BD07B689B6932
:104300005B691846402106F051FD0346012B01D19F
:10431000012300E0002318460837BD4680BD00BFDA
:1043200080B582B000AF78607B689B691B78002BFA
:1043300004D07B689B691B78062B01D9002309E018
:104340007B689B69483318460CF0D6FA034683F025
:104350000103DBB218460837BD4680BD80B592B078
:1043600000AF78607B681B78002B00F0B6807B681C
:104370001B78032B00F2B18000F0E6F97B681B7814
:104380005A1E574B53F822307B6407F10803184636
:1043900001F052FD4FF00063BB607B685B69043342
:1043A000FB6000233B6140237B611023BB61002342
:1043B000FB614FF480633B6200237B620023BB629E
:1043C0000023FB624FF480333B6300237B630123B4
:1043D000BB630023FB6300233B6407F10803786C95
:1043E000194601F0D3FC786C1021012201F0C2FEC5
:1043F0007B685B6918468021012206F06BFC7B68B4
:104400001B785A1E374B53F822307B6407F10803A0
:10441000184601F011FD4FF00063BB607B685B69DB
:104420000433FB6000233B6100237B611023BB61ED
:104430000023FB614FF480633B6200237B62002317
:10444000BB620023FB624FF480333B6300237B633A
:104450000123BB630023FB6300233B6407F10803D4
:10446000786C194601F092FC786C1021012201F061
:1044700081FE7B685B69184640F22551002206F0F8
:104480004DFC7B685B6918466021012206F046FC02
:104490007B685B6918464021012206F01BFC7B68A3
:1044A0001B78022B0BD0032B10D0012B00D014E073
:1044B0004620FFF7B5F84420FFF7B2F80DE01120D1
:1044C000FFF7AEF81020FFF7ABF806E00E20FFF77D
:1044D000A7F80C20FFF7A4F800BF4837BD4680BD01
:1044E000140000202000002080B586B000AFF860E6
:1044F000B9607A60FB681B78002B03D0FB681B78DF
:10450000032B00D914E0FB681B785A1E0A4B53F8A2
:1045100022307B617869002101F0C4FCBA687B69B4
:10452000DA607A687B695A607869012101F0BAFC27
:104530001837BD4680BD00BF1400002080B586B08E
:1045400000AFF860B9607A60FB681B78002B03D07D
:10455000FB681B78032B00D920E0FB681B785A1EF0
:10456000104B53F822307B617869002101F09AFCEE
:1045700000BF786901F06AFD0346012B14BF0023D8
:104580000123DBB2002BF4D1BA687B69DA607A6868
:104590007B695A607869012101F084FC1837BD46B7
:1045A00080BD00BF2000002080B586B000AF7860DD
:1045B0007B681B78002B03D07B681B78032B00D90A
:1045C00030E07B681B785A1E184B53F822307B6111
:1045D000786901F0C5FC03463B617B689A6B3B69D7
:1045E000D31AFB607B6803F5AA731846F9680CF0D0
:1045F000A3F87B6803F5AA7318460CF07DF903460F
:10460000002B0CD07B68002283F837207B685B6925
:10461000184640F22661012206F080FB02E078682D
:1046200000F03CF81837BD4680BD00BF14000020E4
:1046300090B585B000AF78607B681B78002B03D005
:104640007B681B78032B00D923E07B681B785A1EFC
:10465000114B53F82230FB607B681C6CF86801F04A
:104660007FFC0346E31ABB607B6848331846B96891
:104670000CF0B6F8BB68002B08DD7B68DB681B68B4
:1046800030331B687A68D26810469847786800F023
:1046900027F81437BD4690BD2000002080B584B0B7
:1046A00000AF78607B6803F5AA7207F10803104633
:1046B00019460CF011F8F860FB68002B0CD0BA68B2
:1046C0007B689A637B68012283F83720BB6878682F
:1046D000F9681A46FFF708FF1037BD4680BD00BFD6
:1046E00080B584B000AF78607B6803F1480207F1C1
:1046F0000803104619460CF033F8F860FB68002BED
:1047000015D07B685A6CBB689A4202DA7B685B6C96
:10471000BB60BA687B681A647B68012283F83C201E
:10472000BB687868F9681A46FFF708FF08E07B68FD
:10473000002283F83C207B681B695A1C7B681A6145
:104740001037BD4680BD00BF80B500AF0A4B1B7857
:1047500083F00103DBB2002B0CD0074B01221A704F
:104760004FF40010012103F017FA4FF480000121EB
:1047700003F012FA80BD00BF081A002080B584B093
:1047800000AF78607B685B691846082106F00EFB75
:104790000346002B0DD17B6893F83630002B0AD0EE
:1047A0007B685B691846602106F02CFB0346002BF2
:1047B00001D0012300E00023002B0AD07B685B6955
:1047C000184606F017F97B681B695A1C7B681A614A
:1047D00085E07B685B69184640F2255106F012FBC4
:1047E0000346002B0CBF00230123DBB2002B25D096
:1047F0007B685B69184606F0FDF80346DBB2FB7385
:104800007B6803F1480207F10F03104619460CF0CC
:1048100027F8034683F00103DBB2002B04D07B684A
:104820001B695A1C7B681A617B68DB681B68303324
:104830001B687A68D2681046984750E07B685B69CD
:10484000184640F2277106F0DDFA0346002B0CBF34
:1048500000230123DBB2002B21D07B6803F5AA7271
:1048600007F10F03104619460BF0CEFF0346002B4D
:1048700004D07B685B69FA7B9A8030E07B685B6977
:10488000184640F22771002206F048FA7B685B69FF
:10489000184640F22661012206F040FA1FE07B68CC
:1048A0005B69184640F2266106F0ACFA0346002B1D
:1048B0000CBF00230123DBB2002B10D07B685B69A7
:1048C000184640F22661002206F028FA7B68DB6871
:1048D0001B6828331B687A68D268104698471037DF
:1048E000BD4680BD80B485B000AF786039600023DC
:1048F000FB6002E0FB680133FB603B685B083B60E8
:104900003B68002B0CBF00230123DBB2002BF1D14D
:10491000FB6818461437BD465DF8047B704700BF3E
:1049200080B483B000AF786039603B68264A934218
:1049300034D0254A934213D8244A934228D0234A9C
:10494000934206D8224A93421ED0224A93421DD057
:1049500033E0214A93421DD0204A93421CD02CE0E0
:104960001F4A934220D01E4A934206D81D4A9342C2
:1049700016D01D4A934215D01FE01C4A934216D010
:104980001B4A934216D018E0012317E0022315E0DA
:10499000042313E0082311E010230FE020230DE08F
:1049A00040230BE0802309E04FF4807306E04FF4CE
:1049B000007303E04FF4806300E0002318460C37D7
:1049C000BD465DF8047B70470014024000080240B9
:1049D0000000024000040240000C024000100240AF
:1049E0000020024000180240001C02400024024047
:1049F0000028024080B483B000AF78607B681B78E9
:104A0000013B072B28D801A252F823F02D4A0008B9
:104A1000314A0008374A00083D4A0008434A000866
:104A2000494A00084D4A0008534A0008102314E080
:104A30004FF4003311E04FF480230EE04FF40023D5
:104A40000BE04FF4801308E0202306E04FF0804392
:104A500003E04FF0004300E0002318460C37BD464A
:104A60005DF8047B704700BF80B483B000AF78600E
:104A70007B681B78013B072B22D801A252F823F058
:104A8000A14A0008A54A0008A94A0008AD4A000842
:104A9000B14A0008B54A0008B94A0008BD4A0008F2
:104AA00007230EE007230CE007230AE0082308E0B1
:104AB000082306E0082304E0082302E0082300E0BE
:104AC000002318460C37BD465DF8047B704700BFD5
:104AD00080B483B000AF78607B681B78013B052B06
:104AE0001AD801A252F823F0014B0008054B000828
:104AF000094B00080D4B0008114B0008154B00082E
:104B000025230AE0262308E0272306E0342304E0D7
:104B1000352302E0472300E025235BB218460C371B
:104B2000BD465DF8047B7047B0B588B000AF7860D3
:104B300039607B681B78002B03D07B681B78062BC1
:104B400002D94FF0FF33BDE03A687B689A607B681A
:104B50005B69184605F01EFD7B681B78012B03D0AE
:104B60007B681B78062B08D17868FFF743FF034664
:104B70001846012103F088F807E07868FFF73AFF4C
:104B800003461846012103F061F87B689B69786849
:104B90001946FFF7C5FE04467B681B6A786819460C
:104BA000FFF7BEFE034623431846012102F0F4FF3F
:104BB0007B689B6978681946FFF7B2FE04467B68FC
:104BC0001B6A78681946FFF7ABFE03462343184675
:104BD000002103F077F87B689D697B689B8B786880
:104BE0001946FFF77FFE03469CB27868FFF73CFF4B
:104BF0000346284621461A4601F09CFD7B681D6A43
:104C00007B689B8C78681946FFF76CFE03469CB264
:104C10007868FFF729FF0346284621461A4601F027
:104C200089FD07F11803184601F0A4FC02233B7725
:104C30007B689B8BBB617B689A6907F11803104600
:104C4000194601F009FC07F11803184601F092FC1F
:104C500002233B777B689B8CBB617B681A6A07F1F8
:104C600018031046194601F0F7FB07F10803184630
:104C700005F0D4FD3B68BB607B685A6907F1080307
:104C80001046194605F010FD7B685B691846012146
:104C900005F020FE7B685B69184640F22551012231
:104CA00006F03CF87B685B69184640F227710122E8
:104CB00006F034F87868FFF70BFF03461846FEF756
:104CC000AFFC002318462037BD46B0BD90B583B079
:104CD00000AF7860064C074B9C4205D0A4F51874D1
:104CE00020460BF0B5FEF6E70C37BD4690BD00BF81
:104CF000B019002010090020B0B582B000AF786074
:104D000039607B68012B1ED13A684FF6FF739A42D7
:104D100019D10E4B06241D4605E028460BF08EFCEB
:104D200005F51875013CB4F1FF3FF6D100200849A4
:104D3000084A0CF091F808480BF068FC064807494F
:104D4000044A0CF089F80837BD46B0BD10090020B0
:104D5000CD4C000828070020B8190020010A0108DE
:104D600080B500AF01204FF6FF71FFF7C5FF80BD92
:104D700080B483B000AF03463960FB7197F9073008
:104D8000002B0BDA0D49FB7903F00F03043B3A6863
:104D9000D2B21201D2B20B441A7609E0084997F94F
:104DA00007303A68D2B21201D2B20B4483F8002322
:104DB0000C37BD465DF8047B704700BF00ED00E096
:104DC00000E100E080B584B000AF194B00221A600A
:104DD0006FF00100FF21FFF7CBFF4FF0FF30FF2105
:104DE000FFF7C6FF1C20FF21FFF7C2FF06F00CFDF6
:104DF00000F076F902460F4B1A600F4B1A680F4B02
:104E00001A600F484FF4E131FEF74CFF00F06CFBE5
:104E10003B46184602F014FD3A680A4BA3FB021306
:104E20009B0C09481946FBF7E1FE1037BD4680BDD3
:104E3000141A0020341A0020107AFF1F6800002086
:104E4000181A002083DE1B43F812010880B500AF5A
:104E5000002000F089F8FEE780B400AF72B6BD46CE
:104E60005DF8047B704700BF80B400AF62B6BD46FA
:104E70005DF8047B704700BF80B483B000AF7860FA
:104E800039607B68043B7B607B684FF080721A60FE
:104E90007B68043B7B60104A7B681A607B68043B3C
:104EA0007B607B6800221A607B68143B7B603A68F9
:104EB0007B681A607B68043B7B607B686FF0020252
:104EC0001A607B68203B7B607B6818460C37BD46C8
:104ED0005DF8047B704700BFA1BE0008D848006899
:104EE000006880F3088862B600DF00BFD549086813
:104EF000B0E8F04F80F30988704700BF71B6EFF358
:104F000009801EF0100F08BF20ED108A20E9F04F35
:104F100000F07CFCCB490868B0E8F04F1EF0100FA1
:104F200008BFB0EC108A80F3098861B6704700BFF3
:104F300080B483B000AF7860034B7A681A600C3796
:104F4000BD465DF8047B7047101A002080B400AFA6
:104F5000044B044A526842F080525A60BD465DF8E4
:104F6000047B704700ED00E0B0B588B000AF78601A
:104F700045F2555002F028F90023FB617B68B3F538
:104F80007A7F05DA022002F02FF91023FB6105E099
:104F9000062002F029F94FF48073FB61224B1B6855
:104FA000184609F053FB04460D46F86909F04EFB1C
:104FB00002460B462046294609F0E8FC02460B460D
:104FC000C7E90423786809F051FB02460B461046F6
:104FD00019464FF00002154B09F0D8FC02460B466B
:104FE000C7E90223D7E90201D7E9042309F0A4FBAA
:104FF00002460B461046194609F060FE0346BB61A7
:10500000BB69B3F5805F02D340F6FF73BB61BB6938
:105010009BB2184602F0F8F802F006F902F010F917
:105020002037BD46B0BD00BF341A002000408F407D
:1050300080B500AF02F0F8F880BD00BF98B500AFB2
:105040001848102104F06CFF0346002B0CBF00230E
:105050000123DBB2002B24D0134B1B681C46621CBF
:10506000114B1A600F4804F0D1FD03469AB20F4B62
:1050700023F814200B48102104F07CFF0A4B1B6816
:10508000012B0ED9094B5A88084B1B88D31A9BB2A7
:105090001A46074B1A60044B00221A60054B012286
:1050A0001A7098BD000C0040401A0020441A0020DD
:1050B000381A00203C1A002080B400AFBD465DF8CD
:1050C000047B704780B500AF044B1B68002B02D1F6
:1050D000FFF7B4FF01E0FFF7EFFF80BD341A0020B7
:1050E00080B588B000AF414B1B68002B02D03F4B0E
:1050F0001B6876E03E4B00221A603E4B00221A707D
:105100003D4B00221A60012002F044FA00BF6120EA
:1051100002F028FF0346002B14BF00230123DBB25B
:10512000002BF4D10820012102F090FD33484021EA
:1051300005F014F931480021012203F0CDFD0C23C4
:105140003B8200237B820123BB820C23FB82002352
:105150003B8307F110032948194604F06BFC322306
:105160003B7700237B770023BB770123FB7707F195
:105170001C03184602F09EF82048012103F0AAFE05
:105180001E4B00221A821D481021012204F06AFEE3
:1051900000BF184B1B78DBB283F00103DBB2002B9E
:1051A000F7D1164803F036FC3B46184602F048FBA0
:1051B000134B9B6803F4E053002B14BF002301231F
:1051C000DBB2002B06D0BA68094B1B68B2FBF3F3C5
:1051D000DB0006E0BB685A00054B1B68B2FBF3F32B
:1051E000DB0018462037BD4680BD00BF341A0020C2
:1051F000381A00203C1A0020401A0020000C004001
:105200000038024080B582B000AF786039607B68BA
:10521000012B08D13A684FF6FF739A4203D1034835
:105220000221FEF7A7FA0837BD4680BD181A0020F4
:1052300080B500AF01204FF6FF71FFF7E3FF80BD9F
:1052400008ED00E0101A002080B483B000AF0346E0
:10525000FB71084B97F907205209F97901F01F01FA
:10526000012000FA01F143F822100C37BD465DF829
:10527000047B704700E100E080B483B000AF0346D8
:10528000FB71094B97F907205209F97901F01F01C9
:10529000012000FA01F1603243F822100C37BD46BC
:1052A0005DF8047B704700BF00E100E080B483B08C
:1052B00000AF03463960FB7197F90730002B0BDA1A
:1052C0000D49FB7903F00F03043B3A68D2B2120197
:1052D000D2B20B441A7609E0084997F907303A68C8
:1052E000D2B21201D2B20B4483F800230C37BD4670
:1052F0005DF8047B704700BF00ED00E000E100E0D6
:1053000080B582B000AF144B1B7883F00103DBB291
:10531000002B00D01CE007F0B7F8C7E90001D7E97F
:10532000000106F0EDFF07F0AFF80C4BD3E90023C6
:10533000904271EB030CACBF00230123DBB2002BC6
:1053400000D005E0064B064A526842F080525A608F
:105350000837BD4680BD00BF3C00002080BA002059
:1053600000ED00E080B582B000AF78607B68B3F1FB
:10537000807F01D301230EE0094B7A6822F07F423F
:10538000013A5A604FF0FF300F21FFF78FFF044BB7
:1053900000229A60002318460837BD4680BD00BF32
:1053A00010E000E080B400AF044B03221A60002339
:1053B0001846BD465DF8047B704700BF10E000E072
:1053C00080B400AF044B00221A6000231846BD468B
:1053D0005DF8047B704700BF10E000E0B0B500AF9F
:1053E0000F4B1B68DB0818464FF000010D4BD3E94B
:1053F000002302FB01F500FB03F42C44A0FB022375
:10540000E1180B4610461946074A4FF0000309F011
:1054100083FD02460B4613461846FFF7A3FFB0BDB7
:10542000500000203000002040420F00B0B500AF17
:10543000104B1B68DB0818464FF000010E4BD3E9F8
:10544000002302FB01F500FB03F42C44A0FB022324
:10545000E1180B4610461946084A4FF0000309F0C0
:105460005BFD02460B4613461846FFF77BFFFFF72E
:1054700099FFB0BD500000203000002040420F00D6
:1054800080B500AFFFF79CFF80BD00BF80B483B044
:1054900000AFC7E900010549D7E90023C1E90023AE
:1054A0000C37BD465DF8047B704700BF300000201C
:1054B00080B500AF0948012104F05CFD3720FFF7FB
:1054C000DBFE074BD3E90001064A4FF00003121838
:1054D00043EB01030249C1E9002380BD00140040F1
:1054E000481A00208096980080B588B000AF00234D
:1054F000FB772020012102F0A9FB2020002102F0EF
:105500003BFC3B46184602F09BF91E4803F082FA2A
:105510007A68BB68B2FBF3F3012B02D90223FB7755
:1055200001E00123FB774EF660237B61BB68FA7FC5
:1055300002FB03F2144BA3FB0213DB0C9BB2013BF7
:105540009BB23B8200237B8200233B830023BB76FC
:1055500007F110030B48194603F03AFB09480121F3
:10556000012204F07FFC2020012100F0E3FA05482D
:10557000012103F0AFFC3720FFF766FE2037BD4660
:1055800080BD00BF00140040819F5E1680B58CB0C6
:1055900000AF0023FB624FF000024FF00003C7E9A9
:1055A0000823EFF31383FB60FB68FB610123BB60FF
:1055B000BB6883F31388264803F0DAFB0346FB62DB
:1055C000244BD3E90023C7E90823FB697B607B6890
:1055D00083F313884FF000024FF00003C7E9042360
:1055E00019A3D3E90023C7E90423FB6A1A464FEA4B
:1055F000E273796902FB01F0396903FB01F10144AF
:105600003869A0FB022319440B46C7E90423C7E904
:105610000423D7E90423104619460F4A4FF000032C
:1056200009F07AFC02460B46C7E90423D7E90801D2
:10563000D7E90423121843EB01031046194630370B
:10564000BD4680BDAFF30080AA21EF090000000035
:1056500000140040481A002040420F0080B400AF00
:1056600005494FF000024FF00003C1E90023BD4699
:105670005DF8047B704700BF481A002080B500AF7A
:10568000FFF784FF02460B461046194680BD00BF57
:1056900080B584B000AFF860B9607A603B60FB68A9
:1056A0003A68DA60FB687A685A60084B1B68591CD4
:1056B000064A1160FA689360F868B96800F008F863
:1056C000FB6818461037BD4680BD00BF501A002049
:1056D00080B582B000AF786039603B681A687B683B
:1056E0001A603B687A681A600A4B1B68002B0CBF73
:1056F00000230123DBB2002B08D00748FBF708FB8F
:105700007B685B6805481946FBF770FA0837BD46A9
:1057100080BD00BF141A0020081301083C130108C3
:1057200080B582B000AF78600348FBF7F1FA7B6880
:1057300018460837BD4680BD6013010880B584B0A7
:1057400000AF78607B68002B01DA002331E07B68D2
:10575000073323F007037B607B68B3F5204F04DD3C
:105760001648FBF7D5FA002323E0154B1B68002BE6
:105770000CBF00230123DBB2002B02D01148FBF742
:10578000C7FA114B1A687B681344B3F5204F04DB4A
:105790000A48FBF7BDFA00230BE00B4B1A680B4BD2
:1057A0001344FB60084B1A687B681A44064B1A6066
:1057B000FB6818461037BD4680BD00BF7413010852
:1057C000141A00208813010854BA0020541A00202B
:1057D00080B400AFBD465DF8047B704780B400AF75
:1057E000034B00221A70BD465DF8047B704700BF72
:1057F0003C00002080B400AF034B01221A70BD466C
:105800005DF8047B704700BF3C00002080B582B08B
:1058100000AF7860044B1B687A681A6200F026F8C3
:105820000837BD4680BD00BF1007002080B500AF1F
:105830000B4B19684FF000024FF00003C1E90A2337
:10584000074B1A68074B1A60074B01221A60044B7A
:105850001B68184606F014FAFFF740FB80BD00BF36
:105860006400002010070020141A002080B584B0C6
:1058700000AF1C4BD3E90023013243F10003194967
:10588000C1E90023184BD3E90023C7E90223D7E974
:10589000022352EA030103D106F0F6FDC7E9020133
:1058A00011494FF000024FF00003C1E900230F4BF4
:1058B0001B687B607B68002B04D1D7E9020106F0EE
:1058C0003FFB7860094B00221A60064BD3E90023A6
:1058D0007968C1E91223786806F0D2F91037BD461D
:1058E00080BD00BF60BA002070BA002068BA0020F6
:1058F00080B400AF044BD3E9002310461946BD46DF
:105900005DF8047B704700BF60BA002080B400AF30
:10591000054B1B68002BD4BF00230123DBB21846C4
:10592000BD465DF8047B7047141A002080B483B034
:1059300000AF786039607B68012B0CD13A684FF674
:10594000FF739A4207D16FF00302054B134423F013
:105950000702044B1A600C37BD465DF8047B7047A4
:1059600058BA00205CBA002080B500AF01204FF685
:10597000FF71FFF7DBFF80BD80B483B000AF7860BC
:105980007B6800221A607B6800225A607B680022D4
:105990009A607B680022DA607B6818460C37BD4647
:1059A0005DF8047B704700BF80B586B000AF7860BB
:1059B00006F0A6F93861386906F088F9F86040F217
:1059C000EB3006F05FF8034601337B6142E07B6811
:1059D0001B68002B2CD07B681A683B699A4227D041
:1059E0007B681B68184606F071F90246FB689A420C
:1059F000ACBF00230123DBB2002B05D07B681B6802
:105A00001846F96806F06EF906E04FF0FF306FF0C7
:105A100000417A6806F09CF97B681B68002B04D073
:105A20007B681A683B699A42EFD17B680022DA6092
:105A30007B683A691A607B68FA685A607B68DB6841
:105A40005A1C7B68DA607B69013B184606F01AF83D
:105A500000237B617B69002BB9D106F0DBF8183796
:105A6000BD4680BD80B586B000AF786006F048F9CD
:105A7000F86000237B617B681A68FB689A4200D05B
:105A80003BE07B68DB685A1E7B68DA607B68DB681A
:105A9000002B00DD31E040F2EB3005F0F3FF034670
:105AA00001333B611DE07B685B6801333B617B68D0
:105AB00000225A607B6800221A60786806F0DEFADD
:105AC00078617B69002B05D07B687A691A607869F8
:105AD00006F022F93B69013B184605F0D3FF00238D
