:020000040800F2
:1000000000000220E14C000811A2000819A200081B
:100010003DA2000845A200084DA200080000000013
:10002000000000000000000000000000519B0008DC
:100030004D4D000800000000659B0008919E0008DF
:100040004D4D00084D4D00084D4D00084D4D000828
:100050004D4D00084D4D0008015700082557000878
:10006000495700086D570008915700084D4D00088A
:10007000F57000084D4D00081D7000084D4D00083A
:10008000AD700008D56F00084D4D00084D4D0008BB
:100090004D4D00084D4D00084D4D0008B557000866
:1000A0004D4D00084D4D000841A000084D4D000881
:1000B0004D4D00084D4D00084D4D00084D4D0008B8
:1000C0004D4D00084D4D00084D4D00084D4D0008A8
:1000D0004D4D0008FD6E0008156F00082D6F0008DB
:1000E000115800084D4D00084D4D00084D4D0008B9
:1000F0004D4D00084D4D00084D4D00084D4D000878
:100100004D4D00084D4D00085D9C00084D4D000808
:10011000456F00085D6F00084D4D00084D4D00080B
:100120004D4D00084D4D00084D4D00084D4D000847
:100130004D4D00084D4D00084D4D00084D4D000837
:100140004D4D00084D4D00084D4D00084D4D000827
:10015000657000084D4D00088D6F0008756F000830
:100160004D4D00084D4D00084D4D00084D4D000807
:100170004D4D00084D4D00084D4D00084D4D0008F7
:0C0180004D4D00084D4D00080000000827
:1001900081F0004102E000BF83F0004330B54FEA38
:1001A00041044FEA430594EA050F08BF90EA020FA5
:1001B0001FBF54EA000C55EA020C7FEA645C7FEA38
:1001C000655C00F0E2804FEA5454D4EB5555B8BF5B
:1001D0006D420CDD2C4480EA020281EA030382EACC
:1001E000000083EA010180EA020281EA0303362D5E
:1001F00088BF30BD11F0004F4FEA01314FF4801C31
:100200004CEA113102D0404261EB410113F0004F42
:100210004FEA03334CEA133302D0524263EB4303F9
:1002200094EA050F00F0A780A4F10104D5F1200E97
:100230000DDB02FA0EFC22FA05F2801841F10001F2
:1002400003FA0EF2801843FA05F359410EE0A5F1C6
:1002500020050EF1200E012A03FA0EFC28BF4CF0F7
:10026000020C43FA05F3C01851EBE37101F00045AD
:1002700007D54FF0000EDCF1000C7EEB00006EEBBA
:100280000101B1F5801F1BD3B1F5001F0CD3490844
:100290005FEA30004FEA3C0C04F101044FEA44529B
:1002A00012F5800F80F09A80BCF1004F08BF5FEA22
:1002B000500C50F1000041EB045141EA050130BD02
:1002C0005FEA4C0C404141EB010111F4801FA4F1A5
:1002D0000104E9D191F0000F04BF01460020B1FAFA
:1002E00081F308BF2033A3F10B03B3F120020CDA32
:1002F0000C3208DD02F1140CC2F10C0201FA0CF010
:1003000021FA02F10CE002F11402D8BFC2F1200C74
:1003100001FA02F120FA0CFCDCBF41EA0C0190402A
:10032000E41AA2BF01EB0451294330BD6FEA040473
:100330001F3C1CDA0C340EDC04F11404C4F120025E
:1003400020FA04F001FA02F340EA030021FA04F370
:1003500045EA030130BDC4F10C04C4F1200220FAC7
:1003600002F001FA04F340EA0300294630BD21FA05
:1003700004F0294630BD94F0000F83F4801306BFCB
:1003800081F480110134013D4EE77FEA645C18BFBF
:100390007FEA655C29D094EA050F08BF90EA020F56
:1003A00005D054EA000C04BF1946104630BD91EA4E
:1003B000030F1EBF0021002030BD5FEA545C05D151
:1003C0004000494128BF41F0004130BD14F5800490
:1003D0003CBF01F5801130BD01F0004545F0FE4104
:1003E00041F470014FF0000030BD7FEA645C1ABF39
:1003F000194610467FEA655C1CBF0B46024650EA70
:10040000013406BF52EA033591EA030F41F400219B
:1004100030BD00BF90F0000F04BF0021704730B521
:100420004FF4806404F132044FF000054FF00001F6
:1004300050E700BF90F0000F04BF0021704730B5B7
:100440004FF4806404F1320410F0004548BF40428C
:100450004FF000013EE700BF42004FEAE2014FEAE1
:1004600031014FEA02701FBF12F07F4393F07F4FBC
:1004700081F06051704792F0000F14BF93F07F4FEE
:10048000704730B54FF4607401F0004521F0004131
:1004900020E700BF50EA010208BF704730B54FF0B7
:1004A00000050AE050EA010208BF704730B511F0BC
:1004B000004502D5404261EB41014FF4806404F1F4
:1004C00032045FEA915C3FF4DCAE4FF003025FEA76
:1004D000DC0C18BF03325FEADC0C18BF033202EBFE
:1004E000DC02C2F1200300FA03FC20FA02F001FA58
:1004F00003FE40EA0E0021FA02F11444C1E600BFF7
:1005000070B54FF0FF0C4CF4E06C1CEA11541DBFA9
:100510001CEA135594EA0C0F95EA0C0F00F0DEF874
:100520002C4481EA030621EA4C5123EA4C5350EA59
:10053000013518BF52EA033541F4801143F48013AA
:1005400038D0A0FB02CE4FF00005E1FB02E506F03B
:100550000042E0FB03E54FF00006E1FB03569CF090
:10056000000F18BF4EF0010EA4F1FF04B6F5007F96
:1005700064F5407404D25FEA4E0E6D4146EB060608
:1005800042EAC62141EA55514FEAC52040EA5E5091
:100590004FEACE2EB4F1FD0C88BFBCF5E06F1ED83B
:1005A000BEF1004F08BF5FEA500E50F1000041EB72
:1005B000045170BD06F0004646EA010140EA02001F
:1005C00081EA0301B4EB5C04C2BFD4EB0C0541EA41
:1005D000045170BD41F480114FF0000E013C00F356
:1005E000AB8014F1360FDEBF002001F0004170BD7A
:1005F000C4F10004203C35DA0C341BDC04F1140493
:10060000C4F1200500FA05F320FA04F001FA05F21E
:1006100040EA020001F0004221F0004110EBD370EB
:1006200021FA04F642EB06015EEA430E08BF20EA17
:10063000D37070BDC4F10C04C4F1200500FA04F3BA
:1006400020FA05F001FA04F240EA020001F000414C
:1006500010EBD37041F100015EEA430E08BF20EABF
:10066000D37070BDC4F1200500FA05F24EEA020E07
:1006700020FA04F301FA05F243EA020321FA04F036
:1006800001F0004121FA04F220EA020000EBD370ED
:100690005EEA430E08BF20EAD37070BD94F0000FED
:1006A0000FD101F00046400041EB010111F4801F21
:1006B00008BF013CF7D041EA060195F0000F18BFD2
:1006C000704703F00046520043EB030313F4801F0E
:1006D00008BF013DF7D043EA0603704794EA0C0FC8
:1006E0000CEA135518BF95EA0C0F0CD050EA4106DE
:1006F00018BF52EA4306D1D181EA030101F000415B
:100700004FF0000070BD50EA410606BF1046194682
:1007100052EA430619D094EA0C0F02D150EA01368E
:1007200013D195EA0C0F05D152EA03361CBF1046CF
:1007300019460AD181EA030101F0004141F0FE416E
:1007400041F470014FF0000070BD41F0FE4141F4F2
:10075000780170BD70B54FF0FF0C4CF4E06C1CEAF2
:1007600011541DBF1CEA135594EA0C0F95EA0C0FA7
:1007700000F0A7F8A4EB050481EA030E52EA033562
:100780004FEA013100F088804FEA03334FF0805583
:1007900045EA131343EA12634FEA022245EA1115B0
:1007A00045EA10654FEA00260EF000419D4208BF61
:1007B000964244F1FD0404F5407402D25B084FEA0E
:1007C0003202B61A65EB03055B084FEA32024FF4BA
:1007D00080104FF4002CB6EB020E75EB030E22BF17
:1007E000B61A754640EA0C005B084FEA3202B6EBD7
:1007F000020E75EB030E22BFB61A754640EA5C0086
:100800005B084FEA3202B6EB020E75EB030E22BF15
:10081000B61A754640EA9C005B084FEA3202B6EB16
:10082000020E75EB030E22BFB61A754640EADC00D5
:1008300055EA060E18D04FEA051545EA16754FEA37
:1008400006164FEAC30343EA52734FEAC2025FEA55
:100850001C1CC0D111F4801F0BD141EA00014FF0E4
:1008600000004FF0004CB6E711F4801F04BF0143B5
:100870000020B4F1FD0C88BFBCF5E06F3FF6AFAED1
:10088000B5EB030C04BFB6EB020C5FEA500C50F161
:10089000000041EB045170BD0EF0004E4EEA1131E4
:1008A00014EB5C04C2BFD4EB0C0541EA045170BDEB
:1008B00041F480114FF0000E013C90E645EA060E2F
:1008C0008DE60CEA135594EA0C0F08BF95EA0C0F5D
:1008D0003FF43BAF94EA0C0F0AD150EA01347FF4A5
:1008E00034AF95EA0C0F7FF425AF104619462CE77C
:1008F00095EA0C0F06D152EA03353FF4FDAE1046DF
:10090000194622E750EA410618BF52EA43067FF42F
:10091000C5AE50EA41047FF40DAF52EA43057FF4BF
:10092000EBAE12E74FF0FF3C06E000BF4FF0010CCA
:1009300002E000BF4FF0010C4DF804CD4FEA410C2E
:100940007FEA6C5C4FEA430C18BF7FEA6C5C1BD0FB
:1009500001B050EA410C0CBF52EA430C91EA030F7C
:1009600002BF90EA020F0020704710F1000F91EAD9
:10097000030F58BF994208BF90422CBFD8176FEAA7
:10098000E37040F0010070474FEA410C7FEA6C5C75
:1009900002D150EA013C07D14FEA430C7FEA6C5C7C
:1009A000D6D152EA033CD3D05DF8040B704700BFA8
:1009B0008446104662468C461946634600E000BFF6
:1009C00001B5FFF7B7FF002848BF10F1000F01BDC8
:1009D0004DF808EDFFF7F4FF0CBF012000205DF893
:1009E00008FB00BF4DF808EDFFF7EAFF34BF012018
:1009F00000205DF808FB00BF4DF808EDFFF7E0FFB1
:100A000094BF012000205DF808FB00BF4DF808ED01
:100A1000FFF7CEFF94BF012000205DF808FB00BF68
:100A20004DF808EDFFF7C4FF34BF012000205DF84A
:100A300008FB00BF4A0011D212F5001211D20DD5E9
:100A40006FF47873B3EB62520ED44FEAC12343F0D4
:100A5000004343EA505323FA02F070474FF000007E
:100A6000704750EA013002D14FF0FF3070474FF02D
:100A70000000704773B96AB9002908BF0028BCBFDD
:100A800000204FF00041C4BF6FF000414FF0FF3035
:100A900000F08CB882B0EC462DE9005000F056F81A
:100AA000DDF804E002B00CBC704700BF4BB942B99E
:100AB000002908BF002802D04FF0FF31084600F09F
:100AC00075B882B0EC462DE9005000F057F8DDF81B
:100AD00004E002B00CBC704738B500220023044685
:100AE0000D46FFF77FFF28B920462946BDE838406C
:100AF00000F00AB8204605F1004100F005F8404238
:100B000061EB410138BD00BF70B500220D4B0446BA
:100B10000D46FFF7F5FCFFF78DFF0646FFF77AFC61
:100B20000022094BFFF7ECFC02460B462046294603
:100B3000FFF732FBFFF77EFF002242EA0004204667
:100B4000314670BD0000F03D0000F0412DE97043DA
:100B5000069E14461D468046894600F029F804FB8F
:100B600001F300FB0533A4FB00451D44B8EB04046E
:100B700069EB0505C6E90045BDE870832DE97043C2
:100B8000069E1446804689461D4600F05DF900FB2E
:100B900005F504FB0153A0FB04451D44B8EB040418
:100BA00069EB0505C6E90045BDE87083704700BFE5
:100BB00000292DE9F00FC0F29F800024002BC0F225
:100BC0009680154606460F46002B3ED18A4257D9DD
:100BD000B2FA82F34BB1C3F1200201FA03F720FA13
:100BE00002F29D40174300FA03F6290CB7FBF1F21D
:100BF000330C01FB127CA8B243EA0C4700FB02F362
:100C0000BB4209D97F1902F1FF3C80F00181BB4250
:100C100040F2FE80023A2F44FF1AB7FBF1F3B6B25E
:100C200001FB137146EA014100FB03F0884208D939
:100C3000491903F1FF3780F0ED80884240F2EA80E5
:100C4000023B43EA0242002303E08B420AD900231D
:100C50001A461046194614B1404261EB4101BDE805
:100C6000F00F7047B3FA83F8B8F1000F40F08480BA
:100C70008B4202D3824200F2DE8000230122E8E7A9
:100C800012B90123B3FBF2F5B5FA85F2002A39D186
:100C90007F1B280C1FFA85FC0123B7FBF0F1320CF7
:100CA00000FB117742EA07470CFB01F2BA4207D971
:100CB0007F1901F1FF3802D2BA4200F2C1804146E9
:100CC000BF1AB7FBF0F2B6B200FB127046EA004062
:100CD0000CFB02FC844507D9401902F1FF3702D210
:100CE000844500F2AB803A4642EA0142B1E7E44370
:100CF000524263EB430364E7404261EB41014FF032
:100D0000FF345BE79540C2F1200327FA03F1280C7A
:100D100026FA03F39740B1FBF0F81F433B0C00FBAE
:100D200018111FFA85FC43EA01410CFB08F38B42C2
:100D300006FA02F608D9491908F1FF3279D28B4236
:100D400077D9A8F102082944C91AB1FBF0F3BFB260
:100D500000FB131147EA01470CFB03F2BA4207D923
:100D60007F1903F1FF3160D2BA425ED9023B2F44B2
:100D7000BF1A43EA084390E7C8F1200203FA08FCCF
:100D800025FA02F343EA0C0C4FEA1C4921FA02F35C
:100D900001FA08F720FA02F2B3FBF9F1174309FB55
:100DA00011333A0C1FFA8CFB42EA03430BFB01FAA6
:100DB0009A4505FA08F008D913EB0C0301F1FF324C
:100DC00035D29A4533D902396344CAEB0303B3FBE6
:100DD000F9F209FB1233BFB247EA03470BFB02F9F2
:100DE000B94508D917EB0C0702F1FF331BD2B945FF
:100DF00019D9023A674442EA0145A5FB0001C9EB53
:100E000007078F424FF000030AD305D02A4620E798
:100E1000624601E73B4614E706FA08F68642F5D239
:100E20006A1E002315E71A46E5E70B46A0E71146C0
:100E3000CBE7904688E7434642460AE7023A53E743
:100E400002392F443CE700BF2DE9F00F1446054658
:100E50000E46002B43D18A4253D9B2FA82F757B1DA
:100E6000C7F1200620FA06F601FA07F302FA07F4A2
:100E70001E4300FA07F5210CB6FBF1F22B0C01FB27
:100E80001267A0B243EA074600FB02F3B34209D956
:100E9000361902F1FF3780F0F680B34240F2F3805A
:100EA000023A2644F61AB6FBF1F3ADB201FB136128
:100EB00045EA014100FB03F0884208D9091903F112
:100EC000FF3680F0E280884240F2DF80023B43EA56
:100ED0000242002310461946BDE8F00F70478B42CE
:100EE0004AD8B3FA83F6002E4DD18B4202D3824208
:100EF00000F2D6800023012210461946BDE8F00F0B
:100F0000704712B90124B4FBF2F4B4FA84F2002A57
:100F10007CD1091B260CA7B20123B1FBF6F02A0CE9
:100F200006FB101142EA014107FB00F28A4207D991
:100F3000091900F1FF3C02D28A4200F2C3806046E8
:100F4000891AB1FBF6F2ADB206FB121145EA014572
:100F500007FB02F7AF4208D92C1902F1FF3180F0EC
:100F60009680A74240F29380023A42EA004210463D
:100F70001946BDE8F00F704700231A46104619467F
:100F8000BDE8F00F7047C6F1200522FA05F4B34022
:100F90001C434FEA144821FA05F301FA06F720FA38
:100FA00005F5B3FBF8FC2F4308FB1C333D0C1FFA7F
:100FB00084FA45EA03430AFB0CF9994502FA06FB59
:100FC00004D91B190CF1FF326DD39446C9EB03030E
:100FD000B3FBF8F508FB1533BFB247EA03470AFB3A
:100FE00005F8B84504D93F1905F1FF3361D31D4613
:100FF00045EA0C4CACFB0B23C8EB07079F424FF0B4
:10100000000549D345D062462B4663E79440C2F1C0
:10101000200321FA03FC260C20FA03F301FA02F55F
:10102000BCFBF6F843EA05010B0C06FB18CCA7B293
:1010300043EA0C4C07FB08F3634500FA02F509D9B3
:101040001CEB040C08F1FF323AD2634538D9A8F101
:101050000208A444C3EB0C0CBCFBF6F389B206FBFC
:1010600013CC41EA0C4107FB03F28A4207D9091964
:1010700003F1FF3022D28A4220D9023B2144891A4F
:1010800043EA084349E73A460CE733461FE70A4676
:101090006BE7B0409042B6D20CF1FF32002319E763
:1010A0003346324616E799458FD9ACF1020C2344FA
:1010B0008CE7B8459BD9023D274499E70346DEE714
:1010C0009046C7E7023821443AE700BF80B483B0B6
:1010D00000AF78600C37BD465DF8047B704700BFF9
:1010E00080B582B000AF786039607B680433184601
:1010F00006493A68002302F0CFFC7B68044A1A6074
:101100007B6818460837BD4680BD00BF041000202C
:1011100078C6000880B582B000AF78607B68094A65
:101120001A607B680433184602F0FEFC0023002B93
:1011300002D0786802F0FAFE7B6818460837BD4690
:1011400080BD00BF78C6000880B582B000AF78606F
:101150007868FFF7DFFF786802F0E8FE7B681846E2
:101160000837BD4680BD00BF80B582B000AF786053
:101170007B6818460549FFF7B3FF7B68044A1A608D
:101180007B6818460837BD4680BD00BF8CBC000890
:1011900060C6000880B582B000AF78600A480121BF
:1011A0000122002304F090F80848012101220023C5
:1011B00004F08AF8064801210122002304F084F893
:1011C0000837BD4680BD00BF5800002074000020D5
:1011D0009000002080B582B000AF78607B68084A3C
:1011E0001A607B681846FFF795FF0023002B02D09A
:1011F000786802F09BFE7B6818460837BD4680BDC4
:1012000060C6000880B582B000AF78607868FFF7EC
:10121000E1FF786802F08AFE7B6818460837BD4611
:1012200080BD00BF80B582B000AF786039607B6858
:10123000012B18D13A684FF6FF739A4213D10B482D
:10124000352104F00DF80A48362104F009F8094860
:10125000372104F005F80848FFF786FF06480749DC
:10126000074A0AF00DFD0837BD4680BD5800002032
:101270007400002090000020AC000020D511000870
:101280004C11002080B500AF01204FF6FF71FFF731
:10129000C9FF80BD80B582B000AF78607B6818461A
:1012A0000549FFF71DFF7B68044A1A607B681846F2
:1012B0000837BD4680BD00BF98BC000890C6000836
:1012C00080B582B000AF786012481349002204F064
:1012D0004BFF10480021114A05F0B8F90D480121D3
:1012E000002205F0B3F90E480E4904F021FB0E4828
:1012F0004FF4E13105F022FF0C484FF4964105F020
:101300001DFF0A480321022205F036FF0837BD46BB
:1013100080BD00BFC000002040420F00400D030010
:10132000DC000020A0860100F8000020140100204D
:1013300080B582B000AF78607B68084A1A607B682D
:101340001846FFF7E7FE0023002B02D0786802F072
:10135000EDFD7B6818460837BD4680BD90C6000885
:1013600080B582B000AF78607868FFF7E1FF7868F9
:1013700002F0DCFD7B6818460837BD4680BD00BF23
:1013800080B584B002AF786039607B68012B30D1C2
:101390003A684FF6FF739A422BD11F2300931648E9
:1013A00002211D221E2304F09FFE14480121162253
:1013B000172304F077FA4FF0FF3300934FF0FF3319
:1013C00001930F4804210022012305F089FC1E230C
:1013D00000933B2301930B4803212A222B2305F082
:1013E0007FFC0948FFF756FF07480849084A0AF0FA
:1013F00047FC0837BD4680BDC0000020DC0000204F
:10140000F8000020140100203001002031130008F2
:101410004C11002080B500AF01204FF6FF71FFF79F
:10142000AFFF80BD80B485B000AF786039607B6865
:1014300001221A757B68DB68FB60FB681A783B68E1
:101440001A707B6800221A757B68D3E90823013281
:1014500043F100037968C1E908231437BD465DF8FC
:10146000047B704780B483B000AF78600C37BD4612
:101470005DF8047B704700BF80B483B000AF786034
:101480000B46FB7097F903307A68C3F1200362FAC8
:1014900003F318460C37BD465DF8047B704700BF68
:1014A00080B483B000AF78607B681B0C7A685340CF
:1014B0007B607B680C4A02FB03F37B607B685B0B01
:1014C0007A6853407B607B68084A02FB03F37B60C9
:1014D0007B681B0C7A6853407B607B6818460C372E
:1014E000BD465DF8047B70476BCAEB8535AEB2C272
:1014F00080B58EB000AFF860B9607A60BB68002B31
:1015000000DA03339B10BB627B683B633D4B7B621D
:101510003D4B3B62BB6A9B00FA681344FB61BB6AAC
:101520005B427B6327E07B6B9B00FA6913441B687B
:10153000BB61BB697A6A02FB03F3BB61B8690F2127
:10154000FFF79AFFB861BB693A6A02FB03F3BB611C
:101550003A6BBB6953403B63386B0D21FFF78CFF3F
:1015600038633A6B13469B001A44284B13443B6381
:101570007B6B01337B637B6B002BD4D1BB6A9B00FD
:10158000FA6813447B610023FB62BB6803F003032A
:10159000022B0BD0032B02D0012B0ED025E07B6950
:1015A00002331B781B04FA6A5340FB627B690133E8
:1015B0001B781B02FA6A5340FB627B691B78FA6A4C
:1015C0005340FB62FB6A7A6A02FB03F3FB62F86A30
:1015D0000F21FFF751FFF862FB6A3A6A02FB03F33F
:1015E000FB623A6BFB6A53403B63BB683A6B534008
:1015F0003B63386BFFF754FF38633B6B1846383753
:10160000BD4680BD512D9ECC9335871B646B54E63F
:1016100080B582B000AF78607B6818460649FFF756
:101620005FFD7B68054A1A607B6800221A757B683B
:1016300018460837BD4680BDA4BC0008A8C60008EF
:1016400080B582B000AF78600B48012101220123F0
:1016500003F03AFE094801210122012303F034FE80
:10166000074801210122012303F02EFE7B6800229E
:101670001A750837BD4680BD5C0100207801002046
:101680009401002080B582B000AF78600B46FB70FB
:101690001F4809F087F87B681B7D002B02D04FF0B4
:1016A000FF3331E07B6801221A75FB78012B10D0E3
:1016B000022B1BD0002B26D11648012103F00AFF74
:1016C0001548012103F006FF1448002103F002FF32
:1016D00019E01248012103F0FDFE0F48012103F03B
:1016E000F9FE0C48002103F0F5FE0CE00B48012147
:1016F00003F0F0FE0748012103F0ECFE064800214C
:1017000003F0E8FE00BF002318460837BD4680BD41
:10171000B001002078010020940100205C0100202D
:1017200080B582B000AF78600A48012103F0D2FE94
:101730000948012103F0CEFE0848012103F0CAFE4A
:101740007B6800221A75064809F08AF80837BD46FA
:1017500080BD00BF5C0100207801002094010020C2
:10176000B001002080B582B000AF78607B68084A85
:101770001A607B681846FFF7CDFC0023002B02D0CF
:10178000786802F0D3FB7B6818460837BD4680BDF9
:10179000A8C6000880B582B000AF78607868FFF70F
:1017A000E1FF786802F0C2FB7B6818460837BD4647
:1017B00080BD00BF80B582B000AF786039607B68C3
:1017C000012B1BD13A684FF6FF739A4216D10D4890
:1017D000FFF71EFF0B480C490C4A0AF051FA0C485F
:1017E000262103F03DFD0B48272103F039FD0A486F
:1017F0001C2103F035FD094808F0BCFF0837BD4641
:1018000080BD00BF44010020651700084C11002076
:101810005C0100207801002094010020B00100202C
:1018200080B500AF01204FF6FF71FFF7C3FF80BD09
:1018300080B485B000AF78600B46FB700023FB736B
:101840000023BB7321E0BB7B7A6813441B787B7356
:1018500000233B7313E0FB7B5B00FB737A7BFB7B1A
:10186000534003F08003002B03D0FB7B83F009037C
:10187000FB737B7B5B007B733B7B01333B733B7B6D
:10188000072BE8D9BB7B0133BB73BA7BFB789A4249
:10189000D9D3FB7B5B00DBB243F00103DBB2DBB2ED
:1018A00018461437BD465DF8047B704780B584B098
:1018B00000AFF860B9607A60FB681846B9687A686A
:1018C0004FF4FA6309F01AF8FB68054A1A60FB68DE
:1018D000002283F85020FB6818461037BD4680BDB3
:1018E000C0C6000890B58DB002AFF8607A600A46B5
:1018F000FA72BB72FB7A3B7507F114035C1C7B68C0
:10190000184601F0E1FE0346236007F11403184670
:101910000521FFF78DFF03467B7607F114031F486F
:101920001946062204F022FFF861FB69052BCCBFA3
:1019300000230123DBB2002B02D04FF0FF3328E05D
:101940004FF0FF337B62FF23FB7600233B621CE0FA
:1019500007F113030122009210481149012204F0FB
:101960009BFFFB7CFF2B0DD0FB7C7B62BB6B002BBA
:101970000ED004230093094809490422BB6B04F0EC
:101980008BFF05E03B6A01333B623B6A1F2BDFDDC7
:101990007B6A18462C37BD4690BD00BFC0000020B2
:1019A000D0C6000880B590B002AF7860FF237B639B
:1019B00000233B6323E09F480221FFF763FE0023DF
:1019C00000937868402100229523FFF78BFF78630E
:1019D0009848FFF7A5FE9848796B01F0DFFE02F00A
:1019E00083FC964A4FF00003121843EB01031046A4
:1019F0001946002209F0D2F83B6B01333B633B6B85
:101A0000092B02DC7B6B012BD5D17B6B012B02D028
:101A10004FF0FF330AE18A48796B01F0BFFEFF23E4
:101A20007B630023FB6211E082480221FFF72AFE5C
:101A30000023009378687B210122FF23FFF752FFE8
:101A40007C48FFF76DFEFB6A0133FB62FB6A092BE2
:101A500002DC7B6B012BE7D1FF237B630023BB629E
:101A600027E074480221FFF70DFE07F114030093ED
:101A7000786848214FF4D5728723FFF733FF7863E6
:101A80006C48FFF74DFE7B696E48796B1A4601F092
:101A900085FE02F029FC694A4FF00003121843EB5F
:101AA000010310461946002209F078F8BB6A013399
:101AB000BB62BB6A092B02DC7B6B012BD1D1FF23FC
:101AC0007B6300237B6226E05A480221FFF7DAFDA0
:101AD00007F11803009378687A210022FF23FFF7AB
:101AE00001FF78635348FFF71BFEBB695648796BCB
:101AF0001A4601F053FE02F0F7FB504A4FF0000384
:101B0000121843EB010310461946002209F046F86B
:101B10007B6A01337B627B6A632B02DC7B6B012B6C
:101B2000D2D1FF237B6300233B623BE0414802218B
:101B3000FFF7A8FD00230093786877210022652332
:101B4000FFF7D0FE786307F11003009378686921EE
:101B50003E4A7723FFF7C6FE78633D484FF0FF32D9
:101B60006FF0004301F012FF3248FFF7D9FD38480B
:101B70003849082204F0FAFD3B693748796B1A4668
:101B800001F00CFE02F0B0FB344A4FF000031218D3
:101B900043EB010310461946002208F0FFFF3B6AA1
:101BA00001333B623B6AB3F57A7F02DA7B6B002B31
:101BB000BCD17B6B002B02D06FF0010336E0FF231A
:101BC0007B630023FB6126E01A480221FFF75AFDE0
:101BD00007F10C03009378687A210022FF23FFF7B6
:101BE00081FE78631348FFF79BFDFB681648796B0D
:101BF0001A4601F0D3FD02F077FB104A4FF00003C4
:101C0000121843EB010310461946002208F0C6FFE4
:101C1000FB690133FB61FB69632B02DC7B6B002BEF
:101C2000D2D17B68012283F8502000231846383730
:101C3000BD4680BD44010020B0BC000840420F00FA
:101C4000C0BC0008D0BC0008E8BC0008C0FF805140
:101C5000C0000020D0C6000800BD00088096980093
:101C600080B58AB002AFF860B9607A604FF0FF3398
:101C7000FB6136480221FFF705FD0023BB6115E03B
:101C800000230093F8685121BA68FF23FFF72AFE6A
:101C90000346002B14BF00230123DBB2002B02D02C
:101CA0000023FB6105E0BB690133BB61BB69092B04
:101CB000E6DDFB69B3F1FF3F08D1254801F06EFD79
:101CC0002248FFF72DFD4FF0FF333BE04FF0FF338D
:101CD000FB6100237B6111E007F1130301220092F5
:101CE0001C481D49012204F0D7FDFB7CFE2B02D1CC
:101CF0000023FB6106E07B6901337B617B69B3F5FF
:101D00007A7FE9DBFB69B3F1FF3F08D1134801F0AB
:101D100045FD0E48FFF704FD4FF0FF3312E04FF48E
:101D2000007300930B480C494FF400727B6804F079
:101D3000B3FD08480849022204F018FD0348FFF7E4
:101D4000EFFC002318462037BD4680BD440100202B
:101D500014BD0008C0000020D0C6000830BD000837
:101D600080B584B000AF786002F0BEFA22A3D3E958
:101D70000023121843EB010310461946002208F015
:101D80000DFF7868FFF70EFE03461748194601F06D
:101D900005FD1648FF214FF4006202F07BF87868D9
:101DA0000021124AFFF75CFF03461148194601F073
:101DB000F5FC0023FB6010E00C4AFB6813441B7821
:101DC0001A460A49FB680B441B780A4811461A4612
:101DD00001F0E4FCFB680133FB60FB68B3F5007FB6
:101DE000EADB1037BD4680BD88BD00081802002020
:101DF00094BD0008A8BD000800CA9A3B000000007E
:101E000080B582B000AF78607B68084A1A607B6852
:101E1000184608F0E1FD0023002B02D0786802F09C
:101E200085F87B6818460837BD4680BDC0C60008E7
:101E300080B582B000AF78607868FFF7E1FF78681E
:101E400002F074F87B6818460837BD4680BD00BFB5
:101E500080B582B000AF786039607B68012B0ED10D
:101E60003A684FF6FF739A4209D106480649642240
:101E7000FFF71CFD03480549054A09F001FF083733
:101E8000BD4680BDC0010020B0BD0008011E000895
:101E90004C11002080B500AF01204FF6FF71FFF715
:101EA000D7FF80BD80B582B000AF78607B681846F0
:101EB000064964224FF4FA6308F020FD7B68044A67
:101EC0001A607B6818460837BD4680BDC4BD00084F
:101ED000D8C800080000000080B59AB002AF786052
:101EE0000023FB6579681FA3D3E90023CDE9002314
:101EF00008464FF000024FF0000302F0D7F8FB6DE8
:101F0000002B10DC07F140037868194600F074F8E4
:101F100007F14003124819461A2205F077FBFB6DC2
:101F20000133FB6517E0FB6D012B09D107F10C03B1
:101F30007868194600F01CF8FB6D0133FB650AE078
:101F4000FB6D012B07DD07F130037868194600F0BF
:101F500097F80023FB657B68184602F0BDF8CEE7D2
:101F6000F8000020AA21EF0900000000AFF3008074
:101F700090B583B000AF786039607B6850331C48FF
:101F8000194600F005F93B68A8221A703B68591CF5
:101F90007B68D3E92023D3B20B703B680233002265
:101FA0001A703B68033300221A703B680433114AED
:101FB00012881A803B689A1D7B6850331046194678
:101FC000182201F089FF3B6803F11E047868396824
:101FD0001E2200F0CBF803462360064B1B8801331A
:101FE0009AB2044B1A80222318460C37BD4690BD86
:101FF000F00A0020C00A002090B583B000AF7860DE
:1020000039607B6888331C48194600F0F7F83B6854
:10201000A4221A703B68591C7B68D3E92623D3B2EB
:102020000B703B68023300221A703B6803330022B6
:102030001A703B680433114A12881A803B689A1D53
:102040007B68883310461946102201F045FF3B6833
:1020500003F1160478683968162200F087F8034601
:102060002360064B1B8801339AB2044B1A801A2353
:1020700018460C37BD4690BD180C0020C20A00203F
:1020800090B585B000AF786039607B68A033324886
:10209000194600F0DFF87B68A53330481946FFF792
:1020A000C1F97B68A6332E48194600F0F7F83B6863
:1020B000A2221A7002F018F902460B461046194681
:1020C000284A4FF00003FEF7D5FC02460B46C7E94D
:1020D00002233B6801333A7A1A703B6802330022CC
:1020E0001A703B68033300221A703B6804331E4A9F
:1020F00012881A803B6806337A6892F8A520D1B21C
:102100007A6892F8A620D201D2B20A43D2B21A70EB
:102110003B68073300221A803B6803F109027B68A1
:10212000A03310461946052201F0D6FE3B6803F1A4
:102130000E04786839680E2200F018F80346236010
:10214000094B1B8801339AB2074B1A80102318469B
:102150001437BD4690BD00BFE00C0020980E002053
:10216000180F002040420F00C40A002080B584B040
:1021700000AFF860B9607A60B868796841F23732C8
:10218000FFF7B6F9034618461037BD4680BD00BFBD
:10219000F0B484B000AF786039607B68012283F8C6
:1021A000B8207B68D3F8B030FB603A68FB6803F175
:1021B000300411461846D0F800C046688568C068EB
:1021C000C1F800C04E608D60C86010331032A34269
:1021D000EFD119685B68116053607B68002283F857
:1021E000B8207B68D3E93223013243F100037968D8
:1021F000C1E932231037BD46F0BC7047B0B485B09A
:1022000000AF786039607B68012283F858207B68D2
:102210001B6DFB603B68FA68106851689568D4686C
:10222000186059609D60DC601069516918615961DE
:102230007B68002283F858207B68D3E91A23013297
:1022400043F100037968C1E91A231437BD46B0BCD5
:10225000704700BF80B485B000AF786039607B689C
:10226000012283F820207B689B69FB603B68FA6849
:102270001168196012791A717B68002283F8202096
:102280007B68D3E90C23013243F100037968C1E98B
:102290000C231437BD465DF8047B704780B485B0CD
:1022A00000AF786039607B6801221A757B68DB6853
:1022B000FB60FB681A783B681A707B6800221A750D
:1022C0007B68D3E90823013243F100037968C1E94F
:1022D00008231437BD465DF8047B704780B582B093
:1022E00000AF78607B68084A1A607B68184608F07F
:1022F00073FB0023002B02D0786801F017FE7B6887
:1023000018460837BD4680BDD8C8000880B582B0E1
:1023100000AF78607868FFF7E1FF786801F006FEAB
:102320007B6818460837BD4680BD00BF80B582B0C7
:1023300000AF786039607B68012B0CD13A684FF6AA
:10234000FF739A4207D10548FFF7ACFD03480449E3
:10235000044A09F095FC0837BD4680BD180A0020E4
:10236000DD2200084C11002080B500AF01204FF69F
:10237000FF71FFF7DBFF80BD80B582B000AF7860F2
:102380007B680A4A1A600A4801F04EFA7B680433F7
:10239000184601F0C9FB0023002B02D0786801F039
:1023A000C5FD7B6818460837BD4680BD48CA000891
:1023B000D4BD000880B582B000AF78607868FFF7C0
:1023C000DBFF786801F0B2FD7B6818460837BD4630
:1023D00080BD00BF80B582B000AF78607B680A4ADC
:1023E0001A600A4801F020FA7B680433184601F0AD
:1023F0009BFB0023002B02D0786801F097FD7B68DF
:1024000018460837BD4680BDB0CA0008E4BD0008C4
:1024100080B582B000AF78607868FFF7DBFF78683E
:1024200001F084FD7B6818460837BD4680BD00BFBB
:1024300080B582B000AF78607B68064A1A600023DE
:10244000002B02D0786801F071FD7B6818460837D0
:10245000BD4680BD30CA000880B582B000AF78604C
:102460007868FFF7E5FF786801F060FD7B68184643
:102470000837BD4680BD00BF80B584B000AFF860AE
:10248000B9607A603B60044801F0CEF90023184639
:102490001037BD4680BD00BFF8BD000880B584B0D0
:1024A00000AFF860B9607A60FB681846B9683822F6
:1024B0007B6801F085FFFB68034A1A60FB681846D9
:1024C0001037BD4680BD00BF20CA000880B483B06D
:1024D00000AF78607B68044A1A607B6818460C3746
:1024E000BD465DF8047B704730CA000880B582B0F5
:1024F00000AF78607B681846FFF7E8FF7B68144AF6
:102500001A607B681A1D7B68C3F8AC207B6803F1F6
:102510003C027B68C3F8B0207B6803F174027B68DF
:10252000C3F8B4207B68002283F8B82079684FF0A4
:1025300000024FF00003C1E932237B68D3E9322364
:102540007968C1E930237B6818460837BD4680BDED
:1025500008CA000880B584B000AFF860B9607A603E
:10256000FB681846B96818227B6801F029FFFB68F0
:10257000034A1A60FB6818461037BD4680BD00BF8D
:10258000F8C9000880B582B000AF78607B68184653
:10259000FFF79CFF7B68134A1A607B681A1D7B68F3
:1025A000DA647B6803F11C027B681A657B6803F1BF
:1025B00034027B685A657B68002283F8582079686A
:1025C0004FF000024FF00003C1E91A237B68D3E902
:1025D0001A237968C1E918237B6818460837BD4675
:1025E00080BD00BFE0C9000880B584B000AFF860CE
:1025F000B9607A60FB681846B96805227B6801F00B
:10260000DFFEFB68034A1A60FB6818461037BD46B8
:1026100080BD00BFD0C9000880B582B000AF78602F
:102620007B681846FFF752FF7B68134A1A607B6885
:102630001A1D7B685A617B6803F109027B689A6105
:102640007B6803F10E027B68DA617B68002283F805
:10265000202079684FF000024FF00003C1E90C23FD
:102660007B68D3E90C237968C1E90A237B681846A3
:102670000837BD4680BD00BFB8C9000880B584B02A
:1026800000AFF860B9607A60FB681846B968072245
:102690007B6801F095FEFB68034A1A60FB681846E8
:1026A0001037BD4680BD00BFA8C9000880B582B004
:1026B00000AF78607B681846FFF708FF7B68134A15
:1026C0001A607B681A1D7B68DA617B6803F10B0274
:1026D0007B681A627B6803F112027B685A627B682E
:1026E000002283F8282079684FF000024FF00003A1
:1026F000C1E90E237B68D3E90E237968C1E90C2375
:102700007B6818460837BD4680BD00BF90C90008E9
:1027100080B584B000AFF860B9607A60FB68184695
:10272000B96806227B6801F04BFEFB68034A1A6019
:10273000FB6818461037BD4680BD00BF80C9000841
:1027400080B582B000AF78607B681846FFF7BEFEA8
:102750007B68134A1A607B681A1D7B689A617B68E4
:1027600003F10A027B68DA617B6803F110027B687F
:102770001A627B68002283F8242079684FF00002F7
:102780004FF00003C1E90C237B68D3E90C2379687F
:10279000C1E90A237B6818460837BD4680BD00BFE3
:1027A00068C9000880B584B000AFF860B9607A608D
:1027B000FB681846B96801227B6801F001FEFB68DE
:1027C000034A1A60FB6818461037BD4680BD00BF3B
:1027D00058C9000880B582B000AF78607B681846A1
:1027E000FFF774FE7B68114A1A607B681A1D7B68CC
:1027F0009A607B685A1D7B68DA607B689A1D7B68EB
:102800001A617B6800221A7579684FF000024FF058
:102810000003C1E908237B68D3E908237968C1E98B
:1028200006237B6818460837BD4680BD40C90008AE
:1028300080B584B000AFF860B9607A60FB68184674
:10284000B96801227B6801F0BBFDFB68034A1A608E
:10285000FB6818461037BD4680BD00BF30C9000870
:1028600080B582B000AF78607B681846FFF72EFE17
:102870007B68114A1A607B681A1D7B689A607B68C6
:102880005A1D7B68DA607B689A1D7B681A617B68D9
:1028900000221A7579684FF000024FF00003C1E979
:1028A00008237B68D3E908237968C1E906237B689C
:1028B00018460837BD4680BD18C9000880B584B0E9
:1028C00000AFF860B9607A60FB681846B968022208
:1028D0007B6801F075FDFB68034A1A60FB681846C7
:1028E0001037BD4680BD00BF08C9000880B582B062
:1028F00000AF78607B681846FFF7E8FD7B68124AF6
:102900001A607B681A1D7B68DA607B689A1D7B6899
:102910001A617B6803F108027B685A617B680022B8
:102920001A7679684FF000024FF00003C1E90A23DC
:102930007B68D3E90A237968C1E908237B681846D4
:102940000837BD4680BD00BFF0C8000880B582B022
:1029500000AF78607B68084A1A607B681846FFF70A
:1029600067FD0023002B02D0786801F0DFFA7B6856
:1029700018460837BD4680BDF0C8000880B582B053
:1029800000AF78607868FFF7E1FF786801F0CEFA71
:102990007B6818460837BD4680BD00BF80B582B051
:1029A00000AF78607B68084A1A607B681846FFF7BA
:1029B0003FFD0023002B02D0786801F0B7FA7B6856
:1029C00018460837BD4680BD18C9000880B582B0DA
:1029D00000AF78607868FFF7E1FF786801F0A6FA49
:1029E0007B6818460837BD4680BD00BF80B582B001
:1029F00000AF78607B68084A1A607B681846FFF76A
:102A000017FD0023002B02D0786801F08FFA7B6855
:102A100018460837BD4680BD40C9000880B582B061
:102A200000AF78607868FFF7E1FF786801F07EFA20
:102A30007B6818460837BD4680BD00BF80B582B0B0
:102A400000AF78607B68084A1A607B681846FFF719
:102A5000EFFC0023002B02D0786801F067FA7B6856
:102A600018460837BD4680BD68C9000880B582B0E9
:102A700000AF78607868FFF7E1FF786801F056FAF8
:102A80007B6818460837BD4680BD00BF80B582B060
:102A900000AF78607B68084A1A607B681846FFF7C9
:102AA000C7FC0023002B02D0786801F03FFA7B6856
:102AB00018460837BD4680BD90C9000880B582B071
:102AC00000AF78607868FFF7E1FF786801F02EFAD0
:102AD0007B6818460837BD4680BD00BF80B582B010
:102AE00000AF78607B68084A1A607B681846FFF779
:102AF0009FFC0023002B02D0786801F017FA7B6856
:102B000018460837BD4680BDB8C9000880B582B0F8
:102B100000AF78607868FFF7E1FF786801F006FAA7
:102B20007B6818460837BD4680BD00BF80B582B0BF
:102B300000AF78607B68084A1A607B681846FFF728
:102B400077FC0023002B02D0786801F0EFF97B6856
:102B500018460837BD4680BDE0C9000880B582B080
:102B600000AF78607868FFF7E1FF786801F0DEF980
:102B70007B6818460837BD4680BD00BF80B582B06F
:102B800000AF78607B68084A1A607B681846FFF7D8
:102B90004FFC0023002B02D0786801F0C7F97B6856
:102BA00018460837BD4680BD08CA000880B582B007
:102BB00000AF78607868FFF7E1FF786801F0B6F958
:102BC0007B6818460837BD4680BD00BF80B584B01D
:102BD00002AF786039607B68012B40F006813A686B
:102BE0004FF6FF739A4240F0008181484FF0FF3169
:102BF000804AFFF753FC7E487F49804A09F040F83D
:102C00007F48FFF773FC7E487E497C4A09F038F81C
:102C1000002300937C487649794A7C4B01F090F977
:102C200079487B49754A09F02BF87A484FF0FF3113
:102C3000794AFFF78FFC77487849704A09F020F805
:102C40007748FFF79FFC764876496C4A09F018F8F8
:102C50000023009374486F49714A6C4B01F070F97E
:102C600071486B49654A09F00BF870484FF0FF3125
:102C70006F4AFFF7B9FC6D486E49604A09F000F8E9
:102C80006D48FFF7C9FC6C486C495C4A08F0F8FFD6
:102C9000002300936A486549674A5C4B01F050F98C
:102CA00067485B49554A08F0EBFF66484FF0FF3133
:102CB000654AFFF7E3FC63486449504A08F0E0FFC7
:102CC0006348FFF7F3FC624862494C4A08F0D8FFBA
:102CD0000023009360485B495D4A4C4B01F030F99A
:102CE0005D484B49454A08F0CBFF5C484FF0FF3147
:102CF0005B4AFFF70DFD59485A49404A08F0C0FFAA
:102D00005948FFF71DFD584858493C4A08F0B8FF9C
:102D10000023009356485149534A3C4B01F010F9A7
:102D200053483B49354A08F0ABFF52484FF0FF315A
:102D3000514AFFF737FD4F485049304A08F0A0FF8D
:102D40004F48FFF747FD4E484E492C4A08F098FF80
:102D5000002300934C484749494A2C4B01F0F0F8B6
:102D600049482B49254A08F08BFF48484FF0FF316E
:102D7000474AFFF75DFD45484649204A08F080FF75
:102D80004548FFF76DFD444844491C4A08F078FF68
:102D90000023009342483D493F4A1C4B01F0D0F8C4
:102DA0003F481B49154A08F06BFF3E484FF0FF3182
:102DB0003D4AFFF783FD3B483C49104A08F060FF5D
:102DC0003B48FFF793FD3A483A490C4A08F058FF50
:102DD0000023009338483349354A0C4B01F0B0F8D2
:102DE00035480B49054A08F04BFF0837BD4680BD02
:102DF000C80A002080BE0008E13200084C11002003
:102E0000F00A00207D2B0008C00B00208CBE0008BB
:102E1000D5230008F00B0020A0BE000851320008A6
:102E2000180C00202D2B0008880C0020B80C002066
:102E3000B4BE0008C1310008E00C0020DD2A000803
:102E4000180D0020480D0020C4BE000831310008D4
:102E5000700D00208D2A0008B00D0020E00D00202C
:102E6000D0BE0008A1300008080E00203D2A00084E
:102E7000400E0020700E0020E4BE00081130000853
:102E8000980E0020ED290008C00E0020F00E002052
:102E9000F4BE0008812F0008180F00209D290008AB
:102EA000400F0020700F002000BF0008F12E000826
:102EB000980F00204D290008C80F002080B584B06D
:102EC00000AFF860B9607A603B607B68022B04D980
:102ED000064800F0A9FC002304E0F868396800F017
:102EE0002DFA012318461037BD4680BD10BF0008DB
:102EF00080B582B000AF78607B680A4A1A600A48E1
:102F000000F092FC7B681846FFF736FA0023002B8E
:102F100002D0786801F00AF87B6818460837BD4689
:102F200080BD00BF08C9000824BF000880B582B07A
:102F300000AF78607868FFF7DBFF786800F0F6FF95
:102F40007B6818460837BD4680BD00BF80B584B099
:102F500000AFF860B9607A603B607B68012B04D9F0
:102F6000064800F061FC002304E0F868396800F0CE
:102F700017FA012318461037BD4680BD10BF000860
:102F800080B582B000AF78607B680A4A1A600A4850
:102F900000F04AFC7B681846FFF7EEF90023002B8F
:102FA00002D0786800F0C2FF7B6818460837BD463B
:102FB00080BD00BF30C9000824BF000880B582B0C2
:102FC00000AF78607868FFF7DBFF786800F0AEFF4D
:102FD0007B6818460837BD4680BD00BF80B584B009
:102FE00000AFF860B9607A603B607B68012B04D960
:102FF000064800F019FC002304E0F868396800F086
:1030000001FA012318461037BD4680BD10BF0008E5
:1030100080B582B000AF78607B680A4A1A600A48BF
:1030200000F002FC7B681846FFF7A6F90023002B8E
:1030300002D0786800F07AFF7B6818460837BD46F2
:1030400080BD00BF58C9000824BF000880B582B009
:1030500000AF78607868FFF7DBFF786800F066FF04
:103060007B6818460837BD4680BD00BF80B584B078
:1030700000AFF860B9607A603B607B68062B04D9CA
:10308000064800F0D1FB002304E0F868396800F03E
:10309000EBF9012318461037BD4680BD10BF00086C
:1030A00080B582B000AF78607B680A4A1A600A482F
:1030B00000F0BAFB7B681846FFF75EF90023002B8F
:1030C00002D0786800F032FF7B6818460837BD46AA
:1030D00080BD00BF80C9000824BF000880B582B051
:1030E00000AF78607868FFF7DBFF786800F01EFFBC
:1030F0007B6818460837BD4680BD00BF80B584B0E8
:1031000000AFF860B9607A603B607B68072B04D938
:10311000064800F089FB002304E0F868396800F0F5
:10312000D7F9012318461037BD4680BD10BF0008EF
:1031300080B582B000AF78607B680A4A1A600A489E
:1031400000F072FB7B681846FFF716F90023002B8E
:1031500002D0786800F0EAFE7B6818460837BD4662
:1031600080BD00BFA8C9000824BF000880B582B098
:1031700000AF78607868FFF7DBFF786800F0D6FE74
:103180007B6818460837BD4680BD00BF80B584B057
:1031900000AFF860B9607A603B607B68052B04D9AA
:1031A000064800F041FB002304E0F868396800F0AD
:1031B000C5F9012318461037BD4680BD10BF000871
:1031C00080B582B000AF78607B680A4A1A600A480E
:1031D00000F02AFB7B681846FFF7CEF80023002B8F
:1031E00002D0786800F0A2FE7B6818460837BD461A
:1031F00080BD00BFD0C9000824BF000880B582B0E0
:1032000000AF78607868FFF7DBFF786800F08EFE2B
:103210007B6818460837BD4680BD00BF80B584B0C6
:1032200000AFF860B9607A603B607B68182B04D906
:10323000064800F0F9FA002304E0F868396800F065
:10324000B1F9012318461037BD4680BD10BF0008F4
:1032500080B582B000AF78607B680A4A1A600A487D
:1032600000F0E2FA7B681846FFF786F80023002B8F
:1032700002D0786800F05AFE7B6818460837BD46D1
:1032800080BD00BFF8C9000824BF000880B582B027
:1032900000AF78607868FFF7DBFF786800F046FEE3
:1032A0007B6818460837BD4680BD00BF80B584B036
:1032B00000AFF860B9607A603B607B68382B04D956
:1032C000064800F0B1FA002304E0F868396800F01D
:1032D000A5F9012318461037BD4680BD10BF000870
:1032E00080B582B000AF78607B680A4A1A600A48ED
:1032F00000F09AFA7B681846FFF73EF80023002B8F
:1033000002D0786800F012FE7B6818460837BD4688
:1033100080BD00BF20CA000824BF000880B582B06D
:1033200000AF78607868FFF7DBFF786800F0FEFD9B
:103330007B6818460837BD4680BD00BF80B485B0A5
:1033400000AF786039607B68DB683A6812881A8061
:103350007B681B69FB607B68DA687B681A617B6845
:10336000FA68DA607B681B7EDBB2002B09D07B68D1
:10337000DB68FB607B685A697B68DA607B68FA68A7
:103380005A617B68D3E90823013243F1000379686D
:10339000C1E908231437BD465DF8047B704700BFC0
:1033A00080B485B000AF786039607B689B683A680C
:1033B00012781A707B68DB68FB607B689A687B68B0
:1033C000DA607B68FA689A607B681B7DDBB2002B51
:1033D00009D07B689B68FB607B681A697B689A6090
:1033E0007B68FA681A617B68D3E90623013243F1EE
:1033F00000037968C1E906231437BD465DF8047BF4
:10340000704700BF80B485B000AF786039607B68DA
:103410009B683A6812781A707B68DB68FB607B688F
:103420009A687B68DA607B68FA689A607B681B7DC3
:10343000DBB2002B09D07B689B68FB607B681A6954
:103440007B689A607B68FA681A617B68D3E9062317
:10345000013243F100037968C1E906231437BD4600
:103460005DF8047B704700BF80B485B000AF786022
:1034700039607B689B693A681168196092889A8004
:103480007B68DB69FB607B689A697B68DA617B68D3
:10349000FA689A617B6893F82430DBB2002B09D07C
:1034A0007B689B69FB607B681A6A7B689A617B68B2
:1034B000FA681A627B68D3E90A23013243F10003F8
:1034C0007968C1E90A231437BD465DF8047B70476B
:1034D00080B485B000AF786039607B68DB693A689A
:1034E000116819609188927999809A717B681B6A3A
:1034F000FB607B68DA697B681A627B68FA68DA616C
:103500007B6893F82830DBB2002B09D07B68DB693D
:10351000FB607B685A6A7B68DA617B68FA685A628A
:103520007B68D3E90C23013243F100037968C1E9D8
:103530000C231437BD465DF8047B704780B485B01A
:1035400000AF786039607B685B693A681168196020
:1035500012791A717B689B69FB607B685A697B688A
:103560009A617B68FA685A617B6893F82030DBB215
:10357000002B09D07B685B69FB607B68DA697B683C
:103580005A617B68FA68DA617B68D3E90A23013201
:1035900043F100037968C1E90A231437BD465DF899
:1035A000047B7047B0B485B000AF786039607B6849
:1035B000DB6C3A68106851689568D4681860596087
:1035C0009D60DC6010695169186159617B681B6DF1
:1035D000FB607B68DA6C7B681A657B68FA68DA6482
:1035E0007B6893F85830DBB2002B09D07B68DB6C2A
:1035F000FB607B685A6D7B68DA647B68FA685A65A1
:103600007B68D3E91823013243F100037968C1E9EB
:1036100018231437BD46B0BC704700BFF0B484B067
:1036200000AF786039607B68D3F8AC203B6803F169
:10363000300411461846D0F800C046688568C06856
:10364000C1F800C04E608D60C86010331032A342D4
:10365000EFD119685B68116053607B68D3F8B030B4
:10366000FB607B68D3F8AC207B68C3F8B0207B6834
:10367000FA68C3F8AC207B6893F8B830DBB2002B53
:103680000DD07B68D3F8AC30FB607B68D3F8B420F6
:103690007B68C3F8AC207B68FA68C3F8B4207B6809
:1036A000D3E93023013243F100037968C1E93023C3
:1036B0001037BD46F0BC704780B500AF01204FF613
:1036C000FF71FFF783FA80BD80B487B000AF7860E8
:1036D0007B68FB6007F10C037B617B691B78FB74E3
:1036E0007B69DA787B691A707B690333FA7C1A701C
:1036F0007B695B78BB747B6901337A6992781A7055
:103700007B690233BA7C1A70FB6818461C37BD46C9
:103710005DF8047B704700BF80B582B000AF786071
:103720007B68064A1A600023002B02D0786800F0FC
:10373000FDFB7B6818460837BD4680BD58CA0008A7
:1037400080B582B000AF78607868FFF7E5FF7868F1
:1037500000F0ECFB7B6818460837BD4680BD00BF13
:1037600080B582B000AF78600B46FB7097F90330EC
:10377000184606F073FD0837BD4680BD80B483B09F
:1037800000AF78607B68044A1A607B6818460C3783
:10379000BD465DF8047B704758CA00080FB480B579
:1037A00082B000AF1C4B1B68002B2FD03B46184645
:1037B000FFF7E4FF07F114037B60184B1B68002B35
:1037C00005D0164B1B681648194601F037FA06F06B
:1037D0009BFF034683F00103DBB2002B05D03B4681
:1037E0001846396900F0B8FF0AE00E4806F0DAFF23
:1037F0003B461846396900F0AFFF0A4807F030F839
:1038000006F06EFD3B461846FFF786FF0837BD46BB
:10381000BDE8804004B07047040000200C10002078
:103820003CBF00081010002080B582B000AF786067
:10383000074B7A681A6007487968FFF7AFFF064BB5
:103840001B685A1C044B1A600837BD4680BD00BF78
:103850000000002050BF00080C10002080B582B08E
:1038600000AF786039607B68012B07D13A684FF66A
:10387000FF739A4202D1034806F07CFF0837BD4629
:1038800080BD00BF1010002080B500AF01204FF6B2
:10389000FF71FFF7E3FF80BD0FB480B400AF0023DA
:1038A0001846BD465DF8047B04B0704780B483B011
:1038B00000AF78600C37BD465DF8047B704700BFF1
:1038C0000FB480B400AF00231846BD465DF8047BFA
:1038D00004B070470FB480B400AF00231846BD4653
:1038E0005DF8047B04B0704780B483B000AF7860AB
:1038F000002318460C37BD465DF8047B704700BFB7
:1039000080B483B000AF7860002318460C37BD4602
:103910005DF8047B704700BF0FB480B400AF002394
:103920001846BD465DF8047B04B070470FB480B400
:1039300000AF00231846BD465DF8047B04B0704715
:103940000FB480B400AF00231846BD465DF8047B79
:1039500004B0704780B483B000AF78607B680A4AD7
:103960001A607B6800221A617B6800225A607B68BB
:1039700000229A607B680022DA607B6818460C3768
:10398000BD465DF8047B704770CA000880B584B0FE
:1039900000AFF860C7E9002306F08EF8FB681B68EB
:1039A00010331B68F86898470346002B02D006F0D6
:1039B0008BF80EE007F0CAF80246FB689A60FB68D5
:1039C0009968D7E90023C1E90A2306F07DF807F0DA
:1039D00047F81037BD4680BD80B582B000AF786033
:1039E0007B689B68002B04D07B689B68184607F0B7
:1039F000B9F87B6800229A607B681B69002B07D0AE
:103A00007B681B691B681B687A68126910469847B7
:103A10000837BD4680BD00BF80B582B000AF78607A
:103A20007B685B68002B04D07B685B68184607F0F6
:103A300099F87B6800225A607B681B69002B08D0CC
:103A40007B681B691B6804331B687A68126910461F
:103A500098470837BD4680BD80B582B000AF78601A
:103A60007B68DB68002B04D07B68DB68184607F0B6
:103A700079F87B680022DA607B681B69002B08D02C
:103A80007B681B691B6808331B687A6812691046DB
:103A900098470837BD4680BD80B584B000AFF86058
:103AA000B9607A603B60FB683A68DA60FB687A6804
:103AB0005A60084B1B68591C064A1160FA689360EB
:103AC000F868B96800F008F8FB6818461037BD467A
:103AD00080BD00BF2010002080B582B000AF7860AC
:103AE00039603B681A687B681A603B687A681A60BC
:103AF0000A4B1B68002B0CBF00230123DBB2002BF9
:103B000008D00748FFF790FE7B685B6805481946B8
:103B1000FFF744FE0837BD4680BD00BFC823002024
:103B20007CBF0008B0BF000880B582B000AF7860ED
:103B30000348FFF779FE7B6818460837BD4680BD0D
:103B4000D4BF000880B483B000AF78607B681B6886
:103B500018460C37BD465DF8047B704780B483B0CF
:103B600000AF78607B685B6818460C37BD465DF82F
:103B7000047B704780B588B000AF01233B60FB78C1
:103B80005BB2012B14BF00230123DAB26E4B1A7013
:103B900006F02EFB6D4801F051F86D4B1B68002BB1
:103BA00003D06B4B1B68043B00E00023FB6110E07B
:103BB000FB691B681B68F8699847FB690433184662
:103BC000FFF7C0FF0346002B01D0043B00E00023B9
:103BD000FB61FB69002BEBD15E4B1B68002B03D014
:103BE0005C4B1B68043B00E00023BB6111E0BB6938
:103BF0001B6808331B68B8699847BB6904331846CB
:103C0000FFF7A0FF0346002B01D0043B00E0002398
:103C1000BB61BB69002BEAD14F4801F00FF84F4B55
:103C20001B68002B03D04D4B1B68043B00E00023B6
:103C30007B6121E07B6904331846FFF783FF03466D
:103C4000002B01D0043B00E00023BB607B691B7F9D
:103C5000002B06D07B69043318464149FFF73CFF2F
:103C600008E07B691A1D7B695B69143310461946AD
:103C7000FFF732FFBB687B617B69002BDAD1394BE0
:103C80001B68002B4DD0384800F0D8FF354B1B681F
:103C9000002B03D0334B1B68043B00E000233B6147
:103CA0003CE03B6904331846FFF758FF01463B6987
:103CB000DA693B691B6A2D4800F0C0FF3B695B690C
:103CC000002B03D03B695B69043B00E00023FB60F1
:103CD00015E0FB6804331846FFF740FF034624480D
:103CE000194600F0ABFFFB6804331846FFF72AFFC4
:103CF0000346002B01D0043B00E00023FB60FB687F
:103D0000002BE6D13B6904331846FFF71BFF03463F
:103D1000002B01D0043B00E000233B613B69002BFA
:103D2000BFD1144800F08AFF00F08AFA78607B68FF
:103D3000002B03D01048796800F080FF06F068FF80
:103D40002037BD4680BD00BF28100020E8BF000816
:103D5000041000208024002018C000080810002053
:103D600088100020241000203CC0000858C0000823
:103D700084C0000890C00008A4C000082DE9F041EC
:103D800084B002AF78603960264B7A681A60264B9F
:103D90003A681A6005F050FE24482549254A00F08B
:103DA0004DFF07F009FAFFF7E5FE05F0E7FD0346D2
:103DB0001E4605F003FE054605F00AFE044605F022
:103DC000E9FD804605F0F0FD0346CDF80080019343
:103DD000194831462A46234600F030FF07F0A8FA7A
:103DE000044607F0A5FA0346144821461A4600F097
:103DF00025FF134800F022FF00F026F842F2107071
:103E00004FF0000106F00AF906F0B0F80D4800F096
:103E100015FF06F017FC002318460837BD46BDE81D
:103E2000F08100BF2C10002030100020C0C000081E
:103E3000F0C00008FCC0000814C1000878C10008E8
:103E400098C10008D0C1000880B500AF014800F05B
:103E5000F5FE80BD04C2000880B485B000AF786074
:103E60000023FB607B68002B01D100230BE005E001
:103E7000FB680133FB607B6801337B607B681B78E8
:103E8000002BF5D1FB6818461437BD465DF8047B5E
:103E9000704700BF80B487B000AFF860B9607A6047
:103EA000FB68002B01D1FB6810E0FB687B6109E037
:103EB000BB68DAB27B691A707B6901337B617B680E
:103EC000013B7B607B68002BF2D1FB6818461C37F6
:103ED000BD465DF8047B704780B487B000AFF860E2
:103EE000B9607A60FB687B61BB683B617B69002BD2
:103EF00002D03B69002B01D1002311E00CE03B69AB
:103F00001A787B691A707B68013B7B603B690133DF
:103F10003B617B6901337B617B68002BEFD1FB68E0
:103F200018461C37BD465DF8047B704780B483B0EB
:103F300000AF78600C37BD465DF8047B704700BF6A
:103F400080B584B000AFF860B9607A603B60FB6810
:103F5000043318461049114A0023FFF79DFDFB6802
:103F60000F4A1A60FB68BA685A61FB68203318462A
:103F700006F000FCFB683A7E1A77FB6801225A774C
:103F8000FB683A689A60FB687A689A61FB68184631
:103F90001037BD4680BD00BF0810002030C20008A9
:103FA000B0CA000880B485B000AFF860B9607A602C
:103FB0003B60034B18461437BD465DF8047B7047E1
:103FC00015CD5B0790B587B002AFF860B9607A6035
:103FD0003B60FB685B7F83F00103DBB2002B01D009
:103FE00000233DE0FB682033184606F0DBFBFB684E
:103FF0009B69002B0FD0FB689B691B6808331C680A
:10400000FB689A697B68396A00911046B9681A465C
:104010003B68A04718E0FB681B681C683B6A5B694B
:104020000093F868B9687A683B68A04702460E4B6F
:104030009A420CBF00230123DBB2002B04D00B48B3
:10404000FFF7F2FB01230BE0FB682033184606F074
:1040500007FCFB689B69002B01D0012300E00023D3
:1040600018461437BD4690BD15CD5B073CC200080D
:1040700090B58DB002AFF860B9607A603B60FB68C4
:104080009B69002B0FD0FB689B691B6808331C6879
:10409000FB689A693B6807F1100100911046B96806
:1040A0001A467B68A0472C37BD4690BD80B485B0CA
:1040B00000AFF860C7E90023F968D7E90023C1E938
:1040C0000E23F968D7E90623C1E910231437BD464A
:1040D0005DF8047B704700BFB0B586B002AF786072
:1040E00006E04FF0FF306FF00041002206F056FD71
:1040F0007B68D3E9102352EA0301F2D07B68D3E94D
:104100000E2310461946002206F048FD00F0ECF898
:10411000C7E902017B68D3E90E017B68D3E910236C
:10412000D7E90245CDE9004500F0E8F802460B4624
:104130007968C1E90E231037BD46B0BD80B584B0A3
:1041400000AF786006F002FDF860F86806F0E4FC65
:10415000B860F868796806F0EBFCBB681846103761
:10416000BD4680BDB0B586B002AFC7E900010023EF
:10417000FB60324B1B68002B03D0304B1B68043BA9
:1041800000E00023BB6051E0BB68D3E90601D7E93A
:104190000023904271EB030C3CDABB68D3E908239F
:1041A00052EA030107D1B9684FF0FF326FF00043C4
:1041B000C1E9062325E0BB68D3E90601BB68D3E962
:1041C0000823121843EB0103B968C1E90623BB6851
:1041D000D3E90601D7E90023904271EB030C10DA12
:1041E000BB68D3E90601BB68D3E90823D7E90045DA
:1041F000CDE9004500F082F802460B46B968C1E9F6
:104200000623BB681B6808331B68B8689847FB68BF
:104210000133FB60BB6804331846FFF793FC034689
:10422000002B01D0043B00E00023BB60BB68002BE7
:10423000AAD1FB6818461037BD46B0BD001000205B
:1042400080B582B000AF00237B60144B1B68002B4D
:1042500003D0124B1B68043B00E000233B6014E0DA
:104260003B681B680C331B68386898477B680133D0
:104270007B603B6804331846FFF764FC0346002B61
:1042800001D0043B00E000233B603B68002BE7D1FA
:104290007B6818460837BD4680BD00BF001000206F
:1042A00080B483B000AF786079684FF000024FF0BF
:1042B0000003C1E9002379684FF000024FF00003CA
:1042C000C1E9022379684FF000024FF00003C1E911
:1042D00004237B6811229A617B6818460C37BD461F
:1042E0005DF8047B704700BF80B500AF05F01CFF90
:1042F00002460B461046194680BD00BF80B584B00B
:1043000000AFC7E90201C7E90023D7E90223D7E9D3
:104310000601904271EB030C02DAD7E902232CE08C
:10432000D7E9002352EA030104D14FF0FF326FF0C6
:10433000004322E0D7E90601D7E90223821A61EBA4
:10434000030310461946D7E90023FCF793FB024606
:104350000B46013243F10003396803FB01F0796831
:1043600002FB01F101443868A0FB022319440B460B
:10437000D7E90201121843EB010310461946103722
:10438000BD4680BD80B582B000AF786039607B6883
:10439000012B07D13A684FF6FF739A4202D10348C6
:1043A000FFF77EFF0837BD4680BD00BF38100020F4
:1043B00080B500AF01204FF6FF71FFF7E3FF80BD2E
:1043C00080B586B000AFF860B9607A603B60FB688A
:1043D000043318462E493A680023FFF75DFBFB685B
:1043E0002C4A1A60FB6800225A61FB68BA68DA61DD
:1043F000FB687A681A62FB6800229A61FB68DB69D5
:10440000B3F1FF3F11D1386806F04AFF03461A4660
:10441000FB68DA61FB68DB69B3F57A7F05DAFB6874
:10442000DB6903F57A72FB68DA61194B1B68002BB4
:1044300003D0174B1B68043B00E000237B611EE0A8
:104440007B69DA69BB689A420DD17A69FB689A4246
:1044500009D01148FFF7E8F97B699B680F48B968F4
:104460003A68FFF79BF97B6904331846FFF76AFB4C
:104470000346002B01D0043B00E000237B617B69F5
:10448000002BDDD1FB6818461837BD4680BD00BF44
:104490002410002048CA00089CC20008B0C20008CE
:1044A00080B582B000AF78607B680A4A1A600A481B
:1044B000FFF7BAF97B681846FDF75EFF0023002B73
:1044C00002D07868FFF732FD7B6818460837BD4692
:1044D00080BD00BFF0CA000828C3000880B582B0C4
:1044E00000AF78607868FFF7DBFF7868FFF71EFDA4
:1044F0007B6818460837BD4680BD00BF80B584B0D4
:1045000000AFF860B9607A60FB681846B9680C22A1
:104510007B68FFF755FFFB68034A1A60FB68184683
:104520001037BD4680BD00BFF0CA000880B584B01A
:1045300000AFF860B9607A60FB681846B96840F26D
:104540002E527B68FFF73CFFFB68034A1A60FB684A
:1045500018461037BD4680BDE0CA000880B584B05B
:1045600000AFF860B9607A60FB681846B968042249
:104570007B68FFF725FFFB68034A1A60FB68184653
:104580001037BD4680BD00BFD0CA000880B582B0DC
:1045900000AF786039607B68012B4FD13A684FF6E5
:1045A000FF739A424AD1274827490A2206F08EFD16
:1045B00024482649264A07F063FB26480021264A5C
:1045C000FFF79CFF23482549214A07F059FB24485F
:1045D0004FF0FF31234AFFF7A9FF214822491C4A27
:1045E00007F04EFB21484FF0FF31214AFFF7B6FF9D
:1045F0001E482049164A07F043FB1F484FF0FF3181
:104600001E4AFFF7ABFF1C481A49114A07F038FB56
:104610001B484FF0FF311B4AFFF7A0FF1848154910
:104620000B4A07F02DFB18484FF0FF31174AFFF7F0
:1046300065FF15480949064A07F022FB0837BD46C1
:1046400080BD00BF5810002038C300080DB100081D
:104650004C110020741000204CC30008A144000835
:10466000981000205CC30008ED460008BC10002034
:1046700068C3000891460008E010002078C30008D5
:104680000411002088C30008281100209CC30008E2
:1046900080B582B000AF78607B680A4A1A600A4829
:1046A000FFF7C2F87B681846FDF766FE0023002B73
:1046B00002D07868FFF73AFC7B6818460837BD4699
:1046C00080BD00BFD0CA000828C3000880B582B0F2
:1046D00000AF78607868FFF7DBFF7868FFF726FCAB
:1046E0007B6818460837BD4680BD00BF80B582B0E4
:1046F00000AF78607B680A4A1A600A48FFF794F8AE
:104700007B681846FDF738FE0023002B02D078683E
:10471000FFF70CFC7B6818460837BD4680BD00BF1C
:10472000E0CA000828C3000880B582B000AF7860F6
:104730007868FFF7DBFF7868FFF7F8FB7B681846BF
:104740000837BD4680BD00BF80B500AF01204FF6E1
:10475000FF71FFF71BFF80BD80B594B000AF78609C
:10476000396056E2002387F84E30002387F84D3039
:10477000002387F84C30002387F84B3097F84F30F0
:10478000252B0AD07B681B6808331B6897F84F20DD
:1047900052B27868114698473BE23B685A1C3A602F
:1047A0001B7887F84F30002387F84330202387F8A1
:1047B0004230032387F8413097F84F30302B09D12E
:1047C00097F84F3087F842303B685A1C3A601B78A4
:1047D00087F84F3097F84F302F2B0ED997F84F307E
:1047E000392B0AD897F84F30303B87F843303B6875
:1047F0005A1C3A601B7887F84F3097F84F302E2BB1
:1048000010D13B685A1C3A601B7887F84F3097F8F4
:104810004F30303B87F841303B685A1C3A601B7878
:1048200087F84F3097F84F306C2B08D1012387F869
:104830004D303B685A1C3A601B7887F84F3097F828
:104840004F306C2B08D1012387F84C303B685A1C41
:104850003A601B7887F84F3097F84F30623B162B41
:1048600038D801A151F823F061490008C548000873
:104870004B490008D548000845490008D5480008BC
:10488000D5480008D5480008D5480008D548000894
:10489000D5480008D5480008D54800082F49000829
:1048A000D5480008D5480008D5480008EB4800085E
:1048B000D548000851490008D5480008D5480008E7
:1048C000594900087B685B68191D7A6851601B684C
:1048D00087F84F307B681B6808331B6897F84F20B8
:1048E00052B278681146984793E17B685B68191D5E
:1048F0007A6851601B687B6409E07B681B68083339
:104900001B6897F84F2052B27868114698477B6C25
:104910005A1C7A641B7887F84F3097F84F30002B79
:104920000CBF00230123DBB2002BE6D171E1082389
:10493000A7F848307B681B6808331B68786830210B
:10494000984711E0012387F84B30012387F84E3058
:104950000A23A7F8483007E01023A7F8483003E0FF
:104960000223A7F8483000BF4FF000024FF00003C9
:10497000C7E90C234FF000024FF00003C7E90A23F8
:1049800097F84B30002B15D07B685B68073323F01A
:10499000070303F108017A685160D3E90023C7E9EE
:1049A0000A23D7E90A01FCF797F802460B46C7E944
:1049B0000C232CE097F84C30002B0DD07B685B6803
:1049C000073323F0070303F108017A685160D3E944
:1049D0000023C7E90C231AE097F84D30002B0BD0C9
:1049E0007B685B68191D7A6851601B681A464FEA3C
:1049F000E273C7E90C230AE07B685B68191D7A68DB
:104A000051601B681A464FEAE273C7E90C2397F816
:104A10004E30002B2DD0D7E90C23002A73F1000172
:104A20000ADBD7E90A014FF000024FF00003FBF761
:104A3000D9FF0346002B1CD0D7E90C23524263EB6D
:104A40004303C7E90C23BB6ABB62FB6A83F00043E4
:104A5000FB627B681B6808331B6878682D219847C8
:104A600097F84330002B04D097F84330013B87F888
:104A7000433097F84C30002B04D0D7E90C23C7E91A
:104A80000E2310E097F84D30002B06D03B6B1A46F2
:104A90004FF00003C7E90E2305E03B6B1A464FF0C9
:104AA0000003C7E90E2307F10C031A337B647B6C08
:104AB000013B7B647B6C00221A70B7F848204FF0F2
:104AC0000003D7E90E01FBF7F1FFD3B23033DBB2BD
:104AD00087F8273097F92730392B05DD97F82730ED
:104AE0000733DBB287F827307B6C013B7B6497F898
:104AF00027207B6C1A70B7F848204FF00003D7E9E5
:104B00000E01FBF7D3FF02460B46C7E90E2397F8C9
:104B10004330002B04D097F84330013B87F84330F3
:104B2000D7E90E2352EA0301C7D106E07B6C013BB3
:104B30007B647B6C97F842201A7097F843305A1EBA
:104B400087F84320002B0CBF00230123DBB2002B8E
:104B5000ECD109E07B681B6808331B6897F84F208D
:104B600052B27868114698477B6C5A1C7A641B785D
:104B700087F84F3097F84F30002B0CBF00230123EC
:104B8000DBB2002BE6D197F84B30002B41D07B688D
:104B90001B6808331B6878682E2198472DE0D7E9F9
:104BA0000C01FBF77FFC02460B46D7E90A01FBF735
:104BB000F3FA02460B46C7E90A23D7E90A014FF088
:104BC00000021D4BFBF79CFC02460B46C7E90A237B
:104BD000D7E90A01FBF780FF02460B46C7E90C2321
:104BE0007B681B6808331B6897F830203032D2B2DC
:104BF000D2B252B278681146984797F841305A1E9F
:104C000087F84120002B0CBF00230123DBB2002BCF
:104C1000C5D13B685A1C3A601B7887F84F3097F82B
:104C20004F30002B0CBF00230123DBB2002B7FF49D
:104C300099AD5037BD4680BD000024400FB480B50B
:104C400082B000AF0C4B1B68002B0FD03B461846C0
:104C5000FEF794FD07F114037B603B461846396963
:104C6000FFF77AFD3B461846FEF756FD0837BD466E
:104C7000BDE8804004B070470400002080B582B0D9
:104C800000AF0C4B7B6008E07B681B6898473B6873
:104C900001333B607B6804337B607A68064B9A4241
:104CA000F2D13B6801333B603B68013B3B60083716
:104CB000BD4680BDB0CC0008ECCC000880B485B007
:104CC00000AFF860B9607A60002318461437BD461B
:104CD0005DF8047B704700BF80B400AFFEE700BF03
:104CE000002100F004B8124B5B58435004311148C6
:104CF000114B42189A42FFF4F6AF104A00F003B885
:104D0000002342F8043B0E4B9A42FFF4F9AF0D4AE0
:104D100000F003B8002342F8043B0B4B9A42FFF427
:104D2000F9AF05F0E3FAFFF7A9FFFFF727F870479F
:104D3000ECCC0008000000205800002058000020A3
:104D400094C40020000000100000001005F082FA5A
:104D5000FFF7FCBF80B483B000AF786039603B6878
:104D600018460C37BD465DF8047B704780B483B0AD
:104D700000AF7860012318460C37BD465DF8047B10
:104D8000704700BF80B483B000AF7860012318463D
:104D90000C37BD465DF8047B704700BF80B483B01C
:104DA00000AF0346FB71084B97F907205209F979C8
:104DB00001F01F01012000FA01F143F822100C3725
:104DC000BD465DF8047B704700E100E080B483B02D
:104DD00000AF0346FB71094B97F907205209F97997
:104DE00001F01F01012000FA01F1603243F82210A6
:104DF0000C37BD465DF8047B704700BF00E100E062
:104E000080B500AF124B1B7883F00103DBB2002B9F
:104E10001CD00F4B01221A704FF48040012104F086
:104E2000C5F90620FFF7BAFF0720FFF7B7FF0820F4
:104E3000FFF7B4FF0920FFF7B1FF0A20FFF7AEFF2D
:104E40001720FFF7ABFF2820FFF7A8FF80BD00BFAA
:104E50009011002080B582B000AF786079807A70C0
:104E60003B707B687A881A807B687A781A727B68D4
:104E70003A785A72786800F023F8B7F90230184689
:104E800000F008F902467B685A617B680C331846CB
:104E900003F0E2FE7B685B891A467B68DA607B6818
:104EA00002225A747B6800221A747B6800221A76E8
:104EB0007B6800225A767B6818460837BD4680BD5D
:104EC00080B483B000AF78607B681B7A1A467B6839
:104ED0001B889BB203F00F031344102B0CDD7B687F
:104EE0001B889BB203F00F034FF6FF7202FA03F325
:104EF0009AB27B685A8117E07B681B7AC3F1100372
:104F00004FF6FF7242FA03F39AB27B685A817B68CC
:104F10005B891A467B681B889BB203F00F0302FA79
:104F200003F39AB27B685A810C37BD465DF8047B67
:104F3000704700BF80B582B000AF78607B68012207
:104F40005A767B685B681B6830331B687A685268E6
:104F5000104698470A4A7B681B8819B2094B0B40D8
:104F6000002B03DA013B63F00F0301339BB21BB24A
:104F7000012101FA03F353610837BD4680BD00BF2C
:104F8000003C01400F00008080B485B000AF786025
:104F90000023FB6002E0FB680133FB607B685B0879
:104FA0007B607B68002B0CBF00230123DBB2002B4E
:104FB000F1D1FB6818461437BD465DF8047B704795
:104FC00080B483B000AF78607B68274A934234D0C6
:104FD000254A934213D8254A934228D0234A934224
:104FE00006D8234A93421ED0224A93421DD033E072
:104FF000214A93421DD0214A93421CD02CE0204AE2
:10500000934220D01E4A934206D81E4A934216D09D
:105010001D4A934215D01FE01C4A934216D01C4AE9
:10502000934216D018E0012317E0022315E0042371
:1050300013E0082311E010230FE020230DE04023AC
:105040000BE0802309E04FF4807306E04FF4007317
:1050500003E04FF4806300E0002318460C37BD46A0
:105060005DF8047B704700BF001402400008024056
:105070000000024000040240000C02400010024008
:105080000020024000180240001C024000240240A0
:105090000028024080B483B000AF0346FB80B7F91C
:1050A00006300F2B01DC1C4B30E0B7F906301F2B0C
:1050B00001DC1A4B2AE0B7F906302F2B01DC184B24
:1050C00024E0B7F906303F2B01DC164B1EE0B7F9A0
:1050D00006304F2B01DC144B18E0B7F906305F2B7C
:1050E00001DC124B12E0B7F906306F2B01DC104BDC
:1050F0000CE0B7F906307F2B01DC0E4B06E0B7F968
:1051000006308B2B01DC0C4B00E0002318460C37DB
:10511000BD465DF8047B7047000002400004024079
:1051200000080240000C024000100240001402403F
:1051300000180240001C02400020024080B483B0EE
:1051400000AF0346FB80FB8803F00F03012202FA45
:1051500003F39BB218460C37BD465DF8047B7047DD
:1051600080B586B000AF02460B46FA807B71B7F976
:105170000630002B03DBB7F906308B2B02DD4FF036
:10518000FF3338E0B7F906301846FFF783FF786140
:10519000B7F906301846FFF7D1FF03467B827869DE
:1051A000FFF70EFF03461846012103F0C3FF78699D
:1051B000FFF706FF03461846002104F015F87B8A26
:1051C0001846FFF7E1FE03469AB27B7978691146EB
:1051D0001A4603F093FD07F10803184603F03CFD5F
:1051E00002233B737B8ABB6007F108037869194689
:1051F00003F0A4FC002318461837BD4680BD00BF4D
:1052000080B584B000AF0346FB80B7F90630002BB1
:1052100003DBB7F906308B2B02DD4FF0FF331AE0CA
:1052200007F10803184603F017FD00233B73B7F995
:1052300006301846FFF782FF0346BB60B7F9063019
:105240001846FFF727FF024607F1080310461946E4
:1052500003F074FC002318461037BD4680BD00BF24
:1052600090B583B000AF78600B467B807B681846B2
:10527000FEF770FB7B68134A1A601C2006F064F886
:1052800002467B689A617B689B691C201946FFF780
:1052900061FD0446002C09D0B7F9023020461946BA
:1052A00001220023FFF7D6FD234600E023467A685B
:1052B00093617B689B697A685A607B6818460C37F3
:1052C000BD4690BD00CB000880B584B000AFF8604B
:1052D0007A603B600B46FB727B68002B04D0FB6856
:1052E0009B697A68D2B21A72FB689B69FA7A5A7221
:1052F000FB689B691846FFF7E3FDFB689B695B69E8
:10530000002B02D14FF0FF3321E0FB689B695B6902
:105310001846FFF755FE03461846012103F00AFF21
:10532000FB689B695B7A002B09D0F8680021012299
:1053300000F012F8F868396800F0CCF804E0F8687A
:105340000021002200F008F8FFF75AFD002318465C
:105350001037BD4680BD00BF80B584B000AFF86097
:105360000B467A60FB72FB7A042B00F29B8001A251
:1053700052F823F089530008C95300081354000859
:105380004F5400088B5400087B68002B08D0FB6842
:105390009B6901225A72FB689B6901221A7407E01B
:1053A000FB689B6900225A72FB689B6900221A7491
:1053B000FB689B695A69FB689B690C331046194668
:1053C00003F0BCFB00236FE07B68002B1ED07B68E2
:1053D000FF2B1BD8FB689B697A68D2B21A72FB68F4
:1053E0009B691846FFF76CFDFB689B69FA68926938
:1053F0005289DA60FB689B695A69FB689B690C33C8
:105400001046194603F09AFB00234DE04FF0FF339E
:105410004AE07B68002B17D07B68002B04D0FB6828
:105420009B690122DA7403E0FB689B690022DA744D
:10543000FB689B695A69FB689B690C3310461946E7
:1054400003F07CFB00232FE04FF0FF332CE07B6860
:10545000002B17D07B68002B04D0FB689B690222CD
:10546000DA7403E0FB689B690022DA74FB689B69CD
:105470005A69FB689B690C331046194603F05EFBC2
:10548000002311E04FF0FF330EE07B68022B06D8BB
:10549000FB689B697A68D2B21A76002304E04FF069
:1054A000FF3301E04FF0FF3318461037BD4680BD93
:1054B00080B582B000AF78607868002100F064F8B1
:1054C0007B689B691B881BB21846FFF799FE08375B
:1054D000BD4680BD80B584B000AF786039600023E0
:1054E0007B817B689B695B7A002B3CD040F2EB3080
:1054F000FEF724FE03460133FB6031E07B689B69C5
:105500005B69184603F0C2FB03469AB27B689B694D
:105510005B899BB2DB439BB213409BB27B817B6870
:105520009B691B889BB203F00F033A6802FA03F3EE
:105530009AB27B689B695B8913409AB27B8913435B
:105540007B817B689B695A697B891046194603F009
:10555000C7FBFB68013B1846FEF7F0FD0023FB602C
:10556000FB68002BCAD11037BD4680BD80B483B024
:1055700000AF78607B689B695B7E18460C37BD4640
:105580005DF8047B704700BF80B586B000AF7860DF
:105590000B46FB707B689B691B881BB2002B00DAF3
:1055A0000F331B119BB21BB27B617B689B691B880D
:1055B0001AB24E4B1340002B03DA013B63F00F038A
:1055C00001339BB21BB23B613B69FB60FB78002B54
:1055D0005DD0474BFA6853F822207B689B699A425A
:1055E00000D17FE0424BFA6853F82230002B4AD1B9
:1055F0007B689B691B7A012B03D93E48FEF714F99F
:1056000070E07B69DAB23B69DBB21046194603F001
:1056100007FF7B689B691B7E012B04D07B689B691D
:105620001B7E002B08D1344B334A916801203A6924
:1056300000FA02F20A439A607B689B691B7E022B88
:1056400004D07B689B691B7E002B08D12A4B2A4A19
:10565000D16801203A6900FA02F20A43DA607B68F5
:105660009969234BFA6843F822107B689B690022F2
:105670005A76214B204A116801203A6900FA02F259
:105680000A431A602EE01D48FEF7CEF82AE0184BB8
:10569000FA6853F822207B689B699A4222D1164B04
:1056A000154A116801203A6900FA02F2D2430A4011
:1056B0001A60114B104A916801203A6900FA02F20F
:1056C000D2430A409A600C4B0B4AD16801203A69D8
:1056D00000FA02F2D2430A40DA60054BFA68002170
:1056E00043F822101837BD4680BD00BF0F00008070
:1056F00050110020A8C30008003C0140CCC30008A2
:1057000080B500AF064B1B68002B04D0044B1B6810
:105710001846FFF70FFC0620FFF758FB80BD00BFBF
:105720005011002080B500AF064B5B68002B04D001
:10573000044B5B681846FFF7FDFB0720FFF746FBAD
:1057400080BD00BF5011002080B500AF064B9B68A4
:10575000002B04D0044B9B681846FFF7EBFB082096
:10576000FFF734FB80BD00BF5011002080B500AFB3
:10577000064BDB68002B04D0044BDB681846FFF7B0
:10578000D9FB0920FFF722FB80BD00BF501100208C
:1057900080B500AF064B1B69002B04D0044B1B697E
:1057A0001846FFF7C7FB0A20FFF710FB80BD00BFBC
:1057B0005011002080B582B000AF134B5B693B6095
:1057C00005237B6017E03A687B6822FA03F303F055
:1057D0000103002B0CD00D4B7A6853F82230002BBC
:1057E00006D00A4B7A6853F822301846FFF7A2FB1E
:1057F0007B6801337B607B68092BE4DD1720FFF7B2
:10580000E5FA0837BD4680BD003C0140501100203C
:1058100080B582B000AF134B5B693B600A237B60AD
:1058200017E03A687B6822FA03F303F00103002BC8
:105830000CD00D4B7A6853F82230002B06D00A4B5F
:105840007A6853F822301846FFF774FB7B680133FF
:105850007B607B680F2BE4DD2820FFF7B7FA083761
:10586000BD4680BD003C01405011002080B483B093
:1058700000AF78600B46FB707B68FA781A707B6823
:1058800018460C37BD465DF8047B704780B483B082
:1058900000AF78607B6818460C37BD465DF8047B26
:1058A000704700BF90B587B002AFF860F9723A81D7
:1058B000FB80FB681846FEF74DF8FB681A4A1A6031
:1058C000FB7A002B01D10123FB72FB7A032B01D958
:1058D0000323FB72FB7A5A1E13465B0013441B0121
:1058E000124A134430201946FFF734FA0446002CBC
:1058F00006D0FB7A20461946FFF7B8FF234600E0A2
:105900002346FA689361FB689969FA7AB7F9083017
:10591000B7F9060000900846F96800F059F9FB68ED
:1059200018461437BD4690BD40CB000894110020A6
:1059300080B588B000AF786039607B681B6804333D
:105940001B68786898477B689B693A689A627B68AD
:105950009B699B681846012103F00AFC7B689B69E0
:105960005A697B689B691B6A13431846012103F03F
:10597000E1FB7B689B6919697B689B691B7E1A4602
:105980007B689B6993F82530084611461A4603F058
:10599000B5F97B689B69D9697B689B6993F824306A
:1059A0001A467B689B6993F82530084611461A46CB
:1059B00003F0A4F97B689B699B89BB6102233B7759
:1059C00000237B770123BB770023FB777B689B69F0
:1059D0001A6907F118031046194603F0AFF87B68FF
:1059E0009B695B8BBB617B689B69DA6907F1180374
:1059F0001046194603F0A2F80023BB814BF6FF7353
:105A0000FB817B689B69DB8C3B824FF480637B82EC
:105A10004FF48043BB827B689B699B6ABB607B6859
:105A20009B695A6807F108031046194603F0E6F926
:105A30007B689B695B681846012103F0A1FA00238B
:105A400018462037BD4680BD80B586B000AF78606F
:105A50007B689B695B681846002103F091FA7B68BC
:105A60009B695B68184603F08FF97B689B699B68AC
:105A70001846002103F07CFB07F10C03184603F0E5
:105A8000EBF87B689B699B89FB6000237B74012397
:105A9000BB740023FB747B689B691A697B689B69F4
:105AA0009B891046194603F0FFF801233B747B687D
:105AB0009B691A6907F10C031046194603F03EF87A
:105AC00004F022FE0346002B43D0FEF70DFC334AC0
:105AD0004FF00003121843EB010310461946002251
