:020000040800F2
:10000000000002201D52000839AF000841AF00086F
:1000100065AF00086DAF000875AF00080000000074
:1000200000000000000000000000000069A80008B7
:1000300089520008000000007DA80008B9AB000844
:100040008952000889520008895200088952000824
:1000500089520008895200083D5C0008615C000874
:10006000855C0008A95C0008CD5C00088952000886
:10007000717D000889520008997C000889520008A7
:10008000297D0008517C0008895200088952000827
:10009000895200088952000889520008F15C000862
:1000A000895200088952000869AD00088952000889
:1000B00089520008895200088952000889520008B4
:1000C00089520008895200088952000889520008A4
:1000D00089520008797B0008917B0008A97B000801
:1000E0004D5D0008895200088952000889520008B5
:1000F0008952000889520008895200088952000874
:10010000895200088952000875A900088952000820
:10011000C17B0008D97B0008895200088952000879
:100120008952000889520008895200088952000843
:100130008952000889520008895200088952000833
:100140008952000889520008895200088952000823
:10015000E17C000889520008097C0008F17B000856
:100160008952000889520008895200088952000803
:1001700089520008895200088952000889520008F3
:0C018000895200088952000800000008A5
:1001900081F0004102E000BF83F0004330B54FEA38
:1001A00041044FEA430594EA050F08BF90EA020FA5
:1001B0001FBF54EA000C55EA020C7FEA645C7FEA38
:1001C000655C00F0E2804FEA5454D4EB5555B8BF5B
:1001D0006D420CDD2C4480EA020281EA030382EACC
:1001E000000083EA010180EA020281EA0303362D5E
:1001F00088BF30BD11F0004F4FEA01314FF4801C31
:100200004CEA113102D0404261EB410113F0004F42
:100210004FEA03334CEA133302D0524263EB4303F9
:1002200094EA050F00F0A780A4F10104D5F1200E97
:100230000DDB02FA0EFC22FA05F2801841F10001F2
:1002400003FA0EF2801843FA05F359410EE0A5F1C6
:1002500020050EF1200E012A03FA0EFC28BF4CF0F7
:10026000020C43FA05F3C01851EBE37101F00045AD
:1002700007D54FF0000EDCF1000C7EEB00006EEBBA
:100280000101B1F5801F1BD3B1F5001F0CD3490844
:100290005FEA30004FEA3C0C04F101044FEA44529B
:1002A00012F5800F80F09A80BCF1004F08BF5FEA22
:1002B000500C50F1000041EB045141EA050130BD02
:1002C0005FEA4C0C404141EB010111F4801FA4F1A5
:1002D0000104E9D191F0000F04BF01460020B1FAFA
:1002E00081F308BF2033A3F10B03B3F120020CDA32
:1002F0000C3208DD02F1140CC2F10C0201FA0CF010
:1003000021FA02F10CE002F11402D8BFC2F1200C74
:1003100001FA02F120FA0CFCDCBF41EA0C0190402A
:10032000E41AA2BF01EB0451294330BD6FEA040473
:100330001F3C1CDA0C340EDC04F11404C4F120025E
:1003400020FA04F001FA02F340EA030021FA04F370
:1003500045EA030130BDC4F10C04C4F1200220FAC7
:1003600002F001FA04F340EA0300294630BD21FA05
:1003700004F0294630BD94F0000F83F4801306BFCB
:1003800081F480110134013D4EE77FEA645C18BFBF
:100390007FEA655C29D094EA050F08BF90EA020F56
:1003A00005D054EA000C04BF1946104630BD91EA4E
:1003B000030F1EBF0021002030BD5FEA545C05D151
:1003C0004000494128BF41F0004130BD14F5800490
:1003D0003CBF01F5801130BD01F0004545F0FE4104
:1003E00041F470014FF0000030BD7FEA645C1ABF39
:1003F000194610467FEA655C1CBF0B46024650EA70
:10040000013406BF52EA033591EA030F41F400219B
:1004100030BD00BF90F0000F04BF0021704730B521
:100420004FF4806404F132044FF000054FF00001F6
:1004300050E700BF90F0000F04BF0021704730B5B7
:100440004FF4806404F1320410F0004548BF40428C
:100450004FF000013EE700BF42004FEAE2014FEAE1
:1004600031014FEA02701FBF12F07F4393F07F4FBC
:1004700081F06051704792F0000F14BF93F07F4FEE
:10048000704730B54FF4607401F0004521F0004131
:1004900020E700BF50EA010208BF704730B54FF0B7
:1004A00000050AE050EA010208BF704730B511F0BC
:1004B000004502D5404261EB41014FF4806404F1F4
:1004C00032045FEA915C3FF4DCAE4FF003025FEA76
:1004D000DC0C18BF03325FEADC0C18BF033202EBFE
:1004E000DC02C2F1200300FA03FC20FA02F001FA58
:1004F00003FE40EA0E0021FA02F11444C1E600BFF7
:1005000070B54FF0FF0C4CF4E06C1CEA11541DBFA9
:100510001CEA135594EA0C0F95EA0C0F00F0DEF874
:100520002C4481EA030621EA4C5123EA4C5350EA59
:10053000013518BF52EA033541F4801143F48013AA
:1005400038D0A0FB02CE4FF00005E1FB02E506F03B
:100550000042E0FB03E54FF00006E1FB03569CF090
:10056000000F18BF4EF0010EA4F1FF04B6F5007F96
:1005700064F5407404D25FEA4E0E6D4146EB060608
:1005800042EAC62141EA55514FEAC52040EA5E5091
:100590004FEACE2EB4F1FD0C88BFBCF5E06F1ED83B
:1005A000BEF1004F08BF5FEA500E50F1000041EB72
:1005B000045170BD06F0004646EA010140EA02001F
:1005C00081EA0301B4EB5C04C2BFD4EB0C0541EA41
:1005D000045170BD41F480114FF0000E013C00F356
:1005E000AB8014F1360FDEBF002001F0004170BD7A
:1005F000C4F10004203C35DA0C341BDC04F1140493
:10060000C4F1200500FA05F320FA04F001FA05F21E
:1006100040EA020001F0004221F0004110EBD370EB
:1006200021FA04F642EB06015EEA430E08BF20EA17
:10063000D37070BDC4F10C04C4F1200500FA04F3BA
:1006400020FA05F001FA04F240EA020001F000414C
:1006500010EBD37041F100015EEA430E08BF20EABF
:10066000D37070BDC4F1200500FA05F24EEA020E07
:1006700020FA04F301FA05F243EA020321FA04F036
:1006800001F0004121FA04F220EA020000EBD370ED
:100690005EEA430E08BF20EAD37070BD94F0000FED
:1006A0000FD101F00046400041EB010111F4801F21
:1006B00008BF013CF7D041EA060195F0000F18BFD2
:1006C000704703F00046520043EB030313F4801F0E
:1006D00008BF013DF7D043EA0603704794EA0C0FC8
:1006E0000CEA135518BF95EA0C0F0CD050EA4106DE
:1006F00018BF52EA4306D1D181EA030101F000415B
:100700004FF0000070BD50EA410606BF1046194682
:1007100052EA430619D094EA0C0F02D150EA01368E
:1007200013D195EA0C0F05D152EA03361CBF1046CF
:1007300019460AD181EA030101F0004141F0FE416E
:1007400041F470014FF0000070BD41F0FE4141F4F2
:10075000780170BD70B54FF0FF0C4CF4E06C1CEAF2
:1007600011541DBF1CEA135594EA0C0F95EA0C0FA7
:1007700000F0A7F8A4EB050481EA030E52EA033562
:100780004FEA013100F088804FEA03334FF0805583
:1007900045EA131343EA12634FEA022245EA1115B0
:1007A00045EA10654FEA00260EF000419D4208BF61
:1007B000964244F1FD0404F5407402D25B084FEA0E
:1007C0003202B61A65EB03055B084FEA32024FF4BA
:1007D00080104FF4002CB6EB020E75EB030E22BF17
:1007E000B61A754640EA0C005B084FEA3202B6EBD7
:1007F000020E75EB030E22BFB61A754640EA5C0086
:100800005B084FEA3202B6EB020E75EB030E22BF15
:10081000B61A754640EA9C005B084FEA3202B6EB16
:10082000020E75EB030E22BFB61A754640EADC00D5
:1008300055EA060E18D04FEA051545EA16754FEA37
:1008400006164FEAC30343EA52734FEAC2025FEA55
:100850001C1CC0D111F4801F0BD141EA00014FF0E4
:1008600000004FF0004CB6E711F4801F04BF0143B5
:100870000020B4F1FD0C88BFBCF5E06F3FF6AFAED1
:10088000B5EB030C04BFB6EB020C5FEA500C50F161
:10089000000041EB045170BD0EF0004E4EEA1131E4
:1008A00014EB5C04C2BFD4EB0C0541EA045170BDEB
:1008B00041F480114FF0000E013C90E645EA060E2F
:1008C0008DE60CEA135594EA0C0F08BF95EA0C0F5D
:1008D0003FF43BAF94EA0C0F0AD150EA01347FF4A5
:1008E00034AF95EA0C0F7FF425AF104619462CE77C
:1008F00095EA0C0F06D152EA03353FF4FDAE1046DF
:10090000194622E750EA410618BF52EA43067FF42F
:10091000C5AE50EA41047FF40DAF52EA43057FF4BF
:10092000EBAE12E74FF0FF3C06E000BF4FF0010CCA
:1009300002E000BF4FF0010C4DF804CD4FEA410C2E
:100940007FEA6C5C4FEA430C18BF7FEA6C5C1BD0FB
:1009500001B050EA410C0CBF52EA430C91EA030F7C
:1009600002BF90EA020F0020704710F1000F91EAD9
:10097000030F58BF994208BF90422CBFD8176FEAA7
:10098000E37040F0010070474FEA410C7FEA6C5C75
:1009900002D150EA013C07D14FEA430C7FEA6C5C7C
:1009A000D6D152EA033CD3D05DF8040B704700BFA8
:1009B0008446104662468C461946634600E000BFF6
:1009C00001B5FFF7B7FF002848BF10F1000F01BDC8
:1009D0004DF808EDFFF7F4FF0CBF012000205DF893
:1009E00008FB00BF4DF808EDFFF7EAFF34BF012018
:1009F00000205DF808FB00BF4DF808EDFFF7E0FFB1
:100A000094BF012000205DF808FB00BF4DF808ED01
:100A1000FFF7CEFF94BF012000205DF808FB00BF68
:100A20004DF808EDFFF7C4FF34BF012000205DF84A
:100A300008FB00BF4A0011D212F5001211D20DD5E9
:100A40006FF47873B3EB62520ED44FEAC12343F0D4
:100A5000004343EA505323FA02F070474FF000007E
:100A6000704750EA013002D14FF0FF3070474FF02D
:100A70000000704773B96AB9002908BF0028BCBFDD
:100A800000204FF00041C4BF6FF000414FF0FF3035
:100A900000F08CB882B0EC462DE9005000F056F81A
:100AA000DDF804E002B00CBC704700BF4BB942B99E
:100AB000002908BF002802D04FF0FF31084600F09F
:100AC00075B882B0EC462DE9005000F057F8DDF81B
:100AD00004E002B00CBC704738B500220023044685
:100AE0000D46FFF77FFF28B920462946BDE838406C
:100AF00000F00AB8204605F1004100F005F8404238
:100B000061EB410138BD00BF70B500220D4B0446BA
:100B10000D46FFF7F5FCFFF78DFF0646FFF77AFC61
:100B20000022094BFFF7ECFC02460B462046294603
:100B3000FFF732FBFFF77EFF002242EA0004204667
:100B4000314670BD0000F03D0000F0412DE97043DA
:100B5000069E14461D468046894600F029F804FB8F
:100B600001F300FB0533A4FB00451D44B8EB04046E
:100B700069EB0505C6E90045BDE870832DE97043C2
:100B8000069E1446804689461D4600F05DF900FB2E
:100B900005F504FB0153A0FB04451D44B8EB040418
:100BA00069EB0505C6E90045BDE87083704700BFE5
:100BB00000292DE9F00FC0F29F800024002BC0F225
:100BC0009680154606460F46002B3ED18A4257D9DD
:100BD000B2FA82F34BB1C3F1200201FA03F720FA13
:100BE00002F29D40174300FA03F6290CB7FBF1F21D
:100BF000330C01FB127CA8B243EA0C4700FB02F362
:100C0000BB4209D97F1902F1FF3C80F00181BB4250
:100C100040F2FE80023A2F44FF1AB7FBF1F3B6B25E
:100C200001FB137146EA014100FB03F0884208D939
:100C3000491903F1FF3780F0ED80884240F2EA80E5
:100C4000023B43EA0242002303E08B420AD900231D
:100C50001A461046194614B1404261EB4101BDE805
:100C6000F00F7047B3FA83F8B8F1000F40F08480BA
:100C70008B4202D3824200F2DE8000230122E8E7A9
:100C800012B90123B3FBF2F5B5FA85F2002A39D186
:100C90007F1B280C1FFA85FC0123B7FBF0F1320CF7
:100CA00000FB117742EA07470CFB01F2BA4207D971
:100CB0007F1901F1FF3802D2BA4200F2C1804146E9
:100CC000BF1AB7FBF0F2B6B200FB127046EA004062
:100CD0000CFB02FC844507D9401902F1FF3702D210
:100CE000844500F2AB803A4642EA0142B1E7E44370
:100CF000524263EB430364E7404261EB41014FF032
:100D0000FF345BE79540C2F1200327FA03F1280C7A
:100D100026FA03F39740B1FBF0F81F433B0C00FBAE
:100D200018111FFA85FC43EA01410CFB08F38B42C2
:100D300006FA02F608D9491908F1FF3279D28B4236
:100D400077D9A8F102082944C91AB1FBF0F3BFB260
:100D500000FB131147EA01470CFB03F2BA4207D923
:100D60007F1903F1FF3160D2BA425ED9023B2F44B2
:100D7000BF1A43EA084390E7C8F1200203FA08FCCF
:100D800025FA02F343EA0C0C4FEA1C4921FA02F35C
:100D900001FA08F720FA02F2B3FBF9F1174309FB55
:100DA00011333A0C1FFA8CFB42EA03430BFB01FAA6
:100DB0009A4505FA08F008D913EB0C0301F1FF324C
:100DC00035D29A4533D902396344CAEB0303B3FBE6
:100DD000F9F209FB1233BFB247EA03470BFB02F9F2
:100DE000B94508D917EB0C0702F1FF331BD2B945FF
:100DF00019D9023A674442EA0145A5FB0001C9EB53
:100E000007078F424FF000030AD305D02A4620E798
:100E1000624601E73B4614E706FA08F68642F5D239
:100E20006A1E002315E71A46E5E70B46A0E71146C0
:100E3000CBE7904688E7434642460AE7023A53E743
:100E400002392F443CE700BF2DE9F00F1446054658
:100E50000E46002B43D18A4253D9B2FA82F757B1DA
:100E6000C7F1200620FA06F601FA07F302FA07F4A2
:100E70001E4300FA07F5210CB6FBF1F22B0C01FB27
:100E80001267A0B243EA074600FB02F3B34209D956
:100E9000361902F1FF3780F0F680B34240F2F3805A
:100EA000023A2644F61AB6FBF1F3ADB201FB136128
:100EB00045EA014100FB03F0884208D9091903F112
:100EC000FF3680F0E280884240F2DF80023B43EA56
:100ED0000242002310461946BDE8F00F70478B42CE
:100EE0004AD8B3FA83F6002E4DD18B4202D3824208
:100EF00000F2D6800023012210461946BDE8F00F0B
:100F0000704712B90124B4FBF2F4B4FA84F2002A57
:100F10007CD1091B260CA7B20123B1FBF6F02A0CE9
:100F200006FB101142EA014107FB00F28A4207D991
:100F3000091900F1FF3C02D28A4200F2C3806046E8
:100F4000891AB1FBF6F2ADB206FB121145EA014572
:100F500007FB02F7AF4208D92C1902F1FF3180F0EC
:100F60009680A74240F29380023A42EA004210463D
:100F70001946BDE8F00F704700231A46104619467F
:100F8000BDE8F00F7047C6F1200522FA05F4B34022
:100F90001C434FEA144821FA05F301FA06F720FA38
:100FA00005F5B3FBF8FC2F4308FB1C333D0C1FFA7F
:100FB00084FA45EA03430AFB0CF9994502FA06FB59
:100FC00004D91B190CF1FF326DD39446C9EB03030E
:100FD000B3FBF8F508FB1533BFB247EA03470AFB3A
:100FE00005F8B84504D93F1905F1FF3361D31D4613
:100FF00045EA0C4CACFB0B23C8EB07079F424FF0B4
:10100000000549D345D062462B4663E79440C2F1C0
:10101000200321FA03FC260C20FA03F301FA02F55F
:10102000BCFBF6F843EA05010B0C06FB18CCA7B293
:1010300043EA0C4C07FB08F3634500FA02F509D9B3
:101040001CEB040C08F1FF323AD2634538D9A8F101
:101050000208A444C3EB0C0CBCFBF6F389B206FBFC
:1010600013CC41EA0C4107FB03F28A4207D9091964
:1010700003F1FF3022D28A4220D9023B2144891A4F
:1010800043EA084349E73A460CE733461FE70A4676
:101090006BE7B0409042B6D20CF1FF32002319E763
:1010A0003346324616E799458FD9ACF1020C2344FA
:1010B0008CE7B8459BD9023D274499E70346DEE714
:1010C0009046C7E7023821443AE700BF80B483B0B6
:1010D00000AF78600C37BD465DF8047B704700BFF9
:1010E00080B582B000AF786039607B680433184601
:1010F00006493A68002302F0D9FE7B68044A1A6068
:101100007B6818460837BD4680BD00BF140C002020
:1011100060D2000880B582B000AF78607B68094A71
:101120001A607B680433184602F008FF0023002B86
:1011300002D0786803F0E2F87B6818460837BD46AD
:1011400080BD00BF60D2000880B582B000AF78607B
:101150007868FFF7DFFF786803F0D0F87B681846FF
:101160000837BD4680BD00BF80B582B000AF786053
:101170007B6818460549FFF7B3FF7B68044A1A608D
:101180007B6818460837BD4680BD00BFB4C900085B
:1011900048D2000880B582B000AF78600A480121CB
:1011A0000122002304F02EFB084801210122002324
:1011B00004F028FB064801210122002304F022FB51
:1011C0000837BD4680BD00BFB0030020CC0300201F
:1011D000E803002080B582B000AF78607B68084AE1
:1011E0001A607B681846FFF795FF0023002B02D09A
:1011F000786803F083F87B6818460837BD4680BDE1
:1012000048D2000880B582B000AF78607868FFF7F8
:10121000E1FF786803F072F87B6818460837BD462E
:1012200080BD00BF80B582B000AF786039607B6858
:10123000012B18D13A684FF6FF739A4213D10B482D
:10124000352104F0ABFA0A48362104F0A7FA094820
:10125000372104F0A3FA0848FFF786FF064807493C
:10126000074A0BF0A1FB0837BD4680BDB003002044
:10127000CC030020E803002004040020D51100085E
:101280005C0D002080B500AF01204FF6FF71FFF725
:10129000C9FF80BD80B582B000AF78607B6818461A
:1012A0000549FFF71DFF7B68044A1A607B681846F2
:1012B0000837BD4680BD00BFC0C9000878D200080D
:1012C00080B582B000AF78600D480E49002205F06D
:1012D000CFFE0D480D4904F0C9FD0D484FF4E13132
:1012E00006F06AFD0A480321022206F083FD094840
:1012F0004FF4E13106F060FD0837BD4680BD00BF08
:101300001804002040420F0034040020A086010091
:10131000500400206C04002080B582B000AF7860DB
:101320007B68084A1A607B681846FFF7F3FE0023C3
:10133000002B02D0786802F0E1FF7B68184608377E
:10134000BD4680BD78D2000880B582B000AF78601D
:101350007868FFF7E1FF786802F0D0FF7B681846F5
:101360000837BD4680BD00BF80B584B002AF78604D
:1013700039607B68012B32D13A684FF6FF739A428D
:101380002DD11F230093174802211D221E2305F093
:101390002FFE154801211622172304F021FD4FF0DE
:1013A000FF3300934FF0FF330193104801211622C1
:1013B000172306F0A1FB4FF0FF3300934FF0FF33EC
:1013C00001930B4803212A222B2306F095FB0948A1
:1013D000FFF760FF07480849084A0BF0E5FA0837AD
:1013E000BD4680BD180400203404002050040020B5
:1013F0006C04002088040020191300085C0D0020F4
:1014000080B500AF01204FF6FF71FFF7ADFF80BD43
:1014100080B483B000AF78600C37BD465DF8047BC4
:10142000704700BF80B483B000AF78600B46FB709C
:1014300097F903307A68C3F1200362FA03F3184680
:101440000C37BD465DF8047B704700BF80B483B0A5
:1014500000AF78607B681B0C7A6853407B607B68C8
:101460000C4A02FB03F37B607B685B0B7A6853409A
:101470007B607B68084A02FB03F37B607B681B0C84
:101480007A6853407B607B6818460C37BD465DF830
:10149000047B70476BCAEB8535AEB2C280B58EB0A7
:1014A00000AFF860B9607A60BB68002B00DA0333E4
:1014B0009B10BB627B683B633D4B7B623D4B3B6259
:1014C000BB6A9B00FA681344FB61BB6A5B427B63A7
:1014D00027E07B6B9B00FA6913441B68BB61BB6907
:1014E0007A6A02FB03F3BB61B8690F21FFF79AFF29
:1014F000B861BB693A6A02FB03F3BB613A6BBB6933
:1015000053403B63386B0D21FFF78CFF38633A6B18
:1015100013469B001A44284B13443B637B6B0133F7
:101520007B637B6B002BD4D1BB6A9B00FA681344AE
:101530007B610023FB62BB6803F00303022B0BD02B
:10154000032B02D0012B0ED025E07B6902331B78E0
:101550001B04FA6A5340FB627B6901331B781B0250
:10156000FA6A5340FB627B691B78FA6A5340FB625C
:10157000FB6A7A6A02FB03F3FB62F86A0F21FFF74A
:1015800051FFF862FB6A3A6A02FB03F3FB623A6BB3
:10159000FB6A53403B63BB683A6B53403B63386B19
:1015A000FFF754FF38633B6B18463837BD4680BDA4
:1015B000512D9ECC9335871B646B54E680B483B069
:1015C00000AF78607B6800221A707B6818460C3781
:1015D000BD465DF8047B704780B58CB002AFF86003
:1015E0007A600A46FA72BB72FB7A3B7607F11803FF
:1015F00001337A681A60BB7A7B771C4809F066FF72
:101600001B48022100F074FF07F11803194819461E
:10161000062205F0B7FF164800F0B4FF4FF0FF3385
:101620007B62FF23FB7500233B6213E007F1170287
:1016300007F11603012100910E481146012206F020
:1016400037F8BB7DFF2B02D000237B6205E03B6AAD
:1016500001333B623B6A632BE8DD044809F094FFE9
:101660007B6A18462837BD4680BD00BF00070020B2
:10167000940600201804002080B582B000AF786086
:101680007868402100229523FFF7A6FF7868412162
:101690000022FF23FFF7A0FF786850214FF400726B
:1016A000FF23FFF799FF7B6801221A700023184679
:1016B0000837BD4680BD00BF80B582B000AF7860FE
:1016C00039607B68012B07D13A684FF6FF739A4265
:1016D00002D10348FFF772FF0837BD4680BD00BF47
:1016E0009C04002080B500AF01204FF6FF71FFF78A
:1016F000E3FF80BD80B582B000AF78607B6818469C
:10170000064964224FF4FA6309F08CFF7B68044AAF
:101710001A607B6818460837BD4680BDCCC90008F2
:1017200090D2000880B582B000AF78602E4809F0F2
:10173000CDFE2E48002100F0DBFE2D482D4902226F
:1017400005F020FF0346B3F1FF3F14BF0023012340
:10175000DBB2002B02D04FF0FF3340E02448264993
:10176000022205F00FFF0346B3F1FF3F14BF002331
:101770000123DBB2002B02D04FF0FF332FE01B48D8
:1017800000F000FF1948012100F0B2FE1848194985
:10179000022205F0F7FE0346B3F1FF3F14BF00231A
:1017A0000123DBB2002B02D04FF0FF3317E01048CB
:1017B0001149022205F0E6FE0346B3F1FF3F14BFD4
:1017C00000230123DBB2002B02D04FF0FF3306E0F1
:1017D000064800F0D7FE044809F0D6FE002318465C
:1017E0000837BD4680BD00BF0007002094060020DA
:1017F00018040020080000200C00002080B586B0EE
:1018000002AFF860B9607A601F4809F05FFE1F48B8
:10181000002100F06DFE062300931D481D490122A2
:10182000BB6805F045FF0346B3F1FF3F14BF00233B
:101830000123DBB2002B05D0144800F0A3FE4FF0CB
:10184000FF331DE0062300931148134901227B68F2
:1018500005F02EFF0346B3F1FF3F14BF0023012321
:10186000DBB2002B05D0094800F08CFE4FF0FF33AF
:1018700006E0064800F086FE034809F085FE0023D6
:1018800018461037BD4680BD000700209406002092
:1018900018040020000000200400002080B586B05D
:1018A00002AFF860B9607A601F4809F00FFE1F4868
:1018B000012100F01DFE062300931D481D49012251
:1018C000BB6805F0F5FE0346B3F1FF3F14BF0023EC
:1018D0000123DBB2002B05D0144800F053FE4FF07B
:1018E000FF331DE0062300931148134901227B6852
:1018F00005F0DEFE0346B3F1FF3F14BF00230123D2
:10190000DBB2002B05D0094800F03CFE4FF0FF335E
:1019100006E0064800F036FE034809F035FE0023D5
:1019200018461037BD4680BD0007002094060020F1
:101930001804002000000020040000200000000027
:1019400080B58CB002AF78607868FFF7EBFE7968FD
:10195000D1A3D3E90023CDE9002308464FF00002CC
:101960004FF0000302F08AFD07F1200207F118038F
:10197000786811461A46FFF741FF07F1100207F198
:101980000803786811461A46FFF788FF7B6803F55D
:10199000A07207F1200310461946062202F084FCCB
:1019A0007B6803F5A67207F110031046194606225C
:1019B00002F07AFC7B6803F5A37207F11803104666
:1019C0001946062202F070FC7B6803F5A97207F144
:1019D000080310461946062202F066FCA04B1B685D
:1019E000A04ADB001344D3E90023104619464FF008
:1019F00000029D4BFEF7AEFE02460B46104619460E
:101A0000FFF718F803469AB27B68A3F84021944B7D
:101A10001B68964ADB001344D3E90023104619469D
:101A20004FF00002904BFEF795FE02460B46104623
:101A30001946FEF7FFFF03469AB27B68A3F84221DE
:101A4000874B1B688A4ADB001344D3E90023104606
:101A500019464FF00002844BFEF77CFE02460B460F
:101A600010461946FEF7E6FF03469AB27B68A3F8D4
:101A700044217B4B1B687F4ADB001344D3E90023DE
:101A8000104619464FF00002774BFEF763FE024600
:101A90000B4610461946FEF7CDFF03469AB27B6807
:101AA000A3F84C216E4B1B68734ADB001344D3E947
:101AB0000023104619464FF000026B4BFEF74AFE1A
:101AC00002460B4610461946FEF7B4FF03469AB28B
:101AD0007B68A3F84E21624B1B68684ADB00134405
:101AE000D3E90023104619464FF000025E4BFEF783
:101AF00031FE02460B4610461946FEF79BFF034691
:101B00009AB27B68A3F85021554B1B685C4ADB00F6
:101B10001344D3E90023104619464FF000024FF05A
:101B20007D53FEF717FE02460B4610461946FEF798
:101B300081FF03469AB27B68A3F84621484B1B6895
:101B4000504ADB001344D3E90023104619464FF0F6
:101B500000024FF07D53FEF7FDFD02460B46104696
:101B60001946FEF767FF03469AB27B68A3F848213F
:101B70003B4B1B68444ADB001344D3E90023104667
:101B800019464FF000024FF07D53FEF7E3FD024689
:101B90000B4610461946FEF74DFF03469AB27B6886
:101BA000A3F84A212E4B1B68384ADB001344D3E9C3
:101BB0000023104619464FF000024FF07D53FEF708
:101BC000C9FD02460B4610461946FEF733FF034691
:101BD0009AB27B68A3F85221214B1B682C4ADB0088
:101BE0001344D3E90023104619464FF000024FF08A
:101BF0007D53FEF7AFFD02460B4610461946FEF731
:101C000019FF03469AB27B68A3F85421144B1B6852
:101C1000204ADB001344D3E90023104619464FF055
:101C200000024FF07D53FEF795FD02460B4610462D
:101C30001946FEF7FFFE03469AB27B68A3F85621C9
:101C4000074B1B685A1C064B1A60054B1B68052B7B
:101C500026DD034B00221A6022E000BFAFF30080B4
:101C6000180600201000002000407F3F7000002078
:101C7000D000002040000020A00000200001002033
:101C80003001002090010020F001002060010020C0
:101C9000C00100202002002080F0FA0200000000B5
:101CA00002F00AFD02460B46796801F5B871C1E9F8
:101CB00000237B6803F5A07304481946012200F055
:101CC00007F87B68184602F0EFFB4DE6600800203D
:101CD00080B584B000AFF860B9601346FB71FA6854
:101CE000FB791046B9681A46002302F0C1FD03468D
:101CF00018461037BD4680BD80B582B000AF786011
:101D00007B68084A1A607B68184609F0F9FC0023D2
:101D1000002B02D0786802F0F1FA7B681846083789
:101D2000BD4680BD90D2000880B582B000AF78601B
:101D30007868FFF7E1FF786802F0E0FA7B68184600
:101D40000837BD4680BD00BF80B582B000AF786067
:101D500039607B68012B0CD13A684FF6FF739A42C9
:101D600007D10548FFF7C6FC03480449044A0AF0B6
:101D70001BFE0837BD4680BDA0040020F91C0008EA
:101D80005C0D002080B500AF01204FF6FF71FFF71A
:101D9000DBFF80BD80B582B000AF78607B681846FD
:101DA000064964224FF4FA6309F03CFC7B68044A5C
:101DB0001A607B6818460837BD4680BDDCC900083C
:101DC000A8D2000880B487B000AFF860B9607A602C
:101DD000BB687B610023FB7409E07B695A1C7A6154
:101DE0001A78FB7C5340DBB2094AD35CFB747B68F6
:101DF0005A1E7A60002B0CBF00230123DBB2002B9C
:101E0000EBD1FB7C18461C37BD465DF8047B704760
:101E1000B8D2000880B584B000AF7860CC233B72A4
:101E200044237B7207F108030D481946022206F08D
:101E30009BF90B484FF0FF326FF0004301F08AFF2F
:101E40000023FB6005E0064806F006FAFB68013354
:101E5000FB60FB68012BF6DD1037BD4680BD00BF7F
:101E60006C04002080B58CB000AFF860C7E9002397
:101E700055233B7707F11C035A1C3B461046194675
:101E8000082202F011FABE2387F825300023FB62F6
:101E90004AE007F11C032B4819460A2206F064F9B0
:101EA00028484FF0FF326FF0004301F053FF00234A
:101EB000BB6205E0234806F0CFF9BB6A0133BB6281
:101EC000BB6A092BF6DD02F0F7FB1F4A4FF0000357
:101ED000121843EB01031B4801F062FF07F11003E6
:101EE00018481946092206F0D1F800BF154806F037
:101EF000B3F90346DB43DB0FDBB2002BF6D107F16E
:101F00001003F86819460822FFF75CFF03461A46DB
:101F10007B7E9A4214BF00230123DBB2002B00D04A
:101F200005E0FB6A0133FB62FB6A022BB1DD07F1BE
:101F300010031B88FB84FB8C1BB218463037BD4650
:101F400080BD00BF6C04002040420F0080B582B00D
:101F500000AF7860396010489021104A012304F0E6
:101F6000D5F80D4891213A68022304F003F93B6843
:101F70001B889BB21BB2184601F094FD03469AB22F
:101F80003B681A8004489021054A032304F0BEF8F8
:101F90000837BD4680BD00BF3404002088060020FD
:101FA0005402002080B582B000AF786039601048DC
:101FB0009021104A012304F0A9F80D4891213A68B4
:101FC000022304F0D7F83B681B889BB21BB218466B
:101FD00001F068FD03469AB23B681A8004489021DC
:101FE000054A032304F092F80837BD4680BD00BFC0
:101FF00034040020880600205002002080B582B002
:1020000000AF786004489021044A032304F07EF86E
:102010000837BD4680BD00BF3404002050020020B8
:1020200080B586B002AF78607868FFF7E7FF79681F
:102030004FA3D3E90023CDE9002308464FF0000267
:102040004FF0000302F01AFA0023FB730023BB6079
:10205000FB7B83F00103DBB2002B06D07B6850339F
:1020600078681946FFF772FF63E07B68523378683F
:102070001946FFF797FF3A4B1B683A4ADB001344B7
:10208000D3E90023104619462DA3D3E90023FEF718
:1020900085F802460B46104619462BA3D3E90023C8
:1020A000FEF758FB02460B4610461946FEF7C2FCE7
:1020B00003469AB27B68A3F85020294B1B682A4A32
:1020C000DB001344D3E900231046194620A3D3E9CB
:1020D0000023FEF763F802460B46104619461EA37E
:1020E000D3E90023FEF736FB02460B46104619469D
:1020F000FEF7A0FC03469AB27B68A3F85220184B67
:102100001B685A1C164B1A60154B1B68032B02DD0B
:10211000134B00221A6002F0CFFA02460B46796890
:10212000C1E918237B68503310481946012200F09A
:1021300043F9BB68002B1FD17868FFF76BFE13E1F2
:10214000CA8AE1EA80D7384029FD91DD5DDB833F13
:10215000226C787AA53C014070DFB42AD3794A3FDB
:102160009006002038030020180300208809002072
:1021700000E1F5050000000078684FF000024FF024
:102180000003FFF76FFE03469AB27B68A3F8562060
:1021900078684FF000024FF00003FFF763FE03463C
:1021A0009AB27B68A3F8582078684FF000024FF08D
:1021B0000003FFF757FE03469AB27B68A3F85A2044
:1021C00078684FF000024FF00003FFF74BFE034624
:1021D0009AB27B68A3F85C2078684FF000024FF059
:1021E0000003FFF73FFE03469AB27B68A3F8542032
:1021F00078684FF000024FF00003FFF733FE03460C
:102200009AB27B68A3F85E20614B1B68614ADB00D1
:102210001344D3E90023104619464FF000025E4BE9
:10222000FEF76EF902460B4610461946FEF702FC11
:1022300003469AB27B68A3F85620554B1B68574A51
:10224000DB001344D3E90023104619464FF0000287
:10225000514BFEF755F902460B4610461946FEF75C
:10226000E9FB03469AB27B68A3F85820484B1B68E9
:102270004B4ADB001344D3E90023104619464FF0C4
:102280000002454BFEF73CF902460B461046194644
:10229000FEF7D0FB03469AB27B68A3F85A203C4B6A
:1022A0001B68404ADB001344D3E90023104619465B
:1022B0004FF00002384BFEF723F902460B4610465A
:1022C0001946FEF7B7FB03469AB27B68A3F85C2079
:1022D0002F4B1B68344ADB001344D3E9002310461C
:1022E00019464FF000022C4BFEF70AF902460B4646
:1022F00010461946FEF79EFB03469AB27B68A3F888
:102300005420234B1B68294ADB001344D3E90023E4
:10231000104619464FF000021F4BFEF7F1F8024637
:102320000B4610461946FEF785FB03469AB27B68BA
:10233000A3F85E20164B1B685A1C154B1A60144BF1
:102340001B68032B02DD124B00221A6002F0B4F965
:1023500002460B467968C1E918237B68503314485C
:102360001946012200F028F8FB7B83F00103FB7380
:10237000BB680133BB60BB68012B01DCBB6800E0BC
:102380000023BB607B68184602F08EF860E600BF51
:102390008C06002058020020000030407802002007
:1023A00098020020B8020020D8020020F802002085
:1023B00088090020AFF3008080B584B000AFF860DA
:1023C000B9601346FB71FA68FB791046B9681A4682
:1023D000002302F04DFA034618461037BD4680BD73
:1023E00080B582B000AF78607B68084A1A607B686D
:1023F000184609F085F90023002B02D0786801F017
:102400007DFF7B6818460837BD4680BDA8D200080E
:1024100080B582B000AF78607868FFF7E1FF786838
:1024200001F06CFF7B6818460837BD4680BD00BFD1
:1024300080B582B000AF786039607B68012B0CD129
:102440003A684FF6FF739A4207D10548FFF7A2FC9E
:1024500003480449044A0AF0A7FA0837BD4680BD7C
:1024600020060020E12300085C0D002080B500AFAD
:1024700001204FF6FF71FFF7DBFF80BD80B582B012
:1024800000AF78607B6818460649FEF729FE7B6836
:10249000054A1A607B6800221A757B68184608375F
:1024A000BD4680BDECC90008C0D3000880B582B02D
:1024B00000AF78600B4801210122012303F0A2F94B
:1024C000094801210122012303F09CF90748012159
:1024D0000122012303F096F97B6800221A75083760
:1024E000BD4680BDAC060020C8060020E4060020E2
:1024F00080B582B000AF78600B46FB707B681B7DB7
:10250000002B02D04FF0FF3331E07B6801221A75B7
:10251000FB78012B10D0022B1BD0002B26D11648A4
:10252000012103F075FA1548012103F071FA1448EE
:10253000002103F06DFA19E01148012103F068FA57
:102540000E48012103F064FA0B48002103F060FA01
:102550000CE00B48012103F05BFA0748012103F06E
:1025600057FA0648002103F053FA00BF002318462B
:102570000837BD4680BD00BFC8060020E406002025
:10258000AC06002080B582B000AF78600848012119
:1025900003F03EFA0748012103F03AFA0648012108
:1025A00003F036FA7B6800221A750837BD4680BDF5
:1025B000AC060020C8060020E406002080B582B0EA
:1025C00000AF78607B68084A1A607B681846FEF79F
:1025D000A1FD0023002B02D0786801F08FFE7B68FC
:1025E00018460837BD4680BDC0D3000880B582B00C
:1025F00000AF78607868FFF7E1FF786801F07EFE51
:102600007B6818460837BD4680BD00BF80B582B0E4
:1026100000AF786039607B68012B1BD13A684FF6B8
:10262000FF739A4216D10D48FFF728FF0B480C495B
:102630000C4A0AF0B9F90C48262103F0AFF80B4810
:10264000272103F0ABF80A481C2103F0A7F809483A
:1026500008F024FF0837BD4680BD00BF9406002067
:10266000BD2500085C0D0020AC060020C806002037
:10267000E40600200007002080B500AF01204FF6DF
:10268000FF71FFF7C3FF80BD80B582B000AF7860F7
:102690007B681846064964224FF4FA6308F0C2FFCB
:1026A0007B68044A1A607B6818460837BD4680BDBF
:1026B000F8C90008D8D3000880B582B000AF7860B0
:1026C00001F0FAFF09A3D3E90023121843EB010339
:1026D00010461946002209F0F5F80348FEF7CCFF32
:1026E0000837BD4680BD00BF9C04002000CA9A3B4D
:1026F00000000000AFF3008080B582B000AF7860CA
:102700007B68084A1A607B68184608F0F9FF0023C6
:10271000002B02D0786801F0F1FD7B68184608377D
:10272000BD4680BDD8D3000880B582B000AF7860C8
:102730007868FFF7E1FF786801F0E0FD7B681846F4
:102740000837BD4680BD00BF80B582B000AF78605D
:1027500039607B68012B0CD13A684FF6FF739A42BF
:1027600007D10548FFF790FF03480449044A0AF0DF
:102770001BF90837BD4680BD10070020F926000868
:102780005C0D002080B500AF01204FF6FF71FFF710
:10279000DBFF80BD80B582B000AF78607B681846F3
:1027A000064964224FF4FA6308F03CFF7B68044A50
:1027B0001A607B6818460837BD4680BD08CA000805
:1027C000F0D3000880B483B000AF786039604FF078
:1027D000FF3318460C37BD465DF8047B704700BFD9
:1027E00080B586B000AF786033484FF0FF326FF0AD
:1027F000004301F0D5FA304805F02EFD78617B6981
:1028000013F15F0F56D17B69DBB23B732A484FF05F
:10281000FF326FF0004301F0C3FA274805F01CFDBA
:1028200078617B69DBB27B7323484FF0FF326FF036
:10283000004301F0B5FA204805F00EFD78617B6990
:102840009BB21B029BB2FB811B484FF0FF326FF023
:10285000004301F0A5FA184805F0FEFC7861FB89F9
:102860009AB27B699BB213409BB29BB2FB81124828
:102870004FF0FF326FF0004301F092FA0E4805F07E
:10288000EBFC78617B691B023B610B484FF0FF3228
:102890006FF0004301F084FA074805F0DDFC786131
:1028A0003A697B6913403B6107F10C03786819466C
:1028B000FFF788FF98E700BF5004002080B582B082
:1028C00000AF78607B68084A1A607B68184608F099
:1028D00017FF0023002B02D0786801F00FFD7B6802
:1028E00018460837BD4680BDF0D3000880B582B0D9
:1028F00000AF78607868FFF7E1FF786801F0FEFCD0
:102900007B6818460837BD4680BD00BF80B582B0E1
:1029100000AF786039607B68012B0CD13A684FF6C4
:10292000FF739A4207D10548FFF734FF0348044973
:10293000044A0AF039F80837BD4680BD6007002018
:10294000BD2800085C0D002080B500AF01204FF6C7
:10295000FF71FFF7DBFF80BD80B582B000AF78600C
:102960007B681846064964224FF4FA6308F05AFE61
:102970007B68044A1A607B6818460837BD4680BDEC
:1029800018CA000808D4000880B59AB002AF786071
:102990000023FB65796827A3D3E90023CDE9002351
:1029A00008464FF000024FF0000301F067FD07F109
:1029B0000C037868194600F043F807F14003786883
:1029C000194600F081F807F130037868194600F0E5
:1029D000BFF8FB6D002B0AD107F1400314481946DC
:1029E0001A2205F0C1FBFB6D0133FB6519E0FB6D9D
:1029F000012B0AD107F10C030D481946222205F0DC
:102A0000B3FBFB6D0133FB650BE0FB6D022B08D1C3
:102A100007F1300306481946102205F0A5FB0023F4
:102A2000FB657B68184601F03FFDC0E7AFF300800F
:102A300050040020AA21EF0900000000AFF300803D
:102A400090B583B000AF786039607B6850331C4824
:102A5000194600F0E9F83B68A8221A703B68591C37
:102A60007B68D3E92023D3B20B703B68023300228A
:102A70001A703B68033300221A703B680433114A12
:102A800012881A803B689A1D7B685033104619469D
:102A9000182201F009FC3B6803F11E0478683968CC
:102AA0001E2200F0AFF803462360064B1B8801335B
:102AB0009AB2044B1A80222318460C37BD4690BDAB
:102AC000880800205808002090B583B000AF7860D7
:102AD00039607B6888331C48194600F0DBF83B6896
:102AE000A4221A703B68591C7B68D3E92623D3B211
:102AF0000B703B68023300221A703B6803330022DC
:102B00001A703B680433114A12881A803B689A1D78
:102B10007B68883310461946102201F0C5FB3B68DC
:102B200003F1160478683968162200F06BF8034642
:102B30002360064B1B8801339AB2044B1A801A2378
:102B400018460C37BD4690BDB00900205A08002039
:102B500090B585B000AF786039607B68A0332648B7
:102B6000194600F0C3F83B68A2221A7001F0A4FDD8
:102B700002460B4610461946204A4FF00003FDF767
:102B800079FF02460B46C7E902233B6801333A7AD4
:102B90001A703B68023300221A703B68033300222C
:102BA0001A703B680433164A12881A803B68063351
:102BB0007A6892F8A520D2B21A703B68DA1D7B6859
:102BC000A03310461946052201F06EFB3B6803F165
:102BD0000C04786839680C2200F014F8034623606E
:102BE000074B1B8801339AB2054B1A8010231846F5
:102BF0001437BD4690BD00BF780A002040420F0048
:102C00005C08002080B584B000AFF860B9607A60DD
:102C1000B868796841F23732FEF740FC034618463F
:102C20001037BD4680BD00BFF0B484B000AF7860FF
:102C300039607B68012283F8B8207B68D3F8B03014
:102C4000FB603A68FB6803F1300411461846D0F87F
:102C500000C046688568C068C1F800C04E608D60DD
:102C6000C86010331032A342EFD119685B6811605D
:102C700053607B68002283F8B8207B68D3E9322355
:102C8000013243F100037968C1E932231037BD46B0
:102C9000F0BC7047B0B485B000AF786039607B6835
:102CA000012283F858207B681B6DFB603B68FA6843
:102CB000106851689568D468186059609D60DC6040
:102CC00010695169186159617B68002283F85820A6
:102CD0007B68D3E91A23013243F100037968C1E923
:102CE0001A231437BD46B0BC704700BF80B485B00E
:102CF00000AF786039607B68012283F820207B6810
:102D00009B69FB603B68FA681168196012791A7157
:102D10007B68002283F820207B68D3E90C230132F2
:102D200043F100037968C1E90C231437BD465DF80F
:102D3000047B704780B582B000AF78607B68084A3A
:102D40001A607B68184608F0DBFC0023002B02D0D9
:102D5000786801F0D3FA7B6818460837BD4680BD15
:102D600008D4000880B582B000AF78607868FFF7BB
:102D7000E1FF786801F0C2FA7B6818460837BD4663
:102D800080BD00BF80B582B000AF786039607B68DD
:102D9000012B0CD13A684FF6FF739A4207D10548D0
:102DA000FFF7DAFD03480449044A09F0FDFD08373E
:102DB000BD4680BDB0070020352D00085C0D002009
:102DC00080B500AF01204FF6FF71FFF7DBFF80BD3C
:102DD00080B582B000AF78607B680A4A1A600A4802
:102DE00000F006FF7B680433184601F0A7F80023C3
:102DF000002B02D0786801F081FA7B68184608370A
:102E0000BD4680BD00D5000828CA000880B582B044
:102E100000AF78607868FFF7DBFF786801F06EFA42
:102E20007B6818460837BD4680BD00BF80B582B0BC
:102E300000AF78607B680A4A1A600A4800F0D8FE42
:102E40007B680433184601F079F80023002B02D088
:102E5000786801F053FA7B6818460837BD4680BD94
:102E600068D5000838CA000880B582B000AF786025
:102E70007868FFF7DBFF786801F040FA7B68184656
:102E80000837BD4680BD00BF80B582B000AF786016
:102E90007B68064A1A600023002B02D0786801F094
:102EA0002DFA7B6818460837BD4680BDE8D4000877
:102EB00080B582B000AF78607868FFF7E5FF78688A
:102EC00001F01CFA7B6818460837BD4680BD00BF7C
:102ED00080B584B000AFF860B9607A603B600448A8
:102EE00000F086FE002318461037BD4680BD00BFA7
:102EF0004CCA000880B584B000AFF860B9607A6051
:102F0000FB681846B96838227B6801F041FCFB6811
:102F1000034A1A60FB6818461037BD4680BD00BFE3
:102F2000D8D4000880B483B000AF78607B68044ACE
:102F30001A607B6818460C37BD465DF8047B704705
:102F4000E8D4000880B582B000AF78607B6818468E
:102F5000FFF7E8FF7B68144A1A607B681A1D7B68DC
:102F6000C3F8AC207B6803F13C027B68C3F8B02057
:102F70007B6803F174027B68C3F8B4207B6800228D
:102F800083F8B82079684FF000024FF00003C1E9E0
:102F900032237B68D3E932237968C1E930237B6827
:102FA00018460837BD4680BDC0D4000880B584B03F
:102FB00000AFF860B9607A60FB681846B9681822FB
:102FC0007B6801F0E5FBFB68034A1A60FB68184662
:102FD0001037BD4680BD00BFB0D4000880B582B0B8
:102FE00000AF78607B681846FFF79CFF7B68134A48
:102FF0001A607B681A1D7B68DA647B6803F11C0227
:103000007B681A657B6803F134027B685A657B68CC
:10301000002283F8582079684FF000024FF0000337
:10302000C1E91A237B68D3E91A237968C1E9182317
:103030007B6818460837BD4680BD00BF98D400089D
:1030400080B584B000AFF860B9607A60FB6818465C
:10305000B96805227B6801F09BFBFB68034A1A6094
:10306000FB6818461037BD4680BD00BF88D40008F5
:1030700080B582B000AF78607B681846FFF752FFDA
:103080007B68134A1A607B681A1D7B685A617B68EB
:1030900003F109027B689A617B6803F10E027B6889
:1030A000DA617B68002283F8202079684FF0000203
:1030B0004FF00003C1E90C237B68D3E90C23796846
:1030C000C1E90A237B6818460837BD4680BD00BFAA
:1030D00070D4000880B584B000AFF860B9607A6041
:1030E000FB681846B96807227B6801F051FBFB6852
:1030F000034A1A60FB6818461037BD4680BD00BF02
:1031000060D4000880B582B000AF78607B68184654
:10311000FFF708FF7B68134A1A607B681A1D7B68FB
:10312000DA617B6803F10B027B681A627B6803F14A
:1031300012027B685A627B68002283F82820796833
:103140004FF000024FF00003C1E90E237B68D3E982
:103150000E237968C1E90C237B6818460837BD4601
:1031600080BD00BF48D4000880B584B000AFF860CF
:10317000B9607A60FB681846B96806227B6801F07E
:1031800007FBFB68034A1A60FB6818461037BD4608
:1031900080BD00BF38D4000880B582B000AF786031
:1031A0007B681846FFF7BEFE7B68134A1A607B688F
:1031B0001A1D7B689A617B6803F10A027B68DA61F9
:1031C0007B6803F110027B681A627B68002283F837
:1031D000242079684FF000024FF00003C1E90C236E
:1031E0007B68D3E90C237968C1E90A237B68184618
:1031F0000837BD4680BD00BF20D4000880B582B02E
:1032000000AF78607B68084A1A607B681846FFF751
:103210003BFE0023002B02D0786801F06FF87B683A
:1032200018460837BD4680BD20D4000880B582B05E
:1032300000AF78607868FFF7E1FF786801F05EF82A
:103240007B6818460837BD4680BD00BF80B582B098
:1032500000AF78607B68084A1A607B681846FFF701
:1032600013FE0023002B02D0786801F047F87B683A
:1032700018460837BD4680BD48D4000880B582B0E6
:1032800000AF78607868FFF7E1FF786801F036F802
:103290007B6818460837BD4680BD00BF80B582B048
:1032A00000AF78607B68084A1A607B681846FFF7B1
:1032B000EBFD0023002B02D0786801F01FF87B683B
:1032C00018460837BD4680BD70D4000880B582B06E
:1032D00000AF78607868FFF7E1FF786801F00EF8DA
:1032E0007B6818460837BD4680BD00BF80B582B0F8
:1032F00000AF78607B68084A1A607B681846FFF761
:10330000C3FD0023002B02D0786800F0F7FF7B6834
:1033100018460837BD4680BD98D4000880B582B0F5
:1033200000AF78607868FFF7E1FF786800F0E6FFAB
:103330007B6818460837BD4680BD00BF80B582B0A7
:1033400000AF78607B68084A1A607B681846FFF710
:103350009BFD0023002B02D0786800F0CFFF7B6834
:1033600018460837BD4680BDC0D4000880B582B07D
:1033700000AF78607868FFF7E1FF786800F0BEFF83
:103380007B6818460837BD4680BD00BF80B584B055
:1033900002AF786039607B68012B40F0A6803A6804
:1033A0004FF6FF739A4240F0A08051484FF0FF3132
:1033B000504AFFF79FFD4E484F49504A09F0F4FA32
:1033C0004F48FFF7BFFD4E484E494C4A09F0ECFA12
:1033D000002300934C484649494A4C4B00F098FF63
:1033E00049484B49454A09F0DFFA4A484FF0FF3156
:1033F000494AFFF7DBFD47484849404A09F0D4FAFB
:103400004748FFF7EBFD464846493C4A09F0CCFAED
:103410000023009344483F49414A3C4B00F078FF69
:1034200041483B49354A09F0BFFA40484FF0FF3167
:103430003F4AFFF705FE3D483E49304A09F0B4FADD
:103440003D48FFF715FE3C483C492C4A09F0ACFAD0
:10345000002300933A483549374A2C4B00F058FF77
:1034600037482B49254A09F09FFA36484FF0FF317B
:10347000354AFFF72FFE33483449204A09F094FAC1
:103480003348FFF73FFE324832491C4A09F08CFAB4
:103490000023009330482B492D4A1C4B00F038FF85
:1034A0002D481B49154A09F07FFA2C484FF0FF318F
:1034B0002B4AFFF759FE29482A49104A09F074FAA5
:1034C0002948FFF769FE284828490C4A09F06CFA98
:1034D0000023009326482149234A0C4B00F018FF93
:1034E00023480B49054A09F05FFA0837BD4680BDFD
:1034F00060080020D4CA0008E93700085C0D0020ED
:10350000880800203D33000858090020E0CA000860
:103510002D2E000888090020F4CA00085937000839
:10352000B0090020ED320008200A0020500A0020D7
:1035300008CB0008C9360008780A00209D32000830
:10354000B00A0020E00A002018CB00083936000835
:10355000080B00204D320008480B0020780B00209B
:1035600024CB0008A9350008A00B0020FD3100087D
:10357000D80B002080B584B000AFF860B9607A60E5
:103580003B607B68062B04D9064800F031FB002322
:1035900004E0F868396800F055F90123184610373F
:1035A000BD4680BD38CB000880B582B000AF7860E2
:1035B0007B680A4A1A600A4800F01AFB7B681846C2
:1035C000FFF706FC0023002B02D0786800F096FE7F
:1035D0007B6818460837BD4680BD00BF38D4000858
:1035E0004CCB000880B582B000AF78607868FFF7F8
:1035F000DBFF786800F082FE7B6818460837BD461E
:1036000080BD00BF80B584B000AFF860B9607A605B
:103610003B607B68072B04D9064800F0E9FA0023D9
:1036200004E0F868396800F041F9012318461037C2
:10363000BD4680BD38CB000880B582B000AF786051
:103640007B680A4A1A600A4800F0D2FA7B6818467A
:10365000FFF7BEFB0023002B02D0786800F04EFE7F
:103660007B6818460837BD4680BD00BF60D400089F
:103670004CCB000880B582B000AF78607868FFF767
:10368000DBFF786800F03AFE7B6818460837BD46D5
:1036900080BD00BF80B584B000AFF860B9607A60CB
:1036A0003B607B68052B04D9064800F0A1FA002393
:1036B00004E0F868396800F02FF901231846103744
:1036C000BD4680BD38CB000880B582B000AF7860C1
:1036D0007B680A4A1A600A4800F08AFA7B68184632
:1036E000FFF776FB0023002B02D0786800F006FE7F
:1036F0007B6818460837BD4680BD00BF88D40008E7
:103700004CCB000880B582B000AF78607868FFF7D6
:10371000DBFF786800F0F2FD7B6818460837BD468D
:1037200080BD00BF80B584B000AFF860B9607A603A
:103730003B607B68182B04D9064800F059FA002337
:1037400004E0F868396800F01BF9012318461037C7
:10375000BD4680BD38CB000880B582B000AF786030
:103760007B680A4A1A600A4800F042FA7B681846E9
:10377000FFF72EFB0023002B02D0786800F0BEFD7F
:103780007B6818460837BD4680BD00BFB0D400082E
:103790004CCB000880B582B000AF78607868FFF746
:1037A000DBFF786800F0AAFD7B6818460837BD4645
:1037B00080BD00BF80B584B000AFF860B9607A60AA
:1037C0003B607B68382B04D9064800F011FA0023CF
:1037D00004E0F868396800F00FF901231846103743
:1037E000BD4680BD38CB000880B582B000AF7860A0
:1037F0007B680A4A1A600A4800F0FAF97B681846A2
:10380000FFF7E6FA0023002B02D0786800F076FD7F
:103810007B6818460837BD4680BD00BFD8D4000875
:103820004CCB000880B582B000AF78607868FFF7B5
:10383000DBFF786800F062FD7B6818460837BD46FC
:1038400080BD00BF80B485B000AF786039607B6810
:103850009B693A681168196092889A807B68DB6975
:10386000FB607B689A697B68DA617B68FA689A61B9
:103870007B6893F82430DBB2002B09D07B689B690E
:10388000FB607B681A6A7B689A617B68FA681A62D7
:103890007B68D3E90A23013243F100037968C1E967
:1038A0000A231437BD465DF8047B704780B485B0A9
:1038B00000AF786039607B68DB693A68116819602D
:1038C0009188927999809A717B681B6AFB607B680A
:1038D000DA697B681A627B68FA68DA617B6893F858
:1038E0002830DBB2002B09D07B68DB69FB607B688A
:1038F0005A6A7B68DA617B68FA685A627B68D3E946
:103900000C23013243F100037968C1E90C23143719
:10391000BD465DF8047B704780B485B000AF786029
:1039200039607B685B693A681168196012791A71AD
:103930007B689B69FB607B685A697B689A617B68DE
:10394000FA685A617B6893F82030DBB2002B09D00B
:103950007B685B69FB607B68DA697B685A617B68BE
:10396000FA68DA617B68D3E90A23013243F1000384
:103970007968C1E90A231437BD465DF8047B7047B6
:10398000B0B485B000AF786039607B68DB6C3A68B2
:10399000106851689568D468186059609D60DC6053
:1039A00010695169186159617B681B6DFB607B6808
:1039B000DA6C7B681A657B68FA68DA647B6893F86E
:1039C0005830DBB2002B09D07B68DB6CFB607B6876
:1039D0005A6D7B68DA647B68FA685A657B68D3E95C
:1039E0001823013243F100037968C1E91823143721
:1039F000BD46B0BC704700BFF0B484B000AF786083
:103A000039607B68D3F8AC203B6803F13004114681
:103A10001846D0F800C046688568C068C1F800C084
:103A20004E608D60C86010331032A342EFD1196828
:103A30005B68116053607B68D3F8B030FB607B68D3
:103A4000D3F8AC207B68C3F8B0207B68FA68C3F871
:103A5000AC207B6893F8B830DBB2002B0DD07B68CC
:103A6000D3F8AC30FB607B68D3F8B4207B68C3F834
:103A7000AC207B68FA68C3F8B4207B68D3E93023B4
:103A8000013243F100037968C1E930231037BD46A4
:103A9000F0BC704780B500AF01204FF6FF71FFF713
:103AA00075FC80BD80B485B000AF0346FB80FB8809
:103AB0003B8107F10803FB60FB681B78FB72FB6826
:103AC0005A78FB681A70FB680133FA7A1A703B89DE
:103AD0001BB218461437BD465DF8047B704700BF23
:103AE00080B582B000AF78607B68064A1A60002318
:103AF000002B02D0786800F001FC7B68184608377C
:103B0000BD4680BD10D5000880B582B000AF78609A
:103B10007868FFF7E5FF786800F0F0FB7B681846EF
:103B20000837BD4680BD00BF80B582B000AF786069
:103B30000B46FB7097F90330184607F023FA083755
:103B4000BD4680BD80B483B000AF78607B68044A16
:103B50001A607B6818460C37BD465DF8047B7047D9
:103B600010D500080FB480B582B000AF1C4B1B68A5
:103B7000002B2FD03B461846FFF7E4FF07F1140354
:103B80007B60184B1B68002B05D0164B1B68164832
:103B9000194601F0F1FA07F04BFC034683F00103EC
:103BA000DBB2002B05D03B461846396901F072F8AC
:103BB0000AE00E4807F08AFC3B461846396901F0D6
:103BC00069F80A4807F0E0FC07F01EFA3B46184681
:103BD000FFF786FF0837BD46BDE8804004B0704758
:103BE0005C0300201C0C002064CB0008200C00208B
:103BF00080B582B000AF7860074B7A681A600748DA
:103C00007968FFF7AFFF064B1B685A1C044B1A601C
:103C10000837BD4680BD00BF5803002078CB0008A0
:103C20001C0C002080B582B000AF786039607B68E2
:103C3000012B07D13A684FF6FF739A4202D103482D
:103C400007F02CFC0837BD4680BD00BF200C0020CB
:103C500080B500AF01204FF6FF71FFF7E3FF80BD95
:103C60000FB480B400AF00231846BD465DF8047B56
:103C700004B0704780B483B000AF78600C37BD46A5
:103C80005DF8047B704700BF0FB480B400AF002321
:103C90001846BD465DF8047B04B070470FB480B48D
:103CA00000AF00231846BD465DF8047B04B07047A2
:103CB00080B483B000AF7860002318460C37BD464F
:103CC0005DF8047B704700BF80B483B000AF7860BC
:103CD000002318460C37BD465DF8047B704700BFD3
:103CE0000FB480B400AF00231846BD465DF8047BD6
:103CF00004B070470FB480B400AF00231846BD462F
:103D00005DF8047B04B070470FB480B400AF0023AB
:103D10001846BD465DF8047B04B0704780B483B09C
:103D200000AF78607B680A4A1A607B6800221A61DB
:103D30007B6800225A607B6800229A607B680022C0
:103D4000DA607B6818460C37BD465DF8047B704727
:103D500028D5000880B584B000AFF860C7E900231B
:103D600006F036FDFB681B6810331B68F86898473F
:103D70000346002B02D006F033FD0EE007F07AFD7B
:103D80000246FB689A60FB689968D7E90023C1E99D
:103D90000A2306F025FD07F0F7FC1037BD4680BD6D
:103DA00080B584B000AFF860C7E9002306F010FDCD
:103DB000FB681B6818331B68F86898470346002B9C
:103DC00002D006F00DFD0EE007F054FD0246FB6840
:103DD000DA60FB68D968D7E90023C1E90A2306F055
:103DE000FFFC07F0D1FC1037BD4680BD80B582B026
:103DF00000AF78607B689B68002B04D07B689B6871
:103E0000184607F043FD7B6800229A607B681B69B7
:103E1000002B07D07B681B691B681B687A681269D6
:103E2000104698470837BD4680BD00BF80B582B0B8
:103E300000AF78607B685B68002B04D07B685B68B0
:103E4000184607F023FD7B6800225A607B681B69D7
:103E5000002B08D07B681B691B6804331B687A68D9
:103E60001269104698470837BD4680BD80B582B0BC
:103E700000AF78607B68DB68002B04D07B68DB6870
:103E8000184607F003FD7B680022DA607B681B6937
:103E9000002B08D07B681B691B6808331B687A6895
:103EA0001269104698470837BD4680BD80B584B07A
:103EB00000AFF860B9607A603B60FB683A68DA602E
:103EC000FB687A685A60084B1B68591C064A1160E7
:103ED000FA689360F868B96800F008F8FB6818465B
:103EE0001037BD4680BD00BF300C002080B582B0C9
:103EF00000AF786039603B681A687B681A603B687D
:103F00007A681A600A4B1B68002B0CBF0023012340
:103F1000DBB2002B08D00748FFF76AFE7B685B68BE
:103F200005481946FFF71EFE0837BD4680BD00BF95
:103F3000A01F0020A4CB0008D8CB000880B582B019
:103F400000AF78600348FFF753FE7B6818460837D8
:103F5000BD4680BDFCCB000880B483B000AF786064
:103F60007B681B6818460C37BD465DF8047B7047BC
:103F700080B483B000AF78607B685B6818460C370C
:103F8000BD465DF8047B704780B588B000AF012363
:103F90003B60FB785BB2012B14BF00230123DAB234
:103FA0006E4B1A7006F0B8FF6D4801F0E5F86D4BE6
:103FB0001B68002B03D06B4B1B68043B00E0002305
:103FC000FB6110E0FB691B681B68F8699847FB6997
:103FD00004331846FFF7C0FF0346002B01D0043B13
:103FE00000E00023FB61FB69002BEBD15E4B1B68FB
:103FF000002B03D05C4B1B68043B00E00023BB613B
:1040000011E0BB691B6808331B68B8699847BB6936
:1040100004331846FFF7A0FF0346002B01D0043BF2
:1040200000E00023BB61BB69002BEAD14F4801F0DF
:10403000A3F84F4B1B68002B03D04D4B1B68043B70
:1040400000E000237B6121E07B6904331846FFF721
:1040500083FF0346002B01D0043B00E00023BB603C
:104060007B691B7F002B06D07B69043318464149CE
:10407000FFF73CFF08E07B691A1D7B695B6914331D
:1040800010461946FFF732FFBB687B617B69002B46
:10409000DAD1394B1B68002B4DD0384801F06CF851
:1040A000354B1B68002B03D0334B1B68043B00E0EF
:1040B00000233B613CE03B6904331846FFF758FF9F
:1040C00001463B69DA693B691B6A2D4801F054F8E7
:1040D0003B695B69002B03D03B695B69043B00E0F3
:1040E0000023FB6015E0FB6804331846FFF740FF30
:1040F00003462448194601F03FF8FB68043318468C
:10410000FFF72AFF0346002B01D0043B00E0002309
:10411000FB60FB68002BE6D13B6904331846FFF7D0
:104120001BFF0346002B01D0043B00E000233B6152
:104130003B69002BBFD1144801F01EF800F068FA6B
:1041400078607B68002B03D01048796801F014F880
:1041500007F0F2FB2037BD4680BD00BF380C0020C1
:1041600010CC0008140C00205820002040CC00087F
:10417000180C0020980C0020340C002064CC00089F
:1041800080CC0008ACCC0008B8CC0008CCCC00082F
:104190002DE9F04184B002AF78603960264B7A682F
:1041A0001A60264B3A681A6006F0D2FA244825496C
:1041B000254A00F0E1FF07F093FEFFF7E5FE06F069
:1041C00069FA03461E4606F085FA054606F08CFAA3
:1041D000044606F06BFA804606F072FA0346CDF804
:1041E00000800193194831462A46234600F0C4FF57
:1041F00007F032FF044607F02FFF0346144821461C
:104200001A4600F0B9FF134800F0B6FF00F026F898
:1042100042F210704FF0000106F094FD06F03AFDF6
:104220000D4800F0A9FF07F0A1F800231846083751
:10423000BD46BDE8F08100BF3C0C0020400C0020D2
:10424000E8CC000818CD000824CD00083CCD0008BB
:10425000A0CD0008C0CD0008F8CD000880B500AFA3
:10426000014800F089FF80BD2CCE000880B485B0E5
:1042700000AF78600023FB607B68002B01D1002336
:104280000BE005E0FB680133FB607B6801337B607A
:104290007B681B78002BF5D1FB6818461437BD46A8
:1042A0005DF8047B704700BF80B487B000AFF86052
:1042B000B9607A60FB687B61BB683B617B69002BFE
:1042C00002D03B69002B01D1002311E00CE03B69D7
:1042D0001A787B691A707B68013B7B603B6901330C
:1042E0003B617B6901337B617B68002BEFD1FB680D
:1042F00018461C37BD465DF8047B704780B483B018
:1043000000AF78600C37BD465DF8047B704700BF96
:1043100080B584B000AFF860B9607A603B60FB683C
:10432000043318461049114A0023FFF7BFFDFB680C
:104330000F4A1A60FB68BA685A61FB682033184656
:1043400007F0ACF8FB683A7E1A77FB6801225A77CF
:10435000FB683A689A60FB687A689A61FB6818465D
:104360001037BD4680BD00BF180C002058CE000895
:1043700068D5000880B485B000AFF860B9607A6095
:104380003B60034B18461437BD465DF8047B70470D
:1043900015CD5B0790B587B002AFF860B9607A6061
:1043A0003B60FB685B7F83F00103DBB2002B01D035
:1043B00000233DE0FB682033184607F087F8FB68D0
:1043C0009B69002B0FD0FB689B691B6808331C6836
:1043D000FB689A697B68396A00911046B9681A4689
:1043E0003B68A04718E0FB681B681C683B6A5B6978
:1043F0000093F868B9687A683B68A04702460E4B9C
:104400009A420CBF00230123DBB2002B04D00B48DF
:10441000FFF7EEFB01230BE0FB682033184607F0A3
:10442000B3F8FB689B69002B01D0012300E0002357
:1044300018461437BD4690BD15CD5B0764CE000805
:1044400090B58DB002AFF860B9607A603B60FB68F0
:104450009B69002B0FD0FB689B691B6808331C68A5
:10446000FB689A693B6807F1100100911046B96832
:104470001A467B68A0472C37BD4690BD80B485B0F6
:1044800000AFF860C7E90023F968D7E90023C1E964
:104490000E23F968D7E90623C1E910231437BD4676
:1044A0005DF8047B704700BFB0B586B002AF78609E
:1044B00006E04FF0FF306FF00041002207F002FAF3
:1044C0007B68D3E9102352EA0301F2D07B68D3E979
:1044D0000E2310461946002207F0F4F900F0ECF81C
:1044E000C7E902017B68D3E90E017B68D3E9102399
:1044F000D7E90245CDE9004500F0E8F802460B4651
:104500007968C1E90E231037BD46B0BD80B584B0CF
:1045100000AF786007F0AEF9F860F86807F090F93E
:10452000B860F868796807F097F9BB6818461037E3
:10453000BD4680BDB0B586B002AFC7E9000100231B
:10454000FB60324B1B68002B03D0304B1B68043BD5
:1045500000E00023BB6051E0BB68D3E90601D7E966
:104560000023904271EB030C3CDABB68D3E90823CB
:1045700052EA030107D1B9684FF0FF326FF00043F0
:10458000C1E9062325E0BB68D3E90601BB68D3E98E
:104590000823121843EB0103B968C1E90623BB687D
:1045A000D3E90601D7E90023904271EB030C10DA3E
:1045B000BB68D3E90601BB68D3E90823D7E9004506
:1045C000CDE9004500F082F802460B46B968C1E922
:1045D0000623BB681B6808331B68B8689847FB68EC
:1045E0000133FB60BB6804331846FFF7B5FC034694
:1045F000002B01D0043B00E00023BB60BB68002B14
:10460000AAD1FB6818461037BD46B0BD100C00207B
:1046100080B582B000AF00237B60144B1B68002B79
:1046200003D0124B1B68043B00E000233B6014E006
:104630003B681B680C331B68386898477B680133FC
:104640007B603B6804331846FFF786FC0346002B6B
:1046500001D0043B00E000233B603B68002BE7D126
:104660007B6818460837BD4680BD00BF100C00208F
:1046700080B483B000AF786079684FF000024FF0EB
:104680000003C1E9002379684FF000024FF00003F6
:10469000C1E9022379684FF000024FF00003C1E93D
:1046A00004237B6811229A617B6818460C37BD464B
:1046B0005DF8047B704700BF80B500AF06F0C8FB13
:1046C00002460B461046194680BD00BF80B584B037
:1046D00000AFC7E90201C7E90023D7E90223D7E900
:1046E0000601904271EB030C02DAD7E902232CE0B9
:1046F000D7E9002352EA030104D14FF0FF326FF0F3
:10470000004322E0D7E90601D7E90223821A61EBD0
:10471000030310461946D7E90023FCF7ABF902461C
:104720000B46013243F10003396803FB01F079685D
:1047300002FB01F101443868A0FB022319440B4637
:10474000D7E90201121843EB01031046194610374E
:10475000BD4680BD80B582B000AF786039607B68AF
:10476000012B07D13A684FF6FF739A4202D10348F2
:10477000FFF77EFF0837BD4680BD00BF480C002014
:1047800080B500AF01204FF6FF71FFF7E3FF80BD5A
:1047900080B586B000AFF860B9607A603B60FB68B6
:1047A000043318462E493A680023FFF77FFBFB6865
:1047B0002C4A1A60FB6800225A61FB68BA68DA6109
:1047C000FB687A681A62FB6800229A61FB68DB6901
:1047D000B3F1FF3F11D1386807F0F6FB03461A46E4
:1047E000FB68DA61FB68DB69B3F57A7F05DAFB68A1
:1047F000DB6903F57A72FB68DA61194B1B68002BE1
:1048000003D0174B1B68043B00E000237B611EE0D4
:104810007B69DA69BB689A420DD17A69FB689A4272
:1048200009D01148FFF7E4F97B699B680F48B96824
:104830003A68FFF797F97B6904331846FFF78CFB5A
:104840000346002B01D0043B00E000237B617B6921
:10485000002BDDD1FB6818461837BD4680BD00BF70
:10486000340C002000D50008C4CE0008D8CE0008C3
:1048700080B586B002AFF860B9603B601346FB714B
:10488000FB681B6A1A46FB7939680091F868B968B9
:1048900000F006F8034618461037BD4680BD00BF3D
:1048A00090B591B002AFF860B9607A60FB700023F8
:1048B0007B63BB6C002B12D100237B62FFF7FCFEF5
:1048C00002460B46C7E9062307F0C6FB03463B61D9
:1048D00006F0D0FF03463B6207F11003BB64FB68A0
:1048E0009B69002B0FD0FB689B691B681C68FB68E9
:1048F0009969FB68DA697B68B86C009008461146D4
:104900001A46BB68A047FB685B69002B03D0FB68B5
:104910005B69043B00E000233B6321E03B6B5B7F72
:10492000002B11D03B6B1B6804331C68FB68DA69F1
:104930007B68B96C0091386B11461A46BB68A0477A
:1049400003467A6B13447B633B6B04331846FFF7D3
:1049500003FB0346002B01D0043B00E000233B6334
:104960003B6B002BDAD1FB7883F00103DBB2002B29
:1049700001D07B6B2CE0184B5B69002B03D0164BEE
:104980005B69043B00E00023FB621DE0FB6A1B68DF
:1049900004331C68FB68DA697B68B96C0091F86ABB
:1049A00011461A46BB68A04703467A6B13447B63E3
:1049B000FB6A04331846FFF7CFFA0346002B01D0F9
:1049C000043B00E00023FB62FB6A002BDED17B6B23
:1049D00018463C37BD4690BD840C002080B582B09F
:1049E00000AF78607B680A4A1A600A48FFF700F94E
:1049F0007B681846FEF7ECF90023002B02D078689C
:104A0000FFF77CFC7B6818460837BD4680BD00BFB9
:104A1000A8D5000850CF000880B582B000AF7860FC
:104A20007868FFF7DBFF7868FFF768FC7B6818465B
:104A30000837BD4680BD00BF80B584B000AFF860C8
:104A4000B9607A60FB681846B9680C227B68FFF78A
:104A50009FFEFB68034A1A60FB6818461037BD4684
:104A600080BD00BFA8D5000880B584B000AFF86055
:104A7000B9607A60FB681846B96840F22E527B68CC
:104A8000FFF786FEFB68034A1A60FB68184610377A
:104A9000BD4680BD98D5000880B584B000AFF860F1
:104AA000B9607A60FB681846B96804227B68FFF732
:104AB0006FFEFB68034A1A60FB6818461037BD4654
:104AC00080BD00BF88D5000880B582B000AF786097
:104AD00039607B68012B4FD13A684FF6FF739A42D9
:104AE0004AD1274827490A2207F084F92448264951
:104AF000264A07F059FF26480021264AFFF79CFF67
:104B000023482549214A07F04FFF24484FF0FF3141
:104B1000234AFFF7A9FF214822491C4A07F044FF16
:104B200021484FF0FF31214AFFF7B6FF1E482049C8
:104B3000164A07F039FF1F484FF0FF311E4AFFF7B2
:104B4000ABFF1C481A49114A07F02EFF1B484FF0D3
:104B5000FF311B4AFFF7A0FF184815490B4A07F021
:104B600023FF18484FF0FF31174AFFF765FF15483C
:104B70000949064A07F018FF0837BD4680BD00BF47
:104B8000680C002060CF000835BE00085C0D0020D6
:104B9000840C002074CF0008DD490008A80C002018
:104BA00084CF0008294C0008CC0C002090CF0008CE
:104BB000CD4B0008F00C0020A0CF0008140D002001
:104BC000B0CF0008380D0020C4CF000880B582B0F7
:104BD00000AF78607B680A4A1A600A48FFF708F855
:104BE0007B681846FEF7F4F80023002B02D07868A3
:104BF000FFF784FB7B6818460837BD4680BD00BFC1
:104C000088D5000850CF000880B582B000AF78602A
:104C10007868FFF7DBFF7868FFF770FB7B68184662
:104C20000837BD4680BD00BF80B582B000AF786058
:104C30007B680A4A1A600A48FEF7DAFF7B68184662
:104C4000FEF7C6F80023002B02D07868FFF756FB6A
:104C50007B6818460837BD4680BD00BF98D5000860
:104C600050CF000880B582B000AF78607868FFF759
:104C7000DBFF7868FFF742FB7B6818460837BD46C4
:104C800080BD00BF80B500AF01204FF6FF71FFF778
:104C90001BFF80BD80B594B000AF7860396056E2EC
:104CA000002387F84E30002387F84D30002387F823
:104CB0004C30002387F84B3097F84F30252B0AD023
:104CC0007B681B6808331B6897F84F2052B27868DE
:104CD000114698473BE23B685A1C3A601B7887F8BC
:104CE0004F30002387F84330202387F842300323D6
:104CF00087F8413097F84F30302B09D197F84F3073
:104D000087F842303B685A1C3A601B7887F84F306E
:104D100097F84F302F2B0ED997F84F30392B0AD8F0
:104D200097F84F30303B87F843303B685A1C3A6065
:104D30001B7887F84F3097F84F302E2B10D13B68F7
:104D40005A1C3A601B7887F84F3097F84F30303B49
:104D500087F841303B685A1C3A601B7887F84F301F
:104D600097F84F306C2B08D1012387F84D303B6802
:104D70005A1C3A601B7887F84F3097F84F306C2BED
:104D800008D1012387F84C303B685A1C3A601B78E5
:104D900087F84F3097F84F30623B162B38D801A177
:104DA00051F823F09D4E0008014E0008874E000880
:104DB000114E0008814E0008114E0008114E0008E7
:104DC000114E0008114E0008114E0008114E000847
:104DD000114E0008114E00086B4E0008114E0008DD
:104DE000114E0008114E0008274E0008114E000811
:104DF0008D4E0008114E0008114E0008954E000817
:104E00007B685B68191D7A6851601B6887F84F30B2
:104E10007B681B6808331B6897F84F2052B278688C
:104E20001146984793E17B685B68191D7A68516069
:104E30001B687B6409E07B681B6808331B6897F874
:104E40004F2052B27868114698477B6C5A1C7A649E
:104E50001B7887F84F3097F84F30002B0CBF00239A
:104E60000123DBB2002BE6D171E10823A7F848301B
:104E70007B681B6808331B6878683021984711E00D
:104E8000012387F84B30012387F84E300A23A7F817
:104E9000483007E01023A7F8483003E00223A7F8C2
:104EA000483000BF4FF000024FF00003C7E90C2369
:104EB0004FF000024FF00003C7E90A2397F84B3088
:104EC000002B15D07B685B68073323F0070303F1E1
:104ED00008017A685160D3E90023C7E90A23D7E9BA
:104EE0000A01FBF7F9FD02460B46C7E90C232CE04B
:104EF00097F84C30002B0DD07B685B68073323F0AC
:104F0000070303F108017A685160D3E90023C7E978
:104F10000C231AE097F84D30002B0BD07B685B68B0
:104F2000191D7A6851601B681A464FEAE273C7E997
:104F30000C230AE07B685B68191D7A6851601B6866
:104F40001A464FEAE273C7E90C2397F84E30002B5C
:104F50002DD0D7E90C23002A73F100010ADBD7E931
:104F60000A014FF000024FF00003FBF73BFD034640
:104F7000002B1CD0D7E90C23524263EB4303C7E953
:104F80000C23BB6ABB62FB6A83F00043FB627B6855
:104F90001B6808331B6878682D21984797F84330C1
:104FA000002B04D097F84330013B87F8433097F843
:104FB0004C30002B04D0D7E90C23C7E90E2310E0B6
:104FC00097F84D30002B06D03B6B1A464FF000038C
:104FD000C7E90E2305E03B6B1A464FF00003C7E913
:104FE0000E2307F10C031A337B647B6C013B7B645B
:104FF0007B6C00221A70B7F848204FF00003D7E905
:105000000E01FBF753FDD3B23033DBB287F8273004
:1050100097F92730392B05DD97F827300733DBB2B6
:1050200087F827307B6C013B7B6497F827207B6CEB
:105030001A70B7F848204FF00003D7E90E01FBF7CC
:1050400035FD02460B46C7E90E2397F84330002B87
:1050500004D097F84330013B87F84330D7E90E235B
:1050600052EA0301C7D106E07B6C013B7B647B6C99
:1050700097F842201A7097F843305A1E87F8432059
:10508000002B0CBF00230123DBB2002BECD109E085
:105090007B681B6808331B6897F84F2052B278680A
:1050A000114698477B6C5A1C7A641B7887F84F30FE
:1050B00097F84F30002B0CBF00230123DBB2002BED
:1050C000E6D197F84B30002B41D07B681B68083342
:1050D0001B6878682E2198472DE0D7E90C01FBF773
:1050E000E1F902460B46D7E90A01FBF755F80246FB
:1050F0000B46C7E90A23D7E90A014FF000021D4B0E
:10510000FBF7FEF902460B46C7E90A23D7E90A0175
:10511000FBF7E2FC02460B46C7E90C237B681B68E1
:1051200008331B6897F830203032D2B2D2B252B274
:1051300078681146984797F841305A1E87F8412001
:10514000002B0CBF00230123DBB2002BC5D13B6831
:105150005A1C3A601B7887F84F3097F84F30002B75
:105160000CBF00230123DBB2002B7FF499AD503735
:10517000BD4680BD000024400FB480B582B000AFB2
:105180000C4B1B68002B0FD03B461846FEF7DAFC91
:1051900007F114037B603B4618463969FFF77AFD37
:1051A0003B461846FEF79CFC0837BD46BDE88040EC
:1051B00004B070475C03002080B582B000AF0C4B98
:1051C0007B6008E07B681B6898473B6801333B6065
:1051D0007B6804337B607A68064B9A42F2D13B6865
:1051E00001333B603B68013B3B600837BD4680BDF7
:1051F00068D70008B4D7000880B485B000AFF86065
:10520000B9607A60002318461437BD465DF8047B08
:10521000704700BF80B400AFFEE700BF002100F080
:1052200004B8124B5B58435004311148114B4218DB
:105230009A42FFF4F6AF104A00F003B8002342F898
:10524000043B0E4B9A42FFF4F9AF0D4A00F003B84D
:10525000002342F8043B0B4B9A42FFF4F9AF05F0F0
:10526000D9FEFFF7A9FFFEF793FF7047B4D70008F8
:1052700000000020B0030020B00300206CC000201C
:10528000000000100000001005F078FEFFF7FCBFE2
:1052900080B483B000AF786039603B6818460C3743
:1052A000BD465DF8047B704780B483B000AF786082
:1052B000012318460C37BD465DF8047B704700BFDC
:1052C00080B483B000AF7860012318460C37BD4628
:1052D0005DF8047B704700BF80B483B000AF034625
:1052E000FB71084B97F907205209F97901F01F016A
:1052F000012000FA01F143F822100C37BD465DF899
:10530000047B704700E100E080B483B000AF034647
:10531000FB71094B97F907205209F97901F01F0138
:10532000012000FA01F1603243F822100C37BD462B
:105330005DF8047B704700BF00E100E080B500AF7E
:10534000124B1B7883F00103DBB2002B1CD00F4BF8
:1053500001221A704FF48040012104F0B3FD0620B1
:10536000FFF7BAFF0720FFF7B7FF0820FFF7B4FFEA
:105370000920FFF7B1FF0A20FFF7AEFF1720FFF764
:10538000ABFF2820FFF7A8FF80BD00BFA00D0020C5
:1053900080B582B000AF786079807A703B707B68AE
:1053A0007A881A807B687A781A727B683A785A729F
:1053B000786800F023F8B7F90230184600F008F9D1
:1053C00002467B685A617B680C33184604F0BAF9D0
:1053D0007B685B891A467B68DA607B6802225A74B4
:1053E0007B6800221A747B6800221A767B68002290
:1053F0005A767B6818460837BD4680BD80B483B0B6
:1054000000AF78607B681B7A1A467B681B889BB26A
:1054100003F00F031344102B0CDD7B681B889BB239
:1054200003F00F034FF6FF7202FA03F39AB27B68A0
:105430005A8117E07B681B7AC3F110034FF6FF72A5
:1054400042FA03F39AB27B685A817B685B891A46F9
:105450007B681B889BB203F00F0302FA03F39AB236
:105460007B685A810C37BD465DF8047B704700BFEE
:1054700080B582B000AF78607B6801225A767B6885
:105480005B681B6830331B687A685268104698471F
:105490000A4A7B681B8819B2094B0B40002B03DAC0
:1054A000013B63F00F0301339BB21BB2012101FAF0
:1054B00003F353610837BD4680BD00BF003C014087
:1054C0000F00008080B485B000AF78600023FB60DF
:1054D00002E0FB680133FB607B685B087B607B68F4
:1054E000002B0CBF00230123DBB2002BF1D1FB68A2
:1054F00018461437BD465DF8047B704780B483B00E
:1055000000AF78607B68274A934234D0254A9342A3
:1055100013D8254A934228D0234A934206D8234AD7
:1055200093421ED0224A93421DD033E0214A934237
:105530001DD0214A93421CD02CE0204A934220D017
:105540001E4A934206D81E4A934216D01D4A9342E1
:1055500015D01FE01C4A934216D01C4A934216D025
:1055600018E0012317E0022315E0042313E00823C9
:1055700011E010230FE020230DE040230BE08023F7
:1055800009E04FF4807306E04FF4007303E04FF43A
:10559000806300E0002318460C37BD465DF8047BAD
:1055A000704700BF001402400008024000000240A3
:1055B00000040240000C02400010024000200240A3
:1055C00000180240001C0240002402400028024053
:1055D00080B483B000AF0346FB80B7F906300F2BD1
:1055E00001DC1C4B30E0B7F906301F2B01DC1A4BF5
:1055F0002AE0B7F906302F2B01DC184B24E0B7F96D
:1056000006303F2B01DC164B1EE0B7F906304F2B5E
:1056100001DC144B18E0B7F906305F2B01DC124BAC
:1056200012E0B7F906306F2B01DC104B0CE0B7F934
:1056300006307F2B01DC0E4B06E0B7F906308B2BD2
:1056400001DC0C4B00E0002318460C37BD465DF82A
:10565000047B704700000240000402400008024042
:10566000000C0240001002400014024000180240EA
:10567000001C02400020024080B483B000AF03460B
:10568000FB80FB8803F00F03012202FA03F39BB2B5
:1056900018460C37BD465DF8047B704780B586B070
:1056A00000AF02460B46FA807B71B7F90630002B3B
:1056B00003DBB7F906308B2B02DD4FF0FF3338E008
:1056C000B7F906301846FFF783FF7861B7F906305F
:1056D0001846FFF7D1FF03467B827869FFF70EFF7C
:1056E00003461846012104F0B1FB7869FFF706FF75
:1056F00003461846002104F003FC7B8A1846FFF796
:10570000E1FE03469AB27B79786911461A4604F0A5
:105710006BF807F10803184604F014F802233B73F2
:105720007B8ABB6007F108037869194603F07CFFA8
:10573000002318461837BD4680BD00BF80B584B031
:1057400000AF0346FB80B7F90630002B03DBB7F947
:1057500006308B2B02DD4FF0FF331AE007F1080310
:10576000184603F0EFFF00233B73B7F906301846E5
:10577000FFF782FF0346BB60B7F906301846FFF714
:1057800027FF024607F108031046194603F04CFFB5
:10579000002318461037BD4680BD00BF90B583B0CA
:1057A00000AF78600B467B807B681846FEF7B6FA40
:1057B0007B68134A1A601C2006F05AFC02467B687C
:1057C0009A617B689B691C201946FFF761FD0446BE
:1057D000002C09D0B7F902302046194601220023D7
:1057E000FFF7D6FD234600E023467A6893617B6885
:1057F0009B697A685A607B6818460C37BD4690BD35
:10580000B8D5000880B584B000AFF8607A603B601E
:105810000B46FB727B68002B04D0FB689B697A689F
:10582000D2B21A72FB689B69FA7A5A72FB689B695A
:105830001846FFF7E3FDFB689B695B69002B02D10B
:105840004FF0FF3321E0FB689B695B691846FFF767
:1058500055FE03461846012104F0F8FAFB689B69DF
:105860005B7A002B09D0F8680021012200F012F8C1
:10587000F868396800F0CCF804E0F86800210022EC
:1058800000F008F8FFF75AFD002318461037BD4610
:1058900080BD00BF80B584B000AFF8600B467A6071
:1058A000FB72FB7A042B00F29B8001A252F823F0DA
:1058B000C5580008055900084F5900088B590008C1
:1058C000C75900087B68002B08D0FB689B69012240
:1058D0005A72FB689B6901221A7407E0FB689B6996
:1058E00000225A72FB689B6900221A74FB689B694C
:1058F0005A69FB689B690C331046194603F094FE05
:1059000000236FE07B68002B1ED07B68FF2B1BD829
:10591000FB689B697A68D2B21A72FB689B69184669
:10592000FFF76CFDFB689B69FA6892695289DA603F
:10593000FB689B695A69FB689B690C3310461946E2
:1059400003F072FE00234DE04FF0FF334AE07B6826
:10595000002B17D07B68002B04D0FB689B690122C9
:10596000DA7403E0FB689B690022DA74FB689B69C8
:105970005A69FB689B690C331046194603F054FEC4
:1059800000232FE04FF0FF332CE07B68002B17D073
:105990007B68002B04D0FB689B690222DA7403E069
:1059A000FB689B690022DA74FB689B695A69FB6893
:1059B0009B690C331046194603F036FE002311E0B4
:1059C0004FF0FF330EE07B68022B06D8FB689B6923
:1059D0007A68D2B21A76002304E04FF0FF3301E078
:1059E0004FF0FF3318461037BD4680BD80B582B0FA
:1059F00000AF78607868002100F064F87B689B69EC
:105A00001B881BB21846FFF799FE0837BD4680BDBC
:105A100080B584B000AF7860396000237B817B68FB
:105A20009B695B7A002B3CD040F2EB30FEF76EFDB9
:105A300003460133FB6031E07B689B695B69184674
:105A400003F09AFE03469AB27B689B695B899BB21E
:105A5000DB439BB213409BB27B817B689B691B88B5
:105A60009BB203F00F033A6802FA03F39AB27B6821
:105A70009B695B8913409AB27B8913437B817B6866
:105A80009B695A697B891046194603F09FFEFB68A3
:105A9000013B1846FEF73AFD0023FB60FB68002B34
:105AA000CAD11037BD4680BD80B483B000AF7860E6
:105AB0007B689B695B7E18460C37BD465DF8047BAE
:105AC000704700BF80B586B000AF78600B46FB70B2
:105AD0007B689B691B881BB2002B00DA0F331B11FC
