:020000040800F2
:1000000000000220B15A000889BC000891BC000819
:10001000B5BC0008BDBC0008C5BC0008000000005D
:10002000000000000000000000000000B5B500085E
:100030001D5B000800000000C9B5000805B90008F4
:100040001D5B00081D5B00081D5B00081D5B0008B0
:100050001D5B00081D5B0008D1640008F564000802
:10006000196500083D650008616500081D5B000812
:10007000198800081D5B0008418700081D5B000807
:10008000D1870008F98600081D5B00081D5B000889
:100090001D5B00081D5B00081D5B000885650008EE
:1000A0001D5B00081D5B0008B5BA00081D5B000859
:1000B0001D5B00081D5B00081D5B00081D5B000840
:1000C0001D5B00081D5B00081D5B00081D5B000830
:1000D0001D5B00082186000839860008518600084B
:1000E000E16500081D5B00081D5B00081D5B000842
:1000F0001D5B00081D5B00081D5B00081D5B000800
:100100001D5B00081D5B0008C1B600081D5B0008F0
:1001100069860008818600081D5B00081D5B0008D9
:100120001D5B00081D5B00081D5B00081D5B0008CF
:100130001D5B00081D5B00081D5B00081D5B0008BF
:100140001D5B00081D5B00081D5B00081D5B0008AF
:10015000898700081D5B0008B186000899860008A1
:100160001D5B00081D5B00081D5B00081D5B00088F
:100170001D5B00081D5B00081D5B00081D5B00087F
:0C0180001D5B00081D5B0008000000086B
:1001900081F0004102E000BF83F0004330B54FEA38
:1001A00041044FEA430594EA050F08BF90EA020FA5
:1001B0001FBF54EA000C55EA020C7FEA645C7FEA38
:1001C000655C00F0E2804FEA5454D4EB5555B8BF5B
:1001D0006D420CDD2C4480EA020281EA030382EACC
:1001E000000083EA010180EA020281EA0303362D5E
:1001F00088BF30BD11F0004F4FEA01314FF4801C31
:100200004CEA113102D0404261EB410113F0004F42
:100210004FEA03334CEA133302D0524263EB4303F9
:1002200094EA050F00F0A780A4F10104D5F1200E97
:100230000DDB02FA0EFC22FA05F2801841F10001F2
:1002400003FA0EF2801843FA05F359410EE0A5F1C6
:1002500020050EF1200E012A03FA0EFC28BF4CF0F7
:10026000020C43FA05F3C01851EBE37101F00045AD
:1002700007D54FF0000EDCF1000C7EEB00006EEBBA
:100280000101B1F5801F1BD3B1F5001F0CD3490844
:100290005FEA30004FEA3C0C04F101044FEA44529B
:1002A00012F5800F80F09A80BCF1004F08BF5FEA22
:1002B000500C50F1000041EB045141EA050130BD02
:1002C0005FEA4C0C404141EB010111F4801FA4F1A5
:1002D0000104E9D191F0000F04BF01460020B1FAFA
:1002E00081F308BF2033A3F10B03B3F120020CDA32
:1002F0000C3208DD02F1140CC2F10C0201FA0CF010
:1003000021FA02F10CE002F11402D8BFC2F1200C74
:1003100001FA02F120FA0CFCDCBF41EA0C0190402A
:10032000E41AA2BF01EB0451294330BD6FEA040473
:100330001F3C1CDA0C340EDC04F11404C4F120025E
:1003400020FA04F001FA02F340EA030021FA04F370
:1003500045EA030130BDC4F10C04C4F1200220FAC7
:1003600002F001FA04F340EA0300294630BD21FA05
:1003700004F0294630BD94F0000F83F4801306BFCB
:1003800081F480110134013D4EE77FEA645C18BFBF
:100390007FEA655C29D094EA050F08BF90EA020F56
:1003A00005D054EA000C04BF1946104630BD91EA4E
:1003B000030F1EBF0021002030BD5FEA545C05D151
:1003C0004000494128BF41F0004130BD14F5800490
:1003D0003CBF01F5801130BD01F0004545F0FE4104
:1003E00041F470014FF0000030BD7FEA645C1ABF39
:1003F000194610467FEA655C1CBF0B46024650EA70
:10040000013406BF52EA033591EA030F41F400219B
:1004100030BD00BF90F0000F04BF0021704730B521
:100420004FF4806404F132044FF000054FF00001F6
:1004300050E700BF90F0000F04BF0021704730B5B7
:100440004FF4806404F1320410F0004548BF40428C
:100450004FF000013EE700BF42004FEAE2014FEAE1
:1004600031014FEA02701FBF12F07F4393F07F4FBC
:1004700081F06051704792F0000F14BF93F07F4FEE
:10048000704730B54FF4607401F0004521F0004131
:1004900020E700BF50EA010208BF704730B54FF0B7
:1004A00000050AE050EA010208BF704730B511F0BC
:1004B000004502D5404261EB41014FF4806404F1F4
:1004C00032045FEA915C3FF4DCAE4FF003025FEA76
:1004D000DC0C18BF03325FEADC0C18BF033202EBFE
:1004E000DC02C2F1200300FA03FC20FA02F001FA58
:1004F00003FE40EA0E0021FA02F11444C1E600BFF7
:1005000070B54FF0FF0C4CF4E06C1CEA11541DBFA9
:100510001CEA135594EA0C0F95EA0C0F00F0DEF874
:100520002C4481EA030621EA4C5123EA4C5350EA59
:10053000013518BF52EA033541F4801143F48013AA
:1005400038D0A0FB02CE4FF00005E1FB02E506F03B
:100550000042E0FB03E54FF00006E1FB03569CF090
:10056000000F18BF4EF0010EA4F1FF04B6F5007F96
:1005700064F5407404D25FEA4E0E6D4146EB060608
:1005800042EAC62141EA55514FEAC52040EA5E5091
:100590004FEACE2EB4F1FD0C88BFBCF5E06F1ED83B
:1005A000BEF1004F08BF5FEA500E50F1000041EB72
:1005B000045170BD06F0004646EA010140EA02001F
:1005C00081EA0301B4EB5C04C2BFD4EB0C0541EA41
:1005D000045170BD41F480114FF0000E013C00F356
:1005E000AB8014F1360FDEBF002001F0004170BD7A
:1005F000C4F10004203C35DA0C341BDC04F1140493
:10060000C4F1200500FA05F320FA04F001FA05F21E
:1006100040EA020001F0004221F0004110EBD370EB
:1006200021FA04F642EB06015EEA430E08BF20EA17
:10063000D37070BDC4F10C04C4F1200500FA04F3BA
:1006400020FA05F001FA04F240EA020001F000414C
:1006500010EBD37041F100015EEA430E08BF20EABF
:10066000D37070BDC4F1200500FA05F24EEA020E07
:1006700020FA04F301FA05F243EA020321FA04F036
:1006800001F0004121FA04F220EA020000EBD370ED
:100690005EEA430E08BF20EAD37070BD94F0000FED
:1006A0000FD101F00046400041EB010111F4801F21
:1006B00008BF013CF7D041EA060195F0000F18BFD2
:1006C000704703F00046520043EB030313F4801F0E
:1006D00008BF013DF7D043EA0603704794EA0C0FC8
:1006E0000CEA135518BF95EA0C0F0CD050EA4106DE
:1006F00018BF52EA4306D1D181EA030101F000415B
:100700004FF0000070BD50EA410606BF1046194682
:1007100052EA430619D094EA0C0F02D150EA01368E
:1007200013D195EA0C0F05D152EA03361CBF1046CF
:1007300019460AD181EA030101F0004141F0FE416E
:1007400041F470014FF0000070BD41F0FE4141F4F2
:10075000780170BD70B54FF0FF0C4CF4E06C1CEAF2
:1007600011541DBF1CEA135594EA0C0F95EA0C0FA7
:1007700000F0A7F8A4EB050481EA030E52EA033562
:100780004FEA013100F088804FEA03334FF0805583
:1007900045EA131343EA12634FEA022245EA1115B0
:1007A00045EA10654FEA00260EF000419D4208BF61
:1007B000964244F1FD0404F5407402D25B084FEA0E
:1007C0003202B61A65EB03055B084FEA32024FF4BA
:1007D00080104FF4002CB6EB020E75EB030E22BF17
:1007E000B61A754640EA0C005B084FEA3202B6EBD7
:1007F000020E75EB030E22BFB61A754640EA5C0086
:100800005B084FEA3202B6EB020E75EB030E22BF15
:10081000B61A754640EA9C005B084FEA3202B6EB16
:10082000020E75EB030E22BFB61A754640EADC00D5
:1008300055EA060E18D04FEA051545EA16754FEA37
:1008400006164FEAC30343EA52734FEAC2025FEA55
:100850001C1CC0D111F4801F0BD141EA00014FF0E4
:1008600000004FF0004CB6E711F4801F04BF0143B5
:100870000020B4F1FD0C88BFBCF5E06F3FF6AFAED1
:10088000B5EB030C04BFB6EB020C5FEA500C50F161
:10089000000041EB045170BD0EF0004E4EEA1131E4
:1008A00014EB5C04C2BFD4EB0C0541EA045170BDEB
:1008B00041F480114FF0000E013C90E645EA060E2F
:1008C0008DE60CEA135594EA0C0F08BF95EA0C0F5D
:1008D0003FF43BAF94EA0C0F0AD150EA01347FF4A5
:1008E00034AF95EA0C0F7FF425AF104619462CE77C
:1008F00095EA0C0F06D152EA03353FF4FDAE1046DF
:10090000194622E750EA410618BF52EA43067FF42F
:10091000C5AE50EA41047FF40DAF52EA43057FF4BF
:10092000EBAE12E74FF0FF3C06E000BF4FF0010CCA
:1009300002E000BF4FF0010C4DF804CD4FEA410C2E
:100940007FEA6C5C4FEA430C18BF7FEA6C5C1BD0FB
:1009500001B050EA410C0CBF52EA430C91EA030F7C
:1009600002BF90EA020F0020704710F1000F91EAD9
:10097000030F58BF994208BF90422CBFD8176FEAA7
:10098000E37040F0010070474FEA410C7FEA6C5C75
:1009900002D150EA013C07D14FEA430C7FEA6C5C7C
:1009A000D6D152EA033CD3D05DF8040B704700BFA8
:1009B0008446104662468C461946634600E000BFF6
:1009C00001B5FFF7B7FF002848BF10F1000F01BDC8
:1009D0004DF808EDFFF7F4FF0CBF012000205DF893
:1009E00008FB00BF4DF808EDFFF7EAFF34BF012018
:1009F00000205DF808FB00BF4DF808EDFFF7E0FFB1
:100A000094BF012000205DF808FB00BF4DF808ED01
:100A1000FFF7CEFF94BF012000205DF808FB00BF68
:100A20004DF808EDFFF7C4FF34BF012000205DF84A
:100A300008FB00BF4A0011D212F5001211D20DD5E9
:100A40006FF47873B3EB62520ED44FEAC12343F0D4
:100A5000004343EA505323FA02F070474FF000007E
:100A6000704750EA013002D14FF0FF3070474FF02D
:100A70000000704773B96AB9002908BF0028BCBFDD
:100A800000204FF00041C4BF6FF000414FF0FF3035
:100A900000F08CB882B0EC462DE9005000F056F81A
:100AA000DDF804E002B00CBC704700BF4BB942B99E
:100AB000002908BF002802D04FF0FF31084600F09F
:100AC00075B882B0EC462DE9005000F057F8DDF81B
:100AD00004E002B00CBC704738B500220023044685
:100AE0000D46FFF77FFF28B920462946BDE838406C
:100AF00000F00AB8204605F1004100F005F8404238
:100B000061EB410138BD00BF70B500220D4B0446BA
:100B10000D46FFF7F5FCFFF78DFF0646FFF77AFC61
:100B20000022094BFFF7ECFC02460B462046294603
:100B3000FFF732FBFFF77EFF002242EA0004204667
:100B4000314670BD0000F03D0000F0412DE97043DA
:100B5000069E14461D468046894600F029F804FB8F
:100B600001F300FB0533A4FB00451D44B8EB04046E
:100B700069EB0505C6E90045BDE870832DE97043C2
:100B8000069E1446804689461D4600F05DF900FB2E
:100B900005F504FB0153A0FB04451D44B8EB040418
:100BA00069EB0505C6E90045BDE87083704700BFE5
:100BB00000292DE9F00FC0F29F800024002BC0F225
:100BC0009680154606460F46002B3ED18A4257D9DD
:100BD000B2FA82F34BB1C3F1200201FA03F720FA13
:100BE00002F29D40174300FA03F6290CB7FBF1F21D
:100BF000330C01FB127CA8B243EA0C4700FB02F362
:100C0000BB4209D97F1902F1FF3C80F00181BB4250
:100C100040F2FE80023A2F44FF1AB7FBF1F3B6B25E
:100C200001FB137146EA014100FB03F0884208D939
:100C3000491903F1FF3780F0ED80884240F2EA80E5
:100C4000023B43EA0242002303E08B420AD900231D
:100C50001A461046194614B1404261EB4101BDE805
:100C6000F00F7047B3FA83F8B8F1000F40F08480BA
:100C70008B4202D3824200F2DE8000230122E8E7A9
:100C800012B90123B3FBF2F5B5FA85F2002A39D186
:100C90007F1B280C1FFA85FC0123B7FBF0F1320CF7
:100CA00000FB117742EA07470CFB01F2BA4207D971
:100CB0007F1901F1FF3802D2BA4200F2C1804146E9
:100CC000BF1AB7FBF0F2B6B200FB127046EA004062
:100CD0000CFB02FC844507D9401902F1FF3702D210
:100CE000844500F2AB803A4642EA0142B1E7E44370
:100CF000524263EB430364E7404261EB41014FF032
:100D0000FF345BE79540C2F1200327FA03F1280C7A
:100D100026FA03F39740B1FBF0F81F433B0C00FBAE
:100D200018111FFA85FC43EA01410CFB08F38B42C2
:100D300006FA02F608D9491908F1FF3279D28B4236
:100D400077D9A8F102082944C91AB1FBF0F3BFB260
:100D500000FB131147EA01470CFB03F2BA4207D923
:100D60007F1903F1FF3160D2BA425ED9023B2F44B2
:100D7000BF1A43EA084390E7C8F1200203FA08FCCF
:100D800025FA02F343EA0C0C4FEA1C4921FA02F35C
:100D900001FA08F720FA02F2B3FBF9F1174309FB55
:100DA00011333A0C1FFA8CFB42EA03430BFB01FAA6
:100DB0009A4505FA08F008D913EB0C0301F1FF324C
:100DC00035D29A4533D902396344CAEB0303B3FBE6
:100DD000F9F209FB1233BFB247EA03470BFB02F9F2
:100DE000B94508D917EB0C0702F1FF331BD2B945FF
:100DF00019D9023A674442EA0145A5FB0001C9EB53
:100E000007078F424FF000030AD305D02A4620E798
:100E1000624601E73B4614E706FA08F68642F5D239
:100E20006A1E002315E71A46E5E70B46A0E71146C0
:100E3000CBE7904688E7434642460AE7023A53E743
:100E400002392F443CE700BF2DE9F00F1446054658
:100E50000E46002B43D18A4253D9B2FA82F757B1DA
:100E6000C7F1200620FA06F601FA07F302FA07F4A2
:100E70001E4300FA07F5210CB6FBF1F22B0C01FB27
:100E80001267A0B243EA074600FB02F3B34209D956
:100E9000361902F1FF3780F0F680B34240F2F3805A
:100EA000023A2644F61AB6FBF1F3ADB201FB136128
:100EB00045EA014100FB03F0884208D9091903F112
:100EC000FF3680F0E280884240F2DF80023B43EA56
:100ED0000242002310461946BDE8F00F70478B42CE
:100EE0004AD8B3FA83F6002E4DD18B4202D3824208
:100EF00000F2D6800023012210461946BDE8F00F0B
:100F0000704712B90124B4FBF2F4B4FA84F2002A57
:100F10007CD1091B260CA7B20123B1FBF6F02A0CE9
:100F200006FB101142EA014107FB00F28A4207D991
:100F3000091900F1FF3C02D28A4200F2C3806046E8
:100F4000891AB1FBF6F2ADB206FB121145EA014572
:100F500007FB02F7AF4208D92C1902F1FF3180F0EC
:100F60009680A74240F29380023A42EA004210463D
:100F70001946BDE8F00F704700231A46104619467F
:100F8000BDE8F00F7047C6F1200522FA05F4B34022
:100F90001C434FEA144821FA05F301FA06F720FA38
:100FA00005F5B3FBF8FC2F4308FB1C333D0C1FFA7F
:100FB00084FA45EA03430AFB0CF9994502FA06FB59
:100FC00004D91B190CF1FF326DD39446C9EB03030E
:100FD000B3FBF8F508FB1533BFB247EA03470AFB3A
:100FE00005F8B84504D93F1905F1FF3361D31D4613
:100FF00045EA0C4CACFB0B23C8EB07079F424FF0B4
:10100000000549D345D062462B4663E79440C2F1C0
:10101000200321FA03FC260C20FA03F301FA02F55F
:10102000BCFBF6F843EA05010B0C06FB18CCA7B293
:1010300043EA0C4C07FB08F3634500FA02F509D9B3
:101040001CEB040C08F1FF323AD2634538D9A8F101
:101050000208A444C3EB0C0CBCFBF6F389B206FBFC
:1010600013CC41EA0C4107FB03F28A4207D9091964
:1010700003F1FF3022D28A4220D9023B2144891A4F
:1010800043EA084349E73A460CE733461FE70A4676
:101090006BE7B0409042B6D20CF1FF32002319E763
:1010A0003346324616E799458FD9ACF1020C2344FA
:1010B0008CE7B8459BD9023D274499E70346DEE714
:1010C0009046C7E7023821443AE700BF80B582B0B6
:1010D00000AF78607B681B681B6834331B687A68D4
:1010E000126810464FF4165198477B681B681B68BE
:1010F00038331B687A681268104603210222984729
:101100000837BD4680BD00BF80B584B000AF7860B1
:101110007B681B681B6838331B687A681268104646
:1011200000214FF41652984700BF7B681B681B686C
:1011300048331B687A681268104698470346B3F133
:10114000FF3F0CBF00230123DBB2002BEDD17B68F6
:101150001B681B684C331B687A68126810466FF076
:101160000F0198477B681B6818464FF0FF326FF0FD
:10117000004303F05FFA7B681B681B6848331B68F9
:101180007A681268104698470346FB73FB7BF02B86
:1011900001D0012300E0002318461037BD4680BD72
:1011A00080B584B000AF78607B681B681B683833FB
:1011B0001B687A681268104600214FF4E1329847A4
:1011C00000BF7B681B681B6848331B687A6812681D
:1011D000104698470346B3F1FF3F0CBF002301239D
:1011E000DBB2002BEDD17B681B681B684C331B689E
:1011F0007A68126810464FF0FF3198477B681B6889
:1012000018464FF0FF326FF0004303F013FA7B688B
:101210001B681B6848331B687A6812681046984739
:101220000346FB73FB7BFF2B01D1012300E000236E
:1012300018461037BD4680BD80B582B000AF7860DB
:101240000B46FB707B681B681B6838331B687A6829
:101250001268104600214FF4E132984700BF7B68C6
:101260001B681B6848331B687A68126810469847E9
:101270000346B3F1FF3F0CBF00230123DBB2002B79
:10128000EDD1FB78002B0AD17B681B681B684C33BF
:101290001B687A6812681046002198470AE07B684C
:1012A0001B681B684C331B687A68126810464FF045
:1012B000FF3198477B681B6818464FF0FF326FF08C
:1012C000004303F0B7F97B681B681B6848331B6851
:1012D0007A681268104698470837BD4680BD00BF3F
:1012E00080B584B000AF78600023BB730123FB732B
:1012F00011E07868FFF754FF0346002B0CBF002372
:101300000123DBB2002B03D0BA7BFB7B1343BB73FF
:10131000FB7B5B00FB73FB7B002BEAD1BB7B18469E
:101320001037BD4680BD00BF80B584B000AF786087
:101330000B46FB700123FB730FE0FA7BFB78134035
:10134000DBB2002B01D0012300E0002378681946AE
:10135000FFF772FFFB7B5B00FB73FB7B002BECD189
:101360001037BD4680BD00BF90B587B000AFF860B4
:10137000B9607A6000237B610AE07B69BA68D4189F
:10138000F868FFF7ADFF034623707B6901337B618B
:101390007A697B689A42F0DB1C37BD4690BD00BF7E
:1013A00080B586B000AFF860B9607A6000237B61D9
:1013B0000AE07B69BA6813441B78F8681946FFF79E
:1013C000B3FF7B6901337B617A697B689A42F0DB0A
:1013D0001837BD4680BD00BF80B487B000AFF8604D
:1013E000B9607A60BB687B610023FB7422E07B6993
:1013F0005A1C7A611B78BB7408237B7417E0FA7C53
:10140000BB7C5340DBB203F001033B74FB7C5B10FD
:10141000FB743B7C002B04D0FB7C83F07303DB4329
:10142000FB74BB7C5B10BB747B7C013B7B747B7C63
:10143000002BE4D17B685A1E7A60002B0CBF00237E
:101440000123DBB2002BD2D1FB7C18461C37BD46F2
:101450005DF8047B704700BF80B483B000AF786054
:101460007B6819221A707B6800225A707B68002200
:101470009A707B6818460C37BD465DF8047B704750
:1014800080B582B000AF786039607B68012B07D1EE
:101490003A684FF6FF739A4202D10348FFF7DCFF28
:1014A0000837BD4680BD00BF6000002080B500AF9A
:1014B00001204FF6FF71FFF7E3FF80BD80B582B0DA
:1014C00000AF78607B681846064964224FF4FA63DF
:1014D0000AF050FF7B68044A1A607B681846083798
:1014E000BD4680BD04D7000820E0000880B483B06A
:1014F00000AF78600C37BD465DF8047B704700BFD5
:1015000080B594B002AF78607B68012283F85120E7
:101510007B68032283F850207B6850333E4819468D
:10152000012200F089F87B6851333C4819460122BA
:1015300000F096F8796836A3D3E90023CDE90023BB
:1015400008464FF000024FF0000303F0E1FB7B6818
:1015500050333348194600F097F807F10803314833
:10156000194600F0B1F8BB891AB23B8B1BB2134489
:101570001846FEF75FFF02460B46104619464FF02D
:101580000002294BFEF7BCFF02460B4610461946E7
:101590004FF000024FF08043FFF7DCF802460B46A5
:1015A000C7E91023D7E910014FF000021F4BFFF7E6
:1015B00019FA0346002B08D01D48012100F08CF9D0
:1015C0001B48002100F098F91AE0D7E910014FF00C
:1015D0000002184BFFF724FA0346002B08D01448EA
:1015E000002100F079F91248012100F085F907E0A7
:1015F0000F48002100F070F90D48002100F07CF93F
:101600007B68184603F09AFBA1E700BFAFF30080A8
:1016100000E1F5050000000038090020B8090020AD
:1016200060090020B805002000407F3F00003EC058
:101630001401002000003E4080B584B000AFF86087
:10164000B9601346FB71FA68FB791046B9681A460F
:10165000002303F057FD034618461037BD4680BDF2
:1016600080B584B000AFF860B9601346FB71FA68CA
:10167000FB791046B9681A46002303F043FD034680
:1016800018461037BD4680BD80B485B000AF786085
:1016900039607B6801221A757B68DB68FB60FB6838
:1016A0001A783B681A707B6800221A757B68D3E948
:1016B0000823013243F100037968C1E90823143794
:1016C000BD465DF8047B7047F0B484B000AF78602D
:1016D00039607B68012283F8B8207B68D3F8B0308A
:1016E000FB603A68FB6803F1300411461846D0F8F5
:1016F00000C046688568C068C1F800C04E608D6053
:10170000C86010331032A342EFD119685B681160D2
:1017100053607B68002283F8B8207B68D3E93223CA
:10172000013243F100037968C1E932231037BD4625
:10173000F0BC704780B582B000AF78607B68084A23
:101740001A607B6818460AF083FE0023002B02D043
:10175000786803F01DFA7B6818460837BD4680BDDF
:1017600020E0000880B582B000AF78607868FFF7AD
:10177000E1FF786803F00CFA7B6818460837BD462D
:1017800080BD00BF80B582B000AF786039607B68F3
:10179000012B0CD13A684FF6FF739A4207D10548E6
:1017A000FFF78CFE03480449044A0BF0A5FF0837F5
:1017B000BD4680BD6800002035170008140C0020CD
:1017C00080B500AF01204FF6FF71FFF7DBFF80BD52
:1017D00080B483B000AF78600C37BD465DF8047B01
:1017E000704700BF80B582B000AF786039607B6819
:1017F0000433184606493A68002302F0A1FF7B68CB
:10180000044A1A607B6818460837BD4680BD00BF91
:10181000CC0A002050E0000880B582B000AF7860AC
:101820007B68094A1A607B680433184602F0D0FFCF
:101830000023002B02D0786803F0AAF97B681846D1
:101840000837BD4680BD00BF50E0000880B582B0BB
:1018500000AF78607868FFF7DFFF786803F098F9E9
:101860007B6818460837BD4680BD00BF80B582B092
:1018700000AF78607B6818460549FFF7B3FF7B68C7
:10188000044A1A607B6818460837BD4680BD00BF11
:1018900014D7000838E0000880B582B000AF786047
:1018A0000A4801210122002304F0F6FB0848012127
:1018B0000122002304F0F0FB06480121012200234D
:1018C00004F0EAFB0837BD4680BD00BFC000002021
:1018D000DC000020F800002080B582B000AF786006
:1018E0000B46FB70FB780348194604F0DBFC083715
:1018F000BD4680BDC000002080B582B000AF7860DA
:101900000B46FB70FB780348194604F0CBFC083704
:10191000BD4680BDDC00002080B582B000AF78609D
:101920007B68084A1A607B681846FFF775FF00233A
:10193000002B02D0786803F02BF97B681846083733
:10194000BD4680BD38E0000880B582B000AF786049
:101950007868FFF7E1FF786803F01AF97B681846AA
:101960000837BD4680BD00BF80B582B000AF78604B
:1019700039607B68012B18D13A684FF6FF739A42A1
:1019800013D10B48072104F053FB0A48062104F049
:101990004FFB0948252104F04BFB0848FFF766FF81
:1019A00006480749074A0BF0A7FE0837BD4680BD29
:1019B000C0000020DC000020F800002014010020FE
:1019C00019190008140C002080B500AF01204FF653
:1019D000FF71FFF7C9FF80BD80B582B000AF7860AE
:1019E0007B681846064964224FF4FA630AF0C2FC89
:1019F0007B68044A1A607B6818460837BD4680BD7C
:101A000020D7000868E0000880B582B000AF786099
:101A1000044801210122002304F03EFB0837BD46A3
:101A200080BD00BF2801002080B483B000AF786083
:101A300000BF0C37BD465DF8047B704780B582B0AF
:101A400000AF78607B68084A1A607B6818460AF025
:101A5000FFFC0023002B02D0786803F099F87B6824
:101A600018460837BD4680BD68E0000880B582B0E2
:101A700000AF78607868FFF7E1FF786803F088F8D6
:101A80007B6818460837BD4680BD00BF80B582B070
:101A900000AF786039607B68012B10D13A684FF64F
:101AA000FF739A420BD10748212104F0C1FA06487E
:101AB000FFF792FF04480549054A0BF01DFE083761
:101AC000BD4680BD28010020480100203D1A0008C5
:101AD000140C002080B500AF01204FF6FF71FFF716
:101AE000D5FF80BD80B483B000AF786039607B687B
:101AF0003A681A607B6818460C37BD465DF8047B6F
:101B0000704700BF80B582B000AF78607B68184630
:101B10000549FFF767FE7B68044A1A607B68184630
:101B20000837BD4680BD00BF30D7000880E0000800
:101B300080B582B000AF78600C480D49002205F0F6
:101B4000E1FE0A480121002206F04EF909480A493F
:101B500004F0D6FD09484FF4E13106F081FE084853
:101B6000FFF7B4FA0837BD4680BD00BF98010020DA
:101B700040420F00B4010020A0860100D0010020E7
:101B80000802002080B582B000AF78607B68084A08
:101B90001A607B681846FFF73FFE0023002B02D037
:101BA000786802F0F5FF7B6818460837BD4680BDAF
:101BB00080E0000880B582B000AF78607868FFF7F9
:101BC000E1FF786802F0E4FF7B6818460837BD46FD
:101BD00080BD00BF80B584B002AF786039607B689B
:101BE000012B32D13A684FF6FF739A422DD11F2351
:101BF0000093174802211D221E2305F043FE1548BD
:101C000001211622172304F035FD0C2300930B232A
:101C100001931148012109220A2306F0C1FC1E2369
:101C200000933B2301930D4803212A222B2306F026
:101C3000B7FC0B480949FFF755FF0A48FFF762FF59
:101C400008480949094A0BF057FD0837BD4680BDD1
:101C500098010020B4010020D0010020EC010020F8
:101C6000080200200C020020851B0008140C002034
:101C700080B500AF01204FF6FF71FFF7ABFF80BDCD
:101C800080B483B000AF78600C37BD465DF8047B4C
:101C9000704700BF80B582B000AF78607B6818469F
:101CA000164964224FF4FA630AF064FB7B68144A15
:101CB0001A607B68002283F850207B68002283F83A
:101CC00051207B68002283F852207B68002283F831
:101CD00053207B68002283F854207B6800229A6599
:101CE0007B68002283F85C207B68002283F85D20FB
:101CF0007B6818460837BD4680BD00BF3CD700084A
:101D000098E000080000000080B586B002AF78605F
:101D100033480021012200F067F879682EA3D3E947
:101D20000023CDE9002308464FF000024FF00003E6
:101D300002F0EEFF7B689A6D7B6893F85030002BC1
:101D400001D0012300E000231A447B689A657B6878
:101D50009A6D7B6893F85130002B01D0012300E08D
:101D600000231A447B689A657B689A6D7B6893F8B8
:101D70005230002B01D0012300E000231A447B687D
:101D80009A657B689A6D7B6893F85330002B01D07D
:101D9000012300E000231A447B689A657B689B6DF1
:101DA000052B12D9002343F01903FB72FB6803F0E3
:101DB0007F43FB6005233B810123BB7207F10803CE
:101DC00008481946012200F029F87B68184602F0FD
:101DD000B5FFAFE7AFF300800065CD1D0000000048
:101DE000380A00201008002080B584B000AF786069
:101DF00013460A467A807B707B88FB81796807F1FD
:101E00000E027B78084611461A46002303F07AF941
:101E1000034618461037BD4680BD00BF80B584B06C
:101E200000AFF860B9601346FB71FA68FB791046A1
:101E3000B9681A46002303F065F9034618461037BF
:101E4000BD4680BD80B582B000AF78607B68084A2F
:101E50001A607B6818460AF0FBFA0023002B02D0B8
:101E6000786802F095FE7B6818460837BD4680BD4D
:101E700098E0000880B582B000AF78607868FFF71E
:101E8000E1FF786802F084FE7B6818460837BD469B
:101E900080BD00BF80B582B000AF786039607B68DC
:101EA000012B0CD13A684FF6FF739A4207D10548CF
:101EB000FFF7F0FE03480449044A0BF01DFC083705
:101EC000BD4680BD20020020451E0008140C0020E5
:101ED00080B500AF01204FF6FF71FFF7DBFF80BD3B
:101EE00080B483B000AF78600B46FB7097F9033085
:101EF0007A68C3F1200362FA03F318460C37BD4633
:101F00005DF8047B704700BF80B483B000AF786099
:101F10007B681B0C7A6853407B607B680C4A02FB31
:101F200003F37B607B685B0B7A6853407B607B6864
:101F3000084A02FB03F37B607B681B0C7A68534002
:101F40007B607B6818460C37BD465DF8047B7047A4
:101F50006BCAEB8535AEB2C280B58EB000AFF8600B
:101F6000B9607A60BB68002B00DA03339B10BB6258
:101F70007B683B633D4B7B623D4B3B62BB6A9B0096
:101F8000FA681344FB61BB6A5B427B6327E07B6BAF
:101F90009B00FA6913441B68BB61BB697A6A02FB48
:101FA00003F3BB61B8690F21FFF79AFFB861BB6902
:101FB0003A6A02FB03F3BB613A6BBB6953403B6374
:101FC000386B0D21FFF78CFF38633A6B13469B008B
:101FD0001A44284B13443B637B6B01337B637B6B5D
:101FE000002BD4D1BB6A9B00FA6813447B610023A9
:101FF000FB62BB6803F00303022B0BD0032B02D060
:10200000012B0ED025E07B6902331B781B04FA6A92
:102010005340FB627B6901331B781B02FA6A534011
:10202000FB627B691B78FA6A5340FB62FB6A7A6A3F
:1020300002FB03F3FB62F86A0F21FFF751FFF8621E
:10204000FB6A3A6A02FB03F3FB623A6BFB6A53409A
:102050003B63BB683A6B53403B63386BFFF754FFFD
:1020600038633B6B18463837BD4680BD512D9ECC3A
:102070009335871B646B54E680B582B000AF7860FF
:102080007B681846064964224FF4FA630AF072F935
:102090007B68044A1A607B6818460837BD4680BDD5
:1020A0004CD70008B0E0000880B58AB002AF786075
:1020B0000B46FB70FB78012B05D0FB78022B02D07E
:1020C0004FF0FF334CE0284A07F1140312881A80BE
:1020D000264A07F1100312881A80FB782448194613
:1020E00000F086FC07F1140322481946022205F08D
:1020F0000BFF0346B3F1FF3F14BF00230123DBB204
:10210000002B05D01A4800F0C1FC4FF0FF3327E048
:10211000194A07F10C0312881A804FF0FF33FB6154
:102120000023BB6115E007F1100207F10C03022147
:10213000009110481146022206F010F87B7BDBB2BA
:102140005BB2002B02DB0023FB6105E0BB690133BE
:10215000BB61BB69632BE6DD054800F097FCFB69BA
:1021600018462037BD4680BD5CD7000860D7000800
:10217000640400209801002064D7000880B584B072
:1021800000AF7860F970BA707B70FB78012B05D0D6
:10219000FB78022B02D04FF0FF3321E0BB783B727B
:1021A0007B787B72FB781048194600F021FC0023F5
:1021B000FB6007F108030D481946022205F0A4FE52
:1021C0000346B3F1FF3F14BF00230123DBB2002B12
:1021D00002D04FF0FF33FB60034800F057FCFB6870
:1021E00018461037BD4680BD6404002098010020C9
:1021F00080B582B000AF78600B46FB70FB787868E2
:102200001946FFF751FF0346B3F1FF3F14BF002308
:102210000123DBB2002B02D04FF0FF336DE002F060
:1022200095FE384A4FF00003121843EB01031046A5
:10223000194600220AF0EEF9FB78786819466B22FD
:102240000023FFF79BFF0346B3F1FF3F14BF0023BA
:102250000123DBB2002B02D04FF0FF334DE002F040
:1022600075FE284A4FF00003121843EB0103104695
:10227000194600220AF0CEF9FB78786819461B222D
:102280000023FFF77BFF0346B3F1FF3F14BF00239A
:102290000123DBB2002B02D04FF0FF332DE002F020
:1022A00055FE184A4FF00003121843EB0103104685
:1022B000194600220AF0AEF9FB78786819461C220C
:1022C0001823FFF75BFF0346B3F1FF3F14BF002362
:1022D0000123DBB2002B02D04FF0FF330DE002F000
:1022E00035FE084A4FF00003121843EB0103104675
:1022F000194600220AF08EF9002318460837BD4619
:1023000080BD00BF40420F0080B586B000AFF860CE
:102310000B467A60FB72FB7A012B05D0FB7A022B0D
:1023200002D04FF0FF336DE0FB7A3848194600F0D9
:102330005FFBBB23FB7507F11703354819460122E4
:1023400005F0E2FD324879680E2205F073FE03467F
:10235000B3F1FF3F14BF00230123DBB2002B05D0F4
:102360002A4800F093FB4FF0FF334BE0274800F082
:102370008DFB7B68B3F908309BB21BB2184602F0A4
:1023800001F803461A467B681A817B68B3F90A3064
:102390009BB21BB2184601F0F5FF03461A467B6854
:1023A0005A817B68B3F90C309BB21BB2184601F01E
:1023B000E9FF03461A467B689A817B68B3F90030CF
:1023C0009BB21BB2184601F0DDFF03461A467B683C
:1023D0001A807B68B3F902309BB21BB2184601F039
:1023E000D1FF03461A467B685A807B68B3F90430F4
:1023F0009BB21BB2184601F0C5FF03461A467B6824
:102400009A80002318461837BD4680BD640400201A
:102410009801002080B58CB002AF78607868012107
:10242000FFF7E6FE78680221FFF7E2FE79682D4AA1
:102430004FF00003CDE9002308464FF000024FF0B3
:10244000000302F065FC07F11803786801211A46C1
:10245000FFF75AFF07F10803786802211A46FFF7D1
:1024600053FF7B6803F5A07207F118030833104689
:102470001946062202F062FB7B6803F5A67207F19B
:102480000803083310461946062202F057FB7B6802
:1024900003F5A37207F1180310461946062202F04D
:1024A0004DFB7B6803F5A97207F108031046194636
:1024B000062202F043FB02F049FD02460B46796812
:1024C00001F5B871C1E900237B6803F5A0730648E4
:1024D0001946012200F00AF87B68184602F02EFC2B
:1024E000B1E700BF809698009005002080B584B0C9
:1024F00000AFF860B9601346FB71FA68FB791046CB
:10250000B9681A46002302F0FDFD0346184610374D
:10251000BD4680BD80B582B000AF78607B68084A58
:102520001A607B68184609F093FF0023002B02D045
:10253000786802F02DFB7B6818460837BD4680BDE1
:10254000B0E0000880B582B000AF78607868FFF72F
:10255000E1FF786802F01CFB7B6818460837BD462F
:1025600080BD00BF80B582B000AF786039607B6805
:10257000012B0CD13A684FF6FF739A4207D10548F8
:10258000FFF77AFD03480449044A0BF0B5F8083711
:10259000BD4680BD8002002015250008140C0020D7
:1025A00080B500AF01204FF6FF71FFF7DBFF80BD64
:1025B00080B582B000AF78607B6818460649642217
:1025C0004FF4FA6309F0D6FE7B68044A1A607B6810
:1025D00018460837BD4680BD68D70008C8E0000827
:1025E00080B586B000AF7860396055233B7207F143
:1025F0000803013318463968082202F09FFA4E2377
:102600007B745523BB74C923FB741F233B75064899
:10261000FEF77AFD07F10803034819460D22FEF77D
:10262000BFFE1837BD4680BD0802002080B584B0CB
:1026300000AF7860CC233B7344237B730648FEF7DE
:1026400063FD07F10C03044819460222FEF7A8FEB9
:102650001037BD4680BD00BF0802002080B58AB09B
:1026600000AF7860396055233B7607F118030133DA
:1026700018463968082202F061FABE2387F8213033
:1026800000237B6225E01948FEF73EFD07F11803A1
:10269000164819460A22FEF783FE07F10C03134879
:1026A00019460922FEF760FE07F10C030F48194690
:1026B0000822FEF791FE03461A467B7D9A4214BF1C
:1026C00000230123DBB2002B00D005E07B6A01333D
:1026D0007B627B6A022BD6DD07F10C031B887B84AF
:1026E0007B8C1BB218462837BD4680BD08020020EF
:1026F00080B582B000AF7860396010489021104AF0
:10270000012304F04DF90D4891213A68022304F0A9
:102710007BF93B681B889BB21BB2184601F032FE66
:1027200003469AB23B681A8004489021054A032365
:1027300004F036F90837BD4680BD00BFB401002063
:10274000600400200400002080B582B000AF7860F3
:10275000396010489021104A012304F021F90D48F6
:1027600091213A68022304F04FF93B681B889BB221
:102770001BB2184601F006FE03469AB23B681A8067
:1027800004489021054A032304F00AF90837BD469E
:1027900080BD00BFB40100206004002000000020C4
:1027A00080B582B000AF786004489021044A0323CA
:1027B00004F0F6F80837BD4680BD00BFB401002024
:1027C000000000200000000080B586B002AF7860F5
:1027D0007868FFF7E5FF78683549FFF701FF79680A
:1027E00031A3D3E90023CDE9002308464FF00002CE
:1027F0004FF0000302F08CFA0023FB730023BB6050
:10280000FB7B83F00103DBB2002B06D07B685033E7
:1028100078681946FFF76CFF13E07B6852337868DD
:102820001946FFF791FF02F091FB02460B467968CB
:10283000C1E918237B6850331E481946012200F075
:102840003BF8BB68002B03D17868FFF7EFFE16E07A
:1028500078681749FFF702FF03461A467B68A3F81A
:10286000562002F073FB02460B467968C1E9182333
:102870007B6850330F481946012200F01DF8FB7B9E
:1028800083F00103FB73BB680133BB60BB68012BA2
:1028900001DCBB6800E00023BB607B68184602F0E7
:1028A0004DFAADE7AFF3008000E1F5050000000050
:1028B000D8E00008B806002080B584B000AFF8600A
:1028C000B9601346FB71FA68FB791046B9681A467D
:1028D000002302F017FC034618461037BD4680BDA2
:1028E00080B582B000AF78607B68084A1A607B6868
:1028F000184609F0ADFD0023002B02D0786802F0E5
:1029000047F97B6818460837BD4680BDC8E0000817
:1029100080B582B000AF78607868FFF7E1FF786833
:1029200002F036F97B6818460837BD4680BD00BF07
:1029300080B582B000AF786039607B68012B0CD124
:102940003A684FF6FF739A4207D10548FFF730FE09
:1029500003480449044A0AF0CFFE0837BD4680BD4B
:10296000F8030020E1280008140C002080B500AF17
:1029700001204FF6FF71FFF7DBFF80BD80B582B00D
:1029800000AF78607B6818460649FEF72BFF7B682E
:10299000054A1A607B6800221A757B68184608375A
:1029A000BD4680BD78D70008E8E2000880B582B057
:1029B00000AF78600B4801210122012303F06CFB7A
:1029C000094801210122012303F066FB0748012188
:1029D0000122012303F060FB7B6800221A7508378F
:1029E000BD4680BD7C04002098040020B404002073
:1029F00080B582B000AF78600B46FB701F4809F0CD
:102A00000DFC7B681B7D002B02D04FF0FF3331E0C3
:102A10007B68FA781A75FB78022B10D0032B1BD039
:102A2000012B26D11648012103F03CFC1548012159
:102A300003F038FC1448002103F034FC19E012487C
:102A4000012103F02FFC0F48012103F02BFC0C485F
:102A5000002103F027FC0CE00B48012103F022FCCD
:102A60000748012103F01EFC0648002103F01AFC70
:102A700000BF002318460837BD4680BDD0040020A3
:102A800098040020B40400207C04002080B582B0AB
:102A900000AF78600C48012103F004FC0B480121D1
:102AA00003F000FC0A48012103F0FCFB09480A4935
:102AB000012205F029FA7B6800221A75074809F0FF
:102AC0000BFC0837BD4680BD7C0400209804002024
:102AD000B404002098010020E0E00008D0040020A9
:102AE00080B582B000AF78607B68084A1A607B6866
:102AF0001846FEF791FE0023002B02D0786802F002
:102B000047F87B6818460837BD4680BDE8E20008F4
:102B100080B582B000AF78607868FFF7E1FF786831
:102B200002F036F87B6818460837BD4680BD00BF06
:102B300080B582B000AF786039607B68012B1BD113
:102B40003A684FF6FF739A4216D10D48FFF716FF09
:102B50000B480C490C4A0AF0CFFD0C48262103F023
:102B600067FA0B48272103F063FA0A481C2103F097
:102B70005FFA094809F03AFB0837BD4680BD00BF3F
:102B800064040020E12A0008140C00207C040020CA
:102B900098040020B4040020D004002080B500AFC9
:102BA00001204FF6FF71FFF7C3FF80BD80B582B0F3
:102BB00000AF78607B681846064964224FF4FA63D8
:102BC00009F0D8FB7B68044A1A607B68184608370E
:102BD000BD4680BD84D7000800E300080000000067
:102BE00080B59AB002AF78600023FB65796827A3AF
:102BF000D3E90023CDE9002308464FF000024FF04F
:102C0000000302F085F8FB6D002B10DC07F1400398
:102C10007868194600F084F807F140031A4819460D
:102C20001A2206F0A7F8FB6D0133FB6525E0FB6D6A
:102C3000012B10D107F10C037868194600F02CF82D
:102C400007F10C0310481946222206F093F8FB6D99
:102C50000133FB6511E0FB6D012B0EDD07F1300345
:102C60007868194600F0A0F807F1300306481946C5
:102C7000122206F07FF80023FB657B68184602F0FD
:102C80005DF8C0E7AFF30080D0010020AA21EF0972
:102C900000000000AFF3008090B583B000AF786013
:102CA00039607B6850331C481946FEF70DFD3B68C0
:102CB000A8221A703B68591C7B68D3E92023D3B241
:102CC0000B703B68023300221A703B68033300220A
:102CD0001A703B680433114A12881A803B689A1DA7
:102CE0007B68503310461946182201F027FF3B68D5
:102CF00003F11E04786839681E2200F0CBF8034601
:102D00002360064B1B8801339AB2044B1A8022239E
:102D100018460C37BD4690BDB80500208805002038
:102D200090B583B000AF786039607B6888331C4809
:102D3000194600F0C1F83B68A4221A703B68591C80
:102D40007B68D3E92623D3B20B703B6802330022A1
:102D50001A703B68033300221A703B680433114A2F
:102D600012881A803B689A1D7B6888331046194682
:102D7000102201F0E3FE3B6803F11604786839681D
:102D8000162200F087F803462360064B1B880133A8
:102D90009AB2044B1A801A2318460C37BD4690BDD0
:102DA000E00600208A05002090B585B000AF78606D
:102DB00039607B68A0333248194600F0A9F87B6877
:102DC000A53330481946FEF75FFC7B68A6332E48D2
:102DD000194600F0C1F83B68A2221A7002F0B6F85A
:102DE00002460B4610461946284A4FF00003FDF7ED
:102DF00041FE02460B46C7E902233B6801333A7A9B
:102E00001A703B68023300221A703B6803330022B9
:102E10001A703B6804331E4A12881A803B680633D6
:102E20007A6892F8A520D1B27A6892F8A620D201E9
:102E3000D2B20A43D2B21A703B68073300221A801A
:102E40003B6803F109027B68A0331046194605224E
:102E500001F074FE3B6803F10E04786839680E22B5
:102E600000F018F803462360094B1B8801339AB21F
:102E7000074B1A80102318461437BD4690BD00BF7B
:102E8000A807002060090020E009002040420F0050
:102E90008C05002080B584B000AFF860B9607A601E
:102EA000B868796841F23732FFF756F8034618469A
:102EB0001037BD4680BD00BFB0B485B000AF7860AC
:102EC00039607B68012283F858207B681B6DFB60AA
:102ED0003B68FA68106851689568D4681860596052
:102EE0009D60DC6010695169186159617B6800223E
:102EF00083F858207B68D3E91A23013243F1000399
:102F00007968C1E91A231437BD46B0BC704700BFC9
:102F100080B485B000AF786039607B68012283F8A7
:102F200020207B689B69FB603B68FA681168196028
:102F300012791A717B68002283F820207B68D3E91C
:102F40000C23013243F100037968C1E90C231437E3
:102F5000BD465DF8047B704780B485B000AF7860F3
:102F600039607B6801221A757B68DB68FB60FB684F
:102F70001A783B681A707B6800221A757B68D3E95F
:102F80000823013243F100037968C1E908231437AB
:102F9000BD465DF8047B704780B582B000AF7860B5
:102FA0007B68084A1A607B68184609F051FA0023CA
:102FB000002B02D0786801F0EBFD7B6818460837DB
:102FC000BD4680BD00E3000880B582B000AF7860E8
:102FD0007868FFF7E1FF786801F0DAFD7B68184652
:102FE0000837BD4680BD00BF80B582B000AF7860B5
:102FF00039607B68012B0CD13A684FF6FF739A4217
:1030000007D10548FFF7D2FD03480449044A0AF0F6
:1030100073FB0837BD4680BDE0040020992F0008EF
:10302000140C002080B500AF01204FF6FF71FFF7B0
:10303000DBFF80BD80B582B000AF78607B680A4A54
:103040001A600A4801F044FA7B680433184601F01C
:10305000BFFB0023002B02D0786801F099FD7B684C
:1030600018460837BD4680BD70E4000894D70008B4
:1030700080B582B000AF78607868FFF7DBFF7868D2
:1030800001F086FD7B6818460837BD4680BD00BF4D
:1030900080B582B000AF78607B680A4A1A600A483F
:1030A00001F016FA7B680433184601F091FB002307
:1030B000002B02D0786801F06BFD7B68184608375A
:1030C000BD4680BDD8E40008A4D7000880B582B012
:1030D00000AF78607868FFF7DBFF786801F058FD93
:1030E0007B6818460837BD4680BD00BF80B582B0FA
:1030F00000AF78607B68064A1A600023002B02D07C
:10310000786801F045FD7B6818460837BD4680BDEC
:1031100058E4000880B582B000AF78607868FFF7A7
:10312000E5FF786801F034FD7B6818460837BD4636
:1031300080BD00BF80B584B000AFF860B9607A6030
:103140003B60044801F0C4F9002318461037BD461F
:1031500080BD00BFB8D7000880B584B000AFF8606C
:10316000B9607A60FB681846B96838227B6801F05C
:1031700059FFFB68034A1A60FB6818461037BD46C2
:1031800080BD00BF48E4000880B483B000AF786021
:103190007B68044A1A607B6818460C37BD465DF8A8
:1031A000047B704758E4000880B582B000AF7860B7
:1031B0007B681846FFF7E8FF7B68144A1A607B6853
:1031C0001A1D7B68C3F8AC207B6803F13C027B6866
:1031D000C3F8B0207B6803F174027B68C3F8B420A5
:1031E0007B68002283F8B82079684FF000024FF026
:1031F0000003C1E932237B68D3E932237968C1E94E
:1032000030237B6818460837BD4680BD30E400088F
:1032100080B584B000AFF860B9607A60FB6818468A
:10322000B96818227B6801F0FDFEFB68034A1A604A
:10323000FB6818461037BD4680BD00BF20E400087B
:1032400080B582B000AF78607B681846FFF79CFFBE
:103250007B68134A1A607B681A1D7B68DA647B6896
:1032600003F11C027B681A657B6803F134027B68FA
:103270005A657B68002283F8582079684FF0000275
:103280004FF00003C1E91A237B68D3E91A23796858
:10329000C1E918237B6818460837BD4680BD00BFCA
:1032A00008E4000880B584B000AFF860B9607A60C7
:1032B000FB681846B96805227B6801F0B3FEFB681D
:1032C000034A1A60FB6818461037BD4680BD00BF30
:1032D000F8E3000880B582B000AF78607B681846DC
:1032E000FFF752FF7B68134A1A607B681A1D7B68E0
:1032F0005A617B6803F109027B689A617B6803F17C
:103300000E027B68DA617B68002283F820207968EE
:103310004FF000024FF00003C1E90C237B68D3E9B2
:103320000C237968C1E90A237B6818460837BD4633
:1033300080BD00BFE0E3000880B584B000AFF86056
:10334000B9607A60FB681846B96807227B6801F0AB
:1033500069FEFB68034A1A60FB6818461037BD46D1
:1033600080BD00BFD0E3000880B582B000AF7860B8
:103370007B681846FFF708FF7B68134A1A607B6872
:103380001A1D7B68DA617B6803F10B027B681A62A5
:103390007B6803F112027B685A627B68002283F823
:1033A000282079684FF000024FF00003C1E90E2396
:1033B0007B68D3E90E237968C1E90C237B68184642
:1033C0000837BD4680BD00BFB8E3000880B584B0B3
:1033D00000AFF860B9607A60FB681846B9680622E9
:1033E0007B6801F01FFEFB68034A1A60FB68184601
:1033F0001037BD4680BD00BFA8E3000880B582B08D
:1034000000AF78607B681846FFF7BEFE7B68134A02
:103410001A607B681A1D7B689A617B6803F10A0257
:103420007B68DA617B6803F110027B681A627B6853
:10343000002283F8242079684FF000024FF0000347
:10344000C1E90C237B68D3E90C237968C1E90A231D
:103450007B6818460837BD4680BD00BF90E3000872
:1034600080B584B000AFF860B9607A60FB68184638
:10347000B96801227B6801F0D5FDFB68034A1A6038
:10348000FB6818461037BD4680BD00BF80E30008CA
:1034900080B582B000AF78607B681846FFF774FE95
:1034A0007B68114A1A607B681A1D7B689A607B688A
:1034B0005A1D7B68DA607B689A1D7B681A617B689D
:1034C00000221A7579684FF000024FF00003C1E93D
:1034D00008237B68D3E908237968C1E906237B6860
:1034E00018460837BD4680BD68E3000880B584B043
:1034F00000AFF860B9607A60FB681846B9680122CD
:103500007B6801F08FFDFB68034A1A60FB68184670
:103510001037BD4680BD00BF58E3000880B582B0BB
:1035200000AF78607B681846FFF72EFE7B68114A73
:103530001A607B681A1D7B689A607B685A1D7B68DD
:10354000DA607B689A1D7B681A617B6800221A75B5
:1035500079684FF000024FF00003C1E908237B684F
:10356000D3E908237968C1E906237B681846083740
:10357000BD4680BD40E3000880B584B000AFF86070
:10358000B9607A60FB681846B96802227B6801F06E
:1035900049FDFB68034A1A60FB6818461037BD46B0
:1035A00080BD00BF30E3000880B582B000AF786016
:1035B0007B681846FFF7E8FD7B68124A1A607B6853
:1035C0001A1D7B68DA607B689A1D7B681A617B68CC
:1035D00003F108027B685A617B6800221A767968D9
:1035E0004FF000024FF00003C1E90A237B68D3E9E2
:1035F0000A237968C1E908237B6818460837BD4665
:1036000080BD00BF18E3000880B582B000AF7860CD
:103610007B68084A1A607B681846FFF767FD00233D
:10362000002B02D0786801F0B3FA7B68184608379F
:10363000BD4680BD18E3000880B582B000AF786059
:103640007868FFF7E1FF786801F0A2FA7B68184616
:103650000837BD4680BD00BF80B582B000AF78603E
:103660007B68084A1A607B681846FFF73FFD002315
:10367000002B02D0786801F08BFA7B681846083777
:10368000BD4680BD40E3000880B582B000AF7860E1
:103690007868FFF7E1FF786801F07AFA7B681846EE
:1036A0000837BD4680BD00BF80B582B000AF7860EE
:1036B0007B68084A1A607B681846FFF717FD0023ED
:1036C000002B02D0786801F063FA7B68184608374F
:1036D000BD4680BD68E3000880B582B000AF786069
:1036E0007868FFF7E1FF786801F052FA7B681846C6
:1036F0000837BD4680BD00BF80B582B000AF78609E
:103700007B68084A1A607B681846FFF7EFFC0023C5
:10371000002B02D0786801F03BFA7B681846083726
:10372000BD4680BD90E3000880B582B000AF7860F0
:103730007868FFF7E1FF786801F02AFA7B6818469D
:103740000837BD4680BD00BF80B582B000AF78604D
:103750007B68084A1A607B681846FFF7C7FC00239D
:10376000002B02D0786801F013FA7B6818460837FE
:10377000BD4680BDB8E3000880B582B000AF786078
:103780007868FFF7E1FF786801F002FA7B68184675
:103790000837BD4680BD00BF80B582B000AF7860FD
:1037A0007B68084A1A607B681846FFF79FFC002375
:1037B000002B02D0786801F0EBF97B6818460837D7
:1037C000BD4680BDE0E3000880B582B000AF786000
:1037D0007868FFF7E1FF786801F0DAF97B6818464E
:1037E0000837BD4680BD00BF80B582B000AF7860AD
:1037F0007B68084A1A607B681846FFF777FC00234D
:10380000002B02D0786801F0C3F97B6818460837AE
:10381000BD4680BD08E4000880B582B000AF786086
:103820007868FFF7E1FF786801F0B2F97B68184625
:103830000837BD4680BD00BF80B582B000AF78605C
:103840007B68084A1A607B681846FFF74FFC002324
:10385000002B02D0786801F09BF97B681846083786
:10386000BD4680BD30E4000880B582B000AF78600E
:103870007868FFF7E1FF786801F08AF97B681846FD
:103880000837BD4680BD00BF80B584B002AF786008
:1038900039607B68012B40F006813A684FF6FF7370
:1038A0009A4240F0008181484FF0FF31804AFFF793
:1038B00053FC7E487F49804A09F01EFF7F48FFF78E
:1038C00073FC7E487E497C4A09F016FF0023009372
:1038D0007C487649794A7C4B01F064F979487B4908
:1038E000754A09F009FF7A484FF0FF31794AFFF72E
:1038F0008FFC77487849704A09F0FEFE7748FFF759
:103900009FFC764876496C4A09F0F6FE0023009346
:1039100074486F49714A6C4B01F044F971486B4926
:10392000654A09F0E9FE70484FF0FF316F4AFFF732
:10393000B9FC6D486E49604A09F0DEFE6D48FFF73C
:10394000C9FC6C486C495C4A09F0D6FE0023009320
:103950006A486549674A5C4B01F024F967485B494E
:10396000554A09F0C9FE66484FF0FF31654AFFF736
:10397000E3FC63486449504A09F0BEFE6348FFF720
:10398000F3FC624862494C4A09F0B6FE00230093FA
:1039900060485B495D4A4C4B01F004F95D484B4976
:1039A000454A09F0A9FE5C484FF0FF315B4AFFF73A
:1039B0000DFD59485A49404A09F09EFE5948FFF703
:1039C0001DFD584858493C4A09F096FE00230093D3
:1039D00056485149534A3C4B01F0E4F853483B499F
:1039E000354A09F089FE52484FF0FF31514AFFF73E
:1039F00037FD4F485049304A09F07EFE4F48FFF7E7
:103A000047FD4E484E492C4A09F076FE00230093AC
:103A10004C484749494A2C4B01F0C4F849482B49C6
:103A2000254A09F069FE48484FF0FF31474AFFF741
:103A30005DFD45484649204A09F05EFE4548FFF7CE
:103A40006DFD444844491C4A09F056FE002300938A
:103A500042483D493F4A1C4B01F0A4F83F481B49EE
:103A6000154A09F049FE3E484FF0FF313D4AFFF745
:103A700083FD3B483C49104A09F03EFE3B48FFF7B6
:103A800093FD3A483A490C4A09F036FE0023009368
:103A900038483349354A0C4B01F084F835480B4916
:103AA000054A09F029FE0837BD4680BD9005002073
:103AB00040D800089D3F0008140C0020B8050020E5
:103AC00039380008880600204CD8000891300008DA
:103AD000B806002060D800080D3F0008E00600206E
:103AE000E9370008500700208007002074D800083C
:103AF0007D3E0008A807002099370008E007002055
:103B00001008002084D80008ED3D00083808002087
:103B10004937000878080020A808002090D800083D
:103B20005D3D0008D0080020F93600080809002093
:103B300038090020A4D80008CD3C00086009002006
:103B4000A936000888090020B8090020B4D8000868
:103B50003D3C0008E009002059360008080A002012
:103B6000380A0020C0D80008AD3B0008600A0020D9
:103B700009360008900A002080B584B000AFF860D4
:103B8000B9607A603B607B68022B04D9064800F07C
:103B90009FFC002304E0F868396800F02DFA012347
:103BA00018461037BD4680BDD0D8000880B582B019
:103BB00000AF78607B680A4A1A600A4800F088FC07
:103BC0007B681846FFF736FA0023002B02D078688E
:103BD00000F0DEFF7B6818460837BD4680BD00BF99
:103BE00030E30008E4D8000880B582B000AF786008
:103BF0007868FFF7DBFF786800F0CAFF7B6818463B
:103C00000837BD4680BD00BF80B584B000AFF86006
:103C1000B9607A603B607B68012B04D9064800F0EC
:103C200057FC002304E0F868396800F017FA012314
:103C300018461037BD4680BDD0D8000880B582B088
:103C400000AF78607B680A4A1A600A4800F040FCBE
:103C50007B681846FFF7EEF90023002B02D0786846
:103C600000F096FF7B6818460837BD4680BD00BF50
:103C700058E30008E4D8000880B582B000AF78604F
:103C80007868FFF7DBFF786800F082FF7B681846F2
:103C90000837BD4680BD00BF80B584B000AFF86076
:103CA000B9607A603B607B68012B04D9064800F05C
:103CB0000FFC002304E0F868396800F001FA0123E2
:103CC00018461037BD4680BDD0D8000880B582B0F8
:103CD00000AF78607B680A4A1A600A4800F0F8FB77
:103CE0007B681846FFF7A6F90023002B02D07868FE
:103CF00000F04EFF7B6818460837BD4680BD00BF08
:103D000080E30008E4D8000880B582B000AF786096
:103D10007868FFF7DBFF786800F03AFF7B681846A9
:103D20000837BD4680BD00BF80B584B000AFF860E5
:103D3000B9607A603B607B68062B04D9064800F0C6
:103D4000C7FB002304E0F868396800F0EBF90123B1
:103D500018461037BD4680BDD0D8000880B582B067
:103D600000AF78607B680A4A1A600A4800F0B0FB2E
:103D70007B681846FFF75EF90023002B02D07868B5
:103D800000F006FF7B6818460837BD4680BD00BFBF
:103D9000A8E30008E4D8000880B582B000AF7860DE
:103DA0007868FFF7DBFF786800F0F2FE7B68184662
:103DB0000837BD4680BD00BF80B584B000AFF86055
:103DC000B9607A603B607B68072B04D9064800F035
:103DD0007FFB002304E0F868396800F0D7F901237D
:103DE00018461037BD4680BDD0D8000880B582B0D7
:103DF00000AF78607B680A4A1A600A4800F068FBE6
:103E00007B681846FFF716F90023002B02D078686C
:103E100000F0BEFE7B6818460837BD4680BD00BF77
:103E2000D0E30008E4D8000880B582B000AF786025
:103E30007868FFF7DBFF786800F0AAFE7B68184619
:103E40000837BD4680BD00BF80B584B000AFF860C4
:103E5000B9607A603B607B68052B04D9064800F0A6
:103E600037FB002304E0F868396800F0C5F9012346
:103E700018461037BD4680BDD0D8000880B582B046
:103E800000AF78607B680A4A1A600A4800F020FB9D
:103E90007B681846FFF7CEF80023002B02D0786825
:103EA00000F076FE7B6818460837BD4680BD00BF2F
:103EB000F8E30008E4D8000880B582B000AF78606D
:103EC0007868FFF7DBFF786800F062FE7B681846D1
:103ED0000837BD4680BD00BF80B584B000AFF86034
:103EE000B9607A603B607B68182B04D9064800F003
:103EF000EFFA002304E0F868396800F0B1F9012313
:103F000018461037BD4680BDD0D8000880B582B0B5
:103F100000AF78607B680A4A1A600A4800F0D8FA55
:103F20007B681846FFF786F80023002B02D07868DC
:103F300000F02EFE7B6818460837BD4680BD00BFE6
:103F400020E40008E4D8000880B582B000AF7860B3
:103F50007868FFF7DBFF786800F01AFE7B68184688
:103F60000837BD4680BD00BF80B584B000AFF860A3
:103F7000B9607A603B607B68382B04D9064800F052
:103F8000A7FA002304E0F868396800F0A5F90123D6
:103F900018461037BD4680BDD0D8000880B582B025
:103FA00000AF78607B680A4A1A600A4800F090FA0D
:103FB0007B681846FFF73EF80023002B02D0786894
:103FC00000F0E6FD7B6818460837BD4680BD00BF9F
:103FD00048E40008E4D8000880B582B000AF7860FB
:103FE0007868FFF7DBFF786800F0D2FD7B68184641
:103FF0000837BD4680BD00BF80B485B000AF786093
:1040000039607B68DB683A6812881A807B681B69B4
:10401000FB607B68DA687B681A617B68FA68DA6043
:104020007B681B7EDBB2002B09D07B68DB68FB6002
:104030007B685A697B68DA607B68FA685A617B68DA
:10404000D3E90823013243F100037968C1E9082369
:104050001437BD465DF8047B704700BF80B485B05F
:1040600000AF786039607B689B683A6812781A7094
:104070007B68DB68FB607B689A687B68DA607B68DA
:10408000FA689A607B681B7DDBB2002B09D07B68E5
:104090009B68FB607B681A697B689A607B68FA683A
:1040A0001A617B68D3E90623013243F10003796882
:1040B000C1E906231437BD465DF8047B704700BF95
:1040C00080B485B000AF786039607B689B683A68DF
:1040D00012781A707B68DB68FB607B689A687B6883
:1040E000DA607B68FA689A607B681B7DDBB2002B24
:1040F00009D07B689B68FB607B681A697B689A6063
:104100007B68FA681A617B68D3E90623013243F1C0
:1041100000037968C1E906231437BD465DF8047BC6
:10412000704700BF80B485B000AF786039607B68AD
:104130009B693A681168196092889A807B68DB698C
:10414000FB607B689A697B68DA617B68FA689A61D0
:104150007B6893F82430DBB2002B09D07B689B6925
:10416000FB607B681A6A7B689A617B68FA681A62EE
:104170007B68D3E90A23013243F100037968C1E97E
:104180000A231437BD465DF8047B704780B485B0C0
:1041900000AF786039607B68DB693A681168196044
:1041A0009188927999809A717B681B6AFB607B6821
:1041B000DA697B681A627B68FA68DA617B6893F86F
:1041C0002830DBB2002B09D07B68DB69FB607B68A1
:1041D0005A6A7B68DA617B68FA685A627B68D3E95D
:1041E0000C23013243F100037968C1E90C23143731
:1041F000BD465DF8047B704780B485B000AF786041
:1042000039607B685B693A681168196012791A71C4
:104210007B689B69FB607B685A697B689A617B68F5
:10422000FA685A617B6893F82030DBB2002B09D022
:104230007B685B69FB607B68DA697B685A617B68D5
:10424000FA68DA617B68D3E90A23013243F100039B
:104250007968C1E90A231437BD465DF8047B7047CD
:10426000B0B485B000AF786039607B68DB6C3A68C9
:10427000106851689568D468186059609D60DC606A
:1042800010695169186159617B681B6DFB607B681F
:10429000DA6C7B681A657B68FA68DA647B6893F885
:1042A0005830DBB2002B09D07B68DB6CFB607B688D
:1042B0005A6D7B68DA647B68FA685A657B68D3E973
:1042C0001823013243F100037968C1E91823143738
:1042D000BD46B0BC704700BFF0B484B000AF78609A
:1042E00039607B68D3F8AC203B6803F13004114699
:1042F0001846D0F800C046688568C068C1F800C09C
:104300004E608D60C86010331032A342EFD119683F
:104310005B68116053607B68D3F8B030FB607B68EA
:10432000D3F8AC207B68C3F8B0207B68FA68C3F888
:10433000AC207B6893F8B830DBB2002B0DD07B68E3
:10434000D3F8AC30FB607B68D3F8B4207B68C3F84B
:10435000AC207B68FA68C3F8B4207B68D3E93023CB
:10436000013243F100037968C1E930231037BD46BB
:10437000F0BC704780B500AF01204FF6FF71FFF72A
:1043800083FA80BD80B485B000AF0346FB80FB8814
:104390003B8107F10803FB60FB681B78FB72FB683D
:1043A0005A78FB681A70FB680133FA7A1A703B89F5
:1043B0001BB218461437BD465DF8047B704700BF3A
:1043C00080B582B000AF78607B68064A1A6000232F
:1043D000002B02D0786800F0DBFB7B6818460837BA
:1043E000BD4680BD80E4000880B582B000AF786033
:1043F0007868FFF7E5FF786800F0CAFB7B6818462D
:104400000837BD4680BD00BF80B582B000AF786080
:104410000B46FB7097F90330184607F05BFC083732
:10442000BD4680BD80B483B000AF78607B68044A2D
:104430001A607B6818460C37BD465DF8047B7047F0
:1044400080E400080FB480B582B000AF1C4B1B683D
:10445000002B2FD03B461846FFF7E4FF07F114036B
:104460007B60184B1B68002B05D0164B1B68164849
:10447000194601F0CBFA07F083FE034683F00103EF
:10448000DBB2002B05D03B461846396901F04CF8E9
:104490000AE00E4807F0C2FE3B461846396901F0B3
:1044A00043F80A4807F018FF07F056FC3B46184649
:1044B000FFF786FF0837BD46BDE8804004B070476F
:1044C0000C000020D40A0020FCD80008D80A0020E4
:1044D00080B582B000AF7860074B7A681A600748F1
:1044E0007968FFF7AFFF064B1B685A1C044B1A6034
:1044F0000837BD4680BD00BF0800002010D9000865
:10450000D40A002080B582B000AF786039607B6843
:10451000012B07D13A684FF6FF739A4202D1034844
:1045200007F064FE0837BD4680BD00BFD80A0020F2
:1045300080B500AF01204FF6FF71FFF7E3FF80BDAC
:104540000FB480B400AF00231846BD465DF8047B6D
:1045500004B0704780B483B000AF78600C37BD46BC
:104560005DF8047B704700BF0FB480B400AF002338
:104570001846BD465DF8047B04B070470FB480B4A4
:1045800000AF00231846BD465DF8047B04B07047B9
:1045900080B483B000AF7860002318460C37BD4666
:1045A0005DF8047B704700BF80B483B000AF7860D3
:1045B000002318460C37BD465DF8047B704700BFEA
:1045C0000FB480B400AF00231846BD465DF8047BED
:1045D00004B070470FB480B400AF00231846BD4646
:1045E0005DF8047B04B070470FB480B400AF0023C3
:1045F0001846BD465DF8047B04B0704780B483B0B4
:1046000000AF78607B680A4A1A607B6800221A61F2
:104610007B6800225A607B6800229A607B680022D7
:10462000DA607B6818460C37BD465DF8047B70473E
:1046300098E4000880B584B000AFF860C7E90023B3
:1046400006F06CFFFB681B6810331B68F86898471E
:104650000346002B02D006F069FF0EE007F0B2FF20
:104660000246FB689A60FB689968D7E90023C1E9B4
:104670000A2306F05BFF07F02FFF1037BD4680BD11
:1046800080B582B000AF78607B689B68002B04D057
:104690007B689B68184607F0A1FF7B6800229A6040
:1046A0007B681B69002B07D07B681B691B681B6834
:1046B0007A681269104698470837BD4680BD00BF2A
:1046C00080B582B000AF78607B685B68002B04D057
:1046D0007B685B68184607F081FF7B6800225A60A0
:1046E0007B681B69002B08D07B681B691B6804333F
:1046F0001B687A681269104698470837BD4680BD26
:1047000080B582B000AF78607B68DB68002B04D096
:104710007B68DB68184607F061FF7B680022DA607F
:104720007B681B69002B08D07B681B691B680833FA
:104730001B687A681269104698470837BD4680BDE5
:1047400080B584B000AFF860B9607A603B60FB6808
:104750003A68DA60FB687A685A60084B1B68591C33
:10476000064A1160FA689360F868B96800F008F8C2
:10477000FB6818461037BD4680BD00BFE80A002020
:1047800080B582B000AF786039603B681A687B689A
:104790001A603B687A681A600A4B1B68002B0CBFD2
:1047A00000230123DBB2002B08D00748FFF790FE5F
:1047B0007B685B6805481946FFF744FE0837BD462D
:1047C00080BD00BF901E00203CD9000870D90008B1
:1047D00080B582B000AF78600348FFF779FE7B6850
:1047E00018460837BD4680BD94D9000880B483B010
:1047F00000AF78607B681B6818460C37BD465DF8D3
:10480000047B704780B483B000AF78607B685B68DE
:1048100018460C37BD465DF8047B704780B588B0FC
:1048200000AF01233B60FB785BB2012B14BF002378
:104830000123DAB26E4B1A7007F016FA6D4801F0D8
:10484000E5F86D4B1B68002B03D06B4B1B68043BDA
:1048500000E00023FB6110E0FB691B681B68F8693E
:104860009847FB6904331846FFF7C0FF0346002B47
:1048700001D0043B00E00023FB61FB69002BEBD17E
:104880005E4B1B68002B03D05C4B1B68043B00E0B5
:104890000023BB6111E0BB691B6808331B68B86962
:1048A0009847BB6904331846FFF7A0FF0346002B67
:1048B00001D0043B00E00023BB61BB69002BEAD1BF
:1048C0004F4801F0A3F84F4B1B68002B03D04D4B12
:1048D0001B68043B00E000237B6121E07B6904331B
:1048E0001846FFF783FF0346002B01D0043B00E08E
:1048F0000023BB607B691B7F002B06D07B690433E0
:1049000018464149FFF73CFF08E07B691A1D7B69A7
:104910005B69143310461946FFF732FFBB687B61B1
:104920007B69002BDAD1394B1B68002B4DD03848FE
:1049300001F06CF8354B1B68002B03D0334B1B6820
:10494000043B00E000233B613CE03B690433184634
:10495000FFF758FF01463B69DA693B691B6A2D483E
:1049600001F054F83B695B69002B03D03B695B693C
:10497000043B00E00023FB6015E0FB6804331846AD
:10498000FFF740FF03462448194601F03FF8FB6853
:1049900004331846FFF72AFF0346002B01D0043BDF
:1049A00000E00023FB60FB68002BE6D13B69043389
:1049B0001846FFF71BFF0346002B01D0043B00E025
:1049C00000233B613B69002BBFD1144801F01EF866
:1049D00000F068FA78607B68002B03D01048796893
:1049E00001F014F807F050FE2037BD4680BD00BF2F
:1049F000F00A0020A8D90008CC0A0020481F002097
:104A0000D8D90008D00A0020500B0020EC0A002062
:104A1000FCD9000818DA000844DA000850DA000867
:104A200064DA00082DE9F04184B002AF78603960A3
:104A3000264B7A681A60264B3A681A6006F02EFDFB
:104A400024482549254A00F0E1FF08F0F1F8FFF776
:104A5000E5FE06F0C5FC03461E4606F0E1FC0546F1
:104A600006F0E8FC044606F0C7FC804606F0CEFCE3
:104A70000346CDF800800193194831462A46234663
:104A800000F0C4FF08F090F9044608F08DF90346E1
:104A9000144821461A4600F0B9FF134800F0B6FF4B
:104AA00000F026F842F210704FF0000106F0F0FF1F
:104AB00006F096FF0D4800F0A9FF07F0FFFA00236B
:104AC00018460837BD46BDE8F08100BFF40A002053
:104AD000F80A002080DA0008B0DA0008BCDA000822
:104AE000D4DA000838DB000858DB000890DB000847
:104AF00080B500AF014800F089FF80BDC4DB00082D
:104B000080B485B000AF78600023FB607B68002B29
:104B100001D100230BE005E0FB680133FB607B68FB
:104B200001337B607B681B78002BF5D1FB6818464E
:104B30001437BD465DF8047B704700BF80B487B072
:104B400000AFF860B9607A60FB687B61BB683B616D
:104B50007B69002B02D03B69002B01D1002311E0BF
:104B60000CE03B691A787B691A707B68013B7B60BB
:104B70003B6901333B617B6901337B617B68002BBF
:104B8000EFD1FB6818461C37BD465DF8047B7047C3
:104B900080B483B000AF78600C37BD465DF8047B0D
:104BA000704700BF80B584B000AFF860B9607A602C
:104BB0003B60FB68043318461049114A0023FFF795
:104BC000BFFDFB680F4A1A60FB68BA685A61FB6850
:104BD0002033184607F00AFBFB683A7E1A77FB6819
:104BE00001225A77FB683A689A60FB687A689A6192
:104BF000FB6818461037BD4680BD00BFD00A0020B4
:104C0000F0DB0008D8E4000880B485B000AFF8609D
:104C1000B9607A603B60034B18461437BD465DF8B7
:104C2000047B704715CD5B0790B587B002AFF86085
:104C3000B9607A603B60FB685B7F83F00103DBB2A5
:104C4000002B01D000233DE0FB682033184607F01D
:104C5000E5FAFB689B69002B0FD0FB689B691B681A
:104C600008331C68FB689A697B68396A00911046B2
:104C7000B9681A463B68A04718E0FB681B681C68C7
:104C80003B6A5B690093F868B9687A683B68A0473B
:104C900002460E4B9A420CBF00230123DBB2002BCD
:104CA00004D00B48FFF714FC01230BE0FB68203312
:104CB000184607F011FBFB689B69002B01D001230C
:104CC00000E0002318461437BD4690BD15CD5B07A4
:104CD000FCDB000890B58DB002AFF860B9607A6077
:104CE0003B60FB689B69002B0FD0FB689B691B68CE
:104CF00008331C68FB689A693B6807F11001009152
:104D00001046B9681A467B68A0472C37BD4690BD4F
:104D100080B485B000AFF860C7E90023F968D7E92F
:104D20000023C1E90E23F968D7E90623C1E910235E
:104D30001437BD465DF8047B704700BFB0B586B040
:104D400002AF786006E04FF0FF306FF000410022C4
:104D500007F060FC7B68D3E9102352EA0301F2D02C
:104D60007B68D3E90E2310461946002207F052FC57
:104D700000F0ECF8C7E902017B68D3E90E017B681B
:104D8000D3E91023D7E90245CDE9004500F0E8F862
:104D900002460B467968C1E90E231037BD46B0BD07
:104DA00080B584B000AF786007F00CFCF860F8685C
:104DB00007F0EEFBB860F868796807F0F5FBBB68B0
:104DC00018461037BD4680BDB0B586B002AFC7E902
:104DD00000010023FB60324B1B68002B03D0304BDB
:104DE0001B68043B00E00023BB6051E0BB68D3E9D3
:104DF0000601D7E90023904271EB030C3CDABB6853
:104E0000D3E9082352EA030107D1B9684FF0FF3212
:104E10006FF00043C1E9062325E0BB68D3E9060132
:104E2000BB68D3E90823121843EB0103B968C1E951
:104E30000623BB68D3E90601D7E90023904271EB52
:104E4000030C10DABB68D3E90601BB68D3E9082379
:104E5000D7E90045CDE9004500F082F802460B464F
:104E6000B968C1E90623BB681B6808331B68B868CA
:104E70009847FB680133FB60BB6804331846FFF7B3
:104E8000B5FC0346002B01D0043B00E00023BB60CF
:104E9000BB68002BAAD1FB6818461037BD46B0BDD1
:104EA000C80A002080B582B000AF00237B60144B9D
:104EB0001B68002B03D0124B1B68043B00E000234F
:104EC0003B6014E03B681B680C331B6838689847EC
:104ED0007B6801337B603B6804331846FFF786FC30
:104EE0000346002B01D0043B00E000233B603B68FD
:104EF000002BE7D17B6818460837BD4680BD00BF50
:104F0000C80A002080B483B000AF786079684FF0A1
:104F100000024FF00003C1E9002379684FF000025E
:104F20004FF00003C1E9022379684FF000024FF00F
:104F30000003C1E904237B6811229A617B6818464B
:104F40000C37BD465DF8047B704700BF80B500AFED
:104F500006F026FE02460B461046194680BD00BFED
:104F600080B584B000AFC7E90201C7E90023D7E9E3
:104F70000223D7E90601904271EB030C02DAD7E96C
:104F800002232CE0D7E9002352EA030104D14FF0B9
:104F9000FF326FF0004322E0D7E90601D7E9022390
:104FA000821A61EB030310461946D7E90023FBF789
:104FB00061FD02460B46013243F10003396803FBF1
:104FC00001F0796802FB01F101443868A0FB02237B
:104FD00019440B46D7E90201121843EB01031046AE
:104FE00019461037BD4680BD80B582B000AF7860ED
:104FF00039607B68012B07D13A684FF6FF739A42FC
:1050000002D10348FFF77EFF0837BD4680BD00BFD1
:10501000000B002080B500AF01204FF6FF71FFF7B5
:10502000E3FF80BD80B586B000AFF860B9607A60FC
:105030003B60FB68043318462E493A680023FFF7AB
:105040007FFBFB682C4A1A60FB6800225A61FB68F0
:10505000BA68DA61FB687A681A62FB6800229A61B2
:10506000FB68DB69B3F1FF3F11D1386807F054FEEC
:1050700003461A46FB68DA61FB68DB69B3F57A7FA1
:1050800005DAFB68DB6903F57A72FB68DA61194BB4
:105090001B68002B03D0174B1B68043B00E0002368
:1050A0007B611EE07B69DA69BB689A420DD17A693F
:1050B000FB689A4209D01148FFF70AFA7B699B689E
:1050C0000F48B9683A68FFF7BDF97B6904331846A1
:1050D000FFF78CFB0346002B01D0043B00E00023CC
:1050E0007B617B69002BDDD1FB6818461837BD4614
:1050F00080BD00BFEC0A002070E400085CDC000802
:1051000070DC000880B586B002AFF860B9603B6023
:105110001346FB71FB681B6A1A46FB7939680091DC
:10512000F868B96800F006F8034618461037BD461F
:1051300080BD00BF90B591B002AFF860B9607A60F1
:10514000FB7000237B63BB6C002B12D100237B62BE
:10515000FFF7FCFE02460B46C7E9062307F024FED4
:1051600003463B6107F02EFA03463B6207F110034A
:10517000BB64FB689B69002B0FD0FB689B691B68B5
:105180001C68FB689969FB68DA697B68B86C0090F9
:10519000084611461A46BB68A047FB685B69002BAE
:1051A00003D0FB685B69043B00E000233B6321E024
:1051B0003B6B5B7F002B11D03B6B1B6804331C687F
:1051C000FB68DA697B68B96C0091386B11461A4646
:1051D000BB68A04703467A6B13447B633B6B043385
:1051E0001846FFF703FB0346002B01D0043B00E009
:1051F00000233B633B6B002BDAD1FB7883F0010388
:10520000DBB2002B01D07B6B2CE0184B5B69002BD1
:1052100003D0164B5B69043B00E00023FB621DE0FA
:10522000FB6A1B6804331C68FB68DA697B68B96C2D
:105230000091F86A11461A46BB68A04703467A6B8C
:1052400013447B63FB6A04331846FFF7CFFA034627
:10525000002B01D0043B00E00023FB62FB6A002B23
:10526000DED17B6B18463C37BD4690BD3C0B002021
:1052700080B582B000AF78607B680A4A1A600A483D
:10528000FFF726F97B681846FDF7D4FE0023002BB4
:1052900002D07868FFF77CFC7B6818460837BD466B
:1052A00080BD00BF18E50008E8DC000880B582B0CA
:1052B00000AF78607868FFF7DBFF7868FFF768FC7D
:1052C0007B6818460837BD4680BD00BF80B584B0F6
:1052D00000AFF860B9607A60FB681846B9680C22C4
:1052E0007B68FFF79FFEFB68034A1A60FB6818465D
:1052F0001037BD4680BD00BF18E5000880B584B0FA
:1053000000AFF860B9607A60FB681846B96840F28F
:105310002E527B68FFF786FEFB68034A1A60FB6823
:1053200018461037BD4680BD08E5000880B584B03A
:1053300000AFF860B9607A60FB681846B96804226B
:105340007B68FFF76FFEFB68034A1A60FB6818462C
:105350001037BD4680BD00BFF8E4000880B582B0BC
:1053600000AF786039607B68012B4FD13A684FF607
:10537000FF739A424AD1274827490A2207F0E2FBE5
:1053800024482649264A08F0B7F926480021264A2B
:10539000FFF79CFF23482549214A08F0ADF924482E
:1053A0004FF0FF31234AFFF7A9FF214822491C4A49
:1053B00008F0A2F921484FF0FF31214AFFF7B6FF6C
:1053C0001E482049164A08F097F91F484FF0FF3150
:1053D0001E4AFFF7ABFF1C481A49114A08F08CF926
:1053E0001B484FF0FF311B4AFFF7A0FF1848154933
:1053F0000B4A08F081F918484FF0FF31174AFFF7C0
:1054000065FF15480949064A08F076F90837BD4690
:1054100080BD00BF200B0020F8DC000885CB000811
:10542000140C00203C0B00200CDD00087152000819
:10543000600B00201CDD0008BD540008840B002018
:1054400028DD000861540008A80B002038DD0008A2
:10545000CC0B002048DD0008F00B00205CDD0008CC
:1054600080B582B000AF78607B680A4A1A600A484B
:10547000FFF72EF87B681846FDF7DCFD0023002BB4
:1054800002D07868FFF784FB7B6818460837BD4672
:1054900080BD00BFF8E40008E8DC000880B582B0F9
:1054A00000AF78607868FFF7DBFF7868FFF770FB84
:1054B0007B6818460837BD4680BD00BF80B582B006
:1054C00000AF78607B680A4A1A600A48FFF700F864
:1054D0007B681846FDF7AEFD0023002B02D07868EC
:1054E000FFF756FB7B6818460837BD4680BD00BFF6
:1054F00008E50008E8DC000880B582B000AF7860FD
:105500007868FFF7DBFF7868FFF742FB7B68184697
:105510000837BD4680BD00BF80B500AF01204FF603
:10552000FF71FFF71BFF80BD80B594B000AF7860BE
:10553000396056E2002387F84E30002387F84D305B
:10554000002387F84C30002387F84B3097F84F3012
:10555000252B0AD07B681B6808331B6897F84F20FF
:1055600052B27868114698473BE23B685A1C3A6051
:105570001B7887F84F30002387F84330202387F8C3
:105580004230032387F8413097F84F30302B09D150
:1055900097F84F3087F842303B685A1C3A601B78C6
:1055A00087F84F3097F84F302F2B0ED997F84F30A0
:1055B000392B0AD897F84F30303B87F843303B6897
:1055C0005A1C3A601B7887F84F3097F84F302E2BD3
:1055D00010D13B685A1C3A601B7887F84F3097F817
:1055E0004F30303B87F841303B685A1C3A601B789B
:1055F00087F84F3097F84F306C2B08D1012387F88C
:105600004D303B685A1C3A601B7887F84F3097F84A
:105610004F306C2B08D1012387F84C303B685A1C63
:105620003A601B7887F84F3097F84F30623B162B63
:1056300038D801A151F823F03157000895560008D9
:105640001B570008A556000815570008A556000866
:10565000A5560008A5560008A5560008A55600083E
:10566000A5560008A5560008A5560008FF560008D4
:10567000A5560008A5560008A5560008BB56000808
:10568000A556000821570008A5560008A556000891
:10569000295700087B685B68191D7A6851601B6890
:1056A00087F84F307B681B6808331B6897F84F20DA
:1056B00052B278681146984793E17B685B68191D80
:1056C0007A6851601B687B6409E07B681B6808335B
:1056D0001B6897F84F2052B27868114698477B6C48
:1056E0005A1C7A641B7887F84F3097F84F30002B9C
:1056F0000CBF00230123DBB2002BE6D171E10823AC
:10570000A7F848307B681B6808331B68786830212D
:10571000984711E0012387F84B30012387F84E307A
:105720000A23A7F8483007E01023A7F8483003E021
:105730000223A7F8483000BF4FF000024FF00003EB
:10574000C7E90C234FF000024FF00003C7E90A231A
:1057500097F84B30002B15D07B685B68073323F03C
:10576000070303F108017A685160D3E90023C7E910
:105770000A23D7E90A01FBF7AFF902460B46C7E94E
:105780000C232CE097F84C30002B0DD07B685B6825
:10579000073323F0070303F108017A685160D3E966
:1057A0000023C7E90C231AE097F84D30002B0BD0EB
:1057B0007B685B68191D7A6851601B681A464FEA5E
:1057C000E273C7E90C230AE07B685B68191D7A68FD
:1057D00051601B681A464FEAE273C7E90C2397F839
:1057E0004E30002B2DD0D7E90C23002A73F1000195
:1057F0000ADBD7E90A014FF000024FF00003FBF784
:10580000F1F80346002B1CD0D7E90C23524263EB7E
:105810004303C7E90C23BB6ABB62FB6A83F0004306
:10582000FB627B681B6808331B6878682D219847EA
:1058300097F84330002B04D097F84330013B87F8AA
:10584000433097F84C30002B04D0D7E90C23C7E93C
:105850000E2310E097F84D30002B06D03B6B1A4614
:105860004FF00003C7E90E2305E03B6B1A464FF0EB
:105870000003C7E90E2307F10C031A337B647B6C2A
:10588000013B7B647B6C00221A70B7F848204FF014
:105890000003D7E90E01FBF709F9D3B23033DBB2CD
:1058A00087F8273097F92730392B05DD97F827300F
:1058B0000733DBB287F827307B6C013B7B6497F8BA
:1058C00027207B6C1A70B7F848204FF00003D7E907
:1058D0000E01FBF7EBF802460B46C7E90E2397F8DB
:1058E0004330002B04D097F84330013B87F8433016
:1058F000D7E90E2352EA0301C7D106E07B6C013BD6
:105900007B647B6C97F842201A7097F843305A1EDC
:1059100087F84320002B0CBF00230123DBB2002BB0
:10592000ECD109E07B681B6808331B6897F84F20AF
:1059300052B27868114698477B6C5A1C7A641B787F
:1059400087F84F3097F84F30002B0CBF002301230E
:10595000DBB2002BE6D197F84B30002B41D07B68AF
:105960001B6808331B6878682E2198472DE0D7E91B
:105970000C01FAF797FD02460B46D7E90A01FAF740
:105980000BFC02460B46C7E90A23D7E90A014FF090
:1059900000021D4BFAF7B4FD02460B46C7E90A2385
:1059A000D7E90A01FBF798F802460B46C7E90C2332
:1059B0007B681B6808331B6897F830203032D2B2FE
:1059C000D2B252B278681146984797F841305A1EC1
:1059D00087F84120002B0CBF00230123DBB2002BF2
:1059E000C5D13B685A1C3A601B7887F84F3097F84E
:1059F0004F30002B0CBF00230123DBB2002B7FF4C0
:105A000099AD5037BD4680BD000024400FB480B52D
:105A100082B000AF0C4B1B68002B0FD03B461846E2
:105A2000FEF700FD07F114037B603B461846396919
:105A3000FFF77AFD3B461846FEF7C2FC0837BD4625
:105A4000BDE8804004B070470C00002080B582B0F3
:105A500000AF0C4B7B6008E07B681B6898473B6895
:105A600001333B607B6804337B607A68064B9A4263
:105A7000F2D13B6801333B603B68013B3B60083738
:105A8000BD4680BDD8E6000828E7000880B485B090
:105A900000AFF860B9607A60002318461437BD463D
:105AA0005DF8047B704700BF80B400AFFEE700BF25
:105AB000002100F004B8124B5B58435004311148E8
:105AC000114B42189A42FFF4F6AF104A00F003B8A7
:105AD000002342F8043B0E4B9A42FFF4F9AF0D4A03
