:020000040800F2
:100000000000022089760008B9CB0008C1CB0008A7
:10001000E5CB0008EDCB0008F5CB000800000000A0
:10002000000000000000000000000000F9C400080B
:10003000F5760008000000000DC5000839C800086A
:10004000F5760008F5760008F5760008F5760008E4
:10005000F5760008F5760008A9800008CD80000834
:10006000F18000081581000839810008F576000844
:100070009D9A0008F5760008C5990008F5760008F5
:10008000559A00087D990008F5760008F576000875
:10009000F5760008F5760008F57600085D81000821
:1000A000F5760008F5760008E9C90008F57600083D
:1000B000F5760008F5760008F5760008F576000874
:1000C000F5760008F5760008F5760008F576000864
:1000D000F5760008A5980008BD980008D598000896
:1000E000B9810008F5760008F5760008F576000875
:1000F000F5760008F5760008F5760008F576000834
:10010000F5760008F576000805C60008F5760008C3
:10011000ED98000805990008F5760008F5760008C6
:10012000F5760008F5760008F5760008F576000803
:10013000F5760008F5760008F5760008F5760008F3
:10014000F5760008F5760008F5760008F5760008E3
:100150000D9A0008F5760008359900081D990008E9
:10016000F5760008F5760008F5760008F5760008C3
:10017000F5760008F5760008F5760008F5760008B3
:0C018000F5760008F57600080000000885
:1001900081F0004102E000BF83F0004330B54FEA38
:1001A00041044FEA430594EA050F08BF90EA020FA5
:1001B0001FBF54EA000C55EA020C7FEA645C7FEA38
:1001C000655C00F0E2804FEA5454D4EB5555B8BF5B
:1001D0006D420CDD2C4480EA020281EA030382EACC
:1001E000000083EA010180EA020281EA0303362D5E
:1001F00088BF30BD11F0004F4FEA01314FF4801C31
:100200004CEA113102D0404261EB410113F0004F42
:100210004FEA03334CEA133302D0524263EB4303F9
:1002200094EA050F00F0A780A4F10104D5F1200E97
:100230000DDB02FA0EFC22FA05F2801841F10001F2
:1002400003FA0EF2801843FA05F359410EE0A5F1C6
:1002500020050EF1200E012A03FA0EFC28BF4CF0F7
:10026000020C43FA05F3C01851EBE37101F00045AD
:1002700007D54FF0000EDCF1000C7EEB00006EEBBA
:100280000101B1F5801F1BD3B1F5001F0CD3490844
:100290005FEA30004FEA3C0C04F101044FEA44529B
:1002A00012F5800F80F09A80BCF1004F08BF5FEA22
:1002B000500C50F1000041EB045141EA050130BD02
:1002C0005FEA4C0C404141EB010111F4801FA4F1A5
:1002D0000104E9D191F0000F04BF01460020B1FAFA
:1002E00081F308BF2033A3F10B03B3F120020CDA32
:1002F0000C3208DD02F1140CC2F10C0201FA0CF010
:1003000021FA02F10CE002F11402D8BFC2F1200C74
:1003100001FA02F120FA0CFCDCBF41EA0C0190402A
:10032000E41AA2BF01EB0451294330BD6FEA040473
:100330001F3C1CDA0C340EDC04F11404C4F120025E
:1003400020FA04F001FA02F340EA030021FA04F370
:1003500045EA030130BDC4F10C04C4F1200220FAC7
:1003600002F001FA04F340EA0300294630BD21FA05
:1003700004F0294630BD94F0000F83F4801306BFCB
:1003800081F480110134013D4EE77FEA645C18BFBF
:100390007FEA655C29D094EA050F08BF90EA020F56
:1003A00005D054EA000C04BF1946104630BD91EA4E
:1003B000030F1EBF0021002030BD5FEA545C05D151
:1003C0004000494128BF41F0004130BD14F5800490
:1003D0003CBF01F5801130BD01F0004545F0FE4104
:1003E00041F470014FF0000030BD7FEA645C1ABF39
:1003F000194610467FEA655C1CBF0B46024650EA70
:10040000013406BF52EA033591EA030F41F400219B
:1004100030BD00BF90F0000F04BF0021704730B521
:100420004FF4806404F132044FF000054FF00001F6
:1004300050E700BF90F0000F04BF0021704730B5B7
:100440004FF4806404F1320410F0004548BF40428C
:100450004FF000013EE700BF42004FEAE2014FEAE1
:1004600031014FEA02701FBF12F07F4393F07F4FBC
:1004700081F06051704792F0000F14BF93F07F4FEE
:10048000704730B54FF4607401F0004521F0004131
:1004900020E700BF50EA010208BF704730B54FF0B7
:1004A00000050AE050EA010208BF704730B511F0BC
:1004B000004502D5404261EB41014FF4806404F1F4
:1004C00032045FEA915C3FF4DCAE4FF003025FEA76
:1004D000DC0C18BF03325FEADC0C18BF033202EBFE
:1004E000DC02C2F1200300FA03FC20FA02F001FA58
:1004F00003FE40EA0E0021FA02F11444C1E600BFF7
:1005000070B54FF0FF0C4CF4E06C1CEA11541DBFA9
:100510001CEA135594EA0C0F95EA0C0F00F0DEF874
:100520002C4481EA030621EA4C5123EA4C5350EA59
:10053000013518BF52EA033541F4801143F48013AA
:1005400038D0A0FB02CE4FF00005E1FB02E506F03B
:100550000042E0FB03E54FF00006E1FB03569CF090
:10056000000F18BF4EF0010EA4F1FF04B6F5007F96
:1005700064F5407404D25FEA4E0E6D4146EB060608
:1005800042EAC62141EA55514FEAC52040EA5E5091
:100590004FEACE2EB4F1FD0C88BFBCF5E06F1ED83B
:1005A000BEF1004F08BF5FEA500E50F1000041EB72
:1005B000045170BD06F0004646EA010140EA02001F
:1005C00081EA0301B4EB5C04C2BFD4EB0C0541EA41
:1005D000045170BD41F480114FF0000E013C00F356
:1005E000AB8014F1360FDEBF002001F0004170BD7A
:1005F000C4F10004203C35DA0C341BDC04F1140493
:10060000C4F1200500FA05F320FA04F001FA05F21E
:1006100040EA020001F0004221F0004110EBD370EB
:1006200021FA04F642EB06015EEA430E08BF20EA17
:10063000D37070BDC4F10C04C4F1200500FA04F3BA
:1006400020FA05F001FA04F240EA020001F000414C
:1006500010EBD37041F100015EEA430E08BF20EABF
:10066000D37070BDC4F1200500FA05F24EEA020E07
:1006700020FA04F301FA05F243EA020321FA04F036
:1006800001F0004121FA04F220EA020000EBD370ED
:100690005EEA430E08BF20EAD37070BD94F0000FED
:1006A0000FD101F00046400041EB010111F4801F21
:1006B00008BF013CF7D041EA060195F0000F18BFD2
:1006C000704703F00046520043EB030313F4801F0E
:1006D00008BF013DF7D043EA0603704794EA0C0FC8
:1006E0000CEA135518BF95EA0C0F0CD050EA4106DE
:1006F00018BF52EA4306D1D181EA030101F000415B
:100700004FF0000070BD50EA410606BF1046194682
:1007100052EA430619D094EA0C0F02D150EA01368E
:1007200013D195EA0C0F05D152EA03361CBF1046CF
:1007300019460AD181EA030101F0004141F0FE416E
:1007400041F470014FF0000070BD41F0FE4141F4F2
:10075000780170BD70B54FF0FF0C4CF4E06C1CEAF2
:1007600011541DBF1CEA135594EA0C0F95EA0C0FA7
:1007700000F0A7F8A4EB050481EA030E52EA033562
:100780004FEA013100F088804FEA03334FF0805583
:1007900045EA131343EA12634FEA022245EA1115B0
:1007A00045EA10654FEA00260EF000419D4208BF61
:1007B000964244F1FD0404F5407402D25B084FEA0E
:1007C0003202B61A65EB03055B084FEA32024FF4BA
:1007D00080104FF4002CB6EB020E75EB030E22BF17
:1007E000B61A754640EA0C005B084FEA3202B6EBD7
:1007F000020E75EB030E22BFB61A754640EA5C0086
:100800005B084FEA3202B6EB020E75EB030E22BF15
:10081000B61A754640EA9C005B084FEA3202B6EB16
:10082000020E75EB030E22BFB61A754640EADC00D5
:1008300055EA060E18D04FEA051545EA16754FEA37
:1008400006164FEAC30343EA52734FEAC2025FEA55
:100850001C1CC0D111F4801F0BD141EA00014FF0E4
:1008600000004FF0004CB6E711F4801F04BF0143B5
:100870000020B4F1FD0C88BFBCF5E06F3FF6AFAED1
:10088000B5EB030C04BFB6EB020C5FEA500C50F161
:10089000000041EB045170BD0EF0004E4EEA1131E4
:1008A00014EB5C04C2BFD4EB0C0541EA045170BDEB
:1008B00041F480114FF0000E013C90E645EA060E2F
:1008C0008DE60CEA135594EA0C0F08BF95EA0C0F5D
:1008D0003FF43BAF94EA0C0F0AD150EA01347FF4A5
:1008E00034AF95EA0C0F7FF425AF104619462CE77C
:1008F00095EA0C0F06D152EA03353FF4FDAE1046DF
:10090000194622E750EA410618BF52EA43067FF42F
:10091000C5AE50EA41047FF40DAF52EA43057FF4BF
:10092000EBAE12E74FF0FF3C06E000BF4FF0010CCA
:1009300002E000BF4FF0010C4DF804CD4FEA410C2E
:100940007FEA6C5C4FEA430C18BF7FEA6C5C1BD0FB
:1009500001B050EA410C0CBF52EA430C91EA030F7C
:1009600002BF90EA020F0020704710F1000F91EAD9
:10097000030F58BF994208BF90422CBFD8176FEAA7
:10098000E37040F0010070474FEA410C7FEA6C5C75
:1009900002D150EA013C07D14FEA430C7FEA6C5C7C
:1009A000D6D152EA033CD3D05DF8040B704700BFA8
:1009B0008446104662468C461946634600E000BFF6
:1009C00001B5FFF7B7FF002848BF10F1000F01BDC8
:1009D0004DF808EDFFF7F4FF0CBF012000205DF893
:1009E00008FB00BF4DF808EDFFF7EAFF34BF012018
:1009F00000205DF808FB00BF4DF808EDFFF7E0FFB1
:100A000094BF012000205DF808FB00BF4DF808ED01
:100A1000FFF7CEFF94BF012000205DF808FB00BF68
:100A20004DF808EDFFF7C4FF34BF012000205DF84A
:100A300008FB00BF4A0011D212F5001211D20DD5E9
:100A40006FF47873B3EB62520ED44FEAC12343F0D4
:100A5000004343EA505323FA02F070474FF000007E
:100A6000704750EA013002D14FF0FF3070474FF02D
:100A70000000704773B96AB9002908BF0028BCBFDD
:100A800000204FF00041C4BF6FF000414FF0FF3035
:100A900000F08CB882B0EC462DE9005000F056F81A
:100AA000DDF804E002B00CBC704700BF4BB942B99E
:100AB000002908BF002802D04FF0FF31084600F09F
:100AC00075B882B0EC462DE9005000F057F8DDF81B
:100AD00004E002B00CBC704738B500220023044685
:100AE0000D46FFF77FFF28B920462946BDE838406C
:100AF00000F00AB8204605F1004100F005F8404238
:100B000061EB410138BD00BF70B500220D4B0446BA
:100B10000D46FFF7F5FCFFF78DFF0646FFF77AFC61
:100B20000022094BFFF7ECFC02460B462046294603
:100B3000FFF732FBFFF77EFF002242EA0004204667
:100B4000314670BD0000F03D0000F0412DE97043DA
:100B5000069E14461D468046894600F029F804FB8F
:100B600001F300FB0533A4FB00451D44B8EB04046E
:100B700069EB0505C6E90045BDE870832DE97043C2
:100B8000069E1446804689461D4600F05DF900FB2E
:100B900005F504FB0153A0FB04451D44B8EB040418
:100BA00069EB0505C6E90045BDE87083704700BFE5
:100BB00000292DE9F00FC0F29F800024002BC0F225
:100BC0009680154606460F46002B3ED18A4257D9DD
:100BD000B2FA82F34BB1C3F1200201FA03F720FA13
:100BE00002F29D40174300FA03F6290CB7FBF1F21D
:100BF000330C01FB127CA8B243EA0C4700FB02F362
:100C0000BB4209D97F1902F1FF3C80F00181BB4250
:100C100040F2FE80023A2F44FF1AB7FBF1F3B6B25E
:100C200001FB137146EA014100FB03F0884208D939
:100C3000491903F1FF3780F0ED80884240F2EA80E5
:100C4000023B43EA0242002303E08B420AD900231D
:100C50001A461046194614B1404261EB4101BDE805
:100C6000F00F7047B3FA83F8B8F1000F40F08480BA
:100C70008B4202D3824200F2DE8000230122E8E7A9
:100C800012B90123B3FBF2F5B5FA85F2002A39D186
:100C90007F1B280C1FFA85FC0123B7FBF0F1320CF7
:100CA00000FB117742EA07470CFB01F2BA4207D971
:100CB0007F1901F1FF3802D2BA4200F2C1804146E9
:100CC000BF1AB7FBF0F2B6B200FB127046EA004062
:100CD0000CFB02FC844507D9401902F1FF3702D210
:100CE000844500F2AB803A4642EA0142B1E7E44370
:100CF000524263EB430364E7404261EB41014FF032
:100D0000FF345BE79540C2F1200327FA03F1280C7A
:100D100026FA03F39740B1FBF0F81F433B0C00FBAE
:100D200018111FFA85FC43EA01410CFB08F38B42C2
:100D300006FA02F608D9491908F1FF3279D28B4236
:100D400077D9A8F102082944C91AB1FBF0F3BFB260
:100D500000FB131147EA01470CFB03F2BA4207D923
:100D60007F1903F1FF3160D2BA425ED9023B2F44B2
:100D7000BF1A43EA084390E7C8F1200203FA08FCCF
:100D800025FA02F343EA0C0C4FEA1C4921FA02F35C
:100D900001FA08F720FA02F2B3FBF9F1174309FB55
:100DA00011333A0C1FFA8CFB42EA03430BFB01FAA6
:100DB0009A4505FA08F008D913EB0C0301F1FF324C
:100DC00035D29A4533D902396344CAEB0303B3FBE6
:100DD000F9F209FB1233BFB247EA03470BFB02F9F2
:100DE000B94508D917EB0C0702F1FF331BD2B945FF
:100DF00019D9023A674442EA0145A5FB0001C9EB53
:100E000007078F424FF000030AD305D02A4620E798
:100E1000624601E73B4614E706FA08F68642F5D239
:100E20006A1E002315E71A46E5E70B46A0E71146C0
:100E3000CBE7904688E7434642460AE7023A53E743
:100E400002392F443CE700BF2DE9F00F1446054658
:100E50000E46002B43D18A4253D9B2FA82F757B1DA
:100E6000C7F1200620FA06F601FA07F302FA07F4A2
:100E70001E4300FA07F5210CB6FBF1F22B0C01FB27
:100E80001267A0B243EA074600FB02F3B34209D956
:100E9000361902F1FF3780F0F680B34240F2F3805A
:100EA000023A2644F61AB6FBF1F3ADB201FB136128
:100EB00045EA014100FB03F0884208D9091903F112
:100EC000FF3680F0E280884240F2DF80023B43EA56
:100ED0000242002310461946BDE8F00F70478B42CE
:100EE0004AD8B3FA83F6002E4DD18B4202D3824208
:100EF00000F2D6800023012210461946BDE8F00F0B
:100F0000704712B90124B4FBF2F4B4FA84F2002A57
:100F10007CD1091B260CA7B20123B1FBF6F02A0CE9
:100F200006FB101142EA014107FB00F28A4207D991
:100F3000091900F1FF3C02D28A4200F2C3806046E8
:100F4000891AB1FBF6F2ADB206FB121145EA014572
:100F500007FB02F7AF4208D92C1902F1FF3180F0EC
:100F60009680A74240F29380023A42EA004210463D
:100F70001946BDE8F00F704700231A46104619467F
:100F8000BDE8F00F7047C6F1200522FA05F4B34022
:100F90001C434FEA144821FA05F301FA06F720FA38
:100FA00005F5B3FBF8FC2F4308FB1C333D0C1FFA7F
:100FB00084FA45EA03430AFB0CF9994502FA06FB59
:100FC00004D91B190CF1FF326DD39446C9EB03030E
:100FD000B3FBF8F508FB1533BFB247EA03470AFB3A
:100FE00005F8B84504D93F1905F1FF3361D31D4613
:100FF00045EA0C4CACFB0B23C8EB07079F424FF0B4
:10100000000549D345D062462B4663E79440C2F1C0
:10101000200321FA03FC260C20FA03F301FA02F55F
:10102000BCFBF6F843EA05010B0C06FB18CCA7B293
:1010300043EA0C4C07FB08F3634500FA02F509D9B3
:101040001CEB040C08F1FF323AD2634538D9A8F101
:101050000208A444C3EB0C0CBCFBF6F389B206FBFC
:1010600013CC41EA0C4107FB03F28A4207D9091964
:1010700003F1FF3022D28A4220D9023B2144891A4F
:1010800043EA084349E73A460CE733461FE70A4676
:101090006BE7B0409042B6D20CF1FF32002319E763
:1010A0003346324616E799458FD9ACF1020C2344FA
:1010B0008CE7B8459BD9023D274499E70346DEE714
:1010C0009046C7E7023821443AE700BF80B483B0B6
:1010D00000AF78600B46FB707B68FA781A700C37AB
:1010E000BD465DF8047B704780B483B000AF786084
:1010F0007B689B7818460C37BD465DF8047B7047CB
:1011000080B584B000AFF8600B467A60FB72F86877
:101110003721002200F0E4F9FB7AF86819467A6872
:1011200000F0DEF9034618461037BD4680BD00BF0B
:1011300080B483B000AF78600B46FB707B68FA78B0
:101140009A700C37BD465DF8047B704780B485B05B
:1011500000AF78600B46FB700023FB730023BB736A
:1011600021E0BB7B7A6813441B787B7300233B73BD
:1011700013E0FB7B5B00FB737A7BFB7B534003F04C
:101180008003002B03D0FB7B83F00903FB737B7B85
:101190005B007B733B7B01333B733B7B072BE8D9C5
:1011A000BB7B0133BB73BA7BFB789A42D9D3FB7B01
:1011B0005B00DBB243F00103DBB2DBB2184614374D
:1011C000BD465DF8047B704780B485B000AF7860A1
:1011D00039600023FB810023BB602BE0FB891B12DD
:1011E000DBB21A46FB891B029BB213439BB2FB8105
:1011F0007A68BB6813441B781A46FB895340FB810D
:10120000FB89DBB21B119AB2FB8953409BB2FB8175
:10121000FB891B039AB2FB8953409BB2FB81FB897C
:10122000DBB25B019AB2FB8953409BB2FB81BB6886
:101230000133BB60BA683B689A42CFD3FB8918463A
:101240001437BD465DF8047B704700BF0000000006
:1012500080B58AB002AF78607B6800229A707B68A4
:101260009A787B681A7005F05DFC02460B46C7E968
:10127000042395480021954A07F0BCFE94480221BA
:1012800003F088F8924803F0D3F88F4891490A2276
:1012900007F040FF1FE005F045FC02460B461046F4
:1012A0001946D7E90423821A61EB030384A1D1E92B
:1012B0000001994208BF90422CBF00230123DBB2FA
:1012C000002B08D078680121FFF700FF804803F069
:1012D000AFF80023EEE078680021002200F000F96A
:1012E0000346012B0CBF00230123DBB2002BD2D11C
:1012F00078683B21012200F0F3F80346012B0CBF74
:1013000000230123DBB2002B08D078681A21FFF7F5
:10131000DDFE6F4803F08CF80023CBE078680821ED
:101320004FF4D57200F0DCF80346052B14BF002300
:101330000123DBB2002B04D078680121FFF7F8FE0F
:101340003BE00023FB770BE07B6801330122009236
:101350005D486049012207F073FFFB7F0133FB7793
:10136000FB7F032BF0D97B685B78AA2B04D17868CC
:101370000221FFF7DDFE20E005F0D4FB02460B461C
:1013800010461946D7E90423821A61EB03034CA1E6
:10139000D1E90001994208BF90422CBF00230123EC
:1013A000DBB2002B08D078680221FFF78FFE484897
:1013B00003F03EF800237DE0B0E77868FFF794FE85
:1013C0000346022B02D14FF0804300E00023FB6074
:1013D00022E005F0A7FB02460B4610461946D7E966
:1013E0000423821A61EB030335A1D1E9000199427C
:1013F00008BF90422CBF00230123DBB2002B0BD08F
:10140000354804F0E9FD78680A21FFF75FFE3048AF
:1014100003F00EF800234DE078682921FA68FFF701
:101420006FFE0346002B0CBF00230123DBB2002B11
:10143000CFD17868FFF758FE0346022B14BF002374
:101440000123DBB2002B2CD078683A21002200F077
:1014500047F80346002B0CBF00230123DBB2002B0F
:1014600008D078680821FFF731FE194802F0E0FF44
:1014700000231FE007F10B030122009212481549D7
:10148000012207F0DDFEFB7A03F0C003C02B03D17D
:1014900078680321FFF74CFE0B480E49032207F042
:1014A00039FE0B4802F0C4FF074800210B4A07F041
:1014B000A1FD012318462037BD4680BDAFF3008053
:1014C0000094357700000000CC000020801A060050
:1014D000C801002018F0000834E6000840420F0060
:1014E00080B588B002AFF8600B467A60FB72304876
:1014F00002F044FF034683F00103DBB2002B03D06C
:101500002B48022102F046FFF86827A3D3E9002305
:1015100000F0E4F9FB7A43F04003DBB23B747B68F4
:101520001B0EDBB27B747B681B0CDBB2BB747B686D
:101530001B0ADBB2FB747B68DBB23B7507F110035F
:1015400018460521FFF702FE03467B7507F11003DD
:1015500018481946062207F0DDFDFB7A0C2B04D152
:1015600014481549012207F0D5FD0023FB7512E050
:10157000FB680133012200920E480F49012207F057
:101580005FFEFB685B78DBB25BB2002B00DB05E043
:10159000FB7D0133FB75FB7DFF2BE9D1FB685B789D
:1015A00018461837BD4680BD0046C3230000000022
:1015B000C8010020CC00002018F00008AFF3008024
:1015C00080B584B000AFF860B9607A6022482349E2
:1015D000BA6804F001FDF868FFF786FD0346032BA7
:1015E0000CBF00230123DBB2002B05D01C4804F004
:1015F000F3FCBB685B02BB60F8681121BA68FFF7B7
:101600006FFF0346002B0CBF00230123DBB2002B2E
:1016100008D0F8680421FFF759FD124802F008FFCE
:10162000002314E0F86879684FF4007200F054F871
:10163000034683F00103DBB2002B04D0094802F01B
:10164000F7FE002303E0074802F0F2FE01231846EC
:101650001037BD4680BD00BF44E600084CE60008D8
:1016600050E60008C801002080B586B000AFF860E1
:10167000B9607A603B60F868B96800F0D1F8034659
:1016800083F00103DBB2002B01D000231FE0002315
:10169000FB8214E0F86879684FF4007200F01CF8DF
:1016A000034683F00103DBB2002B01D000230EE0E0
:1016B000FB8A0133FB827B6803F500737B60FA8A47
:1016C0003B689A42E6D3F86800F0E4F8034618460F
:1016D0001837BD4680BD00BF80B58AB002AFF86044
:1016E000B9607A6005F01EFA02460B46C7E9062388
:1016F000FB6801330122009245484649012207F068
:101700009FFD28E005F00EFA02460B4610461946EA
:10171000D7E90623821A61EB03033BA1D1E900015B
:10172000994208BF90422CBF00230123DBB2002B5B
:1017300008D0F8681121FFF7C9FC374802F078FE9D
:1017400000235CE0FB6801330122009230483149FC
:10175000012207F075FDFB685B78FF2BD2D0FB6898
:101760005B78FE2B08D0F8680F21FFF7AFFC2A4802
:1017700002F05EFE002342E07B6800932448254986
:101780007A68BB6807F05CFD78617A697B689A4289
:101790000BD0FB68FF225A70F8681C21FFF796FCFB
:1017A0001D4802F045FE002329E007F11203022242
:1017B000009217481749022207F042FD7B8A9BB22C
:1017C0001BB2184604F0A8FB03469BB27B82B868A4
:1017D0007968FFF7F9FC03461A467B8A9A420CBFE8
:1017E00000230123DBB2002B08D0F8681B21FFF790
:1017F0006DFC094802F01CFE002300E0012318469E
:101800002037BD4680BD00BF00A3E11100000000ED
:10181000CC00002018F00008C8010020AFF30080C1
:1018200080B582B000AF78603960174817493A68D0
:1018300004F0D2FB7868FFF757FC0346032B0CBF7C
:1018400000230123DBB2002B02D03B685B023B602C
:10185000786812213A68FFF743FE0346002B0CBF5D
:1018600000230123DBB2002B08D078680521FFF7A5
:101870002DFC074802F0DCFD002300E001231846A0
:101880000837BD4680BD00BF44E6000864E6000896
:10189000C801002080B582B000AF786078680C2164
:1018A0000022FFF71DFE0346002B0CBF002301237F
:1018B000DBB2002B08D078680321FFF707FC06484D
:1018C00002F0B6FD002303E0034802F0B1FD01235E
:1018D00018460837BD4680BDC801002080B58AB0D3
:1018E00002AFF860C7E9002305F01CF902460B4679
:1018F000C7E9062307F11703012200921748184988
:10190000012207F09DFC20E005F00CF902460B4691
:1019100010461946D7E90623801A61EB0301D7E97F
:101920000023994208BF904234BF00230123DBB259
:10193000002B01D000230CE007F1170301220092D5
:1019400006480749012207F07BFCFB7DFF2BDBD11A
:10195000012318462037BD4680BD00BFCC000020C3
:1019600018F0000880B584B000AFF860B9607A6004
:1019700020482149BA6804F02FFBF868FFF7B4FB50
:101980000346032B0CBF00230123DBB2002B02D044
:10199000BB685B02BB60F8681821BA68FFF7A0FD5E
:1019A0000346002B0CBF00230123DBB2002B08D021
:1019B000F8680621FFF78AFB104802F039FD002382
:1019C00013E0F868FE217A6800F092F8034683F08D
:1019D0000103DBB2002B04D0084802F029FD0023EC
:1019E00003E0064802F024FD012318461037BD46E7
:1019F00080BD00BF44E6000868E60008C80100207A
:101A000080B586B000AFF860B9607A603B60F86876
:101A1000B9683A6800F0B8F8034683F00103DBB216
:101A2000002B04D0144802F003FD002320E0002323
:101A30007B6115E0F868796800F022F8034683F0CE
:101A40000103DBB2002B04D00B4802F0F1FC0023B1
:101A50000EE07B6901337B617B6803F500737B607B
:101A60007A693B689A42E5D3F86800F0DDF80346EE
:101A700018461837BD4680BDC80100200000000090
:101A800080B582B000AF78603960786815A3D3E97B
:101A90000023FFF723FF034683F00103DBB2002B93
:101AA00008D078681721FFF711FB0D4802F0C0FC41
:101AB000002310E07868FC213A6800F019F803462A
:101AC00083F00103DBB2002B04D0054802F0B0FC28
:101AD000002300E0012318460837BD4680BD00BF43
:101AE000C80100200046C32300000000AFF30080BF
:101AF00080B588B002AFF8600B467A60FB727868F8
:101B00004FF40071FFF760FB03469BB21BB218460F
:101B100004F002FA03469BB2FB8207F10B0317485D
:101B20001946012207F0F6FA144879684FF400725A
:101B300007F0F0FA07F1160310481946022207F0E1
:101B4000E9FAFB680133012200920C480C4901229A
:101B500007F076FBFB685B7803F01F03052B08D0CA
:101B6000F8681321FFF7B2FA064802F061FC00237F
:101B700000E0012318461837BD4680BDCC00002088
:101B800018F00008C801002080B584B000AFF860EC
:101B9000B9607A6021482249BA6804F01DFAF868F1
:101BA00017217A68FFF7ACFA0346002B0CBF00231D
:101BB0000123DBB2002B08D0F8680921FFF786FA71
:101BC000184802F035FC002324E0F868FFF78CFA8F
:101BD0000346032B0CBF00230123DBB2002B02D0F2
:101BE000BB685B02BB60F8681921BA68FFF778FC34
:101BF0000346002B0CBF00230123DBB2002B08D0CF
:101C0000F8680721FFF762FA064802F011FC00238A
:101C100000E0012318461037BD4680BD44E60008A9
:101C20006CE60008C801002080B584B000AF786081
:101C300078681DA3D3E90023FFF750FE034683F025
:101C40000103DBB2002B08D078681221FFF73EFABF
:101C5000174802F0EDFB002321E0FD23FB7307F1A1
:101C60000F0314481946012207F054FA78680EA3AE
:101C7000D3E90023FFF732FE034683F00103DBB212
:101C8000002B08D078681221FFF720FA084802F0EC
:101C9000CFFB002303E0064802F0CAFB01231846ED
:101CA0001037BD4680BD00BF0046C32300000000C2
:101CB000C8010020CC00002080B483B000AF786061
:101CC0000C37BD465DF8047B704700BF80B582B01D
:101CD00000AF78607B68094A1A607B680433184655
:101CE00004F040FB0023002B02D0786804F03CFD98
:101CF0007B6818460837BD4680BD00BFC0EF0008AE
:101D000080B582B000AF78607868FFF7DFFF786851
:101D100004F02AFD7B6818460837BD4680BD00BF29
:101D200080B582B000AF78607B685B691B68343334
:101D30001B687A68526910464FF4165198477B68C1
:101D40005B691B6838331B687A6852691046032147
:101D5000022298470837BD4680BD00BF80B582B0DB
:101D600000AF78607B68084A1A607B681846FFF706
:101D7000ADFF0023002B02D0786804F0F5FC7B68EF
:101D800018460837BD4680BDA8EF000880B582B070
:101D900000AF78607868FFF7E1FF786804F0E4FC52
:101DA0007B6818460837BD4680BD00BF80B483B04D
:101DB00000AF78607B6819221A707B6800225A7025
:101DC0007B6800229A707B6818460C37BD465DF828
:101DD000047B704780B483B000AF78607B681B7869
:101DE00018460C37BD465DF8047B704780B584B05B
:101DF00000AF0346FB71FB79002B13D10C48FFF7B2
:101E0000E9FFB860BB68192B02D10123FB7307E01F
:101E1000BB68002B02D00423FB7301E00023FB739B
:101E2000FB7B00E0022318461037BD4680BD00BF93
:101E30005800002080B584B000AF0346FB71FB79E9
:101E4000002B0DD10948FFF703FA0346FB73FB7B18
:101E5000002B01D0002300E00123BB73BB7B00E01B
:101E6000022318461037BD4680BD00BF5800002031
:101E700080B586B000AFB9607A603B600346FB7303
:101E80000423FB750023BB75FB7B002B25D13B682E
:101E9000012B07D113487968BA68FFF791FB034615
:101EA000BB750DE03B68012B08D90E487968BA680C
:101EB0003B68FFF7D9FB0346BB7501E004230DE047
:101EC000BB7D83F00103DBB2002B02D00123FB7545
:101ED00001E00023FB75FB7D00E004231846183762
:101EE000BD4680BD5800002080B586B000AFB96007
:101EF0007A603B600346FB730423FB750023BB75CC
:101F0000FB7B002B25D13B68012B07D11348796857
:101F1000BA68FFF727FD0346BB750DE03B68012B50
:101F200008D90E487968BA683B68FFF769FD03462F
:101F3000BB7501E004230DE0BB7D83F00103DBB240
:101F4000002B02D00123FB7501E00023FB75FB7D14
:101F500000E0042318461837BD4680BD5800002015
:101F600080B582B000AF786039607B68012B07D103
:101F70003A684FF6FF739A4202D10348FFF716FF03
:101F80000837BD4680BD00BF5800002080B500AFB7
:101F900001204FF6FF71FFF7E3FF80BD80B485B0ED
:101FA00000AF78607B6801331B78FB81FB891B02E3
:101FB0009AB27B681B7813439BB2FB81FB8918465E
:101FC0001437BD465DF8047B704700BF80B485B010
:101FD00000AF78607B6803331B78FB60FB681A02F4
:101FE0007B6802331B781343FB60FB681A027B6833
:101FF00001331B781343FB60FB681A027B681B7874
:102000001343FB60FB6818461437BD465DF8047B3C
:10201000704700BF80B483B000AF78600B467B8010
:102020007B685A1C7A607A88D2B21A707B881B123D
:102030007B807B685A1C7A607A88D2B21A700C371F
:10204000BD465DF8047B704780B483B000AF786014
:1020500039607B685A1C7A603A68D2B21A703B6861
:102060001B0A3B607B685A1C7A603A68D2B21A70CD
:102070003B681B0A3B607B685A1C7A603A68D2B2A4
:102080001A703B681B0A3B607B685A1C7A603A688E
:10209000D2B21A700C37BD465DF8047B704700BFA2
:1020A00080B487B000AFF860B9607A60FB687B618C
:1020B000BB683B617B68002B12D07B695A1C7A613C
:1020C0003A69511C396112781A707B68013B7B6058
:1020D0007B68002B0CBF00230123DBB2002BECD16B
:1020E0001C37BD465DF8047B704700BF80B487B0E5
:1020F00000AFF860B9607A60FB687B617B695A1C4D
:102100007A61BA68D2B21A707B68013B7B607B68E7
:10211000002B0CBF00230123DBB2002BEED11C37B8
:10212000BD465DF8047B704780B489B000AFF860AD
:10213000B9607A60FB68FB61BB68BB6100237B61AF
:10214000FB695A1CFA611B781A46BB69591CB961B4
:102150001B78D31A7B617B68013B7B607B68002B1B
:1021600004D07B69002B01D1012300E00023002B68
:10217000E6D17B6918462437BD465DF8047B70477D
:1021800080B483B000AF7860396002E07B680133CF
:102190007B607B681B78002B05D07B681B785AB26C
:1021A0003B689A42F2D17B681B785BB218460C37C9
:1021B000BD465DF8047B704780B586B000AF78609F
:1021C0000023FB737B68DB78002B3BD07B68DB6AEA
:1021D0007B617B685A787B683033104619467A6990
:1021E0000123FFF781FE0346002B0CBF00230123D0
:1021F000DBB2002B02D00123FB7323E07B680022BB
:10220000DA707B681B6A7A69D21A7B689B699A428A
:1022100018D27B689B783B6111E07B689B697A6987
:1022200013447B617B685A787B68303310461946CB
:102230007A690123FFF758FE3B69013B3B613B692B
:10224000012BEAD8FB7B18461837BD4680BD00BF7E
:1022500080B584B000AF786039600023FB737B6881
:10226000DA6A3B689A4221D07868FFF7A5FF0346F7
:10227000FB73FB7B002B19D17B685A787B6830336A
:10228000104619463A680123FFF7F2FD0346002B7A
:102290000CBF00230123DBB2002B04D04FF0FF332F
:1022A0003B600123FB737B683A68DA62FB7B18466C
:1022B0001037BD4680BD00BF80B483B000AF7860EA
:1022C00039603B68023B3B607B685B699A1E3B68F8
:1022D0009A4201D8002307E07B685B893A6802FBD9
:1022E00003F27B689B6A134418460C37BD465DF8C1
:1022F000047B704780B586B000AF786039607B683A
:102300001B683B613B68012B04D93B695A693B68F8
:102310009A4202D801237B619AE04FF0FF337B6140
:102320003B691B78022B51D0032B6ED0012B40F060
:102330008D803B68FB60FB685B08FA681344FB60B8
:102340003B691A6AFB685B0A134438691946FFF750
:102350007FFF0346002B0CBF00230123DBB2002BC1
:1023600000D075E0FB685A1CFA60C3F308033A69B1
:10237000134493F83030BB603B691A6AFB685B0A10
:10238000134438691946FFF763FF0346002B0CBF5F
:1023900000230123DBB2002B00D059E0FB68C3F31C
:1023A00008033A69134493F830301B02BA681343A8
:1023B000BB603B6803F00103002B02D0BB681B0924
:1023C00002E0BB68C3F30B037B6141E03B691A6A1F
:1023D0003B681B0A134438691946FFF739FF034667
:1023E000002B0CBF00230123DBB2002B00D02FE019
:1023F0003B685B0003F4FF7330333A6913441846BB
:10240000FFF7CCFD03467B6122E03B691A6A3B681B
:10241000DB09134438691946FFF71AFF0346002BFE
:102420000CBF00230123DBB2002B00D010E03B687F
:102430009B0003F4FE7330333A6913441846FFF7E8
:10244000C5FD034623F070437B6101E001237B61FE
:102450007B6918461837BD4680BD00BF90B589B06E
:1024600000AFF860B9607A600223FB77BB68012B8C
:1024700040F2CD80FB685A69BB689A4240F2C7803F
:10248000FB681B78022B72D0032B00F09080012B8D
:1024900000D0BCE0BB68BB61BB695B08BA69134490
:1024A000BB61FB681A6ABB695B0A1344F86819468A
:1024B000FFF7CEFE0346FB77FB7F002B00D0A6E0A4
:1024C000BB695A1CBA61C3F308033033FA6813447A
:1024D0007B61BB6803F00103002B0DD07B691B7887
:1024E000DBB203F00F03DAB27B68DBB21B01DBB2B5
:1024F0001343DBB2DBB201E07B68DBB27A691370B5
:10250000FB680122DA70FB681A6ABB695B0A134434
:10251000F8681946FFF79CFE0346FB77FB7F002B0C
:1025200000D074E0BB69C3F308033033FA68134486
:102530007B61BB6803F00103002B03D07B681B09A0
:10254000DBB20EE07B691B78DBB223F00F03DAB25B
:102550007B681B0ADBB203F00F03DBB21343DBB271
:10256000DBB27A691370FB680122DA704FE0FB6816
:102570001A6ABB681B0A1344F8681946FFF768FE1D
:102580000346FB77FB7F002B00D040E0BB685B007D
:1025900003F4FF733033FA681A447B689BB2104629
:1025A0001946FFF737FDFB680122DA702FE0FB6860
:1025B0001A6ABB68DB091344F8681946FFF748FE3E
:1025C0000346FB77FB7F002B00D020E07B6823F0E5
:1025D0007044BB689B0003F4FE733033FA68134405
:1025E0001846FFF7F3FC034603F0704323437B6078
:1025F000BB689B0003F4FE733033FA68134418463B
:102600007968FFF721FDFB680122DA7000BFFB7FCC
:1026100018462437BD4690BD80B588B000AFF8603D
:10262000B9607A600023FB77FB681B68BB61BB68FD
:10263000012B04D9BB695A69BB689A4201D80223AD
:1026400048E07B68002B0CD0B86979684FF0FF3206
:10265000FFF704FF0346FB77FB7F002B01D0FB7FD6
:1026600038E0F868B968FFF745FE78617B69002BB0
:1026700000D12EE07B69012B01D102232AE07B6986
:10268000B3F1FF3F01D1012324E0B869B96800220A
:10269000FFF7E4FE0346FB77FB7F002B01D0FB7FB7
:1026A00018E0BB691B69B3F1FF3F0BD0BB691B6925
:1026B0005A1CBB691A61BB691B7943F00103DAB28A
:1026C000BB691A717B69BB60BB695A69BB689A4276
:1026D000C7D8002318462037BD4680BD80B588B0D6
:1026E00000AF786039607B681B683B613B68002BFA
:1026F0000DD13B69DB68BB61BB69002B04D03B6932
:102700005A69BB699A421BD80123BB6118E07868FB
:102710003968FFF7EFFDF860FB68012B01D8012352
:1027200072E0FB68B3F1FF3F01D1FB686CE03B69ED
:102730005A69FB689A4201D9FB6865E03B68BB6156
:10274000BB69FB61FB690133FB613B695A69FB694A
:102750009A4207D80223FB61FA69BB699A4201D900
:10276000002351E07868F969FFF7C4FDF860FB6861
:10277000002B0CD100BF3869F9694FF0FF32FFF729
:102780006DFE0346FB75FB7D002B1AD10FE0FB6845
:10279000012B03D0FB68B3F1FF3F01D1FB6833E0AD
:1027A000FA69BB699A4201D100232DE0CAE73B6870
:1027B000002B06D038693968FA69FFF74FFE0346E7
:1027C000FB75FB7D002B16D13B69FA69DA603B692A
:1027D0001A693B695B69023B9A4204D23B691B69F7
:1027E0005A1E3B691A613B691B7943F00103DAB257
:1027F0003B691A7107E0FB7D012B02D14FF0FF33DB
:1028000000E00123FB61FB6918462037BD4680BD0F
:1028100080B586B000AF786039607B681B683B612B
:102820003B68B3F5001F04D23B6803F01F03002B85
:1028300001D0022362E07B683A681A617B689B687A
:102840007B617B69002B06D13B691B78022B02D987
:102850003B695B6A7B617B69002B0CD13B685A0941
:102860003B691B899A4201D3022347E03B695A6ABC
:102870007B689A6129E03B695B895B02FB6019E038
:102880007B6818467969FFF735FD78617B69B3F19C
:10289000FF3F01D1012331E07B69012B04D93B6962
:1028A0005A697B699A4201D8022327E03A68FB689B
:1028B000D31A3B603A68FB689A42E1D23869796979
:1028C000FFF7FAFC02467B689A617B687A695A6175
:1028D0007B689B69002B01D102230FE07B689A691A
:1028E0003B685B0A1A447B689A613B68C3F3080340
:1028F00030333A691A447B68DA6100231846183786
:10290000BD4680BD80B586B000AF786039607B6819
:102910001B68FB607B681B692033BB607B689B691D
:10292000002B03D0BB68B3F5001F01D30423B4E030
:10293000BB68C3F30803002B40F0A3807B689B694E
:102940005A1C7B689A617B685B69002B0BD1BB6862
:102950005A09FB681B899A42C0F093807B68002269
:102960009A61042399E0BB685A0AFB685B89013BC2
:102970001340002B40F085807A687B685B691046C5
:102980001946FFF7B7FC78617B69012B01D8022358
:1029900083E07B69B3F1FF3F01D101237DE0FB6858
:1029A0005A697B699A4262D83B68002B04D17B68E4
:1029B00000229A61042370E07A687B685B691046A4
:1029C0001946FFF78BFE78617B69002B01D1072345
:1029D00063E07B69012B01D102235EE07B69B3F1E7
:1029E000FF3F01D1012358E0F868FFF7E5FB0346FC
:1029F000002B0CBF00230123DBB2002B01D00123ED
:102A00004BE0FB683033184600214FF40072FFF7AB
:102A10006DFB00233B61F8687969FFF74DFC0246C6
:102A2000FB68DA6217E0FB680122DA70F868FFF7EA
:102A3000C3FB0346002B0CBF00230123DBB2002B9A
:102A400001D0012329E03B6901333B61FB68DB6A6C
:102A50005A1CFB68DA62FB685B891A463B699A423A
:102A6000E1D8FB68DA6A3B69D21AFB68DA627B68F4
:102A70007A695A61F8687969FFF71EFC02467B683B
:102A80009A617B68BA681A61BB68C3F30803303384
:102A9000FA681A447B68DA61002318461837BD4685
:102AA00080BD00BF80B586B000AF786039607B68BC
:102AB0001B68FB6078680021FFF7AAFE0346FB75E0
:102AC000FB7D002B31D100233B617B689B69F8685B
:102AD0001946FFF7BDFB0346FB75FB7D002B00D0BD
:102AE00023E07B68DB691B78E52B04D07B68DB691E
:102AF0001B78002B0DD13B6901333B613A693B6880
:102B00009A4214BF00230123DBB2002B00D00CE05B
:102B100001E000233B6178680121FFF7F3FE0346E3
:102B2000FB75FB7D002BD0D0FFE7FB7D042B01D193
:102B30000723FB75FB7D18461837BD4680BD00BFD7
:102B400080B584B000AF786039603B681A331846AE
:102B5000FFF724FA0346FB607B681B78032B09D13F
:102B60003B6814331846FFF719FA03461B04FA684A
:102B70001343FB60FB6818461037BD4680BD00BF9D
:102B800080B584B000AFF860B9607A60BB6803F1CB
:102B90001A027B689BB210461946FFF73BFAFB68A6
:102BA0001B78032B09D1BB6803F114027B681B0C53
:102BB0009BB210461946FFF72DFA1037BD4680BD6F
:102BC00080B586B000AF78607B681B683B61786831
:102BD0000021FFF71DFE0346FB75FB7D002B01D096
:102BE000FB7D42E07B689B6938691946FFF730FB43
:102BF0000346FB75FB7D002B00D035E07B68DB696D
:102C00001B78FB73FB7B002B02D10423FB752BE0AD
:102C10007B68DB690B331B7803F03F03DAB27B6818
:102C20009A717B68DB690B331B7803F00803002B78
:102C30000DD17B68DA697B682033104619460B2278
:102C4000FFF772FA0346002B01D1012300E00023B5
:102C5000002B00D008E078680021FFF753FE034600
:102C6000FB75FB7D002BBDD0FB7D18461837BD469C
:102C700080BD00BF80B584B000AF78607B681B6802
:102C8000BB6078680121FFF70DFF0346FB73FB7BF8
:102C9000002B1DD17B689B69B8681946FFF7D8FAED
:102CA0000346FB73FB7B002B12D17B68DB69184664
:102CB00000212022FFF71AFA7B68DA697B6820334B
:102CC000104619460B22FFF7EBF9BB680122DA70B8
:102CD000FB7B18461037BD4680BD00BF80B588B06D
:102CE00000AF786039603B681B68FB607B6820330D
:102CF000BB60B86820210B22FFF7F8F900233B6185
:102D00003B697B610823BB617B695A1C7A61FA6865
:102D100013441B78FB77FB7F202B00D853E0FB7F0D
:102D20002F2B02D0FB7F5C2B12D102E07B69013399
:102D30007B61FA687B6913441B785BB22F2BF5D05B
:102D4000FA687B6913441B785BB25C2BEED03AE0E7
:102D5000FB7F2E2B03D03A69BB699A420DD3BB6926
:102D60000B2B02D0FB7F2E2B01D0062347E008233C
:102D70003B610B23BB6100BFC6E7FB7F5BB2002B4F
:102D800001DA06233BE0FB7F1F481946FFF7F8F9FD
:102D90000346002B0CBF00230123DBB2002B01D024
:102DA00006232CE0FB7F602B05D9FB7F7A2B02D812
:102DB000FB7F203BFB773B695A1C3A61BA6813449E
:102DC000FA7F1A70A0E7FA687B691A443B681A60B8
:102DD0003B69002B01D1062311E0BB681B78E52B72
:102DE00002D1BB6805221A70BB6803F10B02FB7F9E
:102DF000202B01D8042300E0002313700023184681
:102E00002037BD4680BD00BF70E6000880B586B0A3
:102E100000AF786039607B683B613B691B68FB6091
:102E200002E03B6801333B603B681B785BB22F2BB1
:102E3000F7D03B681B785BB25C2BF2D03B69002279
:102E40009A603B681B78DBB21F2B0AD87B68802214
:102E500083F82B2078680021FFF7DAFC0346FB7526
:102E60003FE03B4678681946FFF738FF0346FB759D
:102E7000FB7D002B00D034E07868FFF7A1FE03460D
:102E8000FB757B6893F82B30FB72FB7D002B0AD01F
:102E9000FB7D042B06D1FB7A03F00403002B01D148
:102EA0000523FB751DE0FB7A03F00403002B00D023
:102EB00017E03B699B7903F01003002B02D1052337
:102EC000FB750EE07B681B69C3F308033033FA68B7
:102ED0001344F8681946FFF733FE02463B699A60CF
:102EE000BFE7FB7D18461837BD4680BD80B487B06C
:102EF00000AF78604FF0FF333B617B681B68002BAD
:102F000035D07B681B687B6102E07B6901337B61A4
:102F10007B691B78DBB2202B04D97B691B785BB201
:102F20003A2BF2D17B691B785BB23A2B1DD17B68BF
:102F30001B68FB60FB685A1CFA601B785BB2303B75
:102F4000BB60BB68092B0ED8FA687B699A420AD12C
:102F5000BB68002B07D1BB683B617B6901337B6198
:102F60007B687A691A603B6902E000233B613B6938
:102F700018461C37BD465DF8047B704780B582B0AB
:102F800000AF786039607B680022DA707B684FF0B0
:102F9000FF32DA6278683968FFF75AF90346002B86
:102FA0000CBF00230123DBB2002B01D0042344E03B
:102FB0007B6803F22E231846FEF7F0FF03461A46FD
:102FC0004AF655239A420CBF00230123DBB2002BA3
:102FD00001D0032331E07B6893F83030E92B09D02E
:102FE0007B6893F83030EB2B26D17B6893F8323036
:102FF000902B21D17B6866331846FEF7E7FF034626
:1030000023F07F420F4B9A4214BF00230123DBB20F
:10301000002B01D0002310E07B6882331846FEF7B6
:10302000D5FF0246084B9A4214BF00230123DBB2AE
:10303000002B01D0002300E0022318460837BD46CC
:1030400080BD00BF464154004641543380B596B020
:1030500000AFF860B9601346FB71BB6800221A60CC
:10306000F868FFF743FFF863FB6B002B01DA0B23D3
:1030700034E2A24BFA6B53F82230BB63BB6B002BDC
:1030800001D10C232AE2BB68BA6B1A60FB7923F0EA
:103090000103FB71BB6B1B78002B1AD0BB6B5B78F9
:1030A0001846FEF7A3FE034687F8373097F8373007
:1030B00003F00103002B0CD1FB79002B07D097F80C
:1030C000373003F00403002B01D00A2306E200236B
:1030D00004E2BB6B00221A70FB6BDAB2BB6B5A7056
:1030E000BB6B5B781846FEF7A5FE034687F83730C2
:1030F00097F8373003F00103002B01D00323EDE1F3
:10310000FB79002B07D097F8373003F00403002B2E
:1031100001D00A23E2E100233B65B86B396DFFF76C
:103120002DFF034687F8573097F85730022B4ED1C2
:1031300000233B641DE0BB6B03F5F7723B6C1B0186
:1031400013443B633B6B04331B78002B06D03B6B73
:1031500008331846FEF73AFF024600E000223B6CB7
:103160009B0007F158010B4443F8442C3B6C01339E
:103170003B643B6C032BDED900233B643B6C002B90
:1031800002D03B6C013B3B643B6C9B0007F1580257
:10319000134453F8443C3B653B6D002B05D0B86BA2
:1031A000396DFFF7EBFE034600E0032387F8573045
:1031B00097F85730012B07D93B6C01333B643B6CCC
:1031C000032B01D8012300E00023002BDCD197F86A
:1031D0005730042B01D1012380E197F85730012BA0
:1031E00001D90D237AE1BB6B3B331846FEF7D6FEBF
:1031F0000346B3F5007F0CBF00230123DBB2002B95
:1032000001D00D236AE1BB6B46331846FEF7C6FEBC
:103210000346FB64FB6C002B05D1BB6B5433184693
:10322000FEF7D4FEF864BB6BFA6C9A61BB6B93F843
:103230004020BB6B9A70BB6B9B78012B05D0BB6B9E
:103240009B78022B01D00D2348E1BB6B9B781A467B
:10325000FB6C02FB03F3FB64BB6B93F83D301A4637
:10326000BB6B5A81BB6B5B89002B08D0BB6B5B8946
:103270001A46BB6B5B89013B1340002B01D00D2329
:103280002CE1BB6B41331846FEF788FE03461A4615
:10329000BB6B1A81BB6B1B8903F00F03002B01D0A2
:1032A0000D231BE1BB6B43331846FEF777FE034645
:1032B000BB64BB6C002B05D1BB6B50331846FEF7CB
:1032C00085FEB864BB6B3E331846FEF767FE0346C7
:1032D000FB85FB8D002B01D10D23FFE0FA8DFB6CEC
:1032E0001A44BB6B1B891B099BB21344BB62BA6CAB
:1032F000BB6A9A4204D20D23F0E000BF5C000020BC
:10330000BA6CBB6AD21ABB6B5B89B2FBF3F37B620C
:103310007B6A002B01D10D23E0E0032387F85730AF
:103320007A6A4FF6F5739A4202D8022387F857302B
:103330007A6A40F6F5739A4202D8012387F857302B
:103340007B6A9A1CBB6B5A61BB6B3A6DDA61FA8D72
:103350003B6D1A44BB6B1A623A6DBB6A1A44BB6B75
:103360009A6297F85730032B21D1BB6B5A3318461A
:10337000FEF714FE0346002B0CBF00230123DBB233
:10338000002B01D00D23A9E0BB6B1B89002B01D0C2
:103390000D23A3E0BB6B5C331846FEF717FE024615
:1033A000BB6B5A62BB6B5B699B007B641FE0BB6BB2
:1033B0001B89002B01D10D2390E0BB6B1A6AFB6CBB
:1033C0001A44BB6B5A6297F85730022B03D1BB6B80
:1033D0005B695B000AE0BB6B5A6913465B001344F0
:1033E0005A08BB6B5B6903F0010313447B64BB6B3E
:1033F0009A697B6C03F2FF135B0A9A4201D20D2398
:103400006CE0BB6B4FF0FF321A61BB6B1A69BB6B90
:10341000DA60BB6B80221A7197F85730032B12D1F8
:10342000BB6B60331846FEF7B9FD0346012B0AD18A
:103430003B6D0133B86B1946FEF70AFF0346002BBC
:1034400001D1012300E00023002B38D0BB6B002208
:103450001A71BB6B03F22E231846FEF79FFD03463D
:103460001A464AF655239A4214D1BB6B303318469C
:10347000FEF7ACFD02461B4B9A420BD1BB6B03F52A
:1034800005731846FEF7A2FD0246174B9A4201D17A
:10349000012300E00023002B11D0BB6B03F5067362
:1034A0001846FEF793FD0246BB6B1A61BB6B03F532
:1034B00007731846FEF78AFD0246BB6BDA60BB6BEA
:1034C00097F857201A70094B1B8801339AB2074BA3
:1034D0001A80064B1A88BB6BDA80002318465837CF
:1034E000BD4680BD52526141727241616000002050
:1034F00080B584B000AF786039607B68BB607B6862
:10350000002B1AD0BB681B68002B16D0BB681B6849
:103510001B78002B11D0BB681B68DA88BB689B88BE
:103520009A420AD1BB681B685B781846FEF75EFCBE
:10353000034603F00103002B01D0012300E0002328
:10354000002B05D03B6800221A600923FB7305E0BD
:10355000BB681A683B681A600023FB73FB7B184644
:103560001037BD4680BD00BF80B588B000AFF860A1
:10357000B9601346FB71BB683B6107F11003184645
:10358000FFF7B4FCF861FB69002B01DA0B2329E09B
:10359000164BFA6953F82230BB61BB69002B02D08D
:1035A000BB6900221A70FB68002B02D0FB68002266
:1035B0001A70F9680D4BFA6943F82210FB68002B6A
:1035C00002D0FB79012B01D000230BE007F10802A8
:1035D00007F10C03104619460022FFF737FD03469A
:1035E000FB75FB7D18462037BD4680BD5C00002082
:1035F00080B598B000AFF860B9601346FB71FB6806
:10360000002B01D1092387E1FB7903F03F03FB7114
:1036100007F1080107F14002FB79084611461A46F6
:10362000FFF714FD034687F85F3097F85F30002BF3
:1036300040F069813B6C7B61BB6807F11402104666
:103640001946FFF7E3FB034687F85F3097F85F30D2
:10365000002B08D197F83F30DBB25BB2002B02DAC7
:10366000062387F85F30FB7903F01C03002B78D02A
:1036700097F85F30002B10D097F85F30042B07D1FC
:1036800007F114031846FFF7F5FA034687F85F3091
:10369000FB7943F00803FB7110E0BB7E03F01103DC
:1036A000002B03D0072387F85F3007E0FB7903F096
:1036B0000403002B02D0082387F85F3097F85F30AF
:1036C000002B68D1FB7903F00803002B63D00023A3
:1036D0003B653B6B0E331846396DFEF7B5FC3B6B13
:1036E00016331846396DFEF7AFFC3B6B0B332022C7
:1036F0001A703A6C3B6B10461946FFF721FAF864D2
:103700003A6C3B6B104619460022FFF739FA3B6BC7
:103710001C3318460021FEF797FC3B6C0122DA703F
:10372000FB6C002B37D03B6CDB6A3B6507F1140365
:103730001846F96C0022FEF76FFF034687F85F30EA
:1037400097F85F30002B26D13B6C1846396DFEF799
:103750007FFD034687F85F303B6CFA6C013ADA6014
:1037600019E097F85F30002B15D1BB7E03F01003F2
:10377000002B03D0042387F85F300CE0FB7903F0C3
:103780000203002B07D0BB7E03F00103002B02D005
:10379000072387F85F3097F85F30002B0FD1FB7954
:1037A00003F00803002B03D0FB7943F04003FB71C7
:1037B0003B6CDA6AFB681A623A6BFB685A6297F8EC
:1037C0005F30002B40F09F803A6C3B6B10461946EF
:1037D000FFF7B6F90246FB689A603B6B1C3318464C
:1037E000FEF7F4FB0246FB68DA603A6CFB681A608D
:1037F0003B6CDA88FB689A80FB68FA791A74FB687C
:1038000000225A74FB680022DA61FB6800225A61C8
:10381000FB682833184600214FF40072FEF766FC5F
:10382000FB7903F02003002B6DD0FB68DB68002BD5
:1038300069D0FB68DA68FB685A613B6C5B895B02A4
:10384000BB64FB689B68BB65FB68DB687B6516E057
:10385000FB681846B96DFEF74DFDB865BB6D012BD1
:1038600002D8022387F85F30BB6DB3F1FF3F02D16E
:10387000012387F85F307A6DBB6CD31A7B6597F8AC
:103880005F30002B03D17A6DBB6C9A42E0D8FB68A5
:10389000BA6D9A6197F85F30002B34D17B6DC3F31A
:1038A0000803002B2FD03B6C1846B96DFEF704FDC2
:1038B00078647B6C002B14BF00230123DBB2002B48
:1038C00003D0022387F85F301DE07B6D5A0A7B6CC2
:1038D0001A44FB68DA613B6C5978FB6803F12802F3
:1038E000FB68DB69084611461A460123FEF7C0FA59
:1038F0000346002B0CBF00230123DBB2002B02D0B8
:10390000012387F85F3097F85F30002B02D0FB6807
:1039100000221A6097F85F3018466037BD4680BDB8
:1039200080B58EB000AFF860B9607A603B60BB686C
:103930007B623B6800221A6007F11403F86819469D
:10394000FFF7D6FD034687F8373097F83730002B5E
:1039500007D1FB685B7C87F8373097F83730002B4E
:1039600001D0012300E00023002B02D097F837306C
:103970001EE1FB681B7C03F00103002B01D1072330
:1039800016E1FB68DA68FB685B69D31A3B627A6808
:103990003B6A9A4201D93B6A7B6004E1FB685B6940
:1039A000C3F30803002B40F0D180FB685B695A0A1F
:1039B0007B695B89013B1340FB61FB69002B23D1D1
:1039C000FB685B69002B03D1FB689B683B6307E0E6
:1039D000FA68FB689B6910461946FEF78BFC386352
:1039E0003B6B012B04D8FB6802225A740223DFE0F0
:1039F0003B6BB3F1FF3F04D1FB6801225A740123F2
:103A0000D6E0FB683A6B9A617A69FB689B6910465D
:103A10001946FEF751FCB861BB69002B04D1FB6865
:103A200002225A740223C3E0BA69FB691344BB61E2
:103A30007B685B0ABB62BB6A002B41D0FA69BB6A38
:103A40001A447B695B899A4205D97B695B891A466E
:103A5000FB69D31ABB627B695B781846796ABA69DD
:103A6000BB6AFEF705FA0346002B0CBF00230123B7
:103A7000DBB2002B04D0FB6801225A74012397E0CB
:103A8000FB681B7CDBB25BB2002B15DAFB68DA69E2
:103A9000BB69D21ABB6A9A420ED2FB68DA69BB696B
:103AA000D31A5B027A6A1A44FB6828331046194617
:103AB0004FF40072FEF7F4FABB6A5B02FB625EE051
:103AC000FB68DA69BB699A423DD0FB681B7CDBB2BC
:103AD0005BB2002B20DA7B695978FB6803F128027E
:103AE000FB68DB69084611461A460123FEF7FCF91C
:103AF0000346002B0CBF00230123DBB2002B04D0B4
:103B0000FB6801225A74012352E0FB681B7C03F01E
:103B10007F03DAB2FB681A747B695A78FB68283332
:103B200010461946BA690123FEF7A2F90346002B95
:103B30000CBF00230123DBB2002B04D0FB68012261
:103B40005A74012334E0FB68BA69DA61FB685B6987
:103B5000C3F30803C3F50073FB62FA6A7B689A42F9
:103B600001D97B68FB62FB685B69C3F308032833F8
:103B7000FA681344786A1946FA6AFEF791FA7A6A83
:103B8000FB6A13447B62FB685A69FB6A1A44FB6850
:103B90005A613B681A68FB6A1A443B681A607A6883
:103BA000FB6AD31A7B607B68002B7FF4F7AE00239F
:103BB00018463837BD4680BD80B582B000AF78600A
:103BC00039607B680433184606493A68002302F0DE
:103BD00081FB7B68044A1A607B6818460837BD463B
:103BE00080BD00BFC4100020C0EF000880B582B0C7
:103BF00000AF78607B6818460549FFF7DDFF7B68FA
:103C0000044A1A607B6818460837BD4680BD00BF6D
:103C100080E60008D8EF000880B582B000AF786079
:103C20000A4801210122002304F022F8084801215A
:103C30000122002304F01CF8064801210122002380
:103C400004F016F80837BD4680BD00BF64000020B0
:103C5000800000209C00002080B582B000AF78601A
:103C60007B68084A1A607B681846FEF72FF8002325
:103C7000002B02D0786802F077FD7B681846083781
:103C8000BD4680BDD8EF000880B582B000AF786037
:103C90007868FFF7E1FF786802F066FD7B681846F8
:103CA0000837BD4680BD00BF80B582B000AF7860E8
:103CB00039607B68012B18D13A684FF6FF739A423E
:103CC00013D10B48352103F09FFF0A48362103F03A
:103CD0009BFF0948372103F097FF0848FFF786FF4D
:103CE00006480749074A0AF09FFC0837BD4680BDD1
:103CF00064000020800000209C000020B80000200C
:103D0000593C00080C12002080B500AF01204FF68E
:103D1000FF71FFF7C9FF80BD80B582B000AF78604A
:103D200039607B6818460749FFF746FF7B68064AFB
:103D30001A607B683A685A617B6818460837BD4646
:103D400080BD00BF8CE60008A8EF000880B582B0F7
:103D500000AF78607B6818460549FFF72DFF7B6848
:103D6000044A1A607B6818460837BD4680BD00BF0C
:103D70008CE60008F0EF000880B582B000AF7860F4
:103D80000A480B49002204F0C3FE08480121002222
:103D900005F030F90748084904F09EFA07484FF447
:103DA000E13105F09FFE0837BD4680BDCC00002004
:103DB00040420F00E8000020A0860100040100201E
:103DC00080B582B000AF78607B68084A1A607B6873
:103DD0001846FDF77BFF0023002B02D0786802F025
:103DE000C3FC7B6818460837BD4680BDF0EF00086D
:103DF00080B582B000AF78607868FFF7E1FF78683F
:103E000002F0B2FC7B6818460837BD4680BD00BF93
:103E100080B584B002AF786039607B68012B39D1FE
:103E20003A684FF6FF739A4234D11F2300931B4820
:103E300002211D221E2304F02BFE19480121162207
:103E4000172304F003FA4FF0FF3300934FF0FF33D2
:103E50000193144804210022012305F015FC1E23C0
:103E600000933B230193104803212A222B2305F0C2
:103E70000BFC0E480C49FFF74FFF0C480C490D4A4C
:103E80000AF0D2FB0C48FFF761FF0B480B49094AC7
:103E90000AF0CAFB0837BD4680BD00BFCC00002039
:103EA000E800002004010020200100203C01002047
:103EB0005D1D00080C12002054010020C13D0008C7
:103EC00080B500AF01204FF6FF71FFF7A1FF80BD65
:103ED00080B485B000AF786039607B6801221A75C4
:103EE0007B68DB68FB60FB681A783B681A707B684C
:103EF00000221A757B68D3E90823013243F10003DD
:103F00007968C1E908231437BD465DF8047B704722
:103F100080B483B000AF78600C37BD465DF8047B99
:103F2000704700BF80B582B000AF78607B681846EC
:103F3000164964224FF4FA6309F0B4F97B68144A15
:103F40001A607B68002283F850207B68002283F887
:103F500051207B68002283F852207B68002283F87E
:103F600053207B68002283F854207B6800229A65E6
:103F70007B68002283F85C207B68002283F85D2048
:103F80007B6818460837BD4680BD00BF98E600082C
:103F900008F000080000000080B586B002AF78602D
:103FA00033480021012200F067F879682EA3D3E995
:103FB0000023CDE9002308464FF000024FF0000334
:103FC00002F092FC7B689A6D7B6893F85030002B6E
:103FD00001D0012300E000231A447B689A657B68C6
:103FE0009A6D7B6893F85130002B01D0012300E0DB
:103FF00000231A447B689A657B689A6D7B6893F806
:104000005230002B01D0012300E000231A447B68CA
:104010009A657B689A6D7B6893F85330002B01D0CA
:10402000012300E000231A447B689A657B689B6D3E
:10403000052B12D9002343F01903FB72FB6803F030
:104040007F43FB6005233B810123BB7207F108031B
:1040500008481946012200F029F87B68184602F04A
:1040600059FCAFE7AFF300800065CD1D00000000F4
:1040700030100020080E002080B584B000AF7860BA
:1040800013460A467A807B707B88FB81796807F14A
:104090000E027B78084611461A46002302F01EFEE7
:1040A000034618461037BD4680BD00BF80B584B0BA
:1040B00000AFF860B9601346FB71FA68FB791046EF
:1040C000B9681A46002302F009FE03461846103765
:1040D000BD4680BD80B582B000AF78607B68084A7D
:1040E0001A607B68184609F04BF90023002B02D0B8
:1040F000786802F039FB7B6818460837BD4680BDFA
:1041000008F0000880B582B000AF78607868FFF7EB
:10411000E1FF786802F028FB7B6818460837BD4647
:1041200080BD00BF80B582B000AF786039607B6829
:10413000012B0CD13A684FF6FF739A4207D105481C
:10414000FFF7F0FE03480449044A0AF06DFA083705
:10415000BD4680BD68010020D54000080C1200203B
:1041600080B500AF01204FF6FF71FFF7DBFF80BD88
:1041700080B483B000AF78600B46FB7097F90330D2
:104180007A68C3F1200362FA03F318460C37BD4680
:104190005DF8047B704700BF80B483B000AF7860E7
:1041A0007B681B0C7A6853407B607B680C4A02FB7F
:1041B00003F37B607B685B0B7A6853407B607B68B2
:1041C000084A02FB03F37B607B681B0C7A68534050
:1041D0007B607B6818460C37BD465DF8047B7047F2
:1041E0006BCAEB8535AEB2C280B58EB000AFF86059
:1041F000B9607A60BB68002B00DA03339B10BB62A6
:104200007B683B633D4B7B623D4B3B62BB6A9B00E3
:10421000FA681344FB61BB6A5B427B6327E07B6BFC
:104220009B00FA6913441B68BB61BB697A6A02FB95
:1042300003F3BB61B8690F21FFF79AFFB861BB694F
:104240003A6A02FB03F3BB613A6BBB6953403B63C1
:10425000386B0D21FFF78CFF38633A6B13469B00D8
:104260001A44284B13443B637B6B01337B637B6BAA
:10427000002BD4D1BB6A9B00FA6813447B610023F6
:10428000FB62BB6803F00303022B0BD0032B02D0AD
:10429000012B0ED025E07B6902331B781B04FA6AE0
:1042A0005340FB627B6901331B781B02FA6A53405F
:1042B000FB627B691B78FA6A5340FB62FB6A7A6A8D
:1042C00002FB03F3FB62F86A0F21FFF751FFF8626C
:1042D000FB6A3A6A02FB03F3FB623A6BFB6A5340E8
:1042E0003B63BB683A6B53403B63386BFFF754FF4B
:1042F00038633B6B18463837BD4680BD512D9ECC88
:104300009335871B646B54E680B582B000AF78604C
:104310007B6818460649FFF74FFC7B68054A1A6020
:104320007B6800221A757B6818460837BD4680BD39
:10433000A8E6000820F2000880B582B000AF7860DF
:104340000B4801210122012303F092FC09480121BD
:104350000122012303F08CFC0748012101220123E3
:1043600003F086FC7B6800221A750837BD4680BDC5
:10437000E0010020FC0100201802002080B483B07E
:1043800000AF78607B681B7D18460C37BD465DF832
:10439000047B704780B582B000AF78600B46FB703D
:1043A0001F4808F0D3FE7B681B7D002B02D04FF026
:1043B000FF3331E07B6801221A75FB78012B10D0A6
:1043C000022B1BD0002B26D11648012103F056FDED
:1043D0001548012103F052FD1448002103F04EFD61
:1043E00019E01248012103F049FD0F48012103F0B3
:1043F00045FD0C48002103F041FD0CE00B48012174
:1044000003F03CFD0748012103F038FD0648002178
:1044100003F034FD00BF002318460837BD4680BDB9
:1044200034020020FC01002018020020E0010020DE
:1044300080B582B000AF78600C48012103F01EFD0A
:104440000B48012103F01AFD0A48012103F016FD73
:1044500009480A49012204F05DFE7B6800221A75B2
:10446000074808F0D1FE0837BD4680BDE0010020B6
:10447000FC01002018020020CC00002018F00008E9
:104480003402002080B582B000AF78607B68084AB3
:104490001A607B681846FDF719FC0023002B02D038
:1044A000786802F061F97B6818460837BD4680BD20
:1044B00020F2000880B582B000AF78607868FFF71E
:1044C000E1FF786802F050F97B6818460837BD466E
:1044D00080BD00BF80B582B000AF786039607B6876
:1044E000012B1BD13A684FF6FF739A4216D10D4843
:1044F000FFF70AFF0B480C490C4A0AF095F80C48E4
:10450000262103F081FB0B48272103F07DFB0A489D
:104510001C2103F079FB094808F000FE0837BD466E
:1045200080BD00BFC8010020854400080C12002097
:10453000E0010020FC0100201802002034020020CD
:1045400080B500AF01204FF6FF71FFF7C3FF80BDBC
:1045500080B584B000AFF860B9607A60FB68184637
:10456000B9687A684FF4FA6308F09CFEFB68034A66
:104570001A60FB6818461037BD4680BD38F2000847
:1045800080B5ADF58D6D00AF3B1D18602848FF214B
:104590004FF4006202F09CF802F0C4FA22A3D3E9BF
:1045A0000023121843EB010310461946002208F0BD
:1045B000C9FF07F50D7318461E490022FEF7D4FF08
:1045C00003461D48194601F007FD07F10C03184684
:1045D0001A490122FFF70CF803461948194601F061
:1045E000FBFC07F10C0207F2644310461549402218
:1045F000FFF796F9D7F86434124A0021D154D7F85E
:10460000643411480F491A4601F0E6FC02F08AFAB8
:1046100005A3D3E90023121843EB01031046194602
:10462000002208F08FFFEAE700CA9A3B0000000072
:10463000D8020020CCE60008D0E60008DCE600083E
:10464000E8E6000898020020F4E60008AFF30080D6
:1046500080B582B000AF78607B68084A1A607B68DA
:10466000184608F08DFE0023002B02D0786802F077
:104670007BF87B6818460837BD4680BD38F20008D5
:1046800080B582B000AF78607868FFF7E1FF7868A6
:1046900002F06AF87B6818460837BD4680BD00BF47
:1046A00080B582B000AF786039607B68012B0ED195
:1046B0003A684FF6FF739A4209D1064806496422C8
:1046C000FFF746FF03480549054A09F0ADFF0837E3
:1046D000BD4680BD48020020FCE6000851460008A7
:1046E0000C12002080B500AF01204FF6FF71FFF7DC
:1046F000D7FF80BD80B582B000AF78607B68184678
:10470000064964224FF4FA6308F0CCFD7B68044A42
:104710001A607B6818460837BD4680BD10E7000860
:1047200050F200080000000080B59AB002AF786037
:104730000023FB6579681FA3D3E90023CDE900239B
:1047400008464FF000024FF0000302F0CDF8FB6D79
:10475000002B10DC07F140037868194600F074F86C
:1047600007F14003124819461A2205F023FCFB6D9D
:104770000133FB6517E0FB6D012B09D107F10C0339
:104780007868194600F01CF8FB6D0133FB650AE000
:10479000FB6D012B07DD07F130037868194600F047
:1047A00097F80023FB657B68184602F0B3F8CEE764
:1047B00004010020AA21EF0900000000AFF30080EF
:1047C00090B583B000AF786039607B6850331C4887
:1047D000194600F005F93B68A8221A703B68591C7D
:1047E0007B68D3E92023D3B20B703B6802330022ED
:1047F0001A703B68033300221A703B680433114A75
:1048000012881A803B689A1D7B68503310461946FF
:10481000182201F07FFF3B6803F11E0478683968B5
:104820001E2200F0CBF803462360064B1B880133A1
:104830009AB2044B1A80222318460C37BD4690BD0D
:10484000B00B0020800B002090B583B000AF7860E3
:1048500039607B6888331C48194600F0F7F83B68DC
:10486000A4221A703B68591C7B68D3E92623D3B273
:104870000B703B68023300221A703B68033300223E
:104880001A703B680433114A12881A803B689A1DDB
:104890007B68883310461946102201F03BFF3B68C5
:1048A00003F1160478683968162200F087F8034689
:1048B0002360064B1B8801339AB2044B1A801A23DB
:1048C00018460C37BD4690BDD80C0020820B002046
:1048D00090B585B000AF786039607B68A03332480E
:1048E000194600F0DFF87B68A53330481946FFF71A
:1048F000EFFA7B68A6332E48194600F0F7F83B68BC
:10490000A2221A7002F00EF902460B461046194612
:10491000284A4FF00003FCF7ADF802460B46C7E902
:1049200002233B6801333A7A1A703B680233002253
:104930001A703B68033300221A703B6804331E4A26
:1049400012881A803B6806337A6892F8A520D1B2A3
:104950007A6892F8A620D201D2B20A43D2B21A7073
:104960003B68073300221A803B6803F109027B6829
:10497000A03310461946052201F0CCFE3B6803F136
:104980000E04786839680E2200F018F80346236098
:10499000094B1B8801339AB2074B1A801023184623
:1049A0001437BD4690BD00BFA00D0020580F002059
:1049B000D80F002040420F00840B002080B584B047
:1049C00000AFF860B9607A60B868796841F2373250
:1049D000FFF70AFC034618461037BD4680BD00BFEE
:1049E000F0B484B000AF786039607B68012283F84E
:1049F000B8207B68D3F8B030FB603A68FB6803F1FD
:104A0000300411461846D0F800C046688568C06872
:104A1000C1F800C04E608D60C86010331032A342F0
:104A2000EFD119685B68116053607B68002283F8DE
:104A3000B8207B68D3E93223013243F1000379685F
:104A4000C1E932231037BD46F0BC7047B0B485B021
:104A500000AF786039607B68012283F858207B685A
:104A60001B6DFB603B68FA68106851689568D468F4
:104A7000186059609D60DC60106951691861596166
:104A80007B68002283F858207B68D3E91A2301321F
:104A900043F100037968C1E91A231437BD46B0BC5D
:104AA000704700BF80B485B000AF786039607B6824
:104AB000012283F820207B689B69FB603B68FA68D1
:104AC0001168196012791A717B68002283F820201E
:104AD0007B68D3E90C23013243F100037968C1E913
:104AE0000C231437BD465DF8047B704780B485B055
:104AF00000AF786039607B6801221A757B68DB68DB
:104B0000FB60FB681A783B681A707B6800221A7594
:104B10007B68D3E90823013243F100037968C1E9D6
:104B200008231437BD465DF8047B704780B582B01A
:104B300000AF78607B68084A1A607B68184608F006
:104B40001FFC0023002B02D0786801F00DFE7B686B
:104B500018460837BD4680BD50F2000880B582B0C7
:104B600000AF78607868FFF7E1FF786801F0FCFD3E
:104B70007B6818460837BD4680BD00BF80B582B04F
:104B800000AF786039607B68012B0CD13A684FF632
:104B9000FF739A4207D10548FFF7ACFD034804496B
:104BA000044A09F041FD0837BD4680BDD80A0020FF
:104BB0002D4B00080C12002080B500AF01204FF6ED
:104BC000FF71FFF7DBFF80BD80B582B000AF78607A
:104BD0007B680A4A1A600A4801F044FA7B68043389
:104BE000184601F0BFFB0023002B02D0786801F0CB
:104BF000BBFD7B6818460837BD4680BDC0F3000882
:104C000020E7000880B582B000AF78607868FFF7D1
:104C1000DBFF786801F0A8FD7B6818460837BD46C1
:104C200080BD00BF80B582B000AF78607B680A4A63
:104C30001A600A4801F016FA7B680433184601F03E
:104C400091FB0023002B02D0786801F08DFD7B687A
:104C500018460837BD4680BD28F4000830E7000834
:104C600080B582B000AF78607868FFF7DBFF7868C6
:104C700001F07AFD7B6818460837BD4680BD00BF4D
:104C800080B582B000AF78607B68064A1A60002366
:104C9000002B02D0786801F067FD7B681846083762
:104CA000BD4680BDA8F3000880B582B000AF786033
:104CB0007868FFF7E5FF786801F056FD7B681846D5
:104CC0000837BD4680BD00BF80B584B000AFF86036
:104CD000B9607A603B60044801F0C4F900231846CB
:104CE0001037BD4680BD00BF44E7000880B584B0E2
:104CF00000AFF860B9607A60FB681846B96838227E
:104D00007B6801F07BFFFB68034A1A60FB6818466A
:104D10001037BD4680BD00BF98F3000880B483B053
:104D200000AF78607B68044A1A607B6818460C37CD
:104D3000BD465DF8047B7047A8F3000880B582B0DB
:104D400000AF78607B681846FFF7E8FF7B68144A7D
:104D50001A607B681A1D7B68C3F8AC207B6803F17E
:104D60003C027B68C3F8B0207B6803F174027B6867
:104D7000C3F8B4207B68002283F8B82079684FF02C
:104D800000024FF00003C1E932237B68D3E93223EC
:104D90007968C1E930237B6818460837BD4680BD75
:104DA00080F3000880B584B000AFF860B9607A6025
:104DB000FB681846B96818227B6801F01FFFFB6882
:104DC000034A1A60FB6818461037BD4680BD00BF15
:104DD00070F3000880B582B000AF78607B68184639
:104DE000FFF79CFF7B68134A1A607B681A1D7B687B
:104DF000DA647B6803F11C027B681A657B6803F147
:104E000034027B685A657B68002283F858207968F1
:104E10004FF000024FF00003C1E91A237B68D3E989
:104E20001A237968C1E918237B6818460837BD46FC
:104E300080BD00BF58F3000880B584B000AFF860B3
:104E4000B9607A60FB681846B96805227B6801F092
:104E5000D5FEFB68034A1A60FB6818461037BD464A
:104E600080BD00BF48F3000880B582B000AF786015
:104E70007B681846FFF752FF7B68134A1A607B680D
:104E80001A1D7B685A617B6803F109027B689A618D
:104E90007B6803F10E027B68DA617B68002283F88D
:104EA000202079684FF000024FF00003C1E90C2385
:104EB0007B68D3E90C237968C1E90A237B6818462B
:104EC0000837BD4680BD00BF30F3000880B584B010
:104ED00000AFF860B9607A60FB681846B9680722CD
:104EE0007B6801F08BFEFB68034A1A60FB6818467A
:104EF0001037BD4680BD00BF20F3000880B582B0EA
:104F000000AF78607B681846FFF708FF7B68134A9C
:104F10001A607B681A1D7B68DA617B6803F10B02FB
:104F20007B681A627B6803F112027B685A627B68B5
:104F3000002283F8282079684FF000024FF0000328
:104F4000C1E90E237B68D3E90E237968C1E90C23FC
:104F50007B6818460837BD4680BD00BF08F30008CF
:104F600080B584B000AFF860B9607A60FB6818461D
:104F7000B96806227B6801F041FEFB68034A1A60AB
:104F8000FB6818461037BD4680BD00BFF8F2000828
:104F900080B582B000AF78607B681846FFF7BEFE30
:104FA0007B68134A1A607B681A1D7B689A617B686C
:104FB00003F10A027B68DA617B6803F110027B6807
:104FC0001A627B68002283F8242079684FF000027F
:104FD0004FF00003C1E90C237B68D3E90C23796807
:104FE000C1E90A237B6818460837BD4680BD00BF6B
:104FF000E0F2000880B584B000AFF860B9607A6074
:10500000FB681846B96801227B6801F0F7FDFB6870
:10501000034A1A60FB6818461037BD4680BD00BFC2
:10502000D0F2000880B582B000AF78607B68184687
:10503000FFF774FE7B68114A1A607B681A1D7B6853
:105040009A607B685A1D7B68DA607B689A1D7B6872
:105050001A617B6800221A7579684FF000024FF0E0
:105060000003C1E908237B68D3E908237968C1E913
:1050700006237B6818460837BD4680BDB8F2000895
:1050800080B584B000AFF860B9607A60FB681846FC
:10509000B96801227B6801F0B1FDFB68034A1A6020
:1050A000FB6818461037BD4680BD00BFA8F2000857
:1050B00080B582B000AF78607B681846FFF72EFE9F
:1050C0007B68114A1A607B681A1D7B689A607B684E
:1050D0005A1D7B68DA607B689A1D7B681A617B6861
:1050E00000221A7579684FF000024FF00003C1E901
:1050F00008237B68D3E908237968C1E906237B6824
:1051000018460837BD4680BD90F2000880B584B0CF
:1051100000AFF860B9607A60FB681846B96802228F
:105120007B6801F06BFDFB68034A1A60FB68184658
:105130001037BD4680BD00BF80F2000880B582B048
:1051400000AF78607B681846FFF7E8FD7B68124A7D
:105150001A607B681A1D7B68DA607B689A1D7B6821
:105160001A617B6803F108027B685A617B68002240
:105170001A7679684FF000024FF00003C1E90A2364
:105180007B68D3E90A237968C1E908237B6818465C
:105190000837BD4680BD00BF68F2000880B582B008
:1051A00000AF78607B68084A1A607B681846FFF792
:1051B00067FD0023002B02D0786801F0D5FA7B68E8
:1051C00018460837BD4680BD68F2000880B582B039
:1051D00000AF78607868FFF7E1FF786801F0C4FA03
:1051E0007B6818460837BD4680BD00BF80B582B0D9
:1051F00000AF78607B68084A1A607B681846FFF742
:105200003FFD0023002B02D0786801F0ADFA7B68E7
:1052100018460837BD4680BD90F2000880B582B0C0
:1052200000AF78607868FFF7E1FF786801F09CFADA
:105230007B6818460837BD4680BD00BF80B582B088
:1052400000AF78607B68084A1A607B681846FFF7F1
:1052500017FD0023002B02D0786801F085FA7B68E7
:1052600018460837BD4680BDB8F2000880B582B048
:1052700000AF78607868FFF7E1FF786801F074FAB2
:105280007B6818460837BD4680BD00BF80B582B038
:1052900000AF78607B68084A1A607B681846FFF7A1
:1052A000EFFC0023002B02D0786801F05DFA7B68E8
:1052B00018460837BD4680BDE0F2000880B582B0D0
:1052C00000AF78607868FFF7E1FF786801F04CFA8A
:1052D0007B6818460837BD4680BD00BF80B582B0E8
:1052E00000AF78607B68084A1A607B681846FFF751
:1052F000C7FC0023002B02D0786801F035FA7B68E8
:1053000018460837BD4680BD08F3000880B582B056
:1053100000AF78607868FFF7E1FF786801F024FA61
:105320007B6818460837BD4680BD00BF80B582B097
:1053300000AF78607B68084A1A607B681846FFF700
:105340009FFC0023002B02D0786801F00DFA7B68E7
:1053500018460837BD4680BD30F3000880B582B0DE
:1053600000AF78607868FFF7E1FF786801F0FCF93A
:105370007B6818460837BD4680BD00BF80B582B047
:1053800000AF78607B68084A1A607B681846FFF7B0
:1053900077FC0023002B02D0786801F0E5F97B68E8
:1053A00018460837BD4680BD58F3000880B582B066
:1053B00000AF78607868FFF7E1FF786801F0D4F912
:1053C0007B6818460837BD4680BD00BF80B582B0F7
:1053D00000AF78607B68084A1A607B681846FFF760
:1053E0004FFC0023002B02D0786801F0BDF97B68E8
:1053F00018460837BD4680BD80F3000880B582B0EE
:1054000000AF78607868FFF7E1FF786801F0ACF9E9
:105410007B6818460837BD4680BD00BF80B584B0A4
:1054200002AF786039607B68012B40F006813A68F2
:105430004FF6FF739A4240F0008181484FF0FF31F0
:10544000804AFFF753FC7E487F49804A09F0ECF818
:105450007F48FFF773FC7E487E497C4A09F0E4F8F8
:10546000002300937C487649794A7C4B01F086F909
:1054700079487B49754A09F0D7F87A484FF0FF31EF
:10548000794AFFF78FFC77487849704A09F0CCF8E1
:105490007748FFF79FFC764876496C4A09F0C4F8D4
:1054A0000023009374486F49714A6C4B01F066F910
:1054B00071486B49654A09F0B7F870484FF0FF3101
:1054C0006F4AFFF7B9FC6D486E49604A09F0ACF8C5
:1054D0006D48FFF7C9FC6C486C495C4A09F0A4F8B8
:1054E000002300936A486549674A5C4B01F046F91E
:1054F00067485B49554A09F097F866484FF0FF3115
:10550000654AFFF7E3FC63486449504A09F08CF8A8
:105510006348FFF7F3FC624862494C4A09F084F89B
:105520000023009360485B495D4A4C4B01F026F92B
:105530005D484B49454A09F077F85C484FF0FF3128
:105540005B4AFFF70DFD59485A49404A09F06CF88B
:105550005948FFF71DFD584858493C4A09F064F87E
:105560000023009356485149534A3C4B01F006F939
:1055700053483B49354A09F057F852484FF0FF313C
:10558000514AFFF737FD4F485049304A09F04CF86F
:105590004F48FFF747FD4E484E492C4A09F044F862
:1055A000002300934C484749494A2C4B01F0E6F848
:1055B00049482B49254A09F037F848484FF0FF3150
:1055C000474AFFF75DFD45484649204A09F02CF857
:1055D0004548FFF76DFD444844491C4A09F024F84A
:1055E0000023009342483D493F4A1C4B01F0C6F856
:1055F0003F481B49154A09F017F83E484FF0FF3164
:105600003D4AFFF783FD3B483C49104A09F00CF83E
:105610003B48FFF793FD3A483A490C4A09F004F831
:105620000023009338483349354A0C4B01F0A6F863
:1056300035480B49054A08F0F7FF0837BD4680BDDD
:10564000880B0020CCE70008315B00080C1200201A
:10565000B00B0020CD530008800C0020D8E70008D4
:10566000254C0008B00C0020ECE70008A15A000807
:10567000D80C00207D530008480D0020780D002034
:1056800000E80008115A0008A00D00202D53000862
:10569000D80D0020080E002010E8000881590008ED
:1056A000300E0020DD520008700E0020A00E0020F9
:1056B0001CE80008F1580008C80E00208D520008B0
:1056C000000F0020300F002030E80008615800086B
:1056D000580F00203D520008800F0020B00F00201E
:1056E00040E80008D1570008D80F0020ED5100080D
:1056F00000100020301000204CE80008415700083E
:10570000581000209D5100088810002080B584B0FA
:1057100000AFF860B9607A603B607B68022B04D907
:10572000064800F09FFC002304E0F868396800F0A8
:105730002DFA012318461037BD4680BD5CE80008ED
:1057400080B582B000AF78607B680A4A1A600A4868
:1057500000F088FC7B681846FFF736FA0023002B20
:1057600002D0786801F000F87B6818460837BD461B
:1057700080BD00BF80F2000870E8000880B582B0EC
:1057800000AF78607868FFF7DBFF786800F0ECFF27
:105790007B6818460837BD4680BD00BF80B584B021
:1057A00000AFF860B9607A603B607B68012B04D978
:1057B000064800F057FC002304E0F868396800F060
:1057C00017FA012318461037BD4680BD5CE8000873
:1057D00080B582B000AF78607B680A4A1A600A48D8
:1057E00000F040FC7B681846FFF7EEF90023002B21
:1057F00002D0786800F0B8FF7B6818460837BD46CD
:1058000080BD00BFA8F2000870E8000880B582B033
:1058100000AF78607868FFF7DBFF786800F0A4FFDE
:105820007B6818460837BD4680BD00BF80B584B090
:1058300000AFF860B9607A603B607B68012B04D9E7
:10584000064800F00FFC002304E0F868396800F017
:1058500001FA012318461037BD4680BD5CE80008F8
:1058600080B582B000AF78607B680A4A1A600A4847
:1058700000F0F8FB7B681846FFF7A6F90023002B21
:1058800002D0786800F070FF7B6818460837BD4684
:1058900080BD00BFD0F2000870E8000880B582B07B
:1058A00000AF78607868FFF7DBFF786800F05CFF96
:1058B0007B6818460837BD4680BD00BF80B584B000
:1058C00000AFF860B9607A603B607B68062B04D952
:1058D000064800F0C7FB002304E0F868396800F0D0
:1058E000EBF9012318461037BD4680BD5CE800087F
:1058F00080B582B000AF78607B680A4A1A600A48B7
:1059000000F0B0FB7B681846FFF75EF90023002B20
:1059100002D0786800F028FF7B6818460837BD463B
:1059200080BD00BFF8F2000870E8000880B582B0C2
:1059300000AF78607868FFF7DBFF786800F014FF4D
:105940007B6818460837BD4680BD00BF80B584B06F
:1059500000AFF860B9607A603B607B68072B04D9C0
:10596000064800F07FFB002304E0F868396800F087
:10597000D7F9012318461037BD4680BD5CE8000802
:1059800080B582B000AF78607B680A4A1A600A4826
:1059900000F068FB7B681846FFF716F90023002B20
:1059A00002D0786800F0E0FE7B6818460837BD46F4
:1059B00080BD00BF20F3000870E8000880B582B009
:1059C00000AF78607868FFF7DBFF786800F0CCFE06
:1059D0007B6818460837BD4680BD00BF80B584B0DF
:1059E00000AFF860B9607A603B607B68052B04D932
:1059F000064800F037FB002304E0F868396800F03F
:105A0000C5F9012318461037BD4680BD5CE8000883
:105A100080B582B000AF78607B680A4A1A600A4895
:105A200000F020FB7B681846FFF7CEF80023002B20
:105A300002D0786800F098FE7B6818460837BD46AB
:105A400080BD00BF48F3000870E8000880B582B050
:105A500000AF78607868FFF7DBFF786800F084FEBD
:105A60007B6818460837BD4680BD00BF80B584B04E
:105A700000AFF860B9607A603B607B68182B04D98E
:105A8000064800F0EFFA002304E0F868396800F0F7
:105A9000B1F9012318461037BD4680BD5CE8000807
:105AA00080B582B000AF78607B680A4A1A600A4805
:105AB00000F0D8FA7B681846FFF786F80023002B21
:105AC00002D0786800F050FE7B6818460837BD4663
:105AD00080BD00BF70F3000870E8000880B582B098
