:020000040800F2
:1000000000000220F15B0008C9BD0008D1BD000856
:10001000F5BD0008FDBD000805BE00080000000099
:10002000000000000000000000000000F5B600081D
:100030005D5C00080000000009B7000845BA000830
:100040005D5C00085D5C00085D5C00085D5C0008AC
:100050005D5C00085D5C00081166000835660008FC
:10006000596600087D660008A16600085D5C00080E
:10007000598900085D5C0008818800085D5C000803
:1000800011890008398800085D5C00085D5C000883
:100090005D5C00085D5C00085D5C0008C5660008EA
:1000A0005D5C00085D5C0008F5BB00085D5C000855
:1000B0005D5C00085D5C00085D5C00085D5C00083C
:1000C0005D5C00085D5C00085D5C00085D5C00082C
:1000D0005D5C000861870008798700089187000847
:1000E000216700085D5C00085D5C00085D5C00083D
:1000F0005D5C00085D5C00085D5C00085D5C0008FC
:100100005D5C00085D5C000801B800085D5C0008EB
:10011000A9870008C18700085D5C00085D5C0008D5
:100120005D5C00085D5C00085D5C00085D5C0008CB
:100130005D5C00085D5C00085D5C00085D5C0008BB
:100140005D5C00085D5C00085D5C00085D5C0008AB
:10015000C98800085D5C0008F1870008D98700089D
:100160005D5C00085D5C00085D5C00085D5C00088B
:100170005D5C00085D5C00085D5C00085D5C00087B
:0C0180005D5C00085D5C000800000008E9
:1001900081F0004102E000BF83F0004330B54FEA38
:1001A00041044FEA430594EA050F08BF90EA020FA5
:1001B0001FBF54EA000C55EA020C7FEA645C7FEA38
:1001C000655C00F0E2804FEA5454D4EB5555B8BF5B
:1001D0006D420CDD2C4480EA020281EA030382EACC
:1001E000000083EA010180EA020281EA0303362D5E
:1001F00088BF30BD11F0004F4FEA01314FF4801C31
:100200004CEA113102D0404261EB410113F0004F42
:100210004FEA03334CEA133302D0524263EB4303F9
:1002200094EA050F00F0A780A4F10104D5F1200E97
:100230000DDB02FA0EFC22FA05F2801841F10001F2
:1002400003FA0EF2801843FA05F359410EE0A5F1C6
:1002500020050EF1200E012A03FA0EFC28BF4CF0F7
:10026000020C43FA05F3C01851EBE37101F00045AD
:1002700007D54FF0000EDCF1000C7EEB00006EEBBA
:100280000101B1F5801F1BD3B1F5001F0CD3490844
:100290005FEA30004FEA3C0C04F101044FEA44529B
:1002A00012F5800F80F09A80BCF1004F08BF5FEA22
:1002B000500C50F1000041EB045141EA050130BD02
:1002C0005FEA4C0C404141EB010111F4801FA4F1A5
:1002D0000104E9D191F0000F04BF01460020B1FAFA
:1002E00081F308BF2033A3F10B03B3F120020CDA32
:1002F0000C3208DD02F1140CC2F10C0201FA0CF010
:1003000021FA02F10CE002F11402D8BFC2F1200C74
:1003100001FA02F120FA0CFCDCBF41EA0C0190402A
:10032000E41AA2BF01EB0451294330BD6FEA040473
:100330001F3C1CDA0C340EDC04F11404C4F120025E
:1003400020FA04F001FA02F340EA030021FA04F370
:1003500045EA030130BDC4F10C04C4F1200220FAC7
:1003600002F001FA04F340EA0300294630BD21FA05
:1003700004F0294630BD94F0000F83F4801306BFCB
:1003800081F480110134013D4EE77FEA645C18BFBF
:100390007FEA655C29D094EA050F08BF90EA020F56
:1003A00005D054EA000C04BF1946104630BD91EA4E
:1003B000030F1EBF0021002030BD5FEA545C05D151
:1003C0004000494128BF41F0004130BD14F5800490
:1003D0003CBF01F5801130BD01F0004545F0FE4104
:1003E00041F470014FF0000030BD7FEA645C1ABF39
:1003F000194610467FEA655C1CBF0B46024650EA70
:10040000013406BF52EA033591EA030F41F400219B
:1004100030BD00BF90F0000F04BF0021704730B521
:100420004FF4806404F132044FF000054FF00001F6
:1004300050E700BF90F0000F04BF0021704730B5B7
:100440004FF4806404F1320410F0004548BF40428C
:100450004FF000013EE700BF42004FEAE2014FEAE1
:1004600031014FEA02701FBF12F07F4393F07F4FBC
:1004700081F06051704792F0000F14BF93F07F4FEE
:10048000704730B54FF4607401F0004521F0004131
:1004900020E700BF50EA010208BF704730B54FF0B7
:1004A00000050AE050EA010208BF704730B511F0BC
:1004B000004502D5404261EB41014FF4806404F1F4
:1004C00032045FEA915C3FF4DCAE4FF003025FEA76
:1004D000DC0C18BF03325FEADC0C18BF033202EBFE
:1004E000DC02C2F1200300FA03FC20FA02F001FA58
:1004F00003FE40EA0E0021FA02F11444C1E600BFF7
:1005000070B54FF0FF0C4CF4E06C1CEA11541DBFA9
:100510001CEA135594EA0C0F95EA0C0F00F0DEF874
:100520002C4481EA030621EA4C5123EA4C5350EA59
:10053000013518BF52EA033541F4801143F48013AA
:1005400038D0A0FB02CE4FF00005E1FB02E506F03B
:100550000042E0FB03E54FF00006E1FB03569CF090
:10056000000F18BF4EF0010EA4F1FF04B6F5007F96
:1005700064F5407404D25FEA4E0E6D4146EB060608
:1005800042EAC62141EA55514FEAC52040EA5E5091
:100590004FEACE2EB4F1FD0C88BFBCF5E06F1ED83B
:1005A000BEF1004F08BF5FEA500E50F1000041EB72
:1005B000045170BD06F0004646EA010140EA02001F
:1005C00081EA0301B4EB5C04C2BFD4EB0C0541EA41
:1005D000045170BD41F480114FF0000E013C00F356
:1005E000AB8014F1360FDEBF002001F0004170BD7A
:1005F000C4F10004203C35DA0C341BDC04F1140493
:10060000C4F1200500FA05F320FA04F001FA05F21E
:1006100040EA020001F0004221F0004110EBD370EB
:1006200021FA04F642EB06015EEA430E08BF20EA17
:10063000D37070BDC4F10C04C4F1200500FA04F3BA
:1006400020FA05F001FA04F240EA020001F000414C
:1006500010EBD37041F100015EEA430E08BF20EABF
:10066000D37070BDC4F1200500FA05F24EEA020E07
:1006700020FA04F301FA05F243EA020321FA04F036
:1006800001F0004121FA04F220EA020000EBD370ED
:100690005EEA430E08BF20EAD37070BD94F0000FED
:1006A0000FD101F00046400041EB010111F4801F21
:1006B00008BF013CF7D041EA060195F0000F18BFD2
:1006C000704703F00046520043EB030313F4801F0E
:1006D00008BF013DF7D043EA0603704794EA0C0FC8
:1006E0000CEA135518BF95EA0C0F0CD050EA4106DE
:1006F00018BF52EA4306D1D181EA030101F000415B
:100700004FF0000070BD50EA410606BF1046194682
:1007100052EA430619D094EA0C0F02D150EA01368E
:1007200013D195EA0C0F05D152EA03361CBF1046CF
:1007300019460AD181EA030101F0004141F0FE416E
:1007400041F470014FF0000070BD41F0FE4141F4F2
:10075000780170BD70B54FF0FF0C4CF4E06C1CEAF2
:1007600011541DBF1CEA135594EA0C0F95EA0C0FA7
:1007700000F0A7F8A4EB050481EA030E52EA033562
:100780004FEA013100F088804FEA03334FF0805583
:1007900045EA131343EA12634FEA022245EA1115B0
:1007A00045EA10654FEA00260EF000419D4208BF61
:1007B000964244F1FD0404F5407402D25B084FEA0E
:1007C0003202B61A65EB03055B084FEA32024FF4BA
:1007D00080104FF4002CB6EB020E75EB030E22BF17
:1007E000B61A754640EA0C005B084FEA3202B6EBD7
:1007F000020E75EB030E22BFB61A754640EA5C0086
:100800005B084FEA3202B6EB020E75EB030E22BF15
:10081000B61A754640EA9C005B084FEA3202B6EB16
:10082000020E75EB030E22BFB61A754640EADC00D5
:1008300055EA060E18D04FEA051545EA16754FEA37
:1008400006164FEAC30343EA52734FEAC2025FEA55
:100850001C1CC0D111F4801F0BD141EA00014FF0E4
:1008600000004FF0004CB6E711F4801F04BF0143B5
:100870000020B4F1FD0C88BFBCF5E06F3FF6AFAED1
:10088000B5EB030C04BFB6EB020C5FEA500C50F161
:10089000000041EB045170BD0EF0004E4EEA1131E4
:1008A00014EB5C04C2BFD4EB0C0541EA045170BDEB
:1008B00041F480114FF0000E013C90E645EA060E2F
:1008C0008DE60CEA135594EA0C0F08BF95EA0C0F5D
:1008D0003FF43BAF94EA0C0F0AD150EA01347FF4A5
:1008E00034AF95EA0C0F7FF425AF104619462CE77C
:1008F00095EA0C0F06D152EA03353FF4FDAE1046DF
:10090000194622E750EA410618BF52EA43067FF42F
:10091000C5AE50EA41047FF40DAF52EA43057FF4BF
:10092000EBAE12E74FF0FF3C06E000BF4FF0010CCA
:1009300002E000BF4FF0010C4DF804CD4FEA410C2E
:100940007FEA6C5C4FEA430C18BF7FEA6C5C1BD0FB
:1009500001B050EA410C0CBF52EA430C91EA030F7C
:1009600002BF90EA020F0020704710F1000F91EAD9
:10097000030F58BF994208BF90422CBFD8176FEAA7
:10098000E37040F0010070474FEA410C7FEA6C5C75
:1009900002D150EA013C07D14FEA430C7FEA6C5C7C
:1009A000D6D152EA033CD3D05DF8040B704700BFA8
:1009B0008446104662468C461946634600E000BFF6
:1009C00001B5FFF7B7FF002848BF10F1000F01BDC8
:1009D0004DF808EDFFF7F4FF0CBF012000205DF893
:1009E00008FB00BF4DF808EDFFF7EAFF34BF012018
:1009F00000205DF808FB00BF4DF808EDFFF7E0FFB1
:100A000094BF012000205DF808FB00BF4DF808ED01
:100A1000FFF7CEFF94BF012000205DF808FB00BF68
:100A20004DF808EDFFF7C4FF34BF012000205DF84A
:100A300008FB00BF4A0011D212F5001211D20DD5E9
:100A40006FF47873B3EB62520ED44FEAC12343F0D4
:100A5000004343EA505323FA02F070474FF000007E
:100A6000704750EA013002D14FF0FF3070474FF02D
:100A70000000704773B96AB9002908BF0028BCBFDD
:100A800000204FF00041C4BF6FF000414FF0FF3035
:100A900000F08CB882B0EC462DE9005000F056F81A
:100AA000DDF804E002B00CBC704700BF4BB942B99E
:100AB000002908BF002802D04FF0FF31084600F09F
:100AC00075B882B0EC462DE9005000F057F8DDF81B
:100AD00004E002B00CBC704738B500220023044685
:100AE0000D46FFF77FFF28B920462946BDE838406C
:100AF00000F00AB8204605F1004100F005F8404238
:100B000061EB410138BD00BF70B500220D4B0446BA
:100B10000D46FFF7F5FCFFF78DFF0646FFF77AFC61
:100B20000022094BFFF7ECFC02460B462046294603
:100B3000FFF732FBFFF77EFF002242EA0004204667
:100B4000314670BD0000F03D0000F0412DE97043DA
:100B5000069E14461D468046894600F029F804FB8F
:100B600001F300FB0533A4FB00451D44B8EB04046E
:100B700069EB0505C6E90045BDE870832DE97043C2
:100B8000069E1446804689461D4600F05DF900FB2E
:100B900005F504FB0153A0FB04451D44B8EB040418
:100BA00069EB0505C6E90045BDE87083704700BFE5
:100BB00000292DE9F00FC0F29F800024002BC0F225
:100BC0009680154606460F46002B3ED18A4257D9DD
:100BD000B2FA82F34BB1C3F1200201FA03F720FA13
:100BE00002F29D40174300FA03F6290CB7FBF1F21D
:100BF000330C01FB127CA8B243EA0C4700FB02F362
:100C0000BB4209D97F1902F1FF3C80F00181BB4250
:100C100040F2FE80023A2F44FF1AB7FBF1F3B6B25E
:100C200001FB137146EA014100FB03F0884208D939
:100C3000491903F1FF3780F0ED80884240F2EA80E5
:100C4000023B43EA0242002303E08B420AD900231D
:100C50001A461046194614B1404261EB4101BDE805
:100C6000F00F7047B3FA83F8B8F1000F40F08480BA
:100C70008B4202D3824200F2DE8000230122E8E7A9
:100C800012B90123B3FBF2F5B5FA85F2002A39D186
:100C90007F1B280C1FFA85FC0123B7FBF0F1320CF7
:100CA00000FB117742EA07470CFB01F2BA4207D971
:100CB0007F1901F1FF3802D2BA4200F2C1804146E9
:100CC000BF1AB7FBF0F2B6B200FB127046EA004062
:100CD0000CFB02FC844507D9401902F1FF3702D210
:100CE000844500F2AB803A4642EA0142B1E7E44370
:100CF000524263EB430364E7404261EB41014FF032
:100D0000FF345BE79540C2F1200327FA03F1280C7A
:100D100026FA03F39740B1FBF0F81F433B0C00FBAE
:100D200018111FFA85FC43EA01410CFB08F38B42C2
:100D300006FA02F608D9491908F1FF3279D28B4236
:100D400077D9A8F102082944C91AB1FBF0F3BFB260
:100D500000FB131147EA01470CFB03F2BA4207D923
:100D60007F1903F1FF3160D2BA425ED9023B2F44B2
:100D7000BF1A43EA084390E7C8F1200203FA08FCCF
:100D800025FA02F343EA0C0C4FEA1C4921FA02F35C
:100D900001FA08F720FA02F2B3FBF9F1174309FB55
:100DA00011333A0C1FFA8CFB42EA03430BFB01FAA6
:100DB0009A4505FA08F008D913EB0C0301F1FF324C
:100DC00035D29A4533D902396344CAEB0303B3FBE6
:100DD000F9F209FB1233BFB247EA03470BFB02F9F2
:100DE000B94508D917EB0C0702F1FF331BD2B945FF
:100DF00019D9023A674442EA0145A5FB0001C9EB53
:100E000007078F424FF000030AD305D02A4620E798
:100E1000624601E73B4614E706FA08F68642F5D239
:100E20006A1E002315E71A46E5E70B46A0E71146C0
:100E3000CBE7904688E7434642460AE7023A53E743
:100E400002392F443CE700BF2DE9F00F1446054658
:100E50000E46002B43D18A4253D9B2FA82F757B1DA
:100E6000C7F1200620FA06F601FA07F302FA07F4A2
:100E70001E4300FA07F5210CB6FBF1F22B0C01FB27
:100E80001267A0B243EA074600FB02F3B34209D956
:100E9000361902F1FF3780F0F680B34240F2F3805A
:100EA000023A2644F61AB6FBF1F3ADB201FB136128
:100EB00045EA014100FB03F0884208D9091903F112
:100EC000FF3680F0E280884240F2DF80023B43EA56
:100ED0000242002310461946BDE8F00F70478B42CE
:100EE0004AD8B3FA83F6002E4DD18B4202D3824208
:100EF00000F2D6800023012210461946BDE8F00F0B
:100F0000704712B90124B4FBF2F4B4FA84F2002A57
:100F10007CD1091B260CA7B20123B1FBF6F02A0CE9
:100F200006FB101142EA014107FB00F28A4207D991
:100F3000091900F1FF3C02D28A4200F2C3806046E8
:100F4000891AB1FBF6F2ADB206FB121145EA014572
:100F500007FB02F7AF4208D92C1902F1FF3180F0EC
:100F60009680A74240F29380023A42EA004210463D
:100F70001946BDE8F00F704700231A46104619467F
:100F8000BDE8F00F7047C6F1200522FA05F4B34022
:100F90001C434FEA144821FA05F301FA06F720FA38
:100FA00005F5B3FBF8FC2F4308FB1C333D0C1FFA7F
:100FB00084FA45EA03430AFB0CF9994502FA06FB59
:100FC00004D91B190CF1FF326DD39446C9EB03030E
:100FD000B3FBF8F508FB1533BFB247EA03470AFB3A
:100FE00005F8B84504D93F1905F1FF3361D31D4613
:100FF00045EA0C4CACFB0B23C8EB07079F424FF0B4
:10100000000549D345D062462B4663E79440C2F1C0
:10101000200321FA03FC260C20FA03F301FA02F55F
:10102000BCFBF6F843EA05010B0C06FB18CCA7B293
:1010300043EA0C4C07FB08F3634500FA02F509D9B3
:101040001CEB040C08F1FF323AD2634538D9A8F101
:101050000208A444C3EB0C0CBCFBF6F389B206FBFC
:1010600013CC41EA0C4107FB03F28A4207D9091964
:1010700003F1FF3022D28A4220D9023B2144891A4F
:1010800043EA084349E73A460CE733461FE70A4676
:101090006BE7B0409042B6D20CF1FF32002319E763
:1010A0003346324616E799458FD9ACF1020C2344FA
:1010B0008CE7B8459BD9023D274499E70346DEE714
:1010C0009046C7E7023821443AE700BF80B582B0B6
:1010D00000AF78607B681B681B6834331B687A68D4
:1010E000126810464FF4165198477B681B681B68BE
:1010F00038331B687A681268104603210222984729
:101100000837BD4680BD00BF80B584B000AF7860B1
:101110007B681B681B6838331B687A681268104646
:1011200000214FF41652984700BF7B681B681B686C
:1011300048331B687A681268104698470346B3F133
:10114000FF3F0CBF00230123DBB2002BEDD17B68F6
:101150001B681B684C331B687A68126810466FF076
:101160000F0198477B681B6818464FF0FF326FF0FD
:10117000004303F0FFFA7B681B681B6848331B6859
:101180007A681268104698470346FB73FB7BF02B86
:1011900001D0012300E0002318461037BD4680BD72
:1011A00080B584B000AF78607B681B681B683833FB
:1011B0001B687A681268104600214FF4E1329847A4
:1011C00000BF7B681B681B6848331B687A6812681D
:1011D000104698470346B3F1FF3F0CBF002301239D
:1011E000DBB2002BEDD17B681B681B684C331B689E
:1011F0007A68126810464FF0FF3198477B681B6889
:1012000018464FF0FF326FF0004303F0B3FA7B68EB
:101210001B681B6848331B687A6812681046984739
:101220000346FB73FB7BFF2B01D1012300E000236E
:1012300018461037BD4680BD80B582B000AF7860DB
:101240000B46FB707B681B681B6838331B687A6829
:101250001268104600214FF4E132984700BF7B68C6
:101260001B681B6848331B687A68126810469847E9
:101270000346B3F1FF3F0CBF00230123DBB2002B79
:10128000EDD1FB78002B0AD17B681B681B684C33BF
:101290001B687A6812681046002198470AE07B684C
:1012A0001B681B684C331B687A68126810464FF045
:1012B000FF3198477B681B6818464FF0FF326FF08C
:1012C000004303F057FA7B681B681B6848331B68B0
:1012D0007A681268104698470837BD4680BD00BF3F
:1012E00080B584B000AF78600023BB730123FB732B
:1012F00011E07868FFF754FF0346002B0CBF002372
:101300000123DBB2002B03D0BA7BFB7B1343BB73FF
:10131000FB7B5B00FB73FB7B002BEAD1BB7B18469E
:101320001037BD4680BD00BF80B584B000AF786087
:101330000B46FB700123FB730FE0FA7BFB78134035
:10134000DBB2002B01D0012300E0002378681946AE
:10135000FFF772FFFB7B5B00FB73FB7B002BECD189
:101360001037BD4680BD00BF90B587B000AFF860B4
:10137000B9607A6000237B610AE07B69BA68D4189F
:10138000F868FFF7ADFF034623707B6901337B618B
:101390007A697B689A42F0DB1C37BD4690BD00BF7E
:1013A00080B586B000AFF860B9607A6000237B61D9
:1013B0000AE07B69BA6813441B78F8681946FFF79E
:1013C000B3FF7B6901337B617A697B689A42F0DB0A
:1013D0001837BD4680BD00BF80B487B000AFF8604D
:1013E000B9607A60BB687B610023FB7422E07B6993
:1013F0005A1C7A611B78BB7408237B7417E0FA7C53
:10140000BB7C5340DBB203F001033B74FB7C5B10FD
:10141000FB743B7C002B04D0FB7C83F07303DB4329
:10142000FB74BB7C5B10BB747B7C013B7B747B7C63
:10143000002BE4D17B685A1E7A60002B0CBF00237E
:101440000123DBB2002BD2D1FB7C18461C37BD46F2
:101450005DF8047B704700BF80B483B000AF786054
:101460007B6819221A707B6800225A707B68002200
:101470009A707B6818460C37BD465DF8047B704750
:1014800080B582B000AF786039607B68012B07D1EE
:101490003A684FF6FF739A4202D10348FFF7DCFF28
:1014A0000837BD4680BD00BF6000002080B500AF9A
:1014B00001204FF6FF71FFF7E3FF80BD80B582B0DA
:1014C00000AF78607B681846064964224FF4FA63DF
:1014D0000AF0F0FF7B68044A1A607B6818460837F8
:1014E000BD4680BD44D80008B8E1000880B483B090
:1014F00000AF78600C37BD465DF8047B704700BFD5
:1015000080B59AB002AF78607B68012283F85120E1
:101510007B68032283F850207B6850333E4819468D
:10152000012200F089F87B6851333C4819460122BA
:1015300000F096F8796836A3D3E90023CDE90023BB
:1015400008464FF000024FF0000303F081FC7B6877
:1015500050333348194600F097F807F10803314833
:10156000194600F0B1F8BB891AB23B8B1BB2134489
:101570001846FEF75FFF02460B46104619464FF02D
:101580000002294BFEF7BCFF02460B4610461946E7
:101590004FF000024FF08043FFF7DCF802460B46A5
:1015A000C7E91623D7E916014FF000021F4BFFF7DA
:1015B00019FA0346002B08D01D48012100F082F9DA
:1015C0001B48002100F08EF91AE0D7E916014FF010
:1015D0000002184BFFF724FA0346002B08D01448EA
:1015E000002100F06FF91248012100F07BF907E0BB
:1015F0000F48002100F066F90D48002100F072F953
:101600007B68184603F03AFCA1E700BFAFF3008007
:1016100000E1F50500000000B0090020300A0020BC
:10162000D8090020E805002000407F3F00003EC0B0
:101630001401002000003E4080B584B000AFF86087
:10164000B9601346FB71FA68FB791046B9681A460F
:10165000002303F0F7FD034618461037BD4680BD52
:1016600080B584B000AFF860B9601346FB71FA68CA
:10167000FB791046B9681A46002303F0E3FD0346E0
:1016800018461037BD4680BD80B485B000AF786085
:1016900039607B6801221A757B68DB68FB60FB6838
:1016A0001A783B681A707B6800221A757B68D3E948
:1016B0000823013243F100037968C1E90823143794
:1016C000BD465DF8047B704780B584B000AF78609C
:1016D00039607B68012283F800217B68D3F8F830F9
:1016E000FB603A68FB6811461A46502308461146CB
:1016F0001A4603F0C3FA7B68002283F800217B6856
:1017000003F58873D3E90023013243F100037968BC
:1017100001F58871C1E900231037BD4680BD00BFC7
:1017200080B582B000AF78607B68084A1A607B6839
:1017300018460AF02DFF0023002B02D0786803F032
:10174000C7FA7B6818460837BD4680BDB8E1000877
:1017500080B582B000AF78607868FFF7E1FF786805
:1017600003F0B6FA7B6818460837BD4680BD00BF57
:1017700080B582B000AF786039607B68012B0CD1F6
:101780003A684FF6FF739A4207D10548FFF796FE75
:1017900003480449044A0CF04FF80837BD4680BDA1
:1017A00068000020211700088C0C002080B500AFD5
:1017B00001204FF6FF71FFF7DBFF80BD80B483B0DF
:1017C00000AF78600C37BD465DF8047B704700BF02
:1017D00080B582B000AF786039607B68043318460A
:1017E00006493A68002303F04BF87B68044A1A6004
:1017F0007B6818460837BD4680BD00BF440B0020FB
:10180000E8E1000880B582B000AF78607B68094AE3
:101810001A607B680433184603F07AF80023002B23
:1018200002D0786803F054FA7B6818460837BD4642
:1018300080BD00BFE8E1000880B582B000AF7860ED
:101840007868FFF7DFFF786803F042FA7B68184694
:101850000837BD4680BD00BF80B582B000AF78605C
:101860007B6818460549FFF7B3FF7B68044A1A6096
:101870007B6818460837BD4680BD00BF54D80008B5
:10188000D0E1000880B582B000AF78600A4801213D
:101890000122002304F0A0FC0848012101220023BA
:1018A00004F09AFC064801210122002304F094FC74
:1018B0000837BD4680BD00BFC0000020DC0000200E
:1018C000F800002080B582B000AF78600B46FB7056
:1018D000FB780348194604F085FD0837BD4680BDF6
:1018E000C000002080B582B000AF78600B46FB706E
:1018F000FB780348194604F075FD0837BD4680BDE6
:10190000DC00002080B582B000AF78607B68084AB8
:101910001A607B681846FFF775FF0023002B02D082
:10192000786803F0D5F97B6818460837BD4680BD56
:10193000D0E1000880B582B000AF78607868FFF72A
:10194000E1FF786803F0C4F97B6818460837BD46A4
:1019500080BD00BF80B582B000AF786039607B6821
:10196000012B18D13A684FF6FF739A4213D10B48F6
:10197000072104F0FDFB0A48062104F0F9FB0948A1
:10198000252104F0F5FB0848FFF766FF06480749E4
:10199000074A0BF051FF0837BD4680BDC00000204C
:1019A000DC000020F80000201401002005190008C8
:1019B0008C0C002080B500AF01204FF6FF71FFF7BF
:1019C000C9FF80BD80B582B000AF78607B681846E3
:1019D000064964224FF4FA630AF06CFD7B68044AFE
:1019E0001A607B6818460837BD4680BD60D800087D
:1019F00000E2000880B582B000AF786004480121A1
:101A00000122002304F0E8FB0837BD4680BD00BF7B
:101A10002801002080B483B000AF786000BF0C378D
:101A2000BD465DF8047B704780B582B000AF78603A
:101A30007B68084A1A607B6818460AF0A9FD0023F3
:101A4000002B02D0786803F043F97B68184608370A
:101A5000BD4680BD00E2000880B582B000AF78606E
:101A60007868FFF7E1FF786803F032F97B68184681
:101A70000837BD4680BD00BF80B582B000AF78603A
:101A800039607B68012B10D13A684FF6FF739A4298
:101A90000BD10748212104F06BFB0648FFF792FFAA
:101AA00004480549054A0BF0C7FE0837BD4680BD0E
:101AB0002801002048010020291A00088C0C002071
:101AC00080B500AF01204FF6FF71FFF7D5FF80BD55
:101AD00080B483B000AF786039607B683A681A6080
:101AE0007B6818460C37BD465DF8047B704700BF25
:101AF00080B582B000AF78607B6818460549FFF773
:101B000067FE7B68044A1A607B6818460837BD4642
:101B100080BD00BF70D8000818E2000880B582B010
:101B200000AF78600C480D49002205F08BFF0A4891
:101B30000121002206F0F8F909480A4904F080FE64
:101B400009484FF4E13106F02BFF0848FFF7BEFAD1
:101B50000837BD4680BD00BF9801002040420F00FD
:101B6000B4010020A0860100D0010020080200205E
:101B700080B582B000AF78607B68084A1A607B68E5
:101B80001846FFF73FFE0023002B02D0786803F0D1
:101B90009FF87B6818460837BD4680BD18E20008EC
:101BA00080B582B000AF78607868FFF7E1FF7868B1
:101BB00003F08EF87B6818460837BD4680BD00BF2D
:101BC00080B584B002AF786039607B68012B32D178
:101BD0003A684FF6FF739A422DD11F23009317489E
:101BE00002211D221E2305F0EDFE154801211622BB
:101BF000172304F0DFFD0C2300930B2301931148FE
:101C0000012109220A2306F06BFD1E2300933B23CA
:101C100001930D4803212A222B2306F061FD0B4876
:101C20000949FFF755FF0A48FFF762FF08480949CD
:101C3000094A0BF001FE0837BD4680BD980100201F
:101C4000B4010020D0010020EC0100200802002097
:101C50000C020020711B00088C0C002080B500AF26
:101C600001204FF6FF71FFF7ABFF80BD80B483B05A
:101C700000AF78600C37BD465DF8047B704700BF4D
:101C800080B582B000AF78607B6818461649642240
:101C90004FF4FA630AF00EFC7B68144A1A607B6802
:101CA000002283F850207B68002283F851207B6853
:101CB000002283F852207B68002283F853207B683F
:101CC000002283F854207B6800229A657B680022FA
:101CD00083F85C207B68002283F85D207B681846CF
:101CE0000837BD4680BD00BF7CD8000830E2000840
:101CF00080B586B002AF786033480021012200F041
:101D000067F879682EA3D3E90023CDE900230846BC
:101D10004FF000024FF0000303F09AF87B689A6DD1
:101D20007B6893F85030002B01D0012300E00023A2
:101D30001A447B689A657B689A6D7B6893F851308A
:101D4000002B01D0012300E000231A447B689A6530
:101D50007B689A6D7B6893F85230002B01D0012389
:101D600000E000231A447B689A657B689A6D7B6863
:101D700093F85330002B01D0012300E000231A44D4
:101D80007B689A657B689B6D052B12D9002343F015
:101D90001903FB72FB6803F07F43FB6005233B8163
:101DA0000123BB7207F1080308481946012200F01D
:101DB00029F87B68184603F061F8AFE7AFF30080BD
:101DC0000065CD1D00000000B00A0020880800203A
:101DD00080B584B000AF786013460A467A807B7085
:101DE0007B88FB81796807F10E027B7808461146F3
:101DF0001A46002303F026FA034618461037BD465C
:101E000080BD00BF80B584B000AFF860B9601346F4
:101E1000FB71FA68FB791046B9681A46002303F093
:101E200011FA034618461037BD4680BD80B582B012
:101E300000AF78607B68084A1A607B6818460AF031
:101E4000A7FB0023002B02D0786802F041FF7B68DB
:101E500018460837BD4680BD30E2000880B582B024
:101E600000AF78607868FFF7E1FF786802F030FF34
:101E70007B6818460837BD4680BD00BF80B582B07C
:101E800000AF786039607B68012B0CD13A684FF65F
:101E9000FF739A4207D10548FFF7F2FE0348044951
:101EA000044A0BF0C9FC0837BD4680BD2002002063
:101EB0002D1E00088C0C002080B500AF01204FF6CD
:101EC000FF71FFF7DBFF80BD80B483B000AF7860A7
:101ED0000B46FB7097F903307A68C3F1200362FA6E
:101EE00003F318460C37BD465DF8047B704700BF0E
:101EF00080B483B000AF78607B681B0C7A68534075
:101F00007B607B680C4A02FB03F37B607B685B0BA6
:101F10007A6853407B607B68084A02FB03F37B606E
:101F20007B681B0C7A6853407B607B6818460C37D3
:101F3000BD465DF8047B70476BCAEB8535AEB2C217
:101F400080B58EB000AFF860B9607A60BB68002BD6
:101F500000DA03339B10BB627B683B633D4B7B62C3
:101F60003D4B3B62BB6A9B00FA681344FB61BB6A52
:101F70005B427B6327E07B6B9B00FA6913441B6821
:101F8000BB61BB697A6A02FB03F3BB61B8690F21CD
:101F9000FFF79AFFB861BB693A6A02FB03F3BB61C2
:101FA0003A6BBB6953403B63386B0D21FFF78CFFE5
:101FB00038633A6B13469B001A44284B13443B6327
:101FC0007B6B01337B637B6B002BD4D1BB6A9B00A3
:101FD000FA6813447B610023FB62BB6803F00303D0
:101FE000022B0BD0032B02D0012B0ED025E07B69F6
:101FF00002331B781B04FA6A5340FB627B6901338E
:102000001B781B02FA6A5340FB627B691B78FA6AF1
:102010005340FB62FB6A7A6A02FB03F3FB62F86AD5
:102020000F21FFF751FFF862FB6A3A6A02FB03F3E4
:10203000FB623A6BFB6A53403B63BB683A6B5340AD
:102040003B63386BFFF754FF38633B6B18463837F8
:10205000BD4680BD512D9ECC9335871B646B54E6E5
:1020600080B582B000AF78607B681846064964226C
:102070004FF4FA630AF01EFA7B68044A1A607B6820
:1020800018460837BD4680BD8CD8000848E20008D5
:1020900080B58AB002AF78600B46FB70FB78012BED
:1020A00005D0FB78022B02D04FF0FF334CE0284ADA
:1020B00007F1140312881A80264A07F110031288C8
:1020C0001A80FB782448194600F036FD07F1140306
:1020D00022481946022205F0B7FF0346B3F1FF3F3D
:1020E00014BF00230123DBB2002B05D01A4800F0F7
:1020F00071FD4FF0FF3327E0194A07F10C031288F6
:102100001A804FF0FF33FB610023BB6115E007F13C
:10211000100207F10C03022100911048114602221F
:1021200006F0BCF87B7BDBB25BB2002B02DB00234A
:10213000FB6105E0BB690133BB61BB69632BE6DD75
:10214000054800F047FDFB6918462037BD4680BDB5
:102150009CD80008A0D800087C040020980100202A
:10216000A4D8000880B584B000AF7860F970BA7068
:102170007B70FB78012B05D0FB78022B02D04FF04F
:10218000FF3321E0BB783B727B787B72FB78104891
:10219000194600F0D1FC0023FB6007F108030D484D
:1021A0001946022205F050FF0346B3F1FF3F14BF6A
:1021B00000230123DBB2002B02D04FF0FF33FB6082
:1021C000034800F007FDFB6818461037BD4680BD88
:1021D0007C0400209801002080B582B000AF7860B8
:1021E0000B46FB70FB7878681946FFF751FF0346F2
:1021F000B3F1FF3F14BF00230123DBB2002B02D059
:102200004FF0FF336DE002F041FF384A4FF000031A
:10221000121843EB01031046194600220AF09AFAFD
:10222000FB78786819466B220023FFF79BFF034673
:10223000B3F1FF3F14BF00230123DBB2002B02D018
:102240004FF0FF334DE002F021FF284A4FF000032A
:10225000121843EB01031046194600220AF07AFADD
:10226000FB78786819461B220023FFF77BFF0346A3
:10227000B3F1FF3F14BF00230123DBB2002B02D0D8
:102280004FF0FF332DE002F001FF184A4FF000033A
:10229000121843EB01031046194600220AF05AFABD
:1022A000FB78786819461C221823FFF75BFF03466A
:1022B000B3F1FF3F14BF00230123DBB2002B02D098
:1022C0004FF0FF330DE002F0E1FE084A4FF000034B
:1022D000121843EB01031046194600220AF03AFA9D
:1022E000002318460837BD4680BD00BF40420F009E
:1022F00080B586B000AFF8600B467A60FB72FB7A5F
:10230000012B05D0FB7A022B02D04FF0FF336DE09A
:10231000FB7A3848194600F00FFCBB23FB7507F128
:10232000170335481946012205F08EFE32487968B8
:102330000E2205F01FFF0346B3F1FF3F14BF002339
:102340000123DBB2002B05D02A4800F043FC4FF0FC
:10235000FF334BE0274800F03DFC7B68B3F90830C1
:102360009BB21BB2184602F0ADF803461A467B68D2
:102370001A817B68B3F90A309BB21BB2184602F08F
:10238000A1F803461A467B685A817B68B3F90C3082
:102390009BB21BB2184602F095F803461A467B68BA
:1023A0009A817B68B3F900309BB21BB2184602F0E9
:1023B00089F803461A467B681A807B68B3F90230B5
:1023C0009BB21BB2184602F07DF803461A467B68A2
:1023D0005A807B68B3F904309BB21BB2184602F0F6
:1023E00071F803461A467B689A800023184618370E
:1023F000BD4680BD7C0400209801002080B58CB0D3
:1024000002AF786078680121FFF7E6FE7868022164
:10241000FFF7E2FE79682D4A4FF00003CDE9002373
:1024200008464FF000024FF0000302F011FD07F1E3
:102430001803786801211A46FFF75AFF07F10803CD
:10244000786802211A46FFF753FF7B6803F5A072F4
:1024500007F11803083310461946062202F00EFC55
:102460007B6803F5A67207F1080308331046194686
:10247000062202F003FC7B6803F5A37207F1180340
:1024800010461946062202F0F9FB7B6803F5A97293
:1024900007F1080310461946062202F0EFFB02F08E
:1024A000F5FD02460B46796801F5C471C1E90023C8
:1024B0007B6803F5A07306481946012200F00AF86C
:1024C0007B68184602F0DAFCB1E700BF80969800FE
:1024D000C005002080B584B000AFF860B960134635
:1024E000FB71FA68FB791046B9681A46002302F0BE
:1024F000A9FE034618461037BD4680BD80B582B0A0
:1025000000AF78607B68084A1A607B6818460AF05A
:102510003FF80023002B02D0786802F0D9FB7B68DB
:1025200018460837BD4680BD48E2000880B582B035
:1025300000AF78607868FFF7E1FF786802F0C8FBC9
:102540007B6818460837BD4680BD00BF80B582B0A5
:1025500000AF786039607B68012B0CD13A684FF688
:10256000FF739A4207D10548FFF77AFD03480449F3
:10257000044A0BF061F90837BD4680BD8002002097
:10258000FD2400088C0C002080B500AF01204FF620
:10259000FF71FFF7DBFF80BD80B582B000AF7860D0
:1025A0007B681846064964224FF4FA6309F082FFFB
:1025B0007B68044A1A607B6818460837BD4680BDB0
:1025C000A8D8000860E2000880B582B000AF78604B
:1025D000154804F0C1F902F059FD02460B461046B9
:1025E0001946FDF75FFF02460B46104619460CA33D
:1025F000D3E90023FDF7D2FD02460B4610461946EB
:10260000FEF76AFA02460B461046194600220AF007
:10261000A1F80548054904F013F90837BD4680BD07
:102620000000000080841E41B4010020A08601004B
:1026300080B586B000AF7860396055233B7207F1F2
:102640000803013318463968082202F017FB4E23AD
:102650007B745523BB74C923FB741F233B75064849
:10266000FEF752FD07F10803034819460D22FEF755
:1026700097FE1837BD4680BD0802002080B584B0A3
:1026800000AF7860CC233B7344237B730648FEF78E
:102690003BFD07F10C03044819460222FEF780FEB9
:1026A0001037BD4680BD00BF0802002080B58AB04B
:1026B00000AF7860396055233B7607F1180301338A
:1026C00018463968082202F0D9FABE2387F821306B
:1026D00000237B6225E01948FEF716FD07F1180379
:1026E000164819460A22FEF75BFE07F10C03134851
:1026F00019460922FEF738FE07F10C030F48194668
:102700000822FEF769FE03461A467B7D9A4214BFF3
:1027100000230123DBB2002B00D005E07B6A0133EC
:102720007B627B6A022BD6DD07F10C031B887B845E
:102730007B8C1BB218462837BD4680BD080200209E
:1027400080B582B000AF7860396020489021204A7F
:10275000012304F0C5F90346DB0FDBB2002B04D0E4
:102760007868FFF731FF00232BE0184891213A6881
:10277000022304F0E9F90346DB0FDBB2002B04D09F
:102780007868FFF721FF00231BE03B681B889BB2A2
:102790001BB2184601F096FE03469AB23B681A80B7
:1027A0000A4890210B4A032304F09AF90346DB0FF1
:1027B000DBB2002B04D07868FFF706FF002300E0AF
:1027C000012318460837BD4680BD00BFB401002074
:1027D000780400200400002080B582B000AF78604B
:1027E000396020489021204A012304F079F90346FA
:1027F000DB0FDBB2002B04D07868FFF7E5FE002387
:102800002BE0184891213A68022304F09DF9034611
:10281000DB0FDBB2002B04D07868FFF7D5FE002376
:102820001BE03B681B889BB21BB2184601F04AFEB6
:1028300003469AB23B681A800A4890210B4A032348
:1028400004F04EF90346DB0FDBB2002B04D07868AE
:10285000FFF7BAFE002300E0012318460837BD4603
:1028600080BD00BFB40100207804002000000020DB
:1028700080B582B000AF78600A4890210A4A0323ED
:1028800004F02EF90346DB0FDBB2002B04D078688E
:10289000FFF79AFE002300E0012318460837BD46E3
:1028A00080BD00BFB4010020000000200000000037
:1028B00080B588B002AF786000237B6105E04A48AC
:1028C00001F060FE7B6901337B617B69092B0ADCC7
:1028D0007868FFF7CDFF034683F00103DBB2002BDE
:1028E00001D0012300E00023002BE8D178683F49A4
:1028F000FFF79EFE79683AA3D3E90023CDE90023D0
:1029000008464FF000024FF0000302F0A1FA002346
:10291000FB740023FB60FB7C83F00103DBB2002B24
:102920000FD07B68503378681946FFF709FF0346DC
:1029300083F00103DBB2002B20D02D4801F022FEF2
:102940001CE07B68523378681946FFF745FF034661
:1029500083F00103DBB2002B02D0264801F012FE07
:1029600002F094FB02460B467968C1E918237B68A4
:10297000503321481946012200F042F8FB68002B31
:1029800003D17868FFF77AFE16E078681749FFF7F9
:102990008DFE03461A467B68A3F8562002F076FBAC
:1029A00002460B467968C1E918237B685033124808
:1029B0001946012200F024F8FB7C83F00103FB742C
:1029C000FB680133FB60FB68012B01DCFB6800E066
:1029D0000023FB607B68184602F050FA9BE700BFBB
:1029E00000E1F50500000000B8D8000870E200081A
:1029F000CCD80008ECD8000830070020AFF30080E6
:102A000080B584B000AFF860B9601346FB71FA6816
:102A1000FB791046B9681A46002302F013FC0346FE
:102A200018461037BD4680BD80B582B000AF7860D3
:102A30007B68084A1A607B68184609F0A9FD0023E4
:102A4000002B02D0786802F043F97B6818460837FB
:102A5000BD4680BD60E2000880B582B000AF7860FE
:102A60007868FFF7E1FF786802F032F97B68184672
:102A70000837BD4680BD00BF80B582B000AF78602A
:102A800039607B68012B0CD13A684FF6FF739A428C
:102A900007D10548FFF780FD03480449044A0AF0BE
:102AA000CBFE0837BD4680BD10040020292A00084F
:102AB0008C0C002080B500AF01204FF6FF71FFF7AE
:102AC000DBFF80BD80B582B000AF78607B681846C0
:102AD0000649FEF77DFE7B68054A1A607B68002286
:102AE0001A757B6818460837BD4680BD10D90008A6
:102AF00080E4000880B582B000AF78600B48012107
:102B00000122012303F068FB09480121012201236E
:102B100003F062FB074801210122012303F05CFB63
:102B20007B6800221A750837BD4680BD94040020DA
:102B3000B0040020CC04002080B582B000AF7860E3
:102B40000B46FB701F4809F009FC7B681B7D002BBE
:102B500002D04FF0FF3331E07B68FA781A75FB78CA
:102B6000022B10D0032B1BD0012B26D1164801219C
:102B700003F038FC1548012103F034FC144800210F
:102B800003F030FC19E01248012103F02BFC0F4840
:102B9000012103F027FC0C48002103F023FC0CE08A
:102BA0000B48012103F01EFC0748012103F01AFC29
:102BB0000648002103F016FC00BF00231846083722
:102BC000BD4680BDE8040020B0040020CC040020F5
:102BD0009404002080B582B000AF78600C480121D9
:102BE00003F000FC0B48012103F0FCFB0A48012123
:102BF00003F0F8FB09480A49012205F025FA7B6831
:102C000000221A75074809F007FC0837BD4680BD49
:102C100094040020B0040020CC040020980100207F
:102C200078E20008E804002080B582B000AF786048
:102C30007B68084A1A607B681846FEF7E3FD0023AC
:102C4000002B02D0786802F043F87B6818460837FA
:102C5000BD4680BD80E4000880B582B000AF7860DA
:102C60007868FFF7E1FF786802F032F87B68184671
:102C70000837BD4680BD00BF80B582B000AF786028
:102C800039607B68012B1BD13A684FF6FF739A427B
:102C900016D10D48FFF716FF0B480C490C4A0AF0F5
:102CA000CBFD0C48262103F063FA0B48272103F0E3
:102CB0005FFA0A481C2103F05BFA094809F036FB69
:102CC0000837BD4680BD00BF7C040020292C0008C9
:102CD0008C0C002094040020B0040020CC040020C0
:102CE000E804002080B500AF01204FF6FF71FFF728
:102CF000C3FF80BD80B582B000AF78607B681846A6
:102D0000064964224FF4FA6309F0D4FB7B68044A55
:102D10001A607B6818460837BD4680BD1CD900087C
:102D200098E400080000000080B59AB002AF786017
:102D30000023FB65796827A3D3E90023CDE90023AD
:102D400008464FF000024FF0000302F081F8FB6DDF
:102D5000002B10DC07F140037868194600F084F876
:102D600007F140031A4819461A2206F0A3F8FB6D32
:102D70000133FB6525E0FB6D012B10D107F10C033E
:102D80007868194600F02CF807F10C031048194632
:102D9000222206F08FF8FB6D0133FB6511E0FB6D1D
:102DA000012B0EDD07F130037868194600F0A0F81A
:102DB00007F1300306481946122206F07BF800237B
:102DC000FB657B68184602F059F8C0E7AFF3008056
:102DD000D0010020AA21EF0900000000AFF300801D
:102DE00090B583B000AF786039607B6850331C4881
:102DF0001946FEF769FC3B68A8221A703B68591C0B
:102E00007B68D3E92623D3B20B703B6802330022E0
:102E10001A703B68033300221A703B680433114A6E
:102E200012881A803B689A1D7B68503310461946F9
:102E3000182201F023FF3B6803F11E04786839680B
:102E40001E2200F0CBF803462360064B1B8801339B
:102E50009AB2044B1A80222318460C37BD4690BD07
:102E6000E8050020B805002090B583B000AF786079
:102E700039607B68A0331C48194600F0C1F83B68F4
:102E8000A4221A703B68591C7B68D3E92C23D3B267
:102E90000B703B68023300221A703B680333002238
:102EA0001A703B680433114A12881A803B689A1DD5
:102EB0007B68A03310461946102201F0DFFE3B6804
:102EC00003F1160478683968162200F087F8034683
:102ED0002360064B1B8801339AB2044B1A801A23D5
:102EE00018460C37BD4690BD58070020BA05002093
:102EF00090B585B000AF786039607B68B8333248F0
:102F0000194600F0A9F87B68BD3330481946FEF732
:102F1000BBFB7B68BE332E48194600F0C1F83B6806
:102F2000A2221A7002F0B2F802460B461046194669
:102F3000284A4FF00003FDF79DFD02460B46C7E906
:102F400002233B6801333A7A1A703B68023300224D
:102F50001A703B68033300221A703B6804331E4A20
:102F600012881A803B6806337A6892F8BD20D1B285
:102F70007A6892F8BE20D201D2B20A43D2B21A7055
:102F80003B68073300221A803B6803F109027B6823
:102F9000B83310461946052201F070FE3B6803F174
:102FA0000E04786839680E2200F018F80346236092
:102FB000094B1B8801339AB2074B1A80102318461D
:102FC0001437BD4690BD00BF20080020D80900205E
:102FD000580A002040420F00BC05002080B584B094
:102FE00000AFF860B9607A60B868796841F237324A
:102FF000FEF7A6FF034618461037BD4680BD00BF4A
:10300000B0B485B000AF786039607B68012283F886
:1030100058207B681B6DFB603B68FA68106851683C
:103020009568D468186059609D60DC6010695169CA
:10303000186159617B68002283F858207B68D3E9C6
:103040001A23013243F100037968C1E91A231437C6
:10305000BD46B0BC704700BF80B485B000AF78609B
:1030600039607B68012283F820207B689B69FB60C4
:103070003B68FA681168196012791A717B6800223E
:1030800083F820207B68D3E90C23013243F100034D
:103090007968C1E90C231437BD465DF8047B70479D
:1030A00080B485B000AF786039607B6801221A7502
:1030B0007B68DB68FB60FB681A783B681A707B688A
:1030C00000221A757B68D3E90823013243F100031B
:1030D0007968C1E908231437BD465DF8047B704761
:1030E00080B582B000AF78607B68084A1A607B6860
:1030F000184609F04DFA0023002B02D0786801F041
:10310000E7FD7B6818460837BD4680BD98E4000897
:1031100080B582B000AF78607868FFF7E1FF78682B
:1031200001F0D6FD7B6818460837BD4680BD00BF5C
:1031300080B582B000AF786039607B68012B0CD11C
:103140003A684FF6FF739A4207D10548FFF7D2FD60
:1031500003480449044A0AF06FFB0837BD4680BDA6
:10316000F8040020E13000088C0C002080B500AF8E
:1031700001204FF6FF71FFF7DBFF80BD80B582B005
:1031800000AF78607B680A4A1A600A4801F040FA8A
:103190007B680433184601F0BBFB0023002B02D0F0
:1031A000786801F095FD7B6818460837BD4680BDFC
:1031B00008E600082CD9000880B582B000AF78601E
:1031C0007868FFF7DBFF786801F082FD7B681846BE
:1031D0000837BD4680BD00BF80B582B000AF7860C3
:1031E0007B680A4A1A600A4801F012FA7B680433C5
:1031F000184601F08DFB0023002B02D0786801F007
:1032000067FD7B6818460837BD4680BD70E600083C
:103210003CD9000880B582B000AF78607868FFF7CD
:10322000DBFF786801F054FD7B6818460837BD461F
:1032300080BD00BF80B582B000AF78607B68064A71
:103240001A600023002B02D0786801F041FD7B68F2
:1032500018460837BD4680BDF0E5000880B582B04D
:1032600000AF78607868FFF7E5FF786801F030FD1F
:103270007B6818460837BD4680BD00BF80B584B066
:1032800000AFF860B9607A603B60044801F0C0F9B3
:10329000002318461037BD4680BD00BF50D9000836
:1032A00080B584B000AFF860B9607A60FB681846FA
:1032B000B96850227B6801F055FFFB68034A1A6029
:1032C000FB6818461037BD4680BD00BFE0E500082A
:1032D00080B483B000AF78607B68044A1A607B6872
:1032E00018460C37BD465DF8047B7047F0E50008D2
:1032F00080B582B000AF78607B681846FFF7E8FFC2
:103300007B68174A1A607B681A1D7B68C3F8F42033
:103310007B6803F154027B68C3F8F8207B6803F1F3
:10332000A4027B68C3F8FC207B68002283F800219C
:103330007B6803F588714FF000024FF00003C1E98C
:1033400000237B6803F58873D3E90023796801F5CE
:103350008471C1E900237B6818460837BD4680BDEB
:10336000C8E5000880B584B000AFF860B9607A6045
:10337000FB681846B96818227B6801F0F3FEFB6809
:10338000034A1A60FB6818461037BD4680BD00BF6F
:10339000B8E5000880B582B000AF78607B68184659
:1033A000FFF796FF7B68134A1A607B681A1D7B68DB
:1033B000DA647B6803F11C027B681A657B6803F1A1
:1033C00034027B685A657B68002283F8582079684C
:1033D0004FF000024FF00003C1E91A237B68D3E9E4
:1033E0001A237968C1E918237B6818460837BD4657
:1033F00080BD00BFA0E5000880B584B000AFF860D4
:10340000B9607A60FB681846B96805227B6801F0EC
:10341000A9FEFB68034A1A60FB6818461037BD46D0
:1034200080BD00BF90E5000880B582B000AF786035
:103430007B681846FFF74CFF7B68134A1A607B686D
:103440001A1D7B685A617B6803F109027B689A61E7
:103450007B6803F10E027B68DA617B68002283F8E7
:10346000202079684FF000024FF00003C1E90C23DF
:103470007B68D3E90C237968C1E90A237B68184685
:103480000837BD4680BD00BF78E5000880B584B030
:1034900000AFF860B9607A60FB681846B968072227
:1034A0007B6801F05FFEFB68034A1A60FB68184600
:1034B0001037BD4680BD00BF68E5000880B582B00A
:1034C00000AF78607B681846FFF702FF7B68134AFD
:1034D0001A607B681A1D7B68DA617B6803F10B0256
:1034E0007B681A627B6803F112027B685A627B6810
:1034F000002283F8282079684FF000024FF0000383
:10350000C1E90E237B68D3E90E237968C1E90C2356
:103510007B6818460837BD4680BD00BF50E50008EF
:1035200080B584B000AFF860B9607A60FB68184677
:10353000B96806227B6801F015FEFB68034A1A6031
:10354000FB6818461037BD4680BD00BF40E5000847
:1035500080B582B000AF78607B681846FFF7B8FE90
:103560007B68134A1A607B681A1D7B689A617B68C6
:1035700003F10A027B68DA617B6803F110027B6861
:103580001A627B68002283F8242079684FF00002D9
:103590004FF00003C1E90C237B68D3E90C23796861
:1035A000C1E90A237B6818460837BD4680BD00BFC5
:1035B00028E5000880B584B000AFF860B9607A6093
:1035C000FB681846B96801227B6801F0CBFDFB68F7
:1035D000034A1A60FB6818461037BD4680BD00BF1D
:1035E00018E5000880B582B000AF78607B681846A7
:1035F000FFF76EFE7B68114A1A607B681A1D7B68B4
:103600009A607B685A1D7B68DA607B689A1D7B68CC
:103610001A617B6800221A7579684FF000024FF03A
:103620000003C1E908237B68D3E908237968C1E96D
:1036300006237B6818460837BD4680BD00E50008B4
:1036400080B584B000AFF860B9607A60FB68184656
:10365000B96801227B6801F085FDFB68034A1A60A6
:10366000FB6818461037BD4680BD00BFF0E4000877
:1036700080B582B000AF78607B681846FFF728FEFF
:103680007B68114A1A607B681A1D7B689A607B68A8
:103690005A1D7B68DA607B689A1D7B681A617B68BB
:1036A00000221A7579684FF000024FF00003C1E95B
:1036B00008237B68D3E908237968C1E906237B687E
:1036C00018460837BD4680BDD8E4000880B584B0F0
:1036D00000AFF860B9607A60FB681846B9680222EA
:1036E0007B6801F03FFDFB68034A1A60FB681846DF
:1036F0001037BD4680BD00BFC8E4000880B582B069
:1037000000AF78607B681846FFF7E2FD7B68124ADD
:103710001A607B681A1D7B68DA607B689A1D7B687B
:103720001A617B6803F108027B685A617B6800229A
:103730001A7679684FF000024FF00003C1E90A23BE
:103740007B68D3E90A237968C1E908237B681846B6
:103750000837BD4680BD00BFB0E4000880B582B028
:1037600000AF78607B68084A1A607B681846FFF7EC
:1037700061FD0023002B02D0786801F0A9FA7B6874
:1037800018460837BD4680BDB0E4000880B582B059
:1037900000AF78607868FFF7E1FF786801F098FA89
:1037A0007B6818460837BD4680BD00BF80B582B033
:1037B00000AF78607B68084A1A607B681846FFF79C
:1037C00039FD0023002B02D0786801F081FA7B6874
:1037D00018460837BD4680BDD8E4000880B582B0E1
:1037E00000AF78607868FFF7E1FF786801F070FA61
:1037F0007B6818460837BD4680BD00BF80B582B0E3
:1038000000AF78607B68084A1A607B681846FFF74B
:1038100011FD0023002B02D0786801F059FA7B6873
:1038200018460837BD4680BD00E5000880B582B067
:1038300000AF78607868FFF7E1FF786801F048FA38
:103840007B6818460837BD4680BD00BF80B582B092
:1038500000AF78607B68084A1A607B681846FFF7FB
:10386000E9FC0023002B02D0786801F031FA7B6874
:1038700018460837BD4680BD28E5000880B582B0EF
:1038800000AF78607868FFF7E1FF786801F020FA10
:103890007B6818460837BD4680BD00BF80B582B042
:1038A00000AF78607B68084A1A607B681846FFF7AB
:1038B000C1FC0023002B02D0786801F009FA7B6874
:1038C00018460837BD4680BD50E5000880B582B077
:1038D00000AF78607868FFF7E1FF786801F0F8F9E9
:1038E0007B6818460837BD4680BD00BF80B582B0F2
:1038F00000AF78607B68084A1A607B681846FFF75B
:1039000099FC0023002B02D0786801F0E1F97B6874
:1039100018460837BD4680BD78E5000880B582B0FE
:1039200000AF78607868FFF7E1FF786801F0D0F9C0
:103930007B6818460837BD4680BD00BF80B582B0A1
:1039400000AF78607B68084A1A607B681846FFF70A
:1039500071FC0023002B02D0786801F0B9F97B6874
:1039600018460837BD4680BDA0E5000880B582B086
:1039700000AF78607868FFF7E1FF786801F0A8F998
:103980007B6818460837BD4680BD00BF80B582B051
:1039900000AF78607B68084A1A607B681846FFF7BA
:1039A00049FC0023002B02D0786801F091F97B6874
:1039B00018460837BD4680BDC8E5000880B582B00E
:1039C00000AF78607868FFF7E1FF786801F080F970
:1039D0007B6818460837BD4680BD00BF80B584B0FF
:1039E00002AF786039607B68012B40F006813A684D
:1039F0004FF6FF739A4240F0008181484FF0FF314B
:103A0000804AFFF74DFC7E487F49804A09F014FF49
:103A10007F48FFF76DFC7E487E497C4A09F00CFF29
:103A2000002300937C487649794A7C4B01F05AF98F
:103A300079487B49754A09F0FFFE7A484FF0FF311B
:103A4000794AFFF78FFC77487849704A09F0F4FE0D
:103A50007748FFF79FFC764876496C4A09F0ECFE00
:103A60000023009374486F49714A6C4B01F03AF996
:103A700071486B49654A09F0DFFE70484FF0FF312D
:103A80006F4AFFF7B9FC6D486E49604A09F0D4FEF1
:103A90006D48FFF7C9FC6C486C495C4A09F0CCFEE4
:103AA000002300936A486549674A5C4B01F01AF9A4
:103AB00067485B49554A09F0BFFE66484FF0FF3141
:103AC000654AFFF7E3FC63486449504A09F0B4FED5
:103AD0006348FFF7F3FC624862494C4A09F0ACFEC8
:103AE0000023009360485B495D4A4C4B01F0FAF8B3
:103AF0005D484B49454A09F09FFE5C484FF0FF3155
:103B00005B4AFFF70DFD59485A49404A09F094FEB7
:103B10005948FFF71DFD584858493C4A09F08CFEAA
:103B20000023009356485149534A3C4B01F0DAF8C0
:103B300053483B49354A09F07FFE52484FF0FF3168
:103B4000514AFFF737FD4F485049304A09F074FE9B
:103B50004F48FFF747FD4E484E492C4A09F06CFE8E
:103B6000002300934C484749494A2C4B01F0BAF8CE
:103B700049482B49254A09F05FFE48484FF0FF317C
:103B8000474AFFF75DFD45484649204A09F054FE83
:103B90004548FFF76DFD444844491C4A09F04CFE76
:103BA0000023009342483D493F4A1C4B01F09AF8DC
:103BB0003F481B49154A09F03FFE3E484FF0FF3190
:103BC0003D4AFFF783FD3B483C49104A09F034FE6B
:103BD0003B48FFF793FD3A483A490C4A09F02CFE5E
:103BE0000023009338483349354A0C4B01F07AF8EA
:103BF00035480B49054A09F01FFE0837BD4680BD10
:103C0000C0050020D8D90008F14000088C0C002025
:103C1000E80500208D39000800070020E4D90008DD
:103C2000D931000830070020F8D9000861400008A9
:103C3000580700203D390008C8070020F807002079
:103C40000CDA0008D13F000820080020ED380008F9
:103C500058080020880800201CDA0008413F0008AE
:103C6000B00800209D380008F0080020200900203E
:103C700028DA0008B13E0008480900204D38000845
:103C800080090020B00900203CDA0008213E00082D
:103C9000D8090020FD370008000A0020300A002063
:103CA0004CDA0008913D0008580A0020AD370008A2
:103CB000800A0020B00A002058DA0008013D000800
:103CC000D80A00205D370008080B002080B584B0BA
:103CD00000AFF860B9607A603B607B68022B04D962
:103CE000064800F095FC002304E0F868396800F00D
:103CF0002DFA012318461037BD4680BD68DA00084A
:103D000080B582B000AF78607B680A4A1A600A48C2
:103D100000F07EFC7B681846FFF730FA0023002B8A
:103D200002D0786800F0D4FF7B6818460837BD469B
:103D300080BD00BFC8E400087CDA000880B582B00E
:103D400000AF78607868FFF7DBFF786800F0C0FFAD
:103D50007B6818460837BD4680BD00BF80B584B07B
:103D600000AFF860B9607A603B607B68012B04D9D2
:103D7000064800F04DFC002304E0F868396800F0C4
:103D800017FA012318461037BD4680BD68DA0008CF
:103D900080B582B000AF78607B680A4A1A600A4832
:103DA00000F036FC7B681846FFF7E8F90023002B8B
:103DB00002D0786800F08CFF7B6818460837BD4653
:103DC00080BD00BFF0E400087CDA000880B582B056
:103DD00000AF78607868FFF7DBFF786800F078FF65
:103DE0007B6818460837BD4680BD00BF80B584B0EB
:103DF00000AFF860B9607A603B607B68012B04D942
:103E0000064800F005FC002304E0F868396800F07B
:103E100001FA012318461037BD4680BD68DA000854
:103E200080B582B000AF78607B680A4A1A600A48A1
:103E300000F0EEFB7B681846FFF7A0F90023002B8B
:103E400002D0786800F044FF7B6818460837BD460A
:103E500080BD00BF18E500087CDA000880B582B09C
:103E600000AF78607868FFF7DBFF786800F030FF1C
:103E70007B6818460837BD4680BD00BF80B584B05A
:103E800000AFF860B9607A603B607B68062B04D9AC
:103E9000064800F0BDFB002304E0F868396800F034
:103EA000EBF9012318461037BD4680BD68DA0008DB
:103EB00080B582B000AF78607B680A4A1A600A4811
:103EC00000F0A6FB7B681846FFF758F90023002B8B
:103ED00002D0786800F0FCFE7B6818460837BD46C3
:103EE00080BD00BF40E500087CDA000880B582B0E4
:103EF00000AF78607868FFF7DBFF786800F0E8FED5
:103F00007B6818460837BD4680BD00BF80B584B0C9
:103F100000AFF860B9607A603B607B68072B04D91A
:103F2000064800F075FB002304E0F868396800F0EB
:103F3000D7F9012318461037BD4680BD68DA00085E
:103F400080B582B000AF78607B680A4A1A600A4880
:103F500000F05EFB7B681846FFF710F90023002B8A
:103F600002D0786800F0B4FE7B6818460837BD467A
:103F700080BD00BF68E500087CDA000880B582B02B
:103F800000AF78607868FFF7DBFF786800F0A0FE8C
:103F90007B6818460837BD4680BD00BF80B584B039
:103FA00000AFF860B9607A603B607B68052B04D98C
:103FB000064800F02DFB002304E0F868396800F0A3
:103FC000C5F9012318461037BD4680BD68DA0008E0
:103FD00080B582B000AF78607B680A4A1A600A48F0
:103FE00000F016FB7B681846FFF7C8F80023002B8B
:103FF00002D0786800F06CFE7B6818460837BD4632
:1040000080BD00BF90E500087CDA000880B582B072
:1040100000AF78607868FFF7DBFF786800F058FE43
:104020007B6818460837BD4680BD00BF80B584B0A8
:1040300000AFF860B9607A603B607B68182B04D9E8
:10404000064800F0E5FA002304E0F868396800F05B
:10405000B1F9012318461037BD4680BD68DA000863
:1040600080B582B000AF78607B680A4A1A600A485F
:1040700000F0CEFA7B681846FFF780F80023002B8B
:1040800002D0786800F024FE7B6818460837BD46E9
:1040900080BD00BFB8E500087CDA000880B582B0BA
:1040A00000AF78607868FFF7DBFF786800F010FEFB
:1040B0007B6818460837BD4680BD00BF80B584B018
:1040C00000AFF860B9607A603B607B68502B04D920
:1040D000064800F09DFA002304E0F868396800F013
:1040E000A5F9012318461037BD4680BD68DA0008DF
:1040F00080B582B000AF78607B680A4A1A600A48CF
:1041000000F086FA7B681846FFF738F80023002B8A
:1041100002D0786800F0DCFD7B6818460837BD46A1
:1041200080BD00BFE0E500087CDA000880B582B001
:1041300000AF78607868FFF7DBFF786800F0C8FDB3
:104140007B6818460837BD4680BD00BF80B485B087
:1041500000AF786039607B68DB683A6812881A8043
:104160007B681B69FB607B68DA687B681A617B6827
:10417000FA68DA607B681B7EDBB2002B09D07B68B3
:10418000DB68FB607B685A697B68DA607B68FA6889
:104190005A617B68D3E90823013243F1000379684F
:1041A000C1E908231437BD465DF8047B704700BFA2
:1041B00080B485B000AF786039607B689B683A68EE
:1041C00012781A707B68DB68FB607B689A687B6892
:1041D000DA607B68FA689A607B681B7DDBB2002B33
:1041E00009D07B689B68FB607B681A697B689A6072
:1041F0007B68FA681A617B68D3E90623013243F1D0
:1042000000037968C1E906231437BD465DF8047BD5
:10421000704700BF80B485B000AF786039607B68BC
:104220009B683A6812781A707B68DB68FB607B6871
:104230009A687B68DA607B68FA689A607B681B7DA5
:10424000DBB2002B09D07B689B68FB607B681A6936
:104250007B689A607B68FA681A617B68D3E90623F9
:10426000013243F100037968C1E906231437BD46E2
:104270005DF8047B704700BF80B485B000AF786004
:1042800039607B689B693A681168196092889A80E6
:104290007B68DB69FB607B689A697B68DA617B68B5
:1042A000FA689A617B6893F82430DBB2002B09D05E
:1042B0007B689B69FB607B681A6A7B689A617B6894
:1042C000FA681A627B68D3E90A23013243F10003DA
:1042D0007968C1E90A231437BD465DF8047B70474D
:1042E00080B485B000AF786039607B68DB693A687C
:1042F000116819609188927999809A717B681B6A1C
:10430000FB607B68DA697B681A627B68FA68DA614D
:104310007B6893F82830DBB2002B09D07B68DB691F
:10432000FB607B685A6A7B68DA617B68FA685A626C
:104330007B68D3E90C23013243F100037968C1E9BA
:104340000C231437BD465DF8047B704780B485B0FC
:1043500000AF786039607B685B693A681168196002
:1043600012791A717B689B69FB607B685A697B686C
:104370009A617B68FA685A617B6893F82030DBB2F7
:10438000002B09D07B685B69FB607B68DA697B681E
:104390005A617B68FA68DA617B68D3E90A230132E3
:1043A00043F100037968C1E90A231437BD465DF87B
:1043B000047B7047B0B485B000AF786039607B682B
:1043C000DB6C3A68106851689568D4681860596069
:1043D0009D60DC6010695169186159617B681B6DD3
:1043E000FB607B68DA6C7B681A657B68FA68DA6464
:1043F0007B6893F85830DBB2002B09D07B68DB6C0C
:10440000FB607B685A6D7B68DA647B68FA685A6582
:104410007B68D3E91823013243F100037968C1E9CD
:1044200018231437BD46B0BC704700BF80B584B0B8
:1044300000AF786039607B68D3F8F4203B681146A0
:104440001A465023084611461A4600F017FC7B68AE
:10445000D3F8F830FB607B68D3F8F4207B68C3F8AE
:10446000F8207B68FA68C3F8F4207B6893F8003181
:10447000DBB2002B0DD07B68D3F8F430FB607B6897
:10448000D3F8FC207B68C3F8F4207B68FA68C3F893
:10449000FC207B6803F58473D3E90023013243F1E8
:1044A0000003796801F58471C1E900231037BD4626
:1044B00080BD00BF80B500AF01204FF6FF71FFF750
:1044C0008DFA80BD80B485B000AF0346FB80FB88C9
:1044D0003B8107F10803FB60FB681B78FB72FB68FC
:1044E0005A78FB681A70FB680133FA7A1A703B89B4
:1044F0001BB218461437BD465DF8047B704700BFF9
:1045000080B582B000AF78607B68064A1A600023ED
:10451000002B02D0786800F0DBFB7B681846083778
:10452000BD4680BD18E6000880B582B000AF786057
:104530007868FFF7E5FF786800F0CAFB7B681846EB
:104540000837BD4680BD00BF80B582B000AF78603F
:104550000B46FB7097F90330184607F05BFC0837F1
:10456000BD4680BD80B483B000AF78607B68044AEC
:104570001A607B6818460C37BD465DF8047B7047AF
:1045800018E600080FB480B582B000AF1C4B1B6862
:10459000002B2FD03B461846FFF7E4FF07F114032A
:1045A0007B60184B1B68002B05D0164B1B68164808
:1045B000194601F0CBFA07F083FE034683F00103AE
:1045C000DBB2002B05D03B461846396901F04CF8A8
:1045D0000AE00E4807F0C2FE3B461846396901F072
:1045E00043F80A4807F018FF07F056FC3B46184608
:1045F000FFF786FF0837BD46BDE8804004B070472E
:104600000C0000204C0B002094DA0008500B002016
:1046100080B582B000AF7860074B7A681A600748AF
:104620007968FFF7AFFF064B1B685A1C044B1A60F2
:104630000837BD4680BD00BF08000020A8DA00088A
:104640004C0B002080B582B000AF786039607B6889
:10465000012B07D13A684FF6FF739A4202D1034803
:1046600007F064FE0837BD4680BD00BF500B002038
:1046700080B500AF01204FF6FF71FFF7E3FF80BD6B
:104680000FB480B400AF00231846BD465DF8047B2C
:1046900004B0704780B483B000AF78600C37BD467B
:1046A0005DF8047B704700BF0FB480B400AF0023F7
:1046B0001846BD465DF8047B04B070470FB480B463
:1046C00000AF00231846BD465DF8047B04B0704778
:1046D00080B483B000AF7860002318460C37BD4625
:1046E0005DF8047B704700BF80B483B000AF786092
:1046F000002318460C37BD465DF8047B704700BFA9
:104700000FB480B400AF00231846BD465DF8047BAB
:1047100004B070470FB480B400AF00231846BD4604
:104720005DF8047B04B070470FB480B400AF002381
:104730001846BD465DF8047B04B0704780B483B072
:1047400000AF78607B680A4A1A607B6800221A61B1
:104750007B6800225A607B6800229A607B68002296
:10476000DA607B6818460C37BD465DF8047B7047FD
:1047700030E6000880B584B000AFF860C7E90023D8
:1047800006F06CFFFB681B6810331B68F8689847DD
:104790000346002B02D006F069FF0EE007F0B2FFDF
:1047A0000246FB689A60FB689968D7E90023C1E973
:1047B0000A2306F05BFF07F02FFF1037BD4680BDD0
:1047C00080B582B000AF78607B689B68002B04D016
:1047D0007B689B68184607F0A1FF7B6800229A60FF
:1047E0007B681B69002B07D07B681B691B681B68F3
:1047F0007A681269104698470837BD4680BD00BFE9
:1048000080B582B000AF78607B685B68002B04D015
:104810007B685B68184607F081FF7B6800225A605E
:104820007B681B69002B08D07B681B691B680433FD
:104830001B687A681269104698470837BD4680BDE4
:1048400080B582B000AF78607B68DB68002B04D055
:104850007B68DB68184607F061FF7B680022DA603E
:104860007B681B69002B08D07B681B691B680833B9
:104870001B687A681269104698470837BD4680BDA4
:1048800080B584B000AFF860B9607A603B60FB68C7
:104890003A68DA60FB687A685A60084B1B68591CF2
:1048A000064A1160FA689360F868B96800F008F881
:1048B000FB6818461037BD4680BD00BF600B002066
:1048C00080B582B000AF786039603B681A687B6859
:1048D0001A603B687A681A600A4B1B68002B0CBF91
:1048E00000230123DBB2002B08D00748FFF790FE1E
:1048F0007B685B6805481946FFF744FE0837BD46EC
:1049000080BD00BF081F0020D4DA000808DB0008C3
:1049100080B582B000AF78600348FFF779FE7B680E
:1049200018460837BD4680BD2CDB000880B483B034
:1049300000AF78607B681B6818460C37BD465DF891
:10494000047B704780B483B000AF78607B685B689D
:1049500018460C37BD465DF8047B704780B588B0BB
:1049600000AF01233B60FB785BB2012B14BF002337
:104970000123DAB26E4B1A7007F016FA6D4801F097
:10498000E5F86D4B1B68002B03D06B4B1B68043B99
:1049900000E00023FB6110E0FB691B681B68F869FD
:1049A0009847FB6904331846FFF7C0FF0346002B06
:1049B00001D0043B00E00023FB61FB69002BEBD13D
:1049C0005E4B1B68002B03D05C4B1B68043B00E074
:1049D0000023BB6111E0BB691B6808331B68B86921
:1049E0009847BB6904331846FFF7A0FF0346002B26
:1049F00001D0043B00E00023BB61BB69002BEAD17E
:104A00004F4801F0A3F84F4B1B68002B03D04D4BD0
:104A10001B68043B00E000237B6121E07B690433D9
:104A20001846FFF783FF0346002B01D0043B00E04C
:104A30000023BB607B691B7F002B06D07B6904339E
:104A400018464149FFF73CFF08E07B691A1D7B6966
:104A50005B69143310461946FFF732FFBB687B6170
:104A60007B69002BDAD1394B1B68002B4DD03848BD
:104A700001F06CF8354B1B68002B03D0334B1B68DF
:104A8000043B00E000233B613CE03B6904331846F3
:104A9000FFF758FF01463B69DA693B691B6A2D48FD
:104AA00001F054F83B695B69002B03D03B695B69FB
:104AB000043B00E00023FB6015E0FB68043318466C
:104AC000FFF740FF03462448194601F03FF8FB6812
:104AD00004331846FFF72AFF0346002B01D0043B9E
:104AE00000E00023FB60FB68002BE6D13B69043348
:104AF0001846FFF71BFF0346002B01D0043B00E0E4
:104B000000233B613B69002BBFD1144801F01EF824
:104B100000F068FA78607B68002B03D01048796851
:104B200001F014F807F050FE2037BD4680BD00BFED
:104B3000680B002040DB0008440B0020C01F002051
:104B400070DB0008480B0020C80B0020640B00201D
:104B500094DB0008B0DB0008DCDB0008E8DB0008C1
:104B6000FCDB00082DE9F04184B002AF78603960C9
:104B7000264B7A681A60264B3A681A6006F02EFDBA
:104B800024482549254A00F0E1FF08F0F1F8FFF735
:104B9000E5FE06F0C5FC03461E4606F0E1FC0546B0
:104BA00006F0E8FC044606F0C7FC804606F0CEFCA2
:104BB0000346CDF800800193194831462A46234622
:104BC00000F0C4FF08F090F9044608F08DF90346A0
:104BD000144821461A4600F0B9FF134800F0B6FF0A
:104BE00000F026F842F210704FF0000106F0F0FFDE
:104BF00006F096FF0D4800F0A9FF07F0FFFA00232A
:104C000018460837BD46BDE8F08100BF6C0B002098
:104C1000700B002018DC000848DC000854DC000899
:104C20006CDC0008D0DC0008F0DC000828DD00089F
:104C300080B500AF014800F089FF80BD5CDD000851
:104C400080B485B000AF78600023FB607B68002BE8
:104C500001D100230BE005E0FB680133FB607B68BA
:104C600001337B607B681B78002BF5D1FB6818460D
:104C70001437BD465DF8047B704700BF80B487B031
:104C800000AFF860B9607A60FB687B61BB683B612C
:104C90007B69002B02D03B69002B01D1002311E07E
:104CA0000CE03B691A787B691A707B68013B7B607A
:104CB0003B6901333B617B6901337B617B68002B7E
:104CC000EFD1FB6818461C37BD465DF8047B704782
:104CD00080B483B000AF78600C37BD465DF8047BCC
:104CE000704700BF80B584B000AFF860B9607A60EB
:104CF0003B60FB68043318461049114A0023FFF754
:104D0000BFFDFB680F4A1A60FB68BA685A61FB680E
:104D10002033184607F00AFBFB683A7E1A77FB68D7
:104D200001225A77FB683A689A60FB687A689A6150
:104D3000FB6818461037BD4680BD00BF480B0020F9
:104D400088DD000870E6000880B485B000AFF86028
:104D5000B9607A603B60034B18461437BD465DF876
:104D6000047B704715CD5B0790B587B002AFF86044
:104D7000B9607A603B60FB685B7F83F00103DBB264
:104D8000002B01D000233DE0FB682033184607F0DC
:104D9000E5FAFB689B69002B0FD0FB689B691B68D9
:104DA00008331C68FB689A697B68396A0091104671
:104DB000B9681A463B68A04718E0FB681B681C6886
:104DC0003B6A5B690093F868B9687A683B68A047FA
:104DD00002460E4B9A420CBF00230123DBB2002B8C
:104DE00004D00B48FFF714FC01230BE0FB682033D1
:104DF000184607F011FBFB689B69002B01D00123CB
:104E000000E0002318461437BD4690BD15CD5B0762
:104E100094DD000890B58DB002AFF860B9607A609B
:104E20003B60FB689B69002B0FD0FB689B691B688C
:104E300008331C68FB689A693B6807F11001009110
:104E40001046B9681A467B68A0472C37BD4690BD0E
:104E500080B485B000AFF860C7E90023F968D7E9EE
:104E60000023C1E90E23F968D7E90623C1E910231D
:104E70001437BD465DF8047B704700BFB0B586B0FF
:104E800002AF786006E04FF0FF306FF00041002283
:104E900007F060FC7B68D3E9102352EA0301F2D0EB
:104EA0007B68D3E90E2310461946002207F052FC16
:104EB00000F0ECF8C7E902017B68D3E90E017B68DA
:104EC000D3E91023D7E90245CDE9004500F0E8F821
:104ED00002460B467968C1E90E231037BD46B0BDC6
:104EE00080B584B000AF786007F00CFCF860F8681B
:104EF00007F0EEFBB860F868796807F0F5FBBB686F
:104F000018461037BD4680BDB0B586B002AFC7E9C0
:104F100000010023FB60324B1B68002B03D0304B99
:104F20001B68043B00E00023BB6051E0BB68D3E991
:104F30000601D7E90023904271EB030C3CDABB6811
:104F4000D3E9082352EA030107D1B9684FF0FF32D1
:104F50006FF00043C1E9062325E0BB68D3E90601F1
:104F6000BB68D3E90823121843EB0103B968C1E910
:104F70000623BB68D3E90601D7E90023904271EB11
:104F8000030C10DABB68D3E90601BB68D3E9082338
:104F9000D7E90045CDE9004500F082F802460B460E
:104FA000B968C1E90623BB681B6808331B68B86889
:104FB0009847FB680133FB60BB6804331846FFF772
:104FC000B5FC0346002B01D0043B00E00023BB608E
:104FD000BB68002BAAD1FB6818461037BD46B0BD90
:104FE000400B002080B582B000AF00237B60144BE3
:104FF0001B68002B03D0124B1B68043B00E000230E
:105000003B6014E03B681B680C331B6838689847AA
:105010007B6801337B603B6804331846FFF786FCEE
:105020000346002B01D0043B00E000233B603B68BB
:10503000002BE7D17B6818460837BD4680BD00BF0E
:10504000400B002080B483B000AF786079684FF0E7
:1050500000024FF00003C1E9002379684FF000021D
:105060004FF00003C1E9022379684FF000024FF0CE
:105070000003C1E904237B6811229A617B6818460A
:105080000C37BD465DF8047B704700BF80B500AFAC
:1050900006F026FE02460B461046194680BD00BFAC
:1050A00080B584B000AFC7E90201C7E90023D7E9A2
:1050B0000223D7E90601904271EB030C02DAD7E92B
:1050C00002232CE0D7E9002352EA030104D14FF078
:1050D000FF326FF0004322E0D7E90601D7E902234F
:1050E000821A61EB030310461946D7E90023FBF748
:1050F000C1FC02460B46013243F10003396803FB51
:1051000001F0796802FB01F101443868A0FB022339
:1051100019440B46D7E90201121843EB010310466C
:1051200019461037BD4680BD80B582B000AF7860AB
:1051300039607B68012B07D13A684FF6FF739A42BA
:1051400002D10348FFF77EFF0837BD4680BD00BF90
:10515000780B002080B500AF01204FF6FF71FFF7FC
:10516000E3FF80BD80B586B000AFF860B9607A60BB
:105170003B60FB68043318462E493A680023FFF76A
:105180007FFBFB682C4A1A60FB6800225A61FB68AF
:10519000BA68DA61FB687A681A62FB6800229A6171
:1051A000FB68DB69B3F1FF3F11D1386807F054FEAB
:1051B00003461A46FB68DA61FB68DB69B3F57A7F60
:1051C00005DAFB68DB6903F57A72FB68DA61194B73
:1051D0001B68002B03D0174B1B68043B00E0002327
:1051E0007B611EE07B69DA69BB689A420DD17A69FE
:1051F000FB689A4209D01148FFF70AFA7B699B685D
:105200000F48B9683A68FFF7BDF97B69043318465F
:10521000FFF78CFB0346002B01D0043B00E000238A
:105220007B617B69002BDDD1FB6818461837BD46D2
:1052300080BD00BF640B002008E60008F4DD000814
:1052400008DE000880B586B002AFF860B9603B6048
:105250001346FB71FB681B6A1A46FB79396800919B
:10526000F868B96800F006F8034618461037BD46DE
:1052700080BD00BF90B591B002AFF860B9607A60B0
:10528000FB7000237B63BB6C002B12D100237B627D
:10529000FFF7FCFE02460B46C7E9062307F024FE93
:1052A00003463B6107F02EFA03463B6207F1100309
:1052B000BB64FB689B69002B0FD0FB689B691B6874
:1052C0001C68FB689969FB68DA697B68B86C0090B8
:1052D000084611461A46BB68A047FB685B69002B6D
:1052E00003D0FB685B69043B00E000233B6321E0E3
:1052F0003B6B5B7F002B11D03B6B1B6804331C683E
:10530000FB68DA697B68B96C0091386B11461A4604
:10531000BB68A04703467A6B13447B633B6B043343
:105320001846FFF703FB0346002B01D0043B00E0C7
:1053300000233B633B6B002BDAD1FB7883F0010346
:10534000DBB2002B01D07B6B2CE0184B5B69002B90
:1053500003D0164B5B69043B00E00023FB621DE0B9
:10536000FB6A1B6804331C68FB68DA697B68B96CEC
:105370000091F86A11461A46BB68A04703467A6B4B
:1053800013447B63FB6A04331846FFF7CFFA0346E6
:10539000002B01D0043B00E00023FB62FB6A002BE2
:1053A000DED17B6B18463C37BD4690BDB40B002068
:1053B00080B582B000AF78607B680A4A1A600A48FC
:1053C000FFF726F97B681846FDF7D8FE0023002B6F
:1053D00002D07868FFF77CFC7B6818460837BD462A
:1053E00080BD00BFB0E6000880DE000880B582B056
:1053F00000AF78607868FFF7DBFF7868FFF768FC3C
:105400007B6818460837BD4680BD00BF80B584B0B4
:1054100000AFF860B9607A60FB681846B9680C2282
:105420007B68FFF79FFEFB68034A1A60FB6818461B
:105430001037BD4680BD00BFB0E6000880B584B01F
:1054400000AFF860B9607A60FB681846B96840F24E
:105450002E527B68FFF786FEFB68034A1A60FB68E2
:1054600018461037BD4680BDA0E6000880B584B060
:1054700000AFF860B9607A60FB681846B96804222A
:105480007B68FFF76FFEFB68034A1A60FB681846EB
:105490001037BD4680BD00BF90E6000880B582B0E1
:1054A00000AF786039607B68012B4FD13A684FF6C6
:1054B000FF739A424AD1274827490A2207F0E2FBA4
:1054C00024482649264A08F0B7F926480021264AEA
:1054D000FFF79CFF23482549214A08F0ADF92448ED
:1054E0004FF0FF31234AFFF7A9FF214822491C4A08
:1054F00008F0A2F921484FF0FF31214AFFF7B6FF2B
:105500001E482049164A08F097F91F484FF0FF310E
:105510001E4AFFF7ABFF1C481A49114A08F08CF9E4
:105520001B484FF0FF311B4AFFF7A0FF18481549F1
:105530000B4A08F081F918484FF0FF31174AFFF77E
:1055400065FF15480949064A08F076F90837BD464F
:1055500080BD00BF980B002090DE0008C5CC00087D
:105560008C0C0020B40B0020A4DE0008B15300080E
:10557000D80B0020B4DE0008FD550008FC0B00200D
:10558000C0DE0008A1550008200C0020D0DE000875
:10559000440C0020E0DE0008680C0020F4DE000867
:1055A00080B582B000AF78607B680A4A1A600A480A
:1055B000FFF72EF87B681846FDF7E0FD0023002B6F
:1055C00002D07868FFF784FB7B6818460837BD4631
:1055D00080BD00BF90E6000880DE000880B582B084
:1055E00000AF78607868FFF7DBFF7868FFF770FB43
:1055F0007B6818460837BD4680BD00BF80B582B0C5
:1056000000AF78607B680A4A1A600A48FFF700F822
:105610007B681846FDF7B2FD0023002B02D07868A6
:10562000FFF756FB7B6818460837BD4680BD00BFB4
:10563000A0E6000880DE000880B582B000AF786088
:105640007868FFF7DBFF7868FFF742FB7B68184656
:105650000837BD4680BD00BF80B500AF01204FF6C2
:10566000FF71FFF71BFF80BD80B594B000AF78607D
:10567000396056E2002387F84E30002387F84D301A
:10568000002387F84C30002387F84B3097F84F30D1
:10569000252B0AD07B681B6808331B6897F84F20BE
:1056A00052B27868114698473BE23B685A1C3A6010
:1056B0001B7887F84F30002387F84330202387F882
:1056C0004230032387F8413097F84F30302B09D10F
:1056D00097F84F3087F842303B685A1C3A601B7885
:1056E00087F84F3097F84F302F2B0ED997F84F305F
:1056F000392B0AD897F84F30303B87F843303B6856
:105700005A1C3A601B7887F84F3097F84F302E2B91
:1057100010D13B685A1C3A601B7887F84F3097F8D5
:105720004F30303B87F841303B685A1C3A601B7859
:1057300087F84F3097F84F306C2B08D1012387F84A
:105740004D303B685A1C3A601B7887F84F3097F809
:105750004F306C2B08D1012387F84C303B685A1C22
:105760003A601B7887F84F3097F84F30623B162B22
:1057700038D801A151F823F071580008D557000816
:105780005B580008E557000855580008E557000821
:10579000E5570008E5570008E5570008E5570008F9
:1057A000E5570008E5570008E55700083F5800088E
:1057B000E5570008E5570008E5570008FB570008C3
:1057C000E557000861580008E5570008E55700084C
:1057D000695800087B685B68191D7A6851601B680E
:1057E00087F84F307B681B6808331B6897F84F2099
:1057F00052B278681146984793E17B685B68191D3F
:105800007A6851601B687B6409E07B681B68083319
:105810001B6897F84F2052B27868114698477B6C06
:105820005A1C7A641B7887F84F3097F84F30002B5A
:105830000CBF00230123DBB2002BE6D171E108236A
:10584000A7F848307B681B6808331B6878683021EC
:10585000984711E0012387F84B30012387F84E3039
:105860000A23A7F8483007E01023A7F8483003E0E0
:105870000223A7F8483000BF4FF000024FF00003AA
:10588000C7E90C234FF000024FF00003C7E90A23D9
:1058900097F84B30002B15D07B685B68073323F0FB
:1058A000070303F108017A685160D3E90023C7E9CF
:1058B0000A23D7E90A01FBF70FF902460B46C7E9AD
:1058C0000C232CE097F84C30002B0DD07B685B68E4
:1058D000073323F0070303F108017A685160D3E925
:1058E0000023C7E90C231AE097F84D30002B0BD0AA
:1058F0007B685B68191D7A6851601B681A464FEA1D
:10590000E273C7E90C230AE07B685B68191D7A68BB
:1059100051601B681A464FEAE273C7E90C2397F8F7
:105920004E30002B2DD0D7E90C23002A73F1000153
:105930000ADBD7E90A014FF000024FF00003FBF742
:1059400051F80346002B1CD0D7E90C23524263EBDD
:105950004303C7E90C23BB6ABB62FB6A83F00043C5
:10596000FB627B681B6808331B6878682D219847A9
:1059700097F84330002B04D097F84330013B87F869
:10598000433097F84C30002B04D0D7E90C23C7E9FB
:105990000E2310E097F84D30002B06D03B6B1A46D3
:1059A0004FF00003C7E90E2305E03B6B1A464FF0AA
:1059B0000003C7E90E2307F10C031A337B647B6CE9
:1059C000013B7B647B6C00221A70B7F848204FF0D3
:1059D0000003D7E90E01FBF769F8D3B23033DBB22D
:1059E00087F8273097F92730392B05DD97F82730CE
:1059F0000733DBB287F827307B6C013B7B6497F879
:105A000027207B6C1A70B7F848204FF00003D7E9C5
:105A10000E01FBF74BF802460B46C7E90E2397F839
:105A20004330002B04D097F84330013B87F84330D4
:105A3000D7E90E2352EA0301C7D106E07B6C013B94
:105A40007B647B6C97F842201A7097F843305A1E9B
:105A500087F84320002B0CBF00230123DBB2002B6F
:105A6000ECD109E07B681B6808331B6897F84F206E
:105A700052B27868114698477B6C5A1C7A641B783E
:105A800087F84F3097F84F30002B0CBF00230123CD
:105A9000DBB2002BE6D197F84B30002B41D07B686E
:105AA0001B6808331B6878682E2198472DE0D7E9DA
:105AB0000C01FAF7F7FC02460B46D7E90A01FAF7A0
:105AC0006BFB02460B46C7E90A23D7E90A014FF0F0
:105AD00000021D4BFAF714FD02460B46C7E90A23E4
