:020000040800F2
:10000000000002203954000869A9000871A90008FD
:1000100095A900089DA90008A5A9000800000000F6
:10002000000000000000000000000000A9A200087D
:10003000A554000800000000BDA20008E9A50008C2
:10004000A5540008A5540008A5540008A5540008AC
:10005000A5540008A5540008595E00087D5E0008FC
:10006000A15E0008C55E0008E95E0008A55400080E
:100070004D780008A554000875770008A5540008BD
:10008000057800082D770008A5540008A55400083D
:10009000A5540008A5540008A55400080D5F0008E9
:1000A000A5540008A554000899A70008A554000805
:1000B000A5540008A5540008A5540008A55400083C
:1000C000A5540008A5540008A5540008A55400082C
:1000D000A5540008557600086D760008857600085E
:1000E000695F0008A5540008A5540008A55400083D
:1000F000A5540008A5540008A5540008A5540008FC
:10010000A5540008A5540008B5A30008A55400088C
:100110009D760008B5760008A5540008A55400088F
:10012000A5540008A5540008A5540008A5540008CB
:10013000A5540008A5540008A5540008A5540008BB
:10014000A5540008A5540008A5540008A5540008AB
:10015000BD770008A5540008E5760008CD760008B4
:10016000A5540008A5540008A5540008A55400088B
:10017000A5540008A5540008A5540008A55400087B
:0C018000A5540008A55400080000000869
:1001900081F0004102E000BF83F0004330B54FEA38
:1001A00041044FEA430594EA050F08BF90EA020FA5
:1001B0001FBF54EA000C55EA020C7FEA645C7FEA38
:1001C000655C00F0E2804FEA5454D4EB5555B8BF5B
:1001D0006D420CDD2C4480EA020281EA030382EACC
:1001E000000083EA010180EA020281EA0303362D5E
:1001F00088BF30BD11F0004F4FEA01314FF4801C31
:100200004CEA113102D0404261EB410113F0004F42
:100210004FEA03334CEA133302D0524263EB4303F9
:1002200094EA050F00F0A780A4F10104D5F1200E97
:100230000DDB02FA0EFC22FA05F2801841F10001F2
:1002400003FA0EF2801843FA05F359410EE0A5F1C6
:1002500020050EF1200E012A03FA0EFC28BF4CF0F7
:10026000020C43FA05F3C01851EBE37101F00045AD
:1002700007D54FF0000EDCF1000C7EEB00006EEBBA
:100280000101B1F5801F1BD3B1F5001F0CD3490844
:100290005FEA30004FEA3C0C04F101044FEA44529B
:1002A00012F5800F80F09A80BCF1004F08BF5FEA22
:1002B000500C50F1000041EB045141EA050130BD02
:1002C0005FEA4C0C404141EB010111F4801FA4F1A5
:1002D0000104E9D191F0000F04BF01460020B1FAFA
:1002E00081F308BF2033A3F10B03B3F120020CDA32
:1002F0000C3208DD02F1140CC2F10C0201FA0CF010
:1003000021FA02F10CE002F11402D8BFC2F1200C74
:1003100001FA02F120FA0CFCDCBF41EA0C0190402A
:10032000E41AA2BF01EB0451294330BD6FEA040473
:100330001F3C1CDA0C340EDC04F11404C4F120025E
:1003400020FA04F001FA02F340EA030021FA04F370
:1003500045EA030130BDC4F10C04C4F1200220FAC7
:1003600002F001FA04F340EA0300294630BD21FA05
:1003700004F0294630BD94F0000F83F4801306BFCB
:1003800081F480110134013D4EE77FEA645C18BFBF
:100390007FEA655C29D094EA050F08BF90EA020F56
:1003A00005D054EA000C04BF1946104630BD91EA4E
:1003B000030F1EBF0021002030BD5FEA545C05D151
:1003C0004000494128BF41F0004130BD14F5800490
:1003D0003CBF01F5801130BD01F0004545F0FE4104
:1003E00041F470014FF0000030BD7FEA645C1ABF39
:1003F000194610467FEA655C1CBF0B46024650EA70
:10040000013406BF52EA033591EA030F41F400219B
:1004100030BD00BF90F0000F04BF0021704730B521
:100420004FF4806404F132044FF000054FF00001F6
:1004300050E700BF90F0000F04BF0021704730B5B7
:100440004FF4806404F1320410F0004548BF40428C
:100450004FF000013EE700BF42004FEAE2014FEAE1
:1004600031014FEA02701FBF12F07F4393F07F4FBC
:1004700081F06051704792F0000F14BF93F07F4FEE
:10048000704730B54FF4607401F0004521F0004131
:1004900020E700BF50EA010208BF704730B54FF0B7
:1004A00000050AE050EA010208BF704730B511F0BC
:1004B000004502D5404261EB41014FF4806404F1F4
:1004C00032045FEA915C3FF4DCAE4FF003025FEA76
:1004D000DC0C18BF03325FEADC0C18BF033202EBFE
:1004E000DC02C2F1200300FA03FC20FA02F001FA58
:1004F00003FE40EA0E0021FA02F11444C1E600BFF7
:1005000070B54FF0FF0C4CF4E06C1CEA11541DBFA9
:100510001CEA135594EA0C0F95EA0C0F00F0DEF874
:100520002C4481EA030621EA4C5123EA4C5350EA59
:10053000013518BF52EA033541F4801143F48013AA
:1005400038D0A0FB02CE4FF00005E1FB02E506F03B
:100550000042E0FB03E54FF00006E1FB03569CF090
:10056000000F18BF4EF0010EA4F1FF04B6F5007F96
:1005700064F5407404D25FEA4E0E6D4146EB060608
:1005800042EAC62141EA55514FEAC52040EA5E5091
:100590004FEACE2EB4F1FD0C88BFBCF5E06F1ED83B
:1005A000BEF1004F08BF5FEA500E50F1000041EB72
:1005B000045170BD06F0004646EA010140EA02001F
:1005C00081EA0301B4EB5C04C2BFD4EB0C0541EA41
:1005D000045170BD41F480114FF0000E013C00F356
:1005E000AB8014F1360FDEBF002001F0004170BD7A
:1005F000C4F10004203C35DA0C341BDC04F1140493
:10060000C4F1200500FA05F320FA04F001FA05F21E
:1006100040EA020001F0004221F0004110EBD370EB
:1006200021FA04F642EB06015EEA430E08BF20EA17
:10063000D37070BDC4F10C04C4F1200500FA04F3BA
:1006400020FA05F001FA04F240EA020001F000414C
:1006500010EBD37041F100015EEA430E08BF20EABF
:10066000D37070BDC4F1200500FA05F24EEA020E07
:1006700020FA04F301FA05F243EA020321FA04F036
:1006800001F0004121FA04F220EA020000EBD370ED
:100690005EEA430E08BF20EAD37070BD94F0000FED
:1006A0000FD101F00046400041EB010111F4801F21
:1006B00008BF013CF7D041EA060195F0000F18BFD2
:1006C000704703F00046520043EB030313F4801F0E
:1006D00008BF013DF7D043EA0603704794EA0C0FC8
:1006E0000CEA135518BF95EA0C0F0CD050EA4106DE
:1006F00018BF52EA4306D1D181EA030101F000415B
:100700004FF0000070BD50EA410606BF1046194682
:1007100052EA430619D094EA0C0F02D150EA01368E
:1007200013D195EA0C0F05D152EA03361CBF1046CF
:1007300019460AD181EA030101F0004141F0FE416E
:1007400041F470014FF0000070BD41F0FE4141F4F2
:10075000780170BD70B54FF0FF0C4CF4E06C1CEAF2
:1007600011541DBF1CEA135594EA0C0F95EA0C0FA7
:1007700000F0A7F8A4EB050481EA030E52EA033562
:100780004FEA013100F088804FEA03334FF0805583
:1007900045EA131343EA12634FEA022245EA1115B0
:1007A00045EA10654FEA00260EF000419D4208BF61
:1007B000964244F1FD0404F5407402D25B084FEA0E
:1007C0003202B61A65EB03055B084FEA32024FF4BA
:1007D00080104FF4002CB6EB020E75EB030E22BF17
:1007E000B61A754640EA0C005B084FEA3202B6EBD7
:1007F000020E75EB030E22BFB61A754640EA5C0086
:100800005B084FEA3202B6EB020E75EB030E22BF15
:10081000B61A754640EA9C005B084FEA3202B6EB16
:10082000020E75EB030E22BFB61A754640EADC00D5
:1008300055EA060E18D04FEA051545EA16754FEA37
:1008400006164FEAC30343EA52734FEAC2025FEA55
:100850001C1CC0D111F4801F0BD141EA00014FF0E4
:1008600000004FF0004CB6E711F4801F04BF0143B5
:100870000020B4F1FD0C88BFBCF5E06F3FF6AFAED1
:10088000B5EB030C04BFB6EB020C5FEA500C50F161
:10089000000041EB045170BD0EF0004E4EEA1131E4
:1008A00014EB5C04C2BFD4EB0C0541EA045170BDEB
:1008B00041F480114FF0000E013C90E645EA060E2F
:1008C0008DE60CEA135594EA0C0F08BF95EA0C0F5D
:1008D0003FF43BAF94EA0C0F0AD150EA01347FF4A5
:1008E00034AF95EA0C0F7FF425AF104619462CE77C
:1008F00095EA0C0F06D152EA03353FF4FDAE1046DF
:10090000194622E750EA410618BF52EA43067FF42F
:10091000C5AE50EA41047FF40DAF52EA43057FF4BF
:10092000EBAE12E74FF0FF3C06E000BF4FF0010CCA
:1009300002E000BF4FF0010C4DF804CD4FEA410C2E
:100940007FEA6C5C4FEA430C18BF7FEA6C5C1BD0FB
:1009500001B050EA410C0CBF52EA430C91EA030F7C
:1009600002BF90EA020F0020704710F1000F91EAD9
:10097000030F58BF994208BF90422CBFD8176FEAA7
:10098000E37040F0010070474FEA410C7FEA6C5C75
:1009900002D150EA013C07D14FEA430C7FEA6C5C7C
:1009A000D6D152EA033CD3D05DF8040B704700BFA8
:1009B0008446104662468C461946634600E000BFF6
:1009C00001B5FFF7B7FF002848BF10F1000F01BDC8
:1009D0004DF808EDFFF7F4FF0CBF012000205DF893
:1009E00008FB00BF4DF808EDFFF7EAFF34BF012018
:1009F00000205DF808FB00BF4DF808EDFFF7E0FFB1
:100A000094BF012000205DF808FB00BF4DF808ED01
:100A1000FFF7CEFF94BF012000205DF808FB00BF68
:100A20004DF808EDFFF7C4FF34BF012000205DF84A
:100A300008FB00BF4A0011D212F5001211D20DD5E9
:100A40006FF47873B3EB62520ED44FEAC12343F0D4
:100A5000004343EA505323FA02F070474FF000007E
:100A6000704750EA013002D14FF0FF3070474FF02D
:100A70000000704773B96AB9002908BF0028BCBFDD
:100A800000204FF00041C4BF6FF000414FF0FF3035
:100A900000F08CB882B0EC462DE9005000F056F81A
:100AA000DDF804E002B00CBC704700BF4BB942B99E
:100AB000002908BF002802D04FF0FF31084600F09F
:100AC00075B882B0EC462DE9005000F057F8DDF81B
:100AD00004E002B00CBC704738B500220023044685
:100AE0000D46FFF77FFF28B920462946BDE838406C
:100AF00000F00AB8204605F1004100F005F8404238
:100B000061EB410138BD00BF70B500220D4B0446BA
:100B10000D46FFF7F5FCFFF78DFF0646FFF77AFC61
:100B20000022094BFFF7ECFC02460B462046294603
:100B3000FFF732FBFFF77EFF002242EA0004204667
:100B4000314670BD0000F03D0000F0412DE97043DA
:100B5000069E14461D468046894600F029F804FB8F
:100B600001F300FB0533A4FB00451D44B8EB04046E
:100B700069EB0505C6E90045BDE870832DE97043C2
:100B8000069E1446804689461D4600F05DF900FB2E
:100B900005F504FB0153A0FB04451D44B8EB040418
:100BA00069EB0505C6E90045BDE87083704700BFE5
:100BB00000292DE9F00FC0F29F800024002BC0F225
:100BC0009680154606460F46002B3ED18A4257D9DD
:100BD000B2FA82F34BB1C3F1200201FA03F720FA13
:100BE00002F29D40174300FA03F6290CB7FBF1F21D
:100BF000330C01FB127CA8B243EA0C4700FB02F362
:100C0000BB4209D97F1902F1FF3C80F00181BB4250
:100C100040F2FE80023A2F44FF1AB7FBF1F3B6B25E
:100C200001FB137146EA014100FB03F0884208D939
:100C3000491903F1FF3780F0ED80884240F2EA80E5
:100C4000023B43EA0242002303E08B420AD900231D
:100C50001A461046194614B1404261EB4101BDE805
:100C6000F00F7047B3FA83F8B8F1000F40F08480BA
:100C70008B4202D3824200F2DE8000230122E8E7A9
:100C800012B90123B3FBF2F5B5FA85F2002A39D186
:100C90007F1B280C1FFA85FC0123B7FBF0F1320CF7
:100CA00000FB117742EA07470CFB01F2BA4207D971
:100CB0007F1901F1FF3802D2BA4200F2C1804146E9
:100CC000BF1AB7FBF0F2B6B200FB127046EA004062
:100CD0000CFB02FC844507D9401902F1FF3702D210
:100CE000844500F2AB803A4642EA0142B1E7E44370
:100CF000524263EB430364E7404261EB41014FF032
:100D0000FF345BE79540C2F1200327FA03F1280C7A
:100D100026FA03F39740B1FBF0F81F433B0C00FBAE
:100D200018111FFA85FC43EA01410CFB08F38B42C2
:100D300006FA02F608D9491908F1FF3279D28B4236
:100D400077D9A8F102082944C91AB1FBF0F3BFB260
:100D500000FB131147EA01470CFB03F2BA4207D923
:100D60007F1903F1FF3160D2BA425ED9023B2F44B2
:100D7000BF1A43EA084390E7C8F1200203FA08FCCF
:100D800025FA02F343EA0C0C4FEA1C4921FA02F35C
:100D900001FA08F720FA02F2B3FBF9F1174309FB55
:100DA00011333A0C1FFA8CFB42EA03430BFB01FAA6
:100DB0009A4505FA08F008D913EB0C0301F1FF324C
:100DC00035D29A4533D902396344CAEB0303B3FBE6
:100DD000F9F209FB1233BFB247EA03470BFB02F9F2
:100DE000B94508D917EB0C0702F1FF331BD2B945FF
:100DF00019D9023A674442EA0145A5FB0001C9EB53
:100E000007078F424FF000030AD305D02A4620E798
:100E1000624601E73B4614E706FA08F68642F5D239
:100E20006A1E002315E71A46E5E70B46A0E71146C0
:100E3000CBE7904688E7434642460AE7023A53E743
:100E400002392F443CE700BF2DE9F00F1446054658
:100E50000E46002B43D18A4253D9B2FA82F757B1DA
:100E6000C7F1200620FA06F601FA07F302FA07F4A2
:100E70001E4300FA07F5210CB6FBF1F22B0C01FB27
:100E80001267A0B243EA074600FB02F3B34209D956
:100E9000361902F1FF3780F0F680B34240F2F3805A
:100EA000023A2644F61AB6FBF1F3ADB201FB136128
:100EB00045EA014100FB03F0884208D9091903F112
:100EC000FF3680F0E280884240F2DF80023B43EA56
:100ED0000242002310461946BDE8F00F70478B42CE
:100EE0004AD8B3FA83F6002E4DD18B4202D3824208
:100EF00000F2D6800023012210461946BDE8F00F0B
:100F0000704712B90124B4FBF2F4B4FA84F2002A57
:100F10007CD1091B260CA7B20123B1FBF6F02A0CE9
:100F200006FB101142EA014107FB00F28A4207D991
:100F3000091900F1FF3C02D28A4200F2C3806046E8
:100F4000891AB1FBF6F2ADB206FB121145EA014572
:100F500007FB02F7AF4208D92C1902F1FF3180F0EC
:100F60009680A74240F29380023A42EA004210463D
:100F70001946BDE8F00F704700231A46104619467F
:100F8000BDE8F00F7047C6F1200522FA05F4B34022
:100F90001C434FEA144821FA05F301FA06F720FA38
:100FA00005F5B3FBF8FC2F4308FB1C333D0C1FFA7F
:100FB00084FA45EA03430AFB0CF9994502FA06FB59
:100FC00004D91B190CF1FF326DD39446C9EB03030E
:100FD000B3FBF8F508FB1533BFB247EA03470AFB3A
:100FE00005F8B84504D93F1905F1FF3361D31D4613
:100FF00045EA0C4CACFB0B23C8EB07079F424FF0B4
:10100000000549D345D062462B4663E79440C2F1C0
:10101000200321FA03FC260C20FA03F301FA02F55F
:10102000BCFBF6F843EA05010B0C06FB18CCA7B293
:1010300043EA0C4C07FB08F3634500FA02F509D9B3
:101040001CEB040C08F1FF323AD2634538D9A8F101
:101050000208A444C3EB0C0CBCFBF6F389B206FBFC
:1010600013CC41EA0C4107FB03F28A4207D9091964
:1010700003F1FF3022D28A4220D9023B2144891A4F
:1010800043EA084349E73A460CE733461FE70A4676
:101090006BE7B0409042B6D20CF1FF32002319E763
:1010A0003346324616E799458FD9ACF1020C2344FA
:1010B0008CE7B8459BD9023D274499E70346DEE714
:1010C0009046C7E7023821443AE700BF80B483B0B6
:1010D00000AF78600B46FB707B68FA781A700C37AB
:1010E000BD465DF8047B704780B483B000AF786084
:1010F0007B689B7818460C37BD465DF8047B7047CB
:1011000080B584B000AFF8600B467A60FB72F86877
:101110003721002200F0E4F9FB7AF86819467A6872
:1011200000F0DEF9034618461037BD4680BD00BF0B
:1011300080B483B000AF78600B46FB707B68FA78B0
:101140009A700C37BD465DF8047B704780B485B05B
:1011500000AF78600B46FB700023FB730023BB736A
:1011600021E0BB7B7A6813441B787B7300233B73BD
:1011700013E0FB7B5B00FB737A7BFB7B534003F04C
:101180008003002B03D0FB7B83F00903FB737B7B85
:101190005B007B733B7B01333B733B7B072BE8D9C5
:1011A000BB7B0133BB73BA7BFB789A42D9D3FB7B01
:1011B0005B00DBB243F00103DBB2DBB2184614374D
:1011C000BD465DF8047B704780B485B000AF7860A1
:1011D00039600023FB810023BB602BE0FB891B12DD
:1011E000DBB21A46FB891B029BB213439BB2FB8105
:1011F0007A68BB6813441B781A46FB895340FB810D
:10120000FB89DBB21B119AB2FB8953409BB2FB8175
:10121000FB891B039AB2FB8953409BB2FB81FB897C
:10122000DBB25B019AB2FB8953409BB2FB81BB6886
:101230000133BB60BA683B689A42CFD3FB8918463A
:101240001437BD465DF8047B704700BF0000000006
:1012500080B58AB002AF78607B6800229A707B68A4
:101260009A787B681A7003F035FB02460B46C7E993
:10127000042395480021954A05F094FD94480221E5
:1012800000F040FF924800F08BFF8F4891490A22FE
:1012900005F018FE1FE003F01DFB02460B4610464A
:1012A0001946D7E90423821A61EB030384A1D1E92B
:1012B0000001994208BF90422CBF00230123DBB2FA
:1012C000002B08D078680121FFF700FF804800F06C
:1012D00067FF0023EEE078680021002200F000F9AB
:1012E0000346012B0CBF00230123DBB2002BD2D11C
:1012F00078683B21012200F0F3F80346012B0CBF74
:1013000000230123DBB2002B08D078681A21FFF7F5
:10131000DDFE6F4800F044FF0023CBE07868082131
:101320004FF4D57200F0DCF80346052B14BF002300
:101330000123DBB2002B04D078680121FFF7F8FE0F
:101340003BE00023FB770BE07B6801330122009236
:101350005D486049012205F04BFEFB7F0133FB77BE
:10136000FB7F032BF0D97B685B78AA2B04D17868CC
:101370000221FFF7DDFE20E003F0ACFA02460B4647
:1013800010461946D7E90423821A61EB03034CA1E6
:10139000D1E90001994208BF90422CBF00230123EC
:1013A000DBB2002B08D078680221FFF78FFE484897
:1013B00000F0F6FE00237DE0B0E77868FFF794FECA
:1013C0000346022B02D14FF0804300E00023FB6074
:1013D00022E003F07FFA02460B4610461946D7E991
:1013E0000423821A61EB030335A1D1E9000199427C
:1013F00008BF90422CBF00230123DBB2002B0BD08F
:10140000354802F0C1FC78680A21FFF75FFE3048DA
:1014100000F0C6FE00234DE078682921FA68FFF746
:101420006FFE0346002B0CBF00230123DBB2002B11
:10143000CFD17868FFF758FE0346022B14BF002374
:101440000123DBB2002B2CD078683A21002200F077
:1014500047F80346002B0CBF00230123DBB2002B0F
:1014600008D078680821FFF731FE194800F098FE8F
:1014700000231FE007F10B030122009212481549D7
:10148000012205F0B5FDFB7A03F0C003C02B03D1A8
:1014900078680321FFF74CFE0B480E49032205F044
:1014A00011FD0B4800F07CFE074800210B4A05F0B7
:1014B00079FC012318462037BD4680BDAFF300807C
:1014C0000094357700000000C0000020801A06005C
:1014D000C001002088CE0008E4C3000840420F008D
:1014E00080B588B002AFF8600B467A60FB72304876
:1014F00000F0FCFD034683F00103DBB2002B03D0B8
:101500002B48022100F0FEFDF86827A3D3E9002351
:1015100000F04EF9FB7A43F04003DBB23B747B688A
:101520001B0EDBB27B747B681B0CDBB2BB747B686D
:101530001B0ADBB2FB747B68DBB23B7507F110035F
:1015400018460521FFF702FE03467B7507F11003DD
:1015500018481946062205F0B5FCFB7A0C2B04D17D
:1015600014481549012205F0ADFC0023FB7512E07B
:10157000FB680133012200920E480F49012205F059
:1015800037FDFB685B78DBB25BB2002B00DB05E06C
:10159000FB7D0133FB75FB7DFF2BE9D1FB685B789D
:1015A00018461837BD4680BD0046C3230000000022
:1015B000C0010020C000002088CE0008AFF30080EA
:1015C00080B584B000AFF860B9607A6022482349E2
:1015D000BA6802F0D9FBF868FFF786FD0346032BD3
:1015E0000CBF00230123DBB2002B05D01C4802F006
:1015F000CBFBBB685B02BB60F8681121BA68FFF7E0
:101600006FFF0346002B0CBF00230123DBB2002B2E
:1016100008D0F8680421FFF759FD124800F0C0FD1A
:10162000002314E0F86879684FF4007200F01CF8A9
:10163000034683F00103DBB2002B04D0094800F01D
:10164000AFFD002303E0074800F0AAFD0123184680
:101650001037BD4680BD00BFF4C30008FCC30008BE
:1016600000C40008C001002080B58AB002AFF86055
:10167000B9607A6003F02EF902460B46C7E90623EB
:10168000FB6801330122009245484649012205F0DA
:10169000AFFC28E003F01EF902460B46104619463F
:1016A000D7E90623821A61EB03033BA1D1E90001CC
:1016B000994208BF90422CBF00230123DBB2002BCC
:1016C00008D0F8681121FFF701FD374800F068FDE8
:1016D00000235CE0FB68013301220092304831496D
:1016E000012205F085FCFB685B78FF2BD2D0FB68FC
:1016F0005B78FE2B08D0F8680F21FFF7E7FC2A483B
:1017000000F04EFD002342E07B6800932448254909
:101710007A68BB6805F06CFC78617A697B689A42EC
:101720000BD0FB68FF225A70F8681C21FFF7CEFC33
:101730001D4800F035FD002329E007F112030222C5
:10174000009217481749022205F052FC7B8A9BB28F
:101750001BB2184602F0B8FA03469BB27B82B86807
:101760007968FFF731FD03461A467B8A9A420CBF1F
:1017700000230123DBB2002B08D0F8681B21FFF700
:10178000A5FC094800F00CFD002300E001231846E9
:101790002037BD4680BD00BF00A3E111000000005E
:1017A000C000002088CE0008C0010020AFF30080F8
:1017B00080B58AB002AFF860C7E9002303F08AF869
:1017C00002460B46C7E9062307F1170301220092E0
:1017D00017481849012205F00BFC20E003F07AF8C5
:1017E00002460B4610461946D7E90623801A61EBDC
:1017F0000301D7E90023994208BF904234BF002378
:101800000123DBB2002B01D000230CE007F117030A
:101810000122009206480749012205F0E9FBFB7D01
:10182000FF2BDBD1012318462037BD4680BD00BF0A
:10183000C000002088CE000880B483B000AF78607C
:101840000C37BD465DF8047B704700BF80B582B0A1
:1018500000AF78607B68094A1A607B6804331846D9
:1018600002F058FC0023002B02D0786802F054FEEE
:101870007B6818460837BD4680BD00BF30CE0008E3
:1018800080B582B000AF78607868FFF7DFFF7868D6
:1018900002F042FE7B6818460837BD4680BD00BF97
:1018A00080B582B000AF78607B685B691B683433B9
:1018B0001B687A68526910464FF4165198477B6846
:1018C0005B691B6838331B687A68526910460321CC
:1018D000022298470837BD4680BD00BF80B582B060
:1018E00000AF78607B68084A1A607B681846FFF78B
:1018F000ADFF0023002B02D0786802F00DFE7B685C
:1019000018460837BD4680BD18CE000880B582B0A5
:1019100000AF78607868FFF7E1FF786802F0FCFDBF
:101920007B6818460837BD4680BD00BF80B582B0D1
:1019300000AF786039607B680433184606493A681E
:10194000002302F09FFB7B68044A1A607B681846FC
:101950000837BD4680BD00BF8410002030CE00088F
:1019600080B582B000AF78607B6818460549FFF704
:10197000DDFF7B68044A1A607B6818460837BD465D
:1019800080BD00BF20C4000848CE000880B582B0EA
:1019900000AF78600A4801210122002304F040F8DA
:1019A000084801210122002304F03AF806480121E9
:1019B0000122002304F034F80837BD4680BD00BF83
:1019C00058000020740000209000002080B582B0F4
:1019D00000AF78607B68084A1A607B681846FFF79A
:1019E00035FF0023002B02D0786802F095FD7B685C
:1019F00018460837BD4680BD48CE000880B582B085
:101A000000AF78607868FFF7E1FF786802F084FD46
:101A10007B6818460837BD4680BD00BF80B582B0E0
:101A200000AF786039607B68012B18D13A684FF6B7
:101A3000FF739A4213D10B48352103F0BDFF0A48CA
:101A4000362103F0B9FF0948372103F0B5FF0848F4
:101A5000FFF786FF06480749074A0AF0BDFC08372A
:101A6000BD4680BD5800002074000020900000207A
:101A7000AC000020CD190008CC11002080B500AFCB
:101A800001204FF6FF71FFF7C9FF80BD80B582B01E
:101A900000AF786039607B6818460749FFF746FF5A
:101AA0007B68064A1A607B683A685A617B68184608
:101AB0000837BD4680BD00BF2CC4000818CE000802
:101AC00080B582B000AF78607B6818460549FFF7A3
:101AD0002DFF7B68044A1A607B6818460837BD46AC
:101AE00080BD00BF2CC4000860CE000880B582B065
:101AF00000AF78600A480B49002204F0E1FE084874
:101B00000121002205F04EF90748084904F0BCFA0B
:101B100007484FF4E13105F0BDFE0837BD4680BDF2
:101B2000C000002040420F00DC000020A086010021
:101B3000F800002080B582B000AF78607B68084A6A
:101B40001A607B681846FFF781FE0023002B02D045
:101B5000786802F0E1FC7B6818460837BD4680BD16
:101B600060CE000880B582B000AF78607868FFF77B
:101B7000E1FF786802F0D0FC7B6818460837BD4664
:101B800080BD00BF80B584B002AF786039607B68EB
:101B9000012B39D13A684FF6FF739A4234D11F2393
:101BA00000931B4802211D221E2304F049FE194800
:101BB00001211622172304F021FA4FF0FF3300937E
:101BC0004FF0FF330193144804210022012305F054
:101BD00033FC1E2300933B230193104803212A2248
:101BE0002B2305F029FC0E480C49FFF74FFF0C484A
:101BF0000C490D4A0AF0F0FB0C48FFF761FF0B4857
:101C00000B49094A0AF0E8FB0837BD4680BD00BF12
:101C1000C0000020DC000020F8000020140100209B
:101C200030010020DD180008CC1100204801002000
:101C3000351B000880B500AF01204FF6FF71FFF79C
:101C4000A1FF80BD80B485B000AF786039607B684B
:101C500001221A757B68DB68FB60FB681A783B68B9
:101C60001A707B6800221A757B68D3E90823013259
:101C700043F100037968C1E908231437BD465DF8D4
:101C8000047B704780B483B000AF78600C37BD46EA
:101C90005DF8047B704700BF80B582B000AF78600C
:101CA0007B681846164964224FF4FA6309F0D2F9AA
:101CB0007B68144A1A607B68002283F850207B6896
:101CC000002283F851207B68002283F852207B6831
:101CD000002283F853207B68002283F854207B681D
:101CE00000229A657B68002283F85C207B680022D2
:101CF00083F85D207B6818460837BD4680BD00BF6D
:101D000038C4000878CE000880B586B002AF78608D
:101D100033480021012200F067F879682EA3D3E947
:101D20000023CDE9002308464FF000024FF00003E6
:101D300002F0B2FC7B689A6D7B6893F85030002B00
:101D400001D0012300E000231A447B689A657B6878
:101D50009A6D7B6893F85130002B01D0012300E08D
:101D600000231A447B689A657B689A6D7B6893F8B8
:101D70005230002B01D0012300E000231A447B687D
:101D80009A657B689A6D7B6893F85330002B01D07D
:101D9000012300E000231A447B689A657B689B6DF1
:101DA000052B12D9002343F01903FB72FB6803F0E3
:101DB0007F43FB6005233B810123BB7207F10803CE
:101DC00008481946012200F029F87B68184602F0FD
:101DD00079FCAFE7AFF300800065CD1D0000000087
:101DE000F00F0020C80D002080B584B000AF7860EF
:101DF00013460A467A807B707B88FB81796807F1FD
:101E00000E027B78084611461A46002302F03EFE79
:101E1000034618461037BD4680BD00BF80B584B06C
:101E200000AFF860B9601346FB71FA68FB791046A1
:101E3000B9681A46002302F029FE034618461037F7
:101E4000BD4680BD80B582B000AF78607B68084A2F
:101E50001A607B68184609F06BF90023002B02D04A
:101E6000786802F059FB7B6818460837BD4680BD8C
:101E700078CE000880B582B000AF78607868FFF750
:101E8000E1FF786802F048FB7B6818460837BD46DA
:101E900080BD00BF80B582B000AF786039607B68DC
:101EA000012B0CD13A684FF6FF739A4207D10548CF
:101EB000FFF7F2FE03480449044A0AF08DFA083796
:101EC000BD4680BD60010020451E0008CC110020E9
:101ED00080B500AF01204FF6FF71FFF7DBFF80BD3B
:101EE00080B483B000AF78600B46FB7097F9033085
:101EF0007A68C3F1200362FA03F318460C37BD4633
:101F00005DF8047B704700BF80B483B000AF786099
:101F10007B681B0C7A6853407B607B680C4A02FB31
:101F200003F37B607B685B0B7A6853407B607B6864
:101F3000084A02FB03F37B607B681B0C7A68534002
:101F40007B607B6818460C37BD465DF8047B7047A4
:101F50006BCAEB8535AEB2C280B58EB000AFF8600B
:101F6000B9607A60BB68002B00DA03339B10BB6258
:101F70007B683B633D4B7B623D4B3B62BB6A9B0096
:101F8000FA681344FB61BB6A5B427B6327E07B6BAF
:101F90009B00FA6913441B68BB61BB697A6A02FB48
:101FA00003F3BB61B8690F21FFF79AFFB861BB6902
:101FB0003A6A02FB03F3BB613A6BBB6953403B6374
:101FC000386B0D21FFF78CFF38633A6B13469B008B
:101FD0001A44284B13443B637B6B01337B637B6B5D
:101FE000002BD4D1BB6A9B00FA6813447B610023A9
:101FF000FB62BB6803F00303022B0BD0032B02D060
:10200000012B0ED025E07B6902331B781B04FA6A92
:102010005340FB627B6901331B781B02FA6A534011
:10202000FB627B691B78FA6A5340FB62FB6A7A6A3F
:1020300002FB03F3FB62F86A0F21FFF751FFF8621E
:10204000FB6A3A6A02FB03F3FB623A6BFB6A53409A
:102050003B63BB683A6B53403B63386BFFF754FFFD
:1020600038633B6B18463837BD4680BD512D9ECC3A
:102070009335871B646B54E680B582B000AF7860FF
:102080007B6818460649FFF751FC7B68054A1A60D1
:102090007B6800221A757B6818460837BD4680BDEC
:1020A00048C4000890D0000880B582B000AF7860C6
:1020B0000B4801210122012303F0B2FC0948012150
:1020C0000122012303F0ACFC074801210122012376
:1020D00003F0A6FC7B6800221A750837BD4680BD58
:1020E000D8010020F40100201002002080B483B049
:1020F00000AF78607B681B7D18460C37BD465DF8E5
:10210000047B704780B582B000AF78600B46FB70EF
:102110001F4808F0F3FE7B681B7D002B02D04FF0B8
:10212000FF3331E07B6801221A75FB78012B10D058
:10213000022B1BD0002B26D11648012103F076FD7F
:102140001548012103F072FD1448002103F06EFDD3
:1021500019E01248012103F069FD0F48012103F045
:1021600065FD0C48002103F061FD0CE00B480121E6
:1021700003F05CFD0748012103F058FD06480021EB
:1021800003F054FD00BF002318460837BD4680BD4C
:102190002C020020F401002010020020D8010020B1
:1021A00080B582B000AF78600C48012103F03EFD9D
:1021B0000B48012103F03AFD0A48012103F036FDE6
:1021C00009480A49012204F07DFE7B6800221A7545
:1021D000074808F0F1FE0837BD4680BDD801002051
:1021E000F401002010020020C000002088CE00086A
:1021F0002C02002080B582B000AF78607B68084A6E
:102200001A607B681846FFF721FB0023002B02D0E1
:10221000786802F081F97B6818460837BD4680BDB2
:1022200090D0000880B582B000AF78607868FFF782
:10223000E1FF786802F070F97B6818460837BD4600
:1022400080BD00BF80B582B000AF786039607B6828
:10225000012B1BD13A684FF6FF739A4216D10D48F5
:10226000FFF70AFF0B480C490C4A0AF0B5F80C4876
:10227000262103F0A1FB0B48272103F09DFB0A4810
:102280001C2103F099FB094808F020FE0837BD46E1
:1022900080BD00BFC0010020F5210008CC11002046
:1022A000D8010020F4010020100200202C020020A0
:1022B00080B500AF01204FF6FF71FFF7C3FF80BD6F
:1022C00080B483B000AF78607B6819221A707B6895
:1022D00000225A707B6800229A707B6818460C377F
:1022E000BD465DF8047B704780B483B000AF786072
:1022F0007B681B7818460C37BD465DF8047B704739
:1023000080B584B000AFF860B9607A60FB681846A9
:10231000B9687A684FF4FA6308F09CFEFB68054AD6
:102320001A60FB68002283F85020FB6818461037BB
:10233000BD4680BDA8D0000890B585B000AF7860DC
:102340002B48FF214FF4006202F09AF802F0C2FA23
:1023500025A3D3E90023121843EB010310461946C5
:10236000002208F0C7FF07F108031846FFF7A8FF8F
:1023700007F108031846FEF76BFF0346FB72FB7A72
:102380001C48194601F000FD07F10803184600211A
:10239000174AFFF715F90346FB72FC7A07F10803A9
:1023A0001846FFF7A1FF0346134821461A4601F0DD
:1023B000EBFC0023FB6010E00D4AFB6813441B7824
:1023C0001A460B49FB680B441B780C4811461A4609
:1023D00001F0DAFCFB680133FB60FB68B3F5007FBA
:1023E000EADB1437BD4690BD00CA9A3B00000000EE
:1023F000980200202CC5000840C5000860C50008F0
:1024000080B582B000AF78607B68084A1A607B684C
:10241000184608F08DFE0023002B02D0786802F0E9
:102420007BF87B6818460837BD4680BDA8D00008F9
:1024300080B582B000AF78607868FFF7E1FF786818
:1024400002F06AF87B6818460837BD4680BD00BFB9
:1024500080B582B000AF786039607B68012B0ED107
:102460003A684FF6FF739A4209D10648064964223A
:10247000FFF746FF03480549054A09F0ADFF083755
:10248000BD4680BD4002002068C500080124000848
:10249000CC11002080B500AF01204FF6FF71FFF78F
:1024A000D7FF80BD80B582B000AF78607B681846EA
:1024B000064964224FF4FA6308F0CCFD7B68044AB5
:1024C0001A607B6818460837BD4680BD7CC5000889
:1024D000C0D000080000000080B59AB002AF78605C
:1024E0000023FB6579681FA3D3E90023CDE900230E
:1024F00008464FF000024FF0000302F0CDF8FB6DEC
:10250000002B10DC07F140037868194600F074F8DE
:1025100007F14003124819461A2205F023FCFB6D0F
:102520000133FB6517E0FB6D012B09D107F10C03AB
:102530007868194600F01CF8FB6D0133FB650AE072
:10254000FB6D012B07DD07F130037868194600F0B9
:1025500097F80023FB657B68184602F0B3F8CEE7D6
:10256000F8000020AA21EF0900000000AFF300806E
:1025700090B583B000AF786039607B6850331C48F9
:10258000194600F005F93B68A8221A703B68591CEF
:102590007B68D3E92023D3B20B703B68023300225F
:1025A0001A703B68033300221A703B680433114AE7
:1025B00012881A803B689A1D7B6850331046194672
:1025C000182201F07FFF3B6803F11E047868396828
:1025D0001E2200F0CBF803462360064B1B88013314
:1025E0009AB2044B1A80222318460C37BD4690BD80
:1025F000700B0020400B002090B583B000AF7860D6
:1026000039607B6888331C48194600F0F7F83B684E
:10261000A4221A703B68591C7B68D3E92623D3B2E5
:102620000B703B68023300221A703B6803330022B0
:102630001A703B680433114A12881A803B689A1D4D
:102640007B68883310461946102201F03BFF3B6837
:1026500003F1160478683968162200F087F80346FB
:102660002360064B1B8801339AB2044B1A801A234D
:1026700018460C37BD4690BD980C0020420B002038
:1026800090B585B000AF786039607B68A033324880
:10269000194600F0DFF87B68A53330481946FFF78C
:1026A000D1FA7B68A6332E48194600F0F7F83B684C
:1026B000A2221A7002F00EF902460B461046194685
:1026C000284A4FF00003FEF7D5F902460B46C7E94A
:1026D00002233B6801333A7A1A703B6802330022C6
:1026E0001A703B68033300221A703B6804331E4A99
:1026F00012881A803B6806337A6892F8A520D1B216
:102700007A6892F8A620D201D2B20A43D2B21A70E5
:102710003B68073300221A803B6803F109027B689B
:10272000A03310461946052201F0CCFE3B6803F1A8
:102730000E04786839680E2200F018F8034623600A
:10274000094B1B8801339AB2074B1A801023184695
:102750001437BD4690BD00BF600D0020180F00204B
:10276000980F002040420F00440B002080B584B039
:1027700000AFF860B9607A60B868796841F23732C2
:10278000FFF7EAFB034618461037BD4680BD00BF81
:10279000F0B484B000AF786039607B68012283F8C0
:1027A000B8207B68D3F8B030FB603A68FB6803F16F
:1027B000300411461846D0F800C046688568C068E5
:1027C000C1F800C04E608D60C86010331032A34263
:1027D000EFD119685B68116053607B68002283F851
:1027E000B8207B68D3E93223013243F100037968D2
:1027F000C1E932231037BD46F0BC7047B0B485B094
:1028000000AF786039607B68012283F858207B68CC
:102810001B6DFB603B68FA68106851689568D46866
:10282000186059609D60DC601069516918615961D8
:102830007B68002283F858207B68D3E91A23013291
:1028400043F100037968C1E91A231437BD46B0BCCF
:10285000704700BF80B485B000AF786039607B6896
:10286000012283F820207B689B69FB603B68FA6843
:102870001168196012791A717B68002283F8202090
:102880007B68D3E90C23013243F100037968C1E985
:102890000C231437BD465DF8047B704780B485B0C7
:1028A00000AF786039607B6801221A757B68DB684D
:1028B000FB60FB681A783B681A707B6800221A7507
:1028C0007B68D3E90823013243F100037968C1E949
:1028D00008231437BD465DF8047B704780B582B08D
:1028E00000AF78607B68084A1A607B68184608F079
:1028F0001FFC0023002B02D0786801F00DFE7B68DE
:1029000018460837BD4680BDC0D0000880B582B0EB
:1029100000AF78607868FFF7E1FF786801F0FCFDB0
:102920007B6818460837BD4680BD00BF80B582B0C1
:1029300000AF786039607B68012B0CD13A684FF6A4
:10294000FF739A4207D10548FFF7ACFD03480449DD
:10295000044A09F041FD0837BD4680BD980A0020B1
:10296000DD280008CC11002080B500AF01204FF613
:10297000FF71FFF7DBFF80BD80B582B000AF7860EC
:102980007B680A4A1A600A4801F044FA7B680433FB
:10299000184601F0BFFB0023002B02D0786801F03D
:1029A000BBFD7B6818460837BD4680BD30D20008A5
:1029B0008CC5000880B582B000AF78607868FFF7FA
:1029C000DBFF786801F0A8FD7B6818460837BD4634
:1029D00080BD00BF80B582B000AF78607B680A4AD6
:1029E0001A600A4801F016FA7B680433184601F0B1
:1029F00091FB0023002B02D0786801F08DFD7B68ED
:102A000018460837BD4680BD98D200089CC500080E
:102A100080B582B000AF78607868FFF7DBFF786838
:102A200001F07AFD7B6818460837BD4680BD00BFBF
:102A300080B582B000AF78607B68064A1A600023D8
:102A4000002B02D0786801F067FD7B6818460837D4
:102A5000BD4680BD18D2000880B582B000AF786056
:102A60007868FFF7E5FF786801F056FD7B68184647
:102A70000837BD4680BD00BF80B584B000AFF860A8
:102A8000B9607A603B60044801F0C4F9002318463D
:102A90001037BD4680BD00BFB0C5000880B584B00A
:102AA00000AFF860B9607A60FB681846B9683822F0
:102AB0007B6801F07BFFFB68034A1A60FB681846DD
:102AC0001037BD4680BD00BF08D2000880B483B077
:102AD00000AF78607B68044A1A607B6818460C3740
:102AE000BD465DF8047B704718D2000880B582B0FF
:102AF00000AF78607B681846FFF7E8FF7B68144AF0
:102B00001A607B681A1D7B68C3F8AC207B6803F1F0
:102B10003C027B68C3F8B0207B6803F174027B68D9
:102B2000C3F8B4207B68002283F8B82079684FF09E
:102B300000024FF00003C1E932237B68D3E932235E
:102B40007968C1E930237B6818460837BD4680BDE7
:102B5000F0D1000880B584B000AFF860B9607A6049
:102B6000FB681846B96818227B6801F01FFFFB68F4
:102B7000034A1A60FB6818461037BD4680BD00BF87
:102B8000E0D1000880B582B000AF78607B6818465D
:102B9000FFF79CFF7B68134A1A607B681A1D7B68ED
:102BA000DA647B6803F11C027B681A657B6803F1B9
:102BB00034027B685A657B68002283F85820796864
:102BC0004FF000024FF00003C1E91A237B68D3E9FC
:102BD0001A237968C1E918237B6818460837BD466F
:102BE00080BD00BFC8D1000880B584B000AFF860D8
:102BF000B9607A60FB681846B96805227B6801F005
:102C0000D5FEFB68034A1A60FB6818461037BD46BC
:102C100080BD00BFB8D1000880B582B000AF786039
:102C20007B681846FFF752FF7B68134A1A607B687F
:102C30001A1D7B685A617B6803F109027B689A61FF
:102C40007B6803F10E027B68DA617B68002283F8FF
:102C5000202079684FF000024FF00003C1E90C23F7
:102C60007B68D3E90C237968C1E90A237B6818469D
:102C70000837BD4680BD00BFA0D1000880B584B034
:102C800000AFF860B9607A60FB681846B96807223F
:102C90007B6801F08BFEFB68034A1A60FB681846EC
:102CA0001037BD4680BD00BF90D1000880B582B00E
:102CB00000AF78607B681846FFF708FF7B68134A0F
:102CC0001A607B681A1D7B68DA617B6803F10B026E
:102CD0007B681A627B6803F112027B685A627B6828
:102CE000002283F8282079684FF000024FF000039B
:102CF000C1E90E237B68D3E90E237968C1E90C236F
:102D00007B6818460837BD4680BD00BF78D10008F3
:102D100080B584B000AFF860B9607A60FB6818468F
:102D2000B96806227B6801F041FEFB68034A1A601D
:102D3000FB6818461037BD4680BD00BF68D100084B
:102D400080B582B000AF78607B681846FFF7BEFEA2
:102D50007B68134A1A607B681A1D7B689A617B68DE
:102D600003F10A027B68DA617B6803F110027B6879
:102D70001A627B68002283F8242079684FF00002F1
:102D80004FF00003C1E90C237B68D3E90C23796879
:102D9000C1E90A237B6818460837BD4680BD00BFDD
:102DA00050D1000880B584B000AFF860B9607A6097
:102DB000FB681846B96801227B6801F0F7FDFB68E3
:102DC000034A1A60FB6818461037BD4680BD00BF35
:102DD00040D1000880B582B000AF78607B681846AB
:102DE000FFF774FE7B68114A1A607B681A1D7B68C6
:102DF0009A607B685A1D7B68DA607B689A1D7B68E5
:102E00001A617B6800221A7579684FF000024FF052
:102E10000003C1E908237B68D3E908237968C1E985
:102E200006237B6818460837BD4680BD28D10008B8
:102E300080B584B000AFF860B9607A60FB6818466E
:102E4000B96801227B6801F0B1FDFB68034A1A6092
:102E5000FB6818461037BD4680BD00BF18D100087A
:102E600080B582B000AF78607B681846FFF72EFE11
:102E70007B68114A1A607B681A1D7B689A607B68C0
:102E80005A1D7B68DA607B689A1D7B681A617B68D3
:102E900000221A7579684FF000024FF00003C1E973
:102EA00008237B68D3E908237968C1E906237B6896
:102EB00018460837BD4680BD00D1000880B584B0F3
:102EC00000AFF860B9607A60FB681846B968022202
:102ED0007B6801F06BFDFB68034A1A60FB681846CB
:102EE0001037BD4680BD00BFF0D0000880B582B06D
:102EF00000AF78607B681846FFF7E8FD7B68124AF0
:102F00001A607B681A1D7B68DA607B689A1D7B6893
:102F10001A617B6803F108027B685A617B680022B2
:102F20001A7679684FF000024FF00003C1E90A23D6
:102F30007B68D3E90A237968C1E908237B681846CE
:102F40000837BD4680BD00BFD8D0000880B582B02C
:102F500000AF78607B68084A1A607B681846FFF704
:102F600067FD0023002B02D0786801F0D5FA7B685A
:102F700018460837BD4680BDD8D0000880B582B05D
:102F800000AF78607868FFF7E1FF786801F0C4FA75
:102F90007B6818460837BD4680BD00BF80B582B04B
:102FA00000AF78607B68084A1A607B681846FFF7B4
:102FB0003FFD0023002B02D0786801F0ADFA7B685A
:102FC00018460837BD4680BD00D1000880B582B0E4
:102FD00000AF78607868FFF7E1FF786801F09CFA4D
:102FE0007B6818460837BD4680BD00BF80B582B0FB
:102FF00000AF78607B68084A1A607B681846FFF764
:1030000017FD0023002B02D0786801F085FA7B6859
:1030100018460837BD4680BD28D1000880B582B06B
:1030200000AF78607868FFF7E1FF786801F074FA24
:103030007B6818460837BD4680BD00BF80B582B0AA
:1030400000AF78607B68084A1A607B681846FFF713
:10305000EFFC0023002B02D0786801F05DFA7B685A
:1030600018460837BD4680BD50D1000880B582B0F3
:1030700000AF78607868FFF7E1FF786801F04CFAFC
:103080007B6818460837BD4680BD00BF80B582B05A
:1030900000AF78607B68084A1A607B681846FFF7C3
:1030A000C7FC0023002B02D0786801F035FA7B685A
:1030B00018460837BD4680BD78D1000880B582B07B
:1030C00000AF78607868FFF7E1FF786801F024FAD4
:1030D0007B6818460837BD4680BD00BF80B582B00A
:1030E00000AF78607B68084A1A607B681846FFF773
:1030F0009FFC0023002B02D0786801F00DFA7B685A
:1031000018460837BD4680BDA0D1000880B582B002
:1031100000AF78607868FFF7E1FF786801F0FCF9AC
:103120007B6818460837BD4680BD00BF80B582B0B9
:1031300000AF78607B68084A1A607B681846FFF722
:1031400077FC0023002B02D0786801F0E5F97B685A
:1031500018460837BD4680BDC8D1000880B582B08A
:1031600000AF78607868FFF7E1FF786801F0D4F984
:103170007B6818460837BD4680BD00BF80B582B069
:1031800000AF78607B68084A1A607B681846FFF7D2
:103190004FFC0023002B02D0786801F0BDF97B685A
:1031A00018460837BD4680BDF0D1000880B582B012
:1031B00000AF78607868FFF7E1FF786801F0ACF95C
:1031C0007B6818460837BD4680BD00BF80B584B017
:1031D00002AF786039607B68012B40F006813A6865
:1031E0004FF6FF739A4240F0008181484FF0FF3163
:1031F000804AFFF753FC7E487F49804A09F0ECF88B
:103200007F48FFF773FC7E487E497C4A09F0E4F86A
:10321000002300937C487649794A7C4B01F086F97B
:1032200079487B49754A09F0D7F87A484FF0FF3161
:10323000794AFFF78FFC77487849704A09F0CCF853
:103240007748FFF79FFC764876496C4A09F0C4F846
:103250000023009374486F49714A6C4B01F066F982
:1032600071486B49654A09F0B7F870484FF0FF3173
:103270006F4AFFF7B9FC6D486E49604A09F0ACF837
:103280006D48FFF7C9FC6C486C495C4A09F0A4F82A
:10329000002300936A486549674A5C4B01F046F990
:1032A00067485B49554A09F097F866484FF0FF3187
:1032B000654AFFF7E3FC63486449504A09F08CF81B
:1032C0006348FFF7F3FC624862494C4A09F084F80E
:1032D0000023009360485B495D4A4C4B01F026F99E
:1032E0005D484B49454A09F077F85C484FF0FF319B
:1032F0005B4AFFF70DFD59485A49404A09F06CF8FE
:103300005948FFF71DFD584858493C4A09F064F8F0
:103310000023009356485149534A3C4B01F006F9AB
:1033200053483B49354A09F057F852484FF0FF31AE
:10333000514AFFF737FD4F485049304A09F04CF8E1
:103340004F48FFF747FD4E484E492C4A09F044F8D4
:10335000002300934C484749494A2C4B01F0E6F8BA
:1033600049482B49254A09F037F848484FF0FF31C2
:10337000474AFFF75DFD45484649204A09F02CF8C9
:103380004548FFF76DFD444844491C4A09F024F8BC
:103390000023009342483D493F4A1C4B01F0C6F8C8
:1033A0003F481B49154A09F017F83E484FF0FF31D6
:1033B0003D4AFFF783FD3B483C49104A09F00CF8B1
:1033C0003B48FFF793FD3A483A490C4A09F004F8A4
:1033D0000023009338483349354A0C4B01F0A6F8D6
:1033E00035480B49054A08F0F7FF0837BD4680BD50
:1033F000480B002038C60008E1380008CC11002036
:10340000700B00207D310008400C002044C60008ED
:10341000D5290008700C002058C600085138000853
:10342000980C00202D310008080D0020380D0020D8
:103430006CC60008C1370008600D0020DD300008B0
:10344000980D0020C80D00207CC600083137000808
:10345000F00D00208D300008300E0020600E00209E
:1034600088C60008A1360008880E00203D300008FC
:10347000C00E0020F00E00209CC600081136000887
:10348000180F0020ED2F0008400F0020700F0020C3
:10349000ACC6000881350008980F00209D2F000859
:1034A000C00F0020F00F0020B8C60008F13400085B
:1034B000181000204D2F00084810002080B584B05F
:1034C00000AFF860B9607A603B607B68022B04D97A
:1034D000064800F09FFC002304E0F868396800F01B
:1034E0002DFA012318461037BD4680BDC8C6000816
:1034F00080B582B000AF78607B680A4A1A600A48DB
:1035000000F088FC7B681846FFF736FA0023002B92
:1035100002D0786801F000F87B6818460837BD468D
:1035200080BD00BFF0D00008DCC6000880B582B0C6
:1035300000AF78607868FFF7DBFF786800F0ECFF99
:103540007B6818460837BD4680BD00BF80B584B093
:1035500000AFF860B9607A603B607B68012B04D9EA
:10356000064800F057FC002304E0F868396800F0D2
:1035700017FA012318461037BD4680BDC8C600089B
:1035800080B582B000AF78607B680A4A1A600A484A
:1035900000F040FC7B681846FFF7EEF90023002B93
:1035A00002D0786800F0B8FF7B6818460837BD463F
:1035B00080BD00BF18D10008DCC6000880B582B00D
:1035C00000AF78607868FFF7DBFF786800F0A4FF51
:1035D0007B6818460837BD4680BD00BF80B584B003
:1035E00000AFF860B9607A603B607B68012B04D95A
:1035F000064800F00FFC002304E0F868396800F08A
:1036000001FA012318461037BD4680BDC8C6000820
:1036100080B582B000AF78607B680A4A1A600A48B9
:1036200000F0F8FB7B681846FFF7A6F90023002B93
:1036300002D0786800F070FF7B6818460837BD46F6
:1036400080BD00BF40D10008DCC6000880B582B054
:1036500000AF78607868FFF7DBFF786800F05CFF08
:103660007B6818460837BD4680BD00BF80B584B072
:1036700000AFF860B9607A603B607B68062B04D9C4
:10368000064800F0C7FB002304E0F868396800F042
:10369000EBF9012318461037BD4680BDC8C60008A7
:1036A00080B582B000AF78607B680A4A1A600A4829
:1036B00000F0B0FB7B681846FFF75EF90023002B93
:1036C00002D0786800F028FF7B6818460837BD46AE
:1036D00080BD00BF68D10008DCC6000880B582B09C
:1036E00000AF78607868FFF7DBFF786800F014FFC0
:1036F0007B6818460837BD4680BD00BF80B584B0E2
:1037000000AFF860B9607A603B607B68072B04D932
:10371000064800F07FFB002304E0F868396800F0F9
:10372000D7F9012318461037BD4680BDC8C600082A
:1037300080B582B000AF78607B680A4A1A600A4898
:1037400000F068FB7B681846FFF716F90023002B92
:1037500002D0786800F0E0FE7B6818460837BD4666
:1037600080BD00BF90D10008DCC6000880B582B0E3
:1037700000AF78607868FFF7DBFF786800F0CCFE78
:103780007B6818460837BD4680BD00BF80B584B051
:1037900000AFF860B9607A603B607B68052B04D9A4
:1037A000064800F037FB002304E0F868396800F0B1
:1037B000C5F9012318461037BD4680BDC8C60008AC
:1037C00080B582B000AF78607B680A4A1A600A4808
:1037D00000F020FB7B681846FFF7CEF80023002B93
:1037E00002D0786800F098FE7B6818460837BD461E
:1037F00080BD00BFB8D10008DCC6000880B582B02B
:1038000000AF78607868FFF7DBFF786800F084FE2F
:103810007B6818460837BD4680BD00BF80B584B0C0
:1038200000AFF860B9607A603B607B68182B04D900
:10383000064800F0EFFA002304E0F868396800F069
:10384000B1F9012318461037BD4680BDC8C600082F
:1038500080B582B000AF78607B680A4A1A600A4877
:1038600000F0D8FA7B681846FFF786F80023002B93
:1038700002D0786800F050FE7B6818460837BD46D5
:1038800080BD00BFE0D10008DCC6000880B582B072
:1038900000AF78607868FFF7DBFF786800F03CFEE7
:1038A0007B6818460837BD4680BD00BF80B584B030
:1038B00000AFF860B9607A603B607B68382B04D950
:1038C000064800F0A7FA002304E0F868396800F021
:1038D000A5F9012318461037BD4680BDC8C60008AB
:1038E00080B582B000AF78607B680A4A1A600A48E7
:1038F00000F090FA7B681846FFF73EF80023002B93
:1039000002D0786800F008FE7B6818460837BD468C
:1039100080BD00BF08D20008DCC6000880B582B0B8
:1039200000AF78607868FFF7DBFF786800F0F4FD9F
:103930007B6818460837BD4680BD00BF80B485B09F
:1039400000AF786039607B68DB683A6812881A805B
:103950007B681B69FB607B68DA687B681A617B683F
:10396000FA68DA607B681B7EDBB2002B09D07B68CB
:10397000DB68FB607B685A697B68DA607B68FA68A1
:103980005A617B68D3E90823013243F10003796867
:10399000C1E908231437BD465DF8047B704700BFBA
:1039A00080B485B000AF786039607B689B683A6806
:1039B00012781A707B68DB68FB607B689A687B68AA
:1039C000DA607B68FA689A607B681B7DDBB2002B4B
:1039D00009D07B689B68FB607B681A697B689A608A
:1039E0007B68FA681A617B68D3E90623013243F1E8
:1039F00000037968C1E906231437BD465DF8047BEE
:103A0000704700BF80B485B000AF786039607B68D4
:103A10009B683A6812781A707B68DB68FB607B6889
:103A20009A687B68DA607B68FA689A607B681B7DBD
:103A3000DBB2002B09D07B689B68FB607B681A694E
:103A40007B689A607B68FA681A617B68D3E9062311
:103A5000013243F100037968C1E906231437BD46FA
:103A60005DF8047B704700BF80B485B000AF78601C
:103A700039607B689B693A681168196092889A80FE
:103A80007B68DB69FB607B689A697B68DA617B68CD
:103A9000FA689A617B6893F82430DBB2002B09D076
:103AA0007B689B69FB607B681A6A7B689A617B68AC
:103AB000FA681A627B68D3E90A23013243F10003F2
:103AC0007968C1E90A231437BD465DF8047B704765
:103AD00080B485B000AF786039607B68DB693A6894
:103AE000116819609188927999809A717B681B6A34
:103AF000FB607B68DA697B681A627B68FA68DA6166
:103B00007B6893F82830DBB2002B09D07B68DB6937
:103B1000FB607B685A6A7B68DA617B68FA685A6284
:103B20007B68D3E90C23013243F100037968C1E9D2
:103B30000C231437BD465DF8047B704780B485B014
:103B400000AF786039607B685B693A68116819601A
:103B500012791A717B689B69FB607B685A697B6884
:103B60009A617B68FA685A617B6893F82030DBB20F
:103B7000002B09D07B685B69FB607B68DA697B6836
:103B80005A617B68FA68DA617B68D3E90A230132FB
:103B900043F100037968C1E90A231437BD465DF893
:103BA000047B7047B0B485B000AF786039607B6843
:103BB000DB6C3A68106851689568D4681860596081
:103BC0009D60DC6010695169186159617B681B6DEB
:103BD000FB607B68DA6C7B681A657B68FA68DA647C
:103BE0007B6893F85830DBB2002B09D07B68DB6C24
:103BF000FB607B685A6D7B68DA647B68FA685A659B
:103C00007B68D3E91823013243F100037968C1E9E5
:103C100018231437BD46B0BC704700BFF0B484B061
:103C200000AF786039607B68D3F8AC203B6803F163
:103C3000300411461846D0F800C046688568C06850
:103C4000C1F800C04E608D60C86010331032A342CE
:103C5000EFD119685B68116053607B68D3F8B030AE
:103C6000FB607B68D3F8AC207B68C3F8B0207B682E
:103C7000FA68C3F8AC207B6893F8B830DBB2002B4D
:103C80000DD07B68D3F8AC30FB607B68D3F8B420F0
:103C90007B68C3F8AC207B68FA68C3F8B4207B6803
:103CA000D3E93023013243F100037968C1E93023BD
:103CB0001037BD46F0BC704780B500AF01204FF60D
:103CC000FF71FFF783FA80BD80B485B000AF034673
:103CD000FB80FB883B8107F10803FB60FB681B78D6
:103CE000FB72FB685A78FB681A70FB680133FA7A3A
:103CF0001A703B891BB218461437BD465DF8047B29
:103D0000704700BF80B582B000AF78607B68064A1C
:103D10001A600023002B02D0786800F0FDFB7B685E
:103D200018460837BD4680BD40D2000880B582B035
:103D300000AF78607868FFF7E5FF786800F0ECFB8B
:103D40007B6818460837BD4680BD00BF80B582B08D
:103D500000AF78600B46FB7097F90330184606F009
:103D600029FE0837BD4680BD80B483B000AF7860BF
:103D70007B68044A1A607B6818460C37BD465DF8BC
:103D8000047B704740D200080FB480B582B000AF0A
:103D90001C4B1B68002B2FD03B461846FFF7E4FF57
:103DA00007F114037B60184B1B68002B05D0164BE2
:103DB0001B681648194601F0EDFA07F051F8034662
:103DC00083F00103DBB2002B05D03B46184639696E
:103DD00001F06EF80AE00E4807F090F83B461846EE
:103DE000396901F065F80A4807F0E6F806F024FEA4
:103DF0003B461846FFF786FF0837BD46BDE88040C2
:103E000004B07047040000208C100020F4C60008A5
:103E10009010002080B582B000AF7860074B7A68C0
:103E20001A6007487968FFF7AFFF064B1B685A1CFA
:103E3000044B1A600837BD4680BD00BF000000205B
:103E400008C700088C10002080B582B000AF7860F1
:103E500039607B68012B07D13A684FF6FF739A42AD
:103E600002D1034807F032F80837BD4680BD00BFD5
:103E70009010002080B500AF01204FF6FF71FFF7D2
:103E8000E3FF80BD0FB480B400AF00231846BD46E9
:103E90005DF8047B04B0704780B483B000AF7860F5
:103EA0000C37BD465DF8047B704700BF0FB480B48B
:103EB00000AF00231846BD465DF8047B04B0704790
:103EC0000FB480B400AF00231846BD465DF8047BF4
:103ED00004B0704780B483B000AF78600023184608
:103EE0000C37BD465DF8047B704700BF80B483B0DB
:103EF00000AF7860002318460C37BD465DF8047BA0
:103F0000704700BF0FB480B400AF00231846BD4611
:103F10005DF8047B04B070470FB480B400AF002399
:103F20001846BD465DF8047B04B070470FB480B4FA
:103F300000AF00231846BD465DF8047B04B070470F
:103F400080B483B000AF78607B680A4A1A607B68EF
:103F500000221A617B6800225A607B6800229A6006
:103F60007B680022DA607B6818460C37BD465DF836
:103F7000047B704758D2000880B584B000AFF86069
:103F8000C7E9002306F044F9FB681B6810331B687F
:103F9000F86898470346002B02D006F041F90EE07E
:103FA00007F080F90246FB689A60FB689968D7E9D8
:103FB0000023C1E90A2306F033F907F0FDF81037B2
:103FC000BD4680BD80B582B000AF78607B689B68DD
:103FD000002B04D07B689B68184607F06FF97B685C
:103FE00000229A607B681B69002B07D07B681B69E5
:103FF0001B681B687A681269104698470837BD46E7
:1040000080BD00BF80B582B000AF78607B685B6820
:10401000002B04D07B685B68184607F04FF97B687B
:1040200000225A607B681B69002B08D07B681B69E3
:104030001B6804331B687A68126910469847083772
:10404000BD4680BD80B582B000AF78607B68DB681C
:10405000002B04D07B68DB68184607F02FF97B68DB
:104060000022DA607B681B69002B08D07B681B6923
:104070001B6808331B687A6812691046984708372E
:10408000BD4680BD80B584B000AFF860B9607A608D
:104090003B60FB683A68DA60FB687A685A60084BF4
:1040A0001B68591C064A1160FA689360F868B96881
:1040B00000F008F8FB6818461037BD4680BD00BF09
:1040C000A010002080B582B000AF786039603B68F6
:1040D0001A687B681A603B687A681A600A4B1B682A
:1040E000002B0CBF00230123DBB2002B08D00748B4
:1040F000FFF790FE7B685B6805481946FFF744FEB2
:104100000837BD4680BD00BF4824002034C70008E2
:1041100068C7000880B582B000AF78600348FFF739
:1041200079FE7B6818460837BD4680BD8CC70008FD
:1041300080B483B000AF78607B681B6818460C378A
:10414000BD465DF8047B704780B483B000AF7860F3
:104150007B685B6818460C37BD465DF8047B70478A
:1041600080B588B000AF01233B60FB785BB2012BC8
:1041700014BF00230123DAB26E4B1A7006F0E4FB81
:104180006D4801F007F96D4B1B68002B03D06B4B9A
:104190001B68043B00E00023FB6110E0FB691B6827
:1041A0001B68F8699847FB6904331846FFF7C0FF9E
:1041B0000346002B01D0043B00E00023FB61FB69B8
:1041C000002BEBD15E4B1B68002B03D05C4B1B68B4
:1041D000043B00E00023BB6111E0BB691B680833AE
:1041E0001B68B8699847BB6904331846FFF7A0FFFE
:1041F0000346002B01D0043B00E00023BB61BB69F8
:10420000002BEAD14F4801F0C5F84F4B1B68002B3B
:1042100003D04D4B1B68043B00E000237B6121E091
:104220007B6904331846FFF783FF0346002B01D058
:10423000043B00E00023BB607B691B7F002B06D0A2
:104240007B69043318464149FFF73CFF08E07B696E
:104250001A1D7B695B69143310461946FFF732FF5C
:10426000BB687B617B69002BDAD1394B1B68002B63
:104270004DD0384801F08EF8354B1B68002B03D029
:10428000334B1B68043B00E000233B613CE03B698F
:1042900004331846FFF758FF01463B69DA693B696A
:1042A0001B6A2D4801F076F83B695B69002B03D04F
:1042B0003B695B69043B00E00023FB6015E0FB68A1
:1042C00004331846FFF740FF03462448194601F01F
:1042D00061F8FB6804331846FFF72AFF0346002BFA
:1042E00001D0043B00E00023FB60FB68002BE6D11B
:1042F0003B6904331846FFF71BFF0346002B01D030
:10430000043B00E000233B613B69002BBFD1144814
:1043100001F040F800F08AFA78607B68002B03D047
:104320001048796801F036F807F01EF82037BD46CE
:1043300080BD00BFA8100020A0C700088410002086
:1043400000250020D0C70008881000200811002098
:10435000A4100020F4C7000810C800083CC80008DA
:1043600048C800085CC800082DE9F04184B002AFDD
:1043700078603960264B7A681A60264B3A681A6072
:1043800005F006FF24482549254A01F003F807F007
:10439000BFFAFFF7E5FE05F09DFE03461E4605F059
:1043A000B9FE054605F0C0FE044605F09FFE8046B6
:1043B00005F0A6FE0346CDF800800193194831466A
:1043C0002A46234600F0E6FF07F05EFB044607F0AE
:1043D0005BFB0346144821461A4600F0DBFF1348F6
:1043E00000F0D8FF00F026F842F210704FF0000104
:1043F00006F0C0F906F066F90D4800F0CBFF06F0B4
:10440000CDFC002318460837BD46BDE8F08100BF4B
:10441000AC100020B010002078C80008A8C8000820
:10442000B4C80008CCC8000830C9000850C900084A
:1044300088C9000880B500AF014800F0ABFF80BD1F
:10444000BCC9000880B485B000AF78600023FB6071
:104450007B68002B01D100230BE005E0FB680133F2
:10446000FB607B6801337B607B681B78002BF5D198
:10447000FB6818461437BD465DF8047B704700BFE3
:1044800080B487B000AFF860B9607A60FB68002B39
:1044900001D1FB6810E0FB687B6109E0BB68DAB220
:1044A0007B691A707B6901337B617B68013B7B60B0
:1044B0007B68002BF2D1FB6818461C37BD465DF8BF
:1044C000047B704780B487B000AFF860B9607A6051
:1044D000FB687B61BB683B617B69002B02D03B6959
:1044E000002B01D1002311E00CE03B691A787B69B5
:1044F0001A707B68013B7B603B6901333B617B69E0
:1045000001337B617B68002BEFD1FB6818461C37B9
:10451000BD465DF8047B704780B483B000AF78601F
:104520000C37BD465DF8047B704700BF80B584B092
:1045300000AFF860B9607A603B60FB6804331846EE
:104540001049114A0023FFF79DFDFB680F4A1A60CE
:10455000FB68BA685A61FB682033184606F0B6FC5F
:10456000FB683A7E1A77FB6801225A77FB683A6843
:104570009A60FB687A689A61FB6818461037BD46F6
:1045800080BD00BF88100020E8C9000898D200084C
:1045900080B485B000AFF860B9607A603B60034BCF
:1045A00018461437BD465DF8047B704715CD5B0790
:1045B00090B587B002AFF860B9607A603B60FB6885
:1045C0005B7F83F00103DBB2002B01D000233DE0D1
:1045D000FB682033184606F091FCFB689B69002BB2
:1045E0000FD0FB689B691B6808331C68FB689A69DD
:1045F0007B68396A00911046B9681A463B68A04743
:1046000018E0FB681B681C683B6A5B690093F868EC
:10461000B9687A683B68A04702460E4B9A420CBFC5
:1046200000230123DBB2002B04D00B48FFF7F2FB81
:1046300001230BE0FB682033184606F0BDFCFB6845
:104640009B69002B01D0012300E00023184614379A
:10465000BD4690BD15CD5B07F4C9000890B58DB07F
:1046600002AFF860B9607A603B60FB689B69002B21
:104670000FD0FB689B691B6808331C68FB689A694C
:104680003B6807F1100100911046B9681A467B6833
:10469000A0472C37BD4690BD80B485B000AFF86010
:1046A000C7E90023F968D7E90023C1E90E23F968B7
:1046B000D7E90623C1E910231437BD465DF8047B12
:1046C000704700BFB0B586B002AF786006E04FF02B
:1046D000FF306FF00041002206F00CFE7B68D3E94A
:1046E000102352EA0301F2D07B68D3E90E2310466F
:1046F0001946002206F0FEFD00F0ECF8C7E90201C1
:104700007B68D3E90E017B68D3E91023D7E9024522
:10471000CDE9004500F0E8F802460B467968C1E9AA
:104720000E231037BD46B0BD80B584B000AF7860B1
:1047300006F0B8FDF860F86806F09AFDB860F86811
:10474000796806F0A1FDBB6818461037BD4680BDEC
:10475000B0B586B002AFC7E900010023FB60324B61
:104760001B68002B03D0304B1B68043B00E0002388
:10477000BB6051E0BB68D3E90601D7E90023904252
:1047800071EB030C3CDABB68D3E9082352EA03015E
:1047900007D1B9684FF0FF326FF00043C1E906233B
:1047A00025E0BB68D3E90601BB68D3E908231218EA
:1047B00043EB0103B968C1E90623BB68D3E90601ED
:1047C000D7E90023904271EB030C10DABB68D3E900
:1047D0000601BB68D3E90823D7E90045CDE90045C8
:1047E00000F082F802460B46B968C1E90623BB68AF
:1047F0001B6808331B68B8689847FB680133FB6087
:10480000BB6804331846FFF793FC0346002B01D026
:10481000043B00E00023BB60BB68002BAAD1FB680F
:1048200018461037BD46B0BD8010002080B582B05C
:1048300000AF00237B60144B1B68002B03D0124B8E
:104840001B68043B00E000233B6014E03B681B68EE
:104850000C331B68386898477B6801337B603B6882
:1048600004331846FFF764FC0346002B01D0043BD9
:1048700000E000233B603B68002BE7D17B681846D3
:104880000837BD4680BD00BF8010002080B483B0D3
:1048900000AF786079684FF000024FF00003C1E983
:1048A000002379684FF000024FF00003C1E90223B2
:1048B00079684FF000024FF00003C1E904237B68E0
:1048C00011229A617B6818460C37BD465DF8047B5F
:1048D000704700BF80B500AF05F0D2FF02460B461F
:1048E0001046194680BD00BF80B584B000AFC7E94F
:1048F0000201C7E90023D7E90223D7E90601904264
:1049000071EB030C02DAD7E902232CE0D7E900238C
:1049100052EA030104D14FF0FF326FF0004322E06E
:10492000D7E90601D7E90223821A61EB0303104697
:104930001946D7E90023FCF79DF802460B460132E1
:1049400043F10003396803FB01F0796802FB01F1D0
:1049500001443868A0FB022319440B46D7E9020141
:10496000121843EB0103104619461037BD4680BDAF
:1049700080B582B000AF786039607B68012B07D1C9
:104980003A684FF6FF739A4202D10348FFF77EFF61
:104990000837BD4680BD00BFB810002080B500AF0D
:1049A00001204FF6FF71FFF7E3FF80BD80B586B0B1
:1049B00000AFF860B9607A603B60FB68043318466A
:1049C0002E493A680023FFF75DFBFB682C4A1A600A
:1049D000FB6800225A61FB68BA68DA61FB687A6892
:1049E0001A62FB6800229A61FB68DB69B3F1FF3F42
:1049F00011D1386807F000F803461A46FB68DA61FF
:104A0000FB68DB69B3F57A7F05DAFB68DB6903F5E0
:104A10007A72FB68DA61194B1B68002B03D0174BC5
:104A20001B68043B00E000237B611EE07B69DA69C0
:104A3000BB689A420DD17A69FB689A4209D0114845
:104A4000FFF7E8F97B699B680F48B9683A68FFF798
:104A50009BF97B6904331846FFF76AFB0346002B7A
:104A600001D0043B00E000237B617B69002BDDD19A
:104A7000FB6818461837BD4680BD00BFA410002053
:104A800030D2000854CA000868CA000880B586B051
:104A900002AFF860B9603B601346FB71FB681B6AAC
:104AA0001A46FB7939680091F868B96800F006F891
:104AB000034618461037BD4680BD00BF90B591B083
:104AC00002AFF860B9607A60FB7000237B63BB6C57
:104AD000002B12D100237B62FFF7FCFE02460B463F
:104AE000C7E9062306F0D0FF03463B6106F0DAFB78
:104AF00003463B6207F11003BB64FB689B69002B14
:104B00000FD0FB689B691B681C68FB689969FB6890
:104B1000DA697B68B86C0090084611461A46BB6893
:104B2000A047FB685B69002B03D0FB685B69043B13
:104B300000E000233B6321E03B6B5B7F002B11D047
:104B40003B6B1B6804331C68FB68DA697B68B96CD3
:104B50000091386B11461A46BB68A04703467A6B32
:104B600013447B633B6B04331846FFF7E1FA0346BB
:104B7000002B01D0043B00E000233B633B6B002B88
:104B8000DAD1FB7883F00103DBB2002B01D07B6B21
:104B90002CE0184B5B69002B03D0164B5B69043B80
:104BA00000E00023FB621DE0FB6A1B6804331C6805
:104BB000FB68DA697B68B96C0091F86A11461A469D
:104BC000BB68A04703467A6B13447B63FB6A0433DC
:104BD0001846FFF7ADFA0346002B01D0043B00E076
:104BE0000023FB62FB6A002BDED17B6B18463C374F
:104BF000BD4690BDF410002080B582B000AF786053
:104C00007B680A4A1A600A48FFF704F97B6818466D
:104C1000FDF7B2FE0023002B02D07868FFF77CFC82
:104C20007B6818460837BD4680BD00BFD8D2000853
:104C3000E0CA000880B582B000AF78607868FFF7FE
:104C4000DBFF7868FFF768FC7B6818460837BD46CD
:104C500080BD00BF80B584B000AFF860B9607A60F5
:104C6000FB681846B9680C227B68FFF79FFEFB685B
:104C7000034A1A60FB6818461037BD4680BD00BF66
:104C8000D8D2000880B584B000AFF860B9607A600F
:104C9000FB681846B96840F22E527B68FFF786FE23
:104CA000FB68034A1A60FB6818461037BD4680BD92
:104CB000C8D2000880B584B000AFF860B9607A60EF
:104CC000FB681846B96804227B68FFF76FFEFB6833
:104CD000034A1A60FB6818461037BD4680BD00BF06
:104CE000B8D2000880B582B000AF786039607B68C8
:104CF000012B4FD13A684FF6FF739A424AD12748A9
:104D000027490A2206F08EFD24482649264A07F044
:104D100063FB26480021264AFFF79CFF23482549CC
:104D2000214A07F059FB24484FF0FF31234AFFF78F
:104D3000A9FF214822491C4A07F04EFB21484FF0A9
:104D4000FF31214AFFF7B6FF1E482049164A07F0F7
:104D500043FB1F484FF0FF311E4AFFF7ABFF1C48D3
:104D60001A49114A07F038FB1B484FF0FF311B4A24
:104D7000FFF7A0FF184815490B4A07F02DFB18480C
:104D80004FF0FF31174AFFF765FF15480949064AFA
:104D900007F022FB0837BD4680BD00BFD8100020B9
:104DA000F0CA000865B80008CC110020F4100020FB
:104DB00004CB0008F94B00081811002014CB0008A0
:104DC000454E00083C11002020CB0008E94D0008AA
:104DD0006011002030CB00088411002040CB000877
:104DE000A811002054CB000880B582B000AF7860D5
:104DF0007B680A4A1A600A48FFF70CF87B68184675
:104E0000FDF7BAFD0023002B02D07868FFF784FB82
:104E10007B6818460837BD4680BD00BFB8D2000881
:104E2000E0CA000880B582B000AF78607868FFF70C
:104E3000DBFF7868FFF770FB7B6818460837BD46D4
:104E400080BD00BF80B582B000AF78607B680A4A41
:104E50001A600A48FEF7DEFF7B681846FDF78CFDF6
:104E60000023002B02D07868FFF756FB7B681846BA
:104E70000837BD4680BD00BFC8D20008E0CA0008A0
:104E800080B582B000AF78607868FFF7DBFF7868A4
:104E9000FFF742FB7B6818460837BD4680BD00BF60
:104EA00080B500AF01204FF6FF71FFF71BFF80BDFB
:104EB00080B594B000AF7860396056E2002387F87F
:104EC0004E30002387F84D30002387F84C30002304
:104ED00087F84B3097F84F30252B0AD07B681B683A
:104EE00008331B6897F84F2052B2786811469847EC
:104EF0003BE23B685A1C3A601B7887F84F3000232E
:104F000087F84330202387F84230032387F8413065
:104F100097F84F30302B09D197F84F3087F842304F
:104F20003B685A1C3A601B7887F84F3097F84F302F
:104F30002F2B0ED997F84F30392B0AD897F84F30CE
:104F4000303B87F843303B685A1C3A601B7887F83F
:104F50004F3097F84F302E2B10D13B685A1C3A60D7
:104F60001B7887F84F3097F84F30303B87F8413047
:104F70003B685A1C3A601B7887F84F3097F84F30DF
:104F80006C2B08D1012387F84D303B685A1C3A60DE
:104F90001B7887F84F3097F84F306C2B08D10123DE
:104FA00087F84C303B685A1C3A601B7887F84F30C2
:104FB00097F84F30623B162B38D801A151F823F0F7
:104FC000B95000081D500008A35000082D500008DB
:104FD0009D5000082D5000082D5000082D5000084D
:104FE0002D5000082D5000082D5000082D500008AD
:104FF0002D500008875000082D5000082D50000843
:105000002D500008435000082D500008A9500008FA
:105010002D5000082D500008B15000087B685B68D7
:10502000191D7A6851601B6887F84F307B681B68D0
:1050300008331B6897F84F2052B27868114698479A
:1050400093E17B685B68191D7A6851601B687B641B
:1050500009E07B681B6808331B6897F84F2052B241
:105060007868114698477B6C5A1C7A641B7887F8DD
:105070004F3097F84F30002B0CBF00230123DBB2D9
:10508000002BE6D171E10823A7F848307B681B6844
:1050900008331B6878683021984711E0012387F8AE
:1050A0004B30012387F84E300A23A7F8483007E039
:1050B0001023A7F8483003E00223A7F8483000BFC8
:1050C0004FF000024FF00003C7E90C234FF000023D
:1050D0004FF00003C7E90A2397F84B30002B15D097
:1050E0007B685B68073323F0070303F108017A68E4
:1050F0005160D3E90023C7E90A23D7E90A01FBF786
:10510000EBFC02460B46C7E90C232CE097F84C3029
:10511000002B0DD07B685B68073323F0070303F196
:1051200008017A685160D3E90023C7E90C231AE02B
:1051300097F84D30002B0BD07B685B68191D7A689F
:1051400051601B681A464FEAE273C7E90C230AE074
:105150007B685B68191D7A6851601B681A464FEAC4
:10516000E273C7E90C2397F84E30002B2DD0D7E916
:105170000C23002A73F100010ADBD7E90A014FF082
:1051800000024FF00003FBF72DFC0346002B1CD060
:10519000D7E90C23524263EB4303C7E90C23BB6AF4
:1051A000BB62FB6A83F00043FB627B681B680833C9
:1051B0001B6878682D21984797F84330002B04D05E
:1051C00097F84330013B87F8433097F84C30002B79
:1051D00004D0D7E90C23C7E90E2310E097F84D302F
:1051E000002B06D03B6B1A464FF00003C7E90E2395
:1051F00005E03B6B1A464FF00003C7E90E2307F1A9
:105200000C031A337B647B6C013B7B647B6C002258
:105210001A70B7F848204FF00003D7E90E01FBF7EA
:1052200045FCD3B23033DBB287F8273097F927300B
:10523000392B05DD97F827300733DBB287F82730A5
:105240007B6C013B7B6497F827207B6C1A70B7F866
:1052500048204FF00003D7E90E01FBF727FC024678
:105260000B46C7E90E2397F84330002B04D097F87C
:105270004330013B87F84330D7E90E2352EA03015C
:10528000C7D106E07B6C013B7B647B6C97F84220C6
:105290001A7097F843305A1E87F84320002B0CBF32
:1052A00000230123DBB2002BECD109E07B681B68F3
:1052B00008331B6897F84F2052B278681146984718
:1052C0007B6C5A1C7A641B7887F84F3097F84F3004
:1052D000002B0CBF00230123DBB2002BE6D197F893
:1052E0004B30002B41D07B681B6808331B68786803
:1052F0002E2198472DE0D7E90C01FBF7D3F80246A1
:105300000B46D7E90A01FAF747FF02460B46C7E901
:105310000A23D7E90A014FF000021D4BFBF7F0F812
:1053200002460B46C7E90A23D7E90A01FBF7D4FB7B
:1053300002460B46C7E90C237B681B6808331B68D1
:1053400097F830203032D2B2D2B252B278681146D9
:10535000984797F841305A1E87F84120002B0CBF20
:1053600000230123DBB2002BC5D13B685A1C3A60F5
:105370001B7887F84F3097F84F30002B0CBF002375
:105380000123DBB2002B7FF499AD5037BD4680BDC1
:10539000000024400FB480B582B000AF0C4B1B68F6
:1053A000002B0FD03B461846FEF7DEFC07F1140336
:1053B0007B603B4618463969FFF77AFD3B46184645
:1053C000FEF7A0FC0837BD46BDE8804004B070473A
:1053D0000400002080B582B000AF0C4B7B6008E079
:1053E0007B681B6898473B6801333B607B680433EC
:1053F0007B607A68064B9A42F2D13B6801333B608E
:105400003B68013B3B600837BD4680BD98D400082F
:10541000D8D4000880B485B000AFF860B9607A6075
:10542000002318461437BD465DF8047B704700BF63
:1054300080B400AFFEE700BF002100F004B8124BBB
:105440005B58435004311148114B42189A42FFF403
:10545000F6AF104A00F003B8002342F8043B0E4BAD
:105460009A42FFF4F9AF0D4A00F003B8002342F866
:10547000043B0B4B9A42FFF4F9AF05F0E3FAFFF758
:10548000A9FFFEF771FF7047D8D400080000002084
:10549000580000205800002014C500200000001013
:1054A0000000001005F082FAFFF7FCBF80B483B063
:1054B00000AF786039603B6818460C37BD465DF830
:1054C000047B704780B483B000AF78600123184636
:1054D0000C37BD465DF8047B704700BF80B483B0D5
:1054E00000AF7860012318460C37BD465DF8047B99
:1054F000704700BF80B483B000AF0346FB71084B18
:1055000097F907205209F97901F01F01012000FAEB
:1055100001F143F822100C37BD465DF8047B70475B
:1055200000E100E080B483B000AF0346FB71094B9B
:1055300097F907205209F97901F01F01012000FABB
:1055400001F1603243F822100C37BD465DF8047B50
:10555000704700BF00E100E080B500AF124B1B7840
:1055600083F00103DBB2002B1CD00F4B01221A7019
:105570004FF48040012104F0C5F90620FFF7BAFF7F
:105580000720FFF7B7FF0820FFF7B4FF0920FFF758
:10559000B1FF0A20FFF7AEFF1720FFF7ABFF28206F
:1055A000FFF7A8FF80BD00BF1012002080B582B0B9
:1055B00000AF786079807A703B707B687A881A8057
:1055C0007B687A781A727B683A785A72786800F049
:1055D00023F8B7F90230184600F008F902467B6854
:1055E0005A617B680C33184603F0E2FE7B685B89E6
:1055F0001A467B68DA607B6802225A747B68002254
:105600001A747B6800221A767B6800225A767B68BF
:1056100018460837BD4680BD80B483B000AF7860BF
:105620007B681B7A1A467B681B889BB203F00F03CA
:105630001344102B0CDD7B681B889BB203F00F0317
:105640004FF6FF7202FA03F39AB27B685A8117E0B1
:105650007B681B7AC3F110034FF6FF7242FA03F323
:105660009AB27B685A817B685B891A467B681B8883
:105670009BB203F00F0302FA03F39AB27B685A81DC
:105680000C37BD465DF8047B704700BF80B582B023
:1056900000AF78607B6801225A767B685B681B6884
:1056A00030331B687A685268104698470A4A7B680C
:1056B0001B8819B2094B0B40002B03DA013B63F046
:1056C0000F0301339BB21BB2012101FA03F35361B3
:1056D0000837BD4680BD00BF003C01400F00008080
:1056E00080B485B000AF78600023FB6002E0FB6807
:1056F0000133FB607B685B087B607B68002B0CBF21
:1057000000230123DBB2002BF1D1FB6818461437CC
:10571000BD465DF8047B704780B483B000AF78600D
:105720007B68274A934234D0254A934213D8254AAE
:10573000934228D0234A934206D8234A93421ED04C
:10574000224A93421DD033E0214A93421DD0214A80
:1057500093421CD02CE0204A934220D01E4A934210
:1057600006D81E4A934216D01D4A934215D01FE018
:105770001C4A934216D01C4A934216D018E00123CB
:1057800017E0022315E0042313E0082311E010239F
:105790000FE020230DE040230BE0802309E04FF4CD
:1057A000807306E04FF4007303E04FF4806300E081
:1057B000002318460C37BD465DF8047B704700BFD8
:1057C00000140240000802400000024000040240B1
:1057D000000C02400010024000200240001802406D
:1057E000001C0240002402400028024080B483B024
:1057F00000AF0346FB80B7F906300F2B01DC1C4BD2
:1058000030E0B7F906301F2B01DC1A4B2AE0B7F95C
:1058100006302F2B01DC184B24E0B7F906303F2B64
:1058200001DC164B1EE0B7F906304F2B01DC144BA0
:1058300018E0B7F906305F2B01DC124B12E0B7F924
:1058400006306F2B01DC104B0CE0B7F906307F2BD4
:1058500001DC0E4B06E0B7F906308B2B01DC0C4B5C
:1058600000E0002318460C37BD465DF8047B704706
:10587000000002400004024000080240000C024008
:10588000001002400014024000180240001C0240B8
:105890000020024080B483B000AF0346FB80FB8849
:1058A00003F00F03012202FA03F39BB218460C37F0
:1058B000BD465DF8047B704780B586B000AF0246F8
:1058C0000B46FA807B71B7F90630002B03DBB7F982
:1058D00006308B2B02DD4FF0FF3338E0B7F906308E
:1058E0001846FFF783FF7861B7F906301846FFF7CF
:1058F000D1FF03467B827869FFF70EFF0346184607
:10590000012103F0C3FF7869FFF706FF034618463D
:10591000002104F015F87B8A1846FFF7E1FE0346E4
:105920009AB27B79786911461A4603F093FD07F124
:105930000803184603F03CFD02233B737B8ABB60DF
:1059400007F108037869194603F0A4FC0023184600
:105950001837BD4680BD00BF80B584B000AF034698
:10596000FB80B7F90630002B03DBB7F906308B2B31
:1059700002DD4FF0FF331AE007F10803184603F089
:1059800017FD00233B73B7F906301846FFF782FF77
:105990000346BB60B7F906301846FFF727FF0246FB
:1059A00007F108031046194603F074FC002318465B
:1059B0001037BD4680BD00BF90B583B000AF7860A2
:1059C0000B467B807B681846FEF7BAFA7B68134A61
:1059D0001A601C2006F064F802467B689A617B68B6
:1059E0009B691C201946FFF761FD0446002C09D075
:1059F000B7F902302046194601220023FFF7D6FDF1
:105A0000234600E023467A6893617B689B697A6845
:105A10005A607B6818460C37BD4690BDE8D2000836
:105A200080B584B000AFF8607A603B600B46FB72D3
:105A30007B68002B04D0FB689B697A68D2B21A722B
:105A4000FB689B69FA7A5A72FB689B691846FFF7F4
:105A5000E3FDFB689B695B69002B02D14FF0FF33CC
:105A600021E0FB689B695B691846FFF755FE03461A
:105A70001846012103F00AFFFB689B695B7A002B43
:105A800009D0F8680021012200F012F8F86839689E
:105A900000F0CCF804E0F8680021002200F008F8DB
:105AA000FFF75AFD002318461037BD4680BD00BFE2
:105AB00080B584B000AFF8600B467A60FB72FB7A69
:105AC000042B00F29B8001A252F823F0E15A000857
:105AD000215B00086B5B0008A75B0008E35B000824
