:020000040800F2
:10000000000002205D8F000821F0000829F00008A0
:100010004DF0000855F000085DF0000800000000F9
:1000200000000000000000000000000051E900088E
:10003000C98F00080000000065E90008A1EC000875
:10004000C98F0008C98F0008C98F0008C98F000830
:10005000C98F0008C98F00087D990008A199000880
:10006000C5990008E99900080D9A0008C98F000891
:10007000C9BC0008C98F0008F1BB0008C98F00087F
:1000800081BC0008A9BB0008C98F0008C98F0008FF
:10009000C98F0008C98F0008C98F0008319A00086D
:1000A000C98F0008C98F000851EE0008C98F0008E9
:1000B000C98F0008C98F0008C98F0008C98F0008C0
:1000C000C98F0008C98F0008C98F0008C98F0008B0
:1000D000C98F0008D1BA0008E9BA000801BB0008BE
:1000E0008D9A0008C98F0008C98F0008C98F0008C1
:1000F000C98F0008C98F0008C98F0008C98F000880
:10010000C98F0008C98F00085DEA0008C98F000880
:1001100019BB000831BB0008C98F0008C98F00084F
:10012000C98F0008C98F0008C98F0008C98F00084F
:10013000C98F0008C98F0008C98F0008C98F00083F
:10014000C98F0008C98F0008C98F0008C98F00082F
:1001500039BC0008C98F000861BB000849BB000812
:10016000C98F0008C98F0008C98F0008C98F00080F
:10017000C98F0008C98F0008C98F0008C98F0008FF
:0C018000C98F0008C98F000800000008AB
:1001900081F0004102E000BF83F0004330B54FEA38
:1001A00041044FEA430594EA050F08BF90EA020FA5
:1001B0001FBF54EA000C55EA020C7FEA645C7FEA38
:1001C000655C00F0E2804FEA5454D4EB5555B8BF5B
:1001D0006D420CDD2C4480EA020281EA030382EACC
:1001E000000083EA010180EA020281EA0303362D5E
:1001F00088BF30BD11F0004F4FEA01314FF4801C31
:100200004CEA113102D0404261EB410113F0004F42
:100210004FEA03334CEA133302D0524263EB4303F9
:1002200094EA050F00F0A780A4F10104D5F1200E97
:100230000DDB02FA0EFC22FA05F2801841F10001F2
:1002400003FA0EF2801843FA05F359410EE0A5F1C6
:1002500020050EF1200E012A03FA0EFC28BF4CF0F7
:10026000020C43FA05F3C01851EBE37101F00045AD
:1002700007D54FF0000EDCF1000C7EEB00006EEBBA
:100280000101B1F5801F1BD3B1F5001F0CD3490844
:100290005FEA30004FEA3C0C04F101044FEA44529B
:1002A00012F5800F80F09A80BCF1004F08BF5FEA22
:1002B000500C50F1000041EB045141EA050130BD02
:1002C0005FEA4C0C404141EB010111F4801FA4F1A5
:1002D0000104E9D191F0000F04BF01460020B1FAFA
:1002E00081F308BF2033A3F10B03B3F120020CDA32
:1002F0000C3208DD02F1140CC2F10C0201FA0CF010
:1003000021FA02F10CE002F11402D8BFC2F1200C74
:1003100001FA02F120FA0CFCDCBF41EA0C0190402A
:10032000E41AA2BF01EB0451294330BD6FEA040473
:100330001F3C1CDA0C340EDC04F11404C4F120025E
:1003400020FA04F001FA02F340EA030021FA04F370
:1003500045EA030130BDC4F10C04C4F1200220FAC7
:1003600002F001FA04F340EA0300294630BD21FA05
:1003700004F0294630BD94F0000F83F4801306BFCB
:1003800081F480110134013D4EE77FEA645C18BFBF
:100390007FEA655C29D094EA050F08BF90EA020F56
:1003A00005D054EA000C04BF1946104630BD91EA4E
:1003B000030F1EBF0021002030BD5FEA545C05D151
:1003C0004000494128BF41F0004130BD14F5800490
:1003D0003CBF01F5801130BD01F0004545F0FE4104
:1003E00041F470014FF0000030BD7FEA645C1ABF39
:1003F000194610467FEA655C1CBF0B46024650EA70
:10040000013406BF52EA033591EA030F41F400219B
:1004100030BD00BF90F0000F04BF0021704730B521
:100420004FF4806404F132044FF000054FF00001F6
:1004300050E700BF90F0000F04BF0021704730B5B7
:100440004FF4806404F1320410F0004548BF40428C
:100450004FF000013EE700BF42004FEAE2014FEAE1
:1004600031014FEA02701FBF12F07F4393F07F4FBC
:1004700081F06051704792F0000F14BF93F07F4FEE
:10048000704730B54FF4607401F0004521F0004131
:1004900020E700BF50EA010208BF704730B54FF0B7
:1004A00000050AE050EA010208BF704730B511F0BC
:1004B000004502D5404261EB41014FF4806404F1F4
:1004C00032045FEA915C3FF4DCAE4FF003025FEA76
:1004D000DC0C18BF03325FEADC0C18BF033202EBFE
:1004E000DC02C2F1200300FA03FC20FA02F001FA58
:1004F00003FE40EA0E0021FA02F11444C1E600BFF7
:1005000070B54FF0FF0C4CF4E06C1CEA11541DBFA9
:100510001CEA135594EA0C0F95EA0C0F00F0DEF874
:100520002C4481EA030621EA4C5123EA4C5350EA59
:10053000013518BF52EA033541F4801143F48013AA
:1005400038D0A0FB02CE4FF00005E1FB02E506F03B
:100550000042E0FB03E54FF00006E1FB03569CF090
:10056000000F18BF4EF0010EA4F1FF04B6F5007F96
:1005700064F5407404D25FEA4E0E6D4146EB060608
:1005800042EAC62141EA55514FEAC52040EA5E5091
:100590004FEACE2EB4F1FD0C88BFBCF5E06F1ED83B
:1005A000BEF1004F08BF5FEA500E50F1000041EB72
:1005B000045170BD06F0004646EA010140EA02001F
:1005C00081EA0301B4EB5C04C2BFD4EB0C0541EA41
:1005D000045170BD41F480114FF0000E013C00F356
:1005E000AB8014F1360FDEBF002001F0004170BD7A
:1005F000C4F10004203C35DA0C341BDC04F1140493
:10060000C4F1200500FA05F320FA04F001FA05F21E
:1006100040EA020001F0004221F0004110EBD370EB
:1006200021FA04F642EB06015EEA430E08BF20EA17
:10063000D37070BDC4F10C04C4F1200500FA04F3BA
:1006400020FA05F001FA04F240EA020001F000414C
:1006500010EBD37041F100015EEA430E08BF20EABF
:10066000D37070BDC4F1200500FA05F24EEA020E07
:1006700020FA04F301FA05F243EA020321FA04F036
:1006800001F0004121FA04F220EA020000EBD370ED
:100690005EEA430E08BF20EAD37070BD94F0000FED
:1006A0000FD101F00046400041EB010111F4801F21
:1006B00008BF013CF7D041EA060195F0000F18BFD2
:1006C000704703F00046520043EB030313F4801F0E
:1006D00008BF013DF7D043EA0603704794EA0C0FC8
:1006E0000CEA135518BF95EA0C0F0CD050EA4106DE
:1006F00018BF52EA4306D1D181EA030101F000415B
:100700004FF0000070BD50EA410606BF1046194682
:1007100052EA430619D094EA0C0F02D150EA01368E
:1007200013D195EA0C0F05D152EA03361CBF1046CF
:1007300019460AD181EA030101F0004141F0FE416E
:1007400041F470014FF0000070BD41F0FE4141F4F2
:10075000780170BD70B54FF0FF0C4CF4E06C1CEAF2
:1007600011541DBF1CEA135594EA0C0F95EA0C0FA7
:1007700000F0A7F8A4EB050481EA030E52EA033562
:100780004FEA013100F088804FEA03334FF0805583
:1007900045EA131343EA12634FEA022245EA1115B0
:1007A00045EA10654FEA00260EF000419D4208BF61
:1007B000964244F1FD0404F5407402D25B084FEA0E
:1007C0003202B61A65EB03055B084FEA32024FF4BA
:1007D00080104FF4002CB6EB020E75EB030E22BF17
:1007E000B61A754640EA0C005B084FEA3202B6EBD7
:1007F000020E75EB030E22BFB61A754640EA5C0086
:100800005B084FEA3202B6EB020E75EB030E22BF15
:10081000B61A754640EA9C005B084FEA3202B6EB16
:10082000020E75EB030E22BFB61A754640EADC00D5
:1008300055EA060E18D04FEA051545EA16754FEA37
:1008400006164FEAC30343EA52734FEAC2025FEA55
:100850001C1CC0D111F4801F0BD141EA00014FF0E4
:1008600000004FF0004CB6E711F4801F04BF0143B5
:100870000020B4F1FD0C88BFBCF5E06F3FF6AFAED1
:10088000B5EB030C04BFB6EB020C5FEA500C50F161
:10089000000041EB045170BD0EF0004E4EEA1131E4
:1008A00014EB5C04C2BFD4EB0C0541EA045170BDEB
:1008B00041F480114FF0000E013C90E645EA060E2F
:1008C0008DE60CEA135594EA0C0F08BF95EA0C0F5D
:1008D0003FF43BAF94EA0C0F0AD150EA01347FF4A5
:1008E00034AF95EA0C0F7FF425AF104619462CE77C
:1008F00095EA0C0F06D152EA03353FF4FDAE1046DF
:10090000194622E750EA410618BF52EA43067FF42F
:10091000C5AE50EA41047FF40DAF52EA43057FF4BF
:10092000EBAE12E74FF0FF3C06E000BF4FF0010CCA
:1009300002E000BF4FF0010C4DF804CD4FEA410C2E
:100940007FEA6C5C4FEA430C18BF7FEA6C5C1BD0FB
:1009500001B050EA410C0CBF52EA430C91EA030F7C
:1009600002BF90EA020F0020704710F1000F91EAD9
:10097000030F58BF994208BF90422CBFD8176FEAA7
:10098000E37040F0010070474FEA410C7FEA6C5C75
:1009900002D150EA013C07D14FEA430C7FEA6C5C7C
:1009A000D6D152EA033CD3D05DF8040B704700BFA8
:1009B0008446104662468C461946634600E000BFF6
:1009C00001B5FFF7B7FF002848BF10F1000F01BDC8
:1009D0004DF808EDFFF7F4FF0CBF012000205DF893
:1009E00008FB00BF4DF808EDFFF7EAFF34BF012018
:1009F00000205DF808FB00BF4DF808EDFFF7E0FFB1
:100A000094BF012000205DF808FB00BF4DF808ED01
:100A1000FFF7CEFF94BF012000205DF808FB00BF68
:100A20004DF808EDFFF7C4FF34BF012000205DF84A
:100A300008FB00BF4A0011D212F5001211D20DD5E9
:100A40006FF47873B3EB62520ED44FEAC12343F0D4
:100A5000004343EA505323FA02F070474FF000007E
:100A6000704750EA013002D14FF0FF3070474FF02D
:100A70000000704773B96AB9002908BF0028BCBFDD
:100A800000204FF00041C4BF6FF000414FF0FF3035
:100A900000F08CB882B0EC462DE9005000F056F81A
:100AA000DDF804E002B00CBC704700BF4BB942B99E
:100AB000002908BF002802D04FF0FF31084600F09F
:100AC00075B882B0EC462DE9005000F057F8DDF81B
:100AD00004E002B00CBC704738B500220023044685
:100AE0000D46FFF77FFF28B920462946BDE838406C
:100AF00000F00AB8204605F1004100F005F8404238
:100B000061EB410138BD00BF70B500220D4B0446BA
:100B10000D46FFF7F5FCFFF78DFF0646FFF77AFC61
:100B20000022094BFFF7ECFC02460B462046294603
:100B3000FFF732FBFFF77EFF002242EA0004204667
:100B4000314670BD0000F03D0000F0412DE97043DA
:100B5000069E14461D468046894600F029F804FB8F
:100B600001F300FB0533A4FB00451D44B8EB04046E
:100B700069EB0505C6E90045BDE870832DE97043C2
:100B8000069E1446804689461D4600F05DF900FB2E
:100B900005F504FB0153A0FB04451D44B8EB040418
:100BA00069EB0505C6E90045BDE87083704700BFE5
:100BB00000292DE9F00FC0F29F800024002BC0F225
:100BC0009680154606460F46002B3ED18A4257D9DD
:100BD000B2FA82F34BB1C3F1200201FA03F720FA13
:100BE00002F29D40174300FA03F6290CB7FBF1F21D
:100BF000330C01FB127CA8B243EA0C4700FB02F362
:100C0000BB4209D97F1902F1FF3C80F00181BB4250
:100C100040F2FE80023A2F44FF1AB7FBF1F3B6B25E
:100C200001FB137146EA014100FB03F0884208D939
:100C3000491903F1FF3780F0ED80884240F2EA80E5
:100C4000023B43EA0242002303E08B420AD900231D
:100C50001A461046194614B1404261EB4101BDE805
:100C6000F00F7047B3FA83F8B8F1000F40F08480BA
:100C70008B4202D3824200F2DE8000230122E8E7A9
:100C800012B90123B3FBF2F5B5FA85F2002A39D186
:100C90007F1B280C1FFA85FC0123B7FBF0F1320CF7
:100CA00000FB117742EA07470CFB01F2BA4207D971
:100CB0007F1901F1FF3802D2BA4200F2C1804146E9
:100CC000BF1AB7FBF0F2B6B200FB127046EA004062
:100CD0000CFB02FC844507D9401902F1FF3702D210
:100CE000844500F2AB803A4642EA0142B1E7E44370
:100CF000524263EB430364E7404261EB41014FF032
:100D0000FF345BE79540C2F1200327FA03F1280C7A
:100D100026FA03F39740B1FBF0F81F433B0C00FBAE
:100D200018111FFA85FC43EA01410CFB08F38B42C2
:100D300006FA02F608D9491908F1FF3279D28B4236
:100D400077D9A8F102082944C91AB1FBF0F3BFB260
:100D500000FB131147EA01470CFB03F2BA4207D923
:100D60007F1903F1FF3160D2BA425ED9023B2F44B2
:100D7000BF1A43EA084390E7C8F1200203FA08FCCF
:100D800025FA02F343EA0C0C4FEA1C4921FA02F35C
:100D900001FA08F720FA02F2B3FBF9F1174309FB55
:100DA00011333A0C1FFA8CFB42EA03430BFB01FAA6
:100DB0009A4505FA08F008D913EB0C0301F1FF324C
:100DC00035D29A4533D902396344CAEB0303B3FBE6
:100DD000F9F209FB1233BFB247EA03470BFB02F9F2
:100DE000B94508D917EB0C0702F1FF331BD2B945FF
:100DF00019D9023A674442EA0145A5FB0001C9EB53
:100E000007078F424FF000030AD305D02A4620E798
:100E1000624601E73B4614E706FA08F68642F5D239
:100E20006A1E002315E71A46E5E70B46A0E71146C0
:100E3000CBE7904688E7434642460AE7023A53E743
:100E400002392F443CE700BF2DE9F00F1446054658
:100E50000E46002B43D18A4253D9B2FA82F757B1DA
:100E6000C7F1200620FA06F601FA07F302FA07F4A2
:100E70001E4300FA07F5210CB6FBF1F22B0C01FB27
:100E80001267A0B243EA074600FB02F3B34209D956
:100E9000361902F1FF3780F0F680B34240F2F3805A
:100EA000023A2644F61AB6FBF1F3ADB201FB136128
:100EB00045EA014100FB03F0884208D9091903F112
:100EC000FF3680F0E280884240F2DF80023B43EA56
:100ED0000242002310461946BDE8F00F70478B42CE
:100EE0004AD8B3FA83F6002E4DD18B4202D3824208
:100EF00000F2D6800023012210461946BDE8F00F0B
:100F0000704712B90124B4FBF2F4B4FA84F2002A57
:100F10007CD1091B260CA7B20123B1FBF6F02A0CE9
:100F200006FB101142EA014107FB00F28A4207D991
:100F3000091900F1FF3C02D28A4200F2C3806046E8
:100F4000891AB1FBF6F2ADB206FB121145EA014572
:100F500007FB02F7AF4208D92C1902F1FF3180F0EC
:100F60009680A74240F29380023A42EA004210463D
:100F70001946BDE8F00F704700231A46104619467F
:100F8000BDE8F00F7047C6F1200522FA05F4B34022
:100F90001C434FEA144821FA05F301FA06F720FA38
:100FA00005F5B3FBF8FC2F4308FB1C333D0C1FFA7F
:100FB00084FA45EA03430AFB0CF9994502FA06FB59
:100FC00004D91B190CF1FF326DD39446C9EB03030E
:100FD000B3FBF8F508FB1533BFB247EA03470AFB3A
:100FE00005F8B84504D93F1905F1FF3361D31D4613
:100FF00045EA0C4CACFB0B23C8EB07079F424FF0B4
:10100000000549D345D062462B4663E79440C2F1C0
:10101000200321FA03FC260C20FA03F301FA02F55F
:10102000BCFBF6F843EA05010B0C06FB18CCA7B293
:1010300043EA0C4C07FB08F3634500FA02F509D9B3
:101040001CEB040C08F1FF323AD2634538D9A8F101
:101050000208A444C3EB0C0CBCFBF6F389B206FBFC
:1010600013CC41EA0C4107FB03F28A4207D9091964
:1010700003F1FF3022D28A4220D9023B2144891A4F
:1010800043EA084349E73A460CE733461FE70A4676
:101090006BE7B0409042B6D20CF1FF32002319E763
:1010A0003346324616E799458FD9ACF1020C2344FA
:1010B0008CE7B8459BD9023D274499E70346DEE714
:1010C0009046C7E7023821443AE700BF80B483B0B6
:1010D00000AF78600B46FB707B68FA781A700C37AB
:1010E000BD465DF8047B704780B582B000AF786084
:1010F0003960786809213A6800F092FC0346184686
:101100000837BD4680BD00BF80B483B000AF7860B3
:101110007B689B7818460C37BD465DF8047B7047AA
:1011200080B584B000AFF8600B467A60FB72F86857
:101130003721002200F0CCF9FB7AF86819467A686A
:1011400000F0C6F9034618461037BD4680BD00BF03
:1011500080B483B000AF78600B46FB707B68FA7890
:101160009A700C37BD465DF8047B704780B485B03B
:1011700000AF78600B46FB700023FB730023BB734A
:1011800021E0BB7B7A6813441B787B7300233B739D
:1011900013E0FB7B5B00FB737A7BFB7B534003F02C
:1011A0008003002B03D0FB7B83F00903FB737B7B65
:1011B0005B007B733B7B01333B733B7B072BE8D9A5
:1011C000BB7B0133BB73BA7BFB789A42D9D3FB7BE1
:1011D0005B00DBB243F00103DBB2DBB2184614372D
:1011E000BD465DF8047B704780B485B000AF786081
:1011F00039600023FB810023BB6014E0FB891A12D5
:101200007968BB680B441B785340DAB20B4B33F858
:1012100012309AB2FB891B029BB253409BB2FB81F6
:10122000BB680133BB60BA683B689A42E6D3FB896E
:1012300018461437BD465DF8047B7047E814010872
:1012400080B58AB002AF78607B6800229A707B68B4
:101250009A787B681A7007F0CFF802460B46C7E908
:10126000042395480021954A0AF014F89448032174
:1012700004F0EEFC924804F039FD8F4891490A22AF
:101280000AF098F81FE007F0B7F802460B46104640
:101290001946D7E90423821A61EB030384A1D1E93B
:1012A0000001994208BF90422CBF00230123DBB20A
:1012B000002B08D078680121FFF708FF804804F070
:1012C00015FD0023EEE078680021002200F000F90F
:1012D0000346012B0CBF00230123DBB2002BD2D12C
:1012E00078683B21012200F0F3F80346012B0CBF84
:1012F00000230123DBB2002B08D078681A21FFF706
:10130000E5FE6F4804F0F2FC0023CBE0786808218A
:101310004FF4D57200F0DCF80346052B14BF002310
:101320000123DBB2002B04D078680121FFF710FF06
:101330003BE00023FB770BE07B6801330122009246
:101340005D48604901220AF05FF9FB7F0133FB77BA
:10135000FB7F032BF0D97B685B78AA2B04D17868DC
:101360000221FFF7F5FE20E007F046F802460B46A3
:1013700010461946D7E90423821A61EB03034CA1F6
:10138000D1E90001994208BF90422CBF00230123FC
:10139000DBB2002B08D078680221FFF797FE48489F
:1013A00004F0A4FC00237DE0B0E77868FFF7ACFE12
:1013B0000346022B02D14FF0804300E00023FB6084
:1013C00022E007F019F802460B4610461946D7E905
:1013D0000423821A61EB030335A1D1E9000199428C
:1013E00008BF90422CBF00230123DBB2002B0BD09F
:1013F000354806F05BFA78680A21FFF767FE304847
:1014000004F074FC00234DE078682921FA68FFF7A6
:1014100087FE0346002B0CBF00230123DBB2002B09
:10142000CFD17868FFF770FE0346022B14BF00236C
:101430000123DBB2002B2CD078683A21002200F087
:1014400047F80346002B0CBF00230123DBB2002B1F
:1014500008D078680821FFF739FE194804F046FCE7
:1014600000231FE007F10B030122009212481549E7
:1014700001220AF0C9F8FB7A03F0C003C02B03D1A4
:1014800078680321FFF764FE0B480E49032209F038
:1014900091FF0B4804F02AFC074800210B4A09F091
:1014A000F9FE012318462037BD4680BDAFF300800A
:1014B0000094357700000000A0010020801A06008B
:1014C0006C040020B01701089C0A010840420F007C
:1014D00080B588B002AFF8600B467A60FB72324884
:1014E000032104F0A1FB034683F00103DBB2002BD0
:1014F00003D02D48032104F0ABFBF86828A3D3E9FF
:10150000002300F025FBFB7A43F04003DBB23B7481
:101510007B681B0EDBB27B747B681B0CDBB2BB747D
:101520007B681B0ADBB2FB747B68DBB23B7507F19F
:10153000100318460521FFF719FE03467B7507F1D6
:1015400010031A481946062209F034FFFB7A0C2BC7
:1015500004D116481649012209F02CFF0023FB751F
:1015600012E0FB6801330122009210481049012269
:101570000AF04AF8FB685B78DBB25BB2002B00DB59
:1015800005E0FB7D0133FB75FB7DFF2BE9D1FB689B
:101590005B7818461837BD4680BD00BFAFF30080AA
:1015A0000046C323000000006C040020A0010020BE
:1015B000B0170108AFF3008080B58AB000AF786043
:1015C00007F10C0378681946FFF78EFD034683F098
:1015D0000103DBB2002B01D0002353E03B7BC3F3BC
:1015E0008113DBB2002B32D17B7CC3F30303DBB26C
:1015F00087F82730BB7CC3F30103DBB29B029AB2AE
:10160000FB7C9B009BB213439AB23B7DC3F38113D7
:10161000DBB213439BB2BB847B7DC3F30103DBB21C
:101620005B00DAB2BB7DC3F3C013DBB2DBB21343A2
:10163000DBB287F82330BB8C01331A4697F82310AE
:1016400097F827300B44073B02FA03F31AE03B7B81
:10165000C3F38113DBB2012B0FD1FB7CC3F3050372
:10166000DBB21B041A463B7D1B021A447B7D1344EC
:10167000FB61FB6901339B0204E078680B21FFF7F3
:1016800025FD002318462837BD4680BD0000000018
:1016900080B58AB000AFF860B9607A6007F11403D2
:1016A000F8681946FFF720FD034683F00103DBB21B
:1016B000002B04D0404804F019FB002373E0BB7FEB
:1016C000C3F38013DBB2002B24D1BB7FC3F305032C
:1016D000DBB25B00DAB2FB7FC3F3C013DBB2DBB279
:1016E0001343DBB287F8273097F82720BB681340F5
:1016F000002B06D17B685A1C97F827301340002B2B
:1017000008D0F8680D21FFF7E1FC2B4804F0EEFA51
:10171000002348E0FB689B78032B05D0BB685B0285
:10172000BB607B685B027B60F8682021BA68FFF7CA
:10173000CFFE0346002B0FD1F86821217A68FFF70E
:10174000C7FE0346002B07D1F86826210022FFF7C9
:10175000BFFE0346002B01D0012300E00023002B35
:1017600008D0F8680C21FFF7B1FC134804F0BEFA6A
:10177000002318E0F8680EA3D3E9002300F0E8F98D
:10178000034683F00103DBB2002B08D0F8680E217A
:10179000FFF79CFC084804F0A9FA002303E0064880
:1017A00004F0A4FA012318462837BD4680BD00BFC7
:1017B00000E40B54020000006C040020AFF3008032
:1017C00080B584B000AFF860B9607A6022482349E0
:1017D000BA6806F06BF8F868FFF796FC0346032B2F
:1017E0000CBF00230123DBB2002B05D01C4806F000
:1017F0005DF8BB685B02BB60F8681121BA68FFF74F
:1018000067FE0346002B0CBF00230123DBB2002B35
:1018100008D0F8680421FFF759FC124804F066FA72
:10182000002314E0F86879684FF4007200F054F86F
:10183000034683F00103DBB2002B04D0094804F017
:1018400055FA002303E0074804F050FA0123184634
:101850001037BD4680BD00BFAC0A0108B40A0108BC
:10186000B80A01086C04002080B586B000AFF860AB
:10187000B9607A603B60F868B96800F00BF903461C
:1018800083F00103DBB2002B01D000231FE0002313
:10189000FB8214E0F86879684FF4007200F01CF8DD
:1018A000034683F00103DBB2002B01D000230EE0DE
:1018B000FB8A0133FB827B6803F500737B60FA8A45
:1018C0003B689A42E6D3F86800F01EF903461846D2
:1018D0001837BD4680BD00BF80B58AB002AFF86042
:1018E000B9607A6006F088FD02460B46C7E9062318
:1018F000FB6801330122009245484649012209F064
:1019000083FE28E006F078FD02460B461046194695
:10191000D7E90623821A61EB03033BA1D1E9000159
:10192000994208BF90422CBF00230123DBB2002B59
:1019300008D0F8681121FFF7C9FB374804F0D6F941
:1019400000235CE0FB6801330122009230483149FA
:10195000012209F059FEFB685B78FF2BD2D0FB68AF
:101960005B78FE2B08D0F8680F21FFF7AFFB2A4801
:1019700004F0BCF9002342E07B6800932448254929
:101980007A68BB6809F040FE78617A697B689A42A0
:101990000BD0FB68FF225A70F8681C21FFF796FBFA
:1019A0001D4804F0A3F9002329E007F112030222E5
:1019B000009217481749022209F026FE7B8A9BB243
:1019C0001BB2184605F012FF03469BB27B82B86833
:1019D0007968FFF709FC03461A467B8A9A420CBFD6
:1019E00000230123DBB2002B08D0F8681B21FFF78E
:1019F0006DFB094804F07AF9002300E00123184642
:101A00002037BD4680BD00BF00A3E11100000000EB
:101A1000A0010020B01701086C040020AFF3008083
:101A200080B586B000AFF8600B467A60FB727B68C9
:101A30007B61FB7AF86819460022FFF749FD0346EF
:101A4000002B0CBF00230123DBB2002B08D0F86869
:101A50001021FFF73BFB0E4804F048F9002313E088
:101A6000F86879691022FFF737FF034683F0010316
:101A7000DBB2002B04D0064804F038F9002303E061
:101A8000034804F033F9012318461837BD4680BDDA
:101A90006C04002080B582B000AF786039601748D0
:101AA00017493A6805F002FF7868FFF72DFB0346F7
:101AB000032B0CBF00230123DBB2002B02D03B68B9
:101AC0005B023B60786812213A68FFF701FD03462C
:101AD000002B0CBF00230123DBB2002B08D0786859
:101AE0000521FFF7F3FA074804F000F9002300E0AE
:101AF000012318460837BD4680BD00BFAC0A010867
:101B0000CC0A01086C04002080B582B000AF786078
:101B100078680C210022FFF7DBFC0346002B0CBF8A
:101B200000230123DBB2002B08D078680321FFF7E4
:101B3000CDFA064804F0DAF8002303E0034804F085
:101B4000D5F8012318460837BD4680BD6C04002037
:101B500080B58AB002AFF860C7E9002306F04CFCFC
:101B600002460B46C7E9062307F11703012200923C
:101B700017481849012209F047FD20E006F03CFC17
:101B800002460B4610461946D7E90623801A61EB38
:101B90000301D7E90023994208BF904234BF0023D4
:101BA0000123DBB2002B01D000230CE007F1170367
:101BB0000122009206480749012209F025FDFB7D1C
:101BC000FF2BDBD1012318462037BD4680BD00BF67
:101BD000A0010020B017010880B584B000AFF86004
:101BE000B9607A6020482149BA6805F05FFEF8685C
:101BF000FFF78AFA0346032B0CBF00230123DBB255
:101C0000002B02D0BB685B02BB60F8681821BA6881
:101C1000FFF75EFC0346002B0CBF00230123DBB261
:101C2000002B08D0F8680621FFF750FA104804F09E
:101C30005DF8002313E0F868FE217A6800F090F860
:101C4000034683F00103DBB2002B04D0084804F004
:101C50004DF8002303E0064804F048F80123184635
:101C60001037BD4680BD00BFAC0A0108D00A01088C
:101C70006C04002080B586B000AFF860B9607A606F
:101C80003B60F868B9683A6800F0B6F8034683F03C
:101C90000103DBB2002B04D0144804F027F8002322
:101CA00020E000237B6115E0F868796800F020F8F7
:101CB000034683F00103DBB2002B04D00B4804F091
:101CC00015F800230EE07B6901337B617B6803F527
:101CD00000737B607A693B689A42E5D3F86800F04C
:101CE000DBF8034618461837BD4680BD6C0400205B
:101CF00080B582B000AF78603960786815A3D3E909
:101D00000023FFF725FF034683F00103DBB2002B1E
:101D100008D078681721FFF7D9F90D4803F0E6FFDE
:101D2000002310E07868FC213A6800F019F80346B7
:101D300083F00103DBB2002B04D0054803F0D6FF8B
:101D4000002300E0012318460837BD4680BD00BFD0
:101D50006C0400200046C32300000000AFF30080A5
:101D600080B588B002AFF8600B467A60FB72786885
:101D70004FF40071FFF738FA03469BB21BB21846C6
:101D800005F034FD03469BB2FB8207F10B031748B5
:101D90001946012209F00EFB144879684FF40072CD
:101DA00009F008FB07F1160310481946022209F052
:101DB00001FBFB680133012200920C480C4901220F
:101DC00009F022FCFB685B7803F01F03052B08D0A9
:101DD000F8681321FFF77AF9064803F087FF00231C
:101DE00000E0012318461837BD4680BDA001002041
:101DF000B01701086C04002080B584B000AFF86013
:101E0000B9607A6021482249BA6805F04FFDF86848
:101E100017217A68FFF784F90346002B0CBF0023D3
:101E20000123DBB2002B08D0F8680921FFF74EF937
:101E3000184803F05BFF002324E0F868FFF764F91B
:101E40000346032B0CBF00230123DBB2002B02D07F
:101E5000BB685B02BB60F8681921BA68FFF738FB02
:101E60000346002B0CBF00230123DBB2002B08D05C
:101E7000F8680721FFF72AF9064803F037FF002327
:101E800000E0012318461037BD4680BDAC0A0108AA
:101E9000D40A01086C04002080B584B000AF7860DB
:101EA00078681DA3D3E90023FFF752FE034683F0B1
:101EB0000103DBB2002B08D078681221FFF706F986
:101EC000174803F013FF002321E0FD23FB7307F104
:101ED0000F0314481946012209F06CFA78680EA322
:101EE000D3E90023FFF734FE034683F00103DBB29E
:101EF000002B08D078681221FFF7E8F8084803F0B3
:101F0000F5FE002303E0064803F0F0FE0123184627
:101F10001037BD4680BD00BF0046C323000000004F
:101F20006C040020A001002080B582B000AF786072
:101F30007B681B681B6834331B687A68126810461C
:101F40004FF4165198477B681B681B6838331B6831
:101F50007A68126810460321022298470837BD4666
:101F600080BD00BF80B584B000AF78607B681B681F
:101F70001B6838331B687A681268104600214FF4DA
:101F80001652984700BF7B681B681B6848331B6864
:101F90007A681268104698470346B3F1FF3F0CBFBA
:101FA00000230123DBB2002BEDD17B681B681B688B
:101FB0004C331B687A68126810466FF00F0198471F
:101FC0007B681B6818464FF0FF326FF0004305F046
:101FD00065FD7B681B681B6848331B687A6812685C
:101FE000104698470346FB73FB7BF02B01D001237F
:101FF00000E0002318461037BD4680BD80B584B090
:1020000000AF78607B681B681B6838331B687A6890
:102010001268104600214FF4E132984700BF7B68F8
:102020001B681B6848331B687A681268104698471B
:102030000346B3F1FF3F0CBF00230123DBB2002BAB
:10204000EDD17B681B681B684C331B687A6812688B
:1020500010464FF0FF3198477B681B6818464FF0D9
:10206000FF326FF0004305F019FD7B681B681B68A9
:1020700048331B687A681268104698470346FB731A
:10208000FB7BFF2B01D1012300E000231846103712
:10209000BD4680BD80B582B000AF78600B46FB7056
:1020A0007B681B681B6838331B687A6812681046A7
:1020B00000214FF4E132984700BF7B681B681B6822
:1020C00048331B687A681268104698470346B3F194
:1020D000FF3F0CBF00230123DBB2002BEDD1FB78C7
:1020E000002B0AD17B681B681B684C331B687A681D
:1020F00012681046002198470AE07B681B681B683D
:102100004C331B687A68126810464FF0FF319847CD
:102110007B681B6818464FF0FF326FF0004305F0F4
:10212000BDFC7B681B681B6848331B687A681268B3
:10213000104698470837BD4680BD00BF80B584B0C3
:1021400000AF78600023BB730123FB7311E0786854
:10215000FFF754FF0346002B0CBF00230123DBB223
:10216000002B03D0BA7BFB7B1343BB73FB7B5B0071
:10217000FB73FB7B002BEAD1BB7B18461037BD46B7
:1021800080BD00BF80B584B000AF78600B46FB70A7
:102190000123FB730FE0FA7BFB781340DBB2002BCB
:1021A00001D0012300E0002378681946FFF772FF91
:1021B000FB7B5B00FB73FB7B002BECD11037BD4638
:1021C00080BD00BF90B587B000AFF860B9607A609D
:1021D00000237B610AE07B69BA68D418F868FFF7CE
:1021E000ADFF034623707B6901337B617A697B68AD
:1021F0009A42F0DB1C37BD4690BD00BF80B586B06B
:1022000000AFF860B9607A6000237B610AE07B6907
:10221000BA6813441B78F8681946FFF7B3FF7B6967
:1022200001337B617A697B689A42F0DB1837BD46DF
:1022300080BD00BF80B487B000AFF860B9607A603D
:10224000BB687B610023FB7422E07B695A1C7A61C6
:102250001B78BB7408237B7417E0FA7CBB7C53406B
:10226000DBB203F001033B74FB7C5B10FB743B7C33
:10227000002B04D0FB7C83F07303DB43FB74BB7C3B
:102280005B10BB747B7C013B7B747B7C002BE4D1BB
:102290007B685A1E7A60002B0CBF00230123DBB23F
:1022A000002BD2D1FB7C18461C37BD465DF8047B61
:1022B000704700BF80B483B000AF78607B6819229C
:1022C0001A707B6800225A707B6800229A707B68C3
:1022D00018460C37BD465DF8047B704780B483B068
:1022E00000AF78607B681B7818460C37BD465DF8F8
:1022F000047B704780B584B000AF0346FB71FB7967
:10230000002B13D10C48FFF7E9FFB860BB68192B0D
:1023100002D10123FB7307E0BB68002B02D004232A
:10232000FB7301E00023FB73FB7B00E002231846F4
:102330001037BD4680BD00BF6000002080B584B06E
:1023400000AF0346FB71FB79002B0DD10948FEF766
:1023500077FF0346FB73FB7B002B01D0002300E0DB
:102360000123BB73BB7B00E0022318461037BD4638
:1023700080BD00BF6000002080B586B000AFB960AE
:102380007A603B600346FB730423FB750023BB7537
:10239000FB7B002B25D13B68012B07D113487968C3
:1023A000BA68FFF70DFA0346BB750DE03B68012BD9
:1023B00008D90E487968BA683B68FFF755FA0346B2
:1023C000BB7501E004230DE0BB7D83F00103DBB2AC
:1023D000002B02D00123FB7501E00023FB75FB7D80
:1023E00000E0042318461837BD4680BD6000002079
:1023F00080B586B000AFB9607A603B600346FB737E
:102400000423FB750023BB75FB7B002B25D13B68A8
:10241000012B07D113487968BA68FFF7DDFB034643
:10242000BB750DE03B68012B08D90E487968BA6886
:102430003B68FFF71FFC0346BB7501E004230DE07A
:10244000BB7D83F00103DBB2002B02D00123FB75BF
:1024500001E00023FB75FB7D00E0042318461837DC
:10246000BD4680BD6000002080B584B000AF0B4643
:102470003A600246FA71BB712A4805F017FA042344
:10248000FB73FB79002B47D1BB79002B02D10023D2
:10249000FB733FE0BB79012B12D12348FFF78CF887
:1024A00002463B681A603B681B68002B02D0002381
:1024B000FB732FE01D4805F0F9F90123FB7329E0B8
:1024C000BB79022B06D13B684FF400721A600023DF
:1024D000FB731FE0BB79032B05D13B6801221A6017
:1024E0000023FB7316E0BB79042B13D13B681A68F9
:1024F0003B6804331B680C4811461A46FFF7C8F8BE
:102500000346BB60BB68012B02D10023FB7301E0D3
:102510000123FB73FB7B00E0042318461037BD4604
:1025200080BD00BFD80A010860000020EC0A010845
:1025300080B582B000AF786039607B68012B07D12D
:102540003A684FF6FF739A4202D10348FFF7B2FE92
:102550000837BD4680BD00BF6000002080B500AFD9
:1025600001204FF6FF71FFF7E3FF80BD80B485B017
:1025700000AF78607B6801331B78FB81FB891B020D
:102580009AB27B681B7813439BB2FB81FB89184688
:102590001437BD465DF8047B704700BF80B485B03A
:1025A00000AF78607B6803331B78FB60FB681A021E
:1025B0007B6802331B781343FB60FB681A027B685D
:1025C00001331B781343FB60FB681A027B681B789E
:1025D0001343FB60FB6818461437BD465DF8047B67
:1025E000704700BF80B483B000AF78600B467B803B
:1025F0007B685A1C7A607A88D2B21A707B881B1268
:102600007B807B685A1C7A607A88D2B21A700C3749
:10261000BD465DF8047B704780B483B000AF78603E
:1026200039607B685A1C7A603A68D2B21A703B688B
:102630001B0A3B607B685A1C7A603A68D2B21A70F7
:102640003B681B0A3B607B685A1C7A603A68D2B2CE
:102650001A703B681B0A3B607B685A1C7A603A68B8
:10266000D2B21A700C37BD465DF8047B704700BFCC
:1026700080B487B000AFF860B9607A60FB687B61B6
:10268000BB683B617B68002B12D07B695A1C7A6166
:102690003A69511C396112781A707B68013B7B6082
:1026A0007B68002B0CBF00230123DBB2002BECD195
:1026B0001C37BD465DF8047B704700BF80B487B00F
:1026C00000AFF860B9607A60FB687B617B695A1C77
:1026D0007A61BA68D2B21A707B68013B7B607B6812
:1026E000002B0CBF00230123DBB2002BEED11C37E3
:1026F000BD465DF8047B704780B489B000AFF860D8
:10270000B9607A60FB68FB61BB68BB6100237B61D9
:10271000FB695A1CFA611B781A46BB69591CB961DE
:102720001B78D31A7B617B68013B7B607B68002B45
:1027300004D07B69002B01D1012300E00023002B92
:10274000E6D17B6918462437BD465DF8047B7047A7
:1027500080B483B000AF7860396002E07B680133F9
:102760007B607B681B78002B05D07B681B785AB296
:102770003B689A42F2D17B681B785BB218460C37F3
:10278000BD465DF8047B704780B586B000AF7860C9
:102790000023FB737B68DB78002B3BD07B68DB6A14
:1027A0007B617B685A787B683033104619467A69BA
:1027B0000123FFF71DFE0346002B0CBF002301235E
:1027C000DBB2002B02D00123FB7323E07B680022E5
:1027D000DA707B681B6A7A69D21A7B689B699A42B5
:1027E00018D27B689B783B6111E07B689B697A69B2
:1027F00013447B617B685A787B68303310461946F6
:102800007A690123FFF7F4FD3B69013B3B613B69BA
:10281000012BEAD8FB7B18461837BD4680BD00BFA8
:1028200080B584B000AF786039600023FB737B68AB
:10283000DA6A3B689A4221D07868FFF7A5FF034621
:10284000FB73FB7B002B19D17B685A787B68303394
:10285000104619463A680123FFF78EFD0346002B08
:102860000CBF00230123DBB2002B04D04FF0FF3359
:102870003B600123FB737B683A68DA62FB7B184696
:102880001037BD4680BD00BF80B584B000AF786012
:102890007868FFF779FF0346FB73FB7B002B5CD165
:1028A0007B681B78032B47D17B681B79012B43D1B5
:1028B0007B683033184600214FF40072FFF7FEFEAC
:1028C0007B6803F22E2318464AF65521FFF78AFE4D
:1028D0007B68303318462349FFF79EFE7B6803F57B
:1028E000057318462049FFF797FE7B6803F50672CB
:1028F0007B681B6910461946FFF78EFE7B6803F55F
:1029000007727B68DB6810461946FFF785FE7B6817
:10291000DB695A1C7B68DA627B6859787B6803F153
:1029200030027B68DB6A084611461A460123FFF72E
:102930005FFD7B6800221A717B685B781846002176
:102940000022FFF791FD0346002B0CBF002301235B
:10295000DBB2002B01D00123FB73FB7B1846103741
:10296000BD4680BD525261417272416180B483B0F4
:1029700000AF786039603B68023B3B607B685B6915
:102980009A1E3B689A4201D8002307E07B685B8966
:102990003A6802FB03F27B689B6A134418460C37C3
:1029A000BD465DF8047B704780B586B000AF7860A7
:1029B00039607B681B683B613B68012B04D93B692C
:1029C0005A693B689A4202D801237B619AE04FF032
:1029D000FF337B613B691B78022B51D0032B6ED0F8
:1029E000012B40F08D803B68FB60FB685B08FA6858
:1029F0001344FB603B691A6AFB685B0A134438693D
:102A00001946FFF70DFF0346002B0CBF00230123DF
:102A1000DBB2002B00D075E0FB685A1CFA60C3F3F0
:102A200008033A69134493F83030BB603B691A6A73
:102A3000FB685B0A134438691946FFF7F1FE034649
:102A4000002B0CBF00230123DBB2002B00D059E088
:102A5000FB68C3F308033A69134493F830301B0250
:102A6000BA681343BB603B6803F00103002B02D03C
:102A7000BB681B0902E0BB68C3F30B037B6141E049
:102A80003B691A6A3B681B0A134438691946FFF709
:102A9000C7FE0346002B0CBF00230123DBB2002B33
:102AA00000D02FE03B685B0003F4FF7330333A69DA
:102AB00013441846FFF75AFD03467B6122E03B6949
:102AC0001A6A3B68DB09134438691946FFF7A8FE08
:102AD0000346002B0CBF00230123DBB2002B00D0E8
:102AE00010E03B689B0003F4FE7330333A691344F3
:102AF0001846FFF753FD034623F070437B6101E066
:102B000001237B617B6918461837BD4680BD00BF35
:102B100090B589B000AFF860B9607A600223FB77A6
:102B2000BB68012B40F2CD80FB685A69BB689A42B2
:102B300040F2C780FB681B78022B72D0032B00F099
:102B40009080012B00D0BCE0BB68BB61BB695B0817
:102B5000BA691344BB61FB681A6ABB695B0A134418
:102B6000F8681946FFF75CFE0346FB77FB7F002BF6
:102B700000D0A6E0BB695A1CBA61C3F30803303326
:102B8000FA6813447B61BB6803F00103002B0DD08E
:102B90007B691B78DBB203F00F03DAB27B68DBB230
:102BA0001B01DBB21343DBB2DBB201E07B68DBB2BB
:102BB0007A691370FB680122DA70FB681A6ABB69D4
:102BC0005B0A1344F8681946FFF72AFE0346FB77B1
:102BD000FB7F002B00D074E0BB69C3F308033033E4
:102BE000FA6813447B61BB6803F00103002B03D038
:102BF0007B681B09DBB20EE07B691B78DBB223F03C
:102C00000F03DAB27B681B0ADBB203F00F03DBB2FF
:102C10001343DBB2DBB27A691370FB680122DA700E
:102C20004FE0FB681A6ABB681B0A1344F868194630
:102C3000FFF7F6FD0346FB77FB7F002B00D040E05B
:102C4000BB685B0003F4FF733033FA681A447B6897
:102C50009BB210461946FFF7C5FCFB680122DA70EB
:102C60002FE0FB681A6ABB68DB091344F868194651
:102C7000FFF7D6FD0346FB77FB7F002B00D020E05B
:102C80007B6823F07044BB689B0003F4FE73303311
:102C9000FA6813441846FFF781FC034603F07043BB
:102CA00023437B60BB689B0003F4FE733033FA68F8
:102CB000134418467968FFF7AFFCFB680122DA700D
:102CC00000BFFB7F18462437BD4690BD80B588B055
:102CD00000AFF860B9607A600023FB77FB681B687F
:102CE000BB61BB68012B04D9BB695A69BB689A42B6
:102CF00001D8022348E07B68002B0CD0B8697968C2
:102D00004FF0FF32FFF704FF0346FB77FB7F002BFA
:102D100001D0FB7F38E0F868B968FFF745FE7861BD
:102D20007B69002B00D12EE07B69012B01D10223AE
:102D30002AE07B69B3F1FF3F01D1012324E0B869A8
:102D4000B9680022FFF7E4FE0346FB77FB7F002B08
:102D500001D0FB7F18E0BB691B69B3F1FF3F0BD0CB
:102D6000BB691B695A1CBB691A61BB691B7943F0BB
:102D70000103DAB2BB691A717B69BB60BB695A692E
:102D8000BB689A42C7D8002318462037BD4680BD8D
:102D900080B588B000AF786039607B681B683B61A4
:102DA0003B68002B0DD13B69DB68BB61BB69002B25
:102DB00004D03B695A69BB699A421BD80123BB61A5
:102DC00018E078683968FFF7EFFDF860FB68012BC1
:102DD00001D8012372E0FB68B3F1FF3F01D1FB682A
:102DE0006CE03B695A69FB689A4201D9FB6865E06F
:102DF0003B68BB61BB69FB61FB690133FB613B69FC
:102E00005A69FB699A4207D80223FB61FA69BB69D8
:102E10009A4201D9002351E07868F969FFF7C4FDAF
:102E2000F860FB68002B0CD100BF3869F9694FF0DE
:102E3000FF32FFF76DFE0346FB75FB7D002B1AD1B9
:102E40000FE0FB68012B03D0FB68B3F1FF3F01D11A
:102E5000FB6833E0FA69BB699A4201D100232DE097
:102E6000CAE73B68002B06D038693968FA69FFF772
:102E70004FFE0346FB75FB7D002B16D13B69FA69BB
:102E8000DA603B691A693B695B69023B9A4204D28A
:102E90003B691B695A1E3B691A613B691B7943F008
:102EA0000103DAB23B691A7107E0FB7D012B02D105
:102EB0004FF0FF3300E00123FB61FB691846203728
:102EC000BD4680BD80B586B000AF786039607B6854
:102ED0001B683B613B68B3F5001F04D23B6803F0FD
:102EE0001F03002B01D0022362E07B683A681A615D
:102EF0007B689B687B617B69002B06D13B691B78F3
:102F0000022B02D93B695B6A7B617B69002B0CD188
:102F10003B685A093B691B899A4201D3022347E067
:102F20003B695A6A7B689A6129E03B695B895B026D
:102F3000FB6019E07B6818467969FFF735FD786119
:102F40007B69B3F1FF3F01D1012331E07B69012BA4
:102F500004D93B695A697B699A4201D8022327E068
:102F60003A68FB68D31A3B603A68FB689A42E1D240
:102F700038697969FFF7FAFC02467B689A617B68D9
:102F80007A695A617B689B69002B01D102230FE0AB
:102F90007B689A693B685B0A1A447B689A613B6864
:102FA000C3F3080330333A691A447B68DA610023BB
:102FB00018461837BD4680BD80B586B000AF786032
:102FC00039607B681B68FB607B681B692033BB60D2
:102FD0007B689B69002B03D0BB68B3F5001F01D34E
:102FE0000423B4E0BB68C3F30803002B40F0A380C4
:102FF0007B689B695A1C7B689A617B685B69002BC4
:103000000BD1BB685A09FB681B899A42C0F09380B8
:103010007B6800229A61042399E0BB685A0AFB6826
:103020005B89013B1340002B40F085807A687B6808
:103030005B6910461946FFF7B7FC78617B69012B85
:1030400001D8022383E07B69B3F1FF3F01D1012363
:103050007DE0FB685A697B699A4262D83B68002B25
:1030600004D17B6800229A61042370E07A687B684F
:103070005B6910461946FFF78BFE78617B69002B70
:1030800001D1072363E07B69012B01D102235EE0BC
:103090007B69B3F1FF3F01D1012358E0F868FFF7E6
:1030A00073FB0346002B0CBF00230123DBB2002B74
:1030B00001D001234BE0FB683033184600214FF468
:1030C0000072FFF7FBFA00233B61F8687969FFF7AC
:1030D0004DFC0246FB68DA6217E0FB680122DA70F9
:1030E000F868FFF751FB0346002B0CBF00230123B8
:1030F000DBB2002B01D0012329E03B6901333B61A6
:10310000FB68DB6A5A1CFB68DA62FB685B891A465B
:103110003B699A42E1D8FB68DA6A3B69D21AFB68DC
:10312000DA627B687A695A61F8687969FFF71EFC90
:1031300002467B689A617B68BA681A61BB68C3F310
:1031400008033033FA681A447B68DA6100231846B2
:103150001837BD4680BD00BF80B586B000AF78602F
:1031600039607B681B68FB6078680021FFF7AAFE66
:103170000346FB75FB7D002B31D100233B617B684F
:103180009B69F8681946FFF74BFB0346FB75FB7D0F
:10319000002B00D023E07B68DB691B78E52B04D093
:1031A0007B68DB691B78002B0DD13B6901333B61E8
:1031B0003A693B689A4214BF00230123DBB2002B1B
:1031C00000D00CE001E000233B6178680121FFF7AB
:1031D000F3FE0346FB75FB7D002BD0D0FFE7FB7DA4
:1031E000042B01D10723FB75FB7D18461837BD461C
:1031F00080BD00BF80B584B000AF786039603B68A7
:103200001A331846FFF7B2F90346FB607B681B7858
:10321000032B09D13B6814331846FFF7A7F903467F
:103220001B04FA681343FB60FB6818461037BD4661
:1032300080BD00BF80B584B000AFF860B9607A602F
:10324000BB6803F11A027B689BB210461946FFF770
:10325000C9F9FB681B78032B09D1BB6803F1140281
:103260007B681B0C9BB210461946FFF7BBF9103761
:10327000BD4680BD80B586B000AF78607B681B68B6
:103280003B6178680021FFF71DFE0346FB75FB7D5F
:10329000002B01D0FB7D42E07B689B6938691946B1
:1032A000FFF7BEFA0346FB75FB7D002B00D035E02F
:1032B0007B68DB691B78FB73FB7B002B02D104234B
:1032C000FB752BE07B68DB690B331B7803F03F0356
:1032D000DAB27B689A717B68DB690B331B7803F089
:1032E0000803002B0DD17B68DA697B682033104618
:1032F00019460B22FFF700FA0346002B01D10123E8
:1033000000E00023002B00D008E078680021FFF7E0
:1033100053FE0346FB75FB7D002BBDD0FB7D18469D
:103320001837BD4680BD00BF80B584B000AF78605F
:103330007B681B68BB6078680121FFF70DFF0346BF
:10334000FB73FB7B002B1DD17B689B69B86819461A
:10335000FFF766FA0346FB73FB7B002B12D17B68F9
:10336000DB69184600212022FFF7A8F97B68DA699B
:103370007B682033104619460B22FFF779F9BB68AA
:103380000122DA70FB7B18461037BD4680BD00BFB6
:1033900080B588B000AF786039603B681B68FB601F
:1033A0007B682033BB60B86820210B22FFF786F9C9
:1033B00000233B613B697B610823BB617B695A1C2D
:1033C0007A61FA6813441B78FB77FB7F202B00D8C7
:1033D00053E0FB7F2F2B02D0FB7F5C2B12D102E04E
:1033E0007B6901337B61FA687B6913441B785BB2AC
:1033F0002F2BF5D0FA687B6913441B785BB25C2BEA
:10340000EED03AE0FB7F2E2B03D03A69BB699A429B
:103410000DD3BB690B2B02D0FB7F2E2B01D00623D3
:1034200047E008233B610B23BB6100BFC6E7FB7F7E
:103430005BB2002B01DA06233BE0FB7F1F481946F5
:10344000FFF786F90346002B0CBF00230123DBB2F4
:10345000002B01D006232CE0FB7F602B05D9FB7FDE
:103460007A2B02D8FB7F203BFB773B695A1C3A61E1
:10347000BA681344FA7F1A70A0E7FA687B691A44A5
:103480003B681A603B69002B01D1062311E0BB6841
:103490001B78E52B02D1BB6805221A70BB6803F1CB
:1034A0000B02FB7F202B01D8042300E000231370C4
:1034B000002318462037BD4680BD00BF000B010821
:1034C00080B586B000AF786039607B683B613B694E
:1034D0001B68FB6002E03B6801333B603B681B7884
:1034E0005BB22F2BF7D03B681B785BB25C2BF2D022
:1034F0003B6900229A603B681B78DBB21F2B0AD81D
:103500007B68802283F82B2078680021FFF7DAFCA3
:103510000346FB753FE03B4678681946FFF738FFE6
:103520000346FB75FB7D002B00D034E07868FFF785
:10353000A1FE0346FB757B6893F82B30FB72FB7D85
:10354000002B0AD0FB7D042B06D1FB7A03F0040389
:10355000002B01D10523FB751DE0FB7A03F004036A
:10356000002B00D017E03B699B7903F01003002B80
:1035700002D10523FB750EE07B681B69C3F30803CA
:103580003033FA681344F8681946FFF733FE0246F1
:103590003B699A60BFE7FB7D18461837BD4680BD82
:1035A00080B487B000AF78604FF0FF333B617B6839
:1035B0001B68002B35D07B681B687B6102E07B6950
:1035C00001337B617B691B78DBB2202B04D97B69DB
:1035D0001B785BB23A2BF2D17B691B785BB23A2B3A
:1035E0001DD17B681B68FB60FB685A1CFA601B7866
:1035F0005BB2303BBB60BB68092B0ED8FA687B69B5
:103600009A420AD1BB68002B07D1BB683B617B693A
:1036100001337B617B687A691A603B6902E00023B1
:103620003B613B6918461C37BD465DF8047B70471B
:1036300080B582B000AF786039607B680022DA70B4
:103640007B684FF0FF32DA6278683968FFF7E8F894
:103650000346002B0CBF00230123DBB2002B01D05B
:10366000042344E07B6803F22E231846FEF77EFF16
:1036700003461A464AF655239A420CBF00230123FB
:10368000DBB2002B01D0032331E07B6893F83030AC
:10369000E92B09D07B6893F83030EB2B26D17B687F
:1036A00093F83230902B21D17B6866331846FEF7B1
:1036B00075FF034623F07F420F4B9A4214BF00234D
:1036C0000123DBB2002B01D0002310E07B688233A2
:1036D0001846FEF763FF0246084B9A4214BF0023C8
:1036E0000123DBB2002B01D0002300E002231846A7
:1036F0000837BD4680BD00BF4641540046415433A3
:1037000080B596B000AFF860B9601346FB71BB6836
:1037100000221A60F868FFF743FFF863FB6B002B89
:1037200001DA0B2334E2A24BFA6B53F82230BB636D
:10373000BB6B002B01D10C232AE2BB68BA6B1A6069
:10374000FB7923F00103FB71BB6B1B78002B1AD0B4
:10375000BB6B5B781846FEF7CDFD034687F8373024
:1037600097F8373003F00103002B0CD1FB79002BC5
:1037700007D097F8373003F00403002B01D00A2359
:1037800006E2002304E2BB6B00221A70FB6BDAB284
:10379000BB6B5A70BB6B5B781846FEF7CFFD0346D8
:1037A00087F8373097F8373003F00103002B01D04A
:1037B0000323EDE1FB79002B07D097F8373003F0B6
:1037C0000403002B01D00A23E2E100233B65B86B20
:1037D000396DFFF72DFF034687F8573097F85730BC
:1037E000022B4ED100233B641DE0BB6B03F5F77247
:1037F0003B6C1B0113443B633B6B04331B78002B76
:1038000006D03B6B08331846FEF7C8FE024600E0C0
:1038100000223B6C9B0007F158010B4443F8442CF9
:103820003B6C01333B643B6C032BDED900233B64D0
:103830003B6C002B02D03B6C013B3B643B6C9B0020
:1038400007F15802134453F8443C3B653B6D002B91
:1038500005D0B86B396DFFF7EBFE034600E003239C
:1038600087F8573097F85730012B07D93B6C013355
:103870003B643B6C032B01D8012300E00023002BA9
:10388000DCD197F85730042B01D1012380E197F860
:103890005730012B01D90D237AE1BB6B3B3318461E
:1038A000FEF764FE0346B3F5007F0CBF002301233F
:1038B000DBB2002B01D00D236AE1BB6B4633184607
:1038C000FEF754FE0346FB64FB6C002B05D1BB6B7B
:1038D00054331846FEF762FEF864BB6BFA6C9A61CB
:1038E000BB6B93F84020BB6B9A70BB6B9B78012B32
:1038F00005D0BB6B9B78022B01D00D2348E1BB6B3D
:103900009B781A46FB6C02FB03F3FB64BB6B93F8DA
:103910003D301A46BB6B5A81BB6B5B89002B08D0CC
:10392000BB6B5B891A46BB6B5B89013B1340002B69
:1039300001D00D232CE1BB6B41331846FEF716FE78
:1039400003461A46BB6B1A81BB6B1B8903F00F033E
:10395000002B01D00D231BE1BB6B43331846FEF750
:1039600005FE0346BB64BB6C002B05D1BB6B50331B
:103970001846FEF713FEB864BB6B3E331846FEF7DD
:10398000F5FD0346FB85FB8D002B01D10D23FFE0E8
:10399000FA8DFB6C1A44BB6B1B891B099BB2134449
:1039A000BB62BA6CBB6A9A4204D20D23F0E000BF3E
:1039B00064000020BA6CBB6AD21ABB6B5B89B2FB95
:1039C000F3F37B627B6A002B01D10D23E0E003233C
:1039D00087F857307A6A4FF6F5739A4202D8022375
:1039E00087F857307A6A40F6F5739A4202D8012375
:1039F00087F857307B6A9A1CBB6B5A61BB6B3A6D78
:103A0000DA61FA8D3B6D1A44BB6B1A623A6DBB6A80
:103A10001A44BB6B9A6297F85730032B21D1BB6BCA
:103A20005A331846FEF7A2FD0346002B0CBF0023B5
:103A30000123DBB2002B01D00D23A9E0BB6B1B8956
:103A4000002B01D00D23A3E0BB6B5C331846FEF7BF
:103A5000A5FD0246BB6B5A62BB6B5B699B007B6436
:103A60001FE0BB6B1B89002B01D10D2390E0BB6BCA
:103A70001A6AFB6C1A44BB6B5A6297F85730022BD8
:103A800003D1BB6B5B695B000AE0BB6B5A691346F1
:103A90005B0013445A08BB6B5B6903F001031344DA
:103AA0007B64BB6B9A697B6C03F2FF135B0A9A42DF
:103AB00001D20D236CE0BB6B4FF0FF321A61BB6B80
:103AC0001A69BB6BDA60BB6B80221A7197F85730AA
:103AD000032B12D1BB6B60331846FEF747FD03463C
:103AE000012B0AD13B6D0133B86B1946FEF798FEE6
:103AF0000346002B01D1012300E00023002B38D026
:103B0000BB6B00221A71BB6B03F22E231846FEF723
:103B10002DFD03461A464AF655239A4214D1BB6B33
:103B200030331846FEF73AFD02461B4B9A420BD142
:103B3000BB6B03F505731846FEF730FD0246174BC5
:103B40009A4201D1012300E00023002B11D0BB6B6E
:103B500003F506731846FEF721FD0246BB6B1A619A
:103B6000BB6B03F507731846FEF718FD0246BB6BE7
:103B7000DA60BB6B97F857201A70094B1B8801332A
:103B80009AB2074B1A80064B1A88BB6BDA80002367
:103B900018465837BD4680BD52526141727241612C
:103BA0006800002080B584B000AF786039607B6821
:103BB000BB607B68002B1AD0BB681B68002B16D03B
:103BC000BB681B681B78002B11D0BB681B68DA88A8
:103BD000BB689B889A420AD1BB681B685B78184611
:103BE000FEF788FB034603F00103002B01D00123FD
:103BF00000E00023002B05D03B6800221A60092357
:103C0000FB7305E0BB681A683B681A600023FB730E
:103C1000FB7B18461037BD4680BD00BF80B588B01D
:103C200000AFF860B9601346FB71BB683B6107F1F8
:103C300010031846FFF7B4FCF861FB69002B01DAAA
:103C40000B2329E0164BFA6953F82230BB61BB699C
:103C5000002B02D0BB6900221A70FB68002B02D037
:103C6000FB6800221A70F9680D4BFA6943F82210BC
:103C7000FB68002B02D0FB79012B01D000230BE065
:103C800007F1080207F10C03104619460022FFF75E
:103C900037FD0346FB75FB7D18462037BD4680BDCA
:103CA0006400002080B598B000AFF860B96013469A
:103CB000FB71FB68002B01D1092387E1FB7903F03D
:103CC0003F03FB7107F1080107F14002FB79084649
:103CD00011461A46FFF714FD034687F85F3097F840
:103CE0005F30002B40F069813B6C7B61BB6807F162
:103CF000140210461946FFF7E3FB034687F85F30CE
:103D000097F85F30002B08D197F83F30DBB25BB2F9
:103D1000002B02DA062387F85F30FB7903F01C03DF
:103D2000002B78D097F85F30002B10D097F85F30D9
:103D3000042B07D107F114031846FFF7F5FA0346E1
:103D400087F85F30FB7943F00803FB7110E0BB7E1E
:103D500003F01103002B03D0072387F85F3007E03F
:103D6000FB7903F00403002B02D0082387F85F30AF
:103D700097F85F30002B68D1FB7903F00803002B24
:103D800063D0944B3B653B6B0E331846396DFEF7A1
:103D900043FC3B6B16331846396DFEF73DFC3B6B1D
:103DA0000B3320221A703A6C3B6B10461946FFF712
:103DB00021FAF8643A6C3B6B104619460022FFF773
:103DC00039FA3B6B1C3318460021FEF725FC3B6C8F
:103DD0000122DA70FB6C002B37D03B6CDB6A3B6551
:103DE00007F114031846F96C0022FEF76FFF034633
:103DF00087F85F3097F85F30002B26D13B6C184670
:103E0000396DFEF70DFD034687F85F303B6CFA6CA9
:103E1000013ADA6019E097F85F30002B15D1BB7ECC
:103E200003F01003002B03D0042387F85F300CE06D
:103E3000FB7903F00203002B07D0BB7E03F00103E4
:103E4000002B02D0072387F85F3097F85F30002BF4
:103E50000FD1FB7903F00803002B03D0FB7943F06B
:103E60004003FB713B6CDA6AFB681A623A6BFB68D1
:103E70005A6297F85F30002B40F09F803A6C3B6BA2
:103E800010461946FFF7B6F90246FB689A603B6B8D
:103E90001C331846FEF782FB0246FB68DA603A6C78
:103EA000FB681A603B6CDA88FB689A80FB68FA79D9
:103EB0001A74FB6800225A74FB680022DA61FB68FE
:103EC00000225A61FB682833184600214FF4007223
:103ED000FEF7F4FBFB7903F02003002B6DD0FB68A9
:103EE000DB68002B69D0FB68DA68FB685A613B6CC1
:103EF0005B895B02BB64FB689B68BB65FB68DB6836
:103F00007B6516E0FB681846B96DFEF74DFDB86598
:103F1000BB6D012B02D8022387F85F30BB6DB3F174
:103F2000FF3F02D1012387F85F307A6DBB6CD31A53
:103F30007B6597F85F30002B03D17A6DBB6C9A429A
:103F4000E0D8FB68BA6D9A6197F85F30002B34D1E6
:103F50007B6DC3F30803002B2FD03B6C1846B96D63
:103F6000FEF704FD78647B6C002B14BF0023012353
:103F7000DBB2002B03D0022387F85F301DE07B6D9E
:103F80005A0A7B6C1A44FB68DA613B6C5978FB680F
:103F900003F12802FB68DB69084611461A46012333
:103FA000FEF7EAF90346002B0CBF00230123DBB226
:103FB000002B02D0012387F85F3097F85F30002B89
:103FC00002D0FB6800221A6097F85F30184660370D
:103FD000BD4680BD0000214880B58EB000AFF860BE
:103FE000B9607A603B60BB687B623B6800221A6004
:103FF00007F11403F8681946FFF7D4FD034687F864
:10400000373097F83730002B07D1FB685B7C87F897
:10401000373097F83730002B01D0012300E0002320
:10402000002B02D097F837301EE1FB681B7C03F0B1
:104030000103002B01D1072316E1FB68DA68FB6856
:104040005B69D31A3B627A683B6A9A4201D93B6A40
:104050007B6004E1FB685B69C3F30803002B40F05D
:10406000D180FB685B695A0A7B695B89013B13401D
:10407000FB61FB69002B23D1FB685B69002B03D13B
:10408000FB689B683B6307E0FA68FB689B69104626
:104090001946FEF789FC38633B6B012B04D8FB689B
:1040A00002225A740223DFE03B6BB3F1FF3F04D1DD
:1040B000FB6801225A740123D6E0FB683A6B9A61CF
:1040C0007A69FB689B6910461946FEF74FFCB86198
:1040D000BB69002B04D1FB6802225A740223C3E09F
:1040E000BA69FB691344BB617B685B0ABB62BB6A4C
:1040F000002B41D0FA69BB6A1A447B695B899A42FA
:1041000005D97B695B891A46FB69D31ABB627B6957
:104110005B781846796ABA69BB6AFEF72DF90346DF
:10412000002B0CBF00230123DBB2002B04D0FB6863
:1041300001225A74012397E0FB681B7CDBB25BB25F
:10414000002B15DAFB68DA69BB69D21ABB6A9A429E
:104150000ED2FB68DA69BB69D31A5B027A6A1A4429
:10416000FB682833104619464FF40072FEF780FAB8
:10417000BB6A5B02FB625EE0FB68DA69BB699A427C
:104180003DD0FB681B7CDBB25BB2002B20DA7B6985
:104190005978FB6803F12802FB68DB690846114681
:1041A0001A460123FEF724F90346002B0CBF002317
:1041B0000123DBB2002B04D0FB6801225A740123D7
:1041C00052E0FB681B7C03F07F03DAB2FB681A74D1
:1041D0007B695A78FB68283310461946BA6901236F
:1041E000FEF7CAF80346002B0CBF00230123DBB205
:1041F000002B04D0FB6801225A74012334E0FB68D1
:10420000BA69DA61FB685B69C3F30803C3F500733D
:10421000FB62FA6A7B689A4201D97B68FB62FB68A1
:104220005B69C3F308032833FA681344786A1946B4
:10423000FA6AFEF71DFA7A6AFB6A13447B62FB682E
:104240005A69FB6A1A44FB685A613B681A68FB6A40
:104250001A443B681A607A68FB6AD31A7B607B68F1
:10426000002B7FF4F7AE002318463837BD4680BDDB
:1042700080B58CB000AFF860B9607A603B60BB6815
:10428000FB613B6800221A6007F11003F8681946C9
:10429000FFF788FC034687F82F3097F82F30002B64
:1042A00007D1FB685B7C87F82F3097F82F30002B05
:1042B00001D0012300E00023002B02D097F82F301B
:1042C00055E1FB681B7C03F00203002B01D107239F
:1042D0004DE1FB685A697B681A44FB685B699A4246
:1042E00003D2FB685B69DB437B6034E1FB685B699D
:1042F000C3F30803002B40F0ED80FB685B695A0AAA
:104300003B695B89013B1340BB61BB69002B37D123
:10431000FB685B69002B0CD1FB689B68BB62BB6AC6
:10432000002B0ED1FB6818460021FEF731FDB86264
:1043300007E0FA68FB689B6910461946FEF728FDFE
:10434000B862BB6A002B00D109E1BB6A012B04D122
:10435000FB6802225A74022309E1BB6AB3F1FF3FF2
:1043600004D1FB6801225A74012300E1FB68BA6A98
:104370009A61FB689B68002B02D1FB68BA6A9A605D
:10438000FB681B7CDBB25BB2002B20DA3B695978FF
:10439000FB6803F12802FB68DB69084611461A46F0
:1043A0000123FEF725F80346002B0CBF0023012351
:1043B000DBB2002B04D0FB6801225A740123D6E043
:1043C000FB681B7C03F07F03DAB2FB681A743A695E
:1043D000FB689B6910461946FEF7C8FA78617B694D
:1043E000002B04D1FB6802225A740223BFE07A69D1
:1043F000BB6913447B617B685B0A3B623B6A002BB1
:1044000043D0BA693B6A1A443B695B899A4205D931
:104410003B695B891A46BB69D31A3B623B695B788F
:104420001846F9697A693B6AFDF7E2FF0346002BFB
:104430000CBF00230123DBB2002B04D0FB68012258
:104440005A74012393E0FB68DA697B69D21A3B6AEC
:104450009A4216D2FB6803F12802FB68D9697B698E
:10446000CB1A5B02F9690B44104619464FF40072EF
:10447000FEF7FEF8FB681B7C03F07F03DAB2FB68F3
:104480001A743B6A5B027B6244E0FB68DA697B6911
:104490009A421CD0FB685A69FB68DB689A420ED2CC
:1044A0003B695A78FB682833104619467A6901231C
:1044B000FDF762FF0346002B01D0012300E000233B
:1044C000002B04D0FB6801225A7401234FE0FB68E3
:1044D0007A69DA61FB685B69C3F30803C3F50073AB
:1044E0007B627A6A7B689A4201D97B687B62FB684F
:1044F0005B69C3F308032833FA6813441846F96963
:104500007A6AFEF7B5F8FB681B7C63F07F03DAB2CA
:10451000FB681A74FA697B6A1344FB61FB685A6989
:104520007B6A1A44FB685A61FB685A69FB68DB685E
:104530009A4202D9FB685B6901E0FB68DB68FA68B4
:10454000D3603B681A687B6A1A443B681A607A68D1
:104550007B6AD31A7B607B68002B7FF4C7AEFB6855
:104560001B7C43F04003DAB2FB681A740023184640
:104570003037BD4680BD00BF80B586B000AF7860E3
:1045800007F1080378681946FFF70CFB0346FB7533
:10459000FB7D002B71D17B681B7C03F04003002B5B
:1045A0006BD07B681B7CDBB25BB2002B1DDABB6877
:1045B00059787B6803F128027B68DB69084611465D
:1045C0001A460123FDF714FF0346002B0CBF0023FE
:1045D0000123DBB2002B01D001234FE07B681B7C61
:1045E00003F07F03DAB27B681A74264B3B61BA682A
:1045F0007B681B6A10461946FEF712F90346FB75E5
:10460000FB7D002B39D17B685B6AFB60FB680B3359
:10461000FA680B32127842F02002D2B21A707B682C
:104620001A687B689B681046F9681A46FEF702FE16
:10463000FB6803F11C027B68DB6810461946FDF736
:10464000EBFFFB68163318463969FDF7E5FFFB6899
:10465000123318460021FDF7C5FFBB680122DA704E
:10466000BB681846FEF710F90346FB757B681B7C98
:1046700023F04003DAB27B681A74FB7D18461837C2
:10468000BD4680BD0000214880B584B000AF786091
:104690007868FFF771FF0346FB73FB7B002B0DD19E
:1046A00007F1080378681946FFF77CFA0346FB73A5
:1046B000FB7B002B02D17B6800221A60FB7B184633
:1046C0001037BD4680BD00BF80B582B000AF7860B6
:1046D0007B681846064964224FF4FA630BF016F81B
:1046E0007B68044A1A607B6818460837BD4680BD5F
:1046F000440B0108F016010880B483B000AF786065
:104700000C37BD465DF8047B704700BF0000000019
:1047100080B594B002AF78607B68012283F85120A5
:104720007B68032283F850207B6850333E4819464B
:10473000012200F089F87B6851333C481946012278
:1047400000F096F8796836A3D3E90023CDE9002379
:1047500008464FF000024FF0000303F02FFD7B6886
:1047600050333348194600F097F807F108033148F1
:10477000194600F0B1F8BB891AB23B8B1BB2134447
:104780001846FBF757FE02460B46104619464FF0F7
:104790000002294BFBF7B4FE02460B4610461946B1
:1047A0004FF000024FF08043FBF7D4FF02460B4668
:1047B000C7E91023D7E910014FF000021F4BFCF7A7
:1047C00011F90346002B08D01D48012100F08CF997
:1047D0001B48002100F098F91AE0D7E910014FF0CA
:1047E0000002184BFCF71CF90346002B08D01448B4
:1047F000002100F079F91248012100F085F907E065
:104800000F48002100F070F90D48002100F07CF9FC
:104810007B68184603F0E8FCA1E700BFAFF3008017
:1048200000E1F50500000000100A0020900A0020B9
:10483000380A00209006002000407F3F00003EC064
:104840001C01002000003E4080B584B000AFF8603D
:10485000B9601346FB71FA68FB791046B9681A46CD
:10486000002303F0A5FE034618461037BD4680BD61
:1048700080B584B000AFF860B9601346FB71FA6888
:10488000FB791046B9681A46002303F091FE0346EF
:1048900018461037BD4680BD80B485B000AF786043
:1048A00039607B6801221A757B68DB68FB60FB68F6
:1048B0001A783B681A707B6800221A757B68D3E906
:1048C0000823013243F100037968C1E90823143752
:1048D000BD465DF8047B7047F0B484B000AF7860EB
:1048E00039607B68012283F8B8207B68D3F8B03048
:1048F000FB603A68FB6803F1300411461846D0F8B3
:1049000000C046688568C068C1F800C04E608D6010
:10491000C86010331032A342EFD119685B68116090
:1049200053607B68002283F8B8207B68D3E9322388
:10493000013243F100037968C1E932231037BD46E3
:10494000F0BC704780B582B000AF78607B68084AE1
:104950001A607B6818460AF047FF0023002B02D03C
:10496000786803F06BFB7B6818460837BD4680BD4E
:10497000F016010880B582B000AF78607868FFF764
:10498000E1FF786803F05AFB7B6818460837BD469C
:1049900080BD00BF80B582B000AF786039607B68B1
:1049A000012B0CD13A684FF6FF739A4207D10548A4
:1049B000FFF78AFE03480449044A0CF069F80837F7
:1049C000BD4680BD7000002045490008EC0C002069
:1049D00080B500AF01204FF6FF71FFF7DBFF80BD10
:1049E00080B483B000AF78600C37BD465DF8047BBF
:1049F000704700BF80B582B000AF786039607B68D7
:104A00000433184606493A68002303F0CDF87B6862
:104A1000044A1A607B6818460837BD4680BD00BF4F
:104A2000A40B00202017010880B582B000AF786089
:104A30007B68094A1A607B680433184603F0FCF867
:104A40000023002B02D0786803F0F8FA7B68184640
:104A50000837BD4680BD00BF2017010880B582B071
:104A600000AF78607868FFF7DFFF786803F0E6FA58
:104A70007B6818460837BD4680BD00BF80B582B050
:104A800000AF78607B6818460549FFF7B3FF7B6885
:104A9000044A1A607B6818460837BD4680BD00BFCF
:104AA000540B01080817010880B582B000AF786088
:104AB0000A4801210122012304F044FD0848012194
:104AC0000122012304F03EFD0648012101220123B9
:104AD00004F038FD0837BD4680BD00BFC800002087
:104AE000E40000200001002080B582B000AF7860B3
:104AF0000B46FB70FB780348194604F029FE083783
:104B0000BD4680BDC800002080B582B000AF78608F
:104B10000B46FB70FB780348194604F019FE083772
:104B2000BD4680BDE400002080B582B000AF786053
:104B30007B68084A1A607B681846FFF775FF0023F8
:104B4000002B02D0786803F079FA7B6818460837A2
:104B5000BD4680BD0817010880B582B000AF7860FF
:104B60007868FFF7E1FF786803F068FA7B68184619
:104B70000837BD4680BD00BF80B582B000AF786009
:104B800039607B68012B18D13A684FF6FF739A425F
:104B900013D10B48072104F0A1FC0A48062104F0B8
:104BA0009DFC0948252104F099FC0848FFF766FFA1
:104BB00006480749074A0BF06BFF0837BD4680BD22
:104BC000C8000020E4000020000100201C0100209B
:104BD000294B0008EC0C002080B500AF01204FF6F7
:104BE000FF71FFF7C9FF80BD80B582B000AF78606C
:104BF0007B681846064964224FF4FA630AF086FD82
:104C00007B68044A1A607B6818460837BD4680BD39
:104C1000600B01083817010880B582B000AF7860DA
:104C2000044801210122002304F08CFC0837BD4612
:104C300080BD00BF3001002080B483B000AF786039
:104C400000BF0C37BD465DF8047B704780B582B06D
:104C500000AF78607B68084A1A607B6818460AF0E3
:104C6000C3FD0023002B02D0786803F0E7F97B68CE
:104C700018460837BD4680BD3817010880B582B098
:104C800000AF78607868FFF7E1FF786803F0D6F945
:104C90007B6818460837BD4680BD00BF80B582B02E
:104CA00000AF786039607B68012B10D13A684FF60D
:104CB000FF739A420BD10748212104F00FFC0648EC
:104CC000FFF792FF04480549054A0BF0E1FE08375B
:104CD000BD4680BD30010020500100204D4C000831
:104CE000EC0C002080B500AF01204FF6FF71FFF7FC
:104CF000D5FF80BD80B483B000AF786039607B6839
:104D00003A681A607B6818460C37BD465DF8047B2C
:104D1000704700BF80B582B000AF78607B681846EE
:104D20000549FFF767FE7B68044A1A607B681846EE
:104D30000837BD4680BD00BF700B01085017010841
:104D400080B582B000AF78600A480B49002206F0B7
:104D50002FF808480121002206F09CFA07484FF47A
:104D6000E13106F0D5FF0648FDF7DEF80837BD460D
:104D700080BD00BFA001002040420F00D8010020EC
:104D80001002002080B582B000AF78607B68084ACE
:104D90001A607B681846FFF747FE0023002B02D0FD
:104DA000786803F04BF97B6818460837BD4680BD2C
:104DB0005017010880B582B000AF78607868FFF7BF
:104DC000E1FF786803F03AF97B6818460837BD467A
:104DD00080BD00BF80B584B002AF786039607B6869
:104DE000012B32D13A684FF6FF739A422DD11F231F
:104DF0000093174802211D221E2305F099FF154834
:104E000002211622172304F08BFE0C2300930B23A0
:104E100001931148012109220A2306F019FE1E23DD
:104E200000933B2301930D4803212A222B2306F0F4
:104E30000FFE0B480949FFF75DFF0A48FFF76AFFBD
:104E400008480949094A0BF023FE0837BD4680BDD2
:104E5000A0010020BC010020D8010020F4010020A6
:104E60001002002014020020854D0008EC0C0020E8
:104E700080B500AF01204FF6FF71FFF7ABFF80BD9B
:104E800080B483B000AF78600C37BD465DF8047B1A
:104E9000704700BF80B582B000AF78607B6818466D
:104EA000164964224FF4FA630AF030FC7B68144A16
:104EB0001A607B68002283F850207B68002283F808
:104EC00051207B68002283F852207B68002283F8FF
:104ED00053207B68002283F854207B6800229A6567
:104EE0007B68002283F85C207B68002283F85D20C9
:104EF0007B6818460837BD4680BD00BF7C0B0108A3
:104F0000681701080000000080B586B002AF786025
:104F100033480021012200F067F879682EA3D3E915
:104F20000023CDE9002308464FF000024FF00003B4
:104F300003F044F97B689A6D7B6893F85030002B3E
:104F400001D0012300E000231A447B689A657B6846
:104F50009A6D7B6893F85130002B01D0012300E05B
:104F600000231A447B689A657B689A6D7B6893F886
:104F70005230002B01D0012300E000231A447B684B
:104F80009A657B689A6D7B6893F85330002B01D04B
:104F9000012300E000231A447B689A657B689B6DBF
:104FA000052B12D9002343F01903FB72FB6803F0B1
:104FB0007F43FB6005233B810123BB7207F108039C
:104FC00008481946012200F029F87B68184603F0CA
:104FD0000BF9AFE7AFF300800065CD1D00000000C6
:104FE000100B0020E808002080B584B000AF786086
:104FF00013460A467A807B707B88FB81796807F1CB
:105000000E027B78084611461A46002303F0D0FAB8
:10501000034618461037BD4680BD00BF80B584B03A
:1050200000AFF860B9601346FB71FA68FB7910466F
:10503000B9681A46002303F0BBFA03461846103736
:10504000BD4680BD80B582B000AF78607B68084AFD
:105050001A607B6818460AF0C7FB0023002B02D0B9
:10506000786802F0EBFF7B6818460837BD4680BDC4
:105070006817010880B582B000AF78607868FFF7E4
:10508000E1FF786802F0DAFF7B6818460837BD4612
:1050900080BD00BF80B582B000AF786039607B68AA
:1050A000012B0CD13A684FF6FF739A4207D105489D
:1050B000FFF7F0FE03480449044A0BF0E9FC083707
:1050C000BD4680BD2802002045500008EC0C0020A1
:1050D00080B500AF01204FF6FF71FFF7DBFF80BD09
:1050E00080B483B000AF78600B46FB7097F9033053
:1050F0007A68C3F1200362FA03F318460C37BD4601
:105100005DF8047B704700BF80B483B000AF786067
:105110007B681B0C7A6853407B607B680C4A02FBFF
:1051200003F37B607B685B0B7A6853407B607B6832
:10513000084A02FB03F37B607B681B0C7A685340D0
:105140007B607B6818460C37BD465DF8047B704772
:105150006BCAEB8535AEB2C280B58EB000AFF860D9
:10516000B9607A60BB68002B00DA03339B10BB6226
:105170007B683B633D4B7B623D4B3B62BB6A9B0064
:10518000FA681344FB61BB6A5B427B6327E07B6B7D
:105190009B00FA6913441B68BB61BB697A6A02FB16
:1051A00003F3BB61B8690F21FFF79AFFB861BB69D0
:1051B0003A6A02FB03F3BB613A6BBB6953403B6342
:1051C000386B0D21FFF78CFF38633A6B13469B0059
:1051D0001A44284B13443B637B6B01337B637B6B2B
:1051E000002BD4D1BB6A9B00FA6813447B61002377
:1051F000FB62BB6803F00303022B0BD0032B02D02E
:10520000012B0ED025E07B6902331B781B04FA6A60
:105210005340FB627B6901331B781B02FA6A5340DF
:10522000FB627B691B78FA6A5340FB62FB6A7A6A0D
:1052300002FB03F3FB62F86A0F21FFF751FFF862EC
:10524000FB6A3A6A02FB03F3FB623A6BFB6A534068
:105250003B63BB683A6B53403B63386BFFF754FFCB
:1052600038633B6B18463837BD4680BD512D9ECC08
:105270009335871B646B54E680B582B000AF7860CD
:105280007B681846064964224FF4FA630AF03EFA36
:105290007B68044A1A607B6818460837BD4680BDA3
:1052A0008C0B01088017010880B58AB002AF7860C6
:1052B0000B46FB70FB78012B05D0FB78022B02D04C
:1052C0004FF0FF334CE0284A07F1140312881A808C
:1052D000264A07F1100312881A80FB7824481946E1
:1052E00000F0B6FC07F1140322481946022206F02A
:1052F00061F80346B3F1FF3F14BF00230123DBB283
:10530000002B05D01A4800F0F1FC4FF0FF3327E0E6
:10531000194A07F10C0312881A804FF0FF33FB6122
:105320000023BB6115E007F1100207F10C03022115
:10533000009110481146022206F066F97B7BDBB231
:105340005BB2002B02DB0023FB6105E0BB6901338C
:10535000BB61BB69632BE6DD054800F0C7FCFB6958
:1053600018462037BD4680BD9C0B0108A00B0108E4
:105370006C040020A0010020A40B010880B584B0BB
:1053800000AF7860F970BA707B70FB78012B05D0A4
:10539000FB78022B02D04FF0FF3321E0BB783B7249
:1053A0007B787B72FB781048194600F051FC002393
:1053B000FB6007F108030D481946022205F0FAFFC9
:1053C0000346B3F1FF3F14BF00230123DBB2002BE0
:1053D00002D04FF0FF33FB60034800F087FCFB680E
:1053E00018461037BD4680BD6C040020A001002087
:1053F00080B582B000AF78600B46FB70FB787868B0
:105400001946FFF751FF0346B3F1FF3F14BF0023D6
:105410000123DBB2002B02D04FF0FF336DE002F02E
:10542000EBFF384A4FF00003121843EB010310461C
:10543000194600220AF0BAFAFB78786819466B22FE
:105440000023FFF79BFF0346B3F1FF3F14BF002388
:105450000123DBB2002B02D04FF0FF334DE002F00E
:10546000CBFF284A4FF00003121843EB010310460C
:10547000194600220AF09AFAFB78786819461B222E
:105480000023FFF77BFF0346B3F1FF3F14BF002368
:105490000123DBB2002B02D04FF0FF332DE002F0EE
:1054A000ABFF184A4FF00003121843EB01031046FC
:1054B000194600220AF07AFAFB78786819461C220D
:1054C0001823FFF75BFF0346B3F1FF3F14BF002330
:1054D0000123DBB2002B02D04FF0FF330DE002F0CE
:1054E0008BFF084A4FF00003121843EB01031046EC
:1054F000194600220AF05AFA002318460837BD461A
:1055000080BD00BF40420F0080B586B000AFF8609C
:105510000B467A60FB72FB7A012B05D0FB7A022BDB
:1055200002D04FF0FF336DE0FB7A3848194600F0A7
:105530008FFBBB23FB7507F1170335481946012282
:1055400005F038FF324879680E2205F0C9FF03469E
:10555000B3F1FF3F14BF00230123DBB2002B05D0C2
:105560002A4800F0C3FB4FF0FF334BE0274800F020
:10557000BDFB7B68B3F908309BB21BB2184602F042
:1055800035F903461A467B681A817B68B3F90A30FD
:105590009BB21BB2184602F029F903461A467B68F3
:1055A0005A817B68B3F90C309BB21BB2184602F0EB
:1055B0001DF903461A467B689A817B68B3F900306F
:1055C0009BB21BB2184602F011F903461A467B68DB
:1055D0001A807B68B3F902309BB21BB2184602F006
:1055E00005F903461A467B685A807B68B3F9043094
:1055F0009BB21BB2184602F0F9F803461A467B68C4
:105600009A80002318461837BD4680BD6C040020E0
:10561000A001002080B58CB002AF786078680121CD
:10562000FFF7E6FE78680221FFF7E2FE79682D4A6F
:105630004FF00003CDE9002308464FF000024FF081
:10564000000302F0BBFD07F11803786801211A4638
:10565000FFF75AFF07F10803786802211A46FFF79F
:1056600053FF7B6803F5A07207F118030833104657
:105670001946062202F0B8FC7B6803F5A67207F112
:105680000803083310461946062202F0ADFC7B6879
:1056900003F5A37207F1180310461946062202F01B
:1056A000A3FC7B6803F5A97207F1080310461946AD
:1056B000062202F099FC02F09FFE02460B46796832
:1056C00001F5B871C1E900237B6803F5A0730648B2
:1056D0001946012200F00AF87B68184602F084FDA2
:1056E000B1E700BF809698006806002080B584B0BE
:1056F00000AFF860B9601346FB71FA68FB79104699
:10570000B9681A46002302F053FF034618461037C3
:10571000BD4680BD80B582B000AF78607B68084A26
:105720001A607B6818460AF05FF80023002B02D04D
:10573000786802F083FC7B6818460837BD4680BD58
:105740008017010880B582B000AF78607868FFF7F5
:10575000E1FF786802F072FC7B6818460837BD46A6
:1057600080BD00BF80B582B000AF786039607B68D3
:10577000012B0CD13A684FF6FF739A4207D10548C6
:10578000FFF77AFD03480449044A0BF081F9083712
:10579000BD4680BD8802002015570008EC0C002093
:1057A00080B500AF01204FF6FF71FFF7DBFF80BD32
:1057B00080B582B000AF78607B68184606496422E5
:1057C0004FF4FA6309F0A2FF7B68044A1A607B6811
:1057D00018460837BD4680BDA80B01089817010878
:1057E00080B586B000AF7860396055233B7207F111
:1057F0000803013318463968082202F0F5FB4E23EE
:105800007B745523BB74C923FB741F233B75064867
:10581000FCF7A8FB07F10803034819460D22FCF723
:10582000EDFC1837BD4680BD1002002080B584B065
:1058300000AF7860CC233B7344237B730648FCF7AE
:1058400091FB07F10C03044819460222FCF7D6FC31
:105850001037BD4680BD00BF1002002080B58AB061
:1058600000AF7860396055233B7607F118030133A8
:1058700018463968082202F0B7FBBE2387F82130AA
:1058800000237B6225E01948FCF76CFB07F1180345
:10589000164819460A22FCF7B1FC07F10C0313481D
:1058A00019460922FCF78EFC07F10C030F48194634
:1058B0000822FCF7BFFC03461A467B7D9A4214BFC0
:1058C00000230123DBB2002B00D005E07B6A01330B
:1058D0007B627B6A022BD6DD07F10C031B887B847D
:1058E0007B8C1BB218462837BD4680BD10020020B5
:1058F00080B582B000AF7860396012489021124ABA
:10590000012304F0A3FA03461048194601F0CEFF24
:105910000C4891213A68022304F0CCFA3B681B88BA
:105920009BB21BB2184601F061FF03469AB23B6876
:105930001A8004489021064A032304F087FA0837A6
:10594000BD4680BDBC01002068040020B80B0108E2
:105950000400002080B582B000AF78603960104844
:105960009021104A012304F071FA0D4891213A6800
:10597000022304F09FFA3B681B889BB21BB21846B7
:1059800001F034FF03469AB23B681A800448902124
:10599000054A032304F05AFA0837BD4680BD00BF0C
:1059A000BC010020680400200000002080B582B007
:1059B00000AF786004489021044A032304F046FABB
:1059C0000837BD4680BD00BFBC010020000000209C
:1059D00080B586B002AF78604148424904F0E6F8ED
:1059E00002F00AFD3AA3D3E90023121843EB0103A6
:1059F00010461946002209F0D9FF7868FFF7D6FF54
:105A000078683949FFF7ECFE796833A3D3E90023BE
:105A1000CDE9002308464FF000024FF0000302F0EA
:105A2000CDFB0023FB730023BB60FB7B83F00103F2
:105A3000DBB2002B06D07B68503378681946FFF73D
:105A400057FF13E07B68523378681946FFF782FFEF
:105A500002F0D2FC02460B467968C1E918237B6844
:105A6000503322481946012200F042F8BB68002B4F
:105A700003D17868FFF7DAFE16E078681A49FFF775
:105A8000EDFE03461A467B68A3F8562002F0B4FCEC
:105A900002460B467968C1E918237B6850331348E6
:105AA0001946012200F024F8FB7B83F00103FB730D
:105AB000BB680133BB60BB68012B01DCBB6800E045
:105AC0000023BB607B68184602F08EFBADE700BF89
:105AD00000CA9A3B0000000000E1F505000000004C
