:020000040800F2
:10000000000002208D65000869C7000871C700085C
:1000100095C700089DC70008A5C70008000000009C
:1000200000000000000000000000000095C0000873
:10003000F965000800000000A9C00008E5C3000839
:10004000F9650008F9650008F9650008F965000818
:10005000F9650008F9650008AD6F0008D16F000868
:10006000F56F0008197000083D700008F965000878
:10007000F9920008F965000821920008F965000866
:10008000B1920008D9910008F9650008F9650008E7
:10009000F9650008F9650008F96500086170000855
:1000A000F9650008F965000895C50008F9650008BC
:1000B000F9650008F9650008F9650008F9650008A8
:1000C000F9650008F9650008F9650008F965000898
:1000D000F9650008019100081991000831910008A4
:1000E000BD700008F9650008F9650008F9650008A9
:1000F000F9650008F9650008F9650008F965000868
:10010000F9650008F9650008A1C10008F965000853
:100110004991000861910008F9650008F965000837
:10012000F9650008F9650008F9650008F965000837
:10013000F9650008F9650008F9650008F965000827
:10014000F9650008F9650008F9650008F965000817
:1001500069920008F96500089191000879910008FA
:10016000F9650008F9650008F9650008F9650008F7
:10017000F9650008F9650008F9650008F9650008E7
:0C018000F9650008F9650008000000089F
:1001900081F0004102E000BF83F0004330B54FEA38
:1001A00041044FEA430594EA050F08BF90EA020FA5
:1001B0001FBF54EA000C55EA020C7FEA645C7FEA38
:1001C000655C00F0E2804FEA5454D4EB5555B8BF5B
:1001D0006D420CDD2C4480EA020281EA030382EACC
:1001E000000083EA010180EA020281EA0303362D5E
:1001F00088BF30BD11F0004F4FEA01314FF4801C31
:100200004CEA113102D0404261EB410113F0004F42
:100210004FEA03334CEA133302D0524263EB4303F9
:1002200094EA050F00F0A780A4F10104D5F1200E97
:100230000DDB02FA0EFC22FA05F2801841F10001F2
:1002400003FA0EF2801843FA05F359410EE0A5F1C6
:1002500020050EF1200E012A03FA0EFC28BF4CF0F7
:10026000020C43FA05F3C01851EBE37101F00045AD
:1002700007D54FF0000EDCF1000C7EEB00006EEBBA
:100280000101B1F5801F1BD3B1F5001F0CD3490844
:100290005FEA30004FEA3C0C04F101044FEA44529B
:1002A00012F5800F80F09A80BCF1004F08BF5FEA22
:1002B000500C50F1000041EB045141EA050130BD02
:1002C0005FEA4C0C404141EB010111F4801FA4F1A5
:1002D0000104E9D191F0000F04BF01460020B1FAFA
:1002E00081F308BF2033A3F10B03B3F120020CDA32
:1002F0000C3208DD02F1140CC2F10C0201FA0CF010
:1003000021FA02F10CE002F11402D8BFC2F1200C74
:1003100001FA02F120FA0CFCDCBF41EA0C0190402A
:10032000E41AA2BF01EB0451294330BD6FEA040473
:100330001F3C1CDA0C340EDC04F11404C4F120025E
:1003400020FA04F001FA02F340EA030021FA04F370
:1003500045EA030130BDC4F10C04C4F1200220FAC7
:1003600002F001FA04F340EA0300294630BD21FA05
:1003700004F0294630BD94F0000F83F4801306BFCB
:1003800081F480110134013D4EE77FEA645C18BFBF
:100390007FEA655C29D094EA050F08BF90EA020F56
:1003A00005D054EA000C04BF1946104630BD91EA4E
:1003B000030F1EBF0021002030BD5FEA545C05D151
:1003C0004000494128BF41F0004130BD14F5800490
:1003D0003CBF01F5801130BD01F0004545F0FE4104
:1003E00041F470014FF0000030BD7FEA645C1ABF39
:1003F000194610467FEA655C1CBF0B46024650EA70
:10040000013406BF52EA033591EA030F41F400219B
:1004100030BD00BF90F0000F04BF0021704730B521
:100420004FF4806404F132044FF000054FF00001F6
:1004300050E700BF90F0000F04BF0021704730B5B7
:100440004FF4806404F1320410F0004548BF40428C
:100450004FF000013EE700BF42004FEAE2014FEAE1
:1004600031014FEA02701FBF12F07F4393F07F4FBC
:1004700081F06051704792F0000F14BF93F07F4FEE
:10048000704730B54FF4607401F0004521F0004131
:1004900020E700BF50EA010208BF704730B54FF0B7
:1004A00000050AE050EA010208BF704730B511F0BC
:1004B000004502D5404261EB41014FF4806404F1F4
:1004C00032045FEA915C3FF4DCAE4FF003025FEA76
:1004D000DC0C18BF03325FEADC0C18BF033202EBFE
:1004E000DC02C2F1200300FA03FC20FA02F001FA58
:1004F00003FE40EA0E0021FA02F11444C1E600BFF7
:1005000070B54FF0FF0C4CF4E06C1CEA11541DBFA9
:100510001CEA135594EA0C0F95EA0C0F00F0DEF874
:100520002C4481EA030621EA4C5123EA4C5350EA59
:10053000013518BF52EA033541F4801143F48013AA
:1005400038D0A0FB02CE4FF00005E1FB02E506F03B
:100550000042E0FB03E54FF00006E1FB03569CF090
:10056000000F18BF4EF0010EA4F1FF04B6F5007F96
:1005700064F5407404D25FEA4E0E6D4146EB060608
:1005800042EAC62141EA55514FEAC52040EA5E5091
:100590004FEACE2EB4F1FD0C88BFBCF5E06F1ED83B
:1005A000BEF1004F08BF5FEA500E50F1000041EB72
:1005B000045170BD06F0004646EA010140EA02001F
:1005C00081EA0301B4EB5C04C2BFD4EB0C0541EA41
:1005D000045170BD41F480114FF0000E013C00F356
:1005E000AB8014F1360FDEBF002001F0004170BD7A
:1005F000C4F10004203C35DA0C341BDC04F1140493
:10060000C4F1200500FA05F320FA04F001FA05F21E
:1006100040EA020001F0004221F0004110EBD370EB
:1006200021FA04F642EB06015EEA430E08BF20EA17
:10063000D37070BDC4F10C04C4F1200500FA04F3BA
:1006400020FA05F001FA04F240EA020001F000414C
:1006500010EBD37041F100015EEA430E08BF20EABF
:10066000D37070BDC4F1200500FA05F24EEA020E07
:1006700020FA04F301FA05F243EA020321FA04F036
:1006800001F0004121FA04F220EA020000EBD370ED
:100690005EEA430E08BF20EAD37070BD94F0000FED
:1006A0000FD101F00046400041EB010111F4801F21
:1006B00008BF013CF7D041EA060195F0000F18BFD2
:1006C000704703F00046520043EB030313F4801F0E
:1006D00008BF013DF7D043EA0603704794EA0C0FC8
:1006E0000CEA135518BF95EA0C0F0CD050EA4106DE
:1006F00018BF52EA4306D1D181EA030101F000415B
:100700004FF0000070BD50EA410606BF1046194682
:1007100052EA430619D094EA0C0F02D150EA01368E
:1007200013D195EA0C0F05D152EA03361CBF1046CF
:1007300019460AD181EA030101F0004141F0FE416E
:1007400041F470014FF0000070BD41F0FE4141F4F2
:10075000780170BD70B54FF0FF0C4CF4E06C1CEAF2
:1007600011541DBF1CEA135594EA0C0F95EA0C0FA7
:1007700000F0A7F8A4EB050481EA030E52EA033562
:100780004FEA013100F088804FEA03334FF0805583
:1007900045EA131343EA12634FEA022245EA1115B0
:1007A00045EA10654FEA00260EF000419D4208BF61
:1007B000964244F1FD0404F5407402D25B084FEA0E
:1007C0003202B61A65EB03055B084FEA32024FF4BA
:1007D00080104FF4002CB6EB020E75EB030E22BF17
:1007E000B61A754640EA0C005B084FEA3202B6EBD7
:1007F000020E75EB030E22BFB61A754640EA5C0086
:100800005B084FEA3202B6EB020E75EB030E22BF15
:10081000B61A754640EA9C005B084FEA3202B6EB16
:10082000020E75EB030E22BFB61A754640EADC00D5
:1008300055EA060E18D04FEA051545EA16754FEA37
:1008400006164FEAC30343EA52734FEAC2025FEA55
:100850001C1CC0D111F4801F0BD141EA00014FF0E4
:1008600000004FF0004CB6E711F4801F04BF0143B5
:100870000020B4F1FD0C88BFBCF5E06F3FF6AFAED1
:10088000B5EB030C04BFB6EB020C5FEA500C50F161
:10089000000041EB045170BD0EF0004E4EEA1131E4
:1008A00014EB5C04C2BFD4EB0C0541EA045170BDEB
:1008B00041F480114FF0000E013C90E645EA060E2F
:1008C0008DE60CEA135594EA0C0F08BF95EA0C0F5D
:1008D0003FF43BAF94EA0C0F0AD150EA01347FF4A5
:1008E00034AF95EA0C0F7FF425AF104619462CE77C
:1008F00095EA0C0F06D152EA03353FF4FDAE1046DF
:10090000194622E750EA410618BF52EA43067FF42F
:10091000C5AE50EA41047FF40DAF52EA43057FF4BF
:10092000EBAE12E74FF0FF3C06E000BF4FF0010CCA
:1009300002E000BF4FF0010C4DF804CD4FEA410C2E
:100940007FEA6C5C4FEA430C18BF7FEA6C5C1BD0FB
:1009500001B050EA410C0CBF52EA430C91EA030F7C
:1009600002BF90EA020F0020704710F1000F91EAD9
:10097000030F58BF994208BF90422CBFD8176FEAA7
:10098000E37040F0010070474FEA410C7FEA6C5C75
:1009900002D150EA013C07D14FEA430C7FEA6C5C7C
:1009A000D6D152EA033CD3D05DF8040B704700BFA8
:1009B0008446104662468C461946634600E000BFF6
:1009C00001B5FFF7B7FF002848BF10F1000F01BDC8
:1009D0004DF808EDFFF7F4FF0CBF012000205DF893
:1009E00008FB00BF4DF808EDFFF7EAFF34BF012018
:1009F00000205DF808FB00BF4DF808EDFFF7E0FFB1
:100A000094BF012000205DF808FB00BF4DF808ED01
:100A1000FFF7CEFF94BF012000205DF808FB00BF68
:100A20004DF808EDFFF7C4FF34BF012000205DF84A
:100A300008FB00BF4A0011D212F5001211D20DD5E9
:100A40006FF47873B3EB62520ED44FEAC12343F0D4
:100A5000004343EA505323FA02F070474FF000007E
:100A6000704750EA013002D14FF0FF3070474FF02D
:100A70000000704773B96AB9002908BF0028BCBFDD
:100A800000204FF00041C4BF6FF000414FF0FF3035
:100A900000F08CB882B0EC462DE9005000F056F81A
:100AA000DDF804E002B00CBC704700BF4BB942B99E
:100AB000002908BF002802D04FF0FF31084600F09F
:100AC00075B882B0EC462DE9005000F057F8DDF81B
:100AD00004E002B00CBC704738B500220023044685
:100AE0000D46FFF77FFF28B920462946BDE838406C
:100AF00000F00AB8204605F1004100F005F8404238
:100B000061EB410138BD00BF70B500220D4B0446BA
:100B10000D46FFF7F5FCFFF78DFF0646FFF77AFC61
:100B20000022094BFFF7ECFC02460B462046294603
:100B3000FFF732FBFFF77EFF002242EA0004204667
:100B4000314670BD0000F03D0000F0412DE97043DA
:100B5000069E14461D468046894600F029F804FB8F
:100B600001F300FB0533A4FB00451D44B8EB04046E
:100B700069EB0505C6E90045BDE870832DE97043C2
:100B8000069E1446804689461D4600F05DF900FB2E
:100B900005F504FB0153A0FB04451D44B8EB040418
:100BA00069EB0505C6E90045BDE87083704700BFE5
:100BB00000292DE9F00FC0F29F800024002BC0F225
:100BC0009680154606460F46002B3ED18A4257D9DD
:100BD000B2FA82F34BB1C3F1200201FA03F720FA13
:100BE00002F29D40174300FA03F6290CB7FBF1F21D
:100BF000330C01FB127CA8B243EA0C4700FB02F362
:100C0000BB4209D97F1902F1FF3C80F00181BB4250
:100C100040F2FE80023A2F44FF1AB7FBF1F3B6B25E
:100C200001FB137146EA014100FB03F0884208D939
:100C3000491903F1FF3780F0ED80884240F2EA80E5
:100C4000023B43EA0242002303E08B420AD900231D
:100C50001A461046194614B1404261EB4101BDE805
:100C6000F00F7047B3FA83F8B8F1000F40F08480BA
:100C70008B4202D3824200F2DE8000230122E8E7A9
:100C800012B90123B3FBF2F5B5FA85F2002A39D186
:100C90007F1B280C1FFA85FC0123B7FBF0F1320CF7
:100CA00000FB117742EA07470CFB01F2BA4207D971
:100CB0007F1901F1FF3802D2BA4200F2C1804146E9
:100CC000BF1AB7FBF0F2B6B200FB127046EA004062
:100CD0000CFB02FC844507D9401902F1FF3702D210
:100CE000844500F2AB803A4642EA0142B1E7E44370
:100CF000524263EB430364E7404261EB41014FF032
:100D0000FF345BE79540C2F1200327FA03F1280C7A
:100D100026FA03F39740B1FBF0F81F433B0C00FBAE
:100D200018111FFA85FC43EA01410CFB08F38B42C2
:100D300006FA02F608D9491908F1FF3279D28B4236
:100D400077D9A8F102082944C91AB1FBF0F3BFB260
:100D500000FB131147EA01470CFB03F2BA4207D923
:100D60007F1903F1FF3160D2BA425ED9023B2F44B2
:100D7000BF1A43EA084390E7C8F1200203FA08FCCF
:100D800025FA02F343EA0C0C4FEA1C4921FA02F35C
:100D900001FA08F720FA02F2B3FBF9F1174309FB55
:100DA00011333A0C1FFA8CFB42EA03430BFB01FAA6
:100DB0009A4505FA08F008D913EB0C0301F1FF324C
:100DC00035D29A4533D902396344CAEB0303B3FBE6
:100DD000F9F209FB1233BFB247EA03470BFB02F9F2
:100DE000B94508D917EB0C0702F1FF331BD2B945FF
:100DF00019D9023A674442EA0145A5FB0001C9EB53
:100E000007078F424FF000030AD305D02A4620E798
:100E1000624601E73B4614E706FA08F68642F5D239
:100E20006A1E002315E71A46E5E70B46A0E71146C0
:100E3000CBE7904688E7434642460AE7023A53E743
:100E400002392F443CE700BF2DE9F00F1446054658
:100E50000E46002B43D18A4253D9B2FA82F757B1DA
:100E6000C7F1200620FA06F601FA07F302FA07F4A2
:100E70001E4300FA07F5210CB6FBF1F22B0C01FB27
:100E80001267A0B243EA074600FB02F3B34209D956
:100E9000361902F1FF3780F0F680B34240F2F3805A
:100EA000023A2644F61AB6FBF1F3ADB201FB136128
:100EB00045EA014100FB03F0884208D9091903F112
:100EC000FF3680F0E280884240F2DF80023B43EA56
:100ED0000242002310461946BDE8F00F70478B42CE
:100EE0004AD8B3FA83F6002E4DD18B4202D3824208
:100EF00000F2D6800023012210461946BDE8F00F0B
:100F0000704712B90124B4FBF2F4B4FA84F2002A57
:100F10007CD1091B260CA7B20123B1FBF6F02A0CE9
:100F200006FB101142EA014107FB00F28A4207D991
:100F3000091900F1FF3C02D28A4200F2C3806046E8
:100F4000891AB1FBF6F2ADB206FB121145EA014572
:100F500007FB02F7AF4208D92C1902F1FF3180F0EC
:100F60009680A74240F29380023A42EA004210463D
:100F70001946BDE8F00F704700231A46104619467F
:100F8000BDE8F00F7047C6F1200522FA05F4B34022
:100F90001C434FEA144821FA05F301FA06F720FA38
:100FA00005F5B3FBF8FC2F4308FB1C333D0C1FFA7F
:100FB00084FA45EA03430AFB0CF9994502FA06FB59
:100FC00004D91B190CF1FF326DD39446C9EB03030E
:100FD000B3FBF8F508FB1533BFB247EA03470AFB3A
:100FE00005F8B84504D93F1905F1FF3361D31D4613
:100FF00045EA0C4CACFB0B23C8EB07079F424FF0B4
:10100000000549D345D062462B4663E79440C2F1C0
:10101000200321FA03FC260C20FA03F301FA02F55F
:10102000BCFBF6F843EA05010B0C06FB18CCA7B293
:1010300043EA0C4C07FB08F3634500FA02F509D9B3
:101040001CEB040C08F1FF323AD2634538D9A8F101
:101050000208A444C3EB0C0CBCFBF6F389B206FBFC
:1010600013CC41EA0C4107FB03F28A4207D9091964
:1010700003F1FF3022D28A4220D9023B2144891A4F
:1010800043EA084349E73A460CE733461FE70A4676
:101090006BE7B0409042B6D20CF1FF32002319E763
:1010A0003346324616E799458FD9ACF1020C2344FA
:1010B0008CE7B8459BD9023D274499E70346DEE714
:1010C0009046C7E7023821443AE700BF80B582B0B6
:1010D00000AF78607B681B681B6834331B687A68D4
:1010E000126810464FF4165198477B681B681B68BE
:1010F00038331B687A681268104603210222984729
:101100000837BD4680BD00BF80B584B000AF7860B1
:101110007B681B681B6838331B687A681268104646
:1011200000214FF41652984700BF7B681B681B686C
:1011300048331B687A681268104698470346B3F133
:10114000FF3F0CBF00230123DBB2002BEDD17B68F6
:101150001B681B684C331B687A68126810466FF076
:101160000F0198477B681B6818464FF0FF326FF0FD
:10117000004303F0CDFF7B681B681B6848331B6886
:101180007A681268104698470346FB73FB7BF02B86
:1011900001D0012300E0002318461037BD4680BD72
:1011A00080B584B000AF78607B681B681B683833FB
:1011B0001B687A681268104600214FF4E1329847A4
:1011C00000BF7B681B681B6848331B687A6812681D
:1011D000104698470346B3F1FF3F0CBF002301239D
:1011E000DBB2002BEDD17B681B681B684C331B689E
:1011F0007A68126810464FF0FF3198477B681B6889
:1012000018464FF0FF326FF0004303F081FF7B6818
:101210001B681B6848331B687A6812681046984739
:101220000346FB73FB7BFF2B01D1012300E000236E
:1012300018461037BD4680BD80B582B000AF7860DB
:101240000B46FB707B681B681B6838331B687A6829
:101250001268104600214FF4E132984700BF7B68C6
:101260001B681B6848331B687A68126810469847E9
:101270000346B3F1FF3F0CBF00230123DBB2002B79
:10128000EDD1FB78002B0AD17B681B681B684C33BF
:101290001B687A6812681046002198470AE07B684C
:1012A0001B681B684C331B687A68126810464FF045
:1012B000FF3198477B681B6818464FF0FF326FF08C
:1012C000004303F025FF7B681B681B6848331B68DD
:1012D0007A681268104698470837BD4680BD00BF3F
:1012E00080B584B000AF78600023BB730123FB732B
:1012F00011E07868FFF754FF0346002B0CBF002372
:101300000123DBB2002B03D0BA7BFB7B1343BB73FF
:10131000FB7B5B00FB73FB7B002BEAD1BB7B18469E
:101320001037BD4680BD00BF80B584B000AF786087
:101330000B46FB700123FB730FE0FA7BFB78134035
:10134000DBB2002B01D0012300E0002378681946AE
:10135000FFF772FFFB7B5B00FB73FB7B002BECD189
:101360001037BD4680BD00BF90B587B000AFF860B4
:10137000B9607A6000237B610AE07B69BA68D4189F
:10138000F868FFF7ADFF034623707B6901337B618B
:101390007A697B689A42F0DB1C37BD4690BD00BF7E
:1013A00080B586B000AFF860B9607A6000237B61D9
:1013B0000AE07B69BA6813441B78F8681946FFF79E
:1013C000B3FF7B6901337B617A697B689A42F0DB0A
:1013D0001837BD4680BD00BF80B487B000AFF8604D
:1013E000B9607A60BB687B610023FB7422E07B6993
:1013F0005A1C7A611B78BB7408237B7417E0FA7C53
:10140000BB7C5340DBB203F001033B74FB7C5B10FD
:10141000FB743B7C002B04D0FB7C83F07303DB4329
:10142000FB74BB7C5B10BB747B7C013B7B747B7C63
:10143000002BE4D17B685A1E7A60002B0CBF00237E
:101440000123DBB2002BD2D1FB7C18461C37BD46F2
:101450005DF8047B704700BF80B483B000AF786054
:101460007B6819221A707B6800225A707B68002200
:101470009A707B6818460C37BD465DF8047B704750
:1014800080B582B000AF786039607B68012B07D1EE
:101490003A684FF6FF739A4202D10348FFF7DCFF28
:1014A0000837BD4680BD00BF9000002080B500AF6A
:1014B00001204FF6FF71FFF7E3FF80BD80B582B0DA
:1014C00000AF78607B681846064964224FF4FA63DF
:1014D0000BF0C0FC7B68044A1A607B68184608372A
:1014E000BD4680BDE4E1000820EB000880B483B075
:1014F00000AF78600C37BD465DF8047B704700BFD5
:1015000080B59AB002AF78607B68012283F85120E1
:101510007B68032283F850207B6850333E4819468D
:10152000012200F089F87B6851333C4819460122BA
:1015300000F096F8796836A3D3E90023CDE90023BB
:1015400008464FF000024FF0000304F04FF97B68AB
:1015500050333348194600F097F807F10803314833
:10156000194600F0B1F8BB891AB23B8B1BB2134489
:101570001846FEF75FFF02460B46104619464FF02D
:101580000002294BFEF7BCFF02460B4610461946E7
:101590004FF000024FF08043FFF7DCF802460B46A5
:1015A000C7E91623D7E916014FF000021F4BFFF7DA
:1015B00019FA0346002B08D01D48012100F082F9DA
:1015C0001B48002100F08EF91AE0D7E916014FF010
:1015D0000002184BFFF724FA0346002B08D01448EA
:1015E000002100F06FF91248012100F07BF907E0BB
:1015F0000F48002100F066F90D48002100F072F953
:101600007B68184604F008F9A1E700BFAFF300803B
:1016100000E1F50500000000000A0020800A00201B
:10162000280A00203806002000407F3F00003EC00E
:101630004401002000003E4080B584B000AFF86057
:10164000B9601346FB71FA68FB791046B9681A460F
:10165000002304F0C5FA034618461037BD4680BD86
:1016600080B584B000AFF860B9601346FB71FA68CA
:10167000FB791046B9681A46002304F0B1FA034614
:1016800018461037BD4680BD80B485B000AF786085
:1016900039607B6801221A757B68DB68FB60FB6838
:1016A0001A783B681A707B6800221A757B68D3E948
:1016B0000823013243F100037968C1E90823143794
:1016C000BD465DF8047B704780B584B000AF78609C
:1016D00039607B68012283F800217B68D3F8F830F9
:1016E000FB603A68FB6811461A46502308461146CB
:1016F0001A4603F091FF7B68002283F800217B6883
:1017000003F58873D3E90023013243F100037968BC
:1017100001F58871C1E900231037BD4680BD00BFC7
:1017200080B582B000AF78607B68084A1A607B6839
:1017300018460BF0FDFB0023002B02D0786803F065
:1017400095FF7B6818460837BD4680BD20EB000832
:1017500080B582B000AF78607868FFF7E1FF786805
:1017600003F084FF7B6818460837BD4680BD00BF84
:1017700080B582B000AF786039607B68012B0CD1F6
:101780003A684FF6FF739A4207D10548FFF796FE75
:1017900003480449044A0CF01FFD0837BD4680BDCC
:1017A0009800002021170008DC0C002080B500AF55
:1017B00001204FF6FF71FFF7DBFF80BD80B483B0DF
:1017C00000AF78600C37BD465DF8047B704700BF02
:1017D00080B582B000AF786039607B68043318460A
:1017E00006493A68002303F019FD7B68044A1A6031
:1017F0007B6818460837BD4680BD00BF940B0020AB
:1018000050EB000880B582B000AF78607B68094A71
:101810001A607B680433184603F048FD0023002B50
:1018200002D0786803F022FF7B6818460837BD466F
:1018300080BD00BF50EB000880B582B000AF78607B
:101840007868FFF7DFFF786803F010FF7B681846C1
:101850000837BD4680BD00BF80B582B000AF78605C
:101860007B6818460549FFF7B3FF7B68044A1A6096
:101870007B6818460837BD4680BD00BFF4E100080C
:1018800038EB000880B582B000AF78600A480121CB
:101890000122002305F06EF90848012101220023EE
:1018A00005F068F9064801210122002305F062F9DC
:1018B0000837BD4680BD00BFF00000200C010020AD
:1018C0002801002080B582B000AF78600B46FB7025
:1018D000FB780348194605F053FA0837BD4680BD2A
:1018E000F000002080B582B000AF78600B46FB703E
:1018F000FB780348194605F043FA0837BD4680BD1A
:101900000C01002080B582B000AF78607B68084A87
:101910001A607B681846FFF775FF0023002B02D082
:10192000786803F0A3FE7B6818460837BD4680BD83
:1019300038EB000880B582B000AF78607868FFF7B8
:10194000E1FF786803F092FE7B6818460837BD46D1
:1019500080BD00BF80B582B000AF786039607B6821
:10196000012B18D13A684FF6FF739A4213D10B48F6
:10197000072105F0CBF80A48062105F0C7F8094809
:10198000252105F0C3F80848FFF766FF0648074918
:10199000074A0CF021FC0837BD4680BDF00000204E
:1019A0000C01002028010020440100200519000836
:1019B000DC0C002080B500AF01204FF6FF71FFF76F
:1019C000C9FF80BD80B582B000AF78607B681846E3
:1019D000064964224FF4FA630BF03CFA7B68044A30
:1019E0001A607B6818460837BD4680BD00E20008D3
:1019F00068EB000880B582B000AF78600448012130
:101A00000122002305F0B6F80837BD4680BD00BFAF
:101A10005801002080B483B000AF786000BF0C375D
:101A2000BD465DF8047B704780B582B000AF78603A
:101A30007B68084A1A607B6818460BF079FA002325
:101A4000002B02D0786803F011FE7B681846083737
:101A5000BD4680BD68EB000880B582B000AF7860FD
:101A60007868FFF7E1FF786803F000FE7B681846AE
:101A70000837BD4680BD00BF80B582B000AF78603A
:101A800039607B68012B10D13A684FF6FF739A4298
:101A90000BD10748212105F039F80648FFF792FFDE
:101AA00004480549054A0CF097FB0837BD4680BD40
:101AB0005801002078010020291A0008DC0C0020C1
:101AC00080B500AF01204FF6FF71FFF7D5FF80BD55
:101AD00080B483B000AF786039607B683A681A6080
:101AE0007B6818460C37BD465DF8047B704700BF25
:101AF00080B582B000AF78607B6818460549FFF773
:101B000067FE7B68044A1A607B6818460837BD4642
:101B100080BD00BF10E2000880EB000880B582B0F5
:101B200000AF78600C480D49002206F059FC0A48C5
:101B30000121002206F0C6FE09480A4905F04EFBC5
:101B400009484FF4E13107F0FBFB0848FFF7BEFA04
:101B50000837BD4680BD00BFC801002040420F00CD
:101B6000E4010020A08601000002002038020020CD
:101B700080B582B000AF78607B68084A1A607B68E5
:101B80001846FFF73FFE0023002B02D0786803F0D1
:101B90006DFD7B6818460837BD4680BD80EB0008A8
:101BA00080B582B000AF78607868FFF7E1FF7868B1
:101BB00003F05CFD7B6818460837BD4680BD00BF5A
:101BC00080B584B002AF786039607B68012B32D178
:101BD0003A684FF6FF739A422DD11F23009317489E
:101BE00002211D221E2306F0BBFB154801211622EF
:101BF000172305F0ADFA0C2300930B230193114832
:101C0000012109220A2307F03BFA1E2300933B23FC
:101C100001930D4803212A222B2307F031FA0B48A8
:101C20000949FFF755FF0A48FFF762FF08480949CD
:101C3000094A0CF0D1FA0837BD4680BDC801002022
:101C4000E4010020000200201C02002038020020D5
:101C50003C020020711B0008DC0C002080B500AFA6
:101C600001204FF6FF71FFF7ABFF80BD80B483B05A
:101C700000AF78600C37BD465DF8047B704700BF4D
:101C800080B582B000AF78607B6818461649642240
:101C90004FF4FA630BF0DEF87B68144A1A607B6835
:101CA000002283F850207B68002283F851207B6853
:101CB000002283F852207B68002283F853207B683F
:101CC000002283F854207B6800229A657B680022FA
:101CD00083F85C207B68002283F85D207B681846CF
:101CE0000837BD4680BD00BF1CE2000898EB000825
:101CF00080B586B002AF786033480021012200F041
:101D000067F879682EA3D3E90023CDE900230846BC
:101D10004FF000024FF0000303F068FD7B689A6DFE
:101D20007B6893F85030002B01D0012300E00023A2
:101D30001A447B689A657B689A6D7B6893F851308A
:101D4000002B01D0012300E000231A447B689A6530
:101D50007B689A6D7B6893F85230002B01D0012389
:101D600000E000231A447B689A657B689A6D7B6863
:101D700093F85330002B01D0012300E000231A44D4
:101D80007B689A657B689B6D052B12D9002343F015
:101D90001903FB72FB6803F07F43FB6005233B8163
:101DA0000123BB7207F1080308481946012200F01D
:101DB00029F87B68184603F02FFDAFE7AFF30080EA
:101DC0000065CD1D00000000000B0020D808002099
:101DD00080B584B000AF786013460A467A807B7085
:101DE0007B88FB81796807F10E027B7808461146F3
:101DF0001A46002303F0F4FE034618461037BD468A
:101E000080BD00BF80B584B000AFF860B9601346F4
:101E1000FB71FA68FB791046B9681A46002303F093
:101E2000DFFE034618461037BD4680BD80B582B040
:101E300000AF78607B68084A1A607B6818460BF030
:101E400077F80023002B02D0786803F00FFC7B6842
:101E500018460837BD4680BD98EB000880B582B0B3
:101E600000AF78607868FFF7E1FF786803F0FEFB69
:101E70007B6818460837BD4680BD00BF80B582B07C
:101E800000AF786039607B68012B0CD13A684FF65F
:101E9000FF739A4207D10548FFF7F2FE0348044951
:101EA000044A0CF099F90837BD4680BD5002002065
:101EB0002D1E0008DC0C002080B500AF01204FF67D
:101EC000FF71FFF7DBFF80BD80B483B000AF7860A7
:101ED0000B46FB7097F903307A68C3F1200362FA6E
:101EE00003F318460C37BD465DF8047B704700BF0E
:101EF00080B483B000AF78607B681B0C7A68534075
:101F00007B607B680C4A02FB03F37B607B685B0BA6
:101F10007A6853407B607B68084A02FB03F37B606E
:101F20007B681B0C7A6853407B607B6818460C37D3
:101F3000BD465DF8047B70476BCAEB8535AEB2C217
:101F400080B58EB000AFF860B9607A60BB68002BD6
:101F500000DA03339B10BB627B683B633D4B7B62C3
:101F60003D4B3B62BB6A9B00FA681344FB61BB6A52
:101F70005B427B6327E07B6B9B00FA6913441B6821
:101F8000BB61BB697A6A02FB03F3BB61B8690F21CD
:101F9000FFF79AFFB861BB693A6A02FB03F3BB61C2
:101FA0003A6BBB6953403B63386B0D21FFF78CFFE5
:101FB00038633A6B13469B001A44284B13443B6327
:101FC0007B6B01337B637B6B002BD4D1BB6A9B00A3
:101FD000FA6813447B610023FB62BB6803F00303D0
:101FE000022B0BD0032B02D0012B0ED025E07B69F6
:101FF00002331B781B04FA6A5340FB627B6901338E
:102000001B781B02FA6A5340FB627B691B78FA6AF1
:102010005340FB62FB6A7A6A02FB03F3FB62F86AD5
:102020000F21FFF751FFF862FB6A3A6A02FB03F3E4
:10203000FB623A6BFB6A53403B63BB683A6B5340AD
:102040003B63386BFFF754FF38633B6B18463837F8
:10205000BD4680BD512D9ECC9335871B646B54E6E5
:1020600080B582B000AF78607B681846064964226C
:102070004FF4FA630AF0EEFE7B68044A1A607B684C
:1020800018460837BD4680BD2CE20008B0EB0008BA
:1020900080B58AB002AF78600B46FB70FB78012BED
:1020A00005D0FB78022B02D04FF0FF334CE0284ADA
:1020B00007F1140312881A80264A07F110031288C8
:1020C0001A80FB782448194601F0F2F907F114034D
:1020D00022481946022206F085FC0346B3F1FF3F71
:1020E00014BF00230123DBB2002B05D01A4801F0F6
:1020F0002DFA4FF0FF3327E0194A07F10C0312883D
:102100001A804FF0FF33FB610023BB6115E007F13C
:10211000100207F10C03022100911048114602221F
:1021200006F08AFD7B7BDBB25BB2002B02DB002377
:10213000FB6105E0BB690133BB61BB69632BE6DD75
:10214000054801F003FAFB6918462037BD4680BDFB
:102150003CE2000840E20008CC040020C801002056
:1021600044E2000880B584B000AF7860F970BA70BE
:102170007B70FB78012B05D0FB78022B02D04FF04F
:10218000FF3321E0BB783B727B787B72FB78104891
:10219000194601F08DF90023FB6007F108030D4893
:1021A0001946022206F01EFC0346B3F1FF3F14BF9E
:1021B00000230123DBB2002B02D04FF0FF33FB6082
:1021C000034801F0C3F9FB6818461037BD4680BDCF
:1021D000CC040020C801002080B582B000AF786038
:1021E0000B46FB70FB7878681946FFF751FF0346F2
:1021F000B3F1FF3F14BF00230123DBB2002B02D059
:102200004FF0FF336DE003F00FFC384A4FF000034E
:10221000121843EB01031046194600220AF06AFF28
:10222000FB78786819466B220023FFF79BFF034673
:10223000B3F1FF3F14BF00230123DBB2002B02D018
:102240004FF0FF334DE003F0EFFB284A4FF000035F
:10225000121843EB01031046194600220AF04AFF08
:10226000FB78786819461B220023FFF77BFF0346A3
:10227000B3F1FF3F14BF00230123DBB2002B02D0D8
:102280004FF0FF332DE003F0CFFB184A4FF000036F
:10229000121843EB01031046194600220AF02AFFE8
:1022A000FB78786819461C221823FFF75BFF03466A
:1022B000B3F1FF3F14BF00230123DBB2002B02D098
:1022C0004FF0FF330DE003F0AFFB084A4FF000037F
:1022D000121843EB01031046194600220AF00AFFC8
:1022E000002318460837BD4680BD00BF40420F009E
:1022F00080B586B000AFF8600B467A60FB72FB7A5F
:10230000012B05D0FB7A022B02D04FF0FF336DE09A
:10231000FB7A3848194601F0CBF8BB23FB7507F16F
:10232000170335481946012206F05CFB32487968EC
:102330000E2206F0EDFB0346B3F1FF3F14BF00236E
:102340000123DBB2002B05D02A4801F0FFF84FF043
:10235000FF334BE0274801F0F9F87B68B3F9083008
:102360009BB21BB2184602F07BFD03461A467B68FF
:102370001A817B68B3F90A309BB21BB2184602F08F
:102380006FFD03461A467B685A817B68B3F90C30AF
:102390009BB21BB2184602F063FD03461A467B68E7
:1023A0009A817B68B3F900309BB21BB2184602F0E9
:1023B00057FD03461A467B681A807B68B3F90230E2
:1023C0009BB21BB2184602F04BFD03461A467B68CF
:1023D0005A807B68B3F904309BB21BB2184602F0F6
:1023E0003FFD03461A467B689A800023184618373B
:1023F000BD4680BDCC040020C801002080B598B047
:1024000000AF78604FF000024FF00003C7E91623D9
:102410004FF000024FF00003C7E914234FF0000211
:102420004FF00003C7E912234FF000024FF0000302
:10243000C7E910234FF000024FF00003C7E90E2355
:102440004FF000024FF00003C7E90C230023FB62AA
:1024500077E007F11C03786801211A46FFF748FF6F
:1024600007F10C03786802211A46FFF741FFBB8C85
:102470001BB21846FDF7DEFF02460B46D7E91601F0
:10248000FDF78CFE02460B46C7E91623FB8C1BB2F8
:102490001846FDF7CFFF02460B46D7E91401FDF7BA
:1024A0007DFE02460B46C7E914233B8D1BB218463E
:1024B000FDF7C0FF02460B46D7E91201FDF76EFE9D
:1024C00002460B46C7E91223BB8A1BB21846FDF72A
:1024D000B1FF02460B46D7E91001FDF75FFE024649
:1024E0000B46C7E91023FB8A1BB21846FDF7A2FF73
:1024F00002460B46D7E90E01FDF750FE02460B4699
:10250000C7E90E233B8B1BB21846FDF793FF02462B
:102510000B46D7E90C01FDF741FE02460B46C7E921
:102520000C2303F081FA2F4A4FF00003121843EBFB
:1025300001031046194600220AF0DCFDFB6A013354
:10254000FB62FB6AB3F57A7F83DBD7E916014FF0B4
:102550000002254BFEF7FEF802460B462349C1E96F
:102560000023D7E914014FF000021F4BFEF7F2F8E9
:1025700002460B461E49C1E90023D7E912014FF07C
:102580000002194BFEF7E6F802460B461949C1E96D
:102590000023D7E910014FF00002134BFEF7DAF8E1
:1025A00002460B461449C1E90023D7E90E014FF05A
:1025B00000020D4BFEF7CEF802460B460F49C1E96B
:1025C0000023D7E90C014FF00002074BFEF7C2F8D9
:1025D00002460B460A49C1E9002318466037BD464A
:1025E00080BD00BF40420F0000408F40000000202F
:1025F000080000201000002018000020200000200B
:10260000280000202DE9B04F2DED088BB0B000AFB1
:1026100078603960954B1C683B68B3F900309BB219
:102620001BB21846FDF706FF7A6804F10A03DB00C7
:102630001344C3E900018D4B1C683B68B3F90230B9
:102640009BB21BB21846FDF7F5FE7A6804F114033D
:10265000DB001344C3E90001844B1C683B68B3F9F9
:1026600004309BB21BB21846FDF7E4FE7A6804F111
:102670001E03DB001344C3E900017C4B1C683B686C
:10268000B3F90C309BB21BB21846FDF7D3FE7A6843
:1026900004F10F03DB001344C3E90001734B1C6812
:1026A0003B68B3F90E309BB21BB21846FDF7C2FE71
:1026B0007A6804F11903DB001344C3E900016B4B92
:1026C0001C683B68B3F910309BB21BB21846FDF78B
:1026D000B1FE7A6804F12303DB001344C3E900016F
:1026E0004FF000024FF00003C7E92E234FF0000225
:1026F0004FF00003C7E92C234FF000024FF0000316
:10270000C7E92A234FF000024FF00003C7E928234E
:102710004FF000024FF00003C7E926234FF00002FC
:102720004FF00003C7E924230023C7F88C30BAE137
:10273000D7F88C30002B40F351817A68D7F88C3071
:102740000A33DB001344D3E90001D7F88C30013B96
:102750007A680A33DB001344D3E90023FDF71CFD3C
:1027600002460B46C7E92023D7E91A45D7E92001DD
:102770004FF000023E4BFEF735F90346002B06D022
:10278000D7F88080D7F8843083F0004901E0D7E99A
:1027900020892046294642464B46FDF7FFFC02466B
:1027A0000B46C7E91A237A68D7F88C301433DB005C
:1027B0001344D3E90001D7F88C30013B7A680A331F
:1027C000DB001344D3E90023FDF7E6FC02460B4689
:1027D000C7E92023D7E91C45D7E920014FF00002C3
:1027E000234BFEF7FFF80346002B06D0D7F880A056
:1027F000D7F8843083F0004B01E0D7E920AB2046C6
:10280000294652465B46FDF7C9FC02460B46C7E91E
:102810001C237A68D7F88C301E33DB001344D3E9CD
:102820000001D7F88C30013B7A680A33DB0013448F
:10283000D3E90023FDF7B0FC02460B46C7E920238D
:10284000D7E91E45D7E920014FF00002084BFEF7FB
:10285000C9F80346002B0DD097ED208AD7F88430B5
:1028600083F0004308EE903A06E000BF58040020D1
:102870000000F03F97ED208B2046294653EC182BA3
:10288000FDF78CFC02460B46C7E91E237A68D7F891
:102890008C300A33DB001344D3E90001D7F88C30C5
:1028A000013B7A680A33DB001344D3E90023FDF7C8
:1028B00073FC02460B46C7E92023D7E91445D7E944
:1028C00020014FF000029D4BFEF78CF80346002BD1
:1028D00008D097ED209AD7F8843083F0004309EEB2
:1028E000903A01E097ED209B2046294653EC192BA6
:1028F000FDF754FC02460B46C7E914237A68D7F863
:102900008C301433DB001344D3E90001D7F88C304A
:10291000013B7A680A33DB001344D3E90023FDF757
:102920003BFC02460B46C7E92023D7E91645D7E909
:1029300020014FF00002814BFEF754F80346002BB4
:1029400008D097ED20AAD7F8843083F000430AEE30
:10295000903A01E097ED20AB2046294653EC1A2B24
:10296000FDF71CFC02460B46C7E916237A68D7F828
:102970008C301E33DB001344D3E90001D7F88C30D0
:10298000013B7A680A33DB001344D3E90023FDF7E7
:1029900003FC02460B46C7E92023D7E91845D7E9CF
:1029A00020014FF00002654BFEF71CF80346002B98
:1029B00008D097ED20BAD7F8843083F000430BEEAF
:1029C000903A01E097ED20BB2046294653EC1B2BA3
:1029D000FDF7E4FB02460B46C7E918237A68D7F8EF
:1029E0008C300A33DB001344D3E90023D7E92E01EE
:1029F000FDF7D4FB02460B46C7E92E237A68D7F8C9
:102A00008C301433DB001344D3E90023D7E92C01C5
:102A1000FDF7C4FB02460B46C7E92C237A68D7F8BA
:102A20008C301E33DB001344D3E90023D7E92A019D
:102A3000FDF7B4FB02460B46C7E92A237A68D7F8AC
:102A40008C300F33DB001344D3E90023D7E928018E
:102A5000FDF7A4FB02460B46C7E928237A68D7F89E
:102A60008C301933DB001344D3E90023D7E9260166
:102A7000FDF794FB02460B46C7E926237A68D7F890
:102A80008C302333DB001344D3E90023D7E924013E
:102A9000FDF784FB02460B46C7E92423D7F88C30A8
:102AA0000133C7F88C30D7F88C30042B7FF740AE59
:102AB000D7E92E014FF00002214BFDF74BFE0246F5
:102AC0000B46C7E92E23D7E92C014FF000021C4B1F
:102AD000FDF740FE02460B46C7E92C23D7E92A0141
:102AE0004FF00002164BFDF735FE02460B46C7E9D4
:102AF0002A23D7E928014FF00002114BFDF72AFEE7
:102B000002460B46C7E92823D7E926014FF0000209
:102B10000B4BFDF71FFE02460B46C7E92623D7E9FC
:102B200024014FF00002064BFDF714FE02460B464F
:102B3000C7E924230023C7F8883077E00000F03F7E
:102B400000001440D7F88830DB0007F1C0000344D0
:102B5000583BD3E90023104619464FF00002894B39
:102B6000FDF71CFB02460B464FF000008649FDF7BF
:102B7000F1FD02460B46D7F88810C90007F1C000E6
:102B80000144B839C1E90023D7F88830DC1CD7F8F4
:102B90008830DB0007F1C0021344703BD3E9002307
:102BA000104619464FF00002764BFDF7F7FA024641
:102BB0000B464FF000007449FDF7CCFD02460B4672
:102BC000E10007F1C0000144B839C1E90023D7F89A
:102BD00088309C1DD7F88830DB0007F1C002134411
:102BE000B83BD3E900234FF000006649FDF7D4FA63
:102BF00002460B4610461946D7F888300333DB00EF
:102C000007F1C0021344B83BD3E90023FDF7C4FA2F
:102C100002460B46E10007F1C0000144B839C1E9A2
:102C20000023D7F888300133C7F88830D7F88830C8
:102C3000022B87DDD7E9022310461946D7E92E2358
:102C4000FDF75EFC02460B4614461D46D7E90823F5
:102C500010461946D7E92823FDF752FC02460B46D9
:102C600020462946FDF79AFA02460B4614461D46B1
:102C7000D7E90E017B68D3E95023FDF741FC0246FA
:102C80000B4620462946FDF789FA02460B4639686D
:102C90008A61CB61D7E9042310461946D7E92C2372
:102CA000FDF72EFC02460B4614461D46D7E90A23C3
:102CB00010461946D7E92623FDF722FC02460B46AB
:102CC00020462946FDF76AFA02460B4614461D4681
:102CD000D7E910017B68D3E95223FDF711FC0246C6
:102CE0000B4620462946FDF759FA02460B4639683D
:102CF0000A624B62D7E9062310461946D7E92A2310
:102D0000FDF7FEFB02460B4614461D46D7E90C2391
:102D100010461946D7E92423FDF7F2FB02460B467D
:102D200020462946FDF73AFA02460B4614461D4650
:102D3000D7E912017B68D3E95423FDF7E1FB024692
:102D40000B4620462946FDF729FA02460B4639680C
:102D50008A62CB6239688A69CB697968C1E9502394
:102D600039680A6A4B6A7968C1E9522339688A6A04
:102D7000CB6A7968C1E95423C037BD46BDEC088BE6
:102D8000BDE8B08F0000F03F0000E03F80B58CB0A0
:102D900002AF786078680121FFF71EFA7868022197
:102DA000FFF71AFA7868FFF729FB7968304A4FF085
:102DB0000003CDE9002308464FF000024FF0000366
:102DC00002F014FD07F11803786801211A46FFF795
:102DD0008FFA07F10803786802211A46FFF788FA8C
:102DE0007B6803F5AC7207F11803083310461946E7
:102DF000062202F011FC7B6803F5B27207F10803AA
:102E0000083310461946062202F006FC7B6803F5DB
:102E1000AF7207F1180310461946062202F0FCFBB8
:102E20007B6803F5B57207F10803104619460622C0
:102E300002F0F2FB7B6803F5AC7378681946FFF784
:102E4000E1FB02F0F1FD02460B46796801F5D07115
:102E5000C1E900237B6803F5AC73064819460122DB
:102E600000F00AF87B68184602F0D6FCAAE700BF1B
:102E7000809698001006002080B584B000AFF860FE
:102E8000B9601346FB71FA68FB791046B9681A46B7
:102E9000002302F0A5FE034618461037BD4680BD4C
:102EA00080B582B000AF78607B68084A1A607B68A2
:102EB00018460AF03DF80023002B02D0786802F093
:102EC000D5FB7B6818460837BD4680BDB0EB0008CF
:102ED00080B582B000AF78607868FFF7E1FF78686E
:102EE00002F0C4FB7B6818460837BD4680BD00BFB2
:102EF00080B582B000AF786039607B68012B0CD15F
:102F00003A684FF6FF739A4207D10548FFF7A8F8D1
:102F100003480449044A0BF05FF90837BD4680BDF9
:102F2000B0020020A12E0008DC0C002080B500AF0C
:102F300001204FF6FF71FFF7DBFF80BD80B582B047
:102F400000AF78607B681846064964224FF4FA6344
:102F500009F080FF7B68044A1A607B6818460837CE
:102F6000BD4680BD48E20008C8EB00080000000034
:102F700080B582B000AF7860154804F0BBF902F06C
:102F800053FD02460B4610461946FDF78BFA0246E2
:102F90000B46104619460CA3D3E90023FDF7FEF8B3
:102FA00002460B4610461946FDF796FD02460B46B3
:102FB0001046194600220AF09DF80548054904F01C
:102FC0000DF90837BD4680BD0000000080841E4119
:102FD000E4010020A086010080B586B000AF7860D3
:102FE000396055233B7207F10803013318463968ED
:102FF000082202F011FB4E237B745523BB74C923B6
:10300000FB741F233B750648FEF77EF807F10803A3
:10301000034819460D22FEF7C3F91837BD4680BD97
:103020003802002080B584B000AF7860CC233B73B9
:1030300044237B730648FEF767F807F10C03044846
:1030400019460222FEF7ACF91037BD4680BD00BF1D
:103050003802002080B58AB000AF7860396055230F
:103060003B7607F11803013318463968082202F04D
:10307000D3FABE2387F8213000237B6225E019486C
:10308000FEF742F807F11803164819460A22FEF720
:1030900087F907F10C03134819460922FEF764F972
:1030A00007F10C030F4819460822FEF795F903466D
:1030B0001A467B7D9A4214BF00230123DBB2002B0A
:1030C00000D005E07B6A01337B627B6A022BD6DD90
:1030D00007F10C031B887B847B8C1BB218462837B6
:1030E000BD4680BD3802002080B584B000AF786056
:1030F000396021484821214A012304F0BFF9F860D2
:10310000FB68DB0FDBB2002B04D07868FFF730FFE1
:10311000FB682DE0184848213A68022304F0E2F9E0
:10312000F860FB68DB0FDBB2002B04D07868FFF798
:103130001FFFFB681CE03B681B889BB21BB2184654
:1031400001F08EFE03469AB23B681A800A48482175
:103150000B4A032304F092F9F860FB68DB0FDBB243
:10316000002B04D07868FFF703FFFB6800E0FB68E2
:1031700018461037BD4680BDE4010020C804002079
:103180003400002080B584B000AF786039602148F9
:103190004821214A012304F071F9F860FB68DB0F34
:1031A000DBB2002B04D07868FFF7E2FEFB682DE06D
:1031B000184848213A68022304F094F9F860FB6843
:1031C000DB0FDBB2002B04D07868FFF7D1FEFB6881
:1031D0001CE03B681B889BB21BB2184601F040FE06
:1031E00003469AB23B681A800A4848210B4A0323D7
:1031F00004F044F9F860FB68DB0FDBB2002B04D06D
:103200007868FFF7B5FEFB6800E001231846103729
:10321000BD4680BDE4010020C8040020300000202D
:1032200080B584B000AF78600A4848210A4A032379
:1032300004F024F9F860FB68DB0FDBB2002B04D04C
:103240007868FFF795FE002300E0FB68184610370A
:10325000BD4680BDE40100203000002000000000D9
:1032600080B588B002AF786000237B6102E07B69A3
:1032700001337B617B69092B08DC7868FFF7D0FF9D
:10328000B860BB68002B01DA012300E00023002BAB
:10329000EDD178683649FFF79FFE796832A3D3E90C
:1032A0000023CDE9002308464FF000024FF0000351
:1032B00002F09CFA0023FB740023FB60FB7C83F08C
:1032C0000103DBB2002B07D07B68503378681946C6
:1032D000FFF70AFFB86014E07B685233786819463C
:1032E000FFF750FFB86002F09FFB02460B4679687B
:1032F000C1E918237B6850331E481946012200F0AB
:103300003BF8FB68002B03D17868FFF78BFE16E0D3
:1033100078681749FFF79EFE03461A467B68A3F8B4
:10332000562002F081FB02460B467968C1E918235A
:103330007B6850330F481946012200F01DF8FB7CD2
:1033400083F00103FB74FB680133FB60FB68012B16
:1033500001DCFB6800E00023FB607B68184602F09C
:103360005BFAABE7AFF3008000E1F5050000000079
:10337000D8EB00088007002080B584B000AFF8606B
:10338000B9601346FB71FA68FB791046B9681A46B2
:10339000002302F025FC034618461037BD4680BDC9
:1033A00080B582B000AF78607B68084A1A607B689D
:1033B000184609F0BDFD0023002B02D0786802F00A
:1033C00055F97B6818460837BD4680BDC8EB000834
:1033D00080B582B000AF78607868FFF7E1FF786869
:1033E00002F044F97B6818460837BD4680BD00BF2F
:1033F00080B582B000AF786039607B68012B0CD15A
:103400003A684FF6FF739A4207D10548FFF796FDD9
:1034100003480449044A0AF0DFFE0837BD4680BD70
:1034200060040020A1330008DC0C002080B500AF50
:1034300001204FF6FF71FFF7DBFF80BD80B582B042
:1034400000AF78607B6818460649FEF7C1F97B68D3
:10345000054A1A607B6800221A757B68184608378F
:10346000BD4680BD58E20008E8ED000880B582B096
:1034700000AF78600B4801210122012303F07AFBA1
:10348000094801210122012303F074FB07480121AF
:103490000122012303F06EFB7B6800221A750837B6
:1034A000BD4680BDE4040020000500201C0500206E
:1034B00080B582B000AF78600B46FB701F4809F002
:1034C0001DFC7B681B7D002B02D04FF0FF3331E0E9
:1034D0007B68FA781A75FB78022B10D0032B1BD06F
:1034E000012B26D11648012103F04AFC1548012181
:1034F00003F046FC1448002103F042FC19E0124896
:10350000012103F03DFC0F48012103F039FC0C4878
:10351000002103F035FC0CE00B48012103F030FCE6
:103520000748012103F02CFC0648002103F028FC89
:1035300000BF002318460837BD4680BD380500206F
:10354000000500201C050020E404002080B582B0A6
:1035500000AF78600C48012103F012FC0B480121F8
:1035600003F00EFC0A48012103F00AFC09480A494D
:10357000012205F037FA7B6800221A75074809F026
:103580001BFC0837BD4680BDE40400200005002078
:103590001C050020C8010020E0EB000838050020D1
:1035A00080B582B000AF78607B68084A1A607B689B
:1035B0001846FEF727F90023002B02D0786802F0A6
:1035C00055F87B6818460837BD4680BDE8ED000811
:1035D00080B582B000AF78607868FFF7E1FF786867
:1035E00002F044F87B6818460837BD4680BD00BF2E
:1035F00080B582B000AF786039607B68012B1BD149
:103600003A684FF6FF739A4216D10D48FFF716FF3E
:103610000B480C490C4A0AF0DFFD0C48262103F048
:1036200075FA0B48272103F071FA0A481C2103F0B0
:103630006DFA094809F04AFB0837BD4680BD00BF56
:10364000CC040020A1350008DC0C0020E40400209C
:10365000000500201C0500203805002080B500AFC3
:1036600001204FF6FF71FFF7C3FF80BD80B582B028
:1036700000AF78607B681846064964224FF4FA630D
:1036800009F0E8FB7B68044A1A607B681846083733
:10369000BD4680BD64E2000800EE000800000000A6
:1036A00080B59AB002AF78600023FB65796827A3E4
:1036B000D3E90023CDE9002308464FF000024FF084
:1036C000000302F093F8FB6D002B10DC07F14003C0
:1036D0007868194600F096F807F140031A48194631
:1036E0001A2206F0B7F8FB6D0133FB6525E0FB6D90
:1036F000012B10D107F10C037868194600F02CF863
:1037000007F10C0310481946222206F0A3F8FB6DBE
:103710000133FB6511E0FB6D012B0EDD07F130037A
:103720007868194600F0B2F807F1300306481946E8
:10373000122206F08FF80023FB657B68184602F022
:103740006BF8C0E7AFF3008000020020AA21EF0968
:1037500000000000AFF30080B0B586B004AF786021
:1037600039607B68503324481946FDF7ADFF3B684C
:10377000A8221A703B68591C7B68D3E92623D3B270
:103780000B703B68023300221A703B68033300223F
:103790001A703B680433194A12881A803B689A1DD4
:1037A0007B68503310461946182201F035FF7B68BC
:1037B000D3E91A237968D1E91C457968D1E91E015A
:1037C000CDE90045CDE902010D4801F0A9FB3B68B8
:1037D00003F11E04786839681E2200F0CDF8034614
:1037E0002360064B1B8801339AB2044B1A802223B4
:1037F00018460837BD46B0BD380600200806002030
:1038000074E2000890B583B000AF786039607B68DF
:10381000A0331C48194600F0C1F83B68A4221A7076
:103820003B68591C7B68D3E92C23D3B20B703B68EF
:10383000023300221A703B68033300221A703B687F
:103840000433114A12881A803B689A1D7B68A033A2
:1038500010461946102201F0DFFE3B6803F1160402
:1038600078683968162200F087F803462360064B13
:103870001B8801339AB2044B1A801A2318460C375E
:10388000BD4690BDA80700200A06002090B585B06F
:1038900000AF786039607B68B8333248194600F071
:1038A000A9F87B68BD3330481946FDF7EDFE7B680B
:1038B000BE332E48194600F0C1F83B68A2221A70A8
:1038C00002F0B2F802460B4610461946284A4FF05D
:1038D0000003FDF7CFF802460B46C7E902233B6819
:1038E00001333A7A1A703B68023300221A703B683F
:1038F000033300221A703B6804331E4A12881A8070
:103900003B6806337A6892F8BD20D1B27A6892F8A3
:10391000BE20D201D2B20A43D2B21A703B6807333A
:1039200000221A803B6803F109027B68B833104615
:103930001946052201F070FE3B6803F10E04786819
:1039400039680E2200F018F803462360094B1B88E3
:1039500001339AB2074B1A80102318461437BD461C
:1039600090BD00BF70080020280A0020A80A00208F
:1039700040420F000C06002080B584B000AFF86014
:10398000B9607A60B868796841F23732FEF7D8FAE0
:10399000034618461037BD4680BD00BFB0B485B0A1
:1039A00000AF786039607B68012283F858207B681B
:1039B0001B6DFB603B68FA68106851689568D468B5
:1039C000186059609D60DC60106951691861596127
:1039D0007B68002283F858207B68D3E91A230132E0
:1039E00043F100037968C1E91A231437BD46B0BC1E
:1039F000704700BF80B485B000AF786039607B68E5
:103A0000012283F820207B689B69FB603B68FA6891
:103A10001168196012791A717B68002283F82020DE
:103A20007B68D3E90C23013243F100037968C1E9D3
:103A30000C231437BD465DF8047B704780B485B015
:103A400000AF786039607B6801221A757B68DB689B
:103A5000FB60FB681A783B681A707B6800221A7555
:103A60007B68D3E90823013243F100037968C1E997
:103A700008231437BD465DF8047B704780B582B0DB
:103A800000AF78607B68084A1A607B68184609F0C6
:103A90004FFA0023002B02D0786801F0E7FD7B6825
:103AA00018460837BD4680BD00EE000880B582B0DC
:103AB00000AF78607868FFF7E1FF786801F0D6FD25
:103AC0007B6818460837BD4680BD00BF80B582B010
:103AD00000AF786039607B68012B0CD13A684FF6F3
:103AE000FF739A4207D10548FFF7C0FD0348044918
:103AF000044A0AF071FB0837BD4680BD4805002026
:103B00007D3A0008DC0C002080B500AF01204FF6A4
:103B1000FF71FFF7DBFF80BD80B582B000AF78603A
:103B20007B680A4A1A600A4801F040FA7B6804334D
:103B3000184601F0BBFB0023002B02D0786801F08F
:103B400095FD7B6818460837BD4680BD70EF0008BC
:103B500094E2000880B582B000AF78607868FFF723
:103B6000DBFF786801F082FD7B6818460837BD46A8
:103B700080BD00BF80B582B000AF78607B680A4A24
:103B80001A600A4801F012FA7B680433184601F003
:103B90008DFB0023002B02D0786801F067FD7B6865
:103BA00018460837BD4680BDD8EF0008A4E20008DB
:103BB00080B582B000AF78607868FFF7DBFF786887
:103BC00001F054FD7B6818460837BD4680BD00BF34
:103BD00080B582B000AF78607B68064A1A60002327
:103BE000002B02D0786801F041FD7B681846083749
:103BF000BD4680BD58EF000880B582B000AF786048
:103C00007868FFF7E5FF786801F030FD7B681846BB
:103C10000837BD4680BD00BF80B584B000AFF860F6
:103C2000B9607A603B60044801F0C0F9002318468F
:103C30001037BD4680BD00BFB8E2000880B584B033
:103C400000AFF860B9607A60FB681846B968502226
:103C50007B6801F055FFFB68034A1A60FB68184651
:103C60001037BD4680BD00BF48EF000880B483B068
:103C700000AF78607B68044A1A607B6818460C378E
:103C8000BD465DF8047B704758EF000880B582B0F0
:103C900000AF78607B681846FFF7E8FF7B68174A3B
:103CA0001A607B681A1D7B68C3F8F4207B6803F1F7
:103CB00054027B68C3F8F8207B6803F1A4027B6898
:103CC000C3F8FC207B68002283F800217B6803F5A1
:103CD00088714FF000024FF00003C1E900237B68B8
:103CE00003F58873D3E90023796801F58471C1E98C
:103CF00000237B6818460837BD4680BD30EF0008BA
:103D000080B584B000AFF860B9607A60FB6818468F
:103D1000B96818227B6801F0F3FEFB68034A1A6059
:103D2000FB6818461037BD4680BD00BF20EF000875
:103D300080B582B000AF78607B681846FFF796FFC9
:103D40007B68134A1A607B681A1D7B68DA647B689B
:103D500003F11C027B681A657B6803F134027B68FF
:103D60005A657B68002283F8582079684FF000027A
:103D70004FF00003C1E91A237B68D3E91A2379685D
:103D8000C1E918237B6818460837BD4680BD00BFCF
:103D900008EF000880B584B000AFF860B9607A60C1
:103DA000FB681846B96805227B6801F0A9FEFB682C
:103DB000034A1A60FB6818461037BD4680BD00BF35
:103DC000F8EE000880B582B000AF78607B681846D6
:103DD000FFF74CFF7B68134A1A607B681A1D7B68EB
:103DE0005A617B6803F109027B689A617B6803F181
:103DF0000E027B68DA617B68002283F820207968F4
:103E00004FF000024FF00003C1E90C237B68D3E9B7
:103E10000C237968C1E90A237B6818460837BD4638
:103E200080BD00BFE0EE000880B584B000AFF86050
:103E3000B9607A60FB681846B96807227B6801F0B0
:103E40005FFEFB68034A1A60FB6818461037BD46E0
:103E500080BD00BFD0EE000880B582B000AF7860B2
:103E60007B681846FFF702FF7B68134A1A607B687D
:103E70001A1D7B68DA617B6803F10B027B681A62AA
:103E80007B6803F112027B685A627B68002283F828
:103E9000282079684FF000024FF00003C1E90E239B
:103EA0007B68D3E90E237968C1E90C237B68184647
:103EB0000837BD4680BD00BFB8EE000880B584B0AD
:103EC00000AFF860B9607A60FB681846B9680622EE
:103ED0007B6801F015FEFB68034A1A60FB68184610
:103EE0001037BD4680BD00BFA8EE000880B582B087
:103EF00000AF78607B681846FFF7B8FE7B68134A0E
:103F00001A607B681A1D7B689A617B6803F10A025C
:103F10007B68DA617B6803F110027B681A627B6858
:103F2000002283F8242079684FF000024FF000034C
:103F3000C1E90C237B68D3E90C237968C1E90A2322
:103F40007B6818460837BD4680BD00BF90EE00086C
:103F500080B584B000AFF860B9607A60FB6818463D
:103F6000B96801227B6801F0CBFDFB68034A1A6047
:103F7000FB6818461037BD4680BD00BF80EE0008C4
:103F800080B582B000AF78607B681846FFF76EFEA0
:103F90007B68114A1A607B681A1D7B689A607B688F
:103FA0005A1D7B68DA607B689A1D7B681A617B68A2
:103FB00000221A7579684FF000024FF00003C1E942
:103FC00008237B68D3E908237968C1E906237B6865
:103FD00018460837BD4680BD68EE000880B584B03D
:103FE00000AFF860B9607A60FB681846B9680122D2
:103FF0007B6801F085FDFB68034A1A60FB68184680
:104000001037BD4680BD00BF58EE000880B582B0B5
:1040100000AF78607B681846FFF728FE7B68114A7E
:104020001A607B681A1D7B689A607B685A1D7B68E2
:10403000DA607B689A1D7B681A617B6800221A75BA
:1040400079684FF000024FF00003C1E908237B6854
:10405000D3E908237968C1E906237B681846083745
:10406000BD4680BD40EE000880B584B000AFF8606A
:10407000B9607A60FB681846B96802227B6801F073
:104080003FFDFB68034A1A60FB6818461037BD46BF
:1040900080BD00BF30EE000880B582B000AF786010
:1040A0007B681846FFF7E2FD7B68124A1A607B685E
:1040B0001A1D7B68DA607B689A1D7B681A617B68D1
:1040C00003F108027B685A617B6800221A767968DE
:1040D0004FF000024FF00003C1E90A237B68D3E9E7
:1040E0000A237968C1E908237B6818460837BD466A
:1040F00080BD00BF18EE000880B582B000AF7860C8
:104100007B68084A1A607B681846FFF761FD002348
:10411000002B02D0786801F0A9FA7B6818460837AE
:10412000BD4680BD18EE000880B582B000AF786053
:104130007868FFF7E1FF786801F098FA7B68184625
:104140000837BD4680BD00BF80B582B000AF786043
:104150007B68084A1A607B681846FFF739FD002320
:10416000002B02D0786801F081FA7B681846083786
:10417000BD4680BD40EE000880B582B000AF7860DB
:104180007868FFF7E1FF786801F070FA7B681846FD
:104190000837BD4680BD00BF80B582B000AF7860F3
:1041A0007B68084A1A607B681846FFF711FD0023F8
:1041B000002B02D0786801F059FA7B68184608375E
:1041C000BD4680BD68EE000880B582B000AF786063
:1041D0007868FFF7E1FF786801F048FA7B681846D5
:1041E0000837BD4680BD00BF80B582B000AF7860A3
:1041F0007B68084A1A607B681846FFF7E9FC0023D1
:10420000002B02D0786801F031FA7B681846083735
:10421000BD4680BD90EE000880B582B000AF7860EA
:104220007868FFF7E1FF786801F020FA7B681846AC
:104230000837BD4680BD00BF80B582B000AF786052
:104240007B68084A1A607B681846FFF7C1FC0023A8
:10425000002B02D0786801F009FA7B68184608370D
:10426000BD4680BDB8EE000880B582B000AF786072
:104270007868FFF7E1FF786801F0F8F97B68184685
:104280000837BD4680BD00BF80B582B000AF786002
:104290007B68084A1A607B681846FFF799FC002380
:1042A000002B02D0786801F0E1F97B6818460837E6
:1042B000BD4680BDE0EE000880B582B000AF7860FA
:1042C0007868FFF7E1FF786801F0D0F97B6818465D
:1042D0000837BD4680BD00BF80B582B000AF7860B2
:1042E0007B68084A1A607B681846FFF771FC002358
:1042F000002B02D0786801F0B9F97B6818460837BE
:10430000BD4680BD08EF000880B582B000AF786080
:104310007868FFF7E1FF786801F0A8F97B68184634
:104320000837BD4680BD00BF80B582B000AF786061
:104330007B68084A1A607B681846FFF749FC00232F
:10434000002B02D0786801F091F97B681846083795
:10435000BD4680BD30EF000880B582B000AF786008
:104360007868FFF7E1FF786801F080F97B6818460C
:104370000837BD4680BD00BF80B584B002AF78600D
:1043800039607B68012B40F006813A684FF6FF7375
:104390009A4240F0008181484FF0FF31804AFFF798
:1043A0004DFC7E487F49804A09F016FF7F48FFF7A1
:1043B0006DFC7E487E497C4A09F00EFF0023009385
:1043C0007C487649794A7C4B01F05AF979487B4917
:1043D000754A09F001FF7A484FF0FF31794AFFF73B
:1043E0008FFC77487849704A09F0F6FE7748FFF766
:1043F0009FFC764876496C4A09F0EEFE0023009354
:1044000074486F49714A6C4B01F03AF971486B4935
:10441000654A09F0E1FE70484FF0FF316F4AFFF73F
:10442000B9FC6D486E49604A09F0D6FE6D48FFF749
:10443000C9FC6C486C495C4A09F0CEFE002300932D
:104440006A486549674A5C4B01F01AF967485B495D
:10445000554A09F0C1FE66484FF0FF31654AFFF743
:10446000E3FC63486449504A09F0B6FE6348FFF72D
:10447000F3FC624862494C4A09F0AEFE0023009307
:1044800060485B495D4A4C4B01F0FAF85D484B4986
:10449000454A09F0A1FE5C484FF0FF315B4AFFF747
:1044A0000DFD59485A49404A09F096FE5948FFF710
:1044B0001DFD584858493C4A09F08EFE00230093E0
:1044C00056485149534A3C4B01F0DAF853483B49AE
:1044D000354A09F081FE52484FF0FF31514AFFF74B
:1044E00037FD4F485049304A09F076FE4F48FFF7F4
:1044F00047FD4E484E492C4A09F06EFE00230093BA
:104500004C484749494A2C4B01F0BAF849482B49D5
:10451000254A09F061FE48484FF0FF31474AFFF74E
:104520005DFD45484649204A09F056FE4548FFF7DB
:104530006DFD444844491C4A09F04EFE0023009397
:1045400042483D493F4A1C4B01F09AF83F481B49FD
:10455000154A09F041FE3E484FF0FF313D4AFFF752
:1045600083FD3B483C49104A09F036FE3B48FFF7C3
:1045700093FD3A483A490C4A09F02EFE0023009375
:1045800038483349354A0C4B01F07AF835480B4925
:10459000054A09F021FE0837BD4680BD10060020FF
:1045A00040E300088D4A0008DC0C0020380600209B
:1045B00029430008500700204CE30008753B000821
:1045C0008007002060E30008FD490008A8070020DC
:1045D000D9420008180800204808002074E30008A9
:1045E0006D4900087008002089420008A8080020D2
:1045F000D808002084E30008DD48000800090020F6
:1046000039420008400900207009002090E30008AA
:104610004D48000898090020E9410008D009002011
:10462000000A0020A4E30008BD470008280A002073
:1046300099410008500A0020800A0020B4E30008D5
:104640002D470008A80A002049410008D00A002090
:10465000000B0020C0E300089D460008280B002046
:10466000F9400008580B002080B584B000AFF86016
:10467000B9607A603B607B68022B04D9064800F081
:1046800095FC002304E0F868396800F02DFA012356
:1046900018461037BD4680BDD0E3000880B582B013
:1046A00000AF78607B680A4A1A600A4800F07EFC16
:1046B0007B681846FFF730FA0023002B02D0786899
:1046C00000F0D4FF7B6818460837BD4680BD00BFA8
:1046D00030EE0008E4E3000880B582B000AF7860F7
:1046E0007868FFF7DBFF786800F0C0FF7B6818464A
:1046F0000837BD4680BD00BF80B584B000AFF8600C
:10470000B9607A603B607B68012B04D9064800F0F1
:104710004DFC002304E0F868396800F017FA012323
:1047200018461037BD4680BDD0E3000880B582B082
:1047300000AF78607B680A4A1A600A4800F036FCCD
:104740007B681846FFF7E8F90023002B02D0786851
:1047500000F08CFF7B6818460837BD4680BD00BF5F
:1047600058EE0008E4E3000880B582B000AF78603E
:104770007868FFF7DBFF786800F078FF7B68184601
:104780000837BD4680BD00BF80B584B000AFF8607B
:10479000B9607A603B607B68012B04D9064800F061
:1047A00005FC002304E0F868396800F001FA0123F1
:1047B00018461037BD4680BDD0E3000880B582B0F2
:1047C00000AF78607B680A4A1A600A4800F0EEFB86
:1047D0007B681846FFF7A0F90023002B02D0786809
:1047E00000F044FF7B6818460837BD4680BD00BF17
:1047F00080EE0008E4E3000880B582B000AF786086
:104800007868FFF7DBFF786800F030FF7B681846B8
:104810000837BD4680BD00BF80B584B000AFF860EA
:10482000B9607A603B607B68062B04D9064800F0CB
:10483000BDFB002304E0F868396800F0EBF90123C0
:1048400018461037BD4680BDD0E3000880B582B061
:1048500000AF78607B680A4A1A600A4800F0A6FB3D
:104860007B681846FFF758F90023002B02D07868C0
:1048700000F0FCFE7B6818460837BD4680BD00BFCF
:10488000A8EE0008E4E3000880B582B000AF7860CD
:104890007868FFF7DBFF786800F0E8FE7B68184671
:1048A0000837BD4680BD00BF80B584B000AFF8605A
:1048B000B9607A603B607B68072B04D9064800F03A
:1048C00075FB002304E0F868396800F0D7F901238C
:1048D00018461037BD4680BDD0E3000880B582B0D1
:1048E00000AF78607B680A4A1A600A4800F05EFBF5
:1048F0007B681846FFF710F90023002B02D0786878
:1049000000F0B4FE7B6818460837BD4680BD00BF86
:10491000D0EE0008E4E3000880B582B000AF786014
:104920007868FFF7DBFF786800F0A0FE7B68184628
:104930000837BD4680BD00BF80B584B000AFF860C9
:10494000B9607A603B607B68052B04D9064800F0AB
:104950002DFB002304E0F868396800F0C5F9012355
:1049600018461037BD4680BDD0E3000880B582B040
:1049700000AF78607B680A4A1A600A4800F016FBAC
:104980007B681846FFF7C8F80023002B02D0786830
:1049900000F06CFE7B6818460837BD4680BD00BF3E
:1049A000F8EE0008E4E3000880B582B000AF78605C
:1049B0007868FFF7DBFF786800F058FE7B681846E0
:1049C0000837BD4680BD00BF80B584B000AFF86039
:1049D000B9607A603B607B68182B04D9064800F008
:1049E000E5FA002304E0F868396800F0B1F9012322
:1049F00018461037BD4680BDD0E3000880B582B0B0
:104A000000AF78607B680A4A1A600A4800F0CEFA64
:104A10007B681846FFF780F80023002B02D07868E7
:104A200000F024FE7B6818460837BD4680BD00BFF5
:104A300020EF0008E4E3000880B582B000AF7860A2
:104A40007868FFF7DBFF786800F010FE7B68184697
:104A50000837BD4680BD00BF80B584B000AFF860A8
:104A6000B9607A603B607B68502B04D9064800F03F
:104A70009DFA002304E0F868396800F0A5F90123E5
:104A800018461037BD4680BDD0E3000880B582B01F
:104A900000AF78607B680A4A1A600A4800F086FA1C
:104AA0007B681846FFF738F80023002B02D078689F
:104AB00000F0DCFD7B6818460837BD4680BD00BFAE
:104AC00048EF0008E4E3000880B582B000AF7860EA
:104AD0007868FFF7DBFF786800F0C8FD7B68184650
:104AE0000837BD4680BD00BF80B485B000AF786098
:104AF00039607B68DB683A6812881A807B681B69BA
:104B0000FB607B68DA687B681A617B68FA68DA6048
:104B10007B681B7EDBB2002B09D07B68DB68FB6007
:104B20007B685A697B68DA607B68FA685A617B68DF
:104B3000D3E90823013243F100037968C1E908236E
:104B40001437BD465DF8047B704700BF80B485B064
:104B500000AF786039607B689B683A6812781A7099
:104B60007B68DB68FB607B689A687B68DA607B68DF
:104B7000FA689A607B681B7DDBB2002B09D07B68EA
:104B80009B68FB607B681A697B689A607B68FA683F
:104B90001A617B68D3E90623013243F10003796887
:104BA000C1E906231437BD465DF8047B704700BF9A
:104BB00080B485B000AF786039607B689B683A68E4
:104BC00012781A707B68DB68FB607B689A687B6888
:104BD000DA607B68FA689A607B681B7DDBB2002B29
:104BE00009D07B689B68FB607B681A697B689A6068
:104BF0007B68FA681A617B68D3E90623013243F1C6
:104C000000037968C1E906231437BD465DF8047BCB
:104C1000704700BF80B485B000AF786039607B68B2
:104C20009B693A681168196092889A807B68DB6991
:104C3000FB607B689A697B68DA617B68FA689A61D5
:104C40007B6893F82430DBB2002B09D07B689B692A
:104C5000FB607B681A6A7B689A617B68FA681A62F3
:104C60007B68D3E90A23013243F100037968C1E983
:104C70000A231437BD465DF8047B704780B485B0C5
:104C800000AF786039607B68DB693A681168196049
:104C90009188927999809A717B681B6AFB607B6826
:104CA000DA697B681A627B68FA68DA617B6893F874
:104CB0002830DBB2002B09D07B68DB69FB607B68A6
:104CC0005A6A7B68DA617B68FA685A627B68D3E962
:104CD0000C23013243F100037968C1E90C23143736
:104CE000BD465DF8047B704780B485B000AF786046
:104CF00039607B685B693A681168196012791A71CA
:104D00007B689B69FB607B685A697B689A617B68FA
:104D1000FA685A617B6893F82030DBB2002B09D027
:104D20007B685B69FB607B68DA697B685A617B68DA
:104D3000FA68DA617B68D3E90A23013243F10003A0
:104D40007968C1E90A231437BD465DF8047B7047D2
:104D5000B0B485B000AF786039607B68DB6C3A68CE
:104D6000106851689568D468186059609D60DC606F
:104D700010695169186159617B681B6DFB607B6824
:104D8000DA6C7B681A657B68FA68DA647B6893F88A
:104D90005830DBB2002B09D07B68DB6CFB607B6892
:104DA0005A6D7B68DA647B68FA685A657B68D3E978
:104DB0001823013243F100037968C1E9182314373D
:104DC000BD46B0BC704700BF80B584B000AF78600E
:104DD00039607B68D3F8F4203B6811461A465023AB
:104DE000084611461A4600F017FC7B68D3F8F830E5
:104DF000FB607B68D3F8F4207B68C3F8F8207B68FD
:104E0000FA68C3F8F4207B6893F80031DBB2002B1A
:104E10000DD07B68D3F8F430FB607B68D3F8FC20BE
:104E20007B68C3F8F4207B68FA68C3F8FC207B68D1
:104E300003F58473D3E90023013243F10003796859
:104E400001F58471C1E900231037BD4680BD00BF64
:104E500080B500AF01204FF6FF71FFF78DFA80BDDE
:104E600080B485B000AF0346FB80FB883B8107F12F
:104E70000803FB60FB681B78FB72FB685A78FB68D1
:104E80001A70FB680133FA7A1A703B891BB2184614
:104E90001437BD465DF8047B704700BF80B582B013
:104EA00000AF78607B68064A1A600023002B02D0AE
:104EB000786800F0DBFB7B6818460837BD4680BD8C
:104EC00080EF000880B582B000AF78607868FFF7A7
:104ED000E5FF786800F0CAFB7B6818460837BD46D6
:104EE00080BD00BF80B582B000AF78600B46FB701C
:104EF00097F90330184607F05DFC0837BD4680BDC2
:104F000080B483B000AF78607B68044A1A607B6825
:104F100018460C37BD465DF8047B704780EF0008EB
:104F20000FB480B582B000AF1C4B1B68002B2FD094
:104F30003B461846FFF7E4FF07F114037B60184B6C
:104F40001B68002B05D0164B1B681648194601F04C
:104F5000CBFA07F085FE034683F00103DBB2002B9A
:104F600005D03B461846396901F04CF80AE00E4876
:104F700007F0C4FE3B461846396901F043F80A4879
:104F800007F01AFF07F058FC3B461846FFF786FF6C
:104F90000837BD46BDE8804004B070473C000020A3
:104FA0009C0B0020FCE30008A00B002080B582B021
:104FB00000AF7860074B7A681A6007487968FFF796
:104FC000AFFF064B1B685A1C044B1A600837BD46DE
:104FD00080BD00BF3800002010E400089C0B0020BA
:104FE00080B582B000AF786039607B68012B07D153
:104FF0003A684FF6FF739A4202D1034807F066FE03
:105000000837BD4680BD00BFA00B002080B500AFB3
:1050100001204FF6FF71FFF7E3FF80BD0FB480B4AE
:1050200000AF00231846BD465DF8047B04B070470E
:1050300080B483B000AF78600C37BD465DF8047B68
:10504000704700BF0FB480B400AF00231846BD46C0
:105050005DF8047B04B070470FB480B400AF002348
:105060001846BD465DF8047B04B0704780B483B039
:1050700000AF7860002318460C37BD465DF8047B0E
:10508000704700BF80B483B000AF7860002318463B
:105090000C37BD465DF8047B704700BF0FB480B489
:1050A00000AF00231846BD465DF8047B04B070478E
:1050B0000FB480B400AF00231846BD465DF8047BF2
:1050C00004B070470FB480B400AF00231846BD464B
:1050D0005DF8047B04B0704780B483B000AF7860A3
:1050E0007B680A4A1A607B6800221A617B6800228A
:1050F0005A607B6800229A607B680022DA607B68D5
:1051000018460C37BD465DF8047B704798EF0008E1
:1051100080B584B000AFF860C7E9002306F06EFFE9
:10512000FB681B6810331B68F86898470346002B20
:1051300002D006F06BFF0EE007F0B4FF0246FB68FA
:105140009A60FB689968D7E90023C1E90A2306F051
:105150005DFF07F031FF1037BD4680BD80B582B0DE
:1051600000AF78607B689B68002B04D07B689B68ED
:10517000184607F0A3FF7B6800229A607B681B69D2
:10518000002B07D07B681B691B681B687A68126953
:10519000104698470837BD4680BD00BF80B582B035
:1051A00000AF78607B685B68002B04D07B685B682D
:1051B000184607F083FF7B6800225A607B681B69F2
:1051C000002B08D07B681B691B6804331B687A6856
:1051D0001269104698470837BD4680BD80B582B039
:1051E00000AF78607B68DB68002B04D07B68DB68ED
:1051F000184607F063FF7B680022DA607B681B6952
:10520000002B08D07B681B691B6808331B687A6811
:105210001269104698470837BD4680BD80B584B0F6
:1052200000AFF860B9607A603B60FB683A68DA60AA
:10523000FB687A685A60084B1B68591C064A116063
:10524000FA689360F868B96800F008F8FB681846D7
:105250001037BD4680BD00BFB00B002080B582B0C6
:1052600000AF786039603B681A687B681A603B68F9
:105270007A681A600A4B1B68002B0CBF00230123BD
:10528000DBB2002B08D00748FFF790FE7B685B6815
:1052900005481946FFF744FE0837BD4680BD00BFEC
:1052A000581F00203CE4000870E4000880B582B07C
:1052B00000AF78600348FFF779FE7B68184608372F
:1052C000BD4680BD94E4000880B483B000AF786030
:1052D0007B681B6818460C37BD465DF8047B704739
:1052E00080B483B000AF78607B685B6818460C3789
:1052F000BD465DF8047B704780B588B000AF0123E0
:105300003B60FB785BB2012B14BF00230123DAB2B0
:105310006E4B1A7007F018FA6D4801F0E5F86D4B06
:105320001B68002B03D06B4B1B68043B00E0002381
:10533000FB6110E0FB691B681B68F8699847FB6913
:1053400004331846FFF7C0FF0346002B01D0043B8F
:1053500000E00023FB61FB69002BEBD15E4B1B6877
:10536000002B03D05C4B1B68043B00E00023BB61B7
:1053700011E0BB691B6808331B68B8699847BB69B3
:1053800004331846FFF7A0FF0346002B01D0043B6F
:1053900000E00023BB61BB69002BEAD14F4801F05C
:1053A000A3F84F4B1B68002B03D04D4B1B68043BED
:1053B00000E000237B6121E07B6904331846FFF79E
:1053C00083FF0346002B01D0043B00E00023BB60B9
:1053D0007B691B7F002B06D07B690433184641494B
:1053E000FFF73CFF08E07B691A1D7B695B6914339A
:1053F00010461946FFF732FFBB687B617B69002BC3
:10540000DAD1394B1B68002B4DD0384801F06CF8CD
:10541000354B1B68002B03D0334B1B68043B00E06B
:1054200000233B613CE03B6904331846FFF758FF1B
:1054300001463B69DA693B691B6A2D4801F054F863
:105440003B695B69002B03D03B695B69043B00E06F
:105450000023FB6015E0FB6804331846FFF740FFAC
:1054600003462448194601F03FF8FB680433184608
:10547000FFF72AFF0346002B01D0043B00E0002386
:10548000FB60FB68002BE6D13B6904331846FFF74D
:105490001BFF0346002B01D0043B00E000233B61CF
:1054A0003B69002BBFD1144801F01EF800F068FAE8
:1054B00078607B68002B03D01048796801F014F8FD
:1054C00007F052FE2037BD4680BD00BFB80B00205C
:1054D000A8E40008940B002010200020D8E4000865
:1054E000980B0020180C0020B40B0020FCE40008EE
:1054F00018E5000844E5000850E5000864E50008E8
:105500002DE9F04184B002AF78603960264B7A68AB
:105510001A60264B3A681A6006F030FD2448254987
:10552000254A00F0E1FF08F0F3F8FFF7E5FE06F08A
:10553000C7FC03461E4606F0E3FC054606F0EAFCFF
:10554000044606F0C9FC804606F0D0FC0346CDF8C0
:1055500000800193194831462A46234600F0C4FFD3
:1055600008F092F9044608F08FF9034614482146E2
:105570001A4600F0B9FF134800F0B6FF00F026F815
:1055800042F210704FF0000106F0F2FF06F098FFB3
:105590000D4800F0A9FF07F001FB0023184608376B
:1055A000BD46BDE8F08100BFBC0B0020C00B002051
:1055B00080E50008B0E50008BCE50008D4E5000877
:1055C00038E6000858E6000890E6000880B500AF0D
:1055D000014800F089FF80BDC4E6000880B485B0B2
:1055E00000AF78600023FB607B68002B01D10023B3
:1055F0000BE005E0FB680133FB607B6801337B60F7
:105600007B681B78002BF5D1FB6818461437BD4624
:105610005DF8047B704700BF80B487B000AFF860CE
:10562000B9607A60FB687B61BB683B617B69002B7A
:1056300002D03B69002B01D1002311E00CE03B6953
:105640001A787B691A707B68013B7B603B69013388
:105650003B617B6901337B617B68002BEFD1FB6889
:1056600018461C37BD465DF8047B704780B483B094
:1056700000AF78600C37BD465DF8047B704700BF13
:1056800080B584B000AFF860B9607A603B60FB68B9
:10569000043318461049114A0023FFF7BFFDFB6889
:1056A0000F4A1A60FB68BA685A61FB6820331846D3
:1056B00007F00CFBFB683A7E1A77FB6801225A77E9
:1056C000FB683A689A60FB687A689A61FB681846DA
:1056D0001037BD4680BD00BF980B0020F0E60008E3
:1056E000D8EF000880B485B000AFF860B9607A6088
:1056F0003B60034B18461437BD465DF8047B70478A
:1057000015CD5B0790B587B002AFF860B9607A60DD
:105710003B60FB685B7F83F00103DBB2002B01D0B1
:1057200000233DE0FB682033184607F0E7FAFB68EA
:105730009B69002B0FD0FB689B691B6808331C68B2
:10574000FB689A697B68396A00911046B9681A4605
:105750003B68A04718E0FB681B681C683B6A5B69F4
:105760000093F868B9687A683B68A04702460E4B18
:105770009A420CBF00230123DBB2002B04D00B485C
:10578000FFF714FC01230BE0FB682033184607F0F9
:1057900013FBFB689B69002B01D0012300E0002371
:1057A00018461437BD4690BD15CD5B07FCE60008D2
:1057B00090B58DB002AFF860B9607A603B60FB686D
:1057C0009B69002B0FD0FB689B691B6808331C6822
:1057D000FB689A693B6807F1100100911046B968AF
:1057E0001A467B68A0472C37BD4690BD80B485B073
:1057F00000AFF860C7E90023F968D7E90023C1E9E1
:105800000E23F968D7E90623C1E910231437BD46F2
:105810005DF8047B704700BFB0B586B002AF78601A
:1058200006E04FF0FF306FF00041002207F062FC0D
:105830007B68D3E9102352EA0301F2D07B68D3E9F5
:105840000E2310461946002207F054FC00F0ECF835
:10585000C7E902017B68D3E90E017B68D3E9102315
:10586000D7E90245CDE9004500F0E8F802460B46CD
:105870007968C1E90E231037BD46B0BD80B584B04C
:1058800000AF786007F00EFCF860F86807F0F0FBF6
:10589000B860F868796807F0F7FBBB6818461037FE
:1058A000BD4680BDB0B586B002AFC7E90001002398
:1058B000FB60324B1B68002B03D0304B1B68043B52
:1058C00000E00023BB6051E0BB68D3E90601D7E9E3
:1058D0000023904271EB030C3CDABB68D3E9082348
:1058E00052EA030107D1B9684FF0FF326FF000436D
:1058F000C1E9062325E0BB68D3E90601BB68D3E90B
:105900000823121843EB0103B968C1E90623BB68F9
:10591000D3E90601D7E90023904271EB030C10DABA
:10592000BB68D3E90601BB68D3E90823D7E9004582
:10593000CDE9004500F082F802460B46B968C1E99E
:105940000623BB681B6808331B68B8689847FB6868
:105950000133FB60BB6804331846FFF7B5FC034610
:10596000002B01D0043B00E00023BB60BB68002B90
:10597000AAD1FB6818461037BD46B0BD900B002079
:1059800080B582B000AF00237B60144B1B68002BF6
:1059900003D0124B1B68043B00E000233B6014E083
:1059A0003B681B680C331B68386898477B68013379
:1059B0007B603B6804331846FFF786FC0346002BE8
:1059C00001D0043B00E000233B603B68002BE7D1A3
:1059D0007B6818460837BD4680BD00BF900B00208D
:1059E00080B483B000AF786079684FF000024FF068
:1059F0000003C1E9002379684FF000024FF0000373
:105A0000C1E9022379684FF000024FF00003C1E9B9
:105A100004237B6811229A617B6818460C37BD46C7
:105A20005DF8047B704700BF80B500AF06F028FE2C
:105A300002460B461046194680BD00BF80B584B0B3
:105A400000AFC7E90201C7E90023D7E90223D7E97C
:105A50000601904271EB030C02DAD7E902232CE035
:105A6000D7E9002352EA030104D14FF0FF326FF06F
:105A7000004322E0D7E90601D7E90223821A61EB4D
:105A8000030310461946D7E90023FAF7F3FF02464D
:105A90000B46013243F10003396803FB01F07968DA
:105AA00002FB01F101443868A0FB022319440B46B4
:105AB000D7E90201121843EB0103104619461037CB
:105AC000BD4680BD80B582B000AF786039607B682C
:105AD000012B07D13A684FF6FF739A4202D103486F
