:020000040800F2
:1000000000000220E951000859A0000861A0000882
:1000100085A000088DA0000895A000080000000041
:1000200000000000000000000000000089990008A6
:1000300055520008000000009D990008D99C000856
:1000400055520008555200085552000855520008F4
:100050005552000855520008095C00082D5C000844
:10006000515C0008755C0008995C00085552000856
:100070004970000855520008716F00085552000879
:1000800001700008296F00085552000855520008F9
:10009000555200085552000855520008BD5C000832
:1000A0005552000855520008899E00085552000814
:1000B0005552000855520008555200085552000884
:1000C0005552000855520008555200085552000874
:1000D00055520008516E0008696E0008816E0008D4
:1000E000195D000855520008555200085552000885
:1000F0005552000855520008555200085552000844
:100100005552000855520008959A000855520008AB
:10011000996E0008B16E000855520008555200084B
:100120005552000855520008555200085552000813
:100130005552000855520008555200085552000803
:1001400055520008555200085552000855520008F3
:10015000B96F000855520008E16E0008C96E00082A
:1001600055520008555200085552000855520008D3
:1001700055520008555200085552000855520008C3
:0C0180005552000855520008000000080D
:1001900081F0004102E000BF83F0004330B54FEA38
:1001A00041044FEA430594EA050F08BF90EA020FA5
:1001B0001FBF54EA000C55EA020C7FEA645C7FEA38
:1001C000655C00F0E2804FEA5454D4EB5555B8BF5B
:1001D0006D420CDD2C4480EA020281EA030382EACC
:1001E000000083EA010180EA020281EA0303362D5E
:1001F00088BF30BD11F0004F4FEA01314FF4801C31
:100200004CEA113102D0404261EB410113F0004F42
:100210004FEA03334CEA133302D0524263EB4303F9
:1002200094EA050F00F0A780A4F10104D5F1200E97
:100230000DDB02FA0EFC22FA05F2801841F10001F2
:1002400003FA0EF2801843FA05F359410EE0A5F1C6
:1002500020050EF1200E012A03FA0EFC28BF4CF0F7
:10026000020C43FA05F3C01851EBE37101F00045AD
:1002700007D54FF0000EDCF1000C7EEB00006EEBBA
:100280000101B1F5801F1BD3B1F5001F0CD3490844
:100290005FEA30004FEA3C0C04F101044FEA44529B
:1002A00012F5800F80F09A80BCF1004F08BF5FEA22
:1002B000500C50F1000041EB045141EA050130BD02
:1002C0005FEA4C0C404141EB010111F4801FA4F1A5
:1002D0000104E9D191F0000F04BF01460020B1FAFA
:1002E00081F308BF2033A3F10B03B3F120020CDA32
:1002F0000C3208DD02F1140CC2F10C0201FA0CF010
:1003000021FA02F10CE002F11402D8BFC2F1200C74
:1003100001FA02F120FA0CFCDCBF41EA0C0190402A
:10032000E41AA2BF01EB0451294330BD6FEA040473
:100330001F3C1CDA0C340EDC04F11404C4F120025E
:1003400020FA04F001FA02F340EA030021FA04F370
:1003500045EA030130BDC4F10C04C4F1200220FAC7
:1003600002F001FA04F340EA0300294630BD21FA05
:1003700004F0294630BD94F0000F83F4801306BFCB
:1003800081F480110134013D4EE77FEA645C18BFBF
:100390007FEA655C29D094EA050F08BF90EA020F56
:1003A00005D054EA000C04BF1946104630BD91EA4E
:1003B000030F1EBF0021002030BD5FEA545C05D151
:1003C0004000494128BF41F0004130BD14F5800490
:1003D0003CBF01F5801130BD01F0004545F0FE4104
:1003E00041F470014FF0000030BD7FEA645C1ABF39
:1003F000194610467FEA655C1CBF0B46024650EA70
:10040000013406BF52EA033591EA030F41F400219B
:1004100030BD00BF90F0000F04BF0021704730B521
:100420004FF4806404F132044FF000054FF00001F6
:1004300050E700BF90F0000F04BF0021704730B5B7
:100440004FF4806404F1320410F0004548BF40428C
:100450004FF000013EE700BF42004FEAE2014FEAE1
:1004600031014FEA02701FBF12F07F4393F07F4FBC
:1004700081F06051704792F0000F14BF93F07F4FEE
:10048000704730B54FF4607401F0004521F0004131
:1004900020E700BF50EA010208BF704730B54FF0B7
:1004A00000050AE050EA010208BF704730B511F0BC
:1004B000004502D5404261EB41014FF4806404F1F4
:1004C00032045FEA915C3FF4DCAE4FF003025FEA76
:1004D000DC0C18BF03325FEADC0C18BF033202EBFE
:1004E000DC02C2F1200300FA03FC20FA02F001FA58
:1004F00003FE40EA0E0021FA02F11444C1E600BFF7
:1005000070B54FF0FF0C4CF4E06C1CEA11541DBFA9
:100510001CEA135594EA0C0F95EA0C0F00F0DEF874
:100520002C4481EA030621EA4C5123EA4C5350EA59
:10053000013518BF52EA033541F4801143F48013AA
:1005400038D0A0FB02CE4FF00005E1FB02E506F03B
:100550000042E0FB03E54FF00006E1FB03569CF090
:10056000000F18BF4EF0010EA4F1FF04B6F5007F96
:1005700064F5407404D25FEA4E0E6D4146EB060608
:1005800042EAC62141EA55514FEAC52040EA5E5091
:100590004FEACE2EB4F1FD0C88BFBCF5E06F1ED83B
:1005A000BEF1004F08BF5FEA500E50F1000041EB72
:1005B000045170BD06F0004646EA010140EA02001F
:1005C00081EA0301B4EB5C04C2BFD4EB0C0541EA41
:1005D000045170BD41F480114FF0000E013C00F356
:1005E000AB8014F1360FDEBF002001F0004170BD7A
:1005F000C4F10004203C35DA0C341BDC04F1140493
:10060000C4F1200500FA05F320FA04F001FA05F21E
:1006100040EA020001F0004221F0004110EBD370EB
:1006200021FA04F642EB06015EEA430E08BF20EA17
:10063000D37070BDC4F10C04C4F1200500FA04F3BA
:1006400020FA05F001FA04F240EA020001F000414C
:1006500010EBD37041F100015EEA430E08BF20EABF
:10066000D37070BDC4F1200500FA05F24EEA020E07
:1006700020FA04F301FA05F243EA020321FA04F036
:1006800001F0004121FA04F220EA020000EBD370ED
:100690005EEA430E08BF20EAD37070BD94F0000FED
:1006A0000FD101F00046400041EB010111F4801F21
:1006B00008BF013CF7D041EA060195F0000F18BFD2
:1006C000704703F00046520043EB030313F4801F0E
:1006D00008BF013DF7D043EA0603704794EA0C0FC8
:1006E0000CEA135518BF95EA0C0F0CD050EA4106DE
:1006F00018BF52EA4306D1D181EA030101F000415B
:100700004FF0000070BD50EA410606BF1046194682
:1007100052EA430619D094EA0C0F02D150EA01368E
:1007200013D195EA0C0F05D152EA03361CBF1046CF
:1007300019460AD181EA030101F0004141F0FE416E
:1007400041F470014FF0000070BD41F0FE4141F4F2
:10075000780170BD70B54FF0FF0C4CF4E06C1CEAF2
:1007600011541DBF1CEA135594EA0C0F95EA0C0FA7
:1007700000F0A7F8A4EB050481EA030E52EA033562
:100780004FEA013100F088804FEA03334FF0805583
:1007900045EA131343EA12634FEA022245EA1115B0
:1007A00045EA10654FEA00260EF000419D4208BF61
:1007B000964244F1FD0404F5407402D25B084FEA0E
:1007C0003202B61A65EB03055B084FEA32024FF4BA
:1007D00080104FF4002CB6EB020E75EB030E22BF17
:1007E000B61A754640EA0C005B084FEA3202B6EBD7
:1007F000020E75EB030E22BFB61A754640EA5C0086
:100800005B084FEA3202B6EB020E75EB030E22BF15
:10081000B61A754640EA9C005B084FEA3202B6EB16
:10082000020E75EB030E22BFB61A754640EADC00D5
:1008300055EA060E18D04FEA051545EA16754FEA37
:1008400006164FEAC30343EA52734FEAC2025FEA55
:100850001C1CC0D111F4801F0BD141EA00014FF0E4
:1008600000004FF0004CB6E711F4801F04BF0143B5
:100870000020B4F1FD0C88BFBCF5E06F3FF6AFAED1
:10088000B5EB030C04BFB6EB020C5FEA500C50F161
:10089000000041EB045170BD0EF0004E4EEA1131E4
:1008A00014EB5C04C2BFD4EB0C0541EA045170BDEB
:1008B00041F480114FF0000E013C90E645EA060E2F
:1008C0008DE60CEA135594EA0C0F08BF95EA0C0F5D
:1008D0003FF43BAF94EA0C0F0AD150EA01347FF4A5
:1008E00034AF95EA0C0F7FF425AF104619462CE77C
:1008F00095EA0C0F06D152EA03353FF4FDAE1046DF
:10090000194622E750EA410618BF52EA43067FF42F
:10091000C5AE50EA41047FF40DAF52EA43057FF4BF
:10092000EBAE12E74FF0FF3C06E000BF4FF0010CCA
:1009300002E000BF4FF0010C4DF804CD4FEA410C2E
:100940007FEA6C5C4FEA430C18BF7FEA6C5C1BD0FB
:1009500001B050EA410C0CBF52EA430C91EA030F7C
:1009600002BF90EA020F0020704710F1000F91EAD9
:10097000030F58BF994208BF90422CBFD8176FEAA7
:10098000E37040F0010070474FEA410C7FEA6C5C75
:1009900002D150EA013C07D14FEA430C7FEA6C5C7C
:1009A000D6D152EA033CD3D05DF8040B704700BFA8
:1009B0008446104662468C461946634600E000BFF6
:1009C00001B5FFF7B7FF002848BF10F1000F01BDC8
:1009D0004DF808EDFFF7F4FF0CBF012000205DF893
:1009E00008FB00BF4DF808EDFFF7EAFF34BF012018
:1009F00000205DF808FB00BF4DF808EDFFF7E0FFB1
:100A000094BF012000205DF808FB00BF4DF808ED01
:100A1000FFF7CEFF94BF012000205DF808FB00BF68
:100A20004DF808EDFFF7C4FF34BF012000205DF84A
:100A300008FB00BF4A0011D212F5001211D20DD5E9
:100A40006FF47873B3EB62520ED44FEAC12343F0D4
:100A5000004343EA505323FA02F070474FF000007E
:100A6000704750EA013002D14FF0FF3070474FF02D
:100A70000000704773B96AB9002908BF0028BCBFDD
:100A800000204FF00041C4BF6FF000414FF0FF3035
:100A900000F08CB882B0EC462DE9005000F056F81A
:100AA000DDF804E002B00CBC704700BF4BB942B99E
:100AB000002908BF002802D04FF0FF31084600F09F
:100AC00075B882B0EC462DE9005000F057F8DDF81B
:100AD00004E002B00CBC704738B500220023044685
:100AE0000D46FFF77FFF28B920462946BDE838406C
:100AF00000F00AB8204605F1004100F005F8404238
:100B000061EB410138BD00BF70B500220D4B0446BA
:100B10000D46FFF7F5FCFFF78DFF0646FFF77AFC61
:100B20000022094BFFF7ECFC02460B462046294603
:100B3000FFF732FBFFF77EFF002242EA0004204667
:100B4000314670BD0000F03D0000F0412DE97043DA
:100B5000069E14461D468046894600F029F804FB8F
:100B600001F300FB0533A4FB00451D44B8EB04046E
:100B700069EB0505C6E90045BDE870832DE97043C2
:100B8000069E1446804689461D4600F05DF900FB2E
:100B900005F504FB0153A0FB04451D44B8EB040418
:100BA00069EB0505C6E90045BDE87083704700BFE5
:100BB00000292DE9F00FC0F29F800024002BC0F225
:100BC0009680154606460F46002B3ED18A4257D9DD
:100BD000B2FA82F34BB1C3F1200201FA03F720FA13
:100BE00002F29D40174300FA03F6290CB7FBF1F21D
:100BF000330C01FB127CA8B243EA0C4700FB02F362
:100C0000BB4209D97F1902F1FF3C80F00181BB4250
:100C100040F2FE80023A2F44FF1AB7FBF1F3B6B25E
:100C200001FB137146EA014100FB03F0884208D939
:100C3000491903F1FF3780F0ED80884240F2EA80E5
:100C4000023B43EA0242002303E08B420AD900231D
:100C50001A461046194614B1404261EB4101BDE805
:100C6000F00F7047B3FA83F8B8F1000F40F08480BA
:100C70008B4202D3824200F2DE8000230122E8E7A9
:100C800012B90123B3FBF2F5B5FA85F2002A39D186
:100C90007F1B280C1FFA85FC0123B7FBF0F1320CF7
:100CA00000FB117742EA07470CFB01F2BA4207D971
:100CB0007F1901F1FF3802D2BA4200F2C1804146E9
:100CC000BF1AB7FBF0F2B6B200FB127046EA004062
:100CD0000CFB02FC844507D9401902F1FF3702D210
:100CE000844500F2AB803A4642EA0142B1E7E44370
:100CF000524263EB430364E7404261EB41014FF032
:100D0000FF345BE79540C2F1200327FA03F1280C7A
:100D100026FA03F39740B1FBF0F81F433B0C00FBAE
:100D200018111FFA85FC43EA01410CFB08F38B42C2
:100D300006FA02F608D9491908F1FF3279D28B4236
:100D400077D9A8F102082944C91AB1FBF0F3BFB260
:100D500000FB131147EA01470CFB03F2BA4207D923
:100D60007F1903F1FF3160D2BA425ED9023B2F44B2
:100D7000BF1A43EA084390E7C8F1200203FA08FCCF
:100D800025FA02F343EA0C0C4FEA1C4921FA02F35C
:100D900001FA08F720FA02F2B3FBF9F1174309FB55
:100DA00011333A0C1FFA8CFB42EA03430BFB01FAA6
:100DB0009A4505FA08F008D913EB0C0301F1FF324C
:100DC00035D29A4533D902396344CAEB0303B3FBE6
:100DD000F9F209FB1233BFB247EA03470BFB02F9F2
:100DE000B94508D917EB0C0702F1FF331BD2B945FF
:100DF00019D9023A674442EA0145A5FB0001C9EB53
:100E000007078F424FF000030AD305D02A4620E798
:100E1000624601E73B4614E706FA08F68642F5D239
:100E20006A1E002315E71A46E5E70B46A0E71146C0
:100E3000CBE7904688E7434642460AE7023A53E743
:100E400002392F443CE700BF2DE9F00F1446054658
:100E50000E46002B43D18A4253D9B2FA82F757B1DA
:100E6000C7F1200620FA06F601FA07F302FA07F4A2
:100E70001E4300FA07F5210CB6FBF1F22B0C01FB27
:100E80001267A0B243EA074600FB02F3B34209D956
:100E9000361902F1FF3780F0F680B34240F2F3805A
:100EA000023A2644F61AB6FBF1F3ADB201FB136128
:100EB00045EA014100FB03F0884208D9091903F112
:100EC000FF3680F0E280884240F2DF80023B43EA56
:100ED0000242002310461946BDE8F00F70478B42CE
:100EE0004AD8B3FA83F6002E4DD18B4202D3824208
:100EF00000F2D6800023012210461946BDE8F00F0B
:100F0000704712B90124B4FBF2F4B4FA84F2002A57
:100F10007CD1091B260CA7B20123B1FBF6F02A0CE9
:100F200006FB101142EA014107FB00F28A4207D991
:100F3000091900F1FF3C02D28A4200F2C3806046E8
:100F4000891AB1FBF6F2ADB206FB121145EA014572
:100F500007FB02F7AF4208D92C1902F1FF3180F0EC
:100F60009680A74240F29380023A42EA004210463D
:100F70001946BDE8F00F704700231A46104619467F
:100F8000BDE8F00F7047C6F1200522FA05F4B34022
:100F90001C434FEA144821FA05F301FA06F720FA38
:100FA00005F5B3FBF8FC2F4308FB1C333D0C1FFA7F
:100FB00084FA45EA03430AFB0CF9994502FA06FB59
:100FC00004D91B190CF1FF326DD39446C9EB03030E
:100FD000B3FBF8F508FB1533BFB247EA03470AFB3A
:100FE00005F8B84504D93F1905F1FF3361D31D4613
:100FF00045EA0C4CACFB0B23C8EB07079F424FF0B4
:10100000000549D345D062462B4663E79440C2F1C0
:10101000200321FA03FC260C20FA03F301FA02F55F
:10102000BCFBF6F843EA05010B0C06FB18CCA7B293
:1010300043EA0C4C07FB08F3634500FA02F509D9B3
:101040001CEB040C08F1FF323AD2634538D9A8F101
:101050000208A444C3EB0C0CBCFBF6F389B206FBFC
:1010600013CC41EA0C4107FB03F28A4207D9091964
:1010700003F1FF3022D28A4220D9023B2144891A4F
:1010800043EA084349E73A460CE733461FE70A4676
:101090006BE7B0409042B6D20CF1FF32002319E763
:1010A0003346324616E799458FD9ACF1020C2344FA
:1010B0008CE7B8459BD9023D274499E70346DEE714
:1010C0009046C7E7023821443AE700BF80B582B0B6
:1010D00000AF78607B681B681B6834331B687A68D4
:1010E000126810464FF4165198477B681B681B68BE
:1010F00038331B687A681268104603210222984729
:101100000837BD4680BD00BF80B584B000AF7860B1
:101110007B681B681B6838331B687A681268104646
:1011200000214FF41652984700BF7B681B681B686C
:1011300048331B687A681268104698470346B3F133
:10114000FF3F0CBF00230123DBB2002BEDD17B68F6
:101150001B681B684C331B687A68126810466FF076
:101160000F0198477B681B6818464FF0FF326FF0FD
:10117000004302F0FBFD7B681B681B6848331B685B
:101180007A681268104698470346FB73FB7BF02B86
:1011900001D0012300E0002318461037BD4680BD72
:1011A00080B584B000AF78607B681B681B683833FB
:1011B0001B687A681268104600214FF4E1329847A4
:1011C00000BF7B681B681B6848331B687A6812681D
:1011D000104698470346B3F1FF3F0CBF002301239D
:1011E000DBB2002BEDD17B681B681B684C331B689E
:1011F0007A68126810464FF0FF3198477B681B6889
:1012000018464FF0FF326FF0004302F0AFFD7B68ED
:101210001B681B6848331B687A6812681046984739
:101220000346FB73FB7BFF2B01D1012300E000236E
:1012300018461037BD4680BD80B582B000AF7860DB
:101240000B46FB707B681B681B6838331B687A6829
:101250001268104600214FF4E132984700BF7B68C6
:101260001B681B6848331B687A68126810469847E9
:101270000346B3F1FF3F0CBF00230123DBB2002B79
:10128000EDD1FB78002B0AD17B681B681B684C33BF
:101290001B687A6812681046002198470AE07B684C
:1012A0001B681B684C331B687A68126810464FF045
:1012B000FF3198477B681B6818464FF0FF326FF08C
:1012C000004302F053FD7B681B681B6848331B68B2
:1012D0007A681268104698470837BD4680BD00BF3F
:1012E00080B584B000AF78600023BB730123FB732B
:1012F00011E07868FFF754FF0346002B0CBF002372
:101300000123DBB2002B03D0BA7BFB7B1343BB73FF
:10131000FB7B5B00FB73FB7B002BEAD1BB7B18469E
:101320001037BD4680BD00BF80B584B000AF786087
:101330000B46FB700123FB730FE0FA7BFB78134035
:10134000DBB2002B01D0012300E0002378681946AE
:10135000FFF772FFFB7B5B00FB73FB7B002BECD189
:101360001037BD4680BD00BF90B587B000AFF860B4
:10137000B9607A6000237B610AE07B69BA68D4189F
:10138000F868FFF7ADFF034623707B6901337B618B
:101390007A697B689A42F0DB1C37BD4690BD00BF7E
:1013A00080B487B000AFF860B9607A60BB687B61D9
:1013B0000023FB7422E07B695A1C7A611B78BB74A2
:1013C00008237B7417E0FA7CBB7C5340DBB203F04C
:1013D00001033B74FB7C5B10FB743B7C002B04D053
:1013E000FB7C83F07303DB43FB74BB7C5B10BB743F
:1013F0007B7C013B7B747B7C002BE4D17B685A1E99
:101400007A60002B0CBF00230123DBB2002BD2D16A
:10141000FB7C18461C37BD465DF8047B704700BF57
:1014200080B582B000AF78607868CC21FFF77CFF90
:101430000837BD4680BD00BF80B582B000AF786080
:1014400078684421FFF770FF0837BD4680BD00BFB4
:1014500080B582B000AF786039607868BE21FFF750
:1014600063FF786839680922FFF77EFF0837BD46B9
:1014700080BD00BF80B582B000AF7860F970BA70EF
:101480007B7078684E21FFF74FFFFB78786819462C
:10149000FFF74AFFBB7878681946FFF745FF7B786E
:1014A00078681946FFF740FF0837BD4680BD00BF8A
:1014B00080B483B000AF78607B6819221A707B68B3
:1014C00000225A707B6800229A707B6818460C379D
:1014D000BD465DF8047B704780B582B000AF786090
:1014E00039607B68012B07D13A684FF6FF739A4247
:1014F00002D10348FFF7DCFF0837BD4680BD00BFBF
:101500005800002080B500AF01204FF6FF71FFF7B3
:10151000E3FF80BD80B483B000AF78600C37BD4678
:101520005DF8047B704700BF80B582B000AF786083
:1015300039607B680433184606493A68002302F094
:101540009BFC7B68044A1A607B6818460837BD46D6
:1015500080BD00BFDC08002000C4000880B582B058
:1015600000AF78607B68094A1A607B6804331846CC
:1015700002F0CAFC0023002B02D0786802F0A4FE1F
:101580007B6818460837BD4680BD00BF00C4000810
:1015900080B582B000AF78607868FFF7DFFF7868C9
:1015A00002F092FE7B6818460837BD4680BD00BF3A
:1015B00080B582B000AF78607B6818460549FFF7B8
:1015C000B3FF7B68044A1A607B6818460837BD463B
:1015D00080BD00BFD4BA0008E8C3000880B582B05F
:1015E00000AF78600A4801210122002304F0F0F8DE
:1015F000084801210122002304F0EAF806480121ED
:101600000122002304F0E4F80837BD4680BD00BF86
:101610005C000020780000209400002080B582B09B
:1016200000AF78600B46FB70FB780348194604F066
:10163000D5F90837BD4680BD5C00002080B582B07A
:1016400000AF78600B46FB70FB780348194604F046
:10165000C5F90837BD4680BD7800002080B582B04E
:1016600000AF78600B46FB70FB780348194604F026
:10167000B5F90837BD4680BD9400002080B582B022
:1016800000AF78607B68084A1A607B681846FFF7ED
:1016900065FF0023002B02D0786802F015FE7B68FE
:1016A00018460837BD4680BDE8C3000880B582B043
:1016B00000AF78607868FFF7E1FF786802F004FE19
:1016C0007B6818460837BD4680BD00BF80B582B034
:1016D00000AF786039607B68012B18D13A684FF60B
:1016E000FF739A4213D10B48072104F03DF80A48D2
:1016F000062104F039F80948252104F035F8084896
:10170000FFF756FF06480749074A0AF0DDF9083790
:10171000BD4680BD5C0000207800002094000020C1
:10172000B00000207D160008240A002080B500AF1C
:1017300001204FF6FF71FFF7C9FF80BD80B483B071
:1017400000AF786039607B683A681A607B68184639
:101750000C37BD465DF8047B704700BF80B582B092
:1017600000AF78607B6818460549FFF7DDFE7B68AF
:10177000044A1A607B6818460837BD4680BD00BF22
:10178000E0BA000818C4000880B582B000AF7860E5
:101790000C480D49002204F01BFF0A4801210022D9
:1017A00005F088F909480A4904F046FB09484FF456
:1017B000E13105F06DFC0848FFF788FC0837BD46AD
:1017C00080BD00BFC400002040420F00E0000020A8
:1017D000A0860100FC0000203401002080B582B00A
:1017E00000AF78607B68084A1A607B681846FFF78C
:1017F000B5FE0023002B02D0786802F065FD7B68FF
:1018000018460837BD4680BD18C4000880B582B0B0
:1018100000AF78607868FFF7E1FF786802F054FD68
:101820007B6818460837BD4680BD00BF80B584B0D0
:1018300002AF786039607B68012B32D13A684FF68D
:10184000FF739A422DD11F230093174802211D22B6
:101850001E2304F07DFE154801211622172304F0F3
:10186000A5FA0C2300930B230193114801210922AF
:101870000A2305F0ADFA1E2300933B2301930D4884
:1018800003212A222B2305F0A3FA0B480949FFF76D
:1018900055FF0A48FFF762FF08480949094A0AF05C
:1018A00013F90837BD4680BDC4000020E0000020C9
:1018B000FC00002018010020340100203801002025
:1018C000DD170008240A002080B500AF01204FF684
:1018D000FF71FFF7ABFF80BD80B582B000AF7860CD
:1018E0007B681846064964224FF4FA6308F02AFF21
:1018F0007B68044A1A607B6818460837BD4680BD7D
:10190000ECBA000830C4000880B483B000AF78603F
:101910000C37BD465DF8047B704700BF0000000037
:1019200080B586B002AF78607B68012283F85120D1
:101930007B68032283F850207B6850331E48194689
:10194000012200F041F87B6851331C4819460122FE
:1019500000F04EF8796816A3D3E90023CDE90023FF
:1019600008464FF000024FF0000302F06DFD002327
:10197000FB737B6850331248194600F04DF8FB7B2F
:1019800010481946FFF74AFEFB7B0E481946FFF741
:1019900065FEFB7B0B481946FFF750FEFB7B83F08F
:1019A0000103FB737B68184602F064FDE1E700BFAA
:1019B00000F2052A0100000048070020C8070020A7
:1019C00070070020B000002080B584B000AFF86040
:1019D000B9601346FB71FA68FB791046B9681A467C
:1019E000002302F02BFF034618461037BD4680BD8A
:1019F00080B584B000AFF860B9601346FB71FA6837
:101A0000FB791046B9681A46002302F017FF034617
:101A100018461037BD4680BD80B485B000AF7860F1
:101A200039607B6801221A757B68DB68FB60FB68A4
:101A30001A783B681A707B6800221A757B68D3E9B4
:101A40000823013243F100037968C1E90823143700
:101A5000BD465DF8047B704780B582B000AF78600A
:101A60007B68084A1A607B68184608F0D9FE002394
:101A7000002B02D0786802F027FC7B6818460837F4
:101A8000BD4680BD30C4000880B582B000AF78602C
:101A90007868FFF7E1FF786802F016FC7B6818466B
:101AA0000837BD4680BD00BF80B582B000AF78600A
:101AB00039607B68012B0CD13A684FF6FF739A426C
:101AC00007D10548FFF708FF03480449044A09F015
:101AD000FBFF0837BD4680BD50010020591A0008A1
:101AE000240A002080B500AF01204FF6FF71FFF7F8
:101AF000DBFF80BD80B483B000AF78600C37BD469B
:101B00005DF8047B704700BF80B582B000AF78609D
:101B10007B681846164964224FF4FA6308F012FEF7
:101B20007B68144A1A607B68002283F850207B6827
:101B3000002283F851207B68002283F852207B68C2
:101B4000002283F853207B68002283F854207B68AE
:101B500000229A657B68002283F85C207B68002263
:101B600083F85D207B6818460837BD4680BD00BFFE
:101B7000FCBA000848C4000880B586B002AF78609F
:101B800033480021012200F067F879682EA3D3E9D9
:101B90000023CDE9002308464FF000024FF0000378
:101BA00002F052FC7B689A6D7B6893F85030002BF2
:101BB00001D0012300E000231A447B689A657B680A
:101BC0009A6D7B6893F85130002B01D0012300E01F
:101BD00000231A447B689A657B689A6D7B6893F84A
:101BE0005230002B01D0012300E000231A447B680F
:101BF0009A657B689A6D7B6893F85330002B01D00F
:101C0000012300E000231A447B689A657B689B6D82
:101C1000052B12D9002343F01903FB72FB6803F074
:101C20007F43FB6005233B810123BB7207F108035F
:101C300008481946012200F029F87B68184602F08E
:101C400019FCAFE7AFF300800065CD1D0000000078
:101C5000480800202006002080B584B000AF7860DE
:101C600013460A467A807B707B88FB81796807F18E
:101C70000E027B78084611461A46002302F0DEFD6C
:101C8000034618461037BD4680BD00BF80B584B0FE
:101C900000AFF860B9601346FB71FA68FB79104633
:101CA000B9681A46002302F0C9FD034618461037EA
:101CB000BD4680BD80B582B000AF78607B68084AC1
:101CC0001A607B68184608F0ABFD0023002B02D099
:101CD000786802F0F9FA7B6818460837BD4680BD7F
:101CE00048C4000880B582B000AF78607868FFF71C
:101CF000E1FF786802F0E8FA7B6818460837BD46CD
:101D000080BD00BF80B582B000AF786039607B686D
:101D1000012B0CD13A684FF6FF739A4207D1054860
:101D2000FFF7F2FE03480449044A09F0CDFE0837E4
:101D3000BD4680BDA8010020B51C0008240A002073
:101D400080B500AF01204FF6FF71FFF7DBFF80BDCC
:101D500080B483B000AF78600B46FB7097F9033016
:101D60007A68C3F1200362FA03F318460C37BD46C4
:101D70005DF8047B704700BF80B483B000AF78602B
:101D80007B681B0C7A6853407B607B680C4A02FBC3
:101D900003F37B607B685B0B7A6853407B607B68F6
:101DA000084A02FB03F37B607B681B0C7A68534094
:101DB0007B607B6818460C37BD465DF8047B704736
:101DC0006BCAEB8535AEB2C280B58EB000AFF8609D
:101DD000B9607A60BB68002B00DA03339B10BB62EA
:101DE0007B683B633D4B7B623D4B3B62BB6A9B0028
:101DF000FA681344FB61BB6A5B427B6327E07B6B41
:101E00009B00FA6913441B68BB61BB697A6A02FBD9
:101E100003F3BB61B8690F21FFF79AFFB861BB6993
:101E20003A6A02FB03F3BB613A6BBB6953403B6305
:101E3000386B0D21FFF78CFF38633A6B13469B001C
:101E40001A44284B13443B637B6B01337B637B6BEE
:101E5000002BD4D1BB6A9B00FA6813447B6100233A
:101E6000FB62BB6803F00303022B0BD0032B02D0F1
:101E7000012B0ED025E07B6902331B781B04FA6A24
:101E80005340FB627B6901331B781B02FA6A5340A3
:101E9000FB627B691B78FA6A5340FB62FB6A7A6AD1
:101EA00002FB03F3FB62F86A0F21FFF751FFF862B0
:101EB000FB6A3A6A02FB03F3FB623A6BFB6A53402C
:101EC0003B63BB683A6B53403B63386BFFF754FF8F
:101ED00038633B6B18463837BD4680BD512D9ECCCC
:101EE0009335871B646B54E680B582B000AF786091
:101EF0007B681846064964224FF4FA6308F022FC16
:101F00007B68044A1A607B6818460837BD4680BD66
:101F10000CBB000860C4000880B596B000AF7860C4
:101F200007F13C0300221A60043300221A600433D4
:101F300000221A60043300221A60043300221A605F
:101F4000043307F1280300221A60043300221A60C8
:101F5000043300221A60043300221A600433002282
:101F60001A60043307F1140300221A6004330022BC
:101F70001A60043300221A60043300221A6004330A
:101F800000221A6004334C48FFF7BEF84A48FFF7B6
:101F900047FA49484B2146223F23FFF76BFA464850
:101FA000FFF7B2F803464548194601F0E7FD4248FD
:101FB000FFF736FA4048FFF73FFA02F063FB3AA317
:101FC000D3E90023121843EB0103104619460022FF
:101FD00008F008FD3848FFF797F8034637481946D8
:101FE00001F0CCFD3448FFF71BFA07F12803324813
:101FF0001946FFF72DFA07F128031B88A7F852307E
:10200000B7F952301846FEF715FA02460B4610464D
:1020100019464FF000022A4BFEF79CFB02460B4686
:10202000284801F0ABFD00237B650BE007F1280297
:102030007B6D13441B782448194601F09FFD7B6D8E
:1020400001337B657B6D082BF0DD204801F096FDA8
:1020500007F12803184819460822FFF7A1F903469B
:102060001B48194601F08AFD02F00CFB02460B46A4
:1020700010461946FEF716FA02460B461046194658
:102080000BA3D3E90023FEF789F802460B4610465E
:102090001946FEF721FD02460B461046194600225E
:1020A00008F0A0FC6FE700BF002F68590000000097
:1020B0000000000065CDBD41340100201CBB0008BC
:1020C0000000304028BB00082CBB000830BB0008D3
:1020D00034BB0008AFF3008080B582B000AF7860F9
:1020E0007B68084A1A607B68184608F099FB002351
:1020F000002B02D0786802F0E7F87B6818460837B2
:10210000BD4680BD60C4000880B582B000AF786075
:102110007868FFF7E1FF786802F0D6F87B68184628
:102120000837BD4680BD00BF80B582B000AF786083
:1021300039607B68012B0CD13A684FF6FF739A42E5
:1021400007D10548FFF7D0FE03480449044A09F0C7
:10215000BBFC0837BD4680BD08020020D92000081E
:10216000240A002080B500AF01204FF6FF71FFF771
:10217000DBFF80BD80B582B000AF78607B68184619
:102180000649FFF7D1F97B68054A1A607B6800228F
:102190001A757B6818460837BD4680BD44BB0008E9
:1021A00078C4000880B582B000AF78600B48012188
:1021B0000122012303F00CFB094801210122012324
:1021C00003F006FB074801210122012303F000FB75
:1021D0007B6800221A750837BD4680BD8802002042
:1021E000A4020020C002002080B582B000AF786059
:1021F0007B68084A1A607B681846FFF7AFF900232E
:10220000002B02D0786802F05FF87B681846083728
:10221000BD4680BD78C4000880B582B000AF78604C
:102220007868FFF7E1FF786802F04EF87B6818469F
:102230000837BD4680BD00BF80B582B000AF786072
:1022400039607B68012B1BD13A684FF6FF739A42C5
:1022500016D10D48FFF78EFF0B480C490C4A09F0C8
:1022600033FC0C48262103F07FFA0B48272103F0AA
:102270007BFA0A481C2103F077FA094808F09EF916
:102280000837BD4680BD00BF70020020E92100086C
:10229000240A002088020020A4020020C00200209E
:1022A000DC02002080B500AF01204FF6FF71FFF780
:1022B000C3FF80BD80B582B000AF78607B681846F0
:1022C000064964224FF4FA6308F03CFA7B68044A3A
:1022D0001A607B6818460837BD4680BD50BB0008B1
:1022E00090C400080000000080B59AB002AF78608A
:1022F0000023FB65796827A3D3E90023CDE90023F8
:1023000008464FF000024FF0000302F09DF8FB6D0D
:10231000002B10DC07F140037868194600F084F8C0
:1023200007F140031A4819461A2205F019F9FB6D06
:102330000133FB6525E0FB6D012B10D107F10C0388
:102340007868194600F02CF807F10C03104819467C
:10235000222205F005F9FB6D0133FB6511E0FB6DF1
:10236000012B0EDD07F130037868194600F0A0F864
:1023700007F1300306481946122205F0F1F8002350
:10238000FB657B68184602F075F8C0E7AFF3008084
:10239000FC000020AA21EF0900000000AFF300803C
:1023A00090B583B000AF786039607B6850331C48CB
:1023B000194600F005F93B68A8221A703B68591CC1
:1023C0007B68D3E92023D3B20B703B680233002231
:1023D0001A703B68033300221A703B680433114AB9
:1023E00012881A803B689A1D7B6850331046194644
:1023F000182201F03FFF3B6803F11E04786839683A
:102400001E2200F0CBF803462360064B1B880133E5
:102410009AB2044B1A80222318460C37BD4690BD51
:10242000C80300209803002090B583B000AF786007
:1024300039607B6888331C48194600F0F7F83B6820
:10244000A4221A703B68591C7B68D3E92623D3B2B7
:102450000B703B68023300221A703B680333002282
:102460001A703B680433114A12881A803B689A1D1F
:102470007B68883310461946102201F0FBFE3B684A
:1024800003F1160478683968162200F087F80346CD
:102490002360064B1B8801339AB2044B1A801A231F
:1024A00018460C37BD4690BDF00400209A0300206A
:1024B00090B585B000AF786039607B68A033324852
:1024C000194600F0DFF87B68A53330481946FFF75E
:1024D000A3FA7B68A6332E48194600F0F7F83B684C
:1024E000A2221A7002F0CEF802460B461046194698
:1024F000284A4FF00003FEF7BDFA02460B46C7E933
:1025000002233B6801333A7A1A703B680233002297
:102510001A703B68033300221A703B6804331E4A6A
:1025200012881A803B6806337A6892F8A520D1B2E7
:102530007A6892F8A620D201D2B20A43D2B21A70B7
:102540003B68073300221A803B6803F109027B686D
:10255000A03310461946052201F08CFE3B6803F1BA
:102560000E04786839680E2200F018F803462360DC
:10257000094B1B8801339AB2074B1A801023184667
:102580001437BD4690BD00BFB8050020700700207D
:10259000F007002040420F009C03002080B584B06B
:1025A00000AFF860B9607A60B868796841F2373294
:1025B000FFF70AFC034618461037BD4680BD00BF32
:1025C000F0B484B000AF786039607B68012283F892
:1025D000B8207B68D3F8B030FB603A68FB6803F141
:1025E000300411461846D0F800C046688568C068B7
:1025F000C1F800C04E608D60C86010331032A34235
:10260000EFD119685B68116053607B68002283F822
:10261000B8207B68D3E93223013243F100037968A3
:10262000C1E932231037BD46F0BC7047B0B485B065
:1026300000AF786039607B68012283F858207B689E
:102640001B6DFB603B68FA68106851689568D46838
:10265000186059609D60DC601069516918615961AA
:102660007B68002283F858207B68D3E91A23013263
:1026700043F100037968C1E91A231437BD46B0BCA1
:10268000704700BF80B485B000AF786039607B6868
:10269000012283F820207B689B69FB603B68FA6815
:1026A0001168196012791A717B68002283F8202062
:1026B0007B68D3E90C23013243F100037968C1E957
:1026C0000C231437BD465DF8047B704780B485B099
:1026D00000AF786039607B6801221A757B68DB681F
:1026E000FB60FB681A783B681A707B6800221A75D9
:1026F0007B68D3E90823013243F100037968C1E91B
:1027000008231437BD465DF8047B704780B582B05E
:1027100000AF78607B68084A1A607B68184608F04A
:102720007FF80023002B02D0786801F0CDFD7B6894
:1027300018460837BD4680BD90C4000880B582B0F9
:1027400000AF78607868FFF7E1FF786801F0BCFDC2
:102750007B6818460837BD4680BD00BF80B582B093
:1027600000AF786039607B68012B0CD13A684FF676
:10277000FF739A4207D10548FFF79CFD03480449BF
:10278000044A09F0A1F90837BD4680BDF0020020D7
:102790000D270008240A002080B500AF01204FF665
:1027A000FF71FFF7DBFF80BD80B582B000AF7860BE
:1027B0007B680A4A1A600A4801F026FA7B680433EB
:1027C000184601F0A1FB0023002B02D0786801F02D
:1027D0007BFD7B6818460837BD4680BD00C60008F3
:1027E00060BB000880B582B000AF78607868FFF702
:1027F000DBFF786801F068FD7B6818460837BD4646
:1028000080BD00BF80B582B000AF78607B680A4AA7
:102810001A600A4801F0F8F97B680433184601F0A1
:1028200073FB0023002B02D0786801F04DFD7B681C
:1028300018460837BD4680BD68C6000870BB000852
:1028400080B582B000AF78607868FFF7DBFF78680A
:1028500001F03AFD7B6818460837BD4680BD00BFD1
:1028600080B582B000AF78607B68064A1A600023AA
:10287000002B02D0786801F027FD7B6818460837E6
:10288000BD4680BDE8C5000880B582B000AF786065
:102890007868FFF7E5FF786801F016FD7B68184659
:1028A0000837BD4680BD00BF80B584B000AFF8607A
:1028B000B9607A603B60044801F0A6F9002318462D
:1028C0001037BD4680BD00BF84BB000880B584B012
:1028D00000AFF860B9607A60FB681846B9683822C2
:1028E0007B6801F03BFFFB68034A1A60FB681846EF
:1028F0001037BD4680BD00BFD8C5000880B483B086
:1029000000AF78607B68044A1A607B6818460C3711
:10291000BD465DF8047B7047E8C5000880B582B00D
:1029200000AF78607B681846FFF7E8FF7B68144AC1
:102930001A607B681A1D7B68C3F8AC207B6803F1C2
:102940003C027B68C3F8B0207B6803F174027B68AB
:10295000C3F8B4207B68002283F8B82079684FF070
:1029600000024FF00003C1E932237B68D3E9322330
:102970007968C1E930237B6818460837BD4680BDB9
:10298000C0C5000880B584B000AFF860B9607A6057
:10299000FB681846B96818227B6801F0DFFEFB6807
:1029A000034A1A60FB6818461037BD4680BD00BF59
:1029B000B0C5000880B582B000AF78607B6818466B
:1029C000FFF79CFF7B68134A1A607B681A1D7B68BF
:1029D000DA647B6803F11C027B681A657B6803F18B
:1029E00034027B685A657B68002283F85820796836
:1029F0004FF000024FF00003C1E91A237B68D3E9CE
:102A00001A237968C1E918237B6818460837BD4640
:102A100080BD00BF98C5000880B584B000AFF860E5
:102A2000B9607A60FB681846B96805227B6801F0D6
:102A300095FEFB68034A1A60FB6818461037BD46CE
:102A400080BD00BF88C5000880B582B000AF786047
:102A50007B681846FFF752FF7B68134A1A607B6851
:102A60001A1D7B685A617B6803F109027B689A61D1
:102A70007B6803F10E027B68DA617B68002283F8D1
:102A8000202079684FF000024FF00003C1E90C23C9
:102A90007B68D3E90C237968C1E90A237B6818466F
:102AA0000837BD4680BD00BF70C5000880B584B042
:102AB00000AFF860B9607A60FB681846B968072211
:102AC0007B6801F04BFEFB68034A1A60FB681846FE
:102AD0001037BD4680BD00BF60C5000880B582B01C
:102AE00000AF78607B681846FFF708FF7B68134AE1
:102AF0001A607B681A1D7B68DA617B6803F10B0240
:102B00007B681A627B6803F112027B685A627B68F9
:102B1000002283F8282079684FF000024FF000036C
:102B2000C1E90E237B68D3E90E237968C1E90C2340
:102B30007B6818460837BD4680BD00BF48C5000801
:102B400080B584B000AFF860B9607A60FB68184661
:102B5000B96806227B6801F001FEFB68034A1A602F
:102B6000FB6818461037BD4680BD00BF38C5000859
:102B700080B582B000AF78607B681846FFF7BEFE74
:102B80007B68134A1A607B681A1D7B689A617B68B0
:102B900003F10A027B68DA617B6803F110027B684B
:102BA0001A627B68002283F8242079684FF00002C3
:102BB0004FF00003C1E90C237B68D3E90C2379684B
:102BC000C1E90A237B6818460837BD4680BD00BFAF
:102BD00020C5000880B584B000AFF860B9607A60A5
:102BE000FB681846B96801227B6801F0B7FDFB68F5
:102BF000034A1A60FB6818461037BD4680BD00BF07
:102C000010C5000880B582B000AF78607B681846B8
:102C1000FFF774FE7B68114A1A607B681A1D7B6897
:102C20009A607B685A1D7B68DA607B689A1D7B68B6
:102C30001A617B6800221A7579684FF000024FF024
:102C40000003C1E908237B68D3E908237968C1E957
:102C500006237B6818460837BD4680BDF8C40008C7
:102C600080B584B000AFF860B9607A60FB68184640
:102C7000B96801227B6801F071FDFB68034A1A60A4
:102C8000FB6818461037BD4680BD00BFE8C4000889
:102C900080B582B000AF78607B681846FFF72EFEE3
:102CA0007B68114A1A607B681A1D7B689A607B6892
:102CB0005A1D7B68DA607B689A1D7B681A617B68A5
:102CC00000221A7579684FF000024FF00003C1E945
:102CD00008237B68D3E908237968C1E906237B6868
:102CE00018460837BD4680BDD0C4000880B584B002
:102CF00000AFF860B9607A60FB681846B9680222D4
:102D00007B6801F02BFDFB68034A1A60FB681846DC
:102D10001037BD4680BD00BFC0C4000880B582B07A
:102D200000AF78607B681846FFF7E8FD7B68124AC1
:102D30001A607B681A1D7B68DA607B689A1D7B6865
:102D40001A617B6803F108027B685A617B68002284
:102D50001A7679684FF000024FF00003C1E90A23A8
:102D60007B68D3E90A237968C1E908237B681846A0
:102D70000837BD4680BD00BFA8C4000880B582B03A
:102D800000AF78607B68084A1A607B681846FFF7D6
:102D900067FD0023002B02D0786801F095FA7B686C
:102DA00018460837BD4680BDA8C4000880B582B06B
:102DB00000AF78607868FFF7E1FF786801F084FA87
:102DC0007B6818460837BD4680BD00BF80B582B01D
:102DD00000AF78607B68084A1A607B681846FFF786
:102DE0003FFD0023002B02D0786801F06DFA7B686C
:102DF00018460837BD4680BDD0C4000880B582B0F3
:102E000000AF78607868FFF7E1FF786801F05CFA5E
:102E10007B6818460837BD4680BD00BF80B582B0CC
:102E200000AF78607B68084A1A607B681846FFF735
:102E300017FD0023002B02D0786801F045FA7B686B
:102E400018460837BD4680BDF8C4000880B582B07A
:102E500000AF78607868FFF7E1FF786801F034FA36
:102E60007B6818460837BD4680BD00BF80B582B07C
:102E700000AF78607B68084A1A607B681846FFF7E5
:102E8000EFFC0023002B02D0786801F01DFA7B686C
:102E900018460837BD4680BD20C5000880B582B001
:102EA00000AF78607868FFF7E1FF786801F00CFA0E
:102EB0007B6818460837BD4680BD00BF80B582B02C
:102EC00000AF78607B68084A1A607B681846FFF795
:102ED000C7FC0023002B02D0786801F0F5F97B686D
:102EE00018460837BD4680BD48C5000880B582B089
:102EF00000AF78607868FFF7E1FF786801F0E4F9E7
:102F00007B6818460837BD4680BD00BF80B582B0DB
:102F100000AF78607B68084A1A607B681846FFF744
:102F20009FFC0023002B02D0786801F0CDF97B686C
:102F300018460837BD4680BD70C5000880B582B010
:102F400000AF78607868FFF7E1FF786801F0BCF9BE
:102F50007B6818460837BD4680BD00BF80B582B08B
:102F600000AF78607B68084A1A607B681846FFF7F4
:102F700077FC0023002B02D0786801F0A5F97B686C
:102F800018460837BD4680BD98C5000880B582B098
:102F900000AF78607868FFF7E1FF786801F094F996
:102FA0007B6818460837BD4680BD00BF80B582B03B
:102FB00000AF78607B68084A1A607B681846FFF7A4
:102FC0004FFC0023002B02D0786801F07DF97B686C
:102FD00018460837BD4680BDC0C5000880B582B020
:102FE00000AF78607868FFF7E1FF786801F06CF96E
:102FF0007B6818460837BD4680BD00BF80B584B0E9
:1030000002AF786039607B68012B40F006813A6836
:103010004FF6FF739A4240F0008181484FF0FF3134
:10302000804AFFF753FC7E487F49804A08F04CFDF8
:103030007F48FFF773FC7E487E497C4A08F044FDD8
:10304000002300937C487649794A7C4B01F046F98D
:1030500079487B49754A08F037FD7A484FF0FF31CF
:10306000794AFFF78FFC77487849704A08F02CFDC1
:103070007748FFF79FFC764876496C4A08F024FDB4
:103080000023009374486F49714A6C4B01F026F994
:1030900071486B49654A08F017FD70484FF0FF31E1
:1030A0006F4AFFF7B9FC6D486E49604A08F00CFDA5
:1030B0006D48FFF7C9FC6C486C495C4A08F004FD98
:1030C000002300936A486549674A5C4B01F006F9A2
:1030D00067485B49554A08F0F7FC66484FF0FF31F6
:1030E000654AFFF7E3FC63486449504A08F0ECFC8A
:1030F0006348FFF7F3FC624862494C4A08F0E4FC7D
:103100000023009360485B495D4A4C4B01F0E6F8B0
:103110005D484B49454A08F0D7FC5C484FF0FF3109
:103120005B4AFFF70DFD59485A49404A08F0CCFC6C
:103130005948FFF71DFD584858493C4A08F0C4FC5F
:103140000023009356485149534A3C4B01F0C6F8BE
:1031500053483B49354A08F0B7FC52484FF0FF311D
:10316000514AFFF737FD4F485049304A08F0ACFC50
:103170004F48FFF747FD4E484E492C4A08F0A4FC43
:10318000002300934C484749494A2C4B01F0A6F8CC
:1031900049482B49254A08F097FC48484FF0FF3131
:1031A000474AFFF75DFD45484649204A08F08CFC38
:1031B0004548FFF76DFD444844491C4A08F084FC2B
:1031C0000023009342483D493F4A1C4B01F086F8DA
:1031D0003F481B49154A08F077FC3E484FF0FF3145
:1031E0003D4AFFF783FD3B483C49104A08F06CFC20
:1031F0003B48FFF793FD3A483A490C4A08F064FC13
:103200000023009338483349354A0C4B01F066F8E7
:1032100035480B49054A08F057FC0837BD4680BDC4
:10322000A00300200CBC000811370008240A00206D
:10323000C8030020AD2F00089804002018BC000827
:1032400005280008C80400202CBC000881360008AE
:10325000F00400205D2F000860050020900500208C
:1032600040BC0008F1350008B80500200D2F00080B
:10327000F00500202006002050BC00086135000841
:1032800048060020BD2E000888060020B806002051
:103290005CBC0008D1340008E00600206D2E000858
:1032A000180700204807002070BC000841340008BF
:1032B000700700201D2E000898070020C807002076
:1032C00080BC0008B1330008F0070020CD2D0008B5
:1032D00018080020480800208CBC00082133000892
:1032E000700800207D2D0008A008002080B584B063
:1032F00000AFF860B9607A603B607B68022B04D94C
:10330000064800F081FC002304E0F868396800F00A
:103310002DFA012318461037BD4680BD9CBC00081D
:1033200080B582B000AF78607B680A4A1A600A48AC
:1033300000F06AFC7B681846FFF736FA0023002B82
:1033400002D0786800F0C0FF7B6818460837BD4699
:1033500080BD00BFC0C40008B0BC000880B582B00A
:1033600000AF78607868FFF7DBFF786800F0ACFFAB
:103370007B6818460837BD4680BD00BF80B584B065
:1033800000AFF860B9607A603B607B68012B04D9BC
:10339000064800F039FC002304E0F868396800F0C2
:1033A00017FA012318461037BD4680BD9CBC0008A3
:1033B00080B582B000AF78607B680A4A1A600A481C
:1033C00000F022FC7B681846FFF7EEF90023002B83
:1033D00002D0786800F078FF7B6818460837BD4651
:1033E00080BD00BFE8C40008B0BC000880B582B052
:1033F00000AF78607868FFF7DBFF786800F064FF63
:103400007B6818460837BD4680BD00BF80B584B0D4
:1034100000AFF860B9607A603B607B68012B04D92B
:10342000064800F0F1FB002304E0F868396800F07A
:1034300001FA012318461037BD4680BD9CBC000828
:1034400080B582B000AF78607B680A4A1A600A488B
:1034500000F0DAFB7B681846FFF7A6F90023002B83
:1034600002D0786800F030FF7B6818460837BD4608
:1034700080BD00BF10C50008B0BC000880B582B098
:1034800000AF78607868FFF7DBFF786800F01CFF1A
:103490007B6818460837BD4680BD00BF80B584B044
:1034A00000AFF860B9607A603B607B68062B04D996
:1034B000064800F0A9FB002304E0F868396800F032
:1034C000EBF9012318461037BD4680BD9CBC0008AF
:1034D00080B582B000AF78607B680A4A1A600A48FB
:1034E00000F092FB7B681846FFF75EF90023002B83
:1034F00002D0786800F0E8FE7B6818460837BD46C1
:1035000080BD00BF38C50008B0BC000880B582B0DF
:1035100000AF78607868FFF7DBFF786800F0D4FED2
:103520007B6818460837BD4680BD00BF80B584B0B3
:1035300000AFF860B9607A603B607B68072B04D904
:10354000064800F061FB002304E0F868396800F0E9
:10355000D7F9012318461037BD4680BD9CBC000832
:1035600080B582B000AF78607B680A4A1A600A486A
:1035700000F04AFB7B681846FFF716F90023002B82
:1035800002D0786800F0A0FE7B6818460837BD4678
:1035900080BD00BF60C50008B0BC000880B582B027
:1035A00000AF78607868FFF7DBFF786800F08CFE8A
:1035B0007B6818460837BD4680BD00BF80B584B023
:1035C00000AFF860B9607A603B607B68052B04D976
:1035D000064800F019FB002304E0F868396800F0A1
:1035E000C5F9012318461037BD4680BD9CBC0008B4
:1035F00080B582B000AF78607B680A4A1A600A48DA
:1036000000F002FB7B681846FFF7CEF80023002B82
:1036100002D0786800F058FE7B6818460837BD462F
:1036200080BD00BF88C50008B0BC000880B582B06E
:1036300000AF78607868FFF7DBFF786800F044FE41
:103640007B6818460837BD4680BD00BF80B584B092
:1036500000AFF860B9607A603B607B68182B04D9D2
:10366000064800F0D1FA002304E0F868396800F059
:10367000B1F9012318461037BD4680BD9CBC000837
:1036800080B582B000AF78607B680A4A1A600A4849
:1036900000F0BAFA7B681846FFF786F80023002B83
:1036A00002D0786800F010FE7B6818460837BD46E7
:1036B00080BD00BFB0C50008B0BC000880B582B0B6
:1036C00000AF78607868FFF7DBFF786800F0FCFDFA
:1036D0007B6818460837BD4680BD00BF80B584B002
:1036E00000AFF860B9607A603B607B68382B04D922
:1036F000064800F089FA002304E0F868396800F011
:10370000A5F9012318461037BD4680BD9CBC0008B2
:1037100080B582B000AF78607B680A4A1A600A48B8
:1037200000F072FA7B681846FFF73EF80023002B82
:1037300002D0786800F0C8FD7B6818460837BD469F
:1037400080BD00BFD8C50008B0BC000880B582B0FD
:1037500000AF78607868FFF7DBFF786800F0B4FDB1
:103760007B6818460837BD4680BD00BF80B485B071
:1037700000AF786039607B68DB683A6812881A802D
:103780007B681B69FB607B68DA687B681A617B6811
:10379000FA68DA607B681B7EDBB2002B09D07B689D
:1037A000DB68FB607B685A697B68DA607B68FA6873
:1037B0005A617B68D3E90823013243F10003796839
:1037C000C1E908231437BD465DF8047B704700BF8C
:1037D00080B485B000AF786039607B689B683A68D8
:1037E00012781A707B68DB68FB607B689A687B687C
:1037F000DA607B68FA689A607B681B7DDBB2002B1D
:1038000009D07B689B68FB607B681A697B689A605B
:103810007B68FA681A617B68D3E90623013243F1B9
:1038200000037968C1E906231437BD465DF8047BBF
:10383000704700BF80B485B000AF786039607B68A6
:103840009B683A6812781A707B68DB68FB607B685B
:103850009A687B68DA607B68FA689A607B681B7D8F
:10386000DBB2002B09D07B689B68FB607B681A6920
:103870007B689A607B68FA681A617B68D3E90623E3
:10388000013243F100037968C1E906231437BD46CC
:103890005DF8047B704700BF80B485B000AF7860EE
:1038A00039607B689B693A681168196092889A80D0
:1038B0007B68DB69FB607B689A697B68DA617B689F
:1038C000FA689A617B6893F82430DBB2002B09D048
:1038D0007B689B69FB607B681A6A7B689A617B687E
:1038E000FA681A627B68D3E90A23013243F10003C4
:1038F0007968C1E90A231437BD465DF8047B704737
:1039000080B485B000AF786039607B68DB693A6865
:10391000116819609188927999809A717B681B6A05
:10392000FB607B68DA697B681A627B68FA68DA6137
:103930007B6893F82830DBB2002B09D07B68DB6909
:10394000FB607B685A6A7B68DA617B68FA685A6256
:103950007B68D3E90C23013243F100037968C1E9A4
:103960000C231437BD465DF8047B704780B485B0E6
:1039700000AF786039607B685B693A6811681960EC
:1039800012791A717B689B69FB607B685A697B6856
:103990009A617B68FA685A617B6893F82030DBB2E1
:1039A000002B09D07B685B69FB607B68DA697B6808
:1039B0005A617B68FA68DA617B68D3E90A230132CD
:1039C00043F100037968C1E90A231437BD465DF865
:1039D000047B7047B0B485B000AF786039607B6815
:1039E000DB6C3A68106851689568D4681860596053
:1039F0009D60DC6010695169186159617B681B6DBD
:103A0000FB607B68DA6C7B681A657B68FA68DA644D
:103A10007B6893F85830DBB2002B09D07B68DB6CF5
:103A2000FB607B685A6D7B68DA647B68FA685A656C
:103A30007B68D3E91823013243F100037968C1E9B7
:103A400018231437BD46B0BC704700BFF0B484B033
:103A500000AF786039607B68D3F8AC203B6803F135
:103A6000300411461846D0F800C046688568C06822
:103A7000C1F800C04E608D60C86010331032A342A0
:103A8000EFD119685B68116053607B68D3F8B03080
:103A9000FB607B68D3F8AC207B68C3F8B0207B6800
:103AA000FA68C3F8AC207B6893F8B830DBB2002B1F
:103AB0000DD07B68D3F8AC30FB607B68D3F8B420C2
:103AC0007B68C3F8AC207B68FA68C3F8B4207B68D5
:103AD000D3E93023013243F100037968C1E930238F
:103AE0001037BD46F0BC704780B500AF01204FF6DF
:103AF000FF71FFF783FA80BD80B582B000AF7860B8
:103B00007B68064A1A600023002B02D0786800F018
:103B1000DBFB7B6818460837BD4680BD10C6000831
:103B200080B582B000AF78607868FFF7E5FF78680D
:103B300000F0CAFB7B6818460837BD4680BD00BF51
:103B400080B582B000AF78600B46FB7097F9033008
:103B5000184606F0A7FA0837BD4680BD80B483B08A
:103B600000AF78607B68044A1A607B6818460C379F
:103B7000BD465DF8047B704710C600080FB480B5E1
:103B800082B000AF1C4B1B68002B2FD03B46184661
:103B9000FFF7E4FF07F114037B60184B1B68002B51
:103BA00005D0164B1B681648194601F0CBFA06F0F3
:103BB000CFFC034683F00103DBB2002B05D03B466C
:103BC0001846396901F04CF80AE00E4806F00EFD7F
:103BD0003B461846396901F043F80A4806F064FD8F
:103BE00006F0A2FA3B461846FFF786FF0837BD46A7
:103BF000BDE8804004B0704704000020E4080020C5
:103C0000C8BC0008E808002080B582B000AF78602A
:103C1000074B7A681A6007487968FFF7AFFF064BD1
:103C20001B685A1C044B1A600837BD4680BD00BF94
:103C300000000020DCBC0008E408002080B582B051
:103C400000AF786039607B68012B07D13A684FF686
:103C5000FF739A4202D1034806F0B0FC0837BD4614
:103C600080BD00BFE808002080B500AF01204FF6FE
:103C7000FF71FFF7E3FF80BD0FB480B400AF0023F6
:103C80001846BD465DF8047B04B0704780B483B02D
:103C900000AF78600C37BD465DF8047B704700BF0D
:103CA0000FB480B400AF00231846BD465DF8047B16
:103CB00004B070470FB480B400AF00231846BD466F
:103CC0005DF8047B04B0704780B483B000AF7860C7
:103CD000002318460C37BD465DF8047B704700BFD3
:103CE00080B483B000AF7860002318460C37BD461F
:103CF0005DF8047B704700BF0FB480B400AF0023B1
:103D00001846BD465DF8047B04B070470FB480B41C
:103D100000AF00231846BD465DF8047B04B0704731
:103D20000FB480B400AF00231846BD465DF8047B95
:103D300004B0704780B483B000AF78607B680A4AF3
:103D40001A607B6800221A617B6800225A607B68D7
:103D500000229A607B680022DA607B6818460C3784
:103D6000BD465DF8047B704728C6000880B584B066
:103D700000AFF860C7E9002305F0BAFDFB681B68D7
:103D800010331B68F86898470346002B02D005F0F3
:103D9000B7FD0EE006F0FEFD0246FB689A60FB6888
:103DA0009968D7E90023C1E90A2305F0A9FD06F0C7
:103DB0007BFD1037BD4680BD80B582B000AF786016
:103DC0007B689B68002B04D07B689B68184606F0D4
:103DD000EDFD7B6800229A607B681B69002B07D091
:103DE0007B681B691B681B687A68126910469847D4
:103DF0000837BD4680BD00BF80B582B000AF786097
:103E00007B685B68002B04D07B685B68184606F013
:103E1000CDFD7B6800225A607B681B69002B08D0AF
:103E20007B681B691B6804331B687A68126910463B
:103E300098470837BD4680BD80B582B000AF786036
:103E40007B68DB68002B04D07B68DB68184606F0D3
:103E5000ADFD7B680022DA607B681B69002B08D00F
:103E60007B681B691B6808331B687A6812691046F7
:103E700098470837BD4680BD80B584B000AFF86074
:103E8000B9607A603B60FB683A68DA60FB687A6820
:103E90005A60084B1B68591C064A1160FA68936007
:103EA000F868B96800F008F8FB6818461037BD4696
:103EB00080BD00BFF808002080B582B000AF7860F8
:103EC00039603B681A687B681A603B687A681A60D8
:103ED0000A4B1B68002B0CBF00230123DBB2002B15
:103EE00008D00748FFF790FE7B685B6805481946D5
:103EF000FFF744FE0837BD4680BD00BFA01C002070
:103F000008BD00083CBD000880B582B000AF7860F5
:103F10000348FFF779FE7B6818460837BD4680BD29
:103F200060BD000880B483B000AF78607B681B6818
:103F300018460C37BD465DF8047B704780B483B0EB
:103F400000AF78607B685B6818460C37BD465DF84B
:103F5000047B704780B588B000AF01233B60FB78DD
:103F60005BB2012B14BF00230123DAB26E4B1A702F
:103F700006F062F86D4801F0E5F86D4B1B68002B08
:103F800003D06B4B1B68043B00E00023FB6110E097
:103F9000FB691B681B68F8699847FB69043318467E
:103FA000FFF7C0FF0346002B01D0043B00E00023D5
:103FB000FB61FB69002BEBD15E4B1B68002B03D030
:103FC0005C4B1B68043B00E00023BB6111E0BB6954
:103FD0001B6808331B68B8699847BB6904331846E7
:103FE000FFF7A0FF0346002B01D0043B00E00023B5
:103FF000BB61BB69002BEAD14F4801F0A3F84F4BDE
:104000001B68002B03D04D4B1B68043B00E00023D2
:104010007B6121E07B6904331846FFF783FF034689
:10402000002B01D0043B00E00023BB607B691B7FB9
:10403000002B06D07B69043318464149FFF73CFF4B
:1040400008E07B691A1D7B695B69143310461946C9
:10405000FFF732FFBB687B617B69002BDAD1394BFC
:104060001B68002B4DD0384801F06CF8354B1B68AD
:10407000002B03D0334B1B68043B00E000233B6163
:104080003CE03B6904331846FFF758FF01463B69A3
:10409000DA693B691B6A2D4801F054F83B695B699A
:1040A000002B03D03B695B69043B00E00023FB600D
:1040B00015E0FB6804331846FFF740FF0346244829
:1040C000194601F03FF8FB6804331846FFF72AFF52
:1040D0000346002B01D0043B00E00023FB60FB689B
:1040E000002BE6D13B6904331846FFF71BFF03465C
:1040F000002B01D0043B00E000233B613B69002B17
:10410000BFD1144801F01EF800F068FA78607B68AF
:10411000002B03D01048796801F014F806F09CFCDD
:104120002037BD4680BD00BF0009002074BD0008D7
:10413000DC080020581D0020A4BD0008E008002075
:1041400060090020FC080020C8BD0008E4BD00088C
:1041500010BE00081CBE000830BE00082DE9F0416A
:1041600084B002AF78603960264B7A681A60264BBB
:104170003A681A6005F07CFB24482549254A00F07E
:10418000E1FF06F03DFFFFF7E5FE05F013FB0346F8
:104190001E4605F02FFB054605F036FB044605F0EC
:1041A00015FB804605F01CFB0346CDF8008001930B
:1041B000194831462A46234600F0C4FF06F0DCFFCA
:1041C000044606F0D9FF0346144821461A4600F07B
:1041D000B9FF134800F0B6FF00F026F842F2107065
:1041E0004FF0000105F03EFE05F0E4FD0D4800F043
:1041F000A9FF06F04BF9002318460837BD46BDE875
:10420000F08100BF04090020080900204CBE00080E
:104210007CBE000888BE0008A0BE000804BF0008DD
:1042200024BF00085CBF000880B500AF014800F063
:1042300089FF80BD90BF000880B485B000AF786072
:104240000023FB607B68002B01D100230BE005E01D
:10425000FB680133FB607B6801337B607B681B7804
:10426000002BF5D1FB6818461437BD465DF8047B7A
:10427000704700BF80B487B000AFF860B9607A6063
:10428000FB687B61BB683B617B69002B02D03B69AB
:10429000002B01D1002311E00CE03B691A787B6907
:1042A0001A707B68013B7B603B6901333B617B6932
:1042B00001337B617B68002BEFD1FB6818461C370C
:1042C000BD465DF8047B704780B483B000AF786072
:1042D0000C37BD465DF8047B704700BF80B584B0E5
:1042E00000AFF860B9607A603B60FB680433184641
:1042F0001049114A0023FFF7BFFDFB680F4A1A60FF
:10430000FB68BA685A61FB682033184606F056F914
:10431000FB683A7E1A77FB6801225A77FB683A6895
:104320009A60FB687A689A61FB6818461037BD4648
:1043300080BD00BFE0080020BCBF000868C60008C0
:1043400080B485B000AFF860B9607A603B60034B21
:1043500018461437BD465DF8047B704715CD5B07E2
:1043600090B587B002AFF860B9607A603B60FB68D7
:104370005B7F83F00103DBB2002B01D000233DE023
:10438000FB682033184606F031F9FB689B69002B67
:104390000FD0FB689B691B6808331C68FB689A692F
:1043A0007B68396A00911046B9681A463B68A04795
:1043B00018E0FB681B681C683B6A5B690093F8683F
:1043C000B9687A683B68A04702460E4B9A420CBF18
:1043D00000230123DBB2002B04D00B48FFF714FCB1
:1043E00001230BE0FB682033184606F05DF9FB68FB
:1043F0009B69002B01D0012300E0002318461437ED
:10440000BD4690BD15CD5B07C8BF000890B58DB007
:1044100002AFF860B9607A603B60FB689B69002B73
:104420000FD0FB689B691B6808331C68FB689A699E
:104430003B6807F1100100911046B9681A467B6885
:10444000A0472C37BD4690BD80B485B000AFF86062
:10445000C7E90023F968D7E90023C1E90E23F96809
:10446000D7E90623C1E910231437BD465DF8047B64
:10447000704700BFB0B586B002AF786006E04FF07D
:10448000FF306FF00041002206F0ACFA7B68D3E900
:10449000102352EA0301F2D07B68D3E90E231046C1
:1044A0001946002206F09EFA00F0ECF8C7E9020176
:1044B0007B68D3E90E017B68D3E91023D7E9024575
:1044C000CDE9004500F0E8F802460B467968C1E9FD
:1044D0000E231037BD46B0BD80B584B000AF786004
:1044E00006F058FAF860F86806F03AFAB860F8682A
:1044F000796806F041FABB6818461037BD4680BDA2
:10450000B0B586B002AFC7E900010023FB60324BB3
:104510001B68002B03D0304B1B68043B00E00023DA
:10452000BB6051E0BB68D3E90601D7E900239042A4
:1045300071EB030C3CDABB68D3E9082352EA0301B0
:1045400007D1B9684FF0FF326FF00043C1E906238D
:1045500025E0BB68D3E90601BB68D3E9082312183C
:1045600043EB0103B968C1E90623BB68D3E906013F
:10457000D7E90023904271EB030C10DABB68D3E952
:104580000601BB68D3E90823D7E90045CDE900451A
:1045900000F082F802460B46B968C1E90623BB6801
:1045A0001B6808331B68B8689847FB680133FB60D9
:1045B000BB6804331846FFF7B5FC0346002B01D057
:1045C000043B00E00023BB60BB68002BAAD1FB6862
:1045D00018461037BD46B0BDD808002080B582B05F
:1045E00000AF00237B60144B1B68002B03D0124BE1
:1045F0001B68043B00E000233B6014E03B681B6841
:104600000C331B68386898477B6801337B603B68D4
:1046100004331846FFF786FC0346002B01D0043B09
:1046200000E000233B603B68002BE7D17B68184625
:104630000837BD4680BD00BFD808002080B483B0D5
:1046400000AF786079684FF000024FF00003C1E9D5
:10465000002379684FF000024FF00003C1E9022304
:1046600079684FF000024FF00003C1E904237B6832
:1046700011229A617B6818460C37BD465DF8047BB1
:10468000704700BF80B500AF05F072FC02460B46D4
:104690001046194680BD00BF80B584B000AFC7E9A1
:1046A0000201C7E90023D7E90223D7E906019042B6
:1046B00071EB030C02DAD7E902232CE0D7E90023DF
:1046C00052EA030104D14FF0FF326FF0004322E0C1
:1046D000D7E90601D7E90223821A61EB03031046EA
:1046E0001946D7E90023FCF7C5F902460B4601320B
:1046F00043F10003396803FB01F0796802FB01F123
:1047000001443868A0FB022319440B46D7E9020193
:10471000121843EB0103104619461037BD4680BD01
:1047200080B582B000AF786039607B68012B07D11B
:104730003A684FF6FF739A4202D10348FFF77EFFB3
:104740000837BD4680BD00BF1009002080B500AF0E
:1047500001204FF6FF71FFF7E3FF80BD80B586B003
:1047600000AFF860B9607A603B60FB6804331846BC
:104770002E493A680023FFF77FFBFB682C4A1A603A
:10478000FB6800225A61FB68BA68DA61FB687A68E4
:104790001A62FB6800229A61FB68DB69B3F1FF3F94
:1047A00011D1386806F0A0FC03461A46FB68DA61AE
:1047B000FB68DB69B3F57A7F05DAFB68DB6903F533
:1047C0007A72FB68DA61194B1B68002B03D0174B18
:1047D0001B68043B00E000237B611EE07B69DA6913
:1047E000BB689A420DD17A69FB689A4209D0114898
:1047F000FFF70AFA7B699B680F48B9683A68FFF7C8
:10480000BDF97B6904331846FFF78CFB0346002B88
:1048100001D0043B00E000237B617B69002BDDD1EC
:10482000FB6818461837BD4680BD00BFFC08002055
:1048300000C6000828C000083CC0000880B586B04B
:1048400002AFF860B9603B601346FB71FB681B6AFE
:104850001A46FB7939680091F868B96800F006F8E3
:10486000034618461037BD4680BD00BF90B591B0D5
:1048700002AFF860B9607A60FB7000237B63BB6CA9
:10488000002B12D100237B62FFF7FCFE02460B4691
:10489000C7E9062306F070FC03463B6106F07AF890
:1048A00003463B6207F11003BB64FB689B69002B66
:1048B0000FD0FB689B691B681C68FB689969FB68E3
:1048C000DA697B68B86C0090084611461A46BB68E6
:1048D000A047FB685B69002B03D0FB685B69043B66
:1048E00000E000233B6321E03B6B5B7F002B11D09A
:1048F0003B6B1B6804331C68FB68DA697B68B96C26
:104900000091386B11461A46BB68A04703467A6B84
:1049100013447B633B6B04331846FFF703FB0346EA
:10492000002B01D0043B00E000233B633B6B002BDA
:10493000DAD1FB7883F00103DBB2002B01D07B6B73
:104940002CE0184B5B69002B03D0164B5B69043BD2
:1049500000E00023FB621DE0FB6A1B6804331C6857
:10496000FB68DA697B68B96C0091F86A11461A46EF
:10497000BB68A04703467A6B13447B63FB6A04332E
:104980001846FFF7CFFA0346002B01D0043B00E0A6
:104990000023FB62FB6A002BDED17B6B18463C37A1
:1049A000BD4690BD4C09002080B582B000AF786054
:1049B0007B680A4A1A600A48FFF726F97B6818469E
:1049C000FDF7F2FE0023002B02D07868FFF77CFC95
:1049D0007B6818460837BD4680BD00BFA8C60008E2
:1049E000B4C0000880B582B000AF78607868FFF787
:1049F000DBFF7868FFF768FC7B6818460837BD4620
:104A000080BD00BF80B584B000AFF860B9607A6047
:104A1000FB681846B9680C227B68FFF79FFEFB68AD
:104A2000034A1A60FB6818461037BD4680BD00BFB8
:104A3000A8C6000880B584B000AFF860B9607A609D
:104A4000FB681846B96840F22E527B68FFF786FE75
:104A5000FB68034A1A60FB6818461037BD4680BDE4
:104A600098C6000880B584B000AFF860B9607A607D
:104A7000FB681846B96804227B68FFF76FFEFB6885
:104A8000034A1A60FB6818461037BD4680BD00BF58
:104A900088C6000880B582B000AF786039607B6856
:104AA000012B4FD13A684FF6FF739A424AD12748FB
:104AB00027490A2206F02EFA24482649264A07F0FA
:104AC00003F826480021264AFFF79CFF2348254982
:104AD000214A06F0F9FF24484FF0FF31234AFFF73F
:104AE000A9FF214822491C4A06F0EEFF21484FF059
:104AF000FF31214AFFF7B6FF1E482049164A06F04B
:104B0000E3FF1F484FF0FF311E4AFFF7ABFF1C4881
:104B10001A49114A06F0D8FF1B484FF0FF311B4AD3
:104B2000FFF7A0FF184815490B4A06F0CDFF1848BB
:104B30004FF0FF31174AFFF765FF15480949064A4C
:104B400006F0C2FF0837BD4680BD00BF3009002017
:104B5000C4C0000855AF0008240A00204C090020FA
:104B6000D8C00008A949000870090020E8C0000862
:104B7000F54B000894090020F4C00008994B000888
:104B8000B809002004C10008DC09002014C1000895
:104B9000000A002028C1000880B582B000AF78600C
:104BA0007B680A4A1A600A48FFF72EF87B681846A5
:104BB000FDF7FAFD0023002B02D07868FFF784FB95
:104BC0007B6818460837BD4680BD00BF88C6000810
:104BD000B4C0000880B582B000AF78607868FFF795
:104BE000DBFF7868FFF770FB7B6818460837BD4627
:104BF00080BD00BF80B582B000AF78607B680A4A94
:104C00001A600A48FFF700F87B681846FDF7CCFDEC
:104C10000023002B02D07868FFF756FB7B6818460C
:104C20000837BD4680BD00BF98C60008B4C0000864
:104C300080B582B000AF78607868FFF7DBFF7868F6
:104C4000FFF742FB7B6818460837BD4680BD00BFB2
:104C500080B500AF01204FF6FF71FFF71BFF80BD4D
:104C600080B594B000AF7860396056E2002387F8D1
:104C70004E30002387F84D30002387F84C30002356
:104C800087F84B3097F84F30252B0AD07B681B688C
:104C900008331B6897F84F2052B27868114698473E
:104CA0003BE23B685A1C3A601B7887F84F30002380
:104CB00087F84330202387F84230032387F84130B8
:104CC00097F84F30302B09D197F84F3087F84230A2
:104CD0003B685A1C3A601B7887F84F3097F84F3082
:104CE0002F2B0ED997F84F30392B0AD897F84F3021
:104CF000303B87F843303B685A1C3A601B7887F892
:104D00004F3097F84F302E2B10D13B685A1C3A6029
:104D10001B7887F84F3097F84F30303B87F8413099
:104D20003B685A1C3A601B7887F84F3097F84F3031
:104D30006C2B08D1012387F84D303B685A1C3A6030
:104D40001B7887F84F3097F84F306C2B08D1012330
:104D500087F84C303B685A1C3A601B7887F84F3014
:104D600097F84F30623B162B38D801A151F823F049
:104D7000694E0008CD4D0008534E0008DD4D000877
:104D80004D4E0008DD4D0008DD4D0008DD4D0008EA
:104D9000DD4D0008DD4D0008DD4D0008DD4D00084B
:104DA000DD4D0008374E0008DD4D0008DD4D0008E0
:104DB000DD4D0008F34D0008DD4D0008594E000898
:104DC000DD4D0008DD4D0008614E00087B685B6822
:104DD000191D7A6851601B6887F84F307B681B6823
:104DE00008331B6897F84F2052B2786811469847ED
:104DF00093E17B685B68191D7A6851601B687B646E
:104E000009E07B681B6808331B6897F84F2052B293
:104E10007868114698477B6C5A1C7A641B7887F82F
:104E20004F3097F84F30002B0CBF00230123DBB22B
:104E3000002BE6D171E10823A7F848307B681B6896
:104E400008331B6878683021984711E0012387F800
:104E50004B30012387F84E300A23A7F8483007E08B
:104E60001023A7F8483003E00223A7F8483000BF1A
:104E70004FF000024FF00003C7E90C234FF000028F
:104E80004FF00003C7E90A2397F84B30002B15D0E9
:104E90007B685B68073323F0070303F108017A6836
:104EA0005160D3E90023C7E90A23D7E90A01FBF7D8
:104EB00013FE02460B46C7E90C232CE097F84C3052
:104EC000002B0DD07B685B68073323F0070303F1E9
:104ED00008017A685160D3E90023C7E90C231AE07E
:104EE00097F84D30002B0BD07B685B68191D7A68F2
:104EF00051601B681A464FEAE273C7E90C230AE0C7
:104F00007B685B68191D7A6851601B681A464FEA16
:104F1000E273C7E90C2397F84E30002B2DD0D7E968
:104F20000C23002A73F100010ADBD7E90A014FF0D4
:104F300000024FF00003FBF755FD0346002B1CD089
:104F4000D7E90C23524263EB4303C7E90C23BB6A46
:104F5000BB62FB6A83F00043FB627B681B6808331B
:104F60001B6878682D21984797F84330002B04D0B0
:104F700097F84330013B87F8433097F84C30002BCB
:104F800004D0D7E90C23C7E90E2310E097F84D3081
:104F9000002B06D03B6B1A464FF00003C7E90E23E7
:104FA00005E03B6B1A464FF00003C7E90E2307F1FB
:104FB0000C031A337B647B6C013B7B647B6C0022AB
:104FC0001A70B7F848204FF00003D7E90E01FBF73D
:104FD0006DFDD3B23033DBB287F8273097F9273035
:104FE000392B05DD97F827300733DBB287F82730F8
:104FF0007B6C013B7B6497F827207B6C1A70B7F8B9
:1050000048204FF00003D7E90E01FBF74FFD0246A1
:105010000B46C7E90E2397F84330002B04D097F8CE
:105020004330013B87F84330D7E90E2352EA0301AE
:10503000C7D106E07B6C013B7B647B6C97F8422018
:105040001A7097F843305A1E87F84320002B0CBF84
:1050500000230123DBB2002BECD109E07B681B6845
:1050600008331B6897F84F2052B27868114698476A
:105070007B6C5A1C7A641B7887F84F3097F84F3056
:10508000002B0CBF00230123DBB2002BE6D197F8E5
:105090004B30002B41D07B681B6808331B68786855
:1050A0002E2198472DE0D7E90C01FBF7FBF90246CA
:1050B0000B46D7E90A01FBF76FF802460B46C7E932
:1050C0000A23D7E90A014FF000021D4BFBF718FA3B
:1050D00002460B46C7E90A23D7E90A01FBF7FCFCA5
:1050E00002460B46C7E90C237B681B6808331B6824
:1050F00097F830203032D2B2D2B252B2786811462C
:10510000984797F841305A1E87F84120002B0CBF72
:1051100000230123DBB2002BC5D13B685A1C3A6047
:105120001B7887F84F3097F84F30002B0CBF0023C7
:105130000123DBB2002B7FF499AD5037BD4680BD13
:10514000000024400FB480B582B000AF0C4B1B6848
:10515000002B0FD03B461846FEF700FD07F1140365
:105160007B603B4618463969FFF77AFD3B46184697
:10517000FEF7C2FC0837BD46BDE8804004B070476A
:105180000400002080B582B000AF0C4B7B6008E0CB
:105190007B681B6898473B6801333B607B6804333E
:1051A0007B607A68064B9A42F2D13B6801333B60E0
:1051B0003B68013B3B600837BD4680BD68C80008BE
:1051C000B0C8000880B485B000AFF860B9607A60FC
:1051D000002318461437BD465DF8047B704700BFB6
:1051E00080B400AFFEE700BF002100F004B8124B0E
:1051F0005B58435004311148114B42189A42FFF456
:10520000F6AF104A00F003B8002342F8043B0E4BFF
:105210009A42FFF4F9AF0D4A00F003B8002342F8B8
:10522000043B0B4B9A42FFF4F9AF04F083FFFFF706
:10523000A9FFFEF793FF7047B0C8000800000020E8
:1052400058000020580000206CBD00200000001015
:105250000000001004F022FFFFF7FCBF80B483B011
:1052600000AF786039603B6818460C37BD465DF882
:10527000047B704780B483B000AF78600123184688
:105280000C37BD465DF8047B704700BF80B483B027
:1052900000AF7860012318460C37BD465DF8047BEB
:1052A000704700BF80B483B000AF0346FB71084B6A
:1052B00097F907205209F97901F01F01012000FA3E
:1052C00001F143F822100C37BD465DF8047B7047AE
:1052D00000E100E080B483B000AF0346FB71094BEE
:1052E00097F907205209F97901F01F01012000FA0E
:1052F00001F1603243F822100C37BD465DF8047BA3
:10530000704700BF00E100E080B500AF124B1B7892
:1053100083F00103DBB2002B1CD00F4B01221A706B
:105320004FF48040012103F081FE0620FFF7BAFF11
:105330000720FFF7B7FF0820FFF7B4FF0920FFF7AA
:10534000B1FF0A20FFF7AEFF1720FFF7ABFF2820C1
:10535000FFF7A8FF80BD00BF680A002080B582B0BB
:1053600000AF786079807A703B707B687A881A80A9
:105370007B687A781A727B683A785A72786800F09B
:1053800023F8B7F90230184600F008F902467B68A6
:105390005A617B680C33184603F09EFB7B685B897F
:1053A0001A467B68DA607B6802225A747B680022A6
:1053B0001A747B6800221A767B6800225A767B6812
:1053C00018460837BD4680BD80B483B000AF786012
:1053D0007B681B7A1A467B681B889BB203F00F031D
:1053E0001344102B0CDD7B681B889BB203F00F036A
:1053F0004FF6FF7202FA03F39AB27B685A8117E004
:105400007B681B7AC3F110034FF6FF7242FA03F375
:105410009AB27B685A817B685B891A467B681B88D5
:105420009BB203F00F0302FA03F39AB27B685A812E
:105430000C37BD465DF8047B704700BF80B582B075
:1054400000AF78607B6801225A767B685B681B68D6
:1054500030331B687A685268104698470A4A7B685E
:105460001B8819B2094B0B40002B03DA013B63F098
:105470000F0301339BB21BB2012101FA03F3536105
:105480000837BD4680BD00BF003C01400F000080D2
:1054900080B485B000AF78600023FB6002E0FB6859
:1054A0000133FB607B685B087B607B68002B0CBF73
:1054B00000230123DBB2002BF1D1FB68184614371F
:1054C000BD465DF8047B704780B483B000AF786060
:1054D0007B68274A934234D0254A934213D8254A01
:1054E000934228D0234A934206D8234A93421ED09F
:1054F000224A93421DD033E0214A93421DD0214AD3
:1055000093421CD02CE0204A934220D01E4A934262
:1055100006D81E4A934216D01D4A934215D01FE06A
:105520001C4A934216D01C4A934216D018E001231D
:1055300017E0022315E0042313E0082311E01023F1
:105540000FE020230DE040230BE0802309E04FF41F
:10555000807306E04FF4007303E04FF4806300E0D3
:10556000002318460C37BD465DF8047B704700BF2A
:105570000014024000080240000002400004024003
:10558000000C0240001002400020024000180240BF
:10559000001C0240002402400028024080B483B076
:1055A00000AF0346FB80B7F906300F2B01DC1C4B24
:1055B00030E0B7F906301F2B01DC1A4B2AE0B7F9AF
:1055C00006302F2B01DC184B24E0B7F906303F2BB7
:1055D00001DC164B1EE0B7F906304F2B01DC144BF3
:1055E00018E0B7F906305F2B01DC124B12E0B7F977
:1055F00006306F2B01DC104B0CE0B7F906307F2B27
:1056000001DC0E4B06E0B7F906308B2B01DC0C4BAE
:1056100000E0002318460C37BD465DF8047B704758
:10562000000002400004024000080240000C02405A
:10563000001002400014024000180240001C02400A
:105640000020024080B483B000AF0346FB80FB889B
:1056500003F00F03012202FA03F39BB218460C3742
:10566000BD465DF8047B704780B586B000AF02464A
:105670000B46FA807B71B7F90630002B03DBB7F9D4
:1056800006308B2B02DD4FF0FF3338E0B7F90630E0
:105690001846FFF783FF7861B7F906301846FFF721
:1056A000D1FF03467B827869FFF70EFF0346184659
:1056B000012103F07FFC7869FFF706FF03461846D7
:1056C000002103F0D1FC7B8A1846FFF7E1FE034678
:1056D0009AB27B79786911461A4603F04FFA07F1BE
:1056E0000803184603F0F8F902233B737B8ABB607A
:1056F00007F108037869194603F060F9002318469A
:105700001837BD4680BD00BF80B584B000AF0346EA
:10571000FB80B7F90630002B03DBB7F906308B2B83
:1057200002DD4FF0FF331AE007F10803184603F0DB
:10573000D3F900233B73B7F906301846FFF782FF11
:105740000346BB60B7F906301846FFF727FF02464D
:1057500007F108031046194603F030F900231846F4
:105760001037BD4680BD00BF90B583B000AF7860F4
:105770000B467B807B681846FEF7DCFA7B68134A91
:105780001A601C2005F004FD02467B689A617B6864
:105790009B691C201946FFF761FD0446002C09D0C7
:1057A000B7F902302046194601220023FFF7D6FD43
:1057B000234600E023467A6893617B689B697A6898
:1057C0005A607B6818460C37BD4690BDB8C60008C5
:1057D00080B584B000AFF8607A603B600B46FB7226
:1057E0007B68002B04D0FB689B697A68D2B21A727E
:1057F000FB689B69FA7A5A72FB689B691846FFF747
:10580000E3FDFB689B695B69002B02D14FF0FF331E
:1058100021E0FB689B695B691846FFF755FE03466C
:105820001846012103F0C6FBFB689B695B7A002BDD
:1058300009D0F8680021012200F012F8F8683968F0
:1058400000F0CCF804E0F8680021002200F008F82D
:10585000FFF75AFD002318461037BD4680BD00BF34
:1058600080B584B000AFF8600B467A60FB72FB7ABB
:10587000042B00F29B8001A252F823F091580008FB
:10588000D15800081B5900085759000893590008BF
:105890007B68002B08D0FB689B6901225A72FB6869
:1058A0009B6901221A7407E0FB689B6900225A7207
:1058B000FB689B6900221A74FB689B695A69FB6844
:1058C0009B690C331046194603F078F800236FE00B
:1058D0007B68002B1ED07B68FF2B1BD8FB689B6965
:1058E0007A68D2B21A72FB689B691846FFF76CFDA2
:1058F000FB689B69FA6892695289DA60FB689B6968
:105900005A69FB689B690C331046194603F056F838
:1059100000234DE04FF0FF334AE07B68002B17D0A7
:105920007B68002B04D0FB689B690122DA7403E0DA
:10593000FB689B690022DA74FB689B695A69FB6803
:105940009B690C331046194603F038F800232FE00A
:105950004FF0FF332CE07B68002B17D07B68002BC7
:1059600004D0FB689B690222DA7403E0FB689B6940
:105970000022DA74FB689B695A69FB689B690C33E7
:105980001046194603F01AF8002311E04FF0FF33D8
:105990000EE07B68022B06D8FB689B697A68D2B25E
:1059A0001A76002304E04FF0FF3301E04FF0FF339D
:1059B00018461037BD4680BD80B582B000AF786014
:1059C0007868002100F064F87B689B691B881BB233
:1059D0001846FFF799FE0837BD4680BD80B584B0F4
:1059E00000AF7860396000237B817B689B695B7ABC
:1059F000002B3CD040F2EB30FEF76EFD0346013346
:105A0000FB6031E07B689B695B69184603F07EF8B8
:105A100003469AB27B689B695B899BB2DB439BB26E
:105A200013409BB27B817B689B691B889BB203F010
:105A30000F033A6802FA03F39AB27B689B695B89A9
:105A400013409AB27B8913437B817B689B695A69B7
:105A50007B891046194603F083F8FB68013B184622
:105A6000FEF73AFD0023FB60FB68002BCAD110371C
:105A7000BD4680BD80B483B000AF78607B689B6911
:105A80005B7E18460C37BD465DF8047B704700BF4F
:105A900080B586B000AF78600B46FB707B689B6971
:105AA0001B881BB2002B00DA0F331B119BB21BB2F9
:105AB0007B617B689B691B881AB24E4B1340002B9D
:105AC00003DA013B63F00F0301339BB21BB23B616E
:105AD0003B69FB60FB78002B5DD0474BFA6853F8BD
