:020000040800F2
:1000000000000220AD6D0008D9C20008E1C200085E
:1000100005C300080DC3000815C300080000000058
:1000200000000000000000000000000019BC0008F3
:10003000196E0008000000002DBC000859BF000820
:10004000196E0008196E0008196E0008196E000874
:10005000196E0008196E0008CD770008F1770008C6
:1000600015780008397800085D780008196E0008D6
:10007000BD910008196E0008E5900008196E00088F
:10008000759100089D900008196E0008196E00080F
:10009000196E0008196E0008196E000881780008B2
:1000A000196E0008196E000809C10008196E0008D1
:1000B000196E0008196E0008196E0008196E000804
:1000C000196E0008196E0008196E0008196E0008F4
:1000D000196E0008C58F0008DD8F0008F58F000835
:1000E000DD780008196E0008196E0008196E000806
:1000F000196E0008196E0008196E0008196E0008C4
:10010000196E0008196E000825BD0008196E000858
:100110000D90000825900008196E0008196E00085F
:10012000196E0008196E0008196E0008196E000893
:10013000196E0008196E0008196E0008196E000883
:10014000196E0008196E0008196E0008196E000873
:100150002D910008196E0008559000083D90000888
:10016000196E0008196E0008196E0008196E000853
:10017000196E0008196E0008196E0008196E000843
:0C018000196E0008196E0008000000084D
:1001900081F0004102E000BF83F0004330B54FEA38
:1001A00041044FEA430594EA050F08BF90EA020FA5
:1001B0001FBF54EA000C55EA020C7FEA645C7FEA38
:1001C000655C00F0E2804FEA5454D4EB5555B8BF5B
:1001D0006D420CDD2C4480EA020281EA030382EACC
:1001E000000083EA010180EA020281EA0303362D5E
:1001F00088BF30BD11F0004F4FEA01314FF4801C31
:100200004CEA113102D0404261EB410113F0004F42
:100210004FEA03334CEA133302D0524263EB4303F9
:1002200094EA050F00F0A780A4F10104D5F1200E97
:100230000DDB02FA0EFC22FA05F2801841F10001F2
:1002400003FA0EF2801843FA05F359410EE0A5F1C6
:1002500020050EF1200E012A03FA0EFC28BF4CF0F7
:10026000020C43FA05F3C01851EBE37101F00045AD
:1002700007D54FF0000EDCF1000C7EEB00006EEBBA
:100280000101B1F5801F1BD3B1F5001F0CD3490844
:100290005FEA30004FEA3C0C04F101044FEA44529B
:1002A00012F5800F80F09A80BCF1004F08BF5FEA22
:1002B000500C50F1000041EB045141EA050130BD02
:1002C0005FEA4C0C404141EB010111F4801FA4F1A5
:1002D0000104E9D191F0000F04BF01460020B1FAFA
:1002E00081F308BF2033A3F10B03B3F120020CDA32
:1002F0000C3208DD02F1140CC2F10C0201FA0CF010
:1003000021FA02F10CE002F11402D8BFC2F1200C74
:1003100001FA02F120FA0CFCDCBF41EA0C0190402A
:10032000E41AA2BF01EB0451294330BD6FEA040473
:100330001F3C1CDA0C340EDC04F11404C4F120025E
:1003400020FA04F001FA02F340EA030021FA04F370
:1003500045EA030130BDC4F10C04C4F1200220FAC7
:1003600002F001FA04F340EA0300294630BD21FA05
:1003700004F0294630BD94F0000F83F4801306BFCB
:1003800081F480110134013D4EE77FEA645C18BFBF
:100390007FEA655C29D094EA050F08BF90EA020F56
:1003A00005D054EA000C04BF1946104630BD91EA4E
:1003B000030F1EBF0021002030BD5FEA545C05D151
:1003C0004000494128BF41F0004130BD14F5800490
:1003D0003CBF01F5801130BD01F0004545F0FE4104
:1003E00041F470014FF0000030BD7FEA645C1ABF39
:1003F000194610467FEA655C1CBF0B46024650EA70
:10040000013406BF52EA033591EA030F41F400219B
:1004100030BD00BF90F0000F04BF0021704730B521
:100420004FF4806404F132044FF000054FF00001F6
:1004300050E700BF90F0000F04BF0021704730B5B7
:100440004FF4806404F1320410F0004548BF40428C
:100450004FF000013EE700BF42004FEAE2014FEAE1
:1004600031014FEA02701FBF12F07F4393F07F4FBC
:1004700081F06051704792F0000F14BF93F07F4FEE
:10048000704730B54FF4607401F0004521F0004131
:1004900020E700BF50EA010208BF704730B54FF0B7
:1004A00000050AE050EA010208BF704730B511F0BC
:1004B000004502D5404261EB41014FF4806404F1F4
:1004C00032045FEA915C3FF4DCAE4FF003025FEA76
:1004D000DC0C18BF03325FEADC0C18BF033202EBFE
:1004E000DC02C2F1200300FA03FC20FA02F001FA58
:1004F00003FE40EA0E0021FA02F11444C1E600BFF7
:1005000070B54FF0FF0C4CF4E06C1CEA11541DBFA9
:100510001CEA135594EA0C0F95EA0C0F00F0DEF874
:100520002C4481EA030621EA4C5123EA4C5350EA59
:10053000013518BF52EA033541F4801143F48013AA
:1005400038D0A0FB02CE4FF00005E1FB02E506F03B
:100550000042E0FB03E54FF00006E1FB03569CF090
:10056000000F18BF4EF0010EA4F1FF04B6F5007F96
:1005700064F5407404D25FEA4E0E6D4146EB060608
:1005800042EAC62141EA55514FEAC52040EA5E5091
:100590004FEACE2EB4F1FD0C88BFBCF5E06F1ED83B
:1005A000BEF1004F08BF5FEA500E50F1000041EB72
:1005B000045170BD06F0004646EA010140EA02001F
:1005C00081EA0301B4EB5C04C2BFD4EB0C0541EA41
:1005D000045170BD41F480114FF0000E013C00F356
:1005E000AB8014F1360FDEBF002001F0004170BD7A
:1005F000C4F10004203C35DA0C341BDC04F1140493
:10060000C4F1200500FA05F320FA04F001FA05F21E
:1006100040EA020001F0004221F0004110EBD370EB
:1006200021FA04F642EB06015EEA430E08BF20EA17
:10063000D37070BDC4F10C04C4F1200500FA04F3BA
:1006400020FA05F001FA04F240EA020001F000414C
:1006500010EBD37041F100015EEA430E08BF20EABF
:10066000D37070BDC4F1200500FA05F24EEA020E07
:1006700020FA04F301FA05F243EA020321FA04F036
:1006800001F0004121FA04F220EA020000EBD370ED
:100690005EEA430E08BF20EAD37070BD94F0000FED
:1006A0000FD101F00046400041EB010111F4801F21
:1006B00008BF013CF7D041EA060195F0000F18BFD2
:1006C000704703F00046520043EB030313F4801F0E
:1006D00008BF013DF7D043EA0603704794EA0C0FC8
:1006E0000CEA135518BF95EA0C0F0CD050EA4106DE
:1006F00018BF52EA4306D1D181EA030101F000415B
:100700004FF0000070BD50EA410606BF1046194682
:1007100052EA430619D094EA0C0F02D150EA01368E
:1007200013D195EA0C0F05D152EA03361CBF1046CF
:1007300019460AD181EA030101F0004141F0FE416E
:1007400041F470014FF0000070BD41F0FE4141F4F2
:10075000780170BD70B54FF0FF0C4CF4E06C1CEAF2
:1007600011541DBF1CEA135594EA0C0F95EA0C0FA7
:1007700000F0A7F8A4EB050481EA030E52EA033562
:100780004FEA013100F088804FEA03334FF0805583
:1007900045EA131343EA12634FEA022245EA1115B0
:1007A00045EA10654FEA00260EF000419D4208BF61
:1007B000964244F1FD0404F5407402D25B084FEA0E
:1007C0003202B61A65EB03055B084FEA32024FF4BA
:1007D00080104FF4002CB6EB020E75EB030E22BF17
:1007E000B61A754640EA0C005B084FEA3202B6EBD7
:1007F000020E75EB030E22BFB61A754640EA5C0086
:100800005B084FEA3202B6EB020E75EB030E22BF15
:10081000B61A754640EA9C005B084FEA3202B6EB16
:10082000020E75EB030E22BFB61A754640EADC00D5
:1008300055EA060E18D04FEA051545EA16754FEA37
:1008400006164FEAC30343EA52734FEAC2025FEA55
:100850001C1CC0D111F4801F0BD141EA00014FF0E4
:1008600000004FF0004CB6E711F4801F04BF0143B5
:100870000020B4F1FD0C88BFBCF5E06F3FF6AFAED1
:10088000B5EB030C04BFB6EB020C5FEA500C50F161
:10089000000041EB045170BD0EF0004E4EEA1131E4
:1008A00014EB5C04C2BFD4EB0C0541EA045170BDEB
:1008B00041F480114FF0000E013C90E645EA060E2F
:1008C0008DE60CEA135594EA0C0F08BF95EA0C0F5D
:1008D0003FF43BAF94EA0C0F0AD150EA01347FF4A5
:1008E00034AF95EA0C0F7FF425AF104619462CE77C
:1008F00095EA0C0F06D152EA03353FF4FDAE1046DF
:10090000194622E750EA410618BF52EA43067FF42F
:10091000C5AE50EA41047FF40DAF52EA43057FF4BF
:10092000EBAE12E74FF0FF3C06E000BF4FF0010CCA
:1009300002E000BF4FF0010C4DF804CD4FEA410C2E
:100940007FEA6C5C4FEA430C18BF7FEA6C5C1BD0FB
:1009500001B050EA410C0CBF52EA430C91EA030F7C
:1009600002BF90EA020F0020704710F1000F91EAD9
:10097000030F58BF994208BF90422CBFD8176FEAA7
:10098000E37040F0010070474FEA410C7FEA6C5C75
:1009900002D150EA013C07D14FEA430C7FEA6C5C7C
:1009A000D6D152EA033CD3D05DF8040B704700BFA8
:1009B0008446104662468C461946634600E000BFF6
:1009C00001B5FFF7B7FF002848BF10F1000F01BDC8
:1009D0004DF808EDFFF7F4FF0CBF012000205DF893
:1009E00008FB00BF4DF808EDFFF7EAFF34BF012018
:1009F00000205DF808FB00BF4DF808EDFFF7E0FFB1
:100A000094BF012000205DF808FB00BF4DF808ED01
:100A1000FFF7CEFF94BF012000205DF808FB00BF68
:100A20004DF808EDFFF7C4FF34BF012000205DF84A
:100A300008FB00BF4A0011D212F5001211D20DD5E9
:100A40006FF47873B3EB62520ED44FEAC12343F0D4
:100A5000004343EA505323FA02F070474FF000007E
:100A6000704750EA013002D14FF0FF3070474FF02D
:100A70000000704773B96AB9002908BF0028BCBFDD
:100A800000204FF00041C4BF6FF000414FF0FF3035
:100A900000F08CB882B0EC462DE9005000F056F81A
:100AA000DDF804E002B00CBC704700BF4BB942B99E
:100AB000002908BF002802D04FF0FF31084600F09F
:100AC00075B882B0EC462DE9005000F057F8DDF81B
:100AD00004E002B00CBC704738B500220023044685
:100AE0000D46FFF77FFF28B920462946BDE838406C
:100AF00000F00AB8204605F1004100F005F8404238
:100B000061EB410138BD00BF70B500220D4B0446BA
:100B10000D46FFF7F5FCFFF78DFF0646FFF77AFC61
:100B20000022094BFFF7ECFC02460B462046294603
:100B3000FFF732FBFFF77EFF002242EA0004204667
:100B4000314670BD0000F03D0000F0412DE97043DA
:100B5000069E14461D468046894600F029F804FB8F
:100B600001F300FB0533A4FB00451D44B8EB04046E
:100B700069EB0505C6E90045BDE870832DE97043C2
:100B8000069E1446804689461D4600F05DF900FB2E
:100B900005F504FB0153A0FB04451D44B8EB040418
:100BA00069EB0505C6E90045BDE87083704700BFE5
:100BB00000292DE9F00FC0F29F800024002BC0F225
:100BC0009680154606460F46002B3ED18A4257D9DD
:100BD000B2FA82F34BB1C3F1200201FA03F720FA13
:100BE00002F29D40174300FA03F6290CB7FBF1F21D
:100BF000330C01FB127CA8B243EA0C4700FB02F362
:100C0000BB4209D97F1902F1FF3C80F00181BB4250
:100C100040F2FE80023A2F44FF1AB7FBF1F3B6B25E
:100C200001FB137146EA014100FB03F0884208D939
:100C3000491903F1FF3780F0ED80884240F2EA80E5
:100C4000023B43EA0242002303E08B420AD900231D
:100C50001A461046194614B1404261EB4101BDE805
:100C6000F00F7047B3FA83F8B8F1000F40F08480BA
:100C70008B4202D3824200F2DE8000230122E8E7A9
:100C800012B90123B3FBF2F5B5FA85F2002A39D186
:100C90007F1B280C1FFA85FC0123B7FBF0F1320CF7
:100CA00000FB117742EA07470CFB01F2BA4207D971
:100CB0007F1901F1FF3802D2BA4200F2C1804146E9
:100CC000BF1AB7FBF0F2B6B200FB127046EA004062
:100CD0000CFB02FC844507D9401902F1FF3702D210
:100CE000844500F2AB803A4642EA0142B1E7E44370
:100CF000524263EB430364E7404261EB41014FF032
:100D0000FF345BE79540C2F1200327FA03F1280C7A
:100D100026FA03F39740B1FBF0F81F433B0C00FBAE
:100D200018111FFA85FC43EA01410CFB08F38B42C2
:100D300006FA02F608D9491908F1FF3279D28B4236
:100D400077D9A8F102082944C91AB1FBF0F3BFB260
:100D500000FB131147EA01470CFB03F2BA4207D923
:100D60007F1903F1FF3160D2BA425ED9023B2F44B2
:100D7000BF1A43EA084390E7C8F1200203FA08FCCF
:100D800025FA02F343EA0C0C4FEA1C4921FA02F35C
:100D900001FA08F720FA02F2B3FBF9F1174309FB55
:100DA00011333A0C1FFA8CFB42EA03430BFB01FAA6
:100DB0009A4505FA08F008D913EB0C0301F1FF324C
:100DC00035D29A4533D902396344CAEB0303B3FBE6
:100DD000F9F209FB1233BFB247EA03470BFB02F9F2
:100DE000B94508D917EB0C0702F1FF331BD2B945FF
:100DF00019D9023A674442EA0145A5FB0001C9EB53
:100E000007078F424FF000030AD305D02A4620E798
:100E1000624601E73B4614E706FA08F68642F5D239
:100E20006A1E002315E71A46E5E70B46A0E71146C0
:100E3000CBE7904688E7434642460AE7023A53E743
:100E400002392F443CE700BF2DE9F00F1446054658
:100E50000E46002B43D18A4253D9B2FA82F757B1DA
:100E6000C7F1200620FA06F601FA07F302FA07F4A2
:100E70001E4300FA07F5210CB6FBF1F22B0C01FB27
:100E80001267A0B243EA074600FB02F3B34209D956
:100E9000361902F1FF3780F0F680B34240F2F3805A
:100EA000023A2644F61AB6FBF1F3ADB201FB136128
:100EB00045EA014100FB03F0884208D9091903F112
:100EC000FF3680F0E280884240F2DF80023B43EA56
:100ED0000242002310461946BDE8F00F70478B42CE
:100EE0004AD8B3FA83F6002E4DD18B4202D3824208
:100EF00000F2D6800023012210461946BDE8F00F0B
:100F0000704712B90124B4FBF2F4B4FA84F2002A57
:100F10007CD1091B260CA7B20123B1FBF6F02A0CE9
:100F200006FB101142EA014107FB00F28A4207D991
:100F3000091900F1FF3C02D28A4200F2C3806046E8
:100F4000891AB1FBF6F2ADB206FB121145EA014572
:100F500007FB02F7AF4208D92C1902F1FF3180F0EC
:100F60009680A74240F29380023A42EA004210463D
:100F70001946BDE8F00F704700231A46104619467F
:100F8000BDE8F00F7047C6F1200522FA05F4B34022
:100F90001C434FEA144821FA05F301FA06F720FA38
:100FA00005F5B3FBF8FC2F4308FB1C333D0C1FFA7F
:100FB00084FA45EA03430AFB0CF9994502FA06FB59
:100FC00004D91B190CF1FF326DD39446C9EB03030E
:100FD000B3FBF8F508FB1533BFB247EA03470AFB3A
:100FE00005F8B84504D93F1905F1FF3361D31D4613
:100FF00045EA0C4CACFB0B23C8EB07079F424FF0B4
:10100000000549D345D062462B4663E79440C2F1C0
:10101000200321FA03FC260C20FA03F301FA02F55F
:10102000BCFBF6F843EA05010B0C06FB18CCA7B293
:1010300043EA0C4C07FB08F3634500FA02F509D9B3
:101040001CEB040C08F1FF323AD2634538D9A8F101
:101050000208A444C3EB0C0CBCFBF6F389B206FBFC
:1010600013CC41EA0C4107FB03F28A4207D9091964
:1010700003F1FF3022D28A4220D9023B2144891A4F
:1010800043EA084349E73A460CE733461FE70A4676
:101090006BE7B0409042B6D20CF1FF32002319E763
:1010A0003346324616E799458FD9ACF1020C2344FA
:1010B0008CE7B8459BD9023D274499E70346DEE714
:1010C0009046C7E7023821443AE700BF80B584B0B4
:1010D00000AF0346FB71FB79002B0ED1094802F0EB
:1010E000A5FCB860BB68B3F1FF3F02D10123FB73DD
:1010F00001E00023FB73FB7B00E00123184610375F
:10110000BD4680BD2802002080B584B000AF0346F4
:10111000FB71FB79002B07D1064802F073FBF860E6
:10112000FB68FB72FB7A00E0012318461037BD46CE
:1011300080BD00BF2802002080B588B000AFB96034
:101140007A603B600346FB73FB7B002B26D10023B8
:101150007B6114E07A697B681A447B695B02B96839
:101160000B44114811461A4602F076FCB861BB697F
:10117000B3F1FF3F00D106E07B6901337B617A69FF
:101180003B689A42E6D3BB69B3F1FF3F02D101232A
:10119000FB7701E00023FB77FB7F00E00423184688
:1011A0002037BD4680BD00BF2802002080B588B032
:1011B00000AFB9607A603B600346FB73FB7B002B9A
:1011C00026D100237B6114E07A697B681A447B692D
:1011D0005B02B9680B44114811461A4602F0C2FC82
:1011E000B861BB69B3F1FF3F00D106E07B69013311
:1011F0007B617A693B689A42E6D3BB69B3F1FF3FF2
:1012000002D10123FB7701E00023FB77FB7F00E0A5
:10121000042318462037BD4680BD00BF28020020A9
:1012200080B485B000AF78607B6801331B78FB81A8
:10123000FB891B029AB27B681B7813439BB2FB812C
:10124000FB8918461437BD465DF8047B704700BF24
:1012500080B485B000AF78607B6803331B78FB6097
:10126000FB681A027B6802331B781343FB60FB6840
:101270001A027B6801331B781343FB60FB681A0278
:101280007B681B781343FB60FB6818461437BD4628
:101290005DF8047B704700BF80B483B000AF786016
:1012A0000B467B807B685A1C7A607A88D2B21A70AF
:1012B0007B881B127B807B685A1C7A607A88D2B24A
:1012C0001A700C37BD465DF8047B704780B483B05C
:1012D00000AF786039607B685A1C7A603A68D2B295
:1012E0001A703B681B0A3B607B685A1C7A603A683C
:1012F000D2B21A703B681B0A3B607B685A1C7A604A
:101300003A68D2B21A703B681B0A3B607B685A1C71
:101310007A603A68D2B21A700C37BD465DF8047B29
:10132000704700BF80B487B000AFF860B9607A60E2
:10133000FB687B61BB683B617B68002B12D07B69DB
:101340005A1C7A613A69511C396112781A707B68AB
:10135000013B7B607B68002B0CBF00230123DBB2C9
:10136000002BECD11C37BD465DF8047B704700BFF5
:1013700080B487B000AFF860B9607A60FB687B61C9
:101380007B695A1C7A61BA68D2B21A707B68013BD9
:101390007B607B68002B0CBF00230123DBB2002B9A
:1013A000EED11C37BD465DF8047B704780B489B030
:1013B00000AFF860B9607A60FB68FB61BB68BB6135
:1013C00000237B61FB695A1CFA611B781A46BB69D2
:1013D000591CB9611B78D31A7B617B68013B7B6028
:1013E0007B68002B04D07B69002B01D1012300E036
:1013F0000023002BE6D17B6918462437BD465DF8F3
:10140000047B704780B483B000AF7860396002E03D
:101410007B6801337B607B681B78002B05D07B6881
:101420001B785AB23B689A42F2D17B681B785BB258
:1014300018460C37BD465DF8047B704780B586B012
:1014400000AF78600023FB737B68DB78002B3BD018
:101450007B68DB6A7B617B685A787B683033104637
:1014600019467A690123FFF7A1FE0346002B0CBF42
:1014700000230123DBB2002B02D00123FB7323E006
:101480007B680022DA707B681B6A7A69D21A7B68F3
:101490009B699A4218D27B689B783B6111E07B681C
:1014A0009B697A6913447B617B685A787B68303327
:1014B000104619467A690123FFF778FE3B69013B24
:1014C0003B613B69012BEAD8FB7B18461837BD46C8
:1014D00080BD00BF80B584B000AF78603960002364
:1014E000FB737B68DA6A3B689A4221D07868FFF721
:1014F000A5FF0346FB73FB7B002B19D17B685A7851
:101500007B683033104619463A680123FFF714FE12
:101510000346002B0CBF00230123DBB2002B04D0B9
:101520004FF0FF333B600123FB737B683A68DA625C
:10153000FB7B18461037BD4680BD00BF80B483B02A
:1015400000AF786039603B68023B3B607B685B6959
:101550009A1E3B689A4201D8002307E07B685B89AA
:101560003A6802FB03F27B689B6A134418460C3707
:10157000BD465DF8047B704780B586B000AF7860EB
:1015800039607B681B683B613B68012B04D93B6970
:101590005A693B689A4202D801237B619AE04FF076
:1015A000FF337B613B691B78022B51D0032B6ED03C
:1015B000012B40F08D803B68FB60FB685B08FA689C
:1015C0001344FB603B691A6AFB685B0A1344386981
:1015D0001946FFF77FFF0346002B0CBF00230123B2
:1015E000DBB2002B00D075E0FB685A1CFA60C3F335
:1015F00008033A69134493F83030BB603B691A6AB8
:10160000FB685B0A134438691946FFF763FF03461A
:10161000002B0CBF00230123DBB2002B00D059E0CC
:10162000FB68C3F308033A69134493F830301B0294
:10163000BA681343BB603B6803F00103002B02D080
:10164000BB681B0902E0BB68C3F30B037B6141E08D
:101650003B691A6A3B681B0A134438691946FFF74D
:1016600039FF0346002B0CBF00230123DBB2002B04
:1016700000D02FE03B685B0003F4FF7330333A691E
:1016800013441846FFF7CCFD03467B6122E03B691B
:101690001A6A3B68DB09134438691946FFF71AFFD9
:1016A0000346002B0CBF00230123DBB2002B00D02C
:1016B00010E03B689B0003F4FE7330333A69134437
:1016C0001846FFF7C5FD034623F070437B6101E038
:1016D00001237B617B6918461837BD4680BD00BF7A
:1016E00090B589B000AFF860B9607A600223FB77EB
:1016F000BB68012B40F2CD80FB685A69BB689A42F7
:1017000040F2C780FB681B78022B72D0032B00F0DD
:101710009080012B00D0BCE0BB68BB61BB695B085B
:10172000BA691344BB61FB681A6ABB695B0A13445C
:10173000F8681946FFF7CEFE0346FB77FB7F002BC8
:1017400000D0A6E0BB695A1CBA61C3F3080330336A
:10175000FA6813447B61BB6803F00103002B0DD0D2
:101760007B691B78DBB203F00F03DAB27B68DBB274
:101770001B01DBB21343DBB2DBB201E07B68DBB2FF
:101780007A691370FB680122DA70FB681A6ABB6918
:101790005B0A1344F8681946FFF79CFE0346FB7783
:1017A000FB7F002B00D074E0BB69C3F30803303328
:1017B000FA6813447B61BB6803F00103002B03D07C
:1017C0007B681B09DBB20EE07B691B78DBB223F080
:1017D0000F03DAB27B681B0ADBB203F00F03DBB244
:1017E0001343DBB2DBB27A691370FB680122DA7053
:1017F0004FE0FB681A6ABB681B0A1344F868194675
:10180000FFF768FE0346FB77FB7F002B00D040E02C
:10181000BB685B0003F4FF733033FA681A447B68DB
:101820009BB210461946FFF737FDFB680122DA70BC
:101830002FE0FB681A6ABB68DB091344F868194695
:10184000FFF748FE0346FB77FB7F002B00D020E02C
:101850007B6823F07044BB689B0003F4FE73303355
:10186000FA6813441846FFF7F3FC034603F070438D
:1018700023437B60BB689B0003F4FE733033FA683C
:10188000134418467968FFF721FDFB680122DA70DE
:1018900000BFFB7F18462437BD4690BD80B588B099
:1018A00000AFF860B9607A600023FB77FB681B68C3
:1018B000BB61BB68012B04D9BB695A69BB689A42FA
:1018C00001D8022348E07B68002B0CD0B869796806
:1018D0004FF0FF32FFF704FF0346FB77FB7F002B3F
:1018E00001D0FB7F38E0F868B968FFF745FE786102
:1018F0007B69002B00D12EE07B69012B01D10223F3
:101900002AE07B69B3F1FF3F01D1012324E0B869EC
:10191000B9680022FFF7E4FE0346FB77FB7F002B4C
:1019200001D0FB7F18E0BB691B69B3F1FF3F0BD00F
:10193000BB691B695A1CBB691A61BB691B7943F0FF
:101940000103DAB2BB691A717B69BB60BB695A6972
:10195000BB689A42C7D8002318462037BD4680BDD1
:1019600080B588B000AF786039607B681B683B61E8
:101970003B68002B0DD13B69DB68BB61BB69002B69
:1019800004D03B695A69BB699A421BD80123BB61E9
:1019900018E078683968FFF7EFFDF860FB68012B05
:1019A00001D8012372E0FB68B3F1FF3F01D1FB686E
:1019B0006CE03B695A69FB689A4201D9FB6865E0B3
:1019C0003B68BB61BB69FB61FB690133FB613B6940
:1019D0005A69FB699A4207D80223FB61FA69BB691D
:1019E0009A4201D9002351E07868F969FFF7C4FDF4
:1019F000F860FB68002B0CD100BF3869F9694FF023
:101A0000FF32FFF76DFE0346FB75FB7D002B1AD1FD
:101A10000FE0FB68012B03D0FB68B3F1FF3F01D15E
:101A2000FB6833E0FA69BB699A4201D100232DE0DB
:101A3000CAE73B68002B06D038693968FA69FFF7B6
:101A40004FFE0346FB75FB7D002B16D13B69FA69FF
:101A5000DA603B691A693B695B69023B9A4204D2CE
:101A60003B691B695A1E3B691A613B691B7943F04C
:101A70000103DAB23B691A7107E0FB7D012B02D149
:101A80004FF0FF3300E00123FB61FB69184620376C
:101A9000BD4680BD80B586B000AF786039607B6898
:101AA0001B683B613B68B3F5001F04D23B6803F041
:101AB0001F03002B01D0022362E07B683A681A61A1
:101AC0007B689B687B617B69002B06D13B691B7837
:101AD000022B02D93B695B6A7B617B69002B0CD1CD
:101AE0003B685A093B691B899A4201D3022347E0AC
:101AF0003B695A6A7B689A6129E03B695B895B02B2
:101B0000FB6019E07B6818467969FFF735FD78615D
:101B10007B69B3F1FF3F01D1012331E07B69012BE8
:101B200004D93B695A697B699A4201D8022327E0AC
:101B30003A68FB68D31A3B603A68FB689A42E1D284
:101B400038697969FFF7FAFC02467B689A617B681D
:101B50007A695A617B689B69002B01D102230FE0EF
:101B60007B689A693B685B0A1A447B689A613B68A8
:101B7000C3F3080330333A691A447B68DA610023FF
:101B800018461837BD4680BD80B586B000AF786076
:101B900039607B681B68FB607B681B692033BB6016
:101BA0007B689B69002B03D0BB68B3F5001F01D392
:101BB0000423B4E0BB68C3F30803002B40F0A38008
:101BC0007B689B695A1C7B689A617B685B69002B08
:101BD0000BD1BB685A09FB681B899A42C0F09380FD
:101BE0007B6800229A61042399E0BB685A0AFB686B
:101BF0005B89013B1340002B40F085807A687B684D
:101C00005B6910461946FFF7B7FC78617B69012BC9
:101C100001D8022383E07B69B3F1FF3F01D10123A7
:101C20007DE0FB685A697B699A4262D83B68002B69
:101C300004D17B6800229A61042370E07A687B6893
:101C40005B6910461946FFF78BFE78617B69002BB4
:101C500001D1072363E07B69012B01D102235EE000
:101C60007B69B3F1FF3F01D1012358E0F868FFF72A
:101C7000E5FB0346002B0CBF00230123DBB2002B46
:101C800001D001234BE0FB683033184600214FF4AC
:101C90000072FFF76DFB00233B61F8687969FFF77D
:101CA0004DFC0246FB68DA6217E0FB680122DA703D
:101CB000F868FFF7C3FB0346002B0CBF002301238A
:101CC000DBB2002B01D0012329E03B6901333B61EA
:101CD000FB68DB6A5A1CFB68DA62FB685B891A46A0
:101CE0003B699A42E1D8FB68DA6A3B69D21AFB6821
:101CF000DA627B687A695A61F8687969FFF71EFCD5
:101D000002467B689A617B68BA681A61BB68C3F354
:101D100008033033FA681A447B68DA6100231846F6
:101D20001837BD4680BD00BF80B586B000AF786073
:101D300039607B681B68FB6078680021FFF7AAFEAA
:101D40000346FB75FB7D002B31D100233B617B6893
:101D50009B69F8681946FFF7BDFB0346FB75FB7DE1
:101D6000002B00D023E07B68DB691B78E52B04D0D7
:101D70007B68DB691B78002B0DD13B6901333B612C
:101D80003A693B689A4214BF00230123DBB2002B5F
:101D900000D00CE001E000233B6178680121FFF7EF
:101DA000F3FE0346FB75FB7D002BD0D0FFE7FB7DE8
:101DB000042B01D10723FB75FB7D18461837BD4660
:101DC00080BD00BF80B584B000AF786039603B68EB
:101DD0001A331846FFF724FA0346FB607B681B782A
:101DE000032B09D13B6814331846FFF719FA034651
:101DF0001B04FA681343FB60FB6818461037BD46A6
:101E000080BD00BF80B584B000AFF860B9607A6073
:101E1000BB6803F11A027B689BB210461946FFF7B4
:101E20003BFAFB681B78032B09D1BB6803F1140252
:101E30007B681B0C9BB210461946FFF72DFA103732
:101E4000BD4680BD80B586B000AF78607B681B68FA
:101E50003B6178680021FFF71DFE0346FB75FB7DA3
:101E6000002B01D0FB7D42E07B689B6938691946F5
:101E7000FFF730FB0346FB75FB7D002B00D035E000
:101E80007B68DB691B78FB73FB7B002B02D104238F
:101E9000FB752BE07B68DB690B331B7803F03F039A
:101EA000DAB27B689A717B68DB690B331B7803F0CD
:101EB0000803002B0DD17B68DA697B68203310465C
:101EC00019460B22FFF772FA0346002B01D10123BA
:101ED00000E00023002B00D008E078680021FFF725
:101EE00053FE0346FB75FB7D002BBDD0FB7D1846E2
:101EF0001837BD4680BD00BF80B584B000AF7860A4
:101F00007B681B68BB6078680121FFF70DFF034603
:101F1000FB73FB7B002B1DD17B689B69B86819465E
:101F2000FFF7D8FA0346FB73FB7B002B12D17B68CB
:101F3000DB69184600212022FFF71AFA7B68DA696C
:101F40007B682033104619460B22FFF7EBF9BB687C
:101F50000122DA70FB7B18461037BD4680BD00BFFA
:101F600080B588B000AF786039603B681B68FB6063
:101F70007B682033BB60B86820210B22FFF7F8F99B
:101F800000233B613B697B610823BB617B695A1C71
:101F90007A61FA6813441B78FB77FB7F202B00D80B
:101FA00053E0FB7F2F2B02D0FB7F5C2B12D102E092
:101FB0007B6901337B61FA687B6913441B785BB2F0
:101FC0002F2BF5D0FA687B6913441B785BB25C2B2E
:101FD000EED03AE0FB7F2E2B03D03A69BB699A42E0
:101FE0000DD3BB690B2B02D0FB7F2E2B01D0062318
:101FF00047E008233B610B23BB6100BFC6E7FB7FC3
:102000005BB2002B01DA06233BE0FB7F1F48194639
:10201000FFF7F8F90346002B0CBF00230123DBB2C6
:10202000002B01D006232CE0FB7F602B05D9FB7F22
:102030007A2B02D8FB7F203BFB773B695A1C3A6125
:10204000BA681344FA7F1A70A0E7FA687B691A44E9
:102050003B681A603B69002B01D1062311E0BB6885
:102060001B78E52B02D1BB6805221A70BB6803F10F
:102070000B02FB7F202B01D8042300E00023137008
:10208000002318462037BD4680BD00BF54DD000840
:1020900080B586B000AF786039607B683B613B6992
:1020A0001B68FB6002E03B6801333B603B681B78C8
:1020B0005BB22F2BF7D03B681B785BB25C2BF2D066
:1020C0003B6900229A603B681B78DBB21F2B0AD861
:1020D0007B68802283F82B2078680021FFF7DAFCE8
:1020E0000346FB753FE03B4678681946FFF738FF2B
:1020F0000346FB75FB7D002B00D034E07868FFF7CA
:10210000A1FE0346FB757B6893F82B30FB72FB7DC9
:10211000002B0AD0FB7D042B06D1FB7A03F00403CD
:10212000002B01D10523FB751DE0FB7A03F00403AE
:10213000002B00D017E03B699B7903F01003002BC4
:1021400002D10523FB750EE07B681B69C3F308030E
:102150003033FA681344F8681946FFF733FE024635
:102160003B699A60BFE7FB7D18461837BD4680BDC6
:1021700080B487B000AF78604FF0FF333B617B687D
:102180001B68002B35D07B681B687B6102E07B6994
:1021900001337B617B691B78DBB2202B04D97B691F
:1021A0001B785BB23A2BF2D17B691B785BB23A2B7E
:1021B0001DD17B681B68FB60FB685A1CFA601B78AA
:1021C0005BB2303BBB60BB68092B0ED8FA687B69F9
:1021D0009A420AD1BB68002B07D1BB683B617B697F
:1021E00001337B617B687A691A603B6902E00023F6
:1021F0003B613B6918461C37BD465DF8047B704760
:1022000080B582B000AF786039607B680022DA70F8
:102210007B684FF0FF32DA6278683968FFF75AF965
:102220000346002B0CBF00230123DBB2002B01D09F
:10223000042344E07B6803F22E231846FEF7F0FFE8
:1022400003461A464AF655239A420CBF002301233F
:10225000DBB2002B01D0032331E07B6893F83030F0
:10226000E92B09D07B6893F83030EB2B26D17B68C3
:1022700093F83230902B21D17B6866331846FEF7F5
:10228000E7FF034623F07F420F4B9A4214BF00231F
:102290000123DBB2002B01D0002310E07B688233E6
:1022A0001846FEF7D5FF0246084B9A4214BF00239A
:1022B0000123DBB2002B01D0002300E002231846EB
:1022C0000837BD4680BD00BF4641540046415433E7
:1022D00080B596B000AFF860B9601346FB71BB687B
:1022E00000221A60F868FFF743FFF863FB6B002BCE
:1022F00001DA0B2334E2A24BFA6B53F82230BB63B2
:10230000BB6B002B01D10C232AE2BB68BA6B1A60AD
:10231000FB7923F00103FB71BB6B1B78002B1AD0F8
:10232000BB6B5B781846FEF7D1FE034687F8373063
:1023300097F8373003F00103002B0CD1FB79002B09
:1023400007D097F8373003F00403002B01D00A239D
:1023500006E2002304E2BB6B00221A70FB6BDAB2C8
:10236000BB6B5A70BB6B5B781846FEF7CDFE03461D
:1023700087F8373097F8373003F00103002B01D08E
:102380000323EDE1FB79002B07D097F8373003F0FA
:102390000403002B01D00A23E2E100233B65B86B64
:1023A000396DFFF72DFF034687F8573097F8573000
:1023B000022B4ED100233B641DE0BB6B03F5F7728B
:1023C0003B6C1B0113443B633B6B04331B78002BBA
:1023D00006D03B6B08331846FEF73AFF024600E092
:1023E00000223B6C9B0007F158010B4443F8442C3E
:1023F0003B6C01333B643B6C032BDED900233B6415
:102400003B6C002B02D03B6C013B3B643B6C9B0064
:1024100007F15802134453F8443C3B653B6D002BD5
:1024200005D0B86B396DFFF7EBFE034600E00323E0
:1024300087F8573097F85730012B07D93B6C013399
:102440003B643B6C032B01D8012300E00023002BED
:10245000DCD197F85730042B01D1012380E197F8A4
:102460005730012B01D90D237AE1BB6B3B33184662
:10247000FEF7D6FE0346B3F5007F0CBF0023012311
:10248000DBB2002B01D00D236AE1BB6B463318464B
:10249000FEF7C6FE0346FB64FB6C002B05D1BB6B4D
:1024A00054331846FEF7D4FEF864BB6BFA6C9A619D
:1024B000BB6B93F84020BB6B9A70BB6B9B78012B76
:1024C00005D0BB6B9B78022B01D00D2348E1BB6B81
:1024D0009B781A46FB6C02FB03F3FB64BB6B93F81F
:1024E0003D301A46BB6B5A81BB6B5B89002B08D011
:1024F000BB6B5B891A46BB6B5B89013B1340002BAE
:1025000001D00D232CE1BB6B41331846FEF788FE4A
:1025100003461A46BB6B1A81BB6B1B8903F00F0382
:10252000002B01D00D231BE1BB6B43331846FEF794
:1025300077FE0346BB64BB6C002B05D1BB6B5033ED
:102540001846FEF785FEB864BB6B3E331846FEF7AF
:1025500067FE0346FB85FB8D002B01D10D23FFE0B9
:10256000FA8DFB6C1A44BB6B1B891B099BB213448D
:10257000BB62BA6CBB6A9A4204D20D23F0E000BF82
:1025800058000020BA6CBB6AD21ABB6B5B89B2FBE5
:10259000F3F37B627B6A002B01D10D23E0E0032380
:1025A00087F857307A6A4FF6F5739A4202D80223B9
:1025B00087F857307A6A40F6F5739A4202D80123B9
:1025C00087F857307B6A9A1CBB6B5A61BB6B3A6DBC
:1025D000DA61FA8D3B6D1A44BB6B1A623A6DBB6AC5
:1025E0001A44BB6B9A6297F85730032B21D1BB6B0F
:1025F0005A331846FEF714FE0346002B0CBF002387
:102600000123DBB2002B01D00D23A9E0BB6B1B899A
:10261000002B01D00D23A3E0BB6B5C331846FEF703
:1026200017FE0246BB6B5A62BB6B5B699B007B6407
:102630001FE0BB6B1B89002B01D10D2390E0BB6B0E
:102640001A6AFB6C1A44BB6B5A6297F85730022B1C
:1026500003D1BB6B5B695B000AE0BB6B5A69134635
:102660005B0013445A08BB6B5B6903F0010313441E
:102670007B64BB6B9A697B6C03F2FF135B0A9A4223
:1026800001D20D236CE0BB6B4FF0FF321A61BB6BC4
:102690001A69BB6BDA60BB6B80221A7197F85730EE
:1026A000032B12D1BB6B60331846FEF7B9FD03460E
:1026B000012B0AD13B6D0133B86B1946FEF70AFFB7
:1026C0000346002B01D1012300E00023002B38D06A
:1026D000BB6B00221A71BB6B03F22E231846FEF768
:1026E0009FFD03461A464AF655239A4214D1BB6B06
:1026F00030331846FEF7ACFD02461B4B9A420BD115
:10270000BB6B03F505731846FEF7A2FD0246174B97
:102710009A4201D1012300E00023002B11D0BB6BB2
:1027200003F506731846FEF793FD0246BB6B1A616C
:10273000BB6B03F507731846FEF78AFD0246BB6BB9
:10274000DA60BB6B97F857201A70094B1B8801336E
:102750009AB2074B1A80064B1A88BB6BDA800023AB
:1027600018465837BD4680BD525261417272416170
:102770005C00002080B584B000AF786039607B6871
:10278000BB607B68002B1AD0BB681B68002B16D07F
:10279000BB681B681B78002B11D0BB681B68DA88EC
:1027A000BB689B889A420AD1BB681B685B78184655
:1027B000FEF78CFC034603F00103002B01D001233C
:1027C00000E00023002B05D03B6800221A6009239B
:1027D000FB7305E0BB681A683B681A600023FB7353
:1027E000FB7B18461037BD4680BD00BF80B588B062
:1027F00000AFF860B9601346FB71BB683B6107F13D
:1028000010031846FFF7B4FCF861FB69002B01DAEE
:102810000B2329E0164BFA6953F82230BB61BB69E0
:10282000002B02D0BB6900221A70FB68002B02D07B
:10283000FB6800221A70F9680D4BFA6943F8221000
:10284000FB68002B02D0FB79012B01D000230BE0A9
:1028500007F1080207F10C03104619460022FFF7A2
:1028600037FD0346FB75FB7D18462037BD4680BD0E
:102870005800002080B598B000AFF860B9601346EA
:10288000FB71FB68002B01D1092387E1FB7903F081
:102890003F03FB7107F1080107F14002FB7908468D
:1028A00011461A46FFF714FD034687F85F3097F884
:1028B0005F30002B40F069813B6C7B61BB6807F1A6
:1028C000140210461946FFF7E3FB034687F85F3012
:1028D00097F85F30002B08D197F83F30DBB25BB23E
:1028E000002B02DA062387F85F30FB7903F01C0324
:1028F000002B78D097F85F30002B10D097F85F301E
:10290000042B07D107F114031846FFF7F5FA034625
:1029100087F85F30FB7943F00803FB7110E0BB7E62
:1029200003F01103002B03D0072387F85F3007E083
:10293000FB7903F00403002B02D0082387F85F30F3
:1029400097F85F30002B68D1FB7903F00803002B68
:1029500063D000233B653B6B0E331846396DFEF7A1
:10296000B5FC3B6B16331846396DFEF7AFFC3B6B7D
:102970000B3320221A703A6C3B6B10461946FFF756
:1029800021FAF8643A6C3B6B104619460022FFF7B7
:1029900039FA3B6B1C3318460021FEF797FC3B6C61
:1029A0000122DA70FB6C002B37D03B6CDB6A3B6595
:1029B00007F114031846F96C0022FEF76FFF034677
:1029C00087F85F3097F85F30002B26D13B6C1846B4
:1029D000396DFEF77FFD034687F85F303B6CFA6C7C
:1029E000013ADA6019E097F85F30002B15D1BB7E11
:1029F00003F01003002B03D0042387F85F300CE0B2
:102A0000FB7903F00203002B07D0BB7E03F0010328
:102A1000002B02D0072387F85F3097F85F30002B38
:102A20000FD1FB7903F00803002B03D0FB7943F0AF
:102A30004003FB713B6CDA6AFB681A623A6BFB6815
:102A40005A6297F85F30002B40F09F803A6C3B6BE6
:102A500010461946FFF7B6F90246FB689A603B6BD1
:102A60001C331846FEF7F4FB0246FB68DA603A6C4A
:102A7000FB681A603B6CDA88FB689A80FB68FA791D
:102A80001A74FB6800225A74FB680022DA61FB6842
:102A900000225A61FB682833184600214FF4007267
:102AA000FEF766FCFB7903F02003002B6DD0FB687A
:102AB000DB68002B69D0FB68DA68FB685A613B6C05
:102AC0005B895B02BB64FB689B68BB65FB68DB687A
:102AD0007B6516E0FB681846B96DFEF74DFDB865DD
:102AE000BB6D012B02D8022387F85F30BB6DB3F1B9
:102AF000FF3F02D1012387F85F307A6DBB6CD31A98
:102B00007B6597F85F30002B03D17A6DBB6C9A42DE
:102B1000E0D8FB68BA6D9A6197F85F30002B34D12A
:102B20007B6DC3F30803002B2FD03B6C1846B96DA7
:102B3000FEF704FD78647B6C002B14BF0023012397
:102B4000DBB2002B03D0022387F85F301DE07B6DE2
:102B50005A0A7B6C1A44FB68DA613B6C5978FB6853
:102B600003F12802FB68DB69084611461A46012377
:102B7000FEF7E2FA0346002B0CBF00230123DBB271
:102B8000002B02D0012387F85F3097F85F30002BCD
:102B900002D0FB6800221A6097F85F301846603751
:102BA000BD4680BD80B58EB000AFF860B9607A6078
:102BB0003B60BB687B623B6800221A6007F114032C
:102BC000F8681946FFF7D6FD034687F8373097F8BF
:102BD0003730002B07D1FB685B7C87F8373097F8DC
:102BE0003730002B01D0012300E00023002B02D05E
:102BF00097F837301EE1FB681B7C03F00103002BC4
:102C000001D1072316E1FB68DA68FB685B69D31A18
:102C10003B627A683B6A9A4201D93B6A7B6004E175
:102C2000FB685B69C3F30803002B40F0D180FB68AD
:102C30005B695A0A7B695B89013B1340FB61FB6955
:102C4000002B23D1FB685B69002B03D1FB689B68D9
:102C50003B6307E0FA68FB689B6910461946FEF77C
:102C60008BFC38633B6B012B04D8FB6802225A743F
:102C70000223DFE03B6BB3F1FF3F04D1FB6801228D
:102C80005A740123D6E0FB683A6B9A617A69FB6853
:102C90009B6910461946FEF751FCB861BB69002BD1
:102CA00004D1FB6802225A740223C3E0BA69FB69AB
:102CB0001344BB617B685B0ABB62BB6A002B41D0DB
:102CC000FA69BB6A1A447B695B899A4205D97B69B8
:102CD0005B891A46FB69D31ABB627B695B7818462D
:102CE000796ABA69BB6AFEF727FA0346002B0CBF64
:102CF00000230123DBB2002B04D0FB6801225A74AD
:102D0000012397E0FB681B7CDBB25BB2002B15DA7A
:102D1000FB68DA69BB69D21ABB6A9A420ED2FB68B9
:102D2000DA69BB69D31A5B027A6A1A44FB682833F2
:102D3000104619464FF40072FEF7F4FABB6A5B02C4
:102D4000FB625EE0FB68DA69BB699A423DD0FB68D2
:102D50001B7CDBB25BB2002B20DA7B695978FB6805
:102D600003F12802FB68DB69084611461A46012375
:102D7000FEF71CFA0346002B0CBF00230123DBB235
:102D8000002B04D0FB6801225A74012352E0FB6837
:102D90001B7C03F07F03DAB2FB681A747B695A78F4
:102DA000FB68283310461946BA690123FEF7C4F9B7
:102DB0000346002B0CBF00230123DBB2002B04D001
:102DC000FB6801225A74012334E0FB68BA69DA61B6
:102DD000FB685B69C3F30803C3F50073FB62FA6A1F
:102DE0007B689A4201D97B68FB62FB685B69C3F32D
:102DF00008032833FA681344786A1946FA6AFEF71A
:102E000091FA7A6AFB6A13447B62FB685A69FB6A2F
:102E10001A44FB685A613B681A68FB6A1A443B68AB
:102E20001A607A68FB6AD31A7B607B68002B7FF498
:102E3000F7AE002318463837BD4680BD80B483B056
:102E400000AF78600C37BD465DF8047B704700BF6B
:102E500080B582B000AF786039607B680433184673
:102E600006493A68002302F0C7FD7B68044A1A60ED
:102E70007B6818460837BD4680BD00BFAC0C0020FB
:102E800070E7000880B582B000AF78607B68094ABF
:102E90001A607B680433184602F0F6FD0023002B0D
:102EA00002D0786802F0F2FF7B6818460837BD460A
:102EB00080BD00BF70E7000880B582B000AF7860C9
:102EC0007868FFF7DFFF786802F0E0FF7B6818465C
:102ED0000837BD4680BD00BF80B582B000AF7860C6
:102EE0007B6818460549FFF7B3FF7B68044A1A6000
:102EF0007B6818460837BD4680BD00BF64DD00080A
:102F000058E7000880B582B000AF78600A48012118
:102F10000122002304F03EFA084801210122002387
:102F200004F038FA064801210122002304F032FAA5
:102F30000837BD4680BD00BF600000207C00002037
:102F40009800002080B582B000AF78607B68084AA6
:102F50001A607B681846FFF795FF0023002B02D00C
:102F6000786802F093FF7B6818460837BD4680BD3D
:102F700058E7000880B582B000AF78607868FFF746
:102F8000E1FF786802F082FF7B6818460837BD468B
:102F900080BD00BF80B582B000AF786039607B68CB
:102FA000012B18D13A684FF6FF739A4213D10B48A0
:102FB000352104F0BBF90A48362104F0B7F9094875
:102FC000372104F0B3F90848FFF786FF06480749A0
:102FD000074A0AF0B9FE0837BD4680BD60000020F0
:102FE0007C00002098000020B4000020452F00083D
:102FF000F40D002080B500AF01204FF6FF71FFF700
:10300000C9FF80BD80B582B000AF78607B6818468C
:103010000549FFF71DFF7B68044A1A607B68184664
:103020000837BD4680BD00BF70DD000888E7000896
:1030300080B582B000AF786012481349002205F0D5
:10304000F9F810480021114A05F066FB0D480121EE
:10305000002205F061FB0E480E4904F0CFFC0E483B
:103060004FF4E13106F0CEF80C484FF4964106F0EB
:10307000C9F80A480321022206F0E2F80837BD46E3
:1030800080BD00BFC800002040420F00400D03007B
:10309000E4000020A0860100000100201C010020A7
:1030A00080B582B000AF78607B68084A1A607B68A0
:1030B0001846FFF7E7FE0023002B02D0786802F0E5
:1030C000E5FE7B6818460837BD4680BD88E70008E6
:1030D00080B582B000AF78607868FFF7E1FF78686C
:1030E00002F0D4FE7B6818460837BD4680BD00BF9D
:1030F00080B584B002AF786039607B68012B30D135
:103100003A684FF6FF739A422BD11F23009316485B
:1031100002211D221E2305F04DF81448012116221C
:10312000172304F025FC4FF0FF3300934FF0FF33DB
:1031300001930F4804210022012305F035FE1E23D0
:1031400000933B2301930B4803212A222B2305F0F4
:103150002BFE0948FFF756FF07480849084A0AF0BE
:10316000F3FD0837BD4680BDC8000020E400002004
:10317000000100201C01002038010020A1300008BF
:10318000F40D002080B500AF01204FF6FF71FFF76E
:10319000AFFF80BD80B582B000AF78607B68184615
:1031A000064964224FF4FA6309F00CFC7B68044A78
:1031B0001A607B6818460837BD4680BD7CDD000874
:1031C000A0E7000880B483B000AF78600C37BD463C
:1031D0005DF8047B704700BF80B582B000AF7860B7
:1031E0007B68012283F851207B68032283F85020FA
:1031F0007B68503309481946012200F015F87B68B6
:10320000513307481946012200F022F87B685033F9
:103210000448194600F030F8F8E700BF180B00200A
:10322000980B0020400B002080B584B000AFF86000
:10323000B9601346FB71FA68FB791046B9681A4603
:10324000002303F0DDF8034618461037BD4680BD65
:1032500080B584B000AFF860B9601346FB71FA68BE
:10326000FB791046B9681A46002303F0C9F80346F3
:1032700018461037BD4680BD80B485B000AF786079
:1032800039607B6801221A757B68DB68FB60FB682C
:103290001A783B681A707B6800221A757B68D3E93C
:1032A0000823013243F100037968C1E90823143788
:1032B000BD465DF8047B704780B582B000AF786092
:1032C0007B68084A1A607B68184609F0E9FB00230E
:1032D000002B02D0786802F0D9FD7B6818460837C9
:1032E000BD4680BDA0E7000880B582B000AF786021
:1032F0007868FFF7E1FF786802F0C8FD7B68184640
:103300000837BD4680BD00BF80B582B000AF786091
:1033100039607B68012B0CD13A684FF6FF739A42F3
:1033200007D10548FFF736FF03480449044A0AF06D
:103330000BFD0837BD4680BD50010020B9320008A2
:10334000F40D002080B500AF01204FF6FF71FFF7AC
:10335000DBFF80BD80B483B000AF78600C37BD4622
:103360005DF8047B704700BF80B483B000AF786025
:103370000B46FB7097F903307A68C3F1200362FAB9
:1033800003F318460C37BD465DF8047B704700BF59
:1033900080B483B000AF78607B681B0C7A685340C0
:1033A0007B607B680C4A02FB03F37B607B685B0BF2
:1033B0007A6853407B607B68084A02FB03F37B60BA
:1033C0007B681B0C7A6853407B607B6818460C371F
:1033D000BD465DF8047B70476BCAEB8535AEB2C263
:1033E00080B58EB000AFF860B9607A60BB68002B22
:1033F00000DA03339B10BB627B683B633D4B7B620F
:103400003D4B3B62BB6A9B00FA681344FB61BB6A9D
:103410005B427B6327E07B6B9B00FA6913441B686C
:10342000BB61BB697A6A02FB03F3BB61B8690F2118
:10343000FFF79AFFB861BB693A6A02FB03F3BB610D
:103440003A6BBB6953403B63386B0D21FFF78CFF30
:1034500038633A6B13469B001A44284B13443B6372
:103460007B6B01337B637B6B002BD4D1BB6A9B00EE
:10347000FA6813447B610023FB62BB6803F003031B
:10348000022B0BD0032B02D0012B0ED025E07B6941
:1034900002331B781B04FA6A5340FB627B690133D9
:1034A0001B781B02FA6A5340FB627B691B78FA6A3D
:1034B0005340FB62FB6A7A6A02FB03F3FB62F86A21
:1034C0000F21FFF751FFF862FB6A3A6A02FB03F330
:1034D000FB623A6BFB6A53403B63BB683A6B5340F9
:1034E0003B63386BFFF754FF38633B6B1846383744
:1034F000BD4680BD512D9ECC9335871B646B54E631
:1035000080B582B000AF78607B6818460649FFF747
:103510009FFC7B68054A1A607B6800221A757B68ED
:1035200018460837BD4680BD8CDD0008B8E70008A6
:1035300080B582B000AF78600B48012101220123E1
:1035400003F028FF094801210122012303F022FF93
:10355000074801210122012303F01CFF7B680022A0
:103560001A750837BD4680BDC0010020DC0100206F
:10357000F801002080B582B000AF78600B46FB7088
:103580001F4809F073F97B681B7D002B02D04FF0B8
:10359000FF3331E07B6801221A75FB78012B10D0D4
:1035A000022B1BD0002B26D11648012103F0F8FF77
:1035B0001548012103F0F4FF1448002103F0F0FF47
:1035C00019E01248012103F0EBFF0F48012103F03D
:1035D000E7FF0C48002103F0E3FF0CE00B4801215A
:1035E00003F0DEFF0748012103F0DAFF064800215F
:1035F00003F0D6FF00BF002318460837BD4680BD44
:1036000014020020DC010020F8010020C00100208D
:1036100080B582B000AF78600A48012103F0C0FF96
:103620000948012103F0BCFF0848012103F0B8FF5D
:103630007B6800221A75064809F076F90837BD46FE
:1036400080BD00BFC0010020DC010020F801002087
:103650001402002080B582B000AF78607B68084A11
:103660001A607B681846FFF70DFC0023002B02D080
:10367000786802F00BFC7B6818460837BD4680BDB1
:10368000B8E7000880B582B000AF78607868FFF7CF
:10369000E1FF786802F0FAFB7B6818460837BD4600
:1036A00080BD00BF80B582B000AF786039607B68B4
:1036B000012B1BD13A684FF6FF739A4216D10D4881
:1036C000FFF71EFF0B480C490C4A0AF03DFB0C4863
:1036D000262103F02BFE0B48272103F027FE0A4882
:1036E0001C2103F023FE094809F0A8F80837BD465D
:1036F00080BD00BFA801002055360008F40D002051
:10370000C0010020DC010020F8010020140200208C
:1037100080B500AF01204FF6FF71FFF7C3FF80BDFA
:1037200080B582B000AF78607B6818460849642293
:103730004FF4FA6309F046F97B68064A1A607B6821
:10374000002283F850207B6818460837BD4680BDAC
:1037500098DD0008D0E7000880B58CB002AFF860B3
:103760007A600A46FA72BB72FB7A3B7507F1140362
:1037700001337A681A60BB7A7B7607F114031F481D
:103780001946062205F058F8F861FB69052BCCBFF5
:1037900000230123DBB2002B02D04FF0FF3328E0DF
:1037A0004FF0FF337B62FF23FB7600233B621CE07C
:1037B00007F113030122009210481149012205F07C
:1037C000D1F8FB7CFF2B0DD0FB7C7B623B6B002B8D
:1037D0000ED0042300930948094904223B6B05F0ED
:1037E000C1F805E03B6A01333B623B6A1F2BDFDD1A
:1037F0007B6A18462837BD4680BD00BFC800002040
:10380000E0E7000880B58CB002AF7860FF237B62F0
:1038100000233B6223E07C480221FFF7ABFE00233C
:1038200000937868402100229523FFF795FF786286
:103830007548FFF7EDFE7548796A01F05FFF02F009
:1038400003FD734A4FF00003121843EB01031046C7
:103850001946002209F006FA3B6A01333B623B6AD3
:10386000092B02DC7B6A012BD5D17B6A012B02D0AC
:103870004FF0FF33C4E06748796A01F03FFFFF2350
:103880007B620023FB6126E05F480221FFF772FEA6
:1038900007F110030093786848215F4A8723FFF7F8
:1038A0005BFF78625848FFF7B3FE3B695B48796A73
:1038B0001A4601F023FF02F0C7FC554A4FF00003FF
:1038C000121843EB010310461946002209F0CAF909
:1038D000FB690133FB61FB69092B02DC7B6A012B6D
:1038E000D2D1FF237B620023BB6144E04648022122
:1038F000FFF740FE002300937868772100226523BC
:10390000FFF72AFF78624048FFF782FE4448796A51
:1039100001F0F4FE02F098FC3D4A4FF0000312184B
:1039200043EB010310461946002209F09BF9364883
:103930000221FFF71FFE00230093786869214022CF
:103940007723FFF709FF78622F48FFF761FE3548BC
:10395000796A01F0D3FE02F077FC2D4A4FF00003A4
:10396000121843EB010310461946002209F07AF9B8
:10397000BB690133BB61BA6942F20F739A4202DC40
:103980007B6A002BB2D17B6A002B02D06FF001035F
:1039900036E0FF237B6200237B6126E01A48022188
:1039A000FFF7E8FD07F10C03009378687A21002205
:1039B000FF23FFF7D1FE78621348FFF729FEFB686B
:1039C0001948796A1A4601F099FE02F03DFC104A46
:1039D0004FF00003121843EB010310461946002272
:1039E00009F040F97B6901337B617B69632B02DC61
:1039F0007B6A002BD2D17B68012283F85020002300
:103A000018462837BD4680BDA8010020A8DD000863
:103A100040420F00B8DD0008000001AAC8DD000820
:103A2000E0DD0008F0DD000800DE000880B483B0AF
:103A300000AF78607B6893F8503083F00103DBB20D
:103A4000002B02D04FF0FF3300E0002318460C3764
:103A5000BD465DF8047B704780B58AB002AFF86060
:103A6000B9607A604FF0FF33FB6139480221FFF7FC
:103A700081FD0023BB611AE0BB68184601F0D4FD4C
:103A8000034600220092F86851211A46FF23FFF7EF
:103A900063FE0346002B14BF00230123DBB2002B7F
:103AA00002D00023FB6105E0BB690133BB61BB6948
:103AB000092BE1DDFB69B3F1FF3F08D1254801F097
:103AC0001DFE2348FFF7A4FD4FF0FF333BE04FF00E
:103AD000FF33FB6100237B6111E007F11303012237
:103AE00000921D481D49012204F03CFFFB7CFE2B87
:103AF00002D10023FB6106E07B6901337B617B69B6
:103B0000B3F57A7FE9DBFB69B3F1FF3F08D11448D5
:103B100001F0F4FD0E48FFF77BFD4FF0FF3312E09C
:103B20004FF4007300930C480C494FF400727B680B
:103B300004F018FF08480949022204F07DFE0448F9
:103B4000FFF766FD002318462037BD4680BD00BF45
:103B5000A801002018DE0008C8000020E0E70008E7
:103B600034DE000880B58AB002AFF860B9607A60D0
:103B70004FF0FF33FB6128480221FFF7FBFC0023D5
:103B8000BB611AE0BB68184601F04EFD03460022F7
:103B90000092F86858211A46FF23FFF7DDFD03461F
:103BA000002B14BF00230123DBB2002B02D0002323
:103BB000FB6105E0BB690133BB61BB69092BE1DD3A
:103BC000FB69B3F1FF3F05D11348FFF721FD4FF02B
:103BD000FF331CE0FE23FB7510481149012204F05D
:103BE0002BFE07F117030D481946012204F024FEAD
:103BF0000A4879684FF4007204F01EFE074808492D
:103C0000022204F019FE0448FFF702FD00231846C3
:103C10002037BD4680BD00BFA8010020C80000209D
:103C2000E0E700080000000080B5ADF58E6D00AF44
:103C30003B1D186002F008FB3FA3D3E900231218D4
:103C400043EB010310461946002209F00BF83B1D17
:103C50001868FFF7D7FD03463948194601F04EFDB5
:103C60003848FF214FF4806202F0C4F80023C7F8FF
:103C70006C341FE0D7F86C343A1D10681946314A8D
:103C8000FFF7EAFEC7F86804D7F86834002B03D1C1
:103C90002C4B1B78042B08D02A4B1B782A48D7F8CA
:103CA0006C14D7F8682401F029FDD7F86C3401337F
:103CB000C7F86C34D7F86C24244B9A42DADD07F548
:103CC0000D73184622490022FEF790FD0346214855
:103CD000194601F013FD07F10C0318461E49012295
:103CE000FEF7C8FD03461D48194601F007FD07F120
:103CF0000C0207F26443104619494022FEF752FFB6
:103D0000D7F86434164A0021D154D7F864341548E2
:103D100013491A4601F0F2FC02F096FA06A3D3E921
:103D20000023121843EB010310461946002208F045
:103D300099FFEAE7AFF3008000CA9A3B0000000059
:103D400060DE0008C00200206CDE00083F420F0069
:103D500090DE000894DE0008A0DE0008ACDE00085B
:103D600080020020B8DE000880B582B000AF786025
:103D70007B68084A1A607B68184608F091FE0023A9
:103D8000002B02D0786802F081F87B68184608376B
:103D9000BD4680BDD0E7000880B582B000AF786036
:103DA0007868FFF7E1FF786802F070F87B681846E2
:103DB0000837BD4680BD00BF80B582B000AF7860D7
:103DC00039607B68012B0CD13A684FF6FF739A4239
:103DD00007D10548FFF7A4FC03480449044A09F049
:103DE000B3FF0837BD4680BD28020020693D0008AA
:103DF000F40D002080B500AF01204FF6FF71FFF7F2
:103E0000DBFF80BD80B582B000AF78607B6818466C
:103E1000064964224FF4FA6308F0D4FD7B68044A33
:103E20001A607B6818460837BD4680BDC0DE0008B2
:103E3000E8E900080000000080B59AB002AF7860A1
:103E40000023FB6579681FA3D3E90023CDE9002394
:103E500008464FF000024FF0000302F0D7F8FB6D68
:103E6000002B10DC07F140037868194600F074F865
:103E700007F14003124819461A2205F02BFCFB6D8E
:103E80000133FB6517E0FB6D012B09D107F10C0332
:103E90007868194600F01CF8FB6D0133FB650AE0F9
:103EA000FB6D012B07DD07F130037868194600F040
:103EB00097F80023FB657B68184602F0BDF8CEE753
:103EC00000010020AA21EF0900000000AFF30080EC
:103ED00090B583B000AF786039607B6850331C4880
:103EE000194600F005F93B68A8221A703B68591C76
:103EF0007B68D3E92023D3B20B703B6802330022E6
:103F00001A703B68033300221A703B680433114A6D
:103F100012881A803B689A1D7B68503310461946F8
:103F2000182201F089FF3B6803F11E0478683968A4
:103F30001E2200F0CBF803462360064B1B8801339A
:103F40009AB2044B1A80222318460C37BD4690BD06
:103F5000980700206807002090B583B000AF786014
:103F600039607B6888331C48194600F0F7F83B68D5
:103F7000A4221A703B68591C7B68D3E92623D3B26C
:103F80000B703B68023300221A703B680333002237
:103F90001A703B680433114A12881A803B689A1DD4
:103FA0007B68883310461946102201F045FF3B68B4
:103FB00003F1160478683968162200F087F8034682
:103FC0002360064B1B8801339AB2044B1A801A23D4
:103FD00018460C37BD4690BDC00800206A07002077
:103FE00090B585B000AF786039607B68A033324807
:103FF000194600F0DFF87B68A53330481946FFF713
:104000003BF97B68A6332E48194600F0F7F83B6869
:10401000A2221A7002F018F902460B461046194601
:10402000284A4FF00003FCF725FD02460B46C7E97E
:1040300002233B6801333A7A1A703B68023300224C
:104040001A703B68033300221A703B6804331E4A1F
:1040500012881A803B6806337A6892F8A520D1B29C
:104060007A6892F8A620D201D2B20A43D2B21A706C
:104070003B68073300221A803B6803F109027B6822
:10408000A03310461946052201F0D6FE3B6803F125
:104090000E04786839680E2200F018F80346236091
:1040A000094B1B8801339AB2074B1A80102318461C
:1040B0001437BD4690BD00BF88090020400B00208A
:1040C000C00B002040420F006C07002080B584B078
:1040D00000AFF860B9607A60B868796841F2373249
:1040E000FFF77EF9034618461037BD4680BD00BF76
:1040F000F0B484B000AF786039607B68012283F847
:10410000B8207B68D3F8B030FB603A68FB6803F1F5
:10411000300411461846D0F800C046688568C0686B
:10412000C1F800C04E608D60C86010331032A342E9
:10413000EFD119685B68116053607B68002283F8D7
:10414000B8207B68D3E93223013243F10003796858
:10415000C1E932231037BD46F0BC7047B0B485B01A
:1041600000AF786039607B68012283F858207B6853
:104170001B6DFB603B68FA68106851689568D468ED
:10418000186059609D60DC6010695169186159615F
:104190007B68002283F858207B68D3E91A23013218
:1041A00043F100037968C1E91A231437BD46B0BC56
:1041B000704700BF80B485B000AF786039607B681D
:1041C000012283F820207B689B69FB603B68FA68CA
:1041D0001168196012791A717B68002283F8202017
:1041E0007B68D3E90C23013243F100037968C1E90C
:1041F0000C231437BD465DF8047B704780B485B04E
:1042000000AF786039607B6801221A757B68DB68D3
:10421000FB60FB681A783B681A707B6800221A758D
:104220007B68D3E90823013243F100037968C1E9CF
:1042300008231437BD465DF8047B704780B582B013
:1042400000AF78607B68084A1A607B68184608F0FF
:1042500027FC0023002B02D0786801F017FE7B6852
:1042600018460837BD4680BDE8E9000880B582B031
:1042700000AF78607868FFF7E1FF786801F006FE2C
:104280007B6818460837BD4680BD00BF80B582B048
:1042900000AF786039607B68012B0CD13A684FF62B
:1042A000FF739A4207D10548FFF7ACFD0348044964
:1042B000044A09F049FD0837BD4680BDC00600200C
:1042C0003D420008F40D002080B500AF01204FF6FC
:1042D000FF71FFF7DBFF80BD80B582B000AF786073
:1042E0007B680A4A1A600A4801F04EFA7B68043378
:1042F000184601F0C9FB0023002B02D0786801F0BA
:10430000C5FD7B6818460837BD4680BD58EB0008E0
:10431000D0DE000880B582B000AF78607868FFF723
:10432000DBFF786801F0B2FD7B6818460837BD46B0
:1043300080BD00BF80B582B000AF78607B680A4A5C
:104340001A600A4801F020FA7B680433184601F02D
:104350009BFB0023002B02D0786801F097FD7B685F
:1043600018460837BD4680BDC0EB0008E0DE0008F7
:1043700080B582B000AF78607868FFF7DBFF7868BF
:1043800001F084FD7B6818460837BD4680BD00BF3C
:1043900080B582B000AF78607B68064A1A6000235F
:1043A000002B02D0786801F071FD7B681846083751
:1043B000BD4680BD40EB000880B582B000AF78609C
:1043C0007868FFF7E5FF786801F060FD7B681846C4
:1043D0000837BD4680BD00BF80B584B000AFF8602F
:1043E000B9607A603B60044801F0CEF900231846BA
:1043F0001037BD4680BD00BFF4DE000880B584B034
:1044000000AFF860B9607A60FB681846B968382276
:104410007B6801F085FFFB68034A1A60FB68184659
:104420001037BD4680BD00BF30EB000880B483B0BC
:1044300000AF78607B68044A1A607B6818460C37C6
:10444000BD465DF8047B704740EB000880B582B044
:1044500000AF78607B681846FFF7E8FF7B68144A76
:104460001A607B681A1D7B68C3F8AC207B6803F177
:104470003C027B68C3F8B0207B6803F174027B6860
:10448000C3F8B4207B68002283F8B82079684FF025
:1044900000024FF00003C1E932237B68D3E93223E5
:1044A0007968C1E930237B6818460837BD4680BD6E
:1044B00018EB000880B584B000AFF860B9607A608E
:1044C000FB681846B96818227B6801F029FFFB6871
:1044D000034A1A60FB6818461037BD4680BD00BF0E
:1044E00008EB000880B582B000AF78607B681846A2
:1044F000FFF79CFF7B68134A1A607B681A1D7B6874
:10450000DA647B6803F11C027B681A657B6803F13F
:1045100034027B685A657B68002283F858207968EA
:104520004FF000024FF00003C1E91A237B68D3E982
:104530001A237968C1E918237B6818460837BD46F5
:1045400080BD00BFF0EA000880B584B000AFF8601D
:10455000B9607A60FB681846B96805227B6801F08B
:10456000DFFEFB68034A1A60FB6818461037BD4639
:1045700080BD00BFE0EA000880B582B000AF78607F
:104580007B681846FFF752FF7B68134A1A607B6806
:104590001A1D7B685A617B6803F109027B689A6186
:1045A0007B6803F10E027B68DA617B68002283F886
:1045B000202079684FF000024FF00003C1E90C237E
:1045C0007B68D3E90C237968C1E90A237B68184624
:1045D0000837BD4680BD00BFC8EA000880B584B07A
:1045E00000AFF860B9607A60FB681846B9680722C6
:1045F0007B6801F095FEFB68034A1A60FB68184669
:104600001037BD4680BD00BFB8EA000880B582B053
:1046100000AF78607B681846FFF708FF7B68134A95
:104620001A607B681A1D7B68DA617B6803F10B02F4
:104630007B681A627B6803F112027B685A627B68AE
:10464000002283F8282079684FF000024FF0000321
:10465000C1E90E237B68D3E90E237968C1E90C23F5
:104660007B6818460837BD4680BD00BFA0EA000839
:1046700080B584B000AFF860B9607A60FB68184616
:10468000B96806227B6801F04BFEFB68034A1A609A
:10469000FB6818461037BD4680BD00BF90EA000891
:1046A00080B582B000AF78607B681846FFF7BEFE29
:1046B0007B68134A1A607B681A1D7B689A617B6865
:1046C00003F10A027B68DA617B6803F110027B6800
:1046D0001A627B68002283F8242079684FF0000278
:1046E0004FF00003C1E90C237B68D3E90C23796800
:1046F000C1E90A237B6818460837BD4680BD00BF64
:1047000078EA000880B584B000AFF860B9607A60DC
:10471000FB681846B96801227B6801F001FEFB685E
:10472000034A1A60FB6818461037BD4680BD00BFBB
:1047300068EA000880B582B000AF78607B681846F0
:10474000FFF774FE7B68114A1A607B681A1D7B684C
:104750009A607B685A1D7B68DA607B689A1D7B686B
:104760001A617B6800221A7579684FF000024FF0D9
:104770000003C1E908237B68D3E908237968C1E90C
:1047800006237B6818460837BD4680BD50EA0008FE
:1047900080B584B000AFF860B9607A60FB681846F5
:1047A000B96801227B6801F0BBFDFB68034A1A600F
:1047B000FB6818461037BD4680BD00BF40EA0008C0
:1047C00080B582B000AF78607B681846FFF72EFE98
:1047D0007B68114A1A607B681A1D7B689A607B6847
:1047E0005A1D7B68DA607B689A1D7B681A617B685A
:1047F00000221A7579684FF000024FF00003C1E9FA
:1048000008237B68D3E908237968C1E906237B681C
:1048100018460837BD4680BD28EA000880B584B038
:1048200000AFF860B9607A60FB681846B968022288
:104830007B6801F075FDFB68034A1A60FB68184647
:104840001037BD4680BD00BF18EA000880B582B0B1
:1048500000AF78607B681846FFF7E8FD7B68124A76
:104860001A607B681A1D7B68DA607B689A1D7B681A
:104870001A617B6803F108027B685A617B68002239
:104880001A7679684FF000024FF00003C1E90A235D
:104890007B68D3E90A237968C1E908237B68184655
:1048A0000837BD4680BD00BF00EA000880B582B071
:1048B00000AF78607B68084A1A607B681846FFF78B
:1048C00067FD0023002B02D0786801F0DFFA7B68D7
:1048D00018460837BD4680BD00EA000880B582B0A2
:1048E00000AF78607868FFF7E1FF786801F0CEFAF2
:1048F0007B6818460837BD4680BD00BF80B582B0D2
:1049000000AF78607B68084A1A607B681846FFF73A
:104910003FFD0023002B02D0786801F0B7FA7B68D6
:1049200018460837BD4680BD28EA000880B582B029
:1049300000AF78607868FFF7E1FF786801F0A6FAC9
:104940007B6818460837BD4680BD00BF80B582B081
:1049500000AF78607B68084A1A607B681846FFF7EA
:1049600017FD0023002B02D0786801F08FFA7B68D6
:1049700018460837BD4680BD50EA000880B582B0B1
:1049800000AF78607868FFF7E1FF786801F07EFAA1
:104990007B6818460837BD4680BD00BF80B582B031
:1049A00000AF78607B68084A1A607B681846FFF79A
:1049B000EFFC0023002B02D0786801F067FA7B68D7
:1049C00018460837BD4680BD78EA000880B582B039
:1049D00000AF78607868FFF7E1FF786801F056FA79
:1049E0007B6818460837BD4680BD00BF80B582B0E1
:1049F00000AF78607B68084A1A607B681846FFF74A
:104A0000C7FC0023002B02D0786801F03FFA7B68D6
:104A100018460837BD4680BDA0EA000880B582B0C0
:104A200000AF78607868FFF7E1FF786801F02EFA50
:104A30007B6818460837BD4680BD00BF80B582B090
:104A400000AF78607B68084A1A607B681846FFF7F9
:104A50009FFC0023002B02D0786801F017FA7B68D6
:104A600018460837BD4680BDC8EA000880B582B048
:104A700000AF78607868FFF7E1FF786801F006FA28
:104A80007B6818460837BD4680BD00BF80B582B040
:104A900000AF78607B68084A1A607B681846FFF7A9
:104AA00077FC0023002B02D0786801F0EFF97B68D7
:104AB00018460837BD4680BDF0EA000880B582B0D0
:104AC00000AF78607868FFF7E1FF786801F0DEF901
:104AD0007B6818460837BD4680BD00BF80B582B0F0
:104AE00000AF78607B68084A1A607B681846FFF759
:104AF0004FFC0023002B02D0786801F0C7F97B68D7
:104B000018460837BD4680BD18EB000880B582B056
:104B100000AF78607868FFF7E1FF786801F0B6F9D8
:104B20007B6818460837BD4680BD00BF80B584B09D
:104B300002AF786039607B68012B40F006813A68EB
:104B40004FF6FF739A4240F0008181484FF0FF31E9
:104B5000804AFFF753FC7E487F49804A09F0F4F809
:104B60007F48FFF773FC7E487E497C4A09F0ECF8E9
:104B7000002300937C487649794A7C4B01F090F9F8
:104B800079487B49754A09F0DFF87A484FF0FF31E0
:104B9000794AFFF78FFC77487849704A09F0D4F8D2
:104BA0007748FFF79FFC764876496C4A09F0CCF8C5
:104BB0000023009374486F49714A6C4B01F070F9FF
:104BC00071486B49654A09F0BFF870484FF0FF31F2
:104BD0006F4AFFF7B9FC6D486E49604A09F0B4F8B6
:104BE0006D48FFF7C9FC6C486C495C4A09F0ACF8A9
:104BF000002300936A486549674A5C4B01F050F90D
:104C000067485B49554A09F09FF866484FF0FF3105
:104C1000654AFFF7E3FC63486449504A09F094F899
:104C20006348FFF7F3FC624862494C4A09F08CF88C
:104C30000023009360485B495D4A4C4B01F030F91A
:104C40005D484B49454A09F07FF85C484FF0FF3119
:104C50005B4AFFF70DFD59485A49404A09F074F87C
:104C60005948FFF71DFD584858493C4A09F06CF86F
:104C70000023009356485149534A3C4B01F010F928
:104C800053483B49354A09F05FF852484FF0FF312D
:104C9000514AFFF737FD4F485049304A09F054F860
:104CA0004F48FFF747FD4E484E492C4A09F04CF853
:104CB000002300934C484749494A2C4B01F0F0F837
:104CC00049482B49254A09F03FF848484FF0FF3141
:104CD000474AFFF75DFD45484649204A09F034F848
:104CE0004548FFF76DFD444844491C4A09F02CF83B
:104CF0000023009342483D493F4A1C4B01F0D0F845
:104D00003F481B49154A09F01FF83E484FF0FF3154
:104D10003D4AFFF783FD3B483C49104A09F014F82F
:104D20003B48FFF793FD3A483A490C4A09F00CF822
:104D30000023009338483349354A0C4B01F0B0F852
:104D400035480B49054A08F0FFFF0837BD4680BDCE
:104D5000700700207CDF000841520008F40D00209D
:104D600098070020DD4A00086808002088DF000856
:104D700035430008980800209CDF0008B151000866
:104D8000C00800208D4A000830090020600900207A
:104D9000B0DF000821510008880900203D4A0008C2
:104DA000C0090020F0090020C0DF00089150000871
:104DB000180A0020ED490008580A0020880A00203F
:104DC000CCDF000801500008B00A00209D4900080F
:104DD000E80A0020180B0020E0DF0008714F0008EF
:104DE000400B00204D490008680B0020980B002064
:104DF000F0DF0008E14E0008C00B0020FD4800086D
:104E0000E80B0020180C0020FCDF0008514E0008C1
:104E1000400C0020AD480008700C002080B584B024
:104E200000AFF860B9607A603B607B68022B04D900
:104E3000064800F0A9FC002304E0F868396800F097
:104E40002DFA012318461037BD4680BD0CE000083E
:104E500080B582B000AF78607B680A4A1A600A4861
:104E600000F092FC7B681846FFF736FA0023002B0F
:104E700002D0786801F00AF87B6818460837BD460A
:104E800080BD00BF18EA000820E0000880B582B0AD
:104E900000AF78607868FFF7DBFF786800F0F6FF16
:104EA0007B6818460837BD4680BD00BF80B584B01A
:104EB00000AFF860B9607A603B607B68012B04D971
:104EC000064800F061FC002304E0F868396800F04F
:104ED00017FA012318461037BD4680BD0CE00008C4
:104EE00080B582B000AF78607B680A4A1A600A48D1
:104EF00000F04AFC7B681846FFF7EEF90023002B10
:104F000002D0786800F0C2FF7B6818460837BD46BB
:104F100080BD00BF40EA000820E0000880B582B0F4
:104F200000AF78607868FFF7DBFF786800F0AEFFCD
:104F30007B6818460837BD4680BD00BF80B584B089
:104F400000AFF860B9607A603B607B68012B04D9E0
:104F5000064800F019FC002304E0F868396800F006
:104F600001FA012318461037BD4680BD0CE0000849
:104F700080B582B000AF78607B680A4A1A600A4840
:104F800000F002FC7B681846FFF7A6F90023002B0F
:104F900002D0786800F07AFF7B6818460837BD4673
:104FA00080BD00BF68EA000820E0000880B582B03C
:104FB00000AF78607868FFF7DBFF786800F066FF85
:104FC0007B6818460837BD4680BD00BF80B584B0F9
:104FD00000AFF860B9607A603B607B68062B04D94B
:104FE000064800F0D1FB002304E0F868396800F0BF
:104FF000EBF9012318461037BD4680BD0CE00008D0
:1050000080B582B000AF78607B680A4A1A600A48AF
:1050100000F0BAFB7B681846FFF75EF90023002B0F
:1050200002D0786800F032FF7B6818460837BD462A
:1050300080BD00BF90EA000820E0000880B582B083
:1050400000AF78607868FFF7DBFF786800F01EFF3C
:105050007B6818460837BD4680BD00BF80B584B068
:1050600000AFF860B9607A603B607B68072B04D9B9
:10507000064800F089FB002304E0F868396800F076
:10508000D7F9012318461037BD4680BD0CE0000853
:1050900080B582B000AF78607B680A4A1A600A481F
:1050A00000F072FB7B681846FFF716F90023002B0F
:1050B00002D0786800F0EAFE7B6818460837BD46E3
:1050C00080BD00BFB8EA000820E0000880B582B0CB
:1050D00000AF78607868FFF7DBFF786800F0D6FEF5
:1050E0007B6818460837BD4680BD00BF80B584B0D8
:1050F00000AFF860B9607A603B607B68052B04D92B
:10510000064800F041FB002304E0F868396800F02D
:10511000C5F9012318461037BD4680BD0CE00008D4
:1051200080B582B000AF78607B680A4A1A600A488E
:1051300000F02AFB7B681846FFF7CEF80023002B0F
:1051400002D0786800F0A2FE7B6818460837BD469A
:1051500080BD00BFE0EA000820E0000880B582B012
:1051600000AF78607868FFF7DBFF786800F08EFEAC
:105170007B6818460837BD4680BD00BF80B584B047
:1051800000AFF860B9607A603B607B68182B04D987
:10519000064800F0F9FA002304E0F868396800F0E6
:1051A000B1F9012318461037BD4680BD0CE0000858
:1051B00080B582B000AF78607B680A4A1A600A48FE
:1051C00000F0E2FA7B681846FFF786F80023002B10
:1051D00002D0786800F05AFE7B6818460837BD4652
:1051E00080BD00BF08EB000820E0000880B582B059
:1051F00000AF78607868FFF7DBFF786800F046FE64
:105200007B6818460837BD4680BD00BF80B584B0B6
:1052100000AFF860B9607A603B607B68382B04D9D6
:10522000064800F0B1FA002304E0F868396800F09D
:10523000A5F9012318461037BD4680BD0CE00008D3
:1052400080B582B000AF78607B680A4A1A600A486D
:1052500000F09AFA7B681846FFF73EF80023002B0F
:1052600002D0786800F012FE7B6818460837BD4609
:1052700080BD00BF30EB000820E0000880B582B0A0
:1052800000AF78607868FFF7DBFF786800F0FEFD1C
:105290007B6818460837BD4680BD00BF80B485B026
:1052A00000AF786039607B68DB683A6812881A80E2
:1052B0007B681B69FB607B68DA687B681A617B68C6
:1052C000FA68DA607B681B7EDBB2002B09D07B6852
:1052D000DB68FB607B685A697B68DA607B68FA6828
:1052E0005A617B68D3E90823013243F100037968EE
:1052F000C1E908231437BD465DF8047B704700BF41
:1053000080B485B000AF786039607B689B683A688C
:1053100012781A707B68DB68FB607B689A687B6830
:10532000DA607B68FA689A607B681B7DDBB2002BD1
:1053300009D07B689B68FB607B681A697B689A6010
:105340007B68FA681A617B68D3E90623013243F16E
:1053500000037968C1E906231437BD465DF8047B74
:10536000704700BF80B485B000AF786039607B685B
:105370009B683A6812781A707B68DB68FB607B6810
:105380009A687B68DA607B68FA689A607B681B7D44
:10539000DBB2002B09D07B689B68FB607B681A69D5
:1053A0007B689A607B68FA681A617B68D3E9062398
:1053B000013243F100037968C1E906231437BD4681
:1053C0005DF8047B704700BF80B485B000AF7860A3
:1053D00039607B689B693A681168196092889A8085
:1053E0007B68DB69FB607B689A697B68DA617B6854
:1053F000FA689A617B6893F82430DBB2002B09D0FD
:105400007B689B69FB607B681A6A7B689A617B6832
:10541000FA681A627B68D3E90A23013243F1000378
:105420007968C1E90A231437BD465DF8047B7047EB
:1054300080B485B000AF786039607B68DB693A681A
:10544000116819609188927999809A717B681B6ABA
:10545000FB607B68DA697B681A627B68FA68DA61EC
:105460007B6893F82830DBB2002B09D07B68DB69BE
:10547000FB607B685A6A7B68DA617B68FA685A620B
:105480007B68D3E90C23013243F100037968C1E959
:105490000C231437BD465DF8047B704780B485B09B
:1054A00000AF786039607B685B693A6811681960A1
:1054B00012791A717B689B69FB607B685A697B680B
:1054C0009A617B68FA685A617B6893F82030DBB296
:1054D000002B09D07B685B69FB607B68DA697B68BD
:1054E0005A617B68FA68DA617B68D3E90A23013282
:1054F00043F100037968C1E90A231437BD465DF81A
:10550000047B7047B0B485B000AF786039607B68C9
:10551000DB6C3A68106851689568D4681860596007
:105520009D60DC6010695169186159617B681B6D71
:10553000FB607B68DA6C7B681A657B68FA68DA6402
:105540007B6893F85830DBB2002B09D07B68DB6CAA
:10555000FB607B685A6D7B68DA647B68FA685A6521
:105560007B68D3E91823013243F100037968C1E96C
:1055700018231437BD46B0BC704700BFF0B484B0E8
:1055800000AF786039607B68D3F8AC203B6803F1EA
:10559000300411461846D0F800C046688568C068D7
:1055A000C1F800C04E608D60C86010331032A34255
:1055B000EFD119685B68116053607B68D3F8B03035
:1055C000FB607B68D3F8AC207B68C3F8B0207B68B5
:1055D000FA68C3F8AC207B6893F8B830DBB2002BD4
:1055E0000DD07B68D3F8AC30FB607B68D3F8B42077
:1055F0007B68C3F8AC207B68FA68C3F8B4207B688A
:10560000D3E93023013243F100037968C1E9302343
:105610001037BD46F0BC704780B500AF01204FF693
:10562000FF71FFF783FA80BD80B487B000AF786068
:105630007B68FB6007F10C037B617B691B78FB7463
:105640007B69DA787B691A707B690333FA7C1A709C
:105650007B695B78BB747B6901337A6992781A70D5
:105660007B690233BA7C1A70FB6818461C37BD464A
:105670005DF8047B704700BF80B582B000AF7860F2
:105680007B68064A1A600023002B02D0786800F07D
:10569000FDFB7B6818460837BD4680BD68EB0008F7
:1056A00080B582B000AF78607868FFF7E5FF786872
:1056B00000F0ECFB7B6818460837BD4680BD00BF94
:1056C00080B582B000AF78600B46FB7097F903306D
:1056D000184606F027FE0837BD4680BD80B483B06B
:1056E00000AF78607B68044A1A607B6818460C3704
:1056F000BD465DF8047B704768EB00080FB480B5C9
:1057000082B000AF1C4B1B68002B2FD03B461846C5
:10571000FFF7E4FF07F114037B60184B1B68002BB5
:1057200005D0164B1B681648194601F0EDFA07F034
:105730004FF8034683F00103DBB2002B05D03B4654
:105740001846396901F06EF80AE00E4807F08EF845
:105750003B461846396901F065F80A4807F0E4F855
:1057600006F022FE3B461846FFF786FF0837BD4687
:10577000BDE8804004B0704704000020B40C002055
:1057800038E00008B80C002080B582B000AF786027
:10579000074B7A681A6007487968FFF7AFFF064B36
:1057A0001B685A1C044B1A600837BD4680BD00BFF9
:1057B000000000204CE00008B40C002080B582B04E
:1057C00000AF786039607B68012B07D13A684FF6EB
:1057D000FF739A4202D1034807F030F80837BD46FC
:1057E00080BD00BFB80C002080B500AF01204FF68F
:1057F000FF71FFF7E3FF80BD0FB480B400AF00235B
:105800001846BD465DF8047B04B0704780B483B091
:1058100000AF78600C37BD465DF8047B704700BF71
:105820000FB480B400AF00231846BD465DF8047B7A
:1058300004B070470FB480B400AF00231846BD46D3
:105840005DF8047B04B0704780B483B000AF78602B
:10585000002318460C37BD465DF8047B704700BF37
:1058600080B483B000AF7860002318460C37BD4683
:105870005DF8047B704700BF0FB480B400AF002315
:105880001846BD465DF8047B04B070470FB480B481
:1058900000AF00231846BD465DF8047B04B0704796
:1058A0000FB480B400AF00231846BD465DF8047BFA
:1058B00004B0704780B483B000AF78607B680A4A58
:1058C0001A607B6800221A617B6800225A607B683C
:1058D00000229A607B680022DA607B6818460C37E9
:1058E000BD465DF8047B704780EB000880B584B04E
:1058F00000AFF860C7E9002306F042F9FB681B68B7
:1059000010331B68F86898470346002B02D006F056
:105910003FF90EE007F07EF90246FB689A60FB68EB
:105920009968D7E90023C1E90A2306F031F907F0A5
:10593000FBF81037BD4680BD80B582B000AF7860FF
:105940007B689B68002B04D07B689B68184607F037
:105950006DF97B6800229A607B681B69002B07D079
:105960007B681B691B681B687A6812691046984738
:105970000837BD4680BD00BF80B582B000AF7860FB
:105980007B685B68002B04D07B685B68184607F077
:105990004DF97B6800225A607B681B69002B08D098
:1059A0007B681B691B6804331B687A6812691046A0
:1059B00098470837BD4680BD80B582B000AF78609B
:1059C0007B68DB68002B04D07B68DB68184607F037
:1059D0002DF97B680022DA607B681B69002B08D0F8
:1059E0007B681B691B6808331B687A68126910465C
:1059F00098470837BD4680BD80B584B000AFF860D9
:105A0000B9607A603B60FB683A68DA60FB687A6884
:105A10005A60084B1B68591C064A1160FA6893606B
:105A2000F868B96800F008F8FB6818461037BD46FA
:105A300080BD00BFC80C002080B582B000AF786088
:105A400039603B681A687B681A603B687A681A603C
:105A50000A4B1B68002B0CBF00230123DBB2002B79
:105A600008D00748FFF790FE7B685B680548194639
:105A7000FFF744FE0837BD4680BD00BF7020002000
:105A800078E00008ACE0000880B582B000AF786034
:105A90000348FFF779FE7B6818460837BD4680BD8E
:105AA000D0E0000880B483B000AF78607B681B68EA
:105AB00018460C37BD465DF8047B704780B483B050
:105AC00000AF78607B685B6818460C37BD465DF8B0
:105AD000047B704780B588B000AF01233B60FB7842
