:020000040800F2
:1000000000000220095E0008E1BF0008E9BF000807
:100010000DC0000815C000081DC000080000000049
:100020000000000000000000000000000DB9000802
:10003000755E00080000000021B900085DBC0008E2
:10004000755E0008755E0008755E0008755E000844
:10005000755E0008755E0008296800084D68000894
:100060007168000895680008B9680008755E0008A6
:10007000718B0008755E0008998A0008755E00089B
:10008000298B0008518A0008755E0008755E00081B
:10009000755E0008755E0008755E0008DD68000882
:1000A000755E0008755E00080DBE0008755E0008EC
:1000B000755E0008755E0008755E0008755E0008D4
:1000C000755E0008755E0008755E0008755E0008C4
:1000D000755E00087989000891890008A9890008DF
:1000E00039690008755E0008755E0008755E0008D5
:1000F000755E0008755E0008755E0008755E000894
:10010000755E0008755E000819BA0008755E000883
:10011000C1890008D9890008755E0008755E00086D
:10012000755E0008755E0008755E0008755E000863
:10013000755E0008755E0008755E0008755E000853
:10014000755E0008755E0008755E0008755E000843
:10015000E18A0008755E0008098A0008F189000834
:10016000755E0008755E0008755E0008755E000823
:10017000755E0008755E0008755E0008755E000813
:0C018000755E0008755E000800000008B5
:1001900081F0004102E000BF83F0004330B54FEA38
:1001A00041044FEA430594EA050F08BF90EA020FA5
:1001B0001FBF54EA000C55EA020C7FEA645C7FEA38
:1001C000655C00F0E2804FEA5454D4EB5555B8BF5B
:1001D0006D420CDD2C4480EA020281EA030382EACC
:1001E000000083EA010180EA020281EA0303362D5E
:1001F00088BF30BD11F0004F4FEA01314FF4801C31
:100200004CEA113102D0404261EB410113F0004F42
:100210004FEA03334CEA133302D0524263EB4303F9
:1002200094EA050F00F0A780A4F10104D5F1200E97
:100230000DDB02FA0EFC22FA05F2801841F10001F2
:1002400003FA0EF2801843FA05F359410EE0A5F1C6
:1002500020050EF1200E012A03FA0EFC28BF4CF0F7
:10026000020C43FA05F3C01851EBE37101F00045AD
:1002700007D54FF0000EDCF1000C7EEB00006EEBBA
:100280000101B1F5801F1BD3B1F5001F0CD3490844
:100290005FEA30004FEA3C0C04F101044FEA44529B
:1002A00012F5800F80F09A80BCF1004F08BF5FEA22
:1002B000500C50F1000041EB045141EA050130BD02
:1002C0005FEA4C0C404141EB010111F4801FA4F1A5
:1002D0000104E9D191F0000F04BF01460020B1FAFA
:1002E00081F308BF2033A3F10B03B3F120020CDA32
:1002F0000C3208DD02F1140CC2F10C0201FA0CF010
:1003000021FA02F10CE002F11402D8BFC2F1200C74
:1003100001FA02F120FA0CFCDCBF41EA0C0190402A
:10032000E41AA2BF01EB0451294330BD6FEA040473
:100330001F3C1CDA0C340EDC04F11404C4F120025E
:1003400020FA04F001FA02F340EA030021FA04F370
:1003500045EA030130BDC4F10C04C4F1200220FAC7
:1003600002F001FA04F340EA0300294630BD21FA05
:1003700004F0294630BD94F0000F83F4801306BFCB
:1003800081F480110134013D4EE77FEA645C18BFBF
:100390007FEA655C29D094EA050F08BF90EA020F56
:1003A00005D054EA000C04BF1946104630BD91EA4E
:1003B000030F1EBF0021002030BD5FEA545C05D151
:1003C0004000494128BF41F0004130BD14F5800490
:1003D0003CBF01F5801130BD01F0004545F0FE4104
:1003E00041F470014FF0000030BD7FEA645C1ABF39
:1003F000194610467FEA655C1CBF0B46024650EA70
:10040000013406BF52EA033591EA030F41F400219B
:1004100030BD00BF90F0000F04BF0021704730B521
:100420004FF4806404F132044FF000054FF00001F6
:1004300050E700BF90F0000F04BF0021704730B5B7
:100440004FF4806404F1320410F0004548BF40428C
:100450004FF000013EE700BF42004FEAE2014FEAE1
:1004600031014FEA02701FBF12F07F4393F07F4FBC
:1004700081F06051704792F0000F14BF93F07F4FEE
:10048000704730B54FF4607401F0004521F0004131
:1004900020E700BF50EA010208BF704730B54FF0B7
:1004A00000050AE050EA010208BF704730B511F0BC
:1004B000004502D5404261EB41014FF4806404F1F4
:1004C00032045FEA915C3FF4DCAE4FF003025FEA76
:1004D000DC0C18BF03325FEADC0C18BF033202EBFE
:1004E000DC02C2F1200300FA03FC20FA02F001FA58
:1004F00003FE40EA0E0021FA02F11444C1E600BFF7
:1005000070B54FF0FF0C4CF4E06C1CEA11541DBFA9
:100510001CEA135594EA0C0F95EA0C0F00F0DEF874
:100520002C4481EA030621EA4C5123EA4C5350EA59
:10053000013518BF52EA033541F4801143F48013AA
:1005400038D0A0FB02CE4FF00005E1FB02E506F03B
:100550000042E0FB03E54FF00006E1FB03569CF090
:10056000000F18BF4EF0010EA4F1FF04B6F5007F96
:1005700064F5407404D25FEA4E0E6D4146EB060608
:1005800042EAC62141EA55514FEAC52040EA5E5091
:100590004FEACE2EB4F1FD0C88BFBCF5E06F1ED83B
:1005A000BEF1004F08BF5FEA500E50F1000041EB72
:1005B000045170BD06F0004646EA010140EA02001F
:1005C00081EA0301B4EB5C04C2BFD4EB0C0541EA41
:1005D000045170BD41F480114FF0000E013C00F356
:1005E000AB8014F1360FDEBF002001F0004170BD7A
:1005F000C4F10004203C35DA0C341BDC04F1140493
:10060000C4F1200500FA05F320FA04F001FA05F21E
:1006100040EA020001F0004221F0004110EBD370EB
:1006200021FA04F642EB06015EEA430E08BF20EA17
:10063000D37070BDC4F10C04C4F1200500FA04F3BA
:1006400020FA05F001FA04F240EA020001F000414C
:1006500010EBD37041F100015EEA430E08BF20EABF
:10066000D37070BDC4F1200500FA05F24EEA020E07
:1006700020FA04F301FA05F243EA020321FA04F036
:1006800001F0004121FA04F220EA020000EBD370ED
:100690005EEA430E08BF20EAD37070BD94F0000FED
:1006A0000FD101F00046400041EB010111F4801F21
:1006B00008BF013CF7D041EA060195F0000F18BFD2
:1006C000704703F00046520043EB030313F4801F0E
:1006D00008BF013DF7D043EA0603704794EA0C0FC8
:1006E0000CEA135518BF95EA0C0F0CD050EA4106DE
:1006F00018BF52EA4306D1D181EA030101F000415B
:100700004FF0000070BD50EA410606BF1046194682
:1007100052EA430619D094EA0C0F02D150EA01368E
:1007200013D195EA0C0F05D152EA03361CBF1046CF
:1007300019460AD181EA030101F0004141F0FE416E
:1007400041F470014FF0000070BD41F0FE4141F4F2
:10075000780170BD70B54FF0FF0C4CF4E06C1CEAF2
:1007600011541DBF1CEA135594EA0C0F95EA0C0FA7
:1007700000F0A7F8A4EB050481EA030E52EA033562
:100780004FEA013100F088804FEA03334FF0805583
:1007900045EA131343EA12634FEA022245EA1115B0
:1007A00045EA10654FEA00260EF000419D4208BF61
:1007B000964244F1FD0404F5407402D25B084FEA0E
:1007C0003202B61A65EB03055B084FEA32024FF4BA
:1007D00080104FF4002CB6EB020E75EB030E22BF17
:1007E000B61A754640EA0C005B084FEA3202B6EBD7
:1007F000020E75EB030E22BFB61A754640EA5C0086
:100800005B084FEA3202B6EB020E75EB030E22BF15
:10081000B61A754640EA9C005B084FEA3202B6EB16
:10082000020E75EB030E22BFB61A754640EADC00D5
:1008300055EA060E18D04FEA051545EA16754FEA37
:1008400006164FEAC30343EA52734FEAC2025FEA55
:100850001C1CC0D111F4801F0BD141EA00014FF0E4
:1008600000004FF0004CB6E711F4801F04BF0143B5
:100870000020B4F1FD0C88BFBCF5E06F3FF6AFAED1
:10088000B5EB030C04BFB6EB020C5FEA500C50F161
:10089000000041EB045170BD0EF0004E4EEA1131E4
:1008A00014EB5C04C2BFD4EB0C0541EA045170BDEB
:1008B00041F480114FF0000E013C90E645EA060E2F
:1008C0008DE60CEA135594EA0C0F08BF95EA0C0F5D
:1008D0003FF43BAF94EA0C0F0AD150EA01347FF4A5
:1008E00034AF95EA0C0F7FF425AF104619462CE77C
:1008F00095EA0C0F06D152EA03353FF4FDAE1046DF
:10090000194622E750EA410618BF52EA43067FF42F
:10091000C5AE50EA41047FF40DAF52EA43057FF4BF
:10092000EBAE12E74FF0FF3C06E000BF4FF0010CCA
:1009300002E000BF4FF0010C4DF804CD4FEA410C2E
:100940007FEA6C5C4FEA430C18BF7FEA6C5C1BD0FB
:1009500001B050EA410C0CBF52EA430C91EA030F7C
:1009600002BF90EA020F0020704710F1000F91EAD9
:10097000030F58BF994208BF90422CBFD8176FEAA7
:10098000E37040F0010070474FEA410C7FEA6C5C75
:1009900002D150EA013C07D14FEA430C7FEA6C5C7C
:1009A000D6D152EA033CD3D05DF8040B704700BFA8
:1009B0008446104662468C461946634600E000BFF6
:1009C00001B5FFF7B7FF002848BF10F1000F01BDC8
:1009D0004DF808EDFFF7F4FF0CBF012000205DF893
:1009E00008FB00BF4DF808EDFFF7EAFF34BF012018
:1009F00000205DF808FB00BF4DF808EDFFF7E0FFB1
:100A000094BF012000205DF808FB00BF4DF808ED01
:100A1000FFF7CEFF94BF012000205DF808FB00BF68
:100A20004DF808EDFFF7C4FF34BF012000205DF84A
:100A300008FB00BF4A0011D212F5001211D20DD5E9
:100A40006FF47873B3EB62520ED44FEAC12343F0D4
:100A5000004343EA505323FA02F070474FF000007E
:100A6000704750EA013002D14FF0FF3070474FF02D
:100A70000000704773B96AB9002908BF0028BCBFDD
:100A800000204FF00041C4BF6FF000414FF0FF3035
:100A900000F08CB882B0EC462DE9005000F056F81A
:100AA000DDF804E002B00CBC704700BF4BB942B99E
:100AB000002908BF002802D04FF0FF31084600F09F
:100AC00075B882B0EC462DE9005000F057F8DDF81B
:100AD00004E002B00CBC704738B500220023044685
:100AE0000D46FFF77FFF28B920462946BDE838406C
:100AF00000F00AB8204605F1004100F005F8404238
:100B000061EB410138BD00BF70B500220D4B0446BA
:100B10000D46FFF7F5FCFFF78DFF0646FFF77AFC61
:100B20000022094BFFF7ECFC02460B462046294603
:100B3000FFF732FBFFF77EFF002242EA0004204667
:100B4000314670BD0000F03D0000F0412DE97043DA
:100B5000069E14461D468046894600F029F804FB8F
:100B600001F300FB0533A4FB00451D44B8EB04046E
:100B700069EB0505C6E90045BDE870832DE97043C2
:100B8000069E1446804689461D4600F05DF900FB2E
:100B900005F504FB0153A0FB04451D44B8EB040418
:100BA00069EB0505C6E90045BDE87083704700BFE5
:100BB00000292DE9F00FC0F29F800024002BC0F225
:100BC0009680154606460F46002B3ED18A4257D9DD
:100BD000B2FA82F34BB1C3F1200201FA03F720FA13
:100BE00002F29D40174300FA03F6290CB7FBF1F21D
:100BF000330C01FB127CA8B243EA0C4700FB02F362
:100C0000BB4209D97F1902F1FF3C80F00181BB4250
:100C100040F2FE80023A2F44FF1AB7FBF1F3B6B25E
:100C200001FB137146EA014100FB03F0884208D939
:100C3000491903F1FF3780F0ED80884240F2EA80E5
:100C4000023B43EA0242002303E08B420AD900231D
:100C50001A461046194614B1404261EB4101BDE805
:100C6000F00F7047B3FA83F8B8F1000F40F08480BA
:100C70008B4202D3824200F2DE8000230122E8E7A9
:100C800012B90123B3FBF2F5B5FA85F2002A39D186
:100C90007F1B280C1FFA85FC0123B7FBF0F1320CF7
:100CA00000FB117742EA07470CFB01F2BA4207D971
:100CB0007F1901F1FF3802D2BA4200F2C1804146E9
:100CC000BF1AB7FBF0F2B6B200FB127046EA004062
:100CD0000CFB02FC844507D9401902F1FF3702D210
:100CE000844500F2AB803A4642EA0142B1E7E44370
:100CF000524263EB430364E7404261EB41014FF032
:100D0000FF345BE79540C2F1200327FA03F1280C7A
:100D100026FA03F39740B1FBF0F81F433B0C00FBAE
:100D200018111FFA85FC43EA01410CFB08F38B42C2
:100D300006FA02F608D9491908F1FF3279D28B4236
:100D400077D9A8F102082944C91AB1FBF0F3BFB260
:100D500000FB131147EA01470CFB03F2BA4207D923
:100D60007F1903F1FF3160D2BA425ED9023B2F44B2
:100D7000BF1A43EA084390E7C8F1200203FA08FCCF
:100D800025FA02F343EA0C0C4FEA1C4921FA02F35C
:100D900001FA08F720FA02F2B3FBF9F1174309FB55
:100DA00011333A0C1FFA8CFB42EA03430BFB01FAA6
:100DB0009A4505FA08F008D913EB0C0301F1FF324C
:100DC00035D29A4533D902396344CAEB0303B3FBE6
:100DD000F9F209FB1233BFB247EA03470BFB02F9F2
:100DE000B94508D917EB0C0702F1FF331BD2B945FF
:100DF00019D9023A674442EA0145A5FB0001C9EB53
:100E000007078F424FF000030AD305D02A4620E798
:100E1000624601E73B4614E706FA08F68642F5D239
:100E20006A1E002315E71A46E5E70B46A0E71146C0
:100E3000CBE7904688E7434642460AE7023A53E743
:100E400002392F443CE700BF2DE9F00F1446054658
:100E50000E46002B43D18A4253D9B2FA82F757B1DA
:100E6000C7F1200620FA06F601FA07F302FA07F4A2
:100E70001E4300FA07F5210CB6FBF1F22B0C01FB27
:100E80001267A0B243EA074600FB02F3B34209D956
:100E9000361902F1FF3780F0F680B34240F2F3805A
:100EA000023A2644F61AB6FBF1F3ADB201FB136128
:100EB00045EA014100FB03F0884208D9091903F112
:100EC000FF3680F0E280884240F2DF80023B43EA56
:100ED0000242002310461946BDE8F00F70478B42CE
:100EE0004AD8B3FA83F6002E4DD18B4202D3824208
:100EF00000F2D6800023012210461946BDE8F00F0B
:100F0000704712B90124B4FBF2F4B4FA84F2002A57
:100F10007CD1091B260CA7B20123B1FBF6F02A0CE9
:100F200006FB101142EA014107FB00F28A4207D991
:100F3000091900F1FF3C02D28A4200F2C3806046E8
:100F4000891AB1FBF6F2ADB206FB121145EA014572
:100F500007FB02F7AF4208D92C1902F1FF3180F0EC
:100F60009680A74240F29380023A42EA004210463D
:100F70001946BDE8F00F704700231A46104619467F
:100F8000BDE8F00F7047C6F1200522FA05F4B34022
:100F90001C434FEA144821FA05F301FA06F720FA38
:100FA00005F5B3FBF8FC2F4308FB1C333D0C1FFA7F
:100FB00084FA45EA03430AFB0CF9994502FA06FB59
:100FC00004D91B190CF1FF326DD39446C9EB03030E
:100FD000B3FBF8F508FB1533BFB247EA03470AFB3A
:100FE00005F8B84504D93F1905F1FF3361D31D4613
:100FF00045EA0C4CACFB0B23C8EB07079F424FF0B4
:10100000000549D345D062462B4663E79440C2F1C0
:10101000200321FA03FC260C20FA03F301FA02F55F
:10102000BCFBF6F843EA05010B0C06FB18CCA7B293
:1010300043EA0C4C07FB08F3634500FA02F509D9B3
:101040001CEB040C08F1FF323AD2634538D9A8F101
:101050000208A444C3EB0C0CBCFBF6F389B206FBFC
:1010600013CC41EA0C4107FB03F28A4207D9091964
:1010700003F1FF3022D28A4220D9023B2144891A4F
:1010800043EA084349E73A460CE733461FE70A4676
:101090006BE7B0409042B6D20CF1FF32002319E763
:1010A0003346324616E799458FD9ACF1020C2344FA
:1010B0008CE7B8459BD9023D274499E70346DEE714
:1010C0009046C7E7023821443AE700BF80B582B0B6
:1010D00000AF78607B681B681B6834331B687A68D4
:1010E000126810464FF4165198477B681B681B68BE
:1010F00038331B687A681268104603210222984729
:101100000837BD4680BD00BF80B584B000AF7860B1
:101110007B681B681B6838331B687A681268104646
:1011200000214FF41652984700BF7B681B681B686C
:1011300048331B687A681268104698470346B3F133
:10114000FF3F0CBF00230123DBB2002BEDD17B68F6
:101150001B681B684C331B687A68126810466FF076
:101160000F0198477B681B6818464FF0FF326FF0FD
:10117000004303F00BFC7B681B681B6848331B684B
:101180007A681268104698470346FB73FB7BF02B86
:1011900001D0012300E0002318461037BD4680BD72
:1011A00080B584B000AF78607B681B681B683833FB
:1011B0001B687A681268104600214FF4E1329847A4
:1011C00000BF7B681B681B6848331B687A6812681D
:1011D000104698470346B3F1FF3F0CBF002301239D
:1011E000DBB2002BEDD17B681B681B684C331B689E
:1011F0007A68126810464FF0FF3198477B681B6889
:1012000018464FF0FF326FF0004303F0BFFB7B68DE
:101210001B681B6848331B687A6812681046984739
:101220000346FB73FB7BFF2B01D1012300E000236E
:1012300018461037BD4680BD80B582B000AF7860DB
:101240000B46FB707B681B681B6838331B687A6829
:101250001268104600214FF4E132984700BF7B68C6
:101260001B681B6848331B687A68126810469847E9
:101270000346B3F1FF3F0CBF00230123DBB2002B79
:10128000EDD1FB78002B0AD17B681B681B684C33BF
:101290001B687A6812681046002198470AE07B684C
:1012A0001B681B684C331B687A68126810464FF045
:1012B000FF3198477B681B6818464FF0FF326FF08C
:1012C000004303F063FB7B681B681B6848331B68A3
:1012D0007A681268104698470837BD4680BD00BF3F
:1012E00080B584B000AF78600023BB730123FB732B
:1012F00011E07868FFF754FF0346002B0CBF002372
:101300000123DBB2002B03D0BA7BFB7B1343BB73FF
:10131000FB7B5B00FB73FB7B002BEAD1BB7B18469E
:101320001037BD4680BD00BF80B584B000AF786087
:101330000B46FB700123FB730FE0FA7BFB78134035
:10134000DBB2002B01D0012300E0002378681946AE
:10135000FFF772FFFB7B5B00FB73FB7B002BECD189
:101360001037BD4680BD00BF90B587B000AFF860B4
:10137000B9607A6000237B610AE07B69BA68D4189F
:10138000F868FFF7ADFF034623707B6901337B618B
:101390007A697B689A42F0DB1C37BD4690BD00BF7E
:1013A00080B586B000AFF860B9607A6000237B61D9
:1013B0000AE07B69BA6813441B78F8681946FFF79E
:1013C000B3FF7B6901337B617A697B689A42F0DB0A
:1013D0001837BD4680BD00BF80B487B000AFF8604D
:1013E000B9607A60BB687B610023FB7422E07B6993
:1013F0005A1C7A611B78BB7408237B7417E0FA7C53
:10140000BB7C5340DBB203F001033B74FB7C5B10FD
:10141000FB743B7C002B04D0FB7C83F07303DB4329
:10142000FB74BB7C5B10BB747B7C013B7B747B7C63
:10143000002BE4D17B685A1E7A60002B0CBF00237E
:101440000123DBB2002BD2D1FB7C18461C37BD46F2
:101450005DF8047B704700BF80B483B000AF786054
:101460007B6819221A707B6800225A707B68002200
:101470009A707B6818460C37BD465DF8047B704750
:1014800080B582B000AF786039607B68012B07D1EE
:101490003A684FF6FF739A4202D10348FFF7DCFF28
:1014A0000837BD4680BD00BF9000002080B500AF6A
:1014B00001204FF6FF71FFF7E3FF80BD80B582B0DA
:1014C00000AF78607B681846064964224FF4FA63DF
:1014D0000BF0FCF87B68044A1A607B6818460837F2
:1014E000BD4680BD5CDA0008D8E3000880B483B054
:1014F00000AF78600C37BD465DF8047B704700BFD5
:1015000080B59AB002AF78607B68012283F85120E1
:101510007B68032283F850207B6850333E4819468D
:10152000012200F089F87B6851333C4819460122BA
:1015300000F096F8796836A3D3E90023CDE90023BB
:1015400008464FF000024FF0000303F08DFD7B686A
:1015500050333348194600F097F807F10803314833
:10156000194600F0B1F8BB891AB23B8B1BB2134489
:101570001846FEF75FFF02460B46104619464FF02D
:101580000002294BFEF7BCFF02460B4610461946E7
:101590004FF000024FF08043FFF7DCF802460B46A5
:1015A000C7E91623D7E916014FF000021F4BFFF7DA
:1015B00019FA0346002B08D01D48012100F082F9DA
:1015C0001B48002100F08EF91AE0D7E916014FF010
:1015D0000002184BFFF724FA0346002B08D01448EA
:1015E000002100F06FF91248012100F07BF907E0BB
:1015F0000F48002100F066F90D48002100F072F953
:101600007B68184603F046FDA1E700BFAFF30080FA
:1016100000E1F50500000000E0090020600A00205C
:10162000080A00201806002000407F3F00003EC04E
:101630004401002000003E4080B584B000AFF86057
:10164000B9601346FB71FA68FB791046B9681A460F
:10165000002303F003FF034618461037BD4680BD44
:1016600080B584B000AFF860B9601346FB71FA68CA
:10167000FB791046B9681A46002303F0EFFE0346D3
:1016800018461037BD4680BD80B485B000AF786085
:1016900039607B6801221A757B68DB68FB60FB6838
:1016A0001A783B681A707B6800221A757B68D3E948
:1016B0000823013243F100037968C1E90823143794
:1016C000BD465DF8047B704780B584B000AF78609C
:1016D00039607B68012283F800217B68D3F8F830F9
:1016E000FB603A68FB6811461A46502308461146CB
:1016F0001A4603F0CFFB7B68002283F800217B6849
:1017000003F58873D3E90023013243F100037968BC
:1017100001F58871C1E900231037BD4680BD00BFC7
:1017200080B582B000AF78607B68084A1A607B6839
:1017300018460BF039F80023002B02D0786803F02C
:10174000D3FB7B6818460837BD4680BDD8E3000848
:1017500080B582B000AF78607868FFF7E1FF786805
:1017600003F0C2FB7B6818460837BD4680BD00BF4A
:1017700080B582B000AF786039607B68012B0CD1F6
:101780003A684FF6FF739A4207D10548FFF796FE75
:1017900003480449044A0CF05BF90837BD4680BD94
:1017A0009800002021170008BC0C002080B500AF75
:1017B00001204FF6FF71FFF7DBFF80BD80B483B0DF
:1017C00000AF78600C37BD465DF8047B704700BF02
:1017D00080B582B000AF786039607B68043318460A
:1017E00006493A68002303F057F97B68044A1A60F7
:1017F0007B6818460837BD4680BD00BF740B0020CB
:1018000008E4000880B582B000AF78607B68094AC0
:101810001A607B680433184603F086F90023002B16
:1018200002D0786803F060FB7B6818460837BD4635
:1018300080BD00BF08E4000880B582B000AF7860CA
:101840007868FFF7DFFF786803F04EFB7B68184687
:101850000837BD4680BD00BF80B582B000AF78605C
:101860007B6818460549FFF7B3FF7B68044A1A6096
:101870007B6818460837BD4680BD00BF6CDA00089B
:10188000F0E3000880B582B000AF78600A4801211B
:101890000122002304F0ACFD0848012101220023AD
:1018A00004F0A6FD064801210122002304F0A0FD5A
:1018B0000837BD4680BD00BFF00000200C010020AD
:1018C0002801002080B582B000AF78600B46FB7025
:1018D000FB780348194604F091FE0837BD4680BDE9
:1018E000F000002080B582B000AF78600B46FB703E
:1018F000FB780348194604F081FE0837BD4680BDD9
:101900000C01002080B582B000AF78607B68084A87
:101910001A607B681846FFF775FF0023002B02D082
:10192000786803F0E1FA7B6818460837BD4680BD49
:10193000F0E3000880B582B000AF78607868FFF708
:10194000E1FF786803F0D0FA7B6818460837BD4697
:1019500080BD00BF80B582B000AF786039607B6821
:10196000012B18D13A684FF6FF739A4213D10B48F6
:10197000072104F009FD0A48062104F005FD094885
:10198000252104F001FD0848FFF766FF06480749D6
:10199000074A0CF05DF80837BD4680BDF000002016
:1019A0000C01002028010020440100200519000836
:1019B000BC0C002080B500AF01204FF6FF71FFF78F
:1019C000C9FF80BD80B582B000AF78607B681846E3
:1019D000064964224FF4FA630AF078FE7B68044AF1
:1019E0001A607B6818460837BD4680BD78DA000863
:1019F00020E4000880B582B000AF7860044801217F
:101A00000122002304F0F4FC0837BD4680BD00BF6E
:101A10005801002080B483B000AF786000BF0C375D
:101A2000BD465DF8047B704780B582B000AF78603A
:101A30007B68084A1A607B6818460AF0B5FE0023E6
:101A4000002B02D0786803F04FFA7B6818460837FD
:101A5000BD4680BD20E4000880B582B000AF78604C
:101A60007868FFF7E1FF786803F03EFA7B68184674
:101A70000837BD4680BD00BF80B582B000AF78603A
:101A800039607B68012B10D13A684FF6FF739A4298
:101A90000BD10748212104F077FC0648FFF792FF9D
:101AA00004480549054A0BF0D3FF0837BD4680BD01
:101AB0005801002078010020291A0008BC0C0020E1
:101AC00080B500AF01204FF6FF71FFF7D5FF80BD55
:101AD00080B483B000AF786039607B683A681A6080
:101AE0007B6818460C37BD465DF8047B704700BF25
:101AF00080B582B000AF78607B6818460549FFF773
:101B000067FE7B68044A1A607B6818460837BD4642
:101B100080BD00BF88DA000838E4000880B582B0D4
:101B200000AF78600C480D49002206F097F80A488B
:101B30000121002206F004FB09480A4904F08CFF49
:101B400009484FF4E13107F037F80848FFF7BEFACB
:101B50000837BD4680BD00BFC801002040420F00CD
:101B6000E4010020A08601000002002038020020CD
:101B700080B582B000AF78607B68084A1A607B68E5
:101B80001846FFF73FFE0023002B02D0786803F0D1
:101B9000ABF97B6818460837BD4680BD38E40008BD
:101BA00080B582B000AF78607868FFF7E1FF7868B1
:101BB00003F09AF97B6818460837BD4680BD00BF20
:101BC00080B584B002AF786039607B68012B32D178
:101BD0003A684FF6FF739A422DD11F23009317489E
:101BE00002211D221E2305F0F9FF154801211622AE
:101BF000172304F0EBFE0C2300930B2301931148F1
:101C0000012109220A2306F077FE1E2300933B23BD
:101C100001930D4803212A222B2306F06DFE0B4869
:101C20000949FFF755FF0A48FFF762FF08480949CD
:101C3000094A0BF00DFF0837BD4680BDC8010020E2
:101C4000E4010020000200201C02002038020020D5
:101C50003C020020711B0008BC0C002080B500AFC6
:101C600001204FF6FF71FFF7ABFF80BD80B483B05A
:101C700000AF78600C37BD465DF8047B704700BF4D
:101C800080B582B000AF78607B6818461649642240
:101C90004FF4FA630AF01AFD7B68144A1A607B68F5
:101CA000002283F850207B68002283F851207B6853
:101CB000002283F852207B68002283F853207B683F
:101CC000002283F854207B6800229A657B680022FA
:101CD00083F85C207B68002283F85D207B681846CF
:101CE0000837BD4680BD00BF94DA000850E4000804
:101CF00080B586B002AF786033480021012200F041
:101D000067F879682EA3D3E90023CDE900230846BC
:101D10004FF000024FF0000303F0A6F97B689A6DC4
:101D20007B6893F85030002B01D0012300E00023A2
:101D30001A447B689A657B689A6D7B6893F851308A
:101D4000002B01D0012300E000231A447B689A6530
:101D50007B689A6D7B6893F85230002B01D0012389
:101D600000E000231A447B689A657B689A6D7B6863
:101D700093F85330002B01D0012300E000231A44D4
:101D80007B689A657B689B6D052B12D9002343F015
:101D90001903FB72FB6803F07F43FB6005233B8163
:101DA0000123BB7207F1080308481946012200F01D
:101DB00029F87B68184603F06DF9AFE7AFF30080B0
:101DC0000065CD1D00000000E00A0020B8080020DA
:101DD00080B584B000AF786013460A467A807B7085
:101DE0007B88FB81796807F10E027B7808461146F3
:101DF0001A46002303F032FB034618461037BD464F
:101E000080BD00BF80B584B000AFF860B9601346F4
:101E1000FB71FA68FB791046B9681A46002303F093
:101E20001DFB034618461037BD4680BD80B582B005
:101E300000AF78607B68084A1A607B6818460AF031
:101E4000B3FC0023002B02D0786803F04DF87B68C8
:101E500018460837BD4680BD50E4000880B582B002
:101E600000AF78607868FFF7E1FF786803F03CF82E
:101E70007B6818460837BD4680BD00BF80B582B07C
:101E800000AF786039607B68012B0CD13A684FF65F
:101E9000FF739A4207D10548FFF7F2FE0348044951
:101EA000044A0BF0D5FD0837BD4680BD5002002026
:101EB0002D1E0008BC0C002080B500AF01204FF69D
:101EC000FF71FFF7DBFF80BD80B483B000AF7860A7
:101ED0000B46FB7097F903307A68C3F1200362FA6E
:101EE00003F318460C37BD465DF8047B704700BF0E
:101EF00080B483B000AF78607B681B0C7A68534075
:101F00007B607B680C4A02FB03F37B607B685B0BA6
:101F10007A6853407B607B68084A02FB03F37B606E
:101F20007B681B0C7A6853407B607B6818460C37D3
:101F3000BD465DF8047B70476BCAEB8535AEB2C217
:101F400080B58EB000AFF860B9607A60BB68002BD6
:101F500000DA03339B10BB627B683B633D4B7B62C3
:101F60003D4B3B62BB6A9B00FA681344FB61BB6A52
:101F70005B427B6327E07B6B9B00FA6913441B6821
:101F8000BB61BB697A6A02FB03F3BB61B8690F21CD
:101F9000FFF79AFFB861BB693A6A02FB03F3BB61C2
:101FA0003A6BBB6953403B63386B0D21FFF78CFFE5
:101FB00038633A6B13469B001A44284B13443B6327
:101FC0007B6B01337B637B6B002BD4D1BB6A9B00A3
:101FD000FA6813447B610023FB62BB6803F00303D0
:101FE000022B0BD0032B02D0012B0ED025E07B69F6
:101FF00002331B781B04FA6A5340FB627B6901338E
:102000001B781B02FA6A5340FB627B691B78FA6AF1
:102010005340FB62FB6A7A6A02FB03F3FB62F86AD5
:102020000F21FFF751FFF862FB6A3A6A02FB03F3E4
:10203000FB623A6BFB6A53403B63BB683A6B5340AD
:102040003B63386BFFF754FF38633B6B18463837F8
:10205000BD4680BD512D9ECC9335871B646B54E6E5
:1020600080B582B000AF78607B681846064964226C
:102070004FF4FA630AF02AFB7B68044A1A607B6813
:1020800018460837BD4680BDA4DA000868E4000899
:1020900080B58AB002AF78600B46FB70FB78012BED
:1020A00005D0FB78022B02D04FF0FF334CE0284ADA
:1020B00007F1140312881A80264A07F110031288C8
:1020C0001A80FB782448194600F042FE07F11403F9
:1020D00022481946022206F0C3F80346B3F1FF3F37
:1020E00014BF00230123DBB2002B05D01A4800F0F7
:1020F0007DFE4FF0FF3327E0194A07F10C031288E9
:102100001A804FF0FF33FB610023BB6115E007F13C
:10211000100207F10C03022100911048114602221F
:1021200006F0C8F97B7BDBB25BB2002B02DB00233D
:10213000FB6105E0BB690133BB61BB69632BE6DD75
:10214000054800F053FEFB6918462037BD4680BDA8
:10215000B4DA0008B8DA0008AC040020C801002096
:10216000BCDA000880B584B000AF7860F970BA704E
:102170007B70FB78012B05D0FB78022B02D04FF04F
:10218000FF3321E0BB783B727B787B72FB78104891
:10219000194600F0DDFD0023FB6007F108030D4840
:1021A0001946022206F05CF80346B3F1FF3F14BF64
:1021B00000230123DBB2002B02D04FF0FF33FB6082
:1021C000034800F013FEFB6818461037BD4680BD7B
:1021D000AC040020C801002080B582B000AF786058
:1021E0000B46FB70FB7878681946FFF751FF0346F2
:1021F000B3F1FF3F14BF00230123DBB2002B02D059
:102200004FF0FF336DE003F04DF8384A4FF0000314
:10221000121843EB01031046194600220AF0A6FBF0
:10222000FB78786819466B220023FFF79BFF034673
:10223000B3F1FF3F14BF00230123DBB2002B02D018
:102240004FF0FF334DE003F02DF8284A4FF0000324
:10225000121843EB01031046194600220AF086FBD0
:10226000FB78786819461B220023FFF77BFF0346A3
:10227000B3F1FF3F14BF00230123DBB2002B02D0D8
:102280004FF0FF332DE003F00DF8184A4FF0000334
:10229000121843EB01031046194600220AF066FBB0
:1022A000FB78786819461C221823FFF75BFF03466A
:1022B000B3F1FF3F14BF00230123DBB2002B02D098
:1022C0004FF0FF330DE002F0EDFF084A4FF000033E
:1022D000121843EB01031046194600220AF046FB90
:1022E000002318460837BD4680BD00BF40420F009E
:1022F00080B586B000AFF8600B467A60FB72FB7A5F
:10230000012B05D0FB7A022B02D04FF0FF336DE09A
:10231000FB7A3848194600F01BFDBB23FB7507F11B
:10232000170335481946012205F09AFF32487968AB
:102330000E2206F02BF80346B3F1FF3F14BF002333
:102340000123DBB2002B05D02A4800F04FFD4FF0EF
:10235000FF334BE0274800F049FD7B68B3F90830B4
:102360009BB21BB2184602F0B9F903461A467B68C5
:102370001A817B68B3F90A309BB21BB2184602F08F
:10238000ADF903461A467B685A817B68B3F90C3075
:102390009BB21BB2184602F0A1F903461A467B68AD
:1023A0009A817B68B3F900309BB21BB2184602F0E9
:1023B00095F903461A467B681A807B68B3F90230A8
:1023C0009BB21BB2184602F089F903461A467B6895
:1023D0005A807B68B3F904309BB21BB2184602F0F6
:1023E0007DF903461A467B689A8000231846183701
:1023F000BD4680BDAC040020C801002080B598B067
:1024000000AF78604FF000024FF00003C7E91623D9
:102410004FF000024FF00003C7E914234FF0000211
:102420004FF00003C7E912234FF000024FF0000302
:10243000C7E910234FF000024FF00003C7E90E2355
:102440004FF000024FF00003C7E90C230023FB62AA
:1024500077E007F11C03786801211A46FFF748FF6F
:1024600007F10C03786802211A46FFF741FFBB8C85
:102470001BB21846FDF7DEFF02460B46D7E91601F0
:10248000FDF78CFE02460B46C7E91623FB8C1BB2F8
:102490001846FDF7CFFF02460B46D7E91401FDF7BA
:1024A0007DFE02460B46C7E914233B8D1BB218463E
:1024B000FDF7C0FF02460B46D7E91201FDF76EFE9D
:1024C00002460B46C7E91223BB8A1BB21846FDF72A
:1024D000B1FF02460B46D7E91001FDF75FFE024649
:1024E0000B46C7E91023FB8A1BB21846FDF7A2FF73
:1024F00002460B46D7E90E01FDF750FE02460B4699
:10250000C7E90E233B8B1BB21846FDF793FF02462B
:102510000B46D7E90C01FDF741FE02460B46C7E921
:102520000C2302F0BFFE2F4A4FF00003121843EBBA
:1025300001031046194600220AF018FAFB6A01331B
:10254000FB62FB6AB3F57A7F83DBD7E916014FF0B4
:102550000002254BFEF7FEF802460B462349C1E96F
:102560000023D7E914014FF000021F4BFEF7F2F8E9
:1025700002460B461E49C1E90023D7E912014FF07C
:102580000002194BFEF7E6F802460B461949C1E96D
:102590000023D7E910014FF00002134BFEF7DAF8E1
:1025A00002460B461449C1E90023D7E90E014FF05A
:1025B00000020D4BFEF7CEF802460B460F49C1E96B
:1025C0000023D7E90C014FF00002074BFEF7C2F8D9
:1025D00002460B460A49C1E9002318466037BD464A
:1025E00080BD00BF40420F0000408F40000000202F
:1025F000080000201000002018000020200000200B
:102600002800002080B58CB002AF78607868012186
:10261000FFF7E2FD78680221FFF7DEFD7868FFF73B
:10262000EDFE79682C4A4FF00003CDE900230846FF
:102630004FF000024FF0000302F016FD07F11803FF
:10264000786801211A46FFF753FE07F108037868FE
:1026500002211A46FFF74CFE7B6803F5A07207F1D2
:102660001803083310461946062202F013FC7B6853
:1026700003F5A67207F1080308331046194606222F
:1026800002F008FC7B6803F5A37207F118031046FB
:102690001946062202F0FEFB7B6803F5A97207F1DA
:1026A000080310461946062202F0F4FB02F0FAFD78
:1026B00002460B46796801F5C471C1E900237B68C5
:1026C00003F5A07305481946012200F009F87B685C
:1026D000184602F0DFFCB1E780969800F005002074
:1026E00080B584B000AFF860B9601346FB71FA683A
:1026F000FB791046B9681A46002302F0AFFE034684
:1027000018461037BD4680BD80B582B000AF7860F6
:102710007B68084A1A607B6818460AF045F800236F
:10272000002B02D0786802F0DFFB7B681846083780
:10273000BD4680BD68E4000880B582B000AF786017
:102740007868FFF7E1FF786802F0CEFB7B681846F7
:102750000837BD4680BD00BF80B582B000AF78604D
:1027600039607B68012B0CD13A684FF6FF739A42AF
:1027700007D10548FFF774FC03480449044A0BF0ED
:1027800067F90837BD4680BDB00200200927000860
:10279000BC0C002080B500AF01204FF6FF71FFF7A1
:1027A000DBFF80BD80B582B000AF78607B681846E3
:1027B000064964224FF4FA6309F088FF7B68044AF3
:1027C0001A607B6818460837BD4680BDC0DA00082D
:1027D00080E400080000000080B582B000AF78609F
:1027E000154804F0C5F902F05DFD02460B4610469F
:1027F0001946FDF757FE02460B46104619460CA334
:10280000D3E90023FDF7CAFC02460B4610461946E1
:10281000FEF762F902460B461046194600220AF0FE
:10282000A5F80548054904F017F90837BD4680BDED
:102830000000000080841E41E4010020A086010009
:1028400080B586B000AF7860396055233B7207F1E0
:102850000803013318463968082202F01BFB4E2397
:102860007B745523BB74C923FB741F233B75064837
:10287000FEF74AFC07F10803034819460D22FEF74C
:102880008FFD1837BD4680BD3802002080B584B06A
:1028900000AF7860CC233B7344237B730648FEF77C
:1028A00033FC07F10C03044819460222FEF778FDB9
:1028B0001037BD4680BD00BF3802002080B58AB009
:1028C00000AF7860396055233B7607F11803013378
:1028D00018463968082202F0DDFABE2387F8213055
:1028E00000237B6225E01948FEF70EFC07F1180370
:1028F000164819460A22FEF753FD07F10C03134848
:1029000019460922FEF730FD07F10C030F4819465E
:102910000822FEF761FD03461A467B7D9A4214BFEA
:1029200000230123DBB2002B00D005E07B6A0133DA
:102930007B627B6A022BD6DD07F10C031B887B844C
:102940007B8C1BB218462837BD4680BD380200205C
:1029500080B584B000AF7860396021484821214AB1
:10296000012304F0C9F9F860FB68DB0FDBB2002B30
:1029700004D07868FFF730FFFB682DE01848482145
:102980003A68022304F0ECF9F860FB68DB0FDBB275
:10299000002B04D07868FFF71FFFFB681CE03B6842
:1029A0001B889BB21BB2184601F098FE03469AB2F0
:1029B0003B681A800A4848210B4A032304F09CF91B
:1029C000F860FB68DB0FDBB2002B04D07868FFF700
:1029D00003FFFB6800E0FB6818461037BD4680BD6A
:1029E000E4010020A80400203400002080B584B059
:1029F00000AF7860396021484821214A012304F062
:102A00007BF9F860FB68DB0FDBB2002B04D0786841
:102A1000FFF7E2FEFB682DE0184848213A680223E0
:102A200004F09EF9F860FB68DB0FDBB2002B04D0EA
:102A30007868FFF7D1FEFB681CE03B681B889BB2FF
:102A40001BB2184601F04AFE03469AB23B681A8050
:102A50000A4848210B4A032304F04EF9F860FB684A
:102A6000DB0FDBB2002B04D07868FFF7B5FEFB6804
:102A700000E0012318461037BD4680BDE401002068
:102A8000A80400203000002080B584B000AF78603A
:102A90000A4848210A4A032304F02EF9F860FB682B
:102AA000DB0FDBB2002B04D07868FFF795FE002324
:102AB00000E0FB6818461037BD4680BDE4010020E9
:102AC000300000200000000080B588B002AF7860C0
:102AD00000233B6106E04A48796901F05FFE3B69EB
:102AE00001333B613B69092B08DC7868FFF7CCFFB9
:102AF00078617B69002B01DA012300E00023002BC1
:102B0000E9D178683F49FFF79BFE79683AA3D3E99A
:102B10000023CDE9002308464FF000024FF00003E8
:102B200002F0A2FA0023FB730023BB60FB7B83F05F
:102B30000103DBB2002B10D07B6850337868194654
:102B4000FFF706FF78617B69DB0FDBB2002B22D039
:102B50002D48796901F022FE1DE07B6852337868C8
:102B60001946FFF743FF78617B69DB0FDBB2002B6F
:102B700003D02648796901F011FE02F093FB02466A
:102B80000B467968C1E918237B6850332048194601
:102B9000012200F041F8BB68002B03D17868FFF7F1
:102BA00075FE16E078681749FFF788FE03461A4657
:102BB0007B68A3F8562002F075FB02460B46796845
:102BC000C1E918237B68503311481946012200F0EF
:102BD00023F8FB7B83F00103FB73BB680133BB600D
:102BE000BB68012B01DCBB6800E00023BB607B6895
:102BF000184602F04FFA99E700E1F50500000000E1
:102C0000D0DA000890E40008E8DA00080CDB0008DD
:102C100060070020AFF3008080B584B000AFF8609B
:102C2000B9601346FB71FA68FB791046B9681A4619
:102C3000002302F013FC034618461037BD4680BD42
:102C400080B582B000AF78607B68084A1A607B6804
:102C5000184609F0A9FD0023002B02D0786802F085
:102C600043F97B6818460837BD4680BD80E40008FC
:102C700080B582B000AF78607868FFF7E1FF7868D0
:102C800002F032F97B6818460837BD4680BD00BFA8
:102C900080B582B000AF786039607B68012B0CD1C1
:102CA0003A684FF6FF739A4207D10548FFF77AFD5D
:102CB00003480449044A0AF0CBFE0837BD4680BDEC
:102CC00040040020412C0008BC0C002080B500AF5F
:102CD00001204FF6FF71FFF7DBFF80BD80B582B0AA
:102CE00000AF78607B6818460649FEF771FD7B6887
:102CF000054A1A607B6800221A757B6818460837F7
:102D0000BD4680BD30DB0008A0E6000880B582B07B
:102D100000AF78600B4801210122012303F068FB1A
:102D2000094801210122012303F062FB0748012128
:102D30000122012303F05CFB7B6800221A7508372F
:102D4000BD4680BDC4040020E0040020FC04002037
:102D500080B582B000AF78600B46FB701F4809F069
:102D600009FC7B681B7D002B02D04FF0FF3331E064
:102D70007B68FA781A75FB78022B10D0032B1BD0D6
:102D8000012B26D11648012103F038FC15480121FA
:102D900003F034FC1448002103F030FC19E0124821
:102DA000012103F02BFC0F48012103F027FC0C4804
:102DB000002103F023FC0CE00B48012103F01EFC72
:102DC0000748012103F01AFC0648002103F016FC15
:102DD00000BF002318460837BD4680BD18050020F7
:102DE000E0040020FC040020C404002080B582B070
:102DF00000AF78600C48012103F000FC0B48012172
:102E000003F0FCFB0A48012103F0F8FB09480A49DA
:102E1000012205F025FA7B6800221A75074809F09F
:102E200007FC0837BD4680BDC4040020E004002034
:102E3000FC040020C801002098E4000818050020C8
:102E400080B582B000AF78607B68084A1A607B6802
:102E50001846FEF7D7FC0023002B02D0786802F05A
:102E600043F87B6818460837BD4680BDA0E60008D9
:102E700080B582B000AF78607868FFF7E1FF7868CE
:102E800002F032F87B6818460837BD4680BD00BFA7
:102E900080B582B000AF786039607B68012B1BD1B0
:102EA0003A684FF6FF739A4216D10D48FFF716FFA6
:102EB0000B480C490C4A0AF0CBFD0C48262103F0C4
:102EC00063FA0B48272103F05FFA0A481C2103F03C
:102ED0005BFA094809F036FB0837BD4680BD00BFE4
:102EE000AC040020412E0008BC0C0020C4040020CB
:102EF000E0040020FC0400201805002080B500AF8D
:102F000001204FF6FF71FFF7C3FF80BD80B582B08F
:102F100000AF78607B681846064964224FF4FA6374
:102F200009F0D4FB7B68044A1A607B6818460837AE
:102F3000BD4680BD3CDB0008B8E60008000000008C
:102F400080B59AB002AF78600023FB65796827A34B
:102F5000D3E90023CDE9002308464FF000024FF0EB
:102F6000000302F081F8FB6D002B10DC07F1400339
:102F70007868194600F084F807F140031A481946AA
:102F80001A2206F0A3F8FB6D0133FB6525E0FB6D0B
:102F9000012B10D107F10C037868194600F02CF8CA
:102FA00007F10C0310481946222206F08FF8FB6D3A
:102FB0000133FB6511E0FB6D012B0EDD07F13003E2
:102FC0007868194600F0A0F807F130030648194662
:102FD000122206F07BF80023FB657B68184602F09E
:102FE00059F8C0E7AFF3008000020020AA21EF09E2
:102FF00000000000AFF3008090B583B000AF7860B0
:1030000039607B6850331C481946FEF75DFB3B680E
:10301000A8221A703B68591C7B68D3E92623D3B2D7
:103020000B703B68023300221A703B6803330022A6
:103030001A703B680433114A12881A803B689A1D43
:103040007B68503310461946182201F023FF3B6875
:1030500003F11E04786839681E2200F0CBF803469D
:103060002360064B1B8801339AB2044B1A8022233B
:1030700018460C37BD4690BD18060020E805002014
:1030800090B583B000AF786039607B68A0331C488E
:10309000194600F0C1F83B68A4221A703B68591C1D
:1030A0007B68D3E92C23D3B20B703B680233002238
:1030B0001A703B68033300221A703B680433114ACC
:1030C00012881A803B689A1D7B68A0331046194607
:1030D000102201F0DFFE3B6803F1160478683968BE
:1030E000162200F087F803462360064B1B88013345
:1030F0009AB2044B1A801A2318460C37BD4690BD6D
:1031000088070020EA05002090B585B000AF786000
:1031100039607B68B8333248194600F0A9F87B68FB
:10312000BD3330481946FEF7AFFA7B68BE332E48F0
:10313000194600F0C1F83B68A2221A7002F0B2F8FA
:1031400002460B4610461946284A4FF00003FDF789
:1031500091FC02460B46C7E902233B6801333A7AE9
:103160001A703B68023300221A703B680333002256
:103170001A703B6804331E4A12881A803B68063373
:103180007A6892F8BD20D1B27A6892F8BE20D20156
:10319000D2B20A43D2B21A703B68073300221A80B7
:1031A0003B6803F109027B68B833104619460522D3
:1031B00001F070FE3B6803F10E04786839680E2256
:1031C00000F018F803462360094B1B8801339AB2BC
:1031D000074B1A80102318461437BD4690BD00BF18
:1031E00050080020080A0020880A002040420F00F2
:1031F000EC05002080B584B000AFF860B9607A605B
:10320000B868796841F23732FEF79AFE03461846ED
:103210001037BD4680BD00BFB0B485B000AF786048
:1032200039607B68012283F858207B681B6DFB6046
:103230003B68FA68106851689568D46818605960EE
:103240009D60DC6010695169186159617B680022DA
:1032500083F858207B68D3E91A23013243F1000335
:103260007968C1E91A231437BD46B0BC704700BF66
:1032700080B485B000AF786039607B68012283F844
:1032800020207B689B69FB603B68FA6811681960C5
:1032900012791A717B68002283F820207B68D3E9B9
:1032A0000C23013243F100037968C1E90C23143780
:1032B000BD465DF8047B704780B485B000AF786090
:1032C00039607B6801221A757B68DB68FB60FB68EC
:1032D0001A783B681A707B6800221A757B68D3E9FC
:1032E0000823013243F100037968C1E90823143748
:1032F000BD465DF8047B704780B582B000AF786052
:103300007B68084A1A607B68184609F04DFA00236A
:10331000002B02D0786801F0E7FD7B68184608377B
:10332000BD4680BDB8E6000880B582B000AF7860C9
:103330007868FFF7E1FF786801F0D6FD7B681846F2
:103340000837BD4680BD00BF80B582B000AF786051
:1033500039607B68012B0CD13A684FF6FF739A42B3
:1033600007D10548FFF7D2FD03480449044A0AF093
:103370006FFB0837BD4680BD28050020F9320008E4
:10338000BC0C002080B500AF01204FF6FF71FFF7A5
:10339000DBFF80BD80B582B000AF78607B680A4AF1
:1033A0001A600A4801F040FA7B680433184601F0BD
:1033B000BBFB0023002B02D0786801F095FD7B68F1
:1033C00018460837BD4680BD28E800084CDB0008D9
:1033D00080B582B000AF78607868FFF7DBFF78686F
:1033E00001F082FD7B6818460837BD4680BD00BFEE
:1033F00080B582B000AF78607B680A4A1A600A48DC
:1034000001F012FA7B680433184601F08DFB0023AB
:10341000002B02D0786801F067FD7B6818460837FA
:10342000BD4680BD90E800085CDB000880B582B036
:1034300000AF78607868FFF7DBFF786801F054FD33
:103440007B6818460837BD4680BD00BF80B582B096
:1034500000AF78607B68064A1A600023002B02D018
:10346000786801F041FD7B6818460837BD4680BD8D
:1034700010E8000880B582B000AF78607868FFF788
:10348000E5FF786801F030FD7B6818460837BD46D7
:1034900080BD00BF80B584B000AFF860B9607A60CD
:1034A0003B60044801F0C0F9002318461037BD46C0
:1034B00080BD00BF70DB000880B584B000AFF8604D
:1034C000B9607A60FB681846B96850227B6801F0E1
:1034D00055FFFB68034A1A60FB6818461037BD4663
:1034E00080BD00BF00E8000880B483B000AF786002
:1034F0007B68044A1A607B6818460C37BD465DF845
:10350000047B704710E8000880B582B000AF786097
:103510007B681846FFF7E8FF7B68174A1A607B68EC
:103520001A1D7B68C3F8F4207B6803F154027B68A2
:10353000C3F8F8207B6803F1A4027B68C3F8FC2081
:103540007B68002283F800217B6803F588714FF0C7
:1035500000024FF00003C1E900237B6803F5887384
:10356000D3E90023796801F58471C1E900237B6800
:1035700018460837BD4680BDE8E7000880B584B02E
:1035800000AFF860B9607A60FB681846B968182225
:103590007B6801F0F3FEFB68034A1A60FB6818467B
:1035A0001037BD4680BD00BFD8E7000880B582B0A7
:1035B00000AF78607B681846FFF796FF7B68134A78
:1035C0001A607B681A1D7B68DA647B6803F11C0251
:1035D0007B681A657B6803F134027B685A657B68F7
:1035E000002283F8582079684FF000024FF0000362
:1035F000C1E91A237B68D3E91A237968C1E9182342
:103600007B6818460837BD4680BD00BFC0E700088C
:1036100080B584B000AFF860B9607A60FB68184686
:10362000B96805227B6801F0A9FEFB68034A1A60AD
:10363000FB6818461037BD4680BD00BFB0E70008E4
:1036400080B582B000AF78607B681846FFF74CFF0A
:103650007B68134A1A607B681A1D7B685A617B6815
:1036600003F109027B689A617B6803F10E027B68B3
:10367000DA617B68002283F8202079684FF000022D
:103680004FF00003C1E90C237B68D3E90C23796870
:10369000C1E90A237B6818460837BD4680BD00BFD4
:1036A00098E7000880B584B000AFF860B9607A6030
:1036B000FB681846B96807227B6801F05FFEFB686B
:1036C000034A1A60FB6818461037BD4680BD00BF2C
:1036D00088E7000880B582B000AF78607B68184644
:1036E000FFF702FF7B68134A1A607B681A1D7B682C
:1036F000DA617B6803F10B027B681A627B6803F175
:1037000012027B685A627B68002283F8282079685D
:103710004FF000024FF00003C1E90E237B68D3E9AC
:103720000E237968C1E90C237B6818460837BD462B
:1037300080BD00BF70E7000880B584B000AFF860BE
:10374000B9607A60FB681846B96806227B6801F0A8
:1037500015FEFB68034A1A60FB6818461037BD4621
:1037600080BD00BF60E7000880B582B000AF786020
:103770007B681846FFF7B8FE7B68134A1A607B68BF
:103780001A1D7B689A617B6803F10A027B68DA6123
:103790007B6803F110027B681A627B68002283F861
:1037A000242079684FF000024FF00003C1E90C2398
:1037B0007B68D3E90C237968C1E90A237B68184642
:1037C0000837BD4680BD00BF48E7000880B584B01B
:1037D00000AFF860B9607A60FB681846B9680122EA
:1037E0007B6801F0CBFDFB68034A1A60FB68184652
:1037F0001037BD4680BD00BF38E7000880B582B0F5
:1038000000AF78607B681846FFF76EFE7B68114A50
:103810001A607B681A1D7B689A607B685A1D7B68FA
:10382000DA607B689A1D7B681A617B6800221A75D2
:1038300079684FF000024FF00003C1E908237B686C
:10384000D3E908237968C1E906237B68184608375D
:10385000BD4680BD20E7000880B584B000AFF860A9
:10386000B9607A60FB681846B96801227B6801F08C
:1038700085FDFB68034A1A60FB6818461037BD4691
:1038800080BD00BF10E7000880B582B000AF78604F
:103890007B681846FFF728FE7B68114A1A607B6830
:1038A0001A1D7B689A607B685A1D7B68DA607B68AA
:1038B0009A1D7B681A617B6800221A7579684FF03F
:1038C00000024FF00003C1E908237B68D3E9082315
:1038D0007968C1E906237B6818460837BD4680BD74
:1038E000F8E6000880B584B000AFF860B9607A608F
:1038F000FB681846B96802227B6801F03FFDFB684F
:10390000034A1A60FB6818461037BD4680BD00BFE9
:10391000E8E6000880B582B000AF78607B681846A2
:10392000FFF7E2FD7B68124A1A607B681A1D7B680C
:10393000DA607B689A1D7B681A617B6803F1080274
:103940007B685A617B6800221A7679684FF0000222
:103950004FF00003C1E90A237B68D3E90A237968A1
:10396000C1E908237B6818460837BD4680BD00BF03
:10397000D0E6000880B582B000AF78607B68084A66
:103980001A607B681846FFF761FD0023002B02D008
:10399000786801F0A9FA7B6818460837BD4680BDF3
:1039A000D0E6000880B582B000AF78607868FFF795
:1039B000E1FF786801F098FA7B6818460837BD4641
:1039C00080BD00BF80B582B000AF78607B68084AD8
:1039D0001A607B681846FFF739FD0023002B02D0E0
:1039E000786801F081FA7B6818460837BD4680BDCB
:1039F000F8E6000880B582B000AF78607868FFF71D
:103A0000E1FF786801F070FA7B6818460837BD4618
:103A100080BD00BF80B582B000AF78607B68084A87
:103A20001A607B681846FFF711FD0023002B02D0B7
:103A3000786801F059FA7B6818460837BD4680BDA2
:103A400020E7000880B582B000AF78607868FFF7A3
:103A5000E1FF786801F048FA7B6818460837BD46F0
:103A600080BD00BF80B582B000AF78607B68084A37
:103A70001A607B681846FFF7E9FC0023002B02D090
:103A8000786801F031FA7B6818460837BD4680BD7A
:103A900048E7000880B582B000AF78607868FFF72B
:103AA000E1FF786801F020FA7B6818460837BD46C8
:103AB00080BD00BF80B582B000AF78607B68084AE7
:103AC0001A607B681846FFF7C1FC0023002B02D068
:103AD000786801F009FA7B6818460837BD4680BD52
:103AE00070E7000880B582B000AF78607868FFF7B3
:103AF000E1FF786801F0F8F97B6818460837BD46A1
:103B000080BD00BF80B582B000AF78607B68084A96
:103B10001A607B681846FFF799FC0023002B02D03F
:103B2000786801F0E1F97B6818460837BD4680BD2A
:103B300098E7000880B582B000AF78607868FFF73A
:103B4000E1FF786801F0D0F97B6818460837BD4678
:103B500080BD00BF80B582B000AF78607B68084A46
:103B60001A607B681846FFF771FC0023002B02D017
:103B7000786801F0B9F97B6818460837BD4680BD02
:103B8000C0E7000880B582B000AF78607868FFF7C2
:103B9000E1FF786801F0A8F97B6818460837BD4650
:103BA00080BD00BF80B582B000AF78607B68084AF6
:103BB0001A607B681846FFF749FC0023002B02D0EF
:103BC000786801F091F97B6818460837BD4680BDDA
:103BD000E8E7000880B582B000AF78607868FFF74A
:103BE000E1FF786801F080F97B6818460837BD4628
:103BF00080BD00BF80B584B002AF786039607B685B
:103C0000012B40F006813A684FF6FF739A4240F06C
:103C1000008181484FF0FF31804AFFF74DFC7E481C
:103C20007F49804A09F014FF7F48FFF76DFC7E480A
:103C30007E497C4A09F00CFF002300937C487649BA
:103C4000794A7C4B01F05AF979487B49754A09F069
:103C5000FFFE7A484FF0FF31794AFFF78FFC774833
:103C60007849704A09F0F4FE7748FFF79FFC7648E0
:103C700076496C4A09F0ECFE0023009374486F49C2
:103C8000714A6C4B01F03AF971486B49654A09F089
:103C9000DFFE70484FF0FF316F4AFFF7B9FC6D4807
:103CA0006E49604A09F0D4FE6D48FFF7C9FC6C48C4
:103CB0006C495C4A09F0CCFE002300936A486549D0
:103CC000674A5C4B01F01AF967485B49554A09F0AD
:103CD000BFFE66484FF0FF31654AFFF7E3FC6348DB
:103CE0006449504A09F0B4FE6348FFF7F3FC6248A8
:103CF00062494C4A09F0ACFE0023009360485B49DE
:103D00005D4A4C4B01F0FAF85D484B49454A09F0D1
:103D10009FFE5C484FF0FF315B4AFFF70DFD5948AD
:103D20005A49404A09F094FE5948FFF71DFD58488A
:103D300058493C4A09F08CFE0023009356485149EB
:103D4000534A3C4B01F0DAF853483B49354A09F0F5
:103D50007FFE52484FF0FF31514AFFF737FD4F4881
:103D60005049304A09F074FE4F48FFF747FD4E486E
:103D70004E492C4A09F06CFE002300934C484749F9
:103D8000494A2C4B01F0BAF849482B49254A09F019
:103D90005FFE48484FF0FF31474AFFF75DFD454859
:103DA0004649204A09F054FE4548FFF76DFD444856
:103DB00044491C4A09F04CFE0023009342483D4907
:103DC0003F4A1C4B01F09AF83F481B49154A09F03D
:103DD0003FFE3E484FF0FF313D4AFFF783FD3B4831
:103DE0003C49104A09F034FE3B48FFF793FD3A483E
:103DF0003A490C4A09F02CFE002300933848334915
:103E0000354A0C4B01F07AF835480B49054A09F060
:103E10001FFE0837BD4680BDF0050020F8DB000816
:103E200009430008BC0C002018060020A53B000830
:103E30003007002004DC0008F13300086007002090
:103E400018DC00087942000888070020553B00086C
:103E5000F8070020280800202CDC0008E9410008B1
:103E600050080020053B000888080020B808002002
:103E70003CDC000859410008E0080020B53A000881
:103E8000200900205009002048DC0008C940000833
:103E900078090020653A0008B0090020E0090020F8
:103EA0005CDC000839400008080A0020153A0008C8
:103EB000300A0020600A00206CDC0008A93F0008DE
:103EC000880A0020C5390008B00A0020E00A002056
:103ED00078DC0008193F0008080B0020753900083D
:103EE000380B002080B584B000AFF860B9607A600C
:103EF0003B607B68022B04D9064800F095FC002348
:103F000004E0F868396800F02DFA012318461037EC
:103F1000BD4680BD88DC000880B582B000AF786007
:103F20007B680A4A1A600A4800F07EFC7B681846E3
:103F3000FFF730FA0023002B02D0786800F0D4FF9E
:103F40007B6818460837BD4680BD00BFE8E600081C
:103F50009CDC000880B582B000AF78607868FFF71D
:103F6000DBFF786800F0C0FF7B6818460837BD4665
:103F700080BD00BF80B584B000AFF860B9607A60E2
:103F80003B607B68012B04D9064800F04DFC002300
:103F900004E0F868396800F017FA01231846103772
:103FA000BD4680BD88DC000880B582B000AF786077
:103FB0007B680A4A1A600A4800F036FC7B6818469B
:103FC000FFF7E8F90023002B02D0786800F08CFF9F
:103FD0007B6818460837BD4680BD00BF10E7000863
:103FE0009CDC000880B582B000AF78607868FFF78D
:103FF000DBFF786800F078FF7B6818460837BD461D
:1040000080BD00BF80B584B000AFF860B9607A6051
:104010003B607B68012B04D9064800F005FC0023B7
:1040200004E0F868396800F001FA012318461037F7
:10403000BD4680BD88DC000880B582B000AF7860E6
:104040007B680A4A1A600A4800F0EEFB7B68184653
:10405000FFF7A0F90023002B02D0786800F044FF9E
:104060007B6818460837BD4680BD00BF38E70008AA
:104070009CDC000880B582B000AF78607868FFF7FC
:10408000DBFF786800F030FF7B6818460837BD46D4
:1040900080BD00BF80B584B000AFF860B9607A60C1
:1040A0003B607B68062B04D9064800F0BDFB00236B
:1040B00004E0F868396800F0EBF90123184610377E
:1040C000BD4680BD88DC000880B582B000AF786056
:1040D0007B680A4A1A600A4800F0A6FB7B6818460B
:1040E000FFF758F90023002B02D0786800F0FCFE9F
:1040F0007B6818460837BD4680BD00BF60E70008F2
:104100009CDC000880B582B000AF78607868FFF76B
:10411000DBFF786800F0E8FE7B6818460837BD468C
:1041200080BD00BF80B584B000AFF860B9607A6030
:104130003B607B68072B04D9064800F075FB002321
:1041400004E0F868396800F0D7F901231846103701
:10415000BD4680BD88DC000880B582B000AF7860C5
:104160007B680A4A1A600A4800F05EFB7B681846C2
:10417000FFF710F90023002B02D0786800F0B4FE9E
:104180007B6818460837BD4680BD00BF88E7000839
:104190009CDC000880B582B000AF78607868FFF7DB
:1041A000DBFF786800F0A0FE7B6818460837BD4644
:1041B00080BD00BF80B584B000AFF860B9607A60A0
:1041C0003B607B68052B04D9064800F02DFB0023DB
:1041D00004E0F868396800F0C5F901231846103783
:1041E000BD4680BD88DC000880B582B000AF786035
:1041F0007B680A4A1A600A4800F016FB7B6818467A
:10420000FFF7C8F80023002B02D0786800F06CFE9E
:104210007B6818460837BD4680BD00BFB0E7000880
:104220009CDC000880B582B000AF78607868FFF74A
:10423000DBFF786800F058FE7B6818460837BD46FB
:1042400080BD00BF80B584B000AFF860B9607A600F
:104250003B607B68182B04D9064800F0E5FA002380
:1042600004E0F868396800F0B1F901231846103706
:10427000BD4680BD88DC000880B582B000AF7860A4
:104280007B680A4A1A600A4800F0CEFA7B68184632
:10429000FFF780F80023002B02D0786800F024FE9E
:1042A0007B6818460837BD4680BD00BFD8E70008C8
:1042B0009CDC000880B582B000AF78607868FFF7BA
:1042C000DBFF786800F010FE7B6818460837BD46B3
:1042D00080BD00BF80B584B000AFF860B9607A607F
:1042E0003B607B68502B04D9064800F09DFA002300
:1042F00004E0F868396800F0A5F901231846103782
:10430000BD4680BD88DC000880B582B000AF786013
:104310007B680A4A1A600A4800F086FA7B681846E9
:10432000FFF738F80023002B02D0786800F0DCFD9E
:104330007B6818460837BD4680BD00BF00E800080E
:104340009CDC000880B582B000AF78607868FFF729
:10435000DBFF786800F0C8FD7B6818460837BD466B
:1043600080BD00BF80B485B000AF786039607B68E5
:10437000DB683A6812881A807B681B69FB607B687F
:10438000DA687B681A617B68FA68DA607B681B7E92
:10439000DBB2002B09D07B68DB68FB607B685A6965
:1043A0007B68DA607B68FA685A617B68D3E9082326
:1043B000013243F100037968C1E908231437BD468F
:1043C0005DF8047B704700BF80B485B000AF7860B3
:1043D00039607B689B683A6812781A707B68DB6882
:1043E000FB607B689A687B68DA607B68FA689A6031
:1043F0007B681B7DDBB2002B09D07B689B68FB6070
:104400007B681A697B689A607B68FA681A617B68C6
:10441000D3E90623013243F100037968C1E9062399
:104420001437BD465DF8047B704700BF80B485B08B
:1044300000AF786039607B689B683A6812781A70C0
:104440007B68DB68FB607B689A687B68DA607B6806
:10445000FA689A607B681B7DDBB2002B09D07B6811
:104460009B68FB607B681A697B689A607B68FA6866
:104470001A617B68D3E90623013243F100037968AE
:10448000C1E906231437BD465DF8047B704700BFC1
:1044900080B485B000AF786039607B689B693A680A
:1044A0001168196092889A807B68DB69FB607B6881
:1044B0009A697B68DA617B68FA689A617B6893F82D
:1044C0002430DBB2002B09D07B689B69FB607B68E2
:1044D0001A6A7B689A617B68FA681A627B68D3E91A
:1044E0000A23013243F100037968C1E90A23143732
:1044F000BD465DF8047B704780B485B000AF78603E
:1045000039607B68DB693A68116819609188927933
:1045100099809A717B681B6AFB607B68DA697B68AB
:104520001A627B68FA68DA617B6893F82830DBB23C
:10453000002B09D07B68DB69FB607B685A6A7B686B
:10454000DA617B68FA685A627B68D3E90C2301322E
:1045500043F100037968C1E90C231437BD465DF8C7
:10456000047B704780B485B000AF786039607B68A9
:104570005B693A681168196012791A717B689B69E6
:10458000FB607B685A697B689A617B68FA685A614C
:104590007B6893F82030DBB2002B09D07B685B6925
:1045A000FB607B68DA697B685A617B68FA68DA616C
:1045B0007B68D3E90A23013243F100037968C1E93A
:1045C0000A231437BD465DF8047B7047B0B485B04C
:1045D00000AF786039607B68DB6C3A6810685168BE
:1045E0009568D468186059609D60DC6010695169F5
:1045F000186159617B681B6DFB607B68DA6C7B68B6
:104600001A657B68FA68DA647B6893F85830DBB225
:10461000002B09D07B68DB6CFB607B685A6D7B6884
:10462000DA647B68FA685A657B68D3E9182301323B
:1046300043F100037968C1E918231437BD46B0BCC3
:10464000704700BF80B584B000AF786039607B6888
:10465000D3F8F4203B6811461A4650230846114609
:104660001A4600F017FC7B68D3F8F830FB607B68D3
:10467000D3F8F4207B68C3F8F8207B68FA68C3F8A5
:10468000F4207B6893F80031DBB2002B0DD07B68FF
:10469000D3F8F430FB607B68D3F8FC207B68C3F868
:1046A000F4207B68FA68C3F8FC207B6803F5847308
:1046B000D3E90023013243F10003796801F58471E5
:1046C000C1E900231037BD4680BD00BF80B500AFF3
:1046D00001204FF6FF71FFF78DFA80BD80B485B0E1
:1046E00000AF0346FB80FB883B8107F10803FB60BA
:1046F000FB681B78FB72FB685A78FB681A70FB68D2
:104700000133FA7A1A703B891BB218461437BD463A
:104710005DF8047B704700BF80B582B000AF786061
:104720007B68064A1A600023002B02D0786800F0EC
:10473000DBFB7B6818460837BD4680BD38E80008BB
:1047400080B582B000AF78607868FFF7E5FF7868E1
:1047500000F0CAFB7B6818460837BD4680BD00BF25
:1047600080B582B000AF78600B46FB7097F90330DC
:10477000184607F05BFC0837BD4680BD80B483B0A7
:1047800000AF78607B68044A1A607B6818460C3773
:10479000BD465DF8047B704738E800080FB480B56B
:1047A00082B000AF1C4B1B68002B2FD03B46184635
:1047B000FFF7E4FF07F114037B60184B1B68002B25
:1047C00005D0164B1B681648194601F0CBFA07F0C6
:1047D00083FE034683F00103DBB2002B05D03B468A
:1047E0001846396901F04CF80AE00E4807F0C2FE9D
:1047F0003B461846396901F043F80A4807F018FFAC
:1048000007F056FC3B461846FFF786FF0837BD46C3
:10481000BDE8804004B070473C0000207C0B0020C5
:10482000B4DC0008800B002080B582B000AF786057
:10483000074B7A681A6007487968FFF7AFFF064BA5
:104840001B685A1C044B1A600837BD4680BD00BF68
:1048500038000020C8DC00087C0B002080B582B046
:1048600000AF786039607B68012B07D13A684FF65A
:10487000FF739A4202D1034807F064FE0837BD4631
:1048800080BD00BF800B002080B500AF01204FF637
:10489000FF71FFF7E3FF80BD0FB480B400AF0023CA
:1048A0001846BD465DF8047B04B0704780B483B001
:1048B00000AF78600C37BD465DF8047B704700BFE1
:1048C0000FB480B400AF00231846BD465DF8047BEA
:1048D00004B070470FB480B400AF00231846BD4643
:1048E0005DF8047B04B0704780B483B000AF78609B
:1048F000002318460C37BD465DF8047B704700BFA7
:1049000080B483B000AF7860002318460C37BD46F2
:104910005DF8047B704700BF0FB480B400AF002384
:104920001846BD465DF8047B04B070470FB480B4F0
:1049300000AF00231846BD465DF8047B04B0704705
:104940000FB480B400AF00231846BD465DF8047B69
:1049500004B0704780B483B000AF78607B680A4AC7
:104960001A607B6800221A617B6800225A607B68AB
:1049700000229A607B680022DA607B6818460C3758
:10498000BD465DF8047B704750E8000880B584B0F0
:1049900000AFF860C7E9002306F06CFFFB681B68F6
:1049A00010331B68F86898470346002B02D006F0C6
:1049B00069FF0EE007F0B2FF0246FB689A60FB68F1
:1049C0009968D7E90023C1E90A2306F05BFF07F0E5
:1049D0002FFF1037BD4680BD80B582B000AF786034
:1049E0007B689B68002B04D07B689B68184607F0A7
:1049F000A1FF7B6800229A607B681B69002B07D0AF
:104A00007B681B691B681B687A68126910469847A7
:104A10000837BD4680BD00BF80B582B000AF78606A
:104A20007B685B68002B04D07B685B68184607F0E6
:104A300081FF7B6800225A607B681B69002B08D0CD
:104A40007B681B691B6804331B687A68126910460F
:104A500098470837BD4680BD80B582B000AF78600A
:104A60007B68DB68002B04D07B68DB68184607F0A6
:104A700061FF7B680022DA607B681B69002B08D02D
:104A80007B681B691B6808331B687A6812691046CB
:104A900098470837BD4680BD80B584B000AFF86048
:104AA000B9607A603B60FB683A68DA60FB687A68F4
:104AB0005A60084B1B68591C064A1160FA689360DB
:104AC000F868B96800F008F8FB6818461037BD466A
:104AD00080BD00BF900B002080B582B000AF786031
:104AE00039603B681A687B681A603B687A681A60AC
:104AF0000A4B1B68002B0CBF00230123DBB2002BE9
:104B000008D00748FFF790FE7B685B6805481946A8
:104B1000FFF744FE0837BD4680BD00BF381F0020A8
:104B2000F4DC000828DD000880B582B000AF7860B2
:104B30000348FFF779FE7B6818460837BD4680BDFD
:104B40004CDD000880B483B000AF78607B681B68E0
:104B500018460C37BD465DF8047B704780B483B0BF
:104B600000AF78607B685B6818460C37BD465DF81F
:104B7000047B704780B588B000AF01233B60FB78B1
:104B80005BB2012B14BF00230123DAB26E4B1A7003
:104B900007F016FA6D4801F0E5F86D4B1B68002B25
:104BA00003D06B4B1B68043B00E00023FB6110E06B
:104BB000FB691B681B68F8699847FB690433184652
:104BC000FFF7C0FF0346002B01D0043B00E00023A9
:104BD000FB61FB69002BEBD15E4B1B68002B03D004
:104BE0005C4B1B68043B00E00023BB6111E0BB6928
:104BF0001B6808331B68B8699847BB6904331846BB
:104C0000FFF7A0FF0346002B01D0043B00E0002388
:104C1000BB61BB69002BEAD14F4801F0A3F84F4BB1
:104C20001B68002B03D04D4B1B68043B00E00023A6
:104C30007B6121E07B6904331846FFF783FF03465D
:104C4000002B01D0043B00E00023BB607B691B7F8D
:104C5000002B06D07B69043318464149FFF73CFF1F
:104C600008E07B691A1D7B695B691433104619469D
:104C7000FFF732FFBB687B617B69002BDAD1394BD0
:104C80001B68002B4DD0384801F06CF8354B1B6881
:104C9000002B03D0334B1B68043B00E000233B6137
:104CA0003CE03B6904331846FFF758FF01463B6977
:104CB000DA693B691B6A2D4801F054F83B695B696E
:104CC000002B03D03B695B69043B00E00023FB60E1
:104CD00015E0FB6804331846FFF740FF03462448FD
:104CE000194601F03FF8FB6804331846FFF72AFF26
:104CF0000346002B01D0043B00E00023FB60FB686F
:104D0000002BE6D13B6904331846FFF71BFF03462F
:104D1000002B01D0043B00E000233B613B69002BEA
:104D2000BFD1144801F01EF800F068FA78607B6883
:104D3000002B03D01048796801F014F807F050FEFA
:104D40002037BD4680BD00BF980B002060DD000805
:104D5000740B0020F01F002090DD0008780B00206D
:104D6000F80B0020940B0020B4DD0008D0DD000813
:104D7000FCDD000808DE00081CDE00082DE9F0411B
:104D800084B002AF78603960264B7A681A60264B8F
:104D90003A681A6006F02EFD24482549254A00F09D
:104DA000E1FF08F0F1F8FFF7E5FE06F0C5FC034669
:104DB0001E4606F0E1FC054606F0E8FC044606F057
:104DC000C7FC804606F0CEFC0346CDF80080019378
:104DD000194831462A46234600F0C4FF08F090F9EE
:104DE000044608F08DF90346144821461A4600F09F
:104DF000B9FF134800F0B6FF00F026F842F2107039
:104E00004FF0000106F0F0FF06F096FF0D4800F0AD
:104E1000A9FF07F0FFFA002318460837BD46BDE892
:104E2000F08100BF9C0B0020A00B002038DE0008A2
:104E300068DE000874DE00088CDE0008F0DE000882
:104E400010DF000848DF000880B500AF014800F01F
:104E500089FF80BD7CDF000880B485B000AF78603A
:104E60000023FB607B68002B01D100230BE005E0F1
:104E7000FB680133FB607B6801337B607B681B78D8
:104E8000002BF5D1FB6818461437BD465DF8047B4E
:104E9000704700BF80B487B000AFF860B9607A6037
:104EA000FB687B61BB683B617B69002B02D03B697F
:104EB000002B01D1002311E00CE03B691A787B69DB
:104EC0001A707B68013B7B603B6901333B617B6906
:104ED00001337B617B68002BEFD1FB6818461C37E0
:104EE000BD465DF8047B704780B483B000AF786046
:104EF0000C37BD465DF8047B704700BF80B584B0B9
:104F000000AFF860B9607A603B60FB680433184614
:104F10001049114A0023FFF7BFFDFB680F4A1A60D2
:104F2000FB68BA685A61FB682033184607F00AFB31
:104F3000FB683A7E1A77FB6801225A77FB683A6869
:104F40009A60FB687A689A61FB6818461037BD461C
:104F500080BD00BF780B0020A8DF000890E80008A3
:104F600080B485B000AFF860B9607A603B60034BF5
:104F700018461437BD465DF8047B704715CD5B07B6
:104F800090B587B002AFF860B9607A603B60FB68AB
:104F90005B7F83F00103DBB2002B01D000233DE0F7
:104FA000FB682033184607F0E5FAFB689B69002B85
:104FB0000FD0FB689B691B6808331C68FB689A6903
:104FC0007B68396A00911046B9681A463B68A04769
:104FD00018E0FB681B681C683B6A5B690093F86813
:104FE000B9687A683B68A04702460E4B9A420CBFEC
:104FF00000230123DBB2002B04D00B48FFF714FC85
:1050000001230BE0FB682033184607F011FBFB6817
:105010009B69002B01D0012300E0002318461437C0
:10502000BD4690BD15CD5B07B4DF000890B58DB0CF
:1050300002AFF860B9607A603B60FB689B69002B47
:105040000FD0FB689B691B6808331C68FB689A6972
:105050003B6807F1100100911046B9681A467B6859
:10506000A0472C37BD4690BD80B485B000AFF86036
:10507000C7E90023F968D7E90023C1E90E23F968DD
:10508000D7E90623C1E910231437BD465DF8047B38
:10509000704700BFB0B586B002AF786006E04FF051
:1050A000FF306FF00041002207F060FC7B68D3E91D
:1050B000102352EA0301F2D07B68D3E90E23104695
:1050C0001946002207F052FC00F0ECF8C7E9020193
:1050D0007B68D3E90E017B68D3E91023D7E9024549
:1050E000CDE9004500F0E8F802460B467968C1E9D1
:1050F0000E231037BD46B0BD80B584B000AF7860D8
:1051000007F00CFCF860F86807F0EEFBB860F86890
:10511000796807F0F5FBBB6818461037BD4680BDBF
:10512000B0B586B002AFC7E900010023FB60324B87
:105130001B68002B03D0304B1B68043B00E00023AE
:10514000BB6051E0BB68D3E90601D7E90023904278
:1051500071EB030C3CDABB68D3E9082352EA030184
:1051600007D1B9684FF0FF326FF00043C1E9062361
:1051700025E0BB68D3E90601BB68D3E90823121810
:1051800043EB0103B968C1E90623BB68D3E9060113
:10519000D7E90023904271EB030C10DABB68D3E926
:1051A0000601BB68D3E90823D7E90045CDE90045EE
:1051B00000F082F802460B46B968C1E90623BB68D5
:1051C0001B6808331B68B8689847FB680133FB60AD
:1051D000BB6804331846FFF7B5FC0346002B01D02B
:1051E000043B00E00023BB60BB68002BAAD1FB6836
:1051F00018461037BD46B0BD700B002080B582B098
:1052000000AF00237B60144B1B68002B03D0124BB4
:105210001B68043B00E000233B6014E03B681B6814
:105220000C331B68386898477B6801337B603B68A8
:1052300004331846FFF786FC0346002B01D0043BDD
:1052400000E000233B603B68002BE7D17B681846F9
:105250000837BD4680BD00BF700B002080B483B00E
:1052600000AF786079684FF000024FF00003C1E9A9
:10527000002379684FF000024FF00003C1E90223D8
:1052800079684FF000024FF00003C1E904237B6806
:1052900011229A617B6818460C37BD465DF8047B85
:1052A000704700BF80B500AF06F026FE02460B46F1
:1052B0001046194680BD00BF80B584B000AFC7E975
:1052C0000201C7E90023D7E90223D7E9060190428A
:1052D00071EB030C02DAD7E902232CE0D7E90023B3
:1052E00052EA030104D14FF0FF326FF0004322E095
:1052F000D7E90601D7E90223821A61EB03031046BE
:105300001946D7E90023FBF7B5FB02460B460132ED
:1053100043F10003396803FB01F0796802FB01F1F6
:1053200001443868A0FB022319440B46D7E9020167
:10533000121843EB0103104619461037BD4680BDD5
:1053400080B582B000AF786039607B68012B07D1EF
:105350003A684FF6FF739A4202D10348FFF77EFF87
:105360000837BD4680BD00BFA80B002080B500AF48
:1053700001204FF6FF71FFF7E3FF80BD80B586B0D7
:1053800000AFF860B9607A603B60FB680433184690
:105390002E493A680023FFF77FFBFB682C4A1A600E
:1053A000FB6800225A61FB68BA68DA61FB687A68B8
:1053B0001A62FB6800229A61FB68DB69B3F1FF3F68
:1053C00011D1386807F054FE03461A46FB68DA61CB
:1053D000FB68DB69B3F57A7F05DAFB68DB6903F507
:1053E0007A72FB68DA61194B1B68002B03D0174BEC
:1053F0001B68043B00E000237B611EE07B69DA69E7
:10540000BB689A420DD17A69FB689A4209D011486B
:10541000FFF70AFA7B699B680F48B9683A68FFF79B
:10542000BDF97B6904331846FFF78CFB0346002B5C
:1054300001D0043B00E000237B617B69002BDDD1C0
:10544000FB6818461837BD4680BD00BF940B00208E
:1054500028E8000814E0000828E0000880B586B0BD
:1054600002AFF860B9603B601346FB71FB681B6AD2
:105470001A46FB7939680091F868B96800F006F8B7
:10548000034618461037BD4680BD00BF90B591B0A9
:1054900002AFF860B9607A60FB7000237B63BB6C7D
:1054A000002B12D100237B62FFF7FCFE02460B4665
:1054B000C7E9062307F024FE03463B6107F02EFAF6
:1054C00003463B6207F11003BB64FB689B69002B3A
:1054D0000FD0FB689B691B681C68FB689969FB68B7
:1054E000DA697B68B86C0090084611461A46BB68BA
:1054F000A047FB685B69002B03D0FB685B69043B3A
:1055000000E000233B6321E03B6B5B7F002B11D06D
:105510003B6B1B6804331C68FB68DA697B68B96CF9
:105520000091386B11461A46BB68A04703467A6B58
:1055300013447B633B6B04331846FFF703FB0346BE
:10554000002B01D0043B00E000233B633B6B002BAE
:10555000DAD1FB7883F00103DBB2002B01D07B6B47
:105560002CE0184B5B69002B03D0164B5B69043BA6
:1055700000E00023FB621DE0FB6A1B6804331C682B
:10558000FB68DA697B68B96C0091F86A11461A46C3
:10559000BB68A04703467A6B13447B63FB6A043302
:1055A0001846FFF7CFFA0346002B01D0043B00E07A
:1055B0000023FB62FB6A002BDED17B6B18463C3775
:1055C000BD4690BDE40B002080B582B000AF78608E
:1055D0007B680A4A1A600A48FFF726F97B68184672
:1055E000FDF7D8FE0023002B02D07868FFF77CFC83
:1055F0007B6818460837BD4680BD00BFD0E800086C
:10560000A0E0000880B582B000AF78607868FFF74E
:10561000DBFF7868FFF768FC7B6818460837BD46F3
:1056200080BD00BF80B584B000AFF860B9607A601B
:10563000FB681846B9680C227B68FFF79FFEFB6881
:10564000034A1A60FB6818461037BD4680BD00BF8C
:10565000D0E8000880B584B000AFF860B9607A6027
:10566000FB681846B96840F22E527B68FFF786FE49
:10567000FB68034A1A60FB6818461037BD4680BDB8
:10568000C0E8000880B584B000AFF860B9607A6007
:10569000FB681846B96804227B68FFF76FFEFB6859
:1056A000034A1A60FB6818461037BD4680BD00BF2C
:1056B000B0E8000880B582B000AF786039607B68E0
:1056C000012B4FD13A684FF6FF739A424AD12748CF
:1056D00027490A2207F0E2FB24482649264A08F017
:1056E000B7F926480021264AFFF79CFF23482549A1
:1056F000214A08F0ADF924484FF0FF31234AFFF763
:10570000A9FF214822491C4A08F0A2F921484FF07C
:10571000FF31214AFFF7B6FF1E482049164A08F01C
:1057200097F91F484FF0FF311E4AFFF7ABFF1C48A7
:105730001A49114A08F08CF91B484FF0FF311B4AF7
:10574000FFF7A0FF184815490B4A08F081F91848DF
:105750004FF0FF31174AFFF765FF15480949064A20
:1057600008F076F90837BD4680BD00BFC80B0020A1
:10577000B0E00008DDCE0008BC0C0020E40B0020E7
:10578000C4E00008C9550008080C0020D4E0000857
:10579000155800082C0C0020E0E00008B95700085C
:1057A000500C0020F0E00008740C002000E100081C
:1057B000980C002014E1000880B582B000AF78603A
:1057C0007B680A4A1A600A48FFF72EF87B68184679
:1057D000FDF7E0FD0023002B02D07868FFF784FB83
:1057E0007B6818460837BD4680BD00BFB0E800089A
:1057F000A0E0000880B582B000AF78607868FFF75D
:10580000DBFF7868FFF770FB7B6818460837BD46FA
:1058100080BD00BF80B582B000AF78607B680A4A67
:105820001A600A48FFF700F87B681846FDF7B2FDDA
:105830000023002B02D07868FFF756FB7B681846E0
:105840000837BD4680BD00BFC0E80008A0E00008E2
:1058500080B582B000AF78607868FFF7DBFF7868CA
:10586000FFF742FB7B6818460837BD4680BD00BF86
:1058700080B500AF01204FF6FF71FFF71BFF80BD21
:1058800080B594B000AF7860396056E2002387F8A5
:105890004E30002387F84D30002387F84C3000232A
:1058A00087F84B3097F84F30252B0AD07B681B6860
:1058B00008331B6897F84F2052B278681146984712
:1058C0003BE23B685A1C3A601B7887F84F30002354
:1058D00087F84330202387F84230032387F841308C
:1058E00097F84F30302B09D197F84F3087F8423076
:1058F0003B685A1C3A601B7887F84F3097F84F3056
:105900002F2B0ED997F84F30392B0AD897F84F30F4
:10591000303B87F843303B685A1C3A601B7887F865
:105920004F3097F84F302E2B10D13B685A1C3A60FD
:105930001B7887F84F3097F84F30303B87F841306D
:105940003B685A1C3A601B7887F84F3097F84F3005
:105950006C2B08D1012387F84D303B685A1C3A6004
:105960001B7887F84F3097F84F306C2B08D1012304
:1059700087F84C303B685A1C3A601B7887F84F30E8
:1059800097F84F30623B162B38D801A151F823F01D
:10599000895A0008ED590008735A0008FD5900089B
:1059A0006D5A0008FD590008FD590008FD5900080E
:1059B000FD590008FD590008FD590008FD5900086F
:1059C000FD590008575A0008FD590008FD59000804
:1059D000FD590008135A0008FD590008795A0008BB
:1059E000FD590008FD590008815A00087B685B6872
:1059F000191D7A6851601B6887F84F307B681B68F7
:105A000008331B6897F84F2052B2786811469847C0
:105A100093E17B685B68191D7A6851601B687B6441
:105A200009E07B681B6808331B6897F84F2052B267
:105A30007868114698477B6C5A1C7A641B7887F803
:105A40004F3097F84F30002B0CBF00230123DBB2FF
:105A5000002BE6D171E10823A7F848307B681B686A
:105A600008331B6878683021984711E0012387F8D4
:105A70004B30012387F84E300A23A7F8483007E05F
:105A80001023A7F8483003E00223A7F8483000BFEE
:105A90004FF000024FF00003C7E90C234FF0000263
:105AA0004FF00003C7E90A2397F84B30002B15D0BD
:105AB0007B685B68073323F0070303F108017A680A
:105AC0005160D3E90023C7E90A23D7E90A01FBF7AC
:105AD00003F802460B46C7E90C232CE097F84C303C
